{"contracts/NooriBankBridge.sol":{"NooriBankBridge":{"abi":[{"inputs":[],"stateMutability":"nonpayable","type":"constructor"},{"inputs":[],"name":"InvalidInitialization","type":"error"},{"inputs":[],"name":"NotInitializing","type":"error"},{"inputs":[{"internalType":"address","name":"owner","type":"address"}],"name":"OwnableInvalidOwner","type":"error"},{"inputs":[{"internalType":"address","name":"account","type":"address"}],"name":"OwnableUnauthorizedAccount","type":"error"},{"inputs":[],"name":"ReentrancyGuardReentrantCall","type":"error"},{"anonymous":false,"inputs":[{"indexed":false,"internalType":"address","name":"token","type":"address"},{"indexed":false,"internalType":"uint16","name":"sourceChainId","type":"uint16"}],"name":"BridgeInitialized","type":"event"},{"anonymous":false,"inputs":[{"indexed":true,"internalType":"uint16","name":"chainId","type":"uint16"},{"indexed":false,"internalType":"address","name":"remoteBridge","type":"address"}],"name":"ChainRegistered","type":"event"},{"anonymous":false,"inputs":[{"indexed":true,"internalType":"uint16","name":"chainId","type":"uint16"},{"indexed":false,"internalType":"bool","name":"enabled","type":"bool"}],"name":"ChainToggled","type":"event"},{"anonymous":false,"inputs":[{"indexed":true,"internalType":"address","name":"from","type":"address"},{"indexed":false,"internalType":"uint16","name":"targetChainId","type":"uint16"},{"indexed":false,"internalType":"address","name":"targetAddress","type":"address"},{"indexed":false,"internalType":"uint256","name":"amount","type":"uint256"}],"name":"CrossChainTransferInitiated","type":"event"},{"anonymous":false,"inputs":[{"indexed":false,"internalType":"uint64","name":"version","type":"uint64"}],"name":"Initialized","type":"event"},{"anonymous":false,"inputs":[{"indexed":true,"internalType":"address","name":"previousOwner","type":"address"},{"indexed":true,"internalType":"address","name":"newOwner","type":"address"}],"name":"OwnershipTransferred","type":"event"},{"anonymous":false,"inputs":[{"indexed":true,"internalType":"address","name":"user","type":"address"},{"indexed":false,"internalType":"uint256","name":"amount","type":"uint256"},{"indexed":false,"internalType":"string","name":"targetChain","type":"string"},{"indexed":false,"internalType":"address","name":"targetAddress","type":"address"}],"name":"TokenLocked","type":"event"},{"anonymous":false,"inputs":[{"indexed":true,"internalType":"address","name":"user","type":"address"},{"indexed":false,"internalType":"uint256","name":"amount","type":"uint256"},{"indexed":false,"internalType":"string","name":"sourceChain","type":"string"},{"indexed":false,"internalType":"bytes32","name":"transactionHash","type":"bytes32"}],"name":"TokenMinted","type":"event"},{"anonymous":false,"inputs":[{"indexed":false,"internalType":"address","name":"newAddress","type":"address"}],"name":"TokenUpdated","type":"event"},{"anonymous":false,"inputs":[{"indexed":true,"internalType":"bytes32","name":"transferId","type":"bytes32"},{"indexed":true,"internalType":"address","name":"recipient","type":"address"},{"indexed":false,"internalType":"uint256","name":"amount","type":"uint256"}],"name":"TransferDelayed","type":"event"},{"inputs":[],"name":"DELAY_PERIOD","outputs":[{"internalType":"uint256","name":"","type":"uint256"}],"stateMutability":"view","type":"function"},{"inputs":[],"name":"LARGE_TRANSFER_THRESHOLD","outputs":[{"internalType":"uint256","name":"","type":"uint256"}],"stateMutability":"view","type":"function"},{"inputs":[],"name":"SOURCE_CHAIN_ID","outputs":[{"internalType":"uint16","name":"","type":"uint16"}],"stateMutability":"view","type":"function"},{"inputs":[{"internalType":"address","name":"","type":"address"}],"name":"blockedAddresses","outputs":[{"internalType":"bool","name":"","type":"bool"}],"stateMutability":"view","type":"function"},{"inputs":[{"internalType":"uint256","name":"amount","type":"uint256"},{"internalType":"string","name":"targetChain","type":"string"},{"internalType":"address","name":"targetAddress","type":"address"}],"name":"burnTokens","outputs":[],"stateMutability":"nonpayable","type":"function"},{"inputs":[],"name":"endpoint","outputs":[{"internalType":"contract ILayerZeroEndpoint","name":"","type":"address"}],"stateMutability":"view","type":"function"},{"inputs":[{"internalType":"bytes32","name":"transferId","type":"bytes32"}],"name":"executeDelayedTransfer","outputs":[],"stateMutability":"nonpayable","type":"function"},{"inputs":[{"internalType":"address","name":"_token","type":"address"},{"internalType":"address","name":"_endpoint","type":"address"},{"internalType":"uint256","name":"_minGasForTransfer","type":"uint256"}],"name":"initialize","outputs":[],"stateMutability":"nonpayable","type":"function"},{"inputs":[{"internalType":"address","name":"to","type":"address"},{"internalType":"uint256","name":"amount","type":"uint256"}],"name":"initiateTransfer","outputs":[],"stateMutability":"nonpayable","type":"function"},{"inputs":[{"internalType":"uint256","name":"amount","type":"uint256"},{"internalType":"string","name":"targetChain","type":"string"},{"internalType":"address","name":"targetAddress","type":"address"}],"name":"lockTokens","outputs":[],"stateMutability":"nonpayable","type":"function"},{"inputs":[{"internalType":"uint16","name":"_srcChainId","type":"uint16"},{"internalType":"bytes","name":"_srcAddress","type":"bytes"},{"internalType":"uint64","name":"_nonce","type":"uint64"},{"internalType":"bytes","name":"_payload","type":"bytes"}],"name":"lzReceive","outputs":[],"stateMutability":"nonpayable","type":"function"},{"inputs":[],"name":"minGasForTransfer","outputs":[{"internalType":"uint256","name":"","type":"uint256"}],"stateMutability":"view","type":"function"},{"inputs":[{"internalType":"address","name":"to","type":"address"},{"internalType":"uint256","name":"amount","type":"uint256"},{"internalType":"string","name":"sourceChain","type":"string"},{"internalType":"bytes32","name":"transactionHash","type":"bytes32"}],"name":"mintTokens","outputs":[{"internalType":"bool","name":"","type":"bool"}],"stateMutability":"nonpayable","type":"function"},{"inputs":[],"name":"owner","outputs":[{"internalType":"address","name":"","type":"address"}],"stateMutability":"view","type":"function"},{"inputs":[{"internalType":"bytes32","name":"","type":"bytes32"}],"name":"pendingTransfers","outputs":[{"internalType":"address","name":"recipient","type":"address"},{"internalType":"uint256","name":"amount","type":"uint256"},{"internalType":"uint256","name":"timestamp","type":"uint256"},{"internalType":"bool","name":"processed","type":"bool"}],"stateMutability":"view","type":"function"},{"inputs":[{"internalType":"bytes32","name":"transferId","type":"bytes32"}],"name":"processDelayedTransfer","outputs":[],"stateMutability":"nonpayable","type":"function"},{"inputs":[{"internalType":"bytes32","name":"","type":"bytes32"}],"name":"processedHashes","outputs":[{"internalType":"bool","name":"","type":"bool"}],"stateMutability":"view","type":"function"},{"inputs":[{"internalType":"uint16","name":"chainId","type":"uint16"},{"internalType":"address","name":"remoteBridge","type":"address"},{"internalType":"bool","name":"enabled","type":"bool"}],"name":"registerChain","outputs":[],"stateMutability":"nonpayable","type":"function"},{"inputs":[{"internalType":"address","name":"to","type":"address"},{"internalType":"uint256","name":"amount","type":"uint256"},{"internalType":"string","name":"sourceChain","type":"string"},{"internalType":"bytes32","name":"transactionHash","type":"bytes32"}],"name":"releaseTokens","outputs":[],"stateMutability":"nonpayable","type":"function"},{"inputs":[{"internalType":"uint16","name":"","type":"uint16"}],"name":"remoteBridges","outputs":[{"internalType":"address","name":"","type":"address"}],"stateMutability":"view","type":"function"},{"inputs":[],"name":"renounceOwnership","outputs":[],"stateMutability":"nonpayable","type":"function"},{"inputs":[{"internalType":"address","name":"tokenAddress","type":"address"},{"internalType":"uint256","name":"amount","type":"uint256"}],"name":"rescueTokens","outputs":[],"stateMutability":"nonpayable","type":"function"},{"inputs":[{"internalType":"uint16","name":"_srcChainId","type":"uint16"},{"internalType":"bytes","name":"_srcAddress","type":"bytes"},{"internalType":"bytes","name":"","type":"bytes"}],"name":"retryPayload","outputs":[],"stateMutability":"nonpayable","type":"function"},{"inputs":[{"internalType":"uint16","name":"targetChainId","type":"uint16"},{"internalType":"address","name":"targetAddress","type":"address"},{"internalType":"uint256","name":"amount","type":"uint256"}],"name":"sendTokens","outputs":[],"stateMutability":"payable","type":"function"},{"inputs":[{"internalType":"address","name":"account","type":"address"},{"internalType":"bool","name":"blocked","type":"bool"}],"name":"setBlockedAddress","outputs":[],"stateMutability":"nonpayable","type":"function"},{"inputs":[{"internalType":"uint256","name":"_minGasForTransfer","type":"uint256"}],"name":"setMinGasForTransfer","outputs":[],"stateMutability":"nonpayable","type":"function"},{"inputs":[{"internalType":"uint16","name":"","type":"uint16"}],"name":"supportedChains","outputs":[{"internalType":"address","name":"remoteBridge","type":"address"},{"internalType":"bool","name":"enabled","type":"bool"}],"stateMutability":"view","type":"function"},{"inputs":[{"internalType":"uint16","name":"chainId","type":"uint16"},{"internalType":"bool","name":"enabled","type":"bool"}],"name":"toggleChain","outputs":[],"stateMutability":"nonpayable","type":"function"},{"inputs":[],"name":"token","outputs":[{"internalType":"contract INooriToken","name":"","type":"address"}],"stateMutability":"view","type":"function"},{"inputs":[{"internalType":"address","name":"newOwner","type":"address"}],"name":"transferOwnership","outputs":[],"stateMutability":"nonpayable","type":"function"},{"inputs":[{"internalType":"address","name":"newAddress","type":"address"}],"name":"updateToken","outputs":[],"stateMutability":"nonpayable","type":"function"}],"evm":{"bytecode":{"linkReferences":{},"object":"60806040523461002257610011610027565b604051612ca16101d68239612ca190f35b600080fd5b61002f610039565b610037610104565b565b610037610086565b61004e61004e61004e9290565b90565b61004e6001610041565b90600019905b9181191691161790565b9061007b61004e61008292610041565b825461005b565b9055565b610037610091610051565b600061006b565b61004e9060401c60ff1690565b61004e9054610098565b61004e905b6001600160401b031690565b61004e90546100af565b906001600160401b0390610061565b61004e906100b4906001600160401b031682565b906100fd61004e610082926100d9565b82546100ca565b600061010e61019c565b01610118816100a5565b61018a57610125816100c0565b6001600160401b039190829081160361013c575050565b8161016b7fc7f505b2f371ae2175ee4913f4499e1f2633a7b5936321eed1cdaeb6115181d293610185936100ed565b604051918291826001600160401b03909116815260200190565b0390a1565b63f92ee8a960e01b6000908152600490fd5b61004e6101cd565b61004e7ff0c57e16840df040f15088dc2f81fe391c3923bec73e23a9662efc9c229c6a00610041565b61004e6101a456fe6080604052600436101561001257600080fd5b60003560e01c80621d35671461020157806307d9c534146101fc57806310d58783146101f75780631794bb3c146101f25780633c43d99d146101ed5780634514ad12146101e85780634f93208a146101e357806357376198146101de5780635745a3a2146101d95780635e280f11146101d4578063715018a6146101cf57806374be2150146101ca5780637ad3def2146101c55780638d4ab2c0146101c05780638da5cb5b146101bb57806392d5011f146101b65780639e25fc5c146101b1578063aaff5f16146101ac578063b2f18522146101a7578063b504cd1e146101a2578063b932aa371461019d578063be6cd04f14610198578063cfa713a314610193578063d01292dd1461018e578063d5e42e2c14610189578063e331de2b14610184578063e71a02e11461017f578063f2fde38b1461017a578063f6a0817b14610175578063fb7a9479146101705763fc0c546a0361021357610b4e565b610b27565b610af9565b610ab8565b610a9d565b610a6d565b610a52565b610a0e565b6109f6565b6109da565b61097d565b610948565b610929565b6108b9565b61084d565b610834565b6107d4565b610793565b6106ec565b6106bc565b610685565b61065e565b610609565b6105f0565b6105b9565b610539565b6104f8565b6104c6565b610452565b610370565b6102da565b61ffff81165b0361021357565b600080fd5b9050359061022582610206565b565b909182601f83011215610213578135916001600160401b03831161021357602001926001830284011161021357565b6001600160401b03811661020c565b9050359061022582610256565b9091608082840312610213576102888383610218565b9260208301356001600160401b03811161021357816102a8918501610227565b9290936102b88360408301610265565b9260608201356001600160401b038111610213576102d69201610227565b9091565b34610213576102f96102ed366004610272565b94939093929192611000565b60405180805b0390f35b8061020c565b9050359061022582610303565b906020828203126102135761032a91610309565b90565b905b600052602052604060002090565b61032a916008021c5b60ff1690565b9061032a915461033d565b600061036761032a92600261032d565b61034c565b9052565b34610213576102ff61038b610386366004610316565b610357565b6040515b91829182901515815260200190565b906020828203126102135761032a91610218565b6103c361032a61032a9261ffff1690565b61ffff1690565b9061032f906103b2565b61032a905b6001600160a01b031690565b61032a90546103d4565b61032a9060a01c610346565b61032a90546103ef565b6104109060066103ca565b9061032a600061041f846103e5565b93016103fb565b61036c906103d9565b91602061022592949361044a60408201966000830190610426565b019015159052565b346102135761046a61046536600461039e565b610405565b906102ff61047760405190565b9283928361042f565b61020c816103d9565b9050359061022582610480565b90916060828403126102135761032a6104af8484610489565b9360406104bf8260208701610489565b9401610309565b34610213576102f96104d9366004610496565b9161151c565b90916060828403126102135761032a6104af8484610218565b6102f96105063660046104df565b91611990565b600091031261021357565b61032a916008021c81565b9061032a9154610517565b61032a60006007610522565b346102135761054936600461050c565b6102ff61055461052d565b6040515b9182918290815260200190565b906020828203126102135761032a91610489565b61032a906103d9906001600160a01b031682565b61032a90610579565b61032a9061058d565b9061032f90610596565b600061036761032a92600861059f565b34610213576102ff61038b6105cf366004610565565b6105a9565b91906040838203126102135761032a9060206104bf8286610489565b34610213576102f96106033660046105d4565b90611a87565b34610213576102f961061c366004610316565b611d0c565b61032a916008021c6103d9565b9061032a9154610621565b61032a6000600461062e565b61036c90610596565b6020810192916102259190610645565b346102135761066e36600461050c565b6102ff610679610639565b6040519182918261064e565b346102135761069536600461050c565b6102f9611d32565b6103c361032a61032a9290565b61032a600161069d565b61032a6106aa565b34610213576106cc36600461050c565b6102ff6106d76106b4565b6040519182918261ffff909116815260200190565b34610213576102f96106ff366004610565565b611dec565b61032a9081565b61032a9054610704565b61032a90610346565b61032a9054610715565b61073390600561032d565b9061073d826103e5565b9161074a6001820161070b565b9161032a600361075c6002850161070b565b930161071e565b61044a6102259461078c606094989795610785608086019a6000870190610426565b6020850152565b6040830152565b34610213576102ff6107ae6107a9366004610316565b610728565b906107bb94929460405190565b94859485610763565b6020810192916102259190610426565b34610213576107e436600461050c565b6102ff6107ef611df5565b6040515b918291826107c4565b80151561020c565b90503590610225826107fc565b91906040838203126102135761032a90602061082d8286610489565b9401610804565b34610213576102f9610847366004610811565b90611e3c565b34610213576102f9610860366004610316565b611ea8565b606081830312610213576108798282610218565b9260208201356001600160401b0381116102135783610899918401610227565b92909360408201356001600160401b038111610213576102d69201610227565b34610213576102f96108cc366004610865565b93929092611f66565b919091608081840312610213576108ec8382610489565b926108fa8160208401610309565b9260408301356001600160401b038111610213578261092060609461032a938701610227565b94909501610309565b34610213576102ff61038b61093f3660046108d5565b939290926121cc565b34610213576102f961095b3660046105d4565b906122e5565b91906040838203126102135761032a90602061082d8286610218565b34610213576102f9610990366004610961565b906123e2565b90606082820312610213576109ab8183610309565b9260208301356001600160401b03811161021357826109d160409461032a938701610227565b94909501610489565b34610213576102f96109ed366004610996565b9291909161255c565b34610213576102f9610a09366004610316565b61257f565b34610213576102f9610a213660046108d5565b93929092612638565b61032a61032a61032a9290565b61032a69152d02c7e14af6800000610a2a565b61032a610a37565b3461021357610a6236600461050c565b6102ff610554610a4a565b34610213576102f9610a80366004610996565b929190916126fe565b61032a62015180610a2a565b61032a610a89565b3461021357610aad36600461050c565b6102ff610554610a95565b34610213576102f9610acb366004610565565b61275c565b90916060828403126102135761032a610ae98484610218565b93604061082d8260208701610489565b34610213576102f9610b0c366004610ad0565b9161291e565b6000610b2261032a9260036103ca565b61062e565b34610213576102ff6107ef610b3d36600461039e565b610b12565b61032a6000600161062e565b3461021357610b5e36600461050c565b6102ff610679610b42565b0190565b15610b7457565b60405162461bcd60e51b815260206004820152601760248201527f496e76616c696420656e64706f696e742063616c6c6572000000000000000000604482015280606481015b0390fd5b15610bc557565b60405162461bcd60e51b815260206004820152601360248201527210da185a5b881b9bdd081cdd5c1c1bdc9d1959606a1b6044820152606490fd5b356bffffffffffffffffffffffff19169060148110610c1d575090565b610c3a906bffffffffffffffffffffffff19906014036008021b90565b1690565b61032a9060601c610579565b61032a90610c3e565b15610c5a57565b60405162461bcd60e51b8152602060048201526015602482015274496e76616c696420736f757263652062726964676560581b6044820152606490fd5b6103d961032a61032a9290565b61032a90610c97565b15610cb457565b60405162461bcd60e51b8152602060048201526011602482015270125b9d985b1a59081c9958da5c1a595b9d607a1b6044820152606490fd5b634e487b7160e01b600052604160045260246000fd5b90601f01601f191681019081106001600160401b03821117610d2457604052565b610ced565b90505190610225826107fc565b906020828203126102135761032a91610d29565b916020610225929493610d6560408201966000830190610426565b0152565b6040513d6000823e3d90fd5b15610d7c57565b60405162461bcd60e51b815260206004820152600e60248201526d135a5b9d1a5b99c819985a5b195960921b6044820152606490fd5b61036c9061ffff1660f01b90565b90610b69610ddc60029365636861696e2d60d01b815260060190565b8092610db2565b61032a61032a61032a926001600160401b031690565b60005b838110610e0c5750506000910152565b8181015183820152602001610dfc565b610e3d610e46602093610b6993610e31815190565b80835293849260200190565b95869101610df9565b601f01601f191690565b908152929161022591604090610e729060608701908782036020890152610e1c565b940152565b90826000939282370152565b9091610b699083908093610e77565b61036c906001600160401b031660c01b90565b610eb161036c916103d9565b60601b90565b610b6994610ee9610ee26020999895601497600286610edb600898610ef19a610db2565b0191610e83565b8092610e92565b018092610ea5565b01918252565b90610225610f0460405190565b9283610d03565b61032a6080610ef7565b9061036c906103d9565b61032a90516103d9565b906001600160a01b03905b9181191691161790565b90610f4e61032a610f5592610596565b8254610f29565b9055565b9060001990610f34565b90610f7361032a610f5592610a2a565b8254610f59565b9060ff90610f34565b90610f9361032a610f5592151590565b8254610f7a565b6003610fef606061022594610fba610fb460008301610f1f565b86610f3e565b610fd1610fc8602083015190565b60018701610f63565b610fe8610fdf604083015190565b60028701610f63565b0151151590565b9101610f83565b9061022591610f9a565b9091929361109b906110a29661103861102961102461101f60046103e5565b610596565b6103d9565b611032336103d9565b14610b6d565b611056611051600061104b8760066103ca565b016103fb565b610bbe565b61109361106b6110668888610c00565b610c4a565b61108d61108761102460006110818a60066103ca565b016103e5565b916103d9565b14610c53565b8101906105d4565b9590610596565b936110c36110b36110246000610ca4565b6110bc876103d9565b1415610cad565b6110ce61032a610a37565b861115611199577ff5949f687937bd6768db11a421feb8c55deed44c9bc8e6e25efe684d2968300c9361112e6111949461118a946111228a8a6111849761111460405190565b978896602088019687610eb7565b90810382520382610d03565b611140611139825190565b9160200190565b2061032a61114c610f0b565b6111568882610f15565b611161896020830152565b61116c426040830152565b600060608201525b61117f83600561032d565b610ff6565b93610596565b9361055860405190565b0390a3565b9250929390506111ac61101f60016103e5565b60206111b760405190565b9182906308934a5f60e31b8252816000816111d6888c60048401610d4a565b03925af180156112865761123961123461122e600080516020612c4c8339815191529761121261123f9561125297600091611257575b50610d75565b61032a61121e60405190565b8092611122602083019182610dc0565b95610de3565b610a2a565b95610596565b9461124960405190565b93849384610e50565b0390a2565b611279915060203d60201161127f575b6112718183610d03565b810190610d36565b3861120c565b503d611267565b610d69565b61032a9060401c610346565b61032a905461128b565b61032a905b6001600160401b031690565b61032a90546112a1565b6112a661032a61032a9290565b906001600160401b0390610f34565b6112a661032a61032a926001600160401b031690565b906112fe61032a610f55926112d8565b82546112c9565b9068ff00000000000000009060401b610f34565b9061132961032a610f5592151590565b8254611305565b61036c906112bc565b6020810192916102259190611330565b90611352612929565b92839061136e61136861136484611297565b1590565b926112b2565b9260009461137b866112bc565b6001600160401b038616148061147b575b6001956113a861139b886112bc565b916001600160401b031690565b149081611453575b155b908161144a575b5061143b57906113e49291846113db886113d2896112bc565b9a01998a6112ee565b61142c576114a7565b6113ed57505050565b61141b611427927fc7f505b2f371ae2175ee4913f4499e1f2633a7b5936321eed1cdaeb6115181d294611319565b60405191829182611339565b0390a1565b6114368689611319565b6114a7565b63f92ee8a960e01b8652600486fd5b159050386113b9565b90506113b261146130610596565b3b61147261146e8a610a2a565b9190565b149190506113b0565b508361138c565b91602061022592949361149d60408201966000830190610426565b019061ffff169052565b907f9791fb750d6c4d3651a42030e2ddcf3cdabfe8b1a4544b5b4d615111ca343c16926114f76114f06114fe936114dd33612946565b61101f6114e987610596565b6001610f3e565b6004610f3e565b6007610f63565b6115066106aa565b9061142761151360405190565b92839283611482565b906102259291611349565b9061153a9291611535612959565b611583565b61022561299c565b1561154957565b60405162461bcd60e51b81526020600482015260126024820152711059191c995cdcc81a5cc8189b1bd8dad95960721b6044820152606490fd5b9061022592916115a76115a261136461159d33600861059f565b61071e565b611542565b9061022592916115c16115a261136461159d85600861059f565b611789565b156115cd57565b60405162461bcd60e51b815260206004820152601d60248201527f416d6f756e74206d7573742062652067726561746572207468616e20300000006044820152606490fd5b1561161957565b60405162461bcd60e51b815260206004820152601860248201527f436861696e206272696467652069732064697361626c656400000000000000006044820152606490fd5b1561166557565b60405162461bcd60e51b815260206004820152601960248201527f496e73756666696369656e74206761732070726f7669646564000000000000006044820152606490fd5b61ffff9091168152606081019392610225929091604091610d65905b6020830190610426565b610b6981601493610ea5565b6001600160401b038111610d2457602090601f01601f19160190565b9061170a611705836116dc565b610ef7565b918252565b61032a60006116f8565b61032a61170f565b926117676117729161175961032a9997989461177c9661174c60c08a019260008b019061ffff169052565b88820360208a0152610e1c565b908682036040880152610e1c565b956060850190610426565b6080830190610426565b60a0818403910152610e1c565b91906000926117a261179a85610a2a565b845b116115c6565b6006926117b38561108184876103ca565b926117d46117c087610ca4565b946117cd611087876103d9565b1415610bbe565b6117ea6117e58761104b86896103ca565b611612565b6118026117fa61032a600761070b565b34101561165e565b61180f61101f60016103e5565b91823b15610213578661182160405190565b93849063079cc67960e41b825281838161183f873360048401610d4a565b03925af191821561128657611122936118ac93611974575b5061186133610596565b7fc16a36dcb251f4c00971094fbeffdb9eee9c1f58125de0f87a424bbacd3f87ca61188b60405190565b8061189886868b846116aa565b0390a2604051938492602084019283610d4a565b6118b961101f60046103e5565b906118cd866110818563c5803100986103ca565b946118f66118da60405190565b80976118ea6020830191826116d0565b90810382520387610d03565b6118ff33610596565b91611908611719565b843b1561021357889661192f9461193a9361192260405190565b9a8b998a98899860e01b90565b885260048801611721565b039134905af180156112865761194e575050565b8161022592903d1061196d575b6119658183610d03565b81019061050c565b503d61195b565b61198a90893d8b1161196d576119658183610d03565b38611857565b906102259291611527565b90610225916119a86129ae565b6119f9565b156119b457565b60405162461bcd60e51b815260206004820152601a60248201527f43616e6e6f74207265736375652062726964676520746f6b656e0000000000006044820152606490fd5b611a5b91611a2961101f60209361101f611a1961102461101f60016103e5565b611a22836103d9565b14156119ad565b611a31611df5565b6000611a3c60405190565b809681958294611a5063a9059cbb60e01b90565b845260048401610d4a565b03925af1801561128657611a6c5750565b611a849060203d60201161127f576112718183610d03565b50565b906102259161199b565b61022590611a9d6129ae565b61153a90611aa9612959565b611beb565b15611ab557565b60405162461bcd60e51b8152602060048201526012602482015271151c985b9cd9995c881b9bdd08199bdd5b9960721b6044820152606490fd5b15611af657565b60405162461bcd60e51b815260206004820152601a60248201527f5472616e7366657220616c72656164792070726f6365737365640000000000006044820152606490fd5b634e487b7160e01b600052601160045260246000fd5b91908201809211611b5e57565b611b3b565b15611b6a57565b60405162461bcd60e51b815260206004820152601860248201527f44656c617920706572696f64206e6f7420656c617073656400000000000000006044820152606490fd5b9081526060602082018190526010908201526f3232b630bcb2b216ba3930b739b332b960811b6080820152919061022590604060a08501940152565b611cb5611bfc61032a83600561032d565b91611c20611c09846103e5565b611c196110876110246000610ca4565b1415611aae565b611c6d600160038501611c3d611c386113648361071e565b611aef565b611c68611c6061032a611c5260028a0161070b565b611c5a610a89565b90611b51565b421015611b63565b610f83565b611c7a61101f60016103e5565b926020816001611c89826103e5565b910195611c958761070b565b916000611ca160405190565b809881958294611a5063449a52f860e01b90565b03925af192831561128657611cf0611cf692611ceb600080516020612c4c83398151915296611184946000916112575750610d75565b6103e5565b9461070b565b92611252611d0360405190565b92839283611baf565b61022590611a91565b611d1d6129ae565b610225610225611d2d6000610ca4565b6129e5565b610225611d15565b61022590611d466129ae565b61153a90611d52612959565b611d9b565b15611d5e57565b60405162461bcd60e51b8152602060048201526015602482015274496e76616c696420746f6b656e206164647265737360581b6044820152606490fd5b6114277f5ba6b30cd4b2f9e9e67f4feb9b9df10d5da3b057598e6901b217b7d590345e3091611de0611dd06110246000610ca4565b611dd9836103d9565b1415611d57565b6107ef6114e982610596565b61022590611d3a565b61032a60007f9016d09d72d40fdae2fd8ceac6b6234c7706214fd39c1cd1e609a0528c199300611081565b9061022591611e2d6129ae565b90611c6861022592600861059f565b9061022591611e20565b61022590611e526129ae565b611e6361032a61022592600561032d565b611e75611c60611c526002840161070b565b611e8d600160038301611c68611c386113648361071e565b611ea26001611e9b836103e5565b920161070b565b90612ad4565b61022590611e46565b9061022594939291611ec16129ae565b611f02565b9190610e4681611edd81610b699560209181520190565b8095610e77565b61ffff91909116815260406020820181905261032a93910191611ec6565b92509250611f1361101f60046103e5565b803b1561021357611f459360008094611f2b60405190565b968795869485936342d65a8d60e01b855260048501611ee4565b03925af1801561128657611f565750565b6102259060006119658183610d03565b9061022594939291611eb1565b9061032a9594939291611f846129ae565b90611f9a9594939291611f95612959565b6120aa565b9061022561299c565b15611faa57565b60405162461bcd60e51b815260206004820152601d60248201527f5472616e73616374696f6e20616c72656164792070726f6365737365640000006044820152606490fd5b15611ff657565b60405162461bcd60e51b8152602060048201526016602482015275496e76616c696420746172676574206164647265737360501b6044820152606490fd5b1561203b57565b60405162461bcd60e51b815260206004820152601860248201527f416d6f756e742065786365656473207468726573686f6c6400000000000000006044820152606490fd5b94939160409161022594610e729261209d60608a019360008b0152565b88830360208a0152611ec6565b50939291906120c86120c361136461159d87600261032d565b611fa3565b6120e86120d86110246000610ca4565b6120e1876103d9565b1415611fef565b6120fe6120f661032a610a37565b821115612034565b61210e6001611c6886600261032d565b61211b61101f60016103e5565b93602061212760405190565b9586906308934a5f60e31b825281600081612146888d60048401610d4a565b03925af194851561128657600095612191575b5061218b90612178600080516020612c4c833981519152959697610596565b9561218260405190565b94859485612080565b0390a290565b600080516020612c4c833981519152949550906121786121c261218b9360203d60201161127f576112718183610d03565b9695505090612159565b61032a94939291906000611f73565b9061153a916121e8612959565b612214565b604090610d65610225949695939661220d60608401986000850190610426565b6020830152565b600061222e61222561102483610ca4565b6110bc846103d9565b61223a61179a82610a2a565b61224561032a610a37565b83106122da5761119461118a6111847ff5949f687937bd6768db11a421feb8c55deed44c9bc8e6e25efe684d2968300c9361032a61228260405190565b6122968160208101611122428d8d846121ed565b6122a1611139825190565b20916111746122ae610f0b565b916122bb8a828501610f15565b6122c68b6020850152565b6122d1426040850152565b15156060830152565b509061022591612ad4565b90610225916121db565b90610225916122fc6129ae565b61236a565b1561230857565b60405162461bcd60e51b815260206004820152601460248201527310da185a5b881b9bdd081c9959da5cdd195c995960621b6044820152606490fd5b9060ff60a01b9060a01b610f34565b9061236361032a610f5592151590565b8254612344565b6112526123d87f3670c8077fe2b25f52efd0a9d8d4a2745875be1f4bd3296b938d456e55b63cee926123bc6123a560006110818460066103ca565b6123b56110876110246000610ca4565b1415612301565b6123d38560006123cd8460066103ca565b01612353565b6103b2565b9261038f60405190565b90610225916122ef565b9061153a9392916123fb612959565b612483565b604090610d6561022594969593966116c660608401986000850190610426565b1561242757565b60405162461bcd60e51b815260206004820152600f60248201526e151c985b9cd9995c8819985a5b1959608a1b6044820152606490fd5b9493916040916102259461247b9261209d60608a019360008b0152565b940190610426565b6124df929361249b6124956000610a2a565b8361179c565b6020826124ab61101f60016103e5565b6124b430610596565b60006124bf60405190565b8099819582946124d36323b872dd60e01b90565b84523360048501612400565b03925af190811561128657612521611252927f8786e6ec8d013cb6dfb1b71a429e4f9d6f71acfb1f381106e217046664ad90c69660009161253d575b50612420565b61252a33610596565b9561253460405190565b9485948561245e565b612556915060203d60201161127f576112718183610d03565b3861251b565b906102259392916123ec565b610225906125746129ae565b610225906007610f63565b61022590612568565b90610225949392916125986129ae565b9061153a949392916125a8612959565b92936125be6120c361136461159d84600261032d565b6125ce6001611c6883600261032d565b6125db61101f60016103e5565b9060206125e760405190565b92839063a9059cbb60e01b825281600081612606898c60048401610d4a565b03925af1801561128657600080516020612c4c8339815191529561101f612178926112529560009161253d5750612420565b9061022594939291612588565b9061153a939291612654612959565b92919261266a6126646000610a2a565b8261179c565b61267761101f60016103e5565b92833b1561021357600061268a60405190565b94859063079cc67960e41b82528183816126a8883360048401610d4a565b03925af1908115611286577f8786e6ec8d013cb6dfb1b71a429e4f9d6f71acfb1f381106e217046664ad90c694611252926126e8575b5061252a33610596565b6126f89060006119658183610d03565b386126de565b90610225939291612645565b610225906127166129ae565b600061272181610ca4565b61272a816103d9565b612733846103d9565b14612743575050610225906129e5565b631e4fbdf760e01b82528190610bba90600483016107c4565b6102259061270a565b9061022592916127736129ae565b61283f565b1561277f57565b60405162461bcd60e51b8152602060048201526015602482015274496e76616c69642072656d6f74652062726964676560581b6044820152606490fd5b156127c357565b60405162461bcd60e51b815260206004820152601c60248201527f43616e6e6f7420726567697374657220736f7572636520636861696e000000006044820152606490fd5b61032a6040610ef7565b6102259161282f90602090610fe861282982610f1f565b85610f3e565b90612353565b9061022591612812565b907fb2f92ae146563fe193b48846974f797b06908d26dab8e3598ea23a1edb83141d6128d06128dc94936128896128796110246000610ca4565b612882866103d9565b1415612778565b6128a36128976103c36106aa565b61ffff831614156127bc565b6123d36128ae612808565b6128b88682610f15565b86151560208201526128cb8360066103ca565b612835565b9384926107f360405190565b0390a26128e65750565b7f3670c8077fe2b25f52efd0a9d8d4a2745875be1f4bd3296b938d456e55b63cee61291060405190565b600181528060208101611252565b906102259291612765565b61032a612bf8565b6102259061293d612c00565b61022590612c2f565b61022590612931565b61032a6002610a2a565b612963600061070b565b61296b61294f565b90811461297d57610225906000610f63565b633ee5aeb560e01b600090815260045b036000fd5b61032a6001610a2a565b6102256129a7612992565b6000610f63565b6129b6611df5565b33906129c4611087836103d9565b036129cc5750565b63118cdaa760e01b60009081529061298d9060046107c4565b612a25612a1f7f9016d09d72d40fdae2fd8ceac6b6234c7706214fd39c1cd1e609a0528c19930061101f84612a19836103e5565b92610f3e565b91610596565b907f8be0079c531659141344cd1fd0a4f28419497f9722a3daafe3b4186f6b6457e0612a5060405190565b8080611194565b15612a5e57565b60405162461bcd60e51b8152602060048201526014602482015273149958da5c1a595b9d081a5cc8189b1bd8dad95960621b6044820152606490fd5b908152606060208201819052600e908201526d3637b1b0b616ba3930b739b332b960911b6080820152919061022590604060a08501940152565b612aed612ae46110246000610ca4565b6110bc836103d9565b612afa6124956000610a2a565b612b13612b0e61136461159d84600861059f565b612a57565b612b2061101f60016103e5565b906020612b2c60405190565b9283906308934a5f60e31b825281600081612b4b898860048401610d4a565b03925af191821561128657600080516020612c4c83398151915292612b779160009161253d5750612420565b612bb9612b8360405190565b426020808301918252612ba79183916111229089610b6960148a610ef18588610ee9565b612bb2611139825190565b2091610596565b92611252612bc660405190565b92839283612a9a565b61032a7ff0c57e16840df040f15088dc2f81fe391c3923bec73e23a9662efc9c229c6a00610a2a565b61032a612bcf565b612c0b611364612c38565b612c1157565b631afcd79f60e31b6000908152600490fd5b61022590612716612c00565b61022590612c23565b61032a6000612c45612929565b0161129756fe7b93d20aa9666fff2b9034d25db8eefa4ada8752b0b713f599e9da3bd437e192a26469706673582212209d51a8725b04b894d03ccffdb1f2388006d7c40f923a5e3dba86c7e4747d23ac64736f6c634300081b0033","opcodes":"PUSH1 0x80 PUSH1 0x40 MSTORE CALLVALUE PUSH2 0x22 JUMPI PUSH2 0x11 PUSH2 0x27 JUMP JUMPDEST PUSH1 0x40 MLOAD PUSH2 0x2CA1 PUSH2 0x1D6 DUP3 CODECOPY PUSH2 0x2CA1 SWAP1 RETURN JUMPDEST PUSH1 0x0 DUP1 REVERT JUMPDEST PUSH2 0x2F PUSH2 0x39 JUMP JUMPDEST PUSH2 0x37 PUSH2 0x104 JUMP JUMPDEST JUMP JUMPDEST PUSH2 0x37 PUSH2 0x86 JUMP JUMPDEST PUSH2 0x4E PUSH2 0x4E PUSH2 0x4E SWAP3 SWAP1 JUMP JUMPDEST SWAP1 JUMP JUMPDEST PUSH2 0x4E PUSH1 0x1 PUSH2 0x41 JUMP JUMPDEST SWAP1 PUSH1 0x0 NOT SWAP1 JUMPDEST SWAP2 DUP2 NOT AND SWAP2 AND OR SWAP1 JUMP JUMPDEST SWAP1 PUSH2 0x7B PUSH2 0x4E PUSH2 0x82 SWAP3 PUSH2 0x41 JUMP JUMPDEST DUP3 SLOAD PUSH2 0x5B JUMP JUMPDEST SWAP1 SSTORE JUMP JUMPDEST PUSH2 0x37 PUSH2 0x91 PUSH2 0x51 JUMP JUMPDEST PUSH1 0x0 PUSH2 0x6B JUMP JUMPDEST PUSH2 0x4E SWAP1 PUSH1 0x40 SHR PUSH1 0xFF AND SWAP1 JUMP JUMPDEST PUSH2 0x4E SWAP1 SLOAD PUSH2 0x98 JUMP JUMPDEST PUSH2 0x4E SWAP1 JUMPDEST PUSH1 0x1 PUSH1 0x1 PUSH1 0x40 SHL SUB AND SWAP1 JUMP JUMPDEST PUSH2 0x4E SWAP1 SLOAD PUSH2 0xAF JUMP JUMPDEST SWAP1 PUSH1 0x1 PUSH1 0x1 PUSH1 0x40 SHL SUB SWAP1 PUSH2 0x61 JUMP JUMPDEST PUSH2 0x4E SWAP1 PUSH2 0xB4 SWAP1 PUSH1 0x1 PUSH1 0x1 PUSH1 0x40 SHL SUB AND DUP3 JUMP JUMPDEST SWAP1 PUSH2 0xFD PUSH2 0x4E PUSH2 0x82 SWAP3 PUSH2 0xD9 JUMP JUMPDEST DUP3 SLOAD PUSH2 0xCA JUMP JUMPDEST PUSH1 0x0 PUSH2 0x10E PUSH2 0x19C JUMP JUMPDEST ADD PUSH2 0x118 DUP2 PUSH2 0xA5 JUMP JUMPDEST PUSH2 0x18A JUMPI PUSH2 0x125 DUP2 PUSH2 0xC0 JUMP JUMPDEST PUSH1 0x1 PUSH1 0x1 PUSH1 0x40 SHL SUB SWAP2 SWAP1 DUP3 SWAP1 DUP2 AND SUB PUSH2 0x13C JUMPI POP POP JUMP JUMPDEST DUP2 PUSH2 0x16B PUSH32 0xC7F505B2F371AE2175EE4913F4499E1F2633A7B5936321EED1CDAEB6115181D2 SWAP4 PUSH2 0x185 SWAP4 PUSH2 0xED JUMP JUMPDEST PUSH1 0x40 MLOAD SWAP2 DUP3 SWAP2 DUP3 PUSH1 0x1 PUSH1 0x1 PUSH1 0x40 SHL SUB SWAP1 SWAP2 AND DUP2 MSTORE PUSH1 0x20 ADD SWAP1 JUMP JUMPDEST SUB SWAP1 LOG1 JUMP JUMPDEST PUSH4 0xF92EE8A9 PUSH1 0xE0 SHL PUSH1 0x0 SWAP1 DUP2 MSTORE PUSH1 0x4 SWAP1 REVERT JUMPDEST PUSH2 0x4E PUSH2 0x1CD JUMP JUMPDEST PUSH2 0x4E PUSH32 0xF0C57E16840DF040F15088DC2F81FE391C3923BEC73E23A9662EFC9C229C6A00 PUSH2 0x41 JUMP JUMPDEST PUSH2 0x4E PUSH2 0x1A4 JUMP INVALID PUSH1 0x80 PUSH1 0x40 MSTORE PUSH1 0x4 CALLDATASIZE LT ISZERO PUSH2 0x12 JUMPI PUSH1 0x0 DUP1 REVERT JUMPDEST PUSH1 0x0 CALLDATALOAD PUSH1 0xE0 SHR DUP1 PUSH3 0x1D3567 EQ PUSH2 0x201 JUMPI DUP1 PUSH4 0x7D9C534 EQ PUSH2 0x1FC JUMPI DUP1 PUSH4 0x10D58783 EQ PUSH2 0x1F7 JUMPI DUP1 PUSH4 0x1794BB3C EQ PUSH2 0x1F2 JUMPI DUP1 PUSH4 0x3C43D99D EQ PUSH2 0x1ED JUMPI DUP1 PUSH4 0x4514AD12 EQ PUSH2 0x1E8 JUMPI DUP1 PUSH4 0x4F93208A EQ PUSH2 0x1E3 JUMPI DUP1 PUSH4 0x57376198 EQ PUSH2 0x1DE JUMPI DUP1 PUSH4 0x5745A3A2 EQ PUSH2 0x1D9 JUMPI DUP1 PUSH4 0x5E280F11 EQ PUSH2 0x1D4 JUMPI DUP1 PUSH4 0x715018A6 EQ PUSH2 0x1CF JUMPI DUP1 PUSH4 0x74BE2150 EQ PUSH2 0x1CA JUMPI DUP1 PUSH4 0x7AD3DEF2 EQ PUSH2 0x1C5 JUMPI DUP1 PUSH4 0x8D4AB2C0 EQ PUSH2 0x1C0 JUMPI DUP1 PUSH4 0x8DA5CB5B EQ PUSH2 0x1BB JUMPI DUP1 PUSH4 0x92D5011F EQ PUSH2 0x1B6 JUMPI DUP1 PUSH4 0x9E25FC5C EQ PUSH2 0x1B1 JUMPI DUP1 PUSH4 0xAAFF5F16 EQ PUSH2 0x1AC JUMPI DUP1 PUSH4 0xB2F18522 EQ PUSH2 0x1A7 JUMPI DUP1 PUSH4 0xB504CD1E EQ PUSH2 0x1A2 JUMPI DUP1 PUSH4 0xB932AA37 EQ PUSH2 0x19D JUMPI DUP1 PUSH4 0xBE6CD04F EQ PUSH2 0x198 JUMPI DUP1 PUSH4 0xCFA713A3 EQ PUSH2 0x193 JUMPI DUP1 PUSH4 0xD01292DD EQ PUSH2 0x18E JUMPI DUP1 PUSH4 0xD5E42E2C EQ PUSH2 0x189 JUMPI DUP1 PUSH4 0xE331DE2B EQ PUSH2 0x184 JUMPI DUP1 PUSH4 0xE71A02E1 EQ PUSH2 0x17F JUMPI DUP1 PUSH4 0xF2FDE38B EQ PUSH2 0x17A JUMPI DUP1 PUSH4 0xF6A0817B EQ PUSH2 0x175 JUMPI DUP1 PUSH4 0xFB7A9479 EQ PUSH2 0x170 JUMPI PUSH4 0xFC0C546A SUB PUSH2 0x213 JUMPI PUSH2 0xB4E JUMP JUMPDEST PUSH2 0xB27 JUMP JUMPDEST PUSH2 0xAF9 JUMP JUMPDEST PUSH2 0xAB8 JUMP JUMPDEST PUSH2 0xA9D JUMP JUMPDEST PUSH2 0xA6D JUMP JUMPDEST PUSH2 0xA52 JUMP JUMPDEST PUSH2 0xA0E JUMP JUMPDEST PUSH2 0x9F6 JUMP JUMPDEST PUSH2 0x9DA JUMP JUMPDEST PUSH2 0x97D JUMP JUMPDEST PUSH2 0x948 JUMP JUMPDEST PUSH2 0x929 JUMP JUMPDEST PUSH2 0x8B9 JUMP JUMPDEST PUSH2 0x84D JUMP JUMPDEST PUSH2 0x834 JUMP JUMPDEST PUSH2 0x7D4 JUMP JUMPDEST PUSH2 0x793 JUMP JUMPDEST PUSH2 0x6EC JUMP JUMPDEST PUSH2 0x6BC JUMP JUMPDEST PUSH2 0x685 JUMP JUMPDEST PUSH2 0x65E JUMP JUMPDEST PUSH2 0x609 JUMP JUMPDEST PUSH2 0x5F0 JUMP JUMPDEST PUSH2 0x5B9 JUMP JUMPDEST PUSH2 0x539 JUMP JUMPDEST PUSH2 0x4F8 JUMP JUMPDEST PUSH2 0x4C6 JUMP JUMPDEST PUSH2 0x452 JUMP JUMPDEST PUSH2 0x370 JUMP JUMPDEST PUSH2 0x2DA JUMP JUMPDEST PUSH2 0xFFFF DUP2 AND JUMPDEST SUB PUSH2 0x213 JUMPI JUMP JUMPDEST PUSH1 0x0 DUP1 REVERT JUMPDEST SWAP1 POP CALLDATALOAD SWAP1 PUSH2 0x225 DUP3 PUSH2 0x206 JUMP JUMPDEST JUMP JUMPDEST SWAP1 SWAP2 DUP3 PUSH1 0x1F DUP4 ADD SLT ISZERO PUSH2 0x213 JUMPI DUP2 CALLDATALOAD SWAP2 PUSH1 0x1 PUSH1 0x1 PUSH1 0x40 SHL SUB DUP4 GT PUSH2 0x213 JUMPI PUSH1 0x20 ADD SWAP3 PUSH1 0x1 DUP4 MUL DUP5 ADD GT PUSH2 0x213 JUMPI JUMP JUMPDEST PUSH1 0x1 PUSH1 0x1 PUSH1 0x40 SHL SUB DUP2 AND PUSH2 0x20C JUMP JUMPDEST SWAP1 POP CALLDATALOAD SWAP1 PUSH2 0x225 DUP3 PUSH2 0x256 JUMP JUMPDEST SWAP1 SWAP2 PUSH1 0x80 DUP3 DUP5 SUB SLT PUSH2 0x213 JUMPI PUSH2 0x288 DUP4 DUP4 PUSH2 0x218 JUMP JUMPDEST SWAP3 PUSH1 0x20 DUP4 ADD CALLDATALOAD PUSH1 0x1 PUSH1 0x1 PUSH1 0x40 SHL SUB DUP2 GT PUSH2 0x213 JUMPI DUP2 PUSH2 0x2A8 SWAP2 DUP6 ADD PUSH2 0x227 JUMP JUMPDEST SWAP3 SWAP1 SWAP4 PUSH2 0x2B8 DUP4 PUSH1 0x40 DUP4 ADD PUSH2 0x265 JUMP JUMPDEST SWAP3 PUSH1 0x60 DUP3 ADD CALLDATALOAD PUSH1 0x1 PUSH1 0x1 PUSH1 0x40 SHL SUB DUP2 GT PUSH2 0x213 JUMPI PUSH2 0x2D6 SWAP3 ADD PUSH2 0x227 JUMP JUMPDEST SWAP1 SWAP2 JUMP JUMPDEST CALLVALUE PUSH2 0x213 JUMPI PUSH2 0x2F9 PUSH2 0x2ED CALLDATASIZE PUSH1 0x4 PUSH2 0x272 JUMP JUMPDEST SWAP5 SWAP4 SWAP1 SWAP4 SWAP3 SWAP2 SWAP3 PUSH2 0x1000 JUMP JUMPDEST PUSH1 0x40 MLOAD DUP1 DUP1 JUMPDEST SUB SWAP1 RETURN JUMPDEST DUP1 PUSH2 0x20C JUMP JUMPDEST SWAP1 POP CALLDATALOAD SWAP1 PUSH2 0x225 DUP3 PUSH2 0x303 JUMP JUMPDEST SWAP1 PUSH1 0x20 DUP3 DUP3 SUB SLT PUSH2 0x213 JUMPI PUSH2 0x32A SWAP2 PUSH2 0x309 JUMP JUMPDEST SWAP1 JUMP JUMPDEST SWAP1 JUMPDEST PUSH1 0x0 MSTORE PUSH1 0x20 MSTORE PUSH1 0x40 PUSH1 0x0 KECCAK256 SWAP1 JUMP JUMPDEST PUSH2 0x32A SWAP2 PUSH1 0x8 MUL SHR JUMPDEST PUSH1 0xFF AND SWAP1 JUMP JUMPDEST SWAP1 PUSH2 0x32A SWAP2 SLOAD PUSH2 0x33D JUMP JUMPDEST PUSH1 0x0 PUSH2 0x367 PUSH2 0x32A SWAP3 PUSH1 0x2 PUSH2 0x32D JUMP JUMPDEST PUSH2 0x34C JUMP JUMPDEST SWAP1 MSTORE JUMP JUMPDEST CALLVALUE PUSH2 0x213 JUMPI PUSH2 0x2FF PUSH2 0x38B PUSH2 0x386 CALLDATASIZE PUSH1 0x4 PUSH2 0x316 JUMP JUMPDEST PUSH2 0x357 JUMP JUMPDEST PUSH1 0x40 MLOAD JUMPDEST SWAP2 DUP3 SWAP2 DUP3 SWAP1 ISZERO ISZERO DUP2 MSTORE PUSH1 0x20 ADD SWAP1 JUMP JUMPDEST SWAP1 PUSH1 0x20 DUP3 DUP3 SUB SLT PUSH2 0x213 JUMPI PUSH2 0x32A SWAP2 PUSH2 0x218 JUMP JUMPDEST PUSH2 0x3C3 PUSH2 0x32A PUSH2 0x32A SWAP3 PUSH2 0xFFFF AND SWAP1 JUMP JUMPDEST PUSH2 0xFFFF AND SWAP1 JUMP JUMPDEST SWAP1 PUSH2 0x32F SWAP1 PUSH2 0x3B2 JUMP JUMPDEST PUSH2 0x32A SWAP1 JUMPDEST PUSH1 0x1 PUSH1 0x1 PUSH1 0xA0 SHL SUB AND SWAP1 JUMP JUMPDEST PUSH2 0x32A SWAP1 SLOAD PUSH2 0x3D4 JUMP JUMPDEST PUSH2 0x32A SWAP1 PUSH1 0xA0 SHR PUSH2 0x346 JUMP JUMPDEST PUSH2 0x32A SWAP1 SLOAD PUSH2 0x3EF JUMP JUMPDEST PUSH2 0x410 SWAP1 PUSH1 0x6 PUSH2 0x3CA JUMP JUMPDEST SWAP1 PUSH2 0x32A PUSH1 0x0 PUSH2 0x41F DUP5 PUSH2 0x3E5 JUMP JUMPDEST SWAP4 ADD PUSH2 0x3FB JUMP JUMPDEST PUSH2 0x36C SWAP1 PUSH2 0x3D9 JUMP JUMPDEST SWAP2 PUSH1 0x20 PUSH2 0x225 SWAP3 SWAP5 SWAP4 PUSH2 0x44A PUSH1 0x40 DUP3 ADD SWAP7 PUSH1 0x0 DUP4 ADD SWAP1 PUSH2 0x426 JUMP JUMPDEST ADD SWAP1 ISZERO ISZERO SWAP1 MSTORE JUMP JUMPDEST CALLVALUE PUSH2 0x213 JUMPI PUSH2 0x46A PUSH2 0x465 CALLDATASIZE PUSH1 0x4 PUSH2 0x39E JUMP JUMPDEST PUSH2 0x405 JUMP JUMPDEST SWAP1 PUSH2 0x2FF PUSH2 0x477 PUSH1 0x40 MLOAD SWAP1 JUMP JUMPDEST SWAP3 DUP4 SWAP3 DUP4 PUSH2 0x42F JUMP JUMPDEST PUSH2 0x20C DUP2 PUSH2 0x3D9 JUMP JUMPDEST SWAP1 POP CALLDATALOAD SWAP1 PUSH2 0x225 DUP3 PUSH2 0x480 JUMP JUMPDEST SWAP1 SWAP2 PUSH1 0x60 DUP3 DUP5 SUB SLT PUSH2 0x213 JUMPI PUSH2 0x32A PUSH2 0x4AF DUP5 DUP5 PUSH2 0x489 JUMP JUMPDEST SWAP4 PUSH1 0x40 PUSH2 0x4BF DUP3 PUSH1 0x20 DUP8 ADD PUSH2 0x489 JUMP JUMPDEST SWAP5 ADD PUSH2 0x309 JUMP JUMPDEST CALLVALUE PUSH2 0x213 JUMPI PUSH2 0x2F9 PUSH2 0x4D9 CALLDATASIZE PUSH1 0x4 PUSH2 0x496 JUMP JUMPDEST SWAP2 PUSH2 0x151C JUMP JUMPDEST SWAP1 SWAP2 PUSH1 0x60 DUP3 DUP5 SUB SLT PUSH2 0x213 JUMPI PUSH2 0x32A PUSH2 0x4AF DUP5 DUP5 PUSH2 0x218 JUMP JUMPDEST PUSH2 0x2F9 PUSH2 0x506 CALLDATASIZE PUSH1 0x4 PUSH2 0x4DF JUMP JUMPDEST SWAP2 PUSH2 0x1990 JUMP JUMPDEST PUSH1 0x0 SWAP2 SUB SLT PUSH2 0x213 JUMPI JUMP JUMPDEST PUSH2 0x32A SWAP2 PUSH1 0x8 MUL SHR DUP2 JUMP JUMPDEST SWAP1 PUSH2 0x32A SWAP2 SLOAD PUSH2 0x517 JUMP JUMPDEST PUSH2 0x32A PUSH1 0x0 PUSH1 0x7 PUSH2 0x522 JUMP JUMPDEST CALLVALUE PUSH2 0x213 JUMPI PUSH2 0x549 CALLDATASIZE PUSH1 0x4 PUSH2 0x50C JUMP JUMPDEST PUSH2 0x2FF PUSH2 0x554 PUSH2 0x52D JUMP JUMPDEST PUSH1 0x40 MLOAD JUMPDEST SWAP2 DUP3 SWAP2 DUP3 SWAP1 DUP2 MSTORE PUSH1 0x20 ADD SWAP1 JUMP JUMPDEST SWAP1 PUSH1 0x20 DUP3 DUP3 SUB SLT PUSH2 0x213 JUMPI PUSH2 0x32A SWAP2 PUSH2 0x489 JUMP JUMPDEST PUSH2 0x32A SWAP1 PUSH2 0x3D9 SWAP1 PUSH1 0x1 PUSH1 0x1 PUSH1 0xA0 SHL SUB AND DUP3 JUMP JUMPDEST PUSH2 0x32A SWAP1 PUSH2 0x579 JUMP JUMPDEST PUSH2 0x32A SWAP1 PUSH2 0x58D JUMP JUMPDEST SWAP1 PUSH2 0x32F SWAP1 PUSH2 0x596 JUMP JUMPDEST PUSH1 0x0 PUSH2 0x367 PUSH2 0x32A SWAP3 PUSH1 0x8 PUSH2 0x59F JUMP JUMPDEST CALLVALUE PUSH2 0x213 JUMPI PUSH2 0x2FF PUSH2 0x38B PUSH2 0x5CF CALLDATASIZE PUSH1 0x4 PUSH2 0x565 JUMP JUMPDEST PUSH2 0x5A9 JUMP JUMPDEST SWAP2 SWAP1 PUSH1 0x40 DUP4 DUP3 SUB SLT PUSH2 0x213 JUMPI PUSH2 0x32A SWAP1 PUSH1 0x20 PUSH2 0x4BF DUP3 DUP7 PUSH2 0x489 JUMP JUMPDEST CALLVALUE PUSH2 0x213 JUMPI PUSH2 0x2F9 PUSH2 0x603 CALLDATASIZE PUSH1 0x4 PUSH2 0x5D4 JUMP JUMPDEST SWAP1 PUSH2 0x1A87 JUMP JUMPDEST CALLVALUE PUSH2 0x213 JUMPI PUSH2 0x2F9 PUSH2 0x61C CALLDATASIZE PUSH1 0x4 PUSH2 0x316 JUMP JUMPDEST PUSH2 0x1D0C JUMP JUMPDEST PUSH2 0x32A SWAP2 PUSH1 0x8 MUL SHR PUSH2 0x3D9 JUMP JUMPDEST SWAP1 PUSH2 0x32A SWAP2 SLOAD PUSH2 0x621 JUMP JUMPDEST PUSH2 0x32A PUSH1 0x0 PUSH1 0x4 PUSH2 0x62E JUMP JUMPDEST PUSH2 0x36C SWAP1 PUSH2 0x596 JUMP JUMPDEST PUSH1 0x20 DUP2 ADD SWAP3 SWAP2 PUSH2 0x225 SWAP2 SWAP1 PUSH2 0x645 JUMP JUMPDEST CALLVALUE PUSH2 0x213 JUMPI PUSH2 0x66E CALLDATASIZE PUSH1 0x4 PUSH2 0x50C JUMP JUMPDEST PUSH2 0x2FF PUSH2 0x679 PUSH2 0x639 JUMP JUMPDEST PUSH1 0x40 MLOAD SWAP2 DUP3 SWAP2 DUP3 PUSH2 0x64E JUMP JUMPDEST CALLVALUE PUSH2 0x213 JUMPI PUSH2 0x695 CALLDATASIZE PUSH1 0x4 PUSH2 0x50C JUMP JUMPDEST PUSH2 0x2F9 PUSH2 0x1D32 JUMP JUMPDEST PUSH2 0x3C3 PUSH2 0x32A PUSH2 0x32A SWAP3 SWAP1 JUMP JUMPDEST PUSH2 0x32A PUSH1 0x1 PUSH2 0x69D JUMP JUMPDEST PUSH2 0x32A PUSH2 0x6AA JUMP JUMPDEST CALLVALUE PUSH2 0x213 JUMPI PUSH2 0x6CC CALLDATASIZE PUSH1 0x4 PUSH2 0x50C JUMP JUMPDEST PUSH2 0x2FF PUSH2 0x6D7 PUSH2 0x6B4 JUMP JUMPDEST PUSH1 0x40 MLOAD SWAP2 DUP3 SWAP2 DUP3 PUSH2 0xFFFF SWAP1 SWAP2 AND DUP2 MSTORE PUSH1 0x20 ADD SWAP1 JUMP JUMPDEST CALLVALUE PUSH2 0x213 JUMPI PUSH2 0x2F9 PUSH2 0x6FF CALLDATASIZE PUSH1 0x4 PUSH2 0x565 JUMP JUMPDEST PUSH2 0x1DEC JUMP JUMPDEST PUSH2 0x32A SWAP1 DUP2 JUMP JUMPDEST PUSH2 0x32A SWAP1 SLOAD PUSH2 0x704 JUMP JUMPDEST PUSH2 0x32A SWAP1 PUSH2 0x346 JUMP JUMPDEST PUSH2 0x32A SWAP1 SLOAD PUSH2 0x715 JUMP JUMPDEST PUSH2 0x733 SWAP1 PUSH1 0x5 PUSH2 0x32D JUMP JUMPDEST SWAP1 PUSH2 0x73D DUP3 PUSH2 0x3E5 JUMP JUMPDEST SWAP2 PUSH2 0x74A PUSH1 0x1 DUP3 ADD PUSH2 0x70B JUMP JUMPDEST SWAP2 PUSH2 0x32A PUSH1 0x3 PUSH2 0x75C PUSH1 0x2 DUP6 ADD PUSH2 0x70B JUMP JUMPDEST SWAP4 ADD PUSH2 0x71E JUMP JUMPDEST PUSH2 0x44A PUSH2 0x225 SWAP5 PUSH2 0x78C PUSH1 0x60 SWAP5 SWAP9 SWAP8 SWAP6 PUSH2 0x785 PUSH1 0x80 DUP7 ADD SWAP11 PUSH1 0x0 DUP8 ADD SWAP1 PUSH2 0x426 JUMP JUMPDEST PUSH1 0x20 DUP6 ADD MSTORE JUMP JUMPDEST PUSH1 0x40 DUP4 ADD MSTORE JUMP JUMPDEST CALLVALUE PUSH2 0x213 JUMPI PUSH2 0x2FF PUSH2 0x7AE PUSH2 0x7A9 CALLDATASIZE PUSH1 0x4 PUSH2 0x316 JUMP JUMPDEST PUSH2 0x728 JUMP JUMPDEST SWAP1 PUSH2 0x7BB SWAP5 SWAP3 SWAP5 PUSH1 0x40 MLOAD SWAP1 JUMP JUMPDEST SWAP5 DUP6 SWAP5 DUP6 PUSH2 0x763 JUMP JUMPDEST PUSH1 0x20 DUP2 ADD SWAP3 SWAP2 PUSH2 0x225 SWAP2 SWAP1 PUSH2 0x426 JUMP JUMPDEST CALLVALUE PUSH2 0x213 JUMPI PUSH2 0x7E4 CALLDATASIZE PUSH1 0x4 PUSH2 0x50C JUMP JUMPDEST PUSH2 0x2FF PUSH2 0x7EF PUSH2 0x1DF5 JUMP JUMPDEST PUSH1 0x40 MLOAD JUMPDEST SWAP2 DUP3 SWAP2 DUP3 PUSH2 0x7C4 JUMP JUMPDEST DUP1 ISZERO ISZERO PUSH2 0x20C JUMP JUMPDEST SWAP1 POP CALLDATALOAD SWAP1 PUSH2 0x225 DUP3 PUSH2 0x7FC JUMP JUMPDEST SWAP2 SWAP1 PUSH1 0x40 DUP4 DUP3 SUB SLT PUSH2 0x213 JUMPI PUSH2 0x32A SWAP1 PUSH1 0x20 PUSH2 0x82D DUP3 DUP7 PUSH2 0x489 JUMP JUMPDEST SWAP5 ADD PUSH2 0x804 JUMP JUMPDEST CALLVALUE PUSH2 0x213 JUMPI PUSH2 0x2F9 PUSH2 0x847 CALLDATASIZE PUSH1 0x4 PUSH2 0x811 JUMP JUMPDEST SWAP1 PUSH2 0x1E3C JUMP JUMPDEST CALLVALUE PUSH2 0x213 JUMPI PUSH2 0x2F9 PUSH2 0x860 CALLDATASIZE PUSH1 0x4 PUSH2 0x316 JUMP JUMPDEST PUSH2 0x1EA8 JUMP JUMPDEST PUSH1 0x60 DUP2 DUP4 SUB SLT PUSH2 0x213 JUMPI PUSH2 0x879 DUP3 DUP3 PUSH2 0x218 JUMP JUMPDEST SWAP3 PUSH1 0x20 DUP3 ADD CALLDATALOAD PUSH1 0x1 PUSH1 0x1 PUSH1 0x40 SHL SUB DUP2 GT PUSH2 0x213 JUMPI DUP4 PUSH2 0x899 SWAP2 DUP5 ADD PUSH2 0x227 JUMP JUMPDEST SWAP3 SWAP1 SWAP4 PUSH1 0x40 DUP3 ADD CALLDATALOAD PUSH1 0x1 PUSH1 0x1 PUSH1 0x40 SHL SUB DUP2 GT PUSH2 0x213 JUMPI PUSH2 0x2D6 SWAP3 ADD PUSH2 0x227 JUMP JUMPDEST CALLVALUE PUSH2 0x213 JUMPI PUSH2 0x2F9 PUSH2 0x8CC CALLDATASIZE PUSH1 0x4 PUSH2 0x865 JUMP JUMPDEST SWAP4 SWAP3 SWAP1 SWAP3 PUSH2 0x1F66 JUMP JUMPDEST SWAP2 SWAP1 SWAP2 PUSH1 0x80 DUP2 DUP5 SUB SLT PUSH2 0x213 JUMPI PUSH2 0x8EC DUP4 DUP3 PUSH2 0x489 JUMP JUMPDEST SWAP3 PUSH2 0x8FA DUP2 PUSH1 0x20 DUP5 ADD PUSH2 0x309 JUMP JUMPDEST SWAP3 PUSH1 0x40 DUP4 ADD CALLDATALOAD PUSH1 0x1 PUSH1 0x1 PUSH1 0x40 SHL SUB DUP2 GT PUSH2 0x213 JUMPI DUP3 PUSH2 0x920 PUSH1 0x60 SWAP5 PUSH2 0x32A SWAP4 DUP8 ADD PUSH2 0x227 JUMP JUMPDEST SWAP5 SWAP1 SWAP6 ADD PUSH2 0x309 JUMP JUMPDEST CALLVALUE PUSH2 0x213 JUMPI PUSH2 0x2FF PUSH2 0x38B PUSH2 0x93F CALLDATASIZE PUSH1 0x4 PUSH2 0x8D5 JUMP JUMPDEST SWAP4 SWAP3 SWAP1 SWAP3 PUSH2 0x21CC JUMP JUMPDEST CALLVALUE PUSH2 0x213 JUMPI PUSH2 0x2F9 PUSH2 0x95B CALLDATASIZE PUSH1 0x4 PUSH2 0x5D4 JUMP JUMPDEST SWAP1 PUSH2 0x22E5 JUMP JUMPDEST SWAP2 SWAP1 PUSH1 0x40 DUP4 DUP3 SUB SLT PUSH2 0x213 JUMPI PUSH2 0x32A SWAP1 PUSH1 0x20 PUSH2 0x82D DUP3 DUP7 PUSH2 0x218 JUMP JUMPDEST CALLVALUE PUSH2 0x213 JUMPI PUSH2 0x2F9 PUSH2 0x990 CALLDATASIZE PUSH1 0x4 PUSH2 0x961 JUMP JUMPDEST SWAP1 PUSH2 0x23E2 JUMP JUMPDEST SWAP1 PUSH1 0x60 DUP3 DUP3 SUB SLT PUSH2 0x213 JUMPI PUSH2 0x9AB DUP2 DUP4 PUSH2 0x309 JUMP JUMPDEST SWAP3 PUSH1 0x20 DUP4 ADD CALLDATALOAD PUSH1 0x1 PUSH1 0x1 PUSH1 0x40 SHL SUB DUP2 GT PUSH2 0x213 JUMPI DUP3 PUSH2 0x9D1 PUSH1 0x40 SWAP5 PUSH2 0x32A SWAP4 DUP8 ADD PUSH2 0x227 JUMP JUMPDEST SWAP5 SWAP1 SWAP6 ADD PUSH2 0x489 JUMP JUMPDEST CALLVALUE PUSH2 0x213 JUMPI PUSH2 0x2F9 PUSH2 0x9ED CALLDATASIZE PUSH1 0x4 PUSH2 0x996 JUMP JUMPDEST SWAP3 SWAP2 SWAP1 SWAP2 PUSH2 0x255C JUMP JUMPDEST CALLVALUE PUSH2 0x213 JUMPI PUSH2 0x2F9 PUSH2 0xA09 CALLDATASIZE PUSH1 0x4 PUSH2 0x316 JUMP JUMPDEST PUSH2 0x257F JUMP JUMPDEST CALLVALUE PUSH2 0x213 JUMPI PUSH2 0x2F9 PUSH2 0xA21 CALLDATASIZE PUSH1 0x4 PUSH2 0x8D5 JUMP JUMPDEST SWAP4 SWAP3 SWAP1 SWAP3 PUSH2 0x2638 JUMP JUMPDEST PUSH2 0x32A PUSH2 0x32A PUSH2 0x32A SWAP3 SWAP1 JUMP JUMPDEST PUSH2 0x32A PUSH10 0x152D02C7E14AF6800000 PUSH2 0xA2A JUMP JUMPDEST PUSH2 0x32A PUSH2 0xA37 JUMP JUMPDEST CALLVALUE PUSH2 0x213 JUMPI PUSH2 0xA62 CALLDATASIZE PUSH1 0x4 PUSH2 0x50C JUMP JUMPDEST PUSH2 0x2FF PUSH2 0x554 PUSH2 0xA4A JUMP JUMPDEST CALLVALUE PUSH2 0x213 JUMPI PUSH2 0x2F9 PUSH2 0xA80 CALLDATASIZE PUSH1 0x4 PUSH2 0x996 JUMP JUMPDEST SWAP3 SWAP2 SWAP1 SWAP2 PUSH2 0x26FE JUMP JUMPDEST PUSH2 0x32A PUSH3 0x15180 PUSH2 0xA2A JUMP JUMPDEST PUSH2 0x32A PUSH2 0xA89 JUMP JUMPDEST CALLVALUE PUSH2 0x213 JUMPI PUSH2 0xAAD CALLDATASIZE PUSH1 0x4 PUSH2 0x50C JUMP JUMPDEST PUSH2 0x2FF PUSH2 0x554 PUSH2 0xA95 JUMP JUMPDEST CALLVALUE PUSH2 0x213 JUMPI PUSH2 0x2F9 PUSH2 0xACB CALLDATASIZE PUSH1 0x4 PUSH2 0x565 JUMP JUMPDEST PUSH2 0x275C JUMP JUMPDEST SWAP1 SWAP2 PUSH1 0x60 DUP3 DUP5 SUB SLT PUSH2 0x213 JUMPI PUSH2 0x32A PUSH2 0xAE9 DUP5 DUP5 PUSH2 0x218 JUMP JUMPDEST SWAP4 PUSH1 0x40 PUSH2 0x82D DUP3 PUSH1 0x20 DUP8 ADD PUSH2 0x489 JUMP JUMPDEST CALLVALUE PUSH2 0x213 JUMPI PUSH2 0x2F9 PUSH2 0xB0C CALLDATASIZE PUSH1 0x4 PUSH2 0xAD0 JUMP JUMPDEST SWAP2 PUSH2 0x291E JUMP JUMPDEST PUSH1 0x0 PUSH2 0xB22 PUSH2 0x32A SWAP3 PUSH1 0x3 PUSH2 0x3CA JUMP JUMPDEST PUSH2 0x62E JUMP JUMPDEST CALLVALUE PUSH2 0x213 JUMPI PUSH2 0x2FF PUSH2 0x7EF PUSH2 0xB3D CALLDATASIZE PUSH1 0x4 PUSH2 0x39E JUMP JUMPDEST PUSH2 0xB12 JUMP JUMPDEST PUSH2 0x32A PUSH1 0x0 PUSH1 0x1 PUSH2 0x62E JUMP JUMPDEST CALLVALUE PUSH2 0x213 JUMPI PUSH2 0xB5E CALLDATASIZE PUSH1 0x4 PUSH2 0x50C JUMP JUMPDEST PUSH2 0x2FF PUSH2 0x679 PUSH2 0xB42 JUMP JUMPDEST ADD SWAP1 JUMP JUMPDEST ISZERO PUSH2 0xB74 JUMPI JUMP JUMPDEST PUSH1 0x40 MLOAD PUSH3 0x461BCD PUSH1 0xE5 SHL DUP2 MSTORE PUSH1 0x20 PUSH1 0x4 DUP3 ADD MSTORE PUSH1 0x17 PUSH1 0x24 DUP3 ADD MSTORE PUSH32 0x496E76616C696420656E64706F696E742063616C6C6572000000000000000000 PUSH1 0x44 DUP3 ADD MSTORE DUP1 PUSH1 0x64 DUP2 ADD JUMPDEST SUB SWAP1 REVERT JUMPDEST ISZERO PUSH2 0xBC5 JUMPI JUMP JUMPDEST PUSH1 0x40 MLOAD PUSH3 0x461BCD PUSH1 0xE5 SHL DUP2 MSTORE PUSH1 0x20 PUSH1 0x4 DUP3 ADD MSTORE PUSH1 0x13 PUSH1 0x24 DUP3 ADD MSTORE PUSH19 0x10DA185A5B881B9BDD081CDD5C1C1BDC9D1959 PUSH1 0x6A SHL PUSH1 0x44 DUP3 ADD MSTORE PUSH1 0x64 SWAP1 REVERT JUMPDEST CALLDATALOAD PUSH12 0xFFFFFFFFFFFFFFFFFFFFFFFF NOT AND SWAP1 PUSH1 0x14 DUP2 LT PUSH2 0xC1D JUMPI POP SWAP1 JUMP JUMPDEST PUSH2 0xC3A SWAP1 PUSH12 0xFFFFFFFFFFFFFFFFFFFFFFFF NOT SWAP1 PUSH1 0x14 SUB PUSH1 0x8 MUL SHL SWAP1 JUMP JUMPDEST AND SWAP1 JUMP JUMPDEST PUSH2 0x32A SWAP1 PUSH1 0x60 SHR PUSH2 0x579 JUMP JUMPDEST PUSH2 0x32A SWAP1 PUSH2 0xC3E JUMP JUMPDEST ISZERO PUSH2 0xC5A JUMPI JUMP JUMPDEST PUSH1 0x40 MLOAD PUSH3 0x461BCD PUSH1 0xE5 SHL DUP2 MSTORE PUSH1 0x20 PUSH1 0x4 DUP3 ADD MSTORE PUSH1 0x15 PUSH1 0x24 DUP3 ADD MSTORE PUSH21 0x496E76616C696420736F7572636520627269646765 PUSH1 0x58 SHL PUSH1 0x44 DUP3 ADD MSTORE PUSH1 0x64 SWAP1 REVERT JUMPDEST PUSH2 0x3D9 PUSH2 0x32A PUSH2 0x32A SWAP3 SWAP1 JUMP JUMPDEST PUSH2 0x32A SWAP1 PUSH2 0xC97 JUMP JUMPDEST ISZERO PUSH2 0xCB4 JUMPI JUMP JUMPDEST PUSH1 0x40 MLOAD PUSH3 0x461BCD PUSH1 0xE5 SHL DUP2 MSTORE PUSH1 0x20 PUSH1 0x4 DUP3 ADD MSTORE PUSH1 0x11 PUSH1 0x24 DUP3 ADD MSTORE PUSH17 0x125B9D985B1A59081C9958DA5C1A595B9D PUSH1 0x7A SHL PUSH1 0x44 DUP3 ADD MSTORE PUSH1 0x64 SWAP1 REVERT JUMPDEST PUSH4 0x4E487B71 PUSH1 0xE0 SHL PUSH1 0x0 MSTORE PUSH1 0x41 PUSH1 0x4 MSTORE PUSH1 0x24 PUSH1 0x0 REVERT JUMPDEST SWAP1 PUSH1 0x1F ADD PUSH1 0x1F NOT AND DUP2 ADD SWAP1 DUP2 LT PUSH1 0x1 PUSH1 0x1 PUSH1 0x40 SHL SUB DUP3 GT OR PUSH2 0xD24 JUMPI PUSH1 0x40 MSTORE JUMP JUMPDEST PUSH2 0xCED JUMP JUMPDEST SWAP1 POP MLOAD SWAP1 PUSH2 0x225 DUP3 PUSH2 0x7FC JUMP JUMPDEST SWAP1 PUSH1 0x20 DUP3 DUP3 SUB SLT PUSH2 0x213 JUMPI PUSH2 0x32A SWAP2 PUSH2 0xD29 JUMP JUMPDEST SWAP2 PUSH1 0x20 PUSH2 0x225 SWAP3 SWAP5 SWAP4 PUSH2 0xD65 PUSH1 0x40 DUP3 ADD SWAP7 PUSH1 0x0 DUP4 ADD SWAP1 PUSH2 0x426 JUMP JUMPDEST ADD MSTORE JUMP JUMPDEST PUSH1 0x40 MLOAD RETURNDATASIZE PUSH1 0x0 DUP3 RETURNDATACOPY RETURNDATASIZE SWAP1 REVERT JUMPDEST ISZERO PUSH2 0xD7C JUMPI JUMP JUMPDEST PUSH1 0x40 MLOAD PUSH3 0x461BCD PUSH1 0xE5 SHL DUP2 MSTORE PUSH1 0x20 PUSH1 0x4 DUP3 ADD MSTORE PUSH1 0xE PUSH1 0x24 DUP3 ADD MSTORE PUSH14 0x135A5B9D1A5B99C819985A5B1959 PUSH1 0x92 SHL PUSH1 0x44 DUP3 ADD MSTORE PUSH1 0x64 SWAP1 REVERT JUMPDEST PUSH2 0x36C SWAP1 PUSH2 0xFFFF AND PUSH1 0xF0 SHL SWAP1 JUMP JUMPDEST SWAP1 PUSH2 0xB69 PUSH2 0xDDC PUSH1 0x2 SWAP4 PUSH6 0x636861696E2D PUSH1 0xD0 SHL DUP2 MSTORE PUSH1 0x6 ADD SWAP1 JUMP JUMPDEST DUP1 SWAP3 PUSH2 0xDB2 JUMP JUMPDEST PUSH2 0x32A PUSH2 0x32A PUSH2 0x32A SWAP3 PUSH1 0x1 PUSH1 0x1 PUSH1 0x40 SHL SUB AND SWAP1 JUMP JUMPDEST PUSH1 0x0 JUMPDEST DUP4 DUP2 LT PUSH2 0xE0C JUMPI POP POP PUSH1 0x0 SWAP2 ADD MSTORE JUMP JUMPDEST DUP2 DUP2 ADD MLOAD DUP4 DUP3 ADD MSTORE PUSH1 0x20 ADD PUSH2 0xDFC JUMP JUMPDEST PUSH2 0xE3D PUSH2 0xE46 PUSH1 0x20 SWAP4 PUSH2 0xB69 SWAP4 PUSH2 0xE31 DUP2 MLOAD SWAP1 JUMP JUMPDEST DUP1 DUP4 MSTORE SWAP4 DUP5 SWAP3 PUSH1 0x20 ADD SWAP1 JUMP JUMPDEST SWAP6 DUP7 SWAP2 ADD PUSH2 0xDF9 JUMP JUMPDEST PUSH1 0x1F ADD PUSH1 0x1F NOT AND SWAP1 JUMP JUMPDEST SWAP1 DUP2 MSTORE SWAP3 SWAP2 PUSH2 0x225 SWAP2 PUSH1 0x40 SWAP1 PUSH2 0xE72 SWAP1 PUSH1 0x60 DUP8 ADD SWAP1 DUP8 DUP3 SUB PUSH1 0x20 DUP10 ADD MSTORE PUSH2 0xE1C JUMP JUMPDEST SWAP5 ADD MSTORE JUMP JUMPDEST SWAP1 DUP3 PUSH1 0x0 SWAP4 SWAP3 DUP3 CALLDATACOPY ADD MSTORE JUMP JUMPDEST SWAP1 SWAP2 PUSH2 0xB69 SWAP1 DUP4 SWAP1 DUP1 SWAP4 PUSH2 0xE77 JUMP JUMPDEST PUSH2 0x36C SWAP1 PUSH1 0x1 PUSH1 0x1 PUSH1 0x40 SHL SUB AND PUSH1 0xC0 SHL SWAP1 JUMP JUMPDEST PUSH2 0xEB1 PUSH2 0x36C SWAP2 PUSH2 0x3D9 JUMP JUMPDEST PUSH1 0x60 SHL SWAP1 JUMP JUMPDEST PUSH2 0xB69 SWAP5 PUSH2 0xEE9 PUSH2 0xEE2 PUSH1 0x20 SWAP10 SWAP9 SWAP6 PUSH1 0x14 SWAP8 PUSH1 0x2 DUP7 PUSH2 0xEDB PUSH1 0x8 SWAP9 PUSH2 0xEF1 SWAP11 PUSH2 0xDB2 JUMP JUMPDEST ADD SWAP2 PUSH2 0xE83 JUMP JUMPDEST DUP1 SWAP3 PUSH2 0xE92 JUMP JUMPDEST ADD DUP1 SWAP3 PUSH2 0xEA5 JUMP JUMPDEST ADD SWAP2 DUP3 MSTORE JUMP JUMPDEST SWAP1 PUSH2 0x225 PUSH2 0xF04 PUSH1 0x40 MLOAD SWAP1 JUMP JUMPDEST SWAP3 DUP4 PUSH2 0xD03 JUMP JUMPDEST PUSH2 0x32A PUSH1 0x80 PUSH2 0xEF7 JUMP JUMPDEST SWAP1 PUSH2 0x36C SWAP1 PUSH2 0x3D9 JUMP JUMPDEST PUSH2 0x32A SWAP1 MLOAD PUSH2 0x3D9 JUMP JUMPDEST SWAP1 PUSH1 0x1 PUSH1 0x1 PUSH1 0xA0 SHL SUB SWAP1 JUMPDEST SWAP2 DUP2 NOT AND SWAP2 AND OR SWAP1 JUMP JUMPDEST SWAP1 PUSH2 0xF4E PUSH2 0x32A PUSH2 0xF55 SWAP3 PUSH2 0x596 JUMP JUMPDEST DUP3 SLOAD PUSH2 0xF29 JUMP JUMPDEST SWAP1 SSTORE JUMP JUMPDEST SWAP1 PUSH1 0x0 NOT SWAP1 PUSH2 0xF34 JUMP JUMPDEST SWAP1 PUSH2 0xF73 PUSH2 0x32A PUSH2 0xF55 SWAP3 PUSH2 0xA2A JUMP JUMPDEST DUP3 SLOAD PUSH2 0xF59 JUMP JUMPDEST SWAP1 PUSH1 0xFF SWAP1 PUSH2 0xF34 JUMP JUMPDEST SWAP1 PUSH2 0xF93 PUSH2 0x32A PUSH2 0xF55 SWAP3 ISZERO ISZERO SWAP1 JUMP JUMPDEST DUP3 SLOAD PUSH2 0xF7A JUMP JUMPDEST PUSH1 0x3 PUSH2 0xFEF PUSH1 0x60 PUSH2 0x225 SWAP5 PUSH2 0xFBA PUSH2 0xFB4 PUSH1 0x0 DUP4 ADD PUSH2 0xF1F JUMP JUMPDEST DUP7 PUSH2 0xF3E JUMP JUMPDEST PUSH2 0xFD1 PUSH2 0xFC8 PUSH1 0x20 DUP4 ADD MLOAD SWAP1 JUMP JUMPDEST PUSH1 0x1 DUP8 ADD PUSH2 0xF63 JUMP JUMPDEST PUSH2 0xFE8 PUSH2 0xFDF PUSH1 0x40 DUP4 ADD MLOAD SWAP1 JUMP JUMPDEST PUSH1 0x2 DUP8 ADD PUSH2 0xF63 JUMP JUMPDEST ADD MLOAD ISZERO ISZERO SWAP1 JUMP JUMPDEST SWAP2 ADD PUSH2 0xF83 JUMP JUMPDEST SWAP1 PUSH2 0x225 SWAP2 PUSH2 0xF9A JUMP JUMPDEST SWAP1 SWAP2 SWAP3 SWAP4 PUSH2 0x109B SWAP1 PUSH2 0x10A2 SWAP7 PUSH2 0x1038 PUSH2 0x1029 PUSH2 0x1024 PUSH2 0x101F PUSH1 0x4 PUSH2 0x3E5 JUMP JUMPDEST PUSH2 0x596 JUMP JUMPDEST PUSH2 0x3D9 JUMP JUMPDEST PUSH2 0x1032 CALLER PUSH2 0x3D9 JUMP JUMPDEST EQ PUSH2 0xB6D JUMP JUMPDEST PUSH2 0x1056 PUSH2 0x1051 PUSH1 0x0 PUSH2 0x104B DUP8 PUSH1 0x6 PUSH2 0x3CA JUMP JUMPDEST ADD PUSH2 0x3FB JUMP JUMPDEST PUSH2 0xBBE JUMP JUMPDEST PUSH2 0x1093 PUSH2 0x106B PUSH2 0x1066 DUP9 DUP9 PUSH2 0xC00 JUMP JUMPDEST PUSH2 0xC4A JUMP JUMPDEST PUSH2 0x108D PUSH2 0x1087 PUSH2 0x1024 PUSH1 0x0 PUSH2 0x1081 DUP11 PUSH1 0x6 PUSH2 0x3CA JUMP JUMPDEST ADD PUSH2 0x3E5 JUMP JUMPDEST SWAP2 PUSH2 0x3D9 JUMP JUMPDEST EQ PUSH2 0xC53 JUMP JUMPDEST DUP2 ADD SWAP1 PUSH2 0x5D4 JUMP JUMPDEST SWAP6 SWAP1 PUSH2 0x596 JUMP JUMPDEST SWAP4 PUSH2 0x10C3 PUSH2 0x10B3 PUSH2 0x1024 PUSH1 0x0 PUSH2 0xCA4 JUMP JUMPDEST PUSH2 0x10BC DUP8 PUSH2 0x3D9 JUMP JUMPDEST EQ ISZERO PUSH2 0xCAD JUMP JUMPDEST PUSH2 0x10CE PUSH2 0x32A PUSH2 0xA37 JUMP JUMPDEST DUP7 GT ISZERO PUSH2 0x1199 JUMPI PUSH32 0xF5949F687937BD6768DB11A421FEB8C55DEED44C9BC8E6E25EFE684D2968300C SWAP4 PUSH2 0x112E PUSH2 0x1194 SWAP5 PUSH2 0x118A SWAP5 PUSH2 0x1122 DUP11 DUP11 PUSH2 0x1184 SWAP8 PUSH2 0x1114 PUSH1 0x40 MLOAD SWAP1 JUMP JUMPDEST SWAP8 DUP9 SWAP7 PUSH1 0x20 DUP9 ADD SWAP7 DUP8 PUSH2 0xEB7 JUMP JUMPDEST SWAP1 DUP2 SUB DUP3 MSTORE SUB DUP3 PUSH2 0xD03 JUMP JUMPDEST PUSH2 0x1140 PUSH2 0x1139 DUP3 MLOAD SWAP1 JUMP JUMPDEST SWAP2 PUSH1 0x20 ADD SWAP1 JUMP JUMPDEST KECCAK256 PUSH2 0x32A PUSH2 0x114C PUSH2 0xF0B JUMP JUMPDEST PUSH2 0x1156 DUP9 DUP3 PUSH2 0xF15 JUMP JUMPDEST PUSH2 0x1161 DUP10 PUSH1 0x20 DUP4 ADD MSTORE JUMP JUMPDEST PUSH2 0x116C TIMESTAMP PUSH1 0x40 DUP4 ADD MSTORE JUMP JUMPDEST PUSH1 0x0 PUSH1 0x60 DUP3 ADD MSTORE JUMPDEST PUSH2 0x117F DUP4 PUSH1 0x5 PUSH2 0x32D JUMP JUMPDEST PUSH2 0xFF6 JUMP JUMPDEST SWAP4 PUSH2 0x596 JUMP JUMPDEST SWAP4 PUSH2 0x558 PUSH1 0x40 MLOAD SWAP1 JUMP JUMPDEST SUB SWAP1 LOG3 JUMP JUMPDEST SWAP3 POP SWAP3 SWAP4 SWAP1 POP PUSH2 0x11AC PUSH2 0x101F PUSH1 0x1 PUSH2 0x3E5 JUMP JUMPDEST PUSH1 0x20 PUSH2 0x11B7 PUSH1 0x40 MLOAD SWAP1 JUMP JUMPDEST SWAP2 DUP3 SWAP1 PUSH4 0x8934A5F PUSH1 0xE3 SHL DUP3 MSTORE DUP2 PUSH1 0x0 DUP2 PUSH2 0x11D6 DUP9 DUP13 PUSH1 0x4 DUP5 ADD PUSH2 0xD4A JUMP JUMPDEST SUB SWAP3 GAS CALL DUP1 ISZERO PUSH2 0x1286 JUMPI PUSH2 0x1239 PUSH2 0x1234 PUSH2 0x122E PUSH1 0x0 DUP1 MLOAD PUSH1 0x20 PUSH2 0x2C4C DUP4 CODECOPY DUP2 MLOAD SWAP2 MSTORE SWAP8 PUSH2 0x1212 PUSH2 0x123F SWAP6 PUSH2 0x1252 SWAP8 PUSH1 0x0 SWAP2 PUSH2 0x1257 JUMPI JUMPDEST POP PUSH2 0xD75 JUMP JUMPDEST PUSH2 0x32A PUSH2 0x121E PUSH1 0x40 MLOAD SWAP1 JUMP JUMPDEST DUP1 SWAP3 PUSH2 0x1122 PUSH1 0x20 DUP4 ADD SWAP2 DUP3 PUSH2 0xDC0 JUMP JUMPDEST SWAP6 PUSH2 0xDE3 JUMP JUMPDEST PUSH2 0xA2A JUMP JUMPDEST SWAP6 PUSH2 0x596 JUMP JUMPDEST SWAP5 PUSH2 0x1249 PUSH1 0x40 MLOAD SWAP1 JUMP JUMPDEST SWAP4 DUP5 SWAP4 DUP5 PUSH2 0xE50 JUMP JUMPDEST SUB SWAP1 LOG2 JUMP JUMPDEST PUSH2 0x1279 SWAP2 POP PUSH1 0x20 RETURNDATASIZE PUSH1 0x20 GT PUSH2 0x127F JUMPI JUMPDEST PUSH2 0x1271 DUP2 DUP4 PUSH2 0xD03 JUMP JUMPDEST DUP2 ADD SWAP1 PUSH2 0xD36 JUMP JUMPDEST CODESIZE PUSH2 0x120C JUMP JUMPDEST POP RETURNDATASIZE PUSH2 0x1267 JUMP JUMPDEST PUSH2 0xD69 JUMP JUMPDEST PUSH2 0x32A SWAP1 PUSH1 0x40 SHR PUSH2 0x346 JUMP JUMPDEST PUSH2 0x32A SWAP1 SLOAD PUSH2 0x128B JUMP JUMPDEST PUSH2 0x32A SWAP1 JUMPDEST PUSH1 0x1 PUSH1 0x1 PUSH1 0x40 SHL SUB AND SWAP1 JUMP JUMPDEST PUSH2 0x32A SWAP1 SLOAD PUSH2 0x12A1 JUMP JUMPDEST PUSH2 0x12A6 PUSH2 0x32A PUSH2 0x32A SWAP3 SWAP1 JUMP JUMPDEST SWAP1 PUSH1 0x1 PUSH1 0x1 PUSH1 0x40 SHL SUB SWAP1 PUSH2 0xF34 JUMP JUMPDEST PUSH2 0x12A6 PUSH2 0x32A PUSH2 0x32A SWAP3 PUSH1 0x1 PUSH1 0x1 PUSH1 0x40 SHL SUB AND SWAP1 JUMP JUMPDEST SWAP1 PUSH2 0x12FE PUSH2 0x32A PUSH2 0xF55 SWAP3 PUSH2 0x12D8 JUMP JUMPDEST DUP3 SLOAD PUSH2 0x12C9 JUMP JUMPDEST SWAP1 PUSH9 0xFF0000000000000000 SWAP1 PUSH1 0x40 SHL PUSH2 0xF34 JUMP JUMPDEST SWAP1 PUSH2 0x1329 PUSH2 0x32A PUSH2 0xF55 SWAP3 ISZERO ISZERO SWAP1 JUMP JUMPDEST DUP3 SLOAD PUSH2 0x1305 JUMP JUMPDEST PUSH2 0x36C SWAP1 PUSH2 0x12BC JUMP JUMPDEST PUSH1 0x20 DUP2 ADD SWAP3 SWAP2 PUSH2 0x225 SWAP2 SWAP1 PUSH2 0x1330 JUMP JUMPDEST SWAP1 PUSH2 0x1352 PUSH2 0x2929 JUMP JUMPDEST SWAP3 DUP4 SWAP1 PUSH2 0x136E PUSH2 0x1368 PUSH2 0x1364 DUP5 PUSH2 0x1297 JUMP JUMPDEST ISZERO SWAP1 JUMP JUMPDEST SWAP3 PUSH2 0x12B2 JUMP JUMPDEST SWAP3 PUSH1 0x0 SWAP5 PUSH2 0x137B DUP7 PUSH2 0x12BC JUMP JUMPDEST PUSH1 0x1 PUSH1 0x1 PUSH1 0x40 SHL SUB DUP7 AND EQ DUP1 PUSH2 0x147B JUMPI JUMPDEST PUSH1 0x1 SWAP6 PUSH2 0x13A8 PUSH2 0x139B DUP9 PUSH2 0x12BC JUMP JUMPDEST SWAP2 PUSH1 0x1 PUSH1 0x1 PUSH1 0x40 SHL SUB AND SWAP1 JUMP JUMPDEST EQ SWAP1 DUP2 PUSH2 0x1453 JUMPI JUMPDEST ISZERO JUMPDEST SWAP1 DUP2 PUSH2 0x144A JUMPI JUMPDEST POP PUSH2 0x143B JUMPI SWAP1 PUSH2 0x13E4 SWAP3 SWAP2 DUP5 PUSH2 0x13DB DUP9 PUSH2 0x13D2 DUP10 PUSH2 0x12BC JUMP JUMPDEST SWAP11 ADD SWAP10 DUP11 PUSH2 0x12EE JUMP JUMPDEST PUSH2 0x142C JUMPI PUSH2 0x14A7 JUMP JUMPDEST PUSH2 0x13ED JUMPI POP POP POP JUMP JUMPDEST PUSH2 0x141B PUSH2 0x1427 SWAP3 PUSH32 0xC7F505B2F371AE2175EE4913F4499E1F2633A7B5936321EED1CDAEB6115181D2 SWAP5 PUSH2 0x1319 JUMP JUMPDEST PUSH1 0x40 MLOAD SWAP2 DUP3 SWAP2 DUP3 PUSH2 0x1339 JUMP JUMPDEST SUB SWAP1 LOG1 JUMP JUMPDEST PUSH2 0x1436 DUP7 DUP10 PUSH2 0x1319 JUMP JUMPDEST PUSH2 0x14A7 JUMP JUMPDEST PUSH4 0xF92EE8A9 PUSH1 0xE0 SHL DUP7 MSTORE PUSH1 0x4 DUP7 REVERT JUMPDEST ISZERO SWAP1 POP CODESIZE PUSH2 0x13B9 JUMP JUMPDEST SWAP1 POP PUSH2 0x13B2 PUSH2 0x1461 ADDRESS PUSH2 0x596 JUMP JUMPDEST EXTCODESIZE PUSH2 0x1472 PUSH2 0x146E DUP11 PUSH2 0xA2A JUMP JUMPDEST SWAP2 SWAP1 JUMP JUMPDEST EQ SWAP2 SWAP1 POP PUSH2 0x13B0 JUMP JUMPDEST POP DUP4 PUSH2 0x138C JUMP JUMPDEST SWAP2 PUSH1 0x20 PUSH2 0x225 SWAP3 SWAP5 SWAP4 PUSH2 0x149D PUSH1 0x40 DUP3 ADD SWAP7 PUSH1 0x0 DUP4 ADD SWAP1 PUSH2 0x426 JUMP JUMPDEST ADD SWAP1 PUSH2 0xFFFF AND SWAP1 MSTORE JUMP JUMPDEST SWAP1 PUSH32 0x9791FB750D6C4D3651A42030E2DDCF3CDABFE8B1A4544B5B4D615111CA343C16 SWAP3 PUSH2 0x14F7 PUSH2 0x14F0 PUSH2 0x14FE SWAP4 PUSH2 0x14DD CALLER PUSH2 0x2946 JUMP JUMPDEST PUSH2 0x101F PUSH2 0x14E9 DUP8 PUSH2 0x596 JUMP JUMPDEST PUSH1 0x1 PUSH2 0xF3E JUMP JUMPDEST PUSH1 0x4 PUSH2 0xF3E JUMP JUMPDEST PUSH1 0x7 PUSH2 0xF63 JUMP JUMPDEST PUSH2 0x1506 PUSH2 0x6AA JUMP JUMPDEST SWAP1 PUSH2 0x1427 PUSH2 0x1513 PUSH1 0x40 MLOAD SWAP1 JUMP JUMPDEST SWAP3 DUP4 SWAP3 DUP4 PUSH2 0x1482 JUMP JUMPDEST SWAP1 PUSH2 0x225 SWAP3 SWAP2 PUSH2 0x1349 JUMP JUMPDEST SWAP1 PUSH2 0x153A SWAP3 SWAP2 PUSH2 0x1535 PUSH2 0x2959 JUMP JUMPDEST PUSH2 0x1583 JUMP JUMPDEST PUSH2 0x225 PUSH2 0x299C JUMP JUMPDEST ISZERO PUSH2 0x1549 JUMPI JUMP JUMPDEST PUSH1 0x40 MLOAD PUSH3 0x461BCD PUSH1 0xE5 SHL DUP2 MSTORE PUSH1 0x20 PUSH1 0x4 DUP3 ADD MSTORE PUSH1 0x12 PUSH1 0x24 DUP3 ADD MSTORE PUSH18 0x1059191C995CDCC81A5CC8189B1BD8DAD959 PUSH1 0x72 SHL PUSH1 0x44 DUP3 ADD MSTORE PUSH1 0x64 SWAP1 REVERT JUMPDEST SWAP1 PUSH2 0x225 SWAP3 SWAP2 PUSH2 0x15A7 PUSH2 0x15A2 PUSH2 0x1364 PUSH2 0x159D CALLER PUSH1 0x8 PUSH2 0x59F JUMP JUMPDEST PUSH2 0x71E JUMP JUMPDEST PUSH2 0x1542 JUMP JUMPDEST SWAP1 PUSH2 0x225 SWAP3 SWAP2 PUSH2 0x15C1 PUSH2 0x15A2 PUSH2 0x1364 PUSH2 0x159D DUP6 PUSH1 0x8 PUSH2 0x59F JUMP JUMPDEST PUSH2 0x1789 JUMP JUMPDEST ISZERO PUSH2 0x15CD JUMPI JUMP JUMPDEST PUSH1 0x40 MLOAD PUSH3 0x461BCD PUSH1 0xE5 SHL DUP2 MSTORE PUSH1 0x20 PUSH1 0x4 DUP3 ADD MSTORE PUSH1 0x1D PUSH1 0x24 DUP3 ADD MSTORE PUSH32 0x416D6F756E74206D7573742062652067726561746572207468616E2030000000 PUSH1 0x44 DUP3 ADD MSTORE PUSH1 0x64 SWAP1 REVERT JUMPDEST ISZERO PUSH2 0x1619 JUMPI JUMP JUMPDEST PUSH1 0x40 MLOAD PUSH3 0x461BCD PUSH1 0xE5 SHL DUP2 MSTORE PUSH1 0x20 PUSH1 0x4 DUP3 ADD MSTORE PUSH1 0x18 PUSH1 0x24 DUP3 ADD MSTORE PUSH32 0x436861696E206272696467652069732064697361626C65640000000000000000 PUSH1 0x44 DUP3 ADD MSTORE PUSH1 0x64 SWAP1 REVERT JUMPDEST ISZERO PUSH2 0x1665 JUMPI JUMP JUMPDEST PUSH1 0x40 MLOAD PUSH3 0x461BCD PUSH1 0xE5 SHL DUP2 MSTORE PUSH1 0x20 PUSH1 0x4 DUP3 ADD MSTORE PUSH1 0x19 PUSH1 0x24 DUP3 ADD MSTORE PUSH32 0x496E73756666696369656E74206761732070726F766964656400000000000000 PUSH1 0x44 DUP3 ADD MSTORE PUSH1 0x64 SWAP1 REVERT JUMPDEST PUSH2 0xFFFF SWAP1 SWAP2 AND DUP2 MSTORE PUSH1 0x60 DUP2 ADD SWAP4 SWAP3 PUSH2 0x225 SWAP3 SWAP1 SWAP2 PUSH1 0x40 SWAP2 PUSH2 0xD65 SWAP1 JUMPDEST PUSH1 0x20 DUP4 ADD SWAP1 PUSH2 0x426 JUMP JUMPDEST PUSH2 0xB69 DUP2 PUSH1 0x14 SWAP4 PUSH2 0xEA5 JUMP JUMPDEST PUSH1 0x1 PUSH1 0x1 PUSH1 0x40 SHL SUB DUP2 GT PUSH2 0xD24 JUMPI PUSH1 0x20 SWAP1 PUSH1 0x1F ADD PUSH1 0x1F NOT AND ADD SWAP1 JUMP JUMPDEST SWAP1 PUSH2 0x170A PUSH2 0x1705 DUP4 PUSH2 0x16DC JUMP JUMPDEST PUSH2 0xEF7 JUMP JUMPDEST SWAP2 DUP3 MSTORE JUMP JUMPDEST PUSH2 0x32A PUSH1 0x0 PUSH2 0x16F8 JUMP JUMPDEST PUSH2 0x32A PUSH2 0x170F JUMP JUMPDEST SWAP3 PUSH2 0x1767 PUSH2 0x1772 SWAP2 PUSH2 0x1759 PUSH2 0x32A SWAP10 SWAP8 SWAP9 SWAP5 PUSH2 0x177C SWAP7 PUSH2 0x174C PUSH1 0xC0 DUP11 ADD SWAP3 PUSH1 0x0 DUP12 ADD SWAP1 PUSH2 0xFFFF AND SWAP1 MSTORE JUMP JUMPDEST DUP9 DUP3 SUB PUSH1 0x20 DUP11 ADD MSTORE PUSH2 0xE1C JUMP JUMPDEST SWAP1 DUP7 DUP3 SUB PUSH1 0x40 DUP9 ADD MSTORE PUSH2 0xE1C JUMP JUMPDEST SWAP6 PUSH1 0x60 DUP6 ADD SWAP1 PUSH2 0x426 JUMP JUMPDEST PUSH1 0x80 DUP4 ADD SWAP1 PUSH2 0x426 JUMP JUMPDEST PUSH1 0xA0 DUP2 DUP5 SUB SWAP2 ADD MSTORE PUSH2 0xE1C JUMP JUMPDEST SWAP2 SWAP1 PUSH1 0x0 SWAP3 PUSH2 0x17A2 PUSH2 0x179A DUP6 PUSH2 0xA2A JUMP JUMPDEST DUP5 JUMPDEST GT PUSH2 0x15C6 JUMP JUMPDEST PUSH1 0x6 SWAP3 PUSH2 0x17B3 DUP6 PUSH2 0x1081 DUP5 DUP8 PUSH2 0x3CA JUMP JUMPDEST SWAP3 PUSH2 0x17D4 PUSH2 0x17C0 DUP8 PUSH2 0xCA4 JUMP JUMPDEST SWAP5 PUSH2 0x17CD PUSH2 0x1087 DUP8 PUSH2 0x3D9 JUMP JUMPDEST EQ ISZERO PUSH2 0xBBE JUMP JUMPDEST PUSH2 0x17EA PUSH2 0x17E5 DUP8 PUSH2 0x104B DUP7 DUP10 PUSH2 0x3CA JUMP JUMPDEST PUSH2 0x1612 JUMP JUMPDEST PUSH2 0x1802 PUSH2 0x17FA PUSH2 0x32A PUSH1 0x7 PUSH2 0x70B JUMP JUMPDEST CALLVALUE LT ISZERO PUSH2 0x165E JUMP JUMPDEST PUSH2 0x180F PUSH2 0x101F PUSH1 0x1 PUSH2 0x3E5 JUMP JUMPDEST SWAP2 DUP3 EXTCODESIZE ISZERO PUSH2 0x213 JUMPI DUP7 PUSH2 0x1821 PUSH1 0x40 MLOAD SWAP1 JUMP JUMPDEST SWAP4 DUP5 SWAP1 PUSH4 0x79CC679 PUSH1 0xE4 SHL DUP3 MSTORE DUP2 DUP4 DUP2 PUSH2 0x183F DUP8 CALLER PUSH1 0x4 DUP5 ADD PUSH2 0xD4A JUMP JUMPDEST SUB SWAP3 GAS CALL SWAP2 DUP3 ISZERO PUSH2 0x1286 JUMPI PUSH2 0x1122 SWAP4 PUSH2 0x18AC SWAP4 PUSH2 0x1974 JUMPI JUMPDEST POP PUSH2 0x1861 CALLER PUSH2 0x596 JUMP JUMPDEST PUSH32 0xC16A36DCB251F4C00971094FBEFFDB9EEE9C1F58125DE0F87A424BBACD3F87CA PUSH2 0x188B PUSH1 0x40 MLOAD SWAP1 JUMP JUMPDEST DUP1 PUSH2 0x1898 DUP7 DUP7 DUP12 DUP5 PUSH2 0x16AA JUMP JUMPDEST SUB SWAP1 LOG2 PUSH1 0x40 MLOAD SWAP4 DUP5 SWAP3 PUSH1 0x20 DUP5 ADD SWAP3 DUP4 PUSH2 0xD4A JUMP JUMPDEST PUSH2 0x18B9 PUSH2 0x101F PUSH1 0x4 PUSH2 0x3E5 JUMP JUMPDEST SWAP1 PUSH2 0x18CD DUP7 PUSH2 0x1081 DUP6 PUSH4 0xC5803100 SWAP9 PUSH2 0x3CA JUMP JUMPDEST SWAP5 PUSH2 0x18F6 PUSH2 0x18DA PUSH1 0x40 MLOAD SWAP1 JUMP JUMPDEST DUP1 SWAP8 PUSH2 0x18EA PUSH1 0x20 DUP4 ADD SWAP2 DUP3 PUSH2 0x16D0 JUMP JUMPDEST SWAP1 DUP2 SUB DUP3 MSTORE SUB DUP8 PUSH2 0xD03 JUMP JUMPDEST PUSH2 0x18FF CALLER PUSH2 0x596 JUMP JUMPDEST SWAP2 PUSH2 0x1908 PUSH2 0x1719 JUMP JUMPDEST DUP5 EXTCODESIZE ISZERO PUSH2 0x213 JUMPI DUP9 SWAP7 PUSH2 0x192F SWAP5 PUSH2 0x193A SWAP4 PUSH2 0x1922 PUSH1 0x40 MLOAD SWAP1 JUMP JUMPDEST SWAP11 DUP12 SWAP10 DUP11 SWAP9 DUP10 SWAP9 PUSH1 0xE0 SHL SWAP1 JUMP JUMPDEST DUP9 MSTORE PUSH1 0x4 DUP9 ADD PUSH2 0x1721 JUMP JUMPDEST SUB SWAP2 CALLVALUE SWAP1 GAS CALL DUP1 ISZERO PUSH2 0x1286 JUMPI PUSH2 0x194E JUMPI POP POP JUMP JUMPDEST DUP2 PUSH2 0x225 SWAP3 SWAP1 RETURNDATASIZE LT PUSH2 0x196D JUMPI JUMPDEST PUSH2 0x1965 DUP2 DUP4 PUSH2 0xD03 JUMP JUMPDEST DUP2 ADD SWAP1 PUSH2 0x50C JUMP JUMPDEST POP RETURNDATASIZE PUSH2 0x195B JUMP JUMPDEST PUSH2 0x198A SWAP1 DUP10 RETURNDATASIZE DUP12 GT PUSH2 0x196D JUMPI PUSH2 0x1965 DUP2 DUP4 PUSH2 0xD03 JUMP JUMPDEST CODESIZE PUSH2 0x1857 JUMP JUMPDEST SWAP1 PUSH2 0x225 SWAP3 SWAP2 PUSH2 0x1527 JUMP JUMPDEST SWAP1 PUSH2 0x225 SWAP2 PUSH2 0x19A8 PUSH2 0x29AE JUMP JUMPDEST PUSH2 0x19F9 JUMP JUMPDEST ISZERO PUSH2 0x19B4 JUMPI JUMP JUMPDEST PUSH1 0x40 MLOAD PUSH3 0x461BCD PUSH1 0xE5 SHL DUP2 MSTORE PUSH1 0x20 PUSH1 0x4 DUP3 ADD MSTORE PUSH1 0x1A PUSH1 0x24 DUP3 ADD MSTORE PUSH32 0x43616E6E6F74207265736375652062726964676520746F6B656E000000000000 PUSH1 0x44 DUP3 ADD MSTORE PUSH1 0x64 SWAP1 REVERT JUMPDEST PUSH2 0x1A5B SWAP2 PUSH2 0x1A29 PUSH2 0x101F PUSH1 0x20 SWAP4 PUSH2 0x101F PUSH2 0x1A19 PUSH2 0x1024 PUSH2 0x101F PUSH1 0x1 PUSH2 0x3E5 JUMP JUMPDEST PUSH2 0x1A22 DUP4 PUSH2 0x3D9 JUMP JUMPDEST EQ ISZERO PUSH2 0x19AD JUMP JUMPDEST PUSH2 0x1A31 PUSH2 0x1DF5 JUMP JUMPDEST PUSH1 0x0 PUSH2 0x1A3C PUSH1 0x40 MLOAD SWAP1 JUMP JUMPDEST DUP1 SWAP7 DUP2 SWAP6 DUP3 SWAP5 PUSH2 0x1A50 PUSH4 0xA9059CBB PUSH1 0xE0 SHL SWAP1 JUMP JUMPDEST DUP5 MSTORE PUSH1 0x4 DUP5 ADD PUSH2 0xD4A JUMP JUMPDEST SUB SWAP3 GAS CALL DUP1 ISZERO PUSH2 0x1286 JUMPI PUSH2 0x1A6C JUMPI POP JUMP JUMPDEST PUSH2 0x1A84 SWAP1 PUSH1 0x20 RETURNDATASIZE PUSH1 0x20 GT PUSH2 0x127F JUMPI PUSH2 0x1271 DUP2 DUP4 PUSH2 0xD03 JUMP JUMPDEST POP JUMP JUMPDEST SWAP1 PUSH2 0x225 SWAP2 PUSH2 0x199B JUMP JUMPDEST PUSH2 0x225 SWAP1 PUSH2 0x1A9D PUSH2 0x29AE JUMP JUMPDEST PUSH2 0x153A SWAP1 PUSH2 0x1AA9 PUSH2 0x2959 JUMP JUMPDEST PUSH2 0x1BEB JUMP JUMPDEST ISZERO PUSH2 0x1AB5 JUMPI JUMP JUMPDEST PUSH1 0x40 MLOAD PUSH3 0x461BCD PUSH1 0xE5 SHL DUP2 MSTORE PUSH1 0x20 PUSH1 0x4 DUP3 ADD MSTORE PUSH1 0x12 PUSH1 0x24 DUP3 ADD MSTORE PUSH18 0x151C985B9CD9995C881B9BDD08199BDD5B99 PUSH1 0x72 SHL PUSH1 0x44 DUP3 ADD MSTORE PUSH1 0x64 SWAP1 REVERT JUMPDEST ISZERO PUSH2 0x1AF6 JUMPI JUMP JUMPDEST PUSH1 0x40 MLOAD PUSH3 0x461BCD PUSH1 0xE5 SHL DUP2 MSTORE PUSH1 0x20 PUSH1 0x4 DUP3 ADD MSTORE PUSH1 0x1A PUSH1 0x24 DUP3 ADD MSTORE PUSH32 0x5472616E7366657220616C72656164792070726F636573736564000000000000 PUSH1 0x44 DUP3 ADD MSTORE PUSH1 0x64 SWAP1 REVERT JUMPDEST PUSH4 0x4E487B71 PUSH1 0xE0 SHL PUSH1 0x0 MSTORE PUSH1 0x11 PUSH1 0x4 MSTORE PUSH1 0x24 PUSH1 0x0 REVERT JUMPDEST SWAP2 SWAP1 DUP3 ADD DUP1 SWAP3 GT PUSH2 0x1B5E JUMPI JUMP JUMPDEST PUSH2 0x1B3B JUMP JUMPDEST ISZERO PUSH2 0x1B6A JUMPI JUMP JUMPDEST PUSH1 0x40 MLOAD PUSH3 0x461BCD PUSH1 0xE5 SHL DUP2 MSTORE PUSH1 0x20 PUSH1 0x4 DUP3 ADD MSTORE PUSH1 0x18 PUSH1 0x24 DUP3 ADD MSTORE PUSH32 0x44656C617920706572696F64206E6F7420656C61707365640000000000000000 PUSH1 0x44 DUP3 ADD MSTORE PUSH1 0x64 SWAP1 REVERT JUMPDEST SWAP1 DUP2 MSTORE PUSH1 0x60 PUSH1 0x20 DUP3 ADD DUP2 SWAP1 MSTORE PUSH1 0x10 SWAP1 DUP3 ADD MSTORE PUSH16 0x3232B630BCB2B216BA3930B739B332B9 PUSH1 0x81 SHL PUSH1 0x80 DUP3 ADD MSTORE SWAP2 SWAP1 PUSH2 0x225 SWAP1 PUSH1 0x40 PUSH1 0xA0 DUP6 ADD SWAP5 ADD MSTORE JUMP JUMPDEST PUSH2 0x1CB5 PUSH2 0x1BFC PUSH2 0x32A DUP4 PUSH1 0x5 PUSH2 0x32D JUMP JUMPDEST SWAP2 PUSH2 0x1C20 PUSH2 0x1C09 DUP5 PUSH2 0x3E5 JUMP JUMPDEST PUSH2 0x1C19 PUSH2 0x1087 PUSH2 0x1024 PUSH1 0x0 PUSH2 0xCA4 JUMP JUMPDEST EQ ISZERO PUSH2 0x1AAE JUMP JUMPDEST PUSH2 0x1C6D PUSH1 0x1 PUSH1 0x3 DUP6 ADD PUSH2 0x1C3D PUSH2 0x1C38 PUSH2 0x1364 DUP4 PUSH2 0x71E JUMP JUMPDEST PUSH2 0x1AEF JUMP JUMPDEST PUSH2 0x1C68 PUSH2 0x1C60 PUSH2 0x32A PUSH2 0x1C52 PUSH1 0x2 DUP11 ADD PUSH2 0x70B JUMP JUMPDEST PUSH2 0x1C5A PUSH2 0xA89 JUMP JUMPDEST SWAP1 PUSH2 0x1B51 JUMP JUMPDEST TIMESTAMP LT ISZERO PUSH2 0x1B63 JUMP JUMPDEST PUSH2 0xF83 JUMP JUMPDEST PUSH2 0x1C7A PUSH2 0x101F PUSH1 0x1 PUSH2 0x3E5 JUMP JUMPDEST SWAP3 PUSH1 0x20 DUP2 PUSH1 0x1 PUSH2 0x1C89 DUP3 PUSH2 0x3E5 JUMP JUMPDEST SWAP2 ADD SWAP6 PUSH2 0x1C95 DUP8 PUSH2 0x70B JUMP JUMPDEST SWAP2 PUSH1 0x0 PUSH2 0x1CA1 PUSH1 0x40 MLOAD SWAP1 JUMP JUMPDEST DUP1 SWAP9 DUP2 SWAP6 DUP3 SWAP5 PUSH2 0x1A50 PUSH4 0x449A52F8 PUSH1 0xE0 SHL SWAP1 JUMP JUMPDEST SUB SWAP3 GAS CALL SWAP3 DUP4 ISZERO PUSH2 0x1286 JUMPI PUSH2 0x1CF0 PUSH2 0x1CF6 SWAP3 PUSH2 0x1CEB PUSH1 0x0 DUP1 MLOAD PUSH1 0x20 PUSH2 0x2C4C DUP4 CODECOPY DUP2 MLOAD SWAP2 MSTORE SWAP7 PUSH2 0x1184 SWAP5 PUSH1 0x0 SWAP2 PUSH2 0x1257 JUMPI POP PUSH2 0xD75 JUMP JUMPDEST PUSH2 0x3E5 JUMP JUMPDEST SWAP5 PUSH2 0x70B JUMP JUMPDEST SWAP3 PUSH2 0x1252 PUSH2 0x1D03 PUSH1 0x40 MLOAD SWAP1 JUMP JUMPDEST SWAP3 DUP4 SWAP3 DUP4 PUSH2 0x1BAF JUMP JUMPDEST PUSH2 0x225 SWAP1 PUSH2 0x1A91 JUMP JUMPDEST PUSH2 0x1D1D PUSH2 0x29AE JUMP JUMPDEST PUSH2 0x225 PUSH2 0x225 PUSH2 0x1D2D PUSH1 0x0 PUSH2 0xCA4 JUMP JUMPDEST PUSH2 0x29E5 JUMP JUMPDEST PUSH2 0x225 PUSH2 0x1D15 JUMP JUMPDEST PUSH2 0x225 SWAP1 PUSH2 0x1D46 PUSH2 0x29AE JUMP JUMPDEST PUSH2 0x153A SWAP1 PUSH2 0x1D52 PUSH2 0x2959 JUMP JUMPDEST PUSH2 0x1D9B JUMP JUMPDEST ISZERO PUSH2 0x1D5E JUMPI JUMP JUMPDEST PUSH1 0x40 MLOAD PUSH3 0x461BCD PUSH1 0xE5 SHL DUP2 MSTORE PUSH1 0x20 PUSH1 0x4 DUP3 ADD MSTORE PUSH1 0x15 PUSH1 0x24 DUP3 ADD MSTORE PUSH21 0x496E76616C696420746F6B656E2061646472657373 PUSH1 0x58 SHL PUSH1 0x44 DUP3 ADD MSTORE PUSH1 0x64 SWAP1 REVERT JUMPDEST PUSH2 0x1427 PUSH32 0x5BA6B30CD4B2F9E9E67F4FEB9B9DF10D5DA3B057598E6901B217B7D590345E30 SWAP2 PUSH2 0x1DE0 PUSH2 0x1DD0 PUSH2 0x1024 PUSH1 0x0 PUSH2 0xCA4 JUMP JUMPDEST PUSH2 0x1DD9 DUP4 PUSH2 0x3D9 JUMP JUMPDEST EQ ISZERO PUSH2 0x1D57 JUMP JUMPDEST PUSH2 0x7EF PUSH2 0x14E9 DUP3 PUSH2 0x596 JUMP JUMPDEST PUSH2 0x225 SWAP1 PUSH2 0x1D3A JUMP JUMPDEST PUSH2 0x32A PUSH1 0x0 PUSH32 0x9016D09D72D40FDAE2FD8CEAC6B6234C7706214FD39C1CD1E609A0528C199300 PUSH2 0x1081 JUMP JUMPDEST SWAP1 PUSH2 0x225 SWAP2 PUSH2 0x1E2D PUSH2 0x29AE JUMP JUMPDEST SWAP1 PUSH2 0x1C68 PUSH2 0x225 SWAP3 PUSH1 0x8 PUSH2 0x59F JUMP JUMPDEST SWAP1 PUSH2 0x225 SWAP2 PUSH2 0x1E20 JUMP JUMPDEST PUSH2 0x225 SWAP1 PUSH2 0x1E52 PUSH2 0x29AE JUMP JUMPDEST PUSH2 0x1E63 PUSH2 0x32A PUSH2 0x225 SWAP3 PUSH1 0x5 PUSH2 0x32D JUMP JUMPDEST PUSH2 0x1E75 PUSH2 0x1C60 PUSH2 0x1C52 PUSH1 0x2 DUP5 ADD PUSH2 0x70B JUMP JUMPDEST PUSH2 0x1E8D PUSH1 0x1 PUSH1 0x3 DUP4 ADD PUSH2 0x1C68 PUSH2 0x1C38 PUSH2 0x1364 DUP4 PUSH2 0x71E JUMP JUMPDEST PUSH2 0x1EA2 PUSH1 0x1 PUSH2 0x1E9B DUP4 PUSH2 0x3E5 JUMP JUMPDEST SWAP3 ADD PUSH2 0x70B JUMP JUMPDEST SWAP1 PUSH2 0x2AD4 JUMP JUMPDEST PUSH2 0x225 SWAP1 PUSH2 0x1E46 JUMP JUMPDEST SWAP1 PUSH2 0x225 SWAP5 SWAP4 SWAP3 SWAP2 PUSH2 0x1EC1 PUSH2 0x29AE JUMP JUMPDEST PUSH2 0x1F02 JUMP JUMPDEST SWAP2 SWAP1 PUSH2 0xE46 DUP2 PUSH2 0x1EDD DUP2 PUSH2 0xB69 SWAP6 PUSH1 0x20 SWAP2 DUP2 MSTORE ADD SWAP1 JUMP JUMPDEST DUP1 SWAP6 PUSH2 0xE77 JUMP JUMPDEST PUSH2 0xFFFF SWAP2 SWAP1 SWAP2 AND DUP2 MSTORE PUSH1 0x40 PUSH1 0x20 DUP3 ADD DUP2 SWAP1 MSTORE PUSH2 0x32A SWAP4 SWAP2 ADD SWAP2 PUSH2 0x1EC6 JUMP JUMPDEST SWAP3 POP SWAP3 POP PUSH2 0x1F13 PUSH2 0x101F PUSH1 0x4 PUSH2 0x3E5 JUMP JUMPDEST DUP1 EXTCODESIZE ISZERO PUSH2 0x213 JUMPI PUSH2 0x1F45 SWAP4 PUSH1 0x0 DUP1 SWAP5 PUSH2 0x1F2B PUSH1 0x40 MLOAD SWAP1 JUMP JUMPDEST SWAP7 DUP8 SWAP6 DUP7 SWAP5 DUP6 SWAP4 PUSH4 0x42D65A8D PUSH1 0xE0 SHL DUP6 MSTORE PUSH1 0x4 DUP6 ADD PUSH2 0x1EE4 JUMP JUMPDEST SUB SWAP3 GAS CALL DUP1 ISZERO PUSH2 0x1286 JUMPI PUSH2 0x1F56 JUMPI POP JUMP JUMPDEST PUSH2 0x225 SWAP1 PUSH1 0x0 PUSH2 0x1965 DUP2 DUP4 PUSH2 0xD03 JUMP JUMPDEST SWAP1 PUSH2 0x225 SWAP5 SWAP4 SWAP3 SWAP2 PUSH2 0x1EB1 JUMP JUMPDEST SWAP1 PUSH2 0x32A SWAP6 SWAP5 SWAP4 SWAP3 SWAP2 PUSH2 0x1F84 PUSH2 0x29AE JUMP JUMPDEST SWAP1 PUSH2 0x1F9A SWAP6 SWAP5 SWAP4 SWAP3 SWAP2 PUSH2 0x1F95 PUSH2 0x2959 JUMP JUMPDEST PUSH2 0x20AA JUMP JUMPDEST SWAP1 PUSH2 0x225 PUSH2 0x299C JUMP JUMPDEST ISZERO PUSH2 0x1FAA JUMPI JUMP JUMPDEST PUSH1 0x40 MLOAD PUSH3 0x461BCD PUSH1 0xE5 SHL DUP2 MSTORE PUSH1 0x20 PUSH1 0x4 DUP3 ADD MSTORE PUSH1 0x1D PUSH1 0x24 DUP3 ADD MSTORE PUSH32 0x5472616E73616374696F6E20616C72656164792070726F636573736564000000 PUSH1 0x44 DUP3 ADD MSTORE PUSH1 0x64 SWAP1 REVERT JUMPDEST ISZERO PUSH2 0x1FF6 JUMPI JUMP JUMPDEST PUSH1 0x40 MLOAD PUSH3 0x461BCD PUSH1 0xE5 SHL DUP2 MSTORE PUSH1 0x20 PUSH1 0x4 DUP3 ADD MSTORE PUSH1 0x16 PUSH1 0x24 DUP3 ADD MSTORE PUSH22 0x496E76616C6964207461726765742061646472657373 PUSH1 0x50 SHL PUSH1 0x44 DUP3 ADD MSTORE PUSH1 0x64 SWAP1 REVERT JUMPDEST ISZERO PUSH2 0x203B JUMPI JUMP JUMPDEST PUSH1 0x40 MLOAD PUSH3 0x461BCD PUSH1 0xE5 SHL DUP2 MSTORE PUSH1 0x20 PUSH1 0x4 DUP3 ADD MSTORE PUSH1 0x18 PUSH1 0x24 DUP3 ADD MSTORE PUSH32 0x416D6F756E742065786365656473207468726573686F6C640000000000000000 PUSH1 0x44 DUP3 ADD MSTORE PUSH1 0x64 SWAP1 REVERT JUMPDEST SWAP5 SWAP4 SWAP2 PUSH1 0x40 SWAP2 PUSH2 0x225 SWAP5 PUSH2 0xE72 SWAP3 PUSH2 0x209D PUSH1 0x60 DUP11 ADD SWAP4 PUSH1 0x0 DUP12 ADD MSTORE JUMP JUMPDEST DUP9 DUP4 SUB PUSH1 0x20 DUP11 ADD MSTORE PUSH2 0x1EC6 JUMP JUMPDEST POP SWAP4 SWAP3 SWAP2 SWAP1 PUSH2 0x20C8 PUSH2 0x20C3 PUSH2 0x1364 PUSH2 0x159D DUP8 PUSH1 0x2 PUSH2 0x32D JUMP JUMPDEST PUSH2 0x1FA3 JUMP JUMPDEST PUSH2 0x20E8 PUSH2 0x20D8 PUSH2 0x1024 PUSH1 0x0 PUSH2 0xCA4 JUMP JUMPDEST PUSH2 0x20E1 DUP8 PUSH2 0x3D9 JUMP JUMPDEST EQ ISZERO PUSH2 0x1FEF JUMP JUMPDEST PUSH2 0x20FE PUSH2 0x20F6 PUSH2 0x32A PUSH2 0xA37 JUMP JUMPDEST DUP3 GT ISZERO PUSH2 0x2034 JUMP JUMPDEST PUSH2 0x210E PUSH1 0x1 PUSH2 0x1C68 DUP7 PUSH1 0x2 PUSH2 0x32D JUMP JUMPDEST PUSH2 0x211B PUSH2 0x101F PUSH1 0x1 PUSH2 0x3E5 JUMP JUMPDEST SWAP4 PUSH1 0x20 PUSH2 0x2127 PUSH1 0x40 MLOAD SWAP1 JUMP JUMPDEST SWAP6 DUP7 SWAP1 PUSH4 0x8934A5F PUSH1 0xE3 SHL DUP3 MSTORE DUP2 PUSH1 0x0 DUP2 PUSH2 0x2146 DUP9 DUP14 PUSH1 0x4 DUP5 ADD PUSH2 0xD4A JUMP JUMPDEST SUB SWAP3 GAS CALL SWAP5 DUP6 ISZERO PUSH2 0x1286 JUMPI PUSH1 0x0 SWAP6 PUSH2 0x2191 JUMPI JUMPDEST POP PUSH2 0x218B SWAP1 PUSH2 0x2178 PUSH1 0x0 DUP1 MLOAD PUSH1 0x20 PUSH2 0x2C4C DUP4 CODECOPY DUP2 MLOAD SWAP2 MSTORE SWAP6 SWAP7 SWAP8 PUSH2 0x596 JUMP JUMPDEST SWAP6 PUSH2 0x2182 PUSH1 0x40 MLOAD SWAP1 JUMP JUMPDEST SWAP5 DUP6 SWAP5 DUP6 PUSH2 0x2080 JUMP JUMPDEST SUB SWAP1 LOG2 SWAP1 JUMP JUMPDEST PUSH1 0x0 DUP1 MLOAD PUSH1 0x20 PUSH2 0x2C4C DUP4 CODECOPY DUP2 MLOAD SWAP2 MSTORE SWAP5 SWAP6 POP SWAP1 PUSH2 0x2178 PUSH2 0x21C2 PUSH2 0x218B SWAP4 PUSH1 0x20 RETURNDATASIZE PUSH1 0x20 GT PUSH2 0x127F JUMPI PUSH2 0x1271 DUP2 DUP4 PUSH2 0xD03 JUMP JUMPDEST SWAP7 SWAP6 POP POP SWAP1 PUSH2 0x2159 JUMP JUMPDEST PUSH2 0x32A SWAP5 SWAP4 SWAP3 SWAP2 SWAP1 PUSH1 0x0 PUSH2 0x1F73 JUMP JUMPDEST SWAP1 PUSH2 0x153A SWAP2 PUSH2 0x21E8 PUSH2 0x2959 JUMP JUMPDEST PUSH2 0x2214 JUMP JUMPDEST PUSH1 0x40 SWAP1 PUSH2 0xD65 PUSH2 0x225 SWAP5 SWAP7 SWAP6 SWAP4 SWAP7 PUSH2 0x220D PUSH1 0x60 DUP5 ADD SWAP9 PUSH1 0x0 DUP6 ADD SWAP1 PUSH2 0x426 JUMP JUMPDEST PUSH1 0x20 DUP4 ADD MSTORE JUMP JUMPDEST PUSH1 0x0 PUSH2 0x222E PUSH2 0x2225 PUSH2 0x1024 DUP4 PUSH2 0xCA4 JUMP JUMPDEST PUSH2 0x10BC DUP5 PUSH2 0x3D9 JUMP JUMPDEST PUSH2 0x223A PUSH2 0x179A DUP3 PUSH2 0xA2A JUMP JUMPDEST PUSH2 0x2245 PUSH2 0x32A PUSH2 0xA37 JUMP JUMPDEST DUP4 LT PUSH2 0x22DA JUMPI PUSH2 0x1194 PUSH2 0x118A PUSH2 0x1184 PUSH32 0xF5949F687937BD6768DB11A421FEB8C55DEED44C9BC8E6E25EFE684D2968300C SWAP4 PUSH2 0x32A PUSH2 0x2282 PUSH1 0x40 MLOAD SWAP1 JUMP JUMPDEST PUSH2 0x2296 DUP2 PUSH1 0x20 DUP2 ADD PUSH2 0x1122 TIMESTAMP DUP14 DUP14 DUP5 PUSH2 0x21ED JUMP JUMPDEST PUSH2 0x22A1 PUSH2 0x1139 DUP3 MLOAD SWAP1 JUMP JUMPDEST KECCAK256 SWAP2 PUSH2 0x1174 PUSH2 0x22AE PUSH2 0xF0B JUMP JUMPDEST SWAP2 PUSH2 0x22BB DUP11 DUP3 DUP6 ADD PUSH2 0xF15 JUMP JUMPDEST PUSH2 0x22C6 DUP12 PUSH1 0x20 DUP6 ADD MSTORE JUMP JUMPDEST PUSH2 0x22D1 TIMESTAMP PUSH1 0x40 DUP6 ADD MSTORE JUMP JUMPDEST ISZERO ISZERO PUSH1 0x60 DUP4 ADD MSTORE JUMP JUMPDEST POP SWAP1 PUSH2 0x225 SWAP2 PUSH2 0x2AD4 JUMP JUMPDEST SWAP1 PUSH2 0x225 SWAP2 PUSH2 0x21DB JUMP JUMPDEST SWAP1 PUSH2 0x225 SWAP2 PUSH2 0x22FC PUSH2 0x29AE JUMP JUMPDEST PUSH2 0x236A JUMP JUMPDEST ISZERO PUSH2 0x2308 JUMPI JUMP JUMPDEST PUSH1 0x40 MLOAD PUSH3 0x461BCD PUSH1 0xE5 SHL DUP2 MSTORE PUSH1 0x20 PUSH1 0x4 DUP3 ADD MSTORE PUSH1 0x14 PUSH1 0x24 DUP3 ADD MSTORE PUSH20 0x10DA185A5B881B9BDD081C9959DA5CDD195C9959 PUSH1 0x62 SHL PUSH1 0x44 DUP3 ADD MSTORE PUSH1 0x64 SWAP1 REVERT JUMPDEST SWAP1 PUSH1 0xFF PUSH1 0xA0 SHL SWAP1 PUSH1 0xA0 SHL PUSH2 0xF34 JUMP JUMPDEST SWAP1 PUSH2 0x2363 PUSH2 0x32A PUSH2 0xF55 SWAP3 ISZERO ISZERO SWAP1 JUMP JUMPDEST DUP3 SLOAD PUSH2 0x2344 JUMP JUMPDEST PUSH2 0x1252 PUSH2 0x23D8 PUSH32 0x3670C8077FE2B25F52EFD0A9D8D4A2745875BE1F4BD3296B938D456E55B63CEE SWAP3 PUSH2 0x23BC PUSH2 0x23A5 PUSH1 0x0 PUSH2 0x1081 DUP5 PUSH1 0x6 PUSH2 0x3CA JUMP JUMPDEST PUSH2 0x23B5 PUSH2 0x1087 PUSH2 0x1024 PUSH1 0x0 PUSH2 0xCA4 JUMP JUMPDEST EQ ISZERO PUSH2 0x2301 JUMP JUMPDEST PUSH2 0x23D3 DUP6 PUSH1 0x0 PUSH2 0x23CD DUP5 PUSH1 0x6 PUSH2 0x3CA JUMP JUMPDEST ADD PUSH2 0x2353 JUMP JUMPDEST PUSH2 0x3B2 JUMP JUMPDEST SWAP3 PUSH2 0x38F PUSH1 0x40 MLOAD SWAP1 JUMP JUMPDEST SWAP1 PUSH2 0x225 SWAP2 PUSH2 0x22EF JUMP JUMPDEST SWAP1 PUSH2 0x153A SWAP4 SWAP3 SWAP2 PUSH2 0x23FB PUSH2 0x2959 JUMP JUMPDEST PUSH2 0x2483 JUMP JUMPDEST PUSH1 0x40 SWAP1 PUSH2 0xD65 PUSH2 0x225 SWAP5 SWAP7 SWAP6 SWAP4 SWAP7 PUSH2 0x16C6 PUSH1 0x60 DUP5 ADD SWAP9 PUSH1 0x0 DUP6 ADD SWAP1 PUSH2 0x426 JUMP JUMPDEST ISZERO PUSH2 0x2427 JUMPI JUMP JUMPDEST PUSH1 0x40 MLOAD PUSH3 0x461BCD PUSH1 0xE5 SHL DUP2 MSTORE PUSH1 0x20 PUSH1 0x4 DUP3 ADD MSTORE PUSH1 0xF PUSH1 0x24 DUP3 ADD MSTORE PUSH15 0x151C985B9CD9995C8819985A5B1959 PUSH1 0x8A SHL PUSH1 0x44 DUP3 ADD MSTORE PUSH1 0x64 SWAP1 REVERT JUMPDEST SWAP5 SWAP4 SWAP2 PUSH1 0x40 SWAP2 PUSH2 0x225 SWAP5 PUSH2 0x247B SWAP3 PUSH2 0x209D PUSH1 0x60 DUP11 ADD SWAP4 PUSH1 0x0 DUP12 ADD MSTORE JUMP JUMPDEST SWAP5 ADD SWAP1 PUSH2 0x426 JUMP JUMPDEST PUSH2 0x24DF SWAP3 SWAP4 PUSH2 0x249B PUSH2 0x2495 PUSH1 0x0 PUSH2 0xA2A JUMP JUMPDEST DUP4 PUSH2 0x179C JUMP JUMPDEST PUSH1 0x20 DUP3 PUSH2 0x24AB PUSH2 0x101F PUSH1 0x1 PUSH2 0x3E5 JUMP JUMPDEST PUSH2 0x24B4 ADDRESS PUSH2 0x596 JUMP JUMPDEST PUSH1 0x0 PUSH2 0x24BF PUSH1 0x40 MLOAD SWAP1 JUMP JUMPDEST DUP1 SWAP10 DUP2 SWAP6 DUP3 SWAP5 PUSH2 0x24D3 PUSH4 0x23B872DD PUSH1 0xE0 SHL SWAP1 JUMP JUMPDEST DUP5 MSTORE CALLER PUSH1 0x4 DUP6 ADD PUSH2 0x2400 JUMP JUMPDEST SUB SWAP3 GAS CALL SWAP1 DUP2 ISZERO PUSH2 0x1286 JUMPI PUSH2 0x2521 PUSH2 0x1252 SWAP3 PUSH32 0x8786E6EC8D013CB6DFB1B71A429E4F9D6F71ACFB1F381106E217046664AD90C6 SWAP7 PUSH1 0x0 SWAP2 PUSH2 0x253D JUMPI JUMPDEST POP PUSH2 0x2420 JUMP JUMPDEST PUSH2 0x252A CALLER PUSH2 0x596 JUMP JUMPDEST SWAP6 PUSH2 0x2534 PUSH1 0x40 MLOAD SWAP1 JUMP JUMPDEST SWAP5 DUP6 SWAP5 DUP6 PUSH2 0x245E JUMP JUMPDEST PUSH2 0x2556 SWAP2 POP PUSH1 0x20 RETURNDATASIZE PUSH1 0x20 GT PUSH2 0x127F JUMPI PUSH2 0x1271 DUP2 DUP4 PUSH2 0xD03 JUMP JUMPDEST CODESIZE PUSH2 0x251B JUMP JUMPDEST SWAP1 PUSH2 0x225 SWAP4 SWAP3 SWAP2 PUSH2 0x23EC JUMP JUMPDEST PUSH2 0x225 SWAP1 PUSH2 0x2574 PUSH2 0x29AE JUMP JUMPDEST PUSH2 0x225 SWAP1 PUSH1 0x7 PUSH2 0xF63 JUMP JUMPDEST PUSH2 0x225 SWAP1 PUSH2 0x2568 JUMP JUMPDEST SWAP1 PUSH2 0x225 SWAP5 SWAP4 SWAP3 SWAP2 PUSH2 0x2598 PUSH2 0x29AE JUMP JUMPDEST SWAP1 PUSH2 0x153A SWAP5 SWAP4 SWAP3 SWAP2 PUSH2 0x25A8 PUSH2 0x2959 JUMP JUMPDEST SWAP3 SWAP4 PUSH2 0x25BE PUSH2 0x20C3 PUSH2 0x1364 PUSH2 0x159D DUP5 PUSH1 0x2 PUSH2 0x32D JUMP JUMPDEST PUSH2 0x25CE PUSH1 0x1 PUSH2 0x1C68 DUP4 PUSH1 0x2 PUSH2 0x32D JUMP JUMPDEST PUSH2 0x25DB PUSH2 0x101F PUSH1 0x1 PUSH2 0x3E5 JUMP JUMPDEST SWAP1 PUSH1 0x20 PUSH2 0x25E7 PUSH1 0x40 MLOAD SWAP1 JUMP JUMPDEST SWAP3 DUP4 SWAP1 PUSH4 0xA9059CBB PUSH1 0xE0 SHL DUP3 MSTORE DUP2 PUSH1 0x0 DUP2 PUSH2 0x2606 DUP10 DUP13 PUSH1 0x4 DUP5 ADD PUSH2 0xD4A JUMP JUMPDEST SUB SWAP3 GAS CALL DUP1 ISZERO PUSH2 0x1286 JUMPI PUSH1 0x0 DUP1 MLOAD PUSH1 0x20 PUSH2 0x2C4C DUP4 CODECOPY DUP2 MLOAD SWAP2 MSTORE SWAP6 PUSH2 0x101F PUSH2 0x2178 SWAP3 PUSH2 0x1252 SWAP6 PUSH1 0x0 SWAP2 PUSH2 0x253D JUMPI POP PUSH2 0x2420 JUMP JUMPDEST SWAP1 PUSH2 0x225 SWAP5 SWAP4 SWAP3 SWAP2 PUSH2 0x2588 JUMP JUMPDEST SWAP1 PUSH2 0x153A SWAP4 SWAP3 SWAP2 PUSH2 0x2654 PUSH2 0x2959 JUMP JUMPDEST SWAP3 SWAP2 SWAP3 PUSH2 0x266A PUSH2 0x2664 PUSH1 0x0 PUSH2 0xA2A JUMP JUMPDEST DUP3 PUSH2 0x179C JUMP JUMPDEST PUSH2 0x2677 PUSH2 0x101F PUSH1 0x1 PUSH2 0x3E5 JUMP JUMPDEST SWAP3 DUP4 EXTCODESIZE ISZERO PUSH2 0x213 JUMPI PUSH1 0x0 PUSH2 0x268A PUSH1 0x40 MLOAD SWAP1 JUMP JUMPDEST SWAP5 DUP6 SWAP1 PUSH4 0x79CC679 PUSH1 0xE4 SHL DUP3 MSTORE DUP2 DUP4 DUP2 PUSH2 0x26A8 DUP9 CALLER PUSH1 0x4 DUP5 ADD PUSH2 0xD4A JUMP JUMPDEST SUB SWAP3 GAS CALL SWAP1 DUP2 ISZERO PUSH2 0x1286 JUMPI PUSH32 0x8786E6EC8D013CB6DFB1B71A429E4F9D6F71ACFB1F381106E217046664AD90C6 SWAP5 PUSH2 0x1252 SWAP3 PUSH2 0x26E8 JUMPI JUMPDEST POP PUSH2 0x252A CALLER PUSH2 0x596 JUMP JUMPDEST PUSH2 0x26F8 SWAP1 PUSH1 0x0 PUSH2 0x1965 DUP2 DUP4 PUSH2 0xD03 JUMP JUMPDEST CODESIZE PUSH2 0x26DE JUMP JUMPDEST SWAP1 PUSH2 0x225 SWAP4 SWAP3 SWAP2 PUSH2 0x2645 JUMP JUMPDEST PUSH2 0x225 SWAP1 PUSH2 0x2716 PUSH2 0x29AE JUMP JUMPDEST PUSH1 0x0 PUSH2 0x2721 DUP2 PUSH2 0xCA4 JUMP JUMPDEST PUSH2 0x272A DUP2 PUSH2 0x3D9 JUMP JUMPDEST PUSH2 0x2733 DUP5 PUSH2 0x3D9 JUMP JUMPDEST EQ PUSH2 0x2743 JUMPI POP POP PUSH2 0x225 SWAP1 PUSH2 0x29E5 JUMP JUMPDEST PUSH4 0x1E4FBDF7 PUSH1 0xE0 SHL DUP3 MSTORE DUP2 SWAP1 PUSH2 0xBBA SWAP1 PUSH1 0x4 DUP4 ADD PUSH2 0x7C4 JUMP JUMPDEST PUSH2 0x225 SWAP1 PUSH2 0x270A JUMP JUMPDEST SWAP1 PUSH2 0x225 SWAP3 SWAP2 PUSH2 0x2773 PUSH2 0x29AE JUMP JUMPDEST PUSH2 0x283F JUMP JUMPDEST ISZERO PUSH2 0x277F JUMPI JUMP JUMPDEST PUSH1 0x40 MLOAD PUSH3 0x461BCD PUSH1 0xE5 SHL DUP2 MSTORE PUSH1 0x20 PUSH1 0x4 DUP3 ADD MSTORE PUSH1 0x15 PUSH1 0x24 DUP3 ADD MSTORE PUSH21 0x496E76616C69642072656D6F746520627269646765 PUSH1 0x58 SHL PUSH1 0x44 DUP3 ADD MSTORE PUSH1 0x64 SWAP1 REVERT JUMPDEST ISZERO PUSH2 0x27C3 JUMPI JUMP JUMPDEST PUSH1 0x40 MLOAD PUSH3 0x461BCD PUSH1 0xE5 SHL DUP2 MSTORE PUSH1 0x20 PUSH1 0x4 DUP3 ADD MSTORE PUSH1 0x1C PUSH1 0x24 DUP3 ADD MSTORE PUSH32 0x43616E6E6F7420726567697374657220736F7572636520636861696E00000000 PUSH1 0x44 DUP3 ADD MSTORE PUSH1 0x64 SWAP1 REVERT JUMPDEST PUSH2 0x32A PUSH1 0x40 PUSH2 0xEF7 JUMP JUMPDEST PUSH2 0x225 SWAP2 PUSH2 0x282F SWAP1 PUSH1 0x20 SWAP1 PUSH2 0xFE8 PUSH2 0x2829 DUP3 PUSH2 0xF1F JUMP JUMPDEST DUP6 PUSH2 0xF3E JUMP JUMPDEST SWAP1 PUSH2 0x2353 JUMP JUMPDEST SWAP1 PUSH2 0x225 SWAP2 PUSH2 0x2812 JUMP JUMPDEST SWAP1 PUSH32 0xB2F92AE146563FE193B48846974F797B06908D26DAB8E3598EA23A1EDB83141D PUSH2 0x28D0 PUSH2 0x28DC SWAP5 SWAP4 PUSH2 0x2889 PUSH2 0x2879 PUSH2 0x1024 PUSH1 0x0 PUSH2 0xCA4 JUMP JUMPDEST PUSH2 0x2882 DUP7 PUSH2 0x3D9 JUMP JUMPDEST EQ ISZERO PUSH2 0x2778 JUMP JUMPDEST PUSH2 0x28A3 PUSH2 0x2897 PUSH2 0x3C3 PUSH2 0x6AA JUMP JUMPDEST PUSH2 0xFFFF DUP4 AND EQ ISZERO PUSH2 0x27BC JUMP JUMPDEST PUSH2 0x23D3 PUSH2 0x28AE PUSH2 0x2808 JUMP JUMPDEST PUSH2 0x28B8 DUP7 DUP3 PUSH2 0xF15 JUMP JUMPDEST DUP7 ISZERO ISZERO PUSH1 0x20 DUP3 ADD MSTORE PUSH2 0x28CB DUP4 PUSH1 0x6 PUSH2 0x3CA JUMP JUMPDEST PUSH2 0x2835 JUMP JUMPDEST SWAP4 DUP5 SWAP3 PUSH2 0x7F3 PUSH1 0x40 MLOAD SWAP1 JUMP JUMPDEST SUB SWAP1 LOG2 PUSH2 0x28E6 JUMPI POP JUMP JUMPDEST PUSH32 0x3670C8077FE2B25F52EFD0A9D8D4A2745875BE1F4BD3296B938D456E55B63CEE PUSH2 0x2910 PUSH1 0x40 MLOAD SWAP1 JUMP JUMPDEST PUSH1 0x1 DUP2 MSTORE DUP1 PUSH1 0x20 DUP2 ADD PUSH2 0x1252 JUMP JUMPDEST SWAP1 PUSH2 0x225 SWAP3 SWAP2 PUSH2 0x2765 JUMP JUMPDEST PUSH2 0x32A PUSH2 0x2BF8 JUMP JUMPDEST PUSH2 0x225 SWAP1 PUSH2 0x293D PUSH2 0x2C00 JUMP JUMPDEST PUSH2 0x225 SWAP1 PUSH2 0x2C2F JUMP JUMPDEST PUSH2 0x225 SWAP1 PUSH2 0x2931 JUMP JUMPDEST PUSH2 0x32A PUSH1 0x2 PUSH2 0xA2A JUMP JUMPDEST PUSH2 0x2963 PUSH1 0x0 PUSH2 0x70B JUMP JUMPDEST PUSH2 0x296B PUSH2 0x294F JUMP JUMPDEST SWAP1 DUP2 EQ PUSH2 0x297D JUMPI PUSH2 0x225 SWAP1 PUSH1 0x0 PUSH2 0xF63 JUMP JUMPDEST PUSH4 0x3EE5AEB5 PUSH1 0xE0 SHL PUSH1 0x0 SWAP1 DUP2 MSTORE PUSH1 0x4 JUMPDEST SUB PUSH1 0x0 REVERT JUMPDEST PUSH2 0x32A PUSH1 0x1 PUSH2 0xA2A JUMP JUMPDEST PUSH2 0x225 PUSH2 0x29A7 PUSH2 0x2992 JUMP JUMPDEST PUSH1 0x0 PUSH2 0xF63 JUMP JUMPDEST PUSH2 0x29B6 PUSH2 0x1DF5 JUMP JUMPDEST CALLER SWAP1 PUSH2 0x29C4 PUSH2 0x1087 DUP4 PUSH2 0x3D9 JUMP JUMPDEST SUB PUSH2 0x29CC JUMPI POP JUMP JUMPDEST PUSH4 0x118CDAA7 PUSH1 0xE0 SHL PUSH1 0x0 SWAP1 DUP2 MSTORE SWAP1 PUSH2 0x298D SWAP1 PUSH1 0x4 PUSH2 0x7C4 JUMP JUMPDEST PUSH2 0x2A25 PUSH2 0x2A1F PUSH32 0x9016D09D72D40FDAE2FD8CEAC6B6234C7706214FD39C1CD1E609A0528C199300 PUSH2 0x101F DUP5 PUSH2 0x2A19 DUP4 PUSH2 0x3E5 JUMP JUMPDEST SWAP3 PUSH2 0xF3E JUMP JUMPDEST SWAP2 PUSH2 0x596 JUMP JUMPDEST SWAP1 PUSH32 0x8BE0079C531659141344CD1FD0A4F28419497F9722A3DAAFE3B4186F6B6457E0 PUSH2 0x2A50 PUSH1 0x40 MLOAD SWAP1 JUMP JUMPDEST DUP1 DUP1 PUSH2 0x1194 JUMP JUMPDEST ISZERO PUSH2 0x2A5E JUMPI JUMP JUMPDEST PUSH1 0x40 MLOAD PUSH3 0x461BCD PUSH1 0xE5 SHL DUP2 MSTORE PUSH1 0x20 PUSH1 0x4 DUP3 ADD MSTORE PUSH1 0x14 PUSH1 0x24 DUP3 ADD MSTORE PUSH20 0x149958DA5C1A595B9D081A5CC8189B1BD8DAD959 PUSH1 0x62 SHL PUSH1 0x44 DUP3 ADD MSTORE PUSH1 0x64 SWAP1 REVERT JUMPDEST SWAP1 DUP2 MSTORE PUSH1 0x60 PUSH1 0x20 DUP3 ADD DUP2 SWAP1 MSTORE PUSH1 0xE SWAP1 DUP3 ADD MSTORE PUSH14 0x3637B1B0B616BA3930B739B332B9 PUSH1 0x91 SHL PUSH1 0x80 DUP3 ADD MSTORE SWAP2 SWAP1 PUSH2 0x225 SWAP1 PUSH1 0x40 PUSH1 0xA0 DUP6 ADD SWAP5 ADD MSTORE JUMP JUMPDEST PUSH2 0x2AED PUSH2 0x2AE4 PUSH2 0x1024 PUSH1 0x0 PUSH2 0xCA4 JUMP JUMPDEST PUSH2 0x10BC DUP4 PUSH2 0x3D9 JUMP JUMPDEST PUSH2 0x2AFA PUSH2 0x2495 PUSH1 0x0 PUSH2 0xA2A JUMP JUMPDEST PUSH2 0x2B13 PUSH2 0x2B0E PUSH2 0x1364 PUSH2 0x159D DUP5 PUSH1 0x8 PUSH2 0x59F JUMP JUMPDEST PUSH2 0x2A57 JUMP JUMPDEST PUSH2 0x2B20 PUSH2 0x101F PUSH1 0x1 PUSH2 0x3E5 JUMP JUMPDEST SWAP1 PUSH1 0x20 PUSH2 0x2B2C PUSH1 0x40 MLOAD SWAP1 JUMP JUMPDEST SWAP3 DUP4 SWAP1 PUSH4 0x8934A5F PUSH1 0xE3 SHL DUP3 MSTORE DUP2 PUSH1 0x0 DUP2 PUSH2 0x2B4B DUP10 DUP9 PUSH1 0x4 DUP5 ADD PUSH2 0xD4A JUMP JUMPDEST SUB SWAP3 GAS CALL SWAP2 DUP3 ISZERO PUSH2 0x1286 JUMPI PUSH1 0x0 DUP1 MLOAD PUSH1 0x20 PUSH2 0x2C4C DUP4 CODECOPY DUP2 MLOAD SWAP2 MSTORE SWAP3 PUSH2 0x2B77 SWAP2 PUSH1 0x0 SWAP2 PUSH2 0x253D JUMPI POP PUSH2 0x2420 JUMP JUMPDEST PUSH2 0x2BB9 PUSH2 0x2B83 PUSH1 0x40 MLOAD SWAP1 JUMP JUMPDEST TIMESTAMP PUSH1 0x20 DUP1 DUP4 ADD SWAP2 DUP3 MSTORE PUSH2 0x2BA7 SWAP2 DUP4 SWAP2 PUSH2 0x1122 SWAP1 DUP10 PUSH2 0xB69 PUSH1 0x14 DUP11 PUSH2 0xEF1 DUP6 DUP9 PUSH2 0xEE9 JUMP JUMPDEST PUSH2 0x2BB2 PUSH2 0x1139 DUP3 MLOAD SWAP1 JUMP JUMPDEST KECCAK256 SWAP2 PUSH2 0x596 JUMP JUMPDEST SWAP3 PUSH2 0x1252 PUSH2 0x2BC6 PUSH1 0x40 MLOAD SWAP1 JUMP JUMPDEST SWAP3 DUP4 SWAP3 DUP4 PUSH2 0x2A9A JUMP JUMPDEST PUSH2 0x32A PUSH32 0xF0C57E16840DF040F15088DC2F81FE391C3923BEC73E23A9662EFC9C229C6A00 PUSH2 0xA2A JUMP JUMPDEST PUSH2 0x32A PUSH2 0x2BCF JUMP JUMPDEST PUSH2 0x2C0B PUSH2 0x1364 PUSH2 0x2C38 JUMP JUMPDEST PUSH2 0x2C11 JUMPI JUMP JUMPDEST PUSH4 0x1AFCD79F PUSH1 0xE3 SHL PUSH1 0x0 SWAP1 DUP2 MSTORE PUSH1 0x4 SWAP1 REVERT JUMPDEST PUSH2 0x225 SWAP1 PUSH2 0x2716 PUSH2 0x2C00 JUMP JUMPDEST PUSH2 0x225 SWAP1 PUSH2 0x2C23 JUMP JUMPDEST PUSH2 0x32A PUSH1 0x0 PUSH2 0x2C45 PUSH2 0x2929 JUMP JUMPDEST ADD PUSH2 0x1297 JUMP INVALID PUSH28 0x93D20AA9666FFF2B9034D25DB8EEFA4ADA8752B0B713F599E9DA3BD4 CALLDATACOPY 0xE1 SWAP3 LOG2 PUSH5 0x6970667358 0x22 SLT KECCAK256 SWAP14 MLOAD 0xA8 PUSH19 0x5B04B894D03CCFFDB1F2388006D7C40F923A5E RETURNDATASIZE 0xBA DUP7 0xC7 0xE4 PUSH21 0x7D23AC64736F6C634300081B003300000000000000 "},"methodIdentifiers":{"DELAY_PERIOD()":"e71a02e1","LARGE_TRANSFER_THRESHOLD()":"d5e42e2c","SOURCE_CHAIN_ID()":"74be2150","blockedAddresses(address)":"4f93208a","burnTokens(uint256,string,address)":"e331de2b","endpoint()":"5e280f11","executeDelayedTransfer(bytes32)":"9e25fc5c","initialize(address,address,uint256)":"1794bb3c","initiateTransfer(address,uint256)":"b504cd1e","lockTokens(uint256,string,address)":"be6cd04f","lzReceive(uint16,bytes,uint64,bytes)":"001d3567","minGasForTransfer()":"4514ad12","mintTokens(address,uint256,string,bytes32)":"b2f18522","owner()":"8da5cb5b","pendingTransfers(bytes32)":"8d4ab2c0","processDelayedTransfer(bytes32)":"5745a3a2","processedHashes(bytes32)":"07d9c534","registerChain(uint16,address,bool)":"f6a0817b","releaseTokens(address,uint256,string,bytes32)":"d01292dd","remoteBridges(uint16)":"fb7a9479","renounceOwnership()":"715018a6","rescueTokens(address,uint256)":"57376198","retryPayload(uint16,bytes,bytes)":"aaff5f16","sendTokens(uint16,address,uint256)":"3c43d99d","setBlockedAddress(address,bool)":"92d5011f","setMinGasForTransfer(uint256)":"cfa713a3","supportedChains(uint16)":"10d58783","toggleChain(uint16,bool)":"b932aa37","token()":"fc0c546a","transferOwnership(address)":"f2fde38b","updateToken(address)":"7ad3def2"}},"storageLayout":{"storage":[{"astId":597,"contract":"contracts/NooriBankBridge.sol:NooriBankBridge","label":"_status","offset":0,"slot":"0","type":"t_uint256"},{"astId":673,"contract":"contracts/NooriBankBridge.sol:NooriBankBridge","label":"token","offset":0,"slot":"1","type":"t_contract(INooriToken)1825"},{"astId":677,"contract":"contracts/NooriBankBridge.sol:NooriBankBridge","label":"processedHashes","offset":0,"slot":"2","type":"t_mapping(t_bytes32,t_bool)"},{"astId":684,"contract":"contracts/NooriBankBridge.sol:NooriBankBridge","label":"remoteBridges","offset":0,"slot":"3","type":"t_mapping(t_uint16,t_address)"},{"astId":687,"contract":"contracts/NooriBankBridge.sol:NooriBankBridge","label":"endpoint","offset":0,"slot":"4","type":"t_contract(ILayerZeroEndpoint)1792"},{"astId":700,"contract":"contracts/NooriBankBridge.sol:NooriBankBridge","label":"pendingTransfers","offset":0,"slot":"5","type":"t_mapping(t_bytes32,t_struct(PendingTransfer)709_storage)"},{"astId":779,"contract":"contracts/NooriBankBridge.sol:NooriBankBridge","label":"supportedChains","offset":0,"slot":"6","type":"t_mapping(t_uint16,t_struct(ChainSupport)774_storage)"},{"astId":781,"contract":"contracts/NooriBankBridge.sol:NooriBankBridge","label":"minGasForTransfer","offset":0,"slot":"7","type":"t_uint256"},{"astId":1260,"contract":"contracts/NooriBankBridge.sol:NooriBankBridge","label":"blockedAddresses","offset":0,"slot":"8","type":"t_mapping(t_address,t_bool)"}],"types":{"t_address":{"encoding":"inplace","label":"address","numberOfBytes":"20"},"t_bool":{"encoding":"inplace","label":"bool","numberOfBytes":"1"},"t_bytes32":{"encoding":"inplace","label":"bytes32","numberOfBytes":"32"},"t_contract(ILayerZeroEndpoint)1792":{"encoding":"inplace","label":"contract ILayerZeroEndpoint","numberOfBytes":"20"},"t_contract(INooriToken)1825":{"encoding":"inplace","label":"contract INooriToken","numberOfBytes":"20"},"t_mapping(t_address,t_bool)":{"encoding":"mapping","key":"t_address","label":"mapping(address => bool)","numberOfBytes":"32","value":"t_bool"},"t_mapping(t_bytes32,t_bool)":{"encoding":"mapping","key":"t_bytes32","label":"mapping(bytes32 => bool)","numberOfBytes":"32","value":"t_bool"},"t_mapping(t_bytes32,t_struct(PendingTransfer)709_storage)":{"encoding":"mapping","key":"t_bytes32","label":"mapping(bytes32 => struct NooriBankBridge.PendingTransfer)","numberOfBytes":"32","value":"t_struct(PendingTransfer)709_storage"},"t_mapping(t_uint16,t_address)":{"encoding":"mapping","key":"t_uint16","label":"mapping(uint16 => address)","numberOfBytes":"32","value":"t_address"},"t_mapping(t_uint16,t_struct(ChainSupport)774_storage)":{"encoding":"mapping","key":"t_uint16","label":"mapping(uint16 => struct NooriBankBridge.ChainSupport)","numberOfBytes":"32","value":"t_struct(ChainSupport)774_storage"},"t_struct(ChainSupport)774_storage":{"encoding":"inplace","label":"struct NooriBankBridge.ChainSupport","members":[{"astId":771,"contract":"contracts/NooriBankBridge.sol:NooriBankBridge","label":"remoteBridge","offset":0,"slot":"0","type":"t_address"},{"astId":773,"contract":"contracts/NooriBankBridge.sol:NooriBankBridge","label":"enabled","offset":20,"slot":"0","type":"t_bool"}],"numberOfBytes":"32"},"t_struct(PendingTransfer)709_storage":{"encoding":"inplace","label":"struct NooriBankBridge.PendingTransfer","members":[{"astId":702,"contract":"contracts/NooriBankBridge.sol:NooriBankBridge","label":"recipient","offset":0,"slot":"0","type":"t_address"},{"astId":704,"contract":"contracts/NooriBankBridge.sol:NooriBankBridge","label":"amount","offset":0,"slot":"1","type":"t_uint256"},{"astId":706,"contract":"contracts/NooriBankBridge.sol:NooriBankBridge","label":"timestamp","offset":0,"slot":"2","type":"t_uint256"},{"astId":708,"contract":"contracts/NooriBankBridge.sol:NooriBankBridge","label":"processed","offset":0,"slot":"3","type":"t_bool"}],"numberOfBytes":"128"},"t_uint16":{"encoding":"inplace","label":"uint16","numberOfBytes":"2"},"t_uint256":{"encoding":"inplace","label":"uint256","numberOfBytes":"32"}}}}}}