{"contracts/NooriBankBridge.sol":{"NooriBankBridge":{"abi":[{"inputs":[],"stateMutability":"nonpayable","type":"constructor"},{"inputs":[{"internalType":"address","name":"target","type":"address"}],"name":"AddressEmptyCode","type":"error"},{"inputs":[{"internalType":"address","name":"implementation","type":"address"}],"name":"ERC1967InvalidImplementation","type":"error"},{"inputs":[],"name":"ERC1967NonPayable","type":"error"},{"inputs":[],"name":"FailedCall","type":"error"},{"inputs":[],"name":"InvalidInitialization","type":"error"},{"inputs":[],"name":"NotInitializing","type":"error"},{"inputs":[{"internalType":"address","name":"owner","type":"address"}],"name":"OwnableInvalidOwner","type":"error"},{"inputs":[{"internalType":"address","name":"account","type":"address"}],"name":"OwnableUnauthorizedAccount","type":"error"},{"inputs":[],"name":"ReentrancyGuardReentrantCall","type":"error"},{"inputs":[],"name":"UUPSUnauthorizedCallContext","type":"error"},{"inputs":[{"internalType":"bytes32","name":"slot","type":"bytes32"}],"name":"UUPSUnsupportedProxiableUUID","type":"error"},{"anonymous":false,"inputs":[{"indexed":false,"internalType":"address","name":"token","type":"address"},{"indexed":false,"internalType":"uint16","name":"sourceChainId","type":"uint16"}],"name":"BridgeInitialized","type":"event"},{"anonymous":false,"inputs":[{"indexed":true,"internalType":"uint16","name":"chainId","type":"uint16"},{"indexed":false,"internalType":"address","name":"remoteBridge","type":"address"}],"name":"ChainRegistered","type":"event"},{"anonymous":false,"inputs":[{"indexed":true,"internalType":"uint16","name":"chainId","type":"uint16"},{"indexed":false,"internalType":"bool","name":"enabled","type":"bool"}],"name":"ChainToggled","type":"event"},{"anonymous":false,"inputs":[{"indexed":true,"internalType":"address","name":"from","type":"address"},{"indexed":false,"internalType":"uint16","name":"targetChainId","type":"uint16"},{"indexed":false,"internalType":"address","name":"targetAddress","type":"address"},{"indexed":false,"internalType":"uint256","name":"amount","type":"uint256"}],"name":"CrossChainTransferInitiated","type":"event"},{"anonymous":false,"inputs":[{"indexed":false,"internalType":"uint64","name":"version","type":"uint64"}],"name":"Initialized","type":"event"},{"anonymous":false,"inputs":[{"indexed":true,"internalType":"address","name":"previousOwner","type":"address"},{"indexed":true,"internalType":"address","name":"newOwner","type":"address"}],"name":"OwnershipTransferred","type":"event"},{"anonymous":false,"inputs":[{"indexed":true,"internalType":"address","name":"user","type":"address"},{"indexed":false,"internalType":"uint256","name":"amount","type":"uint256"},{"indexed":false,"internalType":"string","name":"targetChain","type":"string"},{"indexed":false,"internalType":"address","name":"targetAddress","type":"address"}],"name":"TokenLocked","type":"event"},{"anonymous":false,"inputs":[{"indexed":true,"internalType":"address","name":"user","type":"address"},{"indexed":false,"internalType":"uint256","name":"amount","type":"uint256"},{"indexed":false,"internalType":"string","name":"sourceChain","type":"string"},{"indexed":false,"internalType":"bytes32","name":"transactionHash","type":"bytes32"}],"name":"TokenMinted","type":"event"},{"anonymous":false,"inputs":[{"indexed":false,"internalType":"address","name":"newAddress","type":"address"}],"name":"TokenUpdated","type":"event"},{"anonymous":false,"inputs":[{"indexed":true,"internalType":"bytes32","name":"transferId","type":"bytes32"},{"indexed":true,"internalType":"address","name":"recipient","type":"address"},{"indexed":false,"internalType":"uint256","name":"amount","type":"uint256"}],"name":"TransferDelayed","type":"event"},{"anonymous":false,"inputs":[{"indexed":true,"internalType":"address","name":"implementation","type":"address"}],"name":"Upgraded","type":"event"},{"inputs":[],"name":"DELAY_PERIOD","outputs":[{"internalType":"uint256","name":"","type":"uint256"}],"stateMutability":"view","type":"function"},{"inputs":[],"name":"LARGE_TRANSFER_THRESHOLD","outputs":[{"internalType":"uint256","name":"","type":"uint256"}],"stateMutability":"view","type":"function"},{"inputs":[],"name":"SOURCE_CHAIN_ID","outputs":[{"internalType":"uint16","name":"","type":"uint16"}],"stateMutability":"view","type":"function"},{"inputs":[],"name":"UPGRADE_INTERFACE_VERSION","outputs":[{"internalType":"string","name":"","type":"string"}],"stateMutability":"view","type":"function"},{"inputs":[{"internalType":"address","name":"","type":"address"}],"name":"blockedAddresses","outputs":[{"internalType":"bool","name":"","type":"bool"}],"stateMutability":"view","type":"function"},{"inputs":[{"internalType":"uint256","name":"amount","type":"uint256"},{"internalType":"string","name":"targetChain","type":"string"},{"internalType":"address","name":"targetAddress","type":"address"}],"name":"burnTokens","outputs":[],"stateMutability":"nonpayable","type":"function"},{"inputs":[],"name":"endpoint","outputs":[{"internalType":"contract ILayerZeroEndpoint","name":"","type":"address"}],"stateMutability":"view","type":"function"},{"inputs":[{"internalType":"bytes32","name":"transferId","type":"bytes32"}],"name":"executeDelayedTransfer","outputs":[],"stateMutability":"nonpayable","type":"function"},{"inputs":[{"internalType":"address","name":"_token","type":"address"},{"internalType":"address","name":"_endpoint","type":"address"},{"internalType":"uint256","name":"_minGasForTransfer","type":"uint256"}],"name":"initialize","outputs":[],"stateMutability":"nonpayable","type":"function"},{"inputs":[{"internalType":"address","name":"to","type":"address"},{"internalType":"uint256","name":"amount","type":"uint256"}],"name":"initiateTransfer","outputs":[],"stateMutability":"nonpayable","type":"function"},{"inputs":[{"internalType":"uint256","name":"amount","type":"uint256"},{"internalType":"string","name":"targetChain","type":"string"},{"internalType":"address","name":"targetAddress","type":"address"}],"name":"lockTokens","outputs":[],"stateMutability":"nonpayable","type":"function"},{"inputs":[{"internalType":"uint16","name":"_srcChainId","type":"uint16"},{"internalType":"bytes","name":"_srcAddress","type":"bytes"},{"internalType":"uint64","name":"_nonce","type":"uint64"},{"internalType":"bytes","name":"_payload","type":"bytes"}],"name":"lzReceive","outputs":[],"stateMutability":"nonpayable","type":"function"},{"inputs":[],"name":"minGasForTransfer","outputs":[{"internalType":"uint256","name":"","type":"uint256"}],"stateMutability":"view","type":"function"},{"inputs":[{"internalType":"address","name":"to","type":"address"},{"internalType":"uint256","name":"amount","type":"uint256"},{"internalType":"string","name":"sourceChain","type":"string"},{"internalType":"bytes32","name":"transactionHash","type":"bytes32"}],"name":"mintTokens","outputs":[{"internalType":"bool","name":"","type":"bool"}],"stateMutability":"nonpayable","type":"function"},{"inputs":[],"name":"owner","outputs":[{"internalType":"address","name":"","type":"address"}],"stateMutability":"view","type":"function"},{"inputs":[{"internalType":"bytes32","name":"","type":"bytes32"}],"name":"pendingTransfers","outputs":[{"internalType":"address","name":"recipient","type":"address"},{"internalType":"uint256","name":"amount","type":"uint256"},{"internalType":"uint256","name":"timestamp","type":"uint256"},{"internalType":"bool","name":"processed","type":"bool"}],"stateMutability":"view","type":"function"},{"inputs":[{"internalType":"bytes32","name":"transferId","type":"bytes32"}],"name":"processDelayedTransfer","outputs":[],"stateMutability":"nonpayable","type":"function"},{"inputs":[{"internalType":"bytes32","name":"","type":"bytes32"}],"name":"processedHashes","outputs":[{"internalType":"bool","name":"","type":"bool"}],"stateMutability":"view","type":"function"},{"inputs":[],"name":"proxiableUUID","outputs":[{"internalType":"bytes32","name":"","type":"bytes32"}],"stateMutability":"view","type":"function"},{"inputs":[{"internalType":"uint16","name":"chainId","type":"uint16"},{"internalType":"address","name":"remoteBridge","type":"address"},{"internalType":"bool","name":"enabled","type":"bool"}],"name":"registerChain","outputs":[],"stateMutability":"nonpayable","type":"function"},{"inputs":[{"internalType":"address","name":"to","type":"address"},{"internalType":"uint256","name":"amount","type":"uint256"},{"internalType":"string","name":"sourceChain","type":"string"},{"internalType":"bytes32","name":"transactionHash","type":"bytes32"}],"name":"releaseTokens","outputs":[],"stateMutability":"nonpayable","type":"function"},{"inputs":[{"internalType":"uint16","name":"","type":"uint16"}],"name":"remoteBridges","outputs":[{"internalType":"address","name":"","type":"address"}],"stateMutability":"view","type":"function"},{"inputs":[],"name":"renounceOwnership","outputs":[],"stateMutability":"nonpayable","type":"function"},{"inputs":[{"internalType":"address","name":"tokenAddress","type":"address"},{"internalType":"uint256","name":"amount","type":"uint256"}],"name":"rescueTokens","outputs":[],"stateMutability":"nonpayable","type":"function"},{"inputs":[{"internalType":"uint16","name":"_srcChainId","type":"uint16"},{"internalType":"bytes","name":"_srcAddress","type":"bytes"},{"internalType":"bytes","name":"","type":"bytes"}],"name":"retryPayload","outputs":[],"stateMutability":"nonpayable","type":"function"},{"inputs":[{"internalType":"uint16","name":"targetChainId","type":"uint16"},{"internalType":"address","name":"targetAddress","type":"address"},{"internalType":"uint256","name":"amount","type":"uint256"}],"name":"sendTokens","outputs":[],"stateMutability":"payable","type":"function"},{"inputs":[{"internalType":"address","name":"account","type":"address"},{"internalType":"bool","name":"blocked","type":"bool"}],"name":"setBlockedAddress","outputs":[],"stateMutability":"nonpayable","type":"function"},{"inputs":[{"internalType":"uint256","name":"_minGasForTransfer","type":"uint256"}],"name":"setMinGasForTransfer","outputs":[],"stateMutability":"nonpayable","type":"function"},{"inputs":[{"internalType":"uint16","name":"","type":"uint16"}],"name":"supportedChains","outputs":[{"internalType":"address","name":"remoteBridge","type":"address"},{"internalType":"bool","name":"enabled","type":"bool"}],"stateMutability":"view","type":"function"},{"inputs":[{"internalType":"uint16","name":"chainId","type":"uint16"},{"internalType":"bool","name":"enabled","type":"bool"}],"name":"toggleChain","outputs":[],"stateMutability":"nonpayable","type":"function"},{"inputs":[],"name":"token","outputs":[{"internalType":"contract INooriToken","name":"","type":"address"}],"stateMutability":"view","type":"function"},{"inputs":[{"internalType":"address","name":"newOwner","type":"address"}],"name":"transferOwnership","outputs":[],"stateMutability":"nonpayable","type":"function"},{"inputs":[{"internalType":"address","name":"newAddress","type":"address"}],"name":"updateToken","outputs":[],"stateMutability":"nonpayable","type":"function"},{"inputs":[{"internalType":"address","name":"newImplementation","type":"address"},{"internalType":"bytes","name":"data","type":"bytes"}],"name":"upgradeToAndCall","outputs":[],"stateMutability":"payable","type":"function"}],"evm":{"bytecode":{"linkReferences":{},"object":"60a06040523461003257610011610037565b6040516132b96101e98239608051818181612c6b0152612de101526132b990f35b600080fd5b61003f610049565b61004761010a565b565b610047610086565b61006590610068906001600160a01b031682565b90565b6001600160a01b031690565b61006590610051565b61006590610074565b61008f3061007d565b608052565b6100659060401c60ff1690565b6100659054610094565b610065905b6001600160401b031690565b61006590546100ab565b610065906100b0906001600160401b031682565b906100ea610065610106926100c6565b82546001600160401b0319166001600160401b03919091161790565b9055565b60006101146101a2565b0161011e816100a1565b6101905761012b816100bc565b6001600160401b0391908290811603610142575050565b816101717fc7f505b2f371ae2175ee4913f4499e1f2633a7b5936321eed1cdaeb6115181d29361018b936100da565b604051918291826001600160401b03909116815260200190565b0390a1565b63f92ee8a960e01b6000908152600490fd5b6100656101e0565b6100656100656100659290565b6100657ff0c57e16840df040f15088dc2f81fe391c3923bec73e23a9662efc9c229c6a006101aa565b6100656101b756fe6080604052600436101561001257600080fd5b60003560e01c80621d35671461023157806307d9c5341461022c57806310d58783146102275780631794bb3c146102225780633c43d99d1461021d5780634514ad12146102185780634f1ef286146102135780634f93208a1461020e57806352d1902d1461020957806357376198146102045780635745a3a2146101ff5780635e280f11146101fa578063715018a6146101f557806374be2150146101f05780637ad3def2146101eb5780638d4ab2c0146101e65780638da5cb5b146101e157806392d5011f146101dc5780639e25fc5c146101d7578063aaff5f16146101d2578063ad3cb1cc146101cd578063b2f18522146101c8578063b504cd1e146101c3578063b932aa37146101be578063be6cd04f146101b9578063cfa713a3146101b4578063d01292dd146101af578063d5e42e2c146101aa578063e331de2b146101a5578063e71a02e1146101a0578063f2fde38b1461019b578063f6a0817b14610196578063fb7a9479146101915763fc0c546a0361024357610d7b565b610d55565b610d27565b610ce6565b610ccb565b610c9b565b610c80565b610c3c565b610c24565b610c08565b610bab565b610b76565b610b57565b610adc565b610a13565b6109a7565b61098e565b61092e565b6108ed565b610846565b610816565b6107df565b6107b8565b610763565b61074a565b610713565b6106f8565b610690565b610569565b610528565b6104f6565b610482565b6103a0565b61030a565b61ffff81165b0361024357565b600080fd5b9050359061025582610236565b565b909182601f83011215610243578135916001600160401b03831161024357602001926001830284011161024357565b6001600160401b03811661023c565b9050359061025582610286565b9091608082840312610243576102b88383610248565b9260208301356001600160401b03811161024357816102d8918501610257565b9290936102e88360408301610295565b9260608201356001600160401b038111610243576103069201610257565b9091565b346102435761032961031d3660046102a2565b94939093929192611176565b60405180805b0390f35b8061023c565b9050359061025582610333565b906020828203126102435761035a91610339565b90565b905b600052602052604060002090565b61035a916008021c5b60ff1690565b9061035a915461036d565b600061039761035a92600161035d565b61037c565b9052565b346102435761032f6103bb6103b6366004610346565b610387565b6040515b91829182901515815260200190565b906020828203126102435761035a91610248565b6103f361035a61035a9261ffff1690565b61ffff1690565b9061035f906103e2565b61035a905b6001600160a01b031690565b61035a9054610404565b61035a9060a01c610376565b61035a905461041f565b6104409060056103fa565b9061035a600061044f84610415565b930161042b565b61039c90610409565b91602061025592949361047a60408201966000830190610456565b019015159052565b346102435761049a6104953660046103ce565b610435565b9061032f6104a760405190565b9283928361045f565b61023c81610409565b90503590610255826104b0565b90916060828403126102435761035a6104df84846104b9565b9360406104ef82602087016104b9565b9401610339565b34610243576103296105093660046104c6565b916117c6565b90916060828403126102435761035a6104df8484610248565b61032961053636600461050f565b91611c06565b600091031261024357565b61035a916008021c81565b9061035a9154610547565b61035a60006006610552565b346102435761057936600461053c565b61032f61058461055d565b6040515b9182918290815260200190565b634e487b7160e01b600052604160045260246000fd5b90601f01601f191681019081106001600160401b038211176105cc57604052565b610595565b906102556105de60405190565b92836105ab565b6001600160401b0381116105cc57602090601f01601f19160190565b0190565b90826000939282370152565b90929192610626610621826105e5565b6105d1565b938185528183011161024357610255916020850190610605565b9080601f830112156102435781602061035a93359101610611565b9190916040818403126102435761067283826104b9565b9260208201356001600160401b0381116102435761035a9201610640565b61032961069e36600461065b565b90611c31565b906020828203126102435761035a916104b9565b61035a90610409906001600160a01b031682565b61035a906106b8565b61035a906106cc565b9061035f906106d5565b600061039761035a9260076106de565b346102435761032f6103bb61070e3660046106a4565b6106e8565b346102435761072336600461053c565b61032f610584611c7e565b91906040838203126102435761035a9060206104ef82866104b9565b346102435761032961075d36600461072e565b90611d74565b3461024357610329610776366004610346565b611ff9565b61035a916008021c610409565b9061035a915461077b565b61035a60006003610788565b61039c906106d5565b602081019291610255919061079f565b34610243576107c836600461053c565b61032f6107d3610793565b604051918291826107a8565b34610243576107ef36600461053c565b61032961201f565b6103f361035a61035a9290565b61035a60016107f7565b61035a610804565b346102435761082636600461053c565b61032f61083161080e565b6040519182918261ffff909116815260200190565b34610243576103296108593660046106a4565b612089565b61035a9081565b61035a905461085e565b61035a90610376565b61035a905461086f565b61088d90600461035d565b9061089782610415565b916108a460018201610865565b9161035a60036108b660028501610865565b9301610878565b61047a610255946108e66060949897956108df608086019a6000870190610456565b6020850152565b6040830152565b346102435761032f610908610903366004610346565b610882565b9061091594929460405190565b948594856108bd565b6020810192916102559190610456565b346102435761093e36600461053c565b61032f610949612092565b6040515b9182918261091e565b80151561023c565b9050359061025582610956565b91906040838203126102435761035a90602061098782866104b9565b940161095e565b34610243576103296109a136600461096b565b906120d9565b34610243576103296109ba366004610346565b612145565b606081830312610243576109d38282610248565b9260208201356001600160401b03811161024357836109f3918401610257565b92909360408201356001600160401b038111610243576103069201610257565b3461024357610329610a263660046109bf565b93929092612203565b90610a3c610621836105e5565b918252565b610a4b6005610a2f565b640352e302e360dc1b602082015290565b61035a610a41565b61035a610a5c565b61035a610a64565b60005b838110610a875750506000910152565b8181015183820152602001610a77565b610ab8610ac160209361060193610aac815190565b80835293849260200190565b95869101610a74565b601f01601f191690565b602080825261035a92910190610a97565b3461024357610aec36600461053c565b61032f610af7610a6c565b60405191829182610acb565b91909160808184031261024357610b1a83826104b9565b92610b288160208401610339565b9260408301356001600160401b0381116102435782610b4e60609461035a938701610257565b94909501610339565b346102435761032f6103bb610b6d366004610b03565b93929092612467565b3461024357610329610b8936600461072e565b9061253c565b91906040838203126102435761035a9060206109878286610248565b3461024357610329610bbe366004610b8f565b90612639565b9060608282031261024357610bd98183610339565b9260208301356001600160401b0381116102435782610bff60409461035a938701610257565b949095016104b9565b3461024357610329610c1b366004610bc4565b929190916127b3565b3461024357610329610c37366004610346565b6127d6565b3461024357610329610c4f366004610b03565b9392909261288d565b61035a61035a61035a9290565b61035a69152d02c7e14af6800000610c58565b61035a610c65565b3461024357610c9036600461053c565b61032f610584610c78565b3461024357610329610cae366004610bc4565b92919091612954565b61035a62015180610c58565b61035a610cb7565b3461024357610cdb36600461053c565b61032f610584610cc3565b3461024357610329610cf93660046106a4565b6129b2565b90916060828403126102435761035a610d178484610248565b93604061098782602087016104b9565b3461024357610329610d3a366004610cfe565b91612b74565b6000610d5061035a9260026103fa565b610788565b346102435761032f610949610d6b3660046103ce565b610d40565b61035a600080610788565b3461024357610d8b36600461053c565b61032f6107d3610d70565b15610d9d57565b60405162461bcd60e51b815260206004820152601760248201527f496e76616c696420656e64706f696e742063616c6c6572000000000000000000604482015280606481015b0390fd5b15610dee57565b60405162461bcd60e51b815260206004820152601360248201527210da185a5b881b9bdd081cdd5c1c1bdc9d1959606a1b6044820152606490fd5b356bffffffffffffffffffffffff19169060148110610e46575090565b610e63906bffffffffffffffffffffffff19906014036008021b90565b1690565b61035a9060601c6106b8565b61035a90610e67565b15610e8357565b60405162461bcd60e51b8152602060048201526015602482015274496e76616c696420736f757263652062726964676560581b6044820152606490fd5b61040961035a61035a9290565b61035a90610ec0565b15610edd57565b60405162461bcd60e51b8152602060048201526011602482015270125b9d985b1a59081c9958da5c1a595b9d607a1b6044820152606490fd5b9050519061025582610956565b906020828203126102435761035a91610f16565b916020610255929493610f5260408201966000830190610456565b0152565b6040513d6000823e3d90fd5b15610f6957565b60405162461bcd60e51b815260206004820152600e60248201526d135a5b9d1a5b99c819985a5b195960921b6044820152606490fd5b61039c9061ffff1660f01b90565b90610601610fc960029365636861696e2d60d01b815260060190565b8092610f9f565b61035a61035a61035a926001600160401b031690565b9081529291610255916040906110089060608701908782036020890152610a97565b940152565b90916106019083908093610605565b61039c906001600160401b031660c01b90565b61103b61039c91610409565b60601b90565b6106019461107361106c602099989560149760028661106560089861107b9a610f9f565b019161100d565b809261101c565b01809261102f565b01918252565b61035a60806105d1565b9061039c90610409565b61035a9051610409565b906001600160a01b03905b9181191691161790565b906110c461035a6110cb926106d5565b825461109f565b9055565b90600019906110aa565b906110e961035a6110cb92610c58565b82546110cf565b9060ff906110aa565b9061110961035a6110cb92151590565b82546110f0565b600361116560606102559461113061112a60008301611095565b866110b4565b61114761113e602083015190565b600187016110d9565b61115e611155604083015190565b600287016110d9565b0151151590565b91016110f9565b9061025591611110565b9361120e90611215966111ab61119c6111976111926003610415565b6106d5565b610409565b6111a533610409565b14610d96565b6111c96111c460006111be8a60056103fa565b0161042b565b610de7565b6112066111de6111d98787610e29565b610e73565b6112006111fa61119760006111f48d60056103fa565b01610415565b91610409565b14610e7c565b81019061072e565b95906106d5565b9360009361123861122861119787610ecd565b61123188610409565b1415610ed6565b61124361035a610c65565b871115611317579361035a611312946112a7611308956113029561129b8c8c7ff5949f687937bd6768db11a421feb8c55deed44c9bc8e6e25efe684d2968300c9c61128d60405190565b978896602088019687611041565b908103825203826105ab565b6112b96112b2825190565b9160200190565b20916112f26112c6611081565b916112d38a82850161108b565b6112de8b6020850152565b6112e9426040850152565b15156060830152565b6112fd83600461035d565b61116c565b936106d5565b9361058860405190565b0390a3565b93915093949150602061132c61119283610415565b9161133660405190565b92839182906308934a5f60e31b825281611354888c60048401610f37565b03925af18015611404576113b76113b26113ac600080516020613264833981519152976113906113bd956113d0976000916113d5575b50610f62565b61035a61139c60405190565b809261129b602083019182610fad565b95610fd0565b610c58565b956106d5565b946113c760405190565b93849384610fe6565b0390a2565b6113f7915060203d6020116113fd575b6113ef81836105ab565b810190610f23565b3861138a565b503d6113e5565b610f56565b61035a9060401c610376565b61035a9054611409565b61035a905b6001600160401b031690565b61035a905461141f565b61142461035a61035a9290565b906001600160401b03906110aa565b61142461035a61035a926001600160401b031690565b9061147c61035a6110cb92611456565b8254611447565b9068ff00000000000000009060401b6110aa565b906114a761035a6110cb92151590565b8254611483565b61039c9061143a565b60208101929161025591906114ae565b906114d0612b7f565b9283906114ec6114e66114e284611415565b1590565b92611430565b926000946114f98661143a565b6001600160401b03861614806115f9575b6001956115266115198861143a565b916001600160401b031690565b1490816115d1575b155b90816115c8575b506115b95790611562929184611559886115508961143a565b9a01998a61146c565b6115aa576116f9565b61156b57505050565b6115996115a5927fc7f505b2f371ae2175ee4913f4499e1f2633a7b5936321eed1cdaeb6115181d294611497565b604051918291826114b7565b0390a1565b6115b48689611497565b6116f9565b63f92ee8a960e01b8652600486fd5b15905038611537565b90506115306115df306106d5565b3b6115f06115ec8a610c58565b9190565b1491905061152e565b508361150a565b1561160757565b60405162461bcd60e51b8152602060048201526015602482015274496e76616c696420746f6b656e206164647265737360581b6044820152606490fd5b1561164b57565b60405162461bcd60e51b815260206004820152601860248201527f496e76616c696420656e64706f696e74206164647265737300000000000000006044820152606490fd5b1561169757565b60405162461bcd60e51b8152602060048201526015602482015274496e76616c6964206d696e206761732076616c756560581b6044820152606490fd5b9160206102559294936116ef60408201966000830190610456565b019061ffff169052565b907f9791fb750d6c4d3651a42030e2ddcf3cdabfe8b1a4544b5b4d615111ca343c16926117a161179a6117a89361172f33612b9c565b611737612bb8565b6117736117636117476000610ecd565b61119761175382610409565b61175c8b610409565b1415611600565b61176c83610409565b1415611644565b6117876117806000610c58565b8511611690565b611192611793876106d5565b60006110b4565b60036110b4565b60066110d9565b6117b0610804565b906115a56117bd60405190565b928392836116d4565b9061025592916114c7565b906117e492916117df612bca565b61182d565b610255612c2b565b156117f357565b60405162461bcd60e51b81526020600482015260126024820152711059191c995cdcc81a5cc8189b1bd8dad95960721b6044820152606490fd5b90610255929161185161184c6114e26118473360076106de565b610878565b6117ec565b90610255929161186b61184c6114e26118478560076106de565b611a00565b1561187757565b60405162461bcd60e51b815260206004820152601d60248201527f416d6f756e74206d7573742062652067726561746572207468616e20300000006044820152606490fd5b156118c357565b60405162461bcd60e51b815260206004820152601860248201527f436861696e206272696467652069732064697361626c656400000000000000006044820152606490fd5b1561190f57565b60405162461bcd60e51b815260206004820152601960248201527f496e73756666696369656e74206761732070726f7669646564000000000000006044820152606490fd5b61ffff9091168152606081019392610255929091604091610f52905b6020830190610456565b6106018160149361102f565b61035a6000610a2f565b61035a611986565b926119de6119e9916119d061035a999798946119f3966119c360c08a019260008b019061ffff169052565b88820360208a0152610a97565b908682036040880152610a97565b956060850190610456565b6080830190610456565b60a0818403910152610a97565b9190600092611a19611a1185610c58565b845b11611870565b600592611a2a856111f484876103fa565b92611a4b611a3787610ecd565b94611a446111fa87610409565b1415610de7565b611a61611a5c876111be86896103fa565b6118bc565b611a79611a7161035a6006610865565b341015611908565b611a8561119287610415565b91823b156102435786611a9760405190565b93849063079cc67960e41b8252818381611ab5873360048401610f37565b03925af19182156114045761129b93611b2293611bea575b50611ad7336106d5565b7fc16a36dcb251f4c00971094fbeffdb9eee9c1f58125de0f87a424bbacd3f87ca611b0160405190565b80611b0e86868b84611954565b0390a2604051938492602084019283610f37565b611b2f6111926003610415565b90611b43866111f48563c5803100986103fa565b94611b6c611b5060405190565b8097611b6060208301918261197a565b908103825203876105ab565b611b75336106d5565b91611b7e611990565b843b15610243578896611ba594611bb093611b9860405190565b9a8b998a98899860e01b90565b885260048801611998565b039134905af1801561140457611bc4575050565b8161025592903d10611be3575b611bdb81836105ab565b81019061053c565b503d611bd1565b611c0090893d8b11611be357611bdb81836105ab565b38611acd565b9061025592916117d1565b9061025591611c1e612c60565b9061025591611c2c81612ce0565b612d0a565b9061025591611c11565b61035a90611c47612dd0565b611c75565b61035a7f360894a13ba1a3210667c828492db98dca3e2076cc3735a920a3ca505d382bbc610c58565b5061035a611c4c565b61035a6000611c3b565b9061025591611c95612e0c565b611ce6565b15611ca157565b60405162461bcd60e51b815260206004820152601a60248201527f43616e6e6f74207265736375652062726964676520746f6b656e0000000000006044820152606490fd5b611d4891611d16611192602093611192611d066111976111926000610415565b611d0f83610409565b1415611c9a565b611d1e612092565b6000611d2960405190565b809681958294611d3d63a9059cbb60e01b90565b845260048401610f37565b03925af1801561140457611d595750565b611d719060203d6020116113fd576113ef81836105ab565b50565b9061025591611c88565b61025590611d8a612e0c565b6117e490611d96612bca565b611ed8565b15611da257565b60405162461bcd60e51b8152602060048201526012602482015271151c985b9cd9995c881b9bdd08199bdd5b9960721b6044820152606490fd5b15611de357565b60405162461bcd60e51b815260206004820152601a60248201527f5472616e7366657220616c72656164792070726f6365737365640000000000006044820152606490fd5b634e487b7160e01b600052601160045260246000fd5b91908201809211611e4b57565b611e28565b15611e5757565b60405162461bcd60e51b815260206004820152601860248201527f44656c617920706572696f64206e6f7420656c617073656400000000000000006044820152606490fd5b9081526060602082018190526010908201526f3232b630bcb2b216ba3930b739b332b960811b6080820152919061025590604060a08501940152565b611fa2611ee961035a83600461035d565b91611f0d611ef684610415565b611f066111fa6111976000610ecd565b1415611d9b565b611f5a600160038501611f2a611f256114e283610878565b611ddc565b611f55611f4d61035a611f3f60028a01610865565b611f47610cb7565b90611e3e565b421015611e50565b6110f9565b611f676111926000610415565b926020816001611f7682610415565b910195611f8287610865565b916000611f8e60405190565b809881958294611d3d63449a52f860e01b90565b03925af192831561140457611fdd611fe392611fd860008051602061326483398151915296611302946000916113d55750610f62565b610415565b94610865565b926113d0611ff060405190565b92839283611e9c565b61025590611d7e565b61200a612e0c565b61025561025561201a6000610ecd565b612e43565b610255612002565b61025590612033612e0c565b6117e49061203f612bca565b6115a57f5ba6b30cd4b2f9e9e67f4feb9b9df10d5da3b057598e6901b217b7d590345e309161207d6120746111976000610ecd565b61175c83610409565b610949611793826106d5565b61025590612027565b61035a60007f9016d09d72d40fdae2fd8ceac6b6234c7706214fd39c1cd1e609a0528c1993006111f4565b90610255916120ca612e0c565b90611f556102559260076106de565b90610255916120bd565b610255906120ef612e0c565b61210061035a61025592600461035d565b612112611f4d611f3f60028401610865565b61212a600160038301611f55611f256114e283610878565b61213f600161213883610415565b9201610865565b90612f32565b610255906120e3565b906102559493929161215e612e0c565b61219f565b9190610ac18161217a816106019560209181520190565b8095610605565b61ffff91909116815260406020820181905261035a93910191612163565b925092506121b06111926003610415565b803b15610243576121e293600080946121c860405190565b968795869485936342d65a8d60e01b855260048501612181565b03925af18015611404576121f35750565b610255906000611bdb81836105ab565b906102559493929161214e565b9061035a9594939291612221612e0c565b906122379594939291612232612bca565b612347565b90610255612c2b565b1561224757565b60405162461bcd60e51b815260206004820152601d60248201527f5472616e73616374696f6e20616c72656164792070726f6365737365640000006044820152606490fd5b1561229357565b60405162461bcd60e51b8152602060048201526016602482015275496e76616c696420746172676574206164647265737360501b6044820152606490fd5b156122d857565b60405162461bcd60e51b815260206004820152601860248201527f416d6f756e742065786365656473207468726573686f6c6400000000000000006044820152606490fd5b949391604091610255946110089261233a60608a019360008b0152565b88830360208a0152612163565b50939291906123a960016123696123646114e2611847898561035d565b612240565b6123896123796111976000610ecd565b61238289610409565b141561228c565b61239f61239761035a610c65565b8411156122d1565b611f55868261035d565b6123b66111926000610415565b9360206123c260405190565b9586906308934a5f60e31b8252816000816123e1888d60048401610f37565b03925af19485156114045760009561242c575b50612426906124136000805160206132648339815191529596976106d5565b9561241d60405190565b9485948561231d565b0390a290565b6000805160206132648339815191529495509061241361245d6124269360203d6020116113fd576113ef81836105ab565b96955050906123f4565b61035a94939291906000612210565b906117e491612483612bca565b6124af565b604090610f5261025594969593966124a860608401986000850190610456565b6020830152565b60006124c96124c061119783610ecd565b61123184610409565b6124d5611a1182610c58565b6124e061035a610c65565b8310612531576113126113086113027ff5949f687937bd6768db11a421feb8c55deed44c9bc8e6e25efe684d2968300c9361035a61251d60405190565b6112a7816020810161129b428d8d84612488565b509061025591612f32565b9061025591612476565b9061025591612553612e0c565b6125c1565b1561255f57565b60405162461bcd60e51b815260206004820152601460248201527310da185a5b881b9bdd081c9959da5cdd195c995960621b6044820152606490fd5b9060ff60a01b9060a01b6110aa565b906125ba61035a6110cb92151590565b825461259b565b6113d061262f7f3670c8077fe2b25f52efd0a9d8d4a2745875be1f4bd3296b938d456e55b63cee926126136125fc60006111f48460056103fa565b61260c6111fa6111976000610ecd565b1415612558565b61262a8560006126248460056103fa565b016125aa565b6103e2565b926103bf60405190565b9061025591612546565b906117e4939291612652612bca565b6126da565b604090610f52610255949695939661197060608401986000850190610456565b1561267e57565b60405162461bcd60e51b815260206004820152600f60248201526e151c985b9cd9995c8819985a5b1959608a1b6044820152606490fd5b949391604091610255946126d29261233a60608a019360008b0152565b940190610456565b61273692936126f26126ec6000610c58565b83611a13565b6020826127026111926000610415565b61270b306106d5565b600061271660405190565b80998195829461272a6323b872dd60e01b90565b84523360048501612657565b03925af1908115611404576127786113d0927f8786e6ec8d013cb6dfb1b71a429e4f9d6f71acfb1f381106e217046664ad90c696600091612794575b50612677565b612781336106d5565b9561278b60405190565b948594856126b5565b6127ad915060203d6020116113fd576113ef81836105ab565b38612772565b90610255939291612643565b610255906127cb612e0c565b6102559060066110d9565b610255906127bf565b90610255949392916127ef612e0c565b906117e4949392916127ff612bca565b929361282360016128196123646114e2611847868561035d565b611f55838261035d565b6128306111926000610415565b90602061283c60405190565b92839063a9059cbb60e01b82528160008161285b898c60048401610f37565b03925af180156114045760008051602061326483398151915295611192612413926113d0956000916127945750612677565b90610255949392916127df565b906117e49392916128a9612bca565b92919260006128ba6126ec82610c58565b6128c661119282610415565b93843b1561024357816128d860405190565b95869063079cc67960e41b82528183816128f6893360048401610f37565b03925af1918215611404577f8786e6ec8d013cb6dfb1b71a429e4f9d6f71acfb1f381106e217046664ad90c6956113d093612937575b5050612781336106d5565b8161294d92903d10611be357611bdb81836105ab565b388061292c565b9061025593929161289a565b6102559061296c612e0c565b600061297781610ecd565b61298081610409565b61298984610409565b1461299957505061025590612e43565b631e4fbdf760e01b82528190610de3906004830161091e565b61025590612960565b9061025592916129c9612e0c565b612a95565b156129d557565b60405162461bcd60e51b8152602060048201526015602482015274496e76616c69642072656d6f74652062726964676560581b6044820152606490fd5b15612a1957565b60405162461bcd60e51b815260206004820152601c60248201527f43616e6e6f7420726567697374657220736f7572636520636861696e000000006044820152606490fd5b61035a60406105d1565b61025591612a859060209061115e612a7f82611095565b856110b4565b906125aa565b9061025591612a68565b907fb2f92ae146563fe193b48846974f797b06908d26dab8e3598ea23a1edb83141d612b26612b329493612adf612acf6111976000610ecd565b612ad886610409565b14156129ce565b612af9612aed6103f3610804565b61ffff83161415612a12565b61262a612b04612a5e565b612b0e868261108b565b8615156020820152612b218360056103fa565b612a8b565b93849261094d60405190565b0390a2612b3c5750565b7f3670c8077fe2b25f52efd0a9d8d4a2745875be1f4bd3296b938d456e55b63cee612b6660405190565b6001815280602081016113d0565b9061025592916129bb565b61035a613056565b61025590612b9361305e565b6102559061308d565b61025590612b87565b612bad61305e565b61025561025561309e565b610255612ba5565b61035a6002610c58565b7f9b779b17422d0df92223018b32b4d1fa46e071723d6817e2486d003becc55f00612bf481610865565b612bfc612bc0565b908114612c0c57610255916110d9565b633ee5aeb560e01b600090815260045b036000fd5b61035a6001610c58565b6102557f9b779b17422d0df92223018b32b4d1fa46e071723d6817e2486d003becc55f006000612c59612c21565b91016110d9565b612c69306106d5565b7f000000000000000000000000000000000000000000000000000000000000000090612c976111fa83610409565b14908115612cb9575b50612ca757565b63703e46dd60e11b6000908152600490fd5b9050612ccf6111fa612cc96130a6565b92610409565b141538612ca0565b50610255612e0c565b61025590612cd7565b9050519061025582610333565b906020828203126102435761035a91612ce9565b90612d17611192836106d5565b906020612d2360405190565b6352d1902d60e01b815292839060049082905afa60009281612d9f575b50612d695750506001612d505750565b634c9c8ce360e01b600090815290612c1c90600461091e565b909291612d7761035a611c4c565b8403612d88576102559293506130b6565b632a87526960e21b60009081526004859052602490fd5b612dc291935060203d602011612dc9575b612dba81836105ab565b810190612cf6565b9138612d40565b503d612db0565b612dd9306106d5565b612e056111fa7f0000000000000000000000000000000000000000000000000000000000000000610409565b03612ca757565b612e14612092565b3390612e226111fa83610409565b03612e2a5750565b63118cdaa760e01b600090815290612c1c90600461091e565b612e83612e7d7f9016d09d72d40fdae2fd8ceac6b6234c7706214fd39c1cd1e609a0528c19930061119284612e7783610415565b926110b4565b916106d5565b907f8be0079c531659141344cd1fd0a4f28419497f9722a3daafe3b4186f6b6457e0612eae60405190565b8080611312565b15612ebc57565b60405162461bcd60e51b8152602060048201526014602482015273149958da5c1a595b9d081a5cc8189b1bd8dad95960621b6044820152606490fd5b908152606060208201819052600e908201526d3637b1b0b616ba3930b739b332b960911b6080820152919061025590604060a08501940152565b612f4b612f426111976000610ecd565b61123183610409565b612f586126ec6000610c58565b612f71612f6c6114e26118478460076106de565b612eb5565b612f7e6111926000610415565b906020612f8a60405190565b9283906308934a5f60e31b825281600081612fa9898860048401610f37565b03925af19182156114045760008051602061326483398151915292612fd5916000916127945750612677565b613017612fe160405190565b42602080830191825261300591839161129b908961060160148a61107b8588611073565b6130106112b2825190565b20916106d5565b926113d061302460405190565b92839283612ef8565b61035a7ff0c57e16840df040f15088dc2f81fe391c3923bec73e23a9662efc9c229c6a00610c58565b61035a61302d565b6130696114e261311f565b61306f57565b631afcd79f60e31b6000908152600490fd5b6102559061296c61305e565b61025590613081565b6117e461305e565b610255613096565b61035a60006111f461035a611c4c565b906130c082613132565b6130c9826106d5565b7fbc7cd75a20ee27fd9adebab32041f755214dbc6bffa90cc0225b39da2e5c2d3b6130f360405190565b600090a280516131066115ec6000610c58565b111561311557611d71916131b7565b5050610255613175565b61035a600061312c612b7f565b01611415565b6000813b6131426115ec83610c58565b1461315d57906102559161315761035a611c4c565b016110b4565b610de38192634c9c8ce360e01b83526004830161091e565b600061318081610c58565b34116131895750565b63b398979f60e01b8152600490fd5b3d156131b2576131a73d610a2f565b903d6000602084013e565b606090565b60008061035a936131c6606090565b50602081519101845af46131d8613198565b91906131e45750613234565b8151906000916131f66115ec84610c58565b148061321f575b61320657505090565b639996b31560e01b82528190610de3906004830161091e565b50803b61322e6115ec84610c58565b146131fd565b80516000906132456115ec83610c58565b11156132545750805190602001fd5b63d6bda27560e01b8152600490fdfe7b93d20aa9666fff2b9034d25db8eefa4ada8752b0b713f599e9da3bd437e192a264697066735822122064afb7a6fbeec40d58ae55e9d3a868a783835b83eea99771f1734c3c8a633e6a64736f6c634300081b0033","opcodes":"PUSH1 0xA0 PUSH1 0x40 MSTORE CALLVALUE PUSH2 0x32 JUMPI PUSH2 0x11 PUSH2 0x37 JUMP JUMPDEST PUSH1 0x40 MLOAD PUSH2 0x32B9 PUSH2 0x1E9 DUP3 CODECOPY PUSH1 0x80 MLOAD DUP2 DUP2 DUP2 PUSH2 0x2C6B ADD MSTORE PUSH2 0x2DE1 ADD MSTORE PUSH2 0x32B9 SWAP1 RETURN JUMPDEST PUSH1 0x0 DUP1 REVERT JUMPDEST PUSH2 0x3F PUSH2 0x49 JUMP JUMPDEST PUSH2 0x47 PUSH2 0x10A JUMP JUMPDEST JUMP JUMPDEST PUSH2 0x47 PUSH2 0x86 JUMP JUMPDEST PUSH2 0x65 SWAP1 PUSH2 0x68 SWAP1 PUSH1 0x1 PUSH1 0x1 PUSH1 0xA0 SHL SUB AND DUP3 JUMP JUMPDEST SWAP1 JUMP JUMPDEST PUSH1 0x1 PUSH1 0x1 PUSH1 0xA0 SHL SUB AND SWAP1 JUMP JUMPDEST PUSH2 0x65 SWAP1 PUSH2 0x51 JUMP JUMPDEST PUSH2 0x65 SWAP1 PUSH2 0x74 JUMP JUMPDEST PUSH2 0x8F ADDRESS PUSH2 0x7D JUMP JUMPDEST PUSH1 0x80 MSTORE JUMP JUMPDEST PUSH2 0x65 SWAP1 PUSH1 0x40 SHR PUSH1 0xFF AND SWAP1 JUMP JUMPDEST PUSH2 0x65 SWAP1 SLOAD PUSH2 0x94 JUMP JUMPDEST PUSH2 0x65 SWAP1 JUMPDEST PUSH1 0x1 PUSH1 0x1 PUSH1 0x40 SHL SUB AND SWAP1 JUMP JUMPDEST PUSH2 0x65 SWAP1 SLOAD PUSH2 0xAB JUMP JUMPDEST PUSH2 0x65 SWAP1 PUSH2 0xB0 SWAP1 PUSH1 0x1 PUSH1 0x1 PUSH1 0x40 SHL SUB AND DUP3 JUMP JUMPDEST SWAP1 PUSH2 0xEA PUSH2 0x65 PUSH2 0x106 SWAP3 PUSH2 0xC6 JUMP JUMPDEST DUP3 SLOAD PUSH1 0x1 PUSH1 0x1 PUSH1 0x40 SHL SUB NOT AND PUSH1 0x1 PUSH1 0x1 PUSH1 0x40 SHL SUB SWAP2 SWAP1 SWAP2 AND OR SWAP1 JUMP JUMPDEST SWAP1 SSTORE JUMP JUMPDEST PUSH1 0x0 PUSH2 0x114 PUSH2 0x1A2 JUMP JUMPDEST ADD PUSH2 0x11E DUP2 PUSH2 0xA1 JUMP JUMPDEST PUSH2 0x190 JUMPI PUSH2 0x12B DUP2 PUSH2 0xBC JUMP JUMPDEST PUSH1 0x1 PUSH1 0x1 PUSH1 0x40 SHL SUB SWAP2 SWAP1 DUP3 SWAP1 DUP2 AND SUB PUSH2 0x142 JUMPI POP POP JUMP JUMPDEST DUP2 PUSH2 0x171 PUSH32 0xC7F505B2F371AE2175EE4913F4499E1F2633A7B5936321EED1CDAEB6115181D2 SWAP4 PUSH2 0x18B SWAP4 PUSH2 0xDA JUMP JUMPDEST PUSH1 0x40 MLOAD SWAP2 DUP3 SWAP2 DUP3 PUSH1 0x1 PUSH1 0x1 PUSH1 0x40 SHL SUB SWAP1 SWAP2 AND DUP2 MSTORE PUSH1 0x20 ADD SWAP1 JUMP JUMPDEST SUB SWAP1 LOG1 JUMP JUMPDEST PUSH4 0xF92EE8A9 PUSH1 0xE0 SHL PUSH1 0x0 SWAP1 DUP2 MSTORE PUSH1 0x4 SWAP1 REVERT JUMPDEST PUSH2 0x65 PUSH2 0x1E0 JUMP JUMPDEST PUSH2 0x65 PUSH2 0x65 PUSH2 0x65 SWAP3 SWAP1 JUMP JUMPDEST PUSH2 0x65 PUSH32 0xF0C57E16840DF040F15088DC2F81FE391C3923BEC73E23A9662EFC9C229C6A00 PUSH2 0x1AA JUMP JUMPDEST PUSH2 0x65 PUSH2 0x1B7 JUMP INVALID PUSH1 0x80 PUSH1 0x40 MSTORE PUSH1 0x4 CALLDATASIZE LT ISZERO PUSH2 0x12 JUMPI PUSH1 0x0 DUP1 REVERT JUMPDEST PUSH1 0x0 CALLDATALOAD PUSH1 0xE0 SHR DUP1 PUSH3 0x1D3567 EQ PUSH2 0x231 JUMPI DUP1 PUSH4 0x7D9C534 EQ PUSH2 0x22C JUMPI DUP1 PUSH4 0x10D58783 EQ PUSH2 0x227 JUMPI DUP1 PUSH4 0x1794BB3C EQ PUSH2 0x222 JUMPI DUP1 PUSH4 0x3C43D99D EQ PUSH2 0x21D JUMPI DUP1 PUSH4 0x4514AD12 EQ PUSH2 0x218 JUMPI DUP1 PUSH4 0x4F1EF286 EQ PUSH2 0x213 JUMPI DUP1 PUSH4 0x4F93208A EQ PUSH2 0x20E JUMPI DUP1 PUSH4 0x52D1902D EQ PUSH2 0x209 JUMPI DUP1 PUSH4 0x57376198 EQ PUSH2 0x204 JUMPI DUP1 PUSH4 0x5745A3A2 EQ PUSH2 0x1FF JUMPI DUP1 PUSH4 0x5E280F11 EQ PUSH2 0x1FA JUMPI DUP1 PUSH4 0x715018A6 EQ PUSH2 0x1F5 JUMPI DUP1 PUSH4 0x74BE2150 EQ PUSH2 0x1F0 JUMPI DUP1 PUSH4 0x7AD3DEF2 EQ PUSH2 0x1EB JUMPI DUP1 PUSH4 0x8D4AB2C0 EQ PUSH2 0x1E6 JUMPI DUP1 PUSH4 0x8DA5CB5B EQ PUSH2 0x1E1 JUMPI DUP1 PUSH4 0x92D5011F EQ PUSH2 0x1DC JUMPI DUP1 PUSH4 0x9E25FC5C EQ PUSH2 0x1D7 JUMPI DUP1 PUSH4 0xAAFF5F16 EQ PUSH2 0x1D2 JUMPI DUP1 PUSH4 0xAD3CB1CC EQ PUSH2 0x1CD JUMPI DUP1 PUSH4 0xB2F18522 EQ PUSH2 0x1C8 JUMPI DUP1 PUSH4 0xB504CD1E EQ PUSH2 0x1C3 JUMPI DUP1 PUSH4 0xB932AA37 EQ PUSH2 0x1BE JUMPI DUP1 PUSH4 0xBE6CD04F EQ PUSH2 0x1B9 JUMPI DUP1 PUSH4 0xCFA713A3 EQ PUSH2 0x1B4 JUMPI DUP1 PUSH4 0xD01292DD EQ PUSH2 0x1AF JUMPI DUP1 PUSH4 0xD5E42E2C EQ PUSH2 0x1AA JUMPI DUP1 PUSH4 0xE331DE2B EQ PUSH2 0x1A5 JUMPI DUP1 PUSH4 0xE71A02E1 EQ PUSH2 0x1A0 JUMPI DUP1 PUSH4 0xF2FDE38B EQ PUSH2 0x19B JUMPI DUP1 PUSH4 0xF6A0817B EQ PUSH2 0x196 JUMPI DUP1 PUSH4 0xFB7A9479 EQ PUSH2 0x191 JUMPI PUSH4 0xFC0C546A SUB PUSH2 0x243 JUMPI PUSH2 0xD7B JUMP JUMPDEST PUSH2 0xD55 JUMP JUMPDEST PUSH2 0xD27 JUMP JUMPDEST PUSH2 0xCE6 JUMP JUMPDEST PUSH2 0xCCB JUMP JUMPDEST PUSH2 0xC9B JUMP JUMPDEST PUSH2 0xC80 JUMP JUMPDEST PUSH2 0xC3C JUMP JUMPDEST PUSH2 0xC24 JUMP JUMPDEST PUSH2 0xC08 JUMP JUMPDEST PUSH2 0xBAB JUMP JUMPDEST PUSH2 0xB76 JUMP JUMPDEST PUSH2 0xB57 JUMP JUMPDEST PUSH2 0xADC JUMP JUMPDEST PUSH2 0xA13 JUMP JUMPDEST PUSH2 0x9A7 JUMP JUMPDEST PUSH2 0x98E JUMP JUMPDEST PUSH2 0x92E JUMP JUMPDEST PUSH2 0x8ED JUMP JUMPDEST PUSH2 0x846 JUMP JUMPDEST PUSH2 0x816 JUMP JUMPDEST PUSH2 0x7DF JUMP JUMPDEST PUSH2 0x7B8 JUMP JUMPDEST PUSH2 0x763 JUMP JUMPDEST PUSH2 0x74A JUMP JUMPDEST PUSH2 0x713 JUMP JUMPDEST PUSH2 0x6F8 JUMP JUMPDEST PUSH2 0x690 JUMP JUMPDEST PUSH2 0x569 JUMP JUMPDEST PUSH2 0x528 JUMP JUMPDEST PUSH2 0x4F6 JUMP JUMPDEST PUSH2 0x482 JUMP JUMPDEST PUSH2 0x3A0 JUMP JUMPDEST PUSH2 0x30A JUMP JUMPDEST PUSH2 0xFFFF DUP2 AND JUMPDEST SUB PUSH2 0x243 JUMPI JUMP JUMPDEST PUSH1 0x0 DUP1 REVERT JUMPDEST SWAP1 POP CALLDATALOAD SWAP1 PUSH2 0x255 DUP3 PUSH2 0x236 JUMP JUMPDEST JUMP JUMPDEST SWAP1 SWAP2 DUP3 PUSH1 0x1F DUP4 ADD SLT ISZERO PUSH2 0x243 JUMPI DUP2 CALLDATALOAD SWAP2 PUSH1 0x1 PUSH1 0x1 PUSH1 0x40 SHL SUB DUP4 GT PUSH2 0x243 JUMPI PUSH1 0x20 ADD SWAP3 PUSH1 0x1 DUP4 MUL DUP5 ADD GT PUSH2 0x243 JUMPI JUMP JUMPDEST PUSH1 0x1 PUSH1 0x1 PUSH1 0x40 SHL SUB DUP2 AND PUSH2 0x23C JUMP JUMPDEST SWAP1 POP CALLDATALOAD SWAP1 PUSH2 0x255 DUP3 PUSH2 0x286 JUMP JUMPDEST SWAP1 SWAP2 PUSH1 0x80 DUP3 DUP5 SUB SLT PUSH2 0x243 JUMPI PUSH2 0x2B8 DUP4 DUP4 PUSH2 0x248 JUMP JUMPDEST SWAP3 PUSH1 0x20 DUP4 ADD CALLDATALOAD PUSH1 0x1 PUSH1 0x1 PUSH1 0x40 SHL SUB DUP2 GT PUSH2 0x243 JUMPI DUP2 PUSH2 0x2D8 SWAP2 DUP6 ADD PUSH2 0x257 JUMP JUMPDEST SWAP3 SWAP1 SWAP4 PUSH2 0x2E8 DUP4 PUSH1 0x40 DUP4 ADD PUSH2 0x295 JUMP JUMPDEST SWAP3 PUSH1 0x60 DUP3 ADD CALLDATALOAD PUSH1 0x1 PUSH1 0x1 PUSH1 0x40 SHL SUB DUP2 GT PUSH2 0x243 JUMPI PUSH2 0x306 SWAP3 ADD PUSH2 0x257 JUMP JUMPDEST SWAP1 SWAP2 JUMP JUMPDEST CALLVALUE PUSH2 0x243 JUMPI PUSH2 0x329 PUSH2 0x31D CALLDATASIZE PUSH1 0x4 PUSH2 0x2A2 JUMP JUMPDEST SWAP5 SWAP4 SWAP1 SWAP4 SWAP3 SWAP2 SWAP3 PUSH2 0x1176 JUMP JUMPDEST PUSH1 0x40 MLOAD DUP1 DUP1 JUMPDEST SUB SWAP1 RETURN JUMPDEST DUP1 PUSH2 0x23C JUMP JUMPDEST SWAP1 POP CALLDATALOAD SWAP1 PUSH2 0x255 DUP3 PUSH2 0x333 JUMP JUMPDEST SWAP1 PUSH1 0x20 DUP3 DUP3 SUB SLT PUSH2 0x243 JUMPI PUSH2 0x35A SWAP2 PUSH2 0x339 JUMP JUMPDEST SWAP1 JUMP JUMPDEST SWAP1 JUMPDEST PUSH1 0x0 MSTORE PUSH1 0x20 MSTORE PUSH1 0x40 PUSH1 0x0 KECCAK256 SWAP1 JUMP JUMPDEST PUSH2 0x35A SWAP2 PUSH1 0x8 MUL SHR JUMPDEST PUSH1 0xFF AND SWAP1 JUMP JUMPDEST SWAP1 PUSH2 0x35A SWAP2 SLOAD PUSH2 0x36D JUMP JUMPDEST PUSH1 0x0 PUSH2 0x397 PUSH2 0x35A SWAP3 PUSH1 0x1 PUSH2 0x35D JUMP JUMPDEST PUSH2 0x37C JUMP JUMPDEST SWAP1 MSTORE JUMP JUMPDEST CALLVALUE PUSH2 0x243 JUMPI PUSH2 0x32F PUSH2 0x3BB PUSH2 0x3B6 CALLDATASIZE PUSH1 0x4 PUSH2 0x346 JUMP JUMPDEST PUSH2 0x387 JUMP JUMPDEST PUSH1 0x40 MLOAD JUMPDEST SWAP2 DUP3 SWAP2 DUP3 SWAP1 ISZERO ISZERO DUP2 MSTORE PUSH1 0x20 ADD SWAP1 JUMP JUMPDEST SWAP1 PUSH1 0x20 DUP3 DUP3 SUB SLT PUSH2 0x243 JUMPI PUSH2 0x35A SWAP2 PUSH2 0x248 JUMP JUMPDEST PUSH2 0x3F3 PUSH2 0x35A PUSH2 0x35A SWAP3 PUSH2 0xFFFF AND SWAP1 JUMP JUMPDEST PUSH2 0xFFFF AND SWAP1 JUMP JUMPDEST SWAP1 PUSH2 0x35F SWAP1 PUSH2 0x3E2 JUMP JUMPDEST PUSH2 0x35A SWAP1 JUMPDEST PUSH1 0x1 PUSH1 0x1 PUSH1 0xA0 SHL SUB AND SWAP1 JUMP JUMPDEST PUSH2 0x35A SWAP1 SLOAD PUSH2 0x404 JUMP JUMPDEST PUSH2 0x35A SWAP1 PUSH1 0xA0 SHR PUSH2 0x376 JUMP JUMPDEST PUSH2 0x35A SWAP1 SLOAD PUSH2 0x41F JUMP JUMPDEST PUSH2 0x440 SWAP1 PUSH1 0x5 PUSH2 0x3FA JUMP JUMPDEST SWAP1 PUSH2 0x35A PUSH1 0x0 PUSH2 0x44F DUP5 PUSH2 0x415 JUMP JUMPDEST SWAP4 ADD PUSH2 0x42B JUMP JUMPDEST PUSH2 0x39C SWAP1 PUSH2 0x409 JUMP JUMPDEST SWAP2 PUSH1 0x20 PUSH2 0x255 SWAP3 SWAP5 SWAP4 PUSH2 0x47A PUSH1 0x40 DUP3 ADD SWAP7 PUSH1 0x0 DUP4 ADD SWAP1 PUSH2 0x456 JUMP JUMPDEST ADD SWAP1 ISZERO ISZERO SWAP1 MSTORE JUMP JUMPDEST CALLVALUE PUSH2 0x243 JUMPI PUSH2 0x49A PUSH2 0x495 CALLDATASIZE PUSH1 0x4 PUSH2 0x3CE JUMP JUMPDEST PUSH2 0x435 JUMP JUMPDEST SWAP1 PUSH2 0x32F PUSH2 0x4A7 PUSH1 0x40 MLOAD SWAP1 JUMP JUMPDEST SWAP3 DUP4 SWAP3 DUP4 PUSH2 0x45F JUMP JUMPDEST PUSH2 0x23C DUP2 PUSH2 0x409 JUMP JUMPDEST SWAP1 POP CALLDATALOAD SWAP1 PUSH2 0x255 DUP3 PUSH2 0x4B0 JUMP JUMPDEST SWAP1 SWAP2 PUSH1 0x60 DUP3 DUP5 SUB SLT PUSH2 0x243 JUMPI PUSH2 0x35A PUSH2 0x4DF DUP5 DUP5 PUSH2 0x4B9 JUMP JUMPDEST SWAP4 PUSH1 0x40 PUSH2 0x4EF DUP3 PUSH1 0x20 DUP8 ADD PUSH2 0x4B9 JUMP JUMPDEST SWAP5 ADD PUSH2 0x339 JUMP JUMPDEST CALLVALUE PUSH2 0x243 JUMPI PUSH2 0x329 PUSH2 0x509 CALLDATASIZE PUSH1 0x4 PUSH2 0x4C6 JUMP JUMPDEST SWAP2 PUSH2 0x17C6 JUMP JUMPDEST SWAP1 SWAP2 PUSH1 0x60 DUP3 DUP5 SUB SLT PUSH2 0x243 JUMPI PUSH2 0x35A PUSH2 0x4DF DUP5 DUP5 PUSH2 0x248 JUMP JUMPDEST PUSH2 0x329 PUSH2 0x536 CALLDATASIZE PUSH1 0x4 PUSH2 0x50F JUMP JUMPDEST SWAP2 PUSH2 0x1C06 JUMP JUMPDEST PUSH1 0x0 SWAP2 SUB SLT PUSH2 0x243 JUMPI JUMP JUMPDEST PUSH2 0x35A SWAP2 PUSH1 0x8 MUL SHR DUP2 JUMP JUMPDEST SWAP1 PUSH2 0x35A SWAP2 SLOAD PUSH2 0x547 JUMP JUMPDEST PUSH2 0x35A PUSH1 0x0 PUSH1 0x6 PUSH2 0x552 JUMP JUMPDEST CALLVALUE PUSH2 0x243 JUMPI PUSH2 0x579 CALLDATASIZE PUSH1 0x4 PUSH2 0x53C JUMP JUMPDEST PUSH2 0x32F PUSH2 0x584 PUSH2 0x55D JUMP JUMPDEST PUSH1 0x40 MLOAD JUMPDEST SWAP2 DUP3 SWAP2 DUP3 SWAP1 DUP2 MSTORE PUSH1 0x20 ADD SWAP1 JUMP JUMPDEST PUSH4 0x4E487B71 PUSH1 0xE0 SHL PUSH1 0x0 MSTORE PUSH1 0x41 PUSH1 0x4 MSTORE PUSH1 0x24 PUSH1 0x0 REVERT JUMPDEST SWAP1 PUSH1 0x1F ADD PUSH1 0x1F NOT AND DUP2 ADD SWAP1 DUP2 LT PUSH1 0x1 PUSH1 0x1 PUSH1 0x40 SHL SUB DUP3 GT OR PUSH2 0x5CC JUMPI PUSH1 0x40 MSTORE JUMP JUMPDEST PUSH2 0x595 JUMP JUMPDEST SWAP1 PUSH2 0x255 PUSH2 0x5DE PUSH1 0x40 MLOAD SWAP1 JUMP JUMPDEST SWAP3 DUP4 PUSH2 0x5AB JUMP JUMPDEST PUSH1 0x1 PUSH1 0x1 PUSH1 0x40 SHL SUB DUP2 GT PUSH2 0x5CC JUMPI PUSH1 0x20 SWAP1 PUSH1 0x1F ADD PUSH1 0x1F NOT AND ADD SWAP1 JUMP JUMPDEST ADD SWAP1 JUMP JUMPDEST SWAP1 DUP3 PUSH1 0x0 SWAP4 SWAP3 DUP3 CALLDATACOPY ADD MSTORE JUMP JUMPDEST SWAP1 SWAP3 SWAP2 SWAP3 PUSH2 0x626 PUSH2 0x621 DUP3 PUSH2 0x5E5 JUMP JUMPDEST PUSH2 0x5D1 JUMP JUMPDEST SWAP4 DUP2 DUP6 MSTORE DUP2 DUP4 ADD GT PUSH2 0x243 JUMPI PUSH2 0x255 SWAP2 PUSH1 0x20 DUP6 ADD SWAP1 PUSH2 0x605 JUMP JUMPDEST SWAP1 DUP1 PUSH1 0x1F DUP4 ADD SLT ISZERO PUSH2 0x243 JUMPI DUP2 PUSH1 0x20 PUSH2 0x35A SWAP4 CALLDATALOAD SWAP2 ADD PUSH2 0x611 JUMP JUMPDEST SWAP2 SWAP1 SWAP2 PUSH1 0x40 DUP2 DUP5 SUB SLT PUSH2 0x243 JUMPI PUSH2 0x672 DUP4 DUP3 PUSH2 0x4B9 JUMP JUMPDEST SWAP3 PUSH1 0x20 DUP3 ADD CALLDATALOAD PUSH1 0x1 PUSH1 0x1 PUSH1 0x40 SHL SUB DUP2 GT PUSH2 0x243 JUMPI PUSH2 0x35A SWAP3 ADD PUSH2 0x640 JUMP JUMPDEST PUSH2 0x329 PUSH2 0x69E CALLDATASIZE PUSH1 0x4 PUSH2 0x65B JUMP JUMPDEST SWAP1 PUSH2 0x1C31 JUMP JUMPDEST SWAP1 PUSH1 0x20 DUP3 DUP3 SUB SLT PUSH2 0x243 JUMPI PUSH2 0x35A SWAP2 PUSH2 0x4B9 JUMP JUMPDEST PUSH2 0x35A SWAP1 PUSH2 0x409 SWAP1 PUSH1 0x1 PUSH1 0x1 PUSH1 0xA0 SHL SUB AND DUP3 JUMP JUMPDEST PUSH2 0x35A SWAP1 PUSH2 0x6B8 JUMP JUMPDEST PUSH2 0x35A SWAP1 PUSH2 0x6CC JUMP JUMPDEST SWAP1 PUSH2 0x35F SWAP1 PUSH2 0x6D5 JUMP JUMPDEST PUSH1 0x0 PUSH2 0x397 PUSH2 0x35A SWAP3 PUSH1 0x7 PUSH2 0x6DE JUMP JUMPDEST CALLVALUE PUSH2 0x243 JUMPI PUSH2 0x32F PUSH2 0x3BB PUSH2 0x70E CALLDATASIZE PUSH1 0x4 PUSH2 0x6A4 JUMP JUMPDEST PUSH2 0x6E8 JUMP JUMPDEST CALLVALUE PUSH2 0x243 JUMPI PUSH2 0x723 CALLDATASIZE PUSH1 0x4 PUSH2 0x53C JUMP JUMPDEST PUSH2 0x32F PUSH2 0x584 PUSH2 0x1C7E JUMP JUMPDEST SWAP2 SWAP1 PUSH1 0x40 DUP4 DUP3 SUB SLT PUSH2 0x243 JUMPI PUSH2 0x35A SWAP1 PUSH1 0x20 PUSH2 0x4EF DUP3 DUP7 PUSH2 0x4B9 JUMP JUMPDEST CALLVALUE PUSH2 0x243 JUMPI PUSH2 0x329 PUSH2 0x75D CALLDATASIZE PUSH1 0x4 PUSH2 0x72E JUMP JUMPDEST SWAP1 PUSH2 0x1D74 JUMP JUMPDEST CALLVALUE PUSH2 0x243 JUMPI PUSH2 0x329 PUSH2 0x776 CALLDATASIZE PUSH1 0x4 PUSH2 0x346 JUMP JUMPDEST PUSH2 0x1FF9 JUMP JUMPDEST PUSH2 0x35A SWAP2 PUSH1 0x8 MUL SHR PUSH2 0x409 JUMP JUMPDEST SWAP1 PUSH2 0x35A SWAP2 SLOAD PUSH2 0x77B JUMP JUMPDEST PUSH2 0x35A PUSH1 0x0 PUSH1 0x3 PUSH2 0x788 JUMP JUMPDEST PUSH2 0x39C SWAP1 PUSH2 0x6D5 JUMP JUMPDEST PUSH1 0x20 DUP2 ADD SWAP3 SWAP2 PUSH2 0x255 SWAP2 SWAP1 PUSH2 0x79F JUMP JUMPDEST CALLVALUE PUSH2 0x243 JUMPI PUSH2 0x7C8 CALLDATASIZE PUSH1 0x4 PUSH2 0x53C JUMP JUMPDEST PUSH2 0x32F PUSH2 0x7D3 PUSH2 0x793 JUMP JUMPDEST PUSH1 0x40 MLOAD SWAP2 DUP3 SWAP2 DUP3 PUSH2 0x7A8 JUMP JUMPDEST CALLVALUE PUSH2 0x243 JUMPI PUSH2 0x7EF CALLDATASIZE PUSH1 0x4 PUSH2 0x53C JUMP JUMPDEST PUSH2 0x329 PUSH2 0x201F JUMP JUMPDEST PUSH2 0x3F3 PUSH2 0x35A PUSH2 0x35A SWAP3 SWAP1 JUMP JUMPDEST PUSH2 0x35A PUSH1 0x1 PUSH2 0x7F7 JUMP JUMPDEST PUSH2 0x35A PUSH2 0x804 JUMP JUMPDEST CALLVALUE PUSH2 0x243 JUMPI PUSH2 0x826 CALLDATASIZE PUSH1 0x4 PUSH2 0x53C JUMP JUMPDEST PUSH2 0x32F PUSH2 0x831 PUSH2 0x80E JUMP JUMPDEST PUSH1 0x40 MLOAD SWAP2 DUP3 SWAP2 DUP3 PUSH2 0xFFFF SWAP1 SWAP2 AND DUP2 MSTORE PUSH1 0x20 ADD SWAP1 JUMP JUMPDEST CALLVALUE PUSH2 0x243 JUMPI PUSH2 0x329 PUSH2 0x859 CALLDATASIZE PUSH1 0x4 PUSH2 0x6A4 JUMP JUMPDEST PUSH2 0x2089 JUMP JUMPDEST PUSH2 0x35A SWAP1 DUP2 JUMP JUMPDEST PUSH2 0x35A SWAP1 SLOAD PUSH2 0x85E JUMP JUMPDEST PUSH2 0x35A SWAP1 PUSH2 0x376 JUMP JUMPDEST PUSH2 0x35A SWAP1 SLOAD PUSH2 0x86F JUMP JUMPDEST PUSH2 0x88D SWAP1 PUSH1 0x4 PUSH2 0x35D JUMP JUMPDEST SWAP1 PUSH2 0x897 DUP3 PUSH2 0x415 JUMP JUMPDEST SWAP2 PUSH2 0x8A4 PUSH1 0x1 DUP3 ADD PUSH2 0x865 JUMP JUMPDEST SWAP2 PUSH2 0x35A PUSH1 0x3 PUSH2 0x8B6 PUSH1 0x2 DUP6 ADD PUSH2 0x865 JUMP JUMPDEST SWAP4 ADD PUSH2 0x878 JUMP JUMPDEST PUSH2 0x47A PUSH2 0x255 SWAP5 PUSH2 0x8E6 PUSH1 0x60 SWAP5 SWAP9 SWAP8 SWAP6 PUSH2 0x8DF PUSH1 0x80 DUP7 ADD SWAP11 PUSH1 0x0 DUP8 ADD SWAP1 PUSH2 0x456 JUMP JUMPDEST PUSH1 0x20 DUP6 ADD MSTORE JUMP JUMPDEST PUSH1 0x40 DUP4 ADD MSTORE JUMP JUMPDEST CALLVALUE PUSH2 0x243 JUMPI PUSH2 0x32F PUSH2 0x908 PUSH2 0x903 CALLDATASIZE PUSH1 0x4 PUSH2 0x346 JUMP JUMPDEST PUSH2 0x882 JUMP JUMPDEST SWAP1 PUSH2 0x915 SWAP5 SWAP3 SWAP5 PUSH1 0x40 MLOAD SWAP1 JUMP JUMPDEST SWAP5 DUP6 SWAP5 DUP6 PUSH2 0x8BD JUMP JUMPDEST PUSH1 0x20 DUP2 ADD SWAP3 SWAP2 PUSH2 0x255 SWAP2 SWAP1 PUSH2 0x456 JUMP JUMPDEST CALLVALUE PUSH2 0x243 JUMPI PUSH2 0x93E CALLDATASIZE PUSH1 0x4 PUSH2 0x53C JUMP JUMPDEST PUSH2 0x32F PUSH2 0x949 PUSH2 0x2092 JUMP JUMPDEST PUSH1 0x40 MLOAD JUMPDEST SWAP2 DUP3 SWAP2 DUP3 PUSH2 0x91E JUMP JUMPDEST DUP1 ISZERO ISZERO PUSH2 0x23C JUMP JUMPDEST SWAP1 POP CALLDATALOAD SWAP1 PUSH2 0x255 DUP3 PUSH2 0x956 JUMP JUMPDEST SWAP2 SWAP1 PUSH1 0x40 DUP4 DUP3 SUB SLT PUSH2 0x243 JUMPI PUSH2 0x35A SWAP1 PUSH1 0x20 PUSH2 0x987 DUP3 DUP7 PUSH2 0x4B9 JUMP JUMPDEST SWAP5 ADD PUSH2 0x95E JUMP JUMPDEST CALLVALUE PUSH2 0x243 JUMPI PUSH2 0x329 PUSH2 0x9A1 CALLDATASIZE PUSH1 0x4 PUSH2 0x96B JUMP JUMPDEST SWAP1 PUSH2 0x20D9 JUMP JUMPDEST CALLVALUE PUSH2 0x243 JUMPI PUSH2 0x329 PUSH2 0x9BA CALLDATASIZE PUSH1 0x4 PUSH2 0x346 JUMP JUMPDEST PUSH2 0x2145 JUMP JUMPDEST PUSH1 0x60 DUP2 DUP4 SUB SLT PUSH2 0x243 JUMPI PUSH2 0x9D3 DUP3 DUP3 PUSH2 0x248 JUMP JUMPDEST SWAP3 PUSH1 0x20 DUP3 ADD CALLDATALOAD PUSH1 0x1 PUSH1 0x1 PUSH1 0x40 SHL SUB DUP2 GT PUSH2 0x243 JUMPI DUP4 PUSH2 0x9F3 SWAP2 DUP5 ADD PUSH2 0x257 JUMP JUMPDEST SWAP3 SWAP1 SWAP4 PUSH1 0x40 DUP3 ADD CALLDATALOAD PUSH1 0x1 PUSH1 0x1 PUSH1 0x40 SHL SUB DUP2 GT PUSH2 0x243 JUMPI PUSH2 0x306 SWAP3 ADD PUSH2 0x257 JUMP JUMPDEST CALLVALUE PUSH2 0x243 JUMPI PUSH2 0x329 PUSH2 0xA26 CALLDATASIZE PUSH1 0x4 PUSH2 0x9BF JUMP JUMPDEST SWAP4 SWAP3 SWAP1 SWAP3 PUSH2 0x2203 JUMP JUMPDEST SWAP1 PUSH2 0xA3C PUSH2 0x621 DUP4 PUSH2 0x5E5 JUMP JUMPDEST SWAP2 DUP3 MSTORE JUMP JUMPDEST PUSH2 0xA4B PUSH1 0x5 PUSH2 0xA2F JUMP JUMPDEST PUSH5 0x352E302E3 PUSH1 0xDC SHL PUSH1 0x20 DUP3 ADD MSTORE SWAP1 JUMP JUMPDEST PUSH2 0x35A PUSH2 0xA41 JUMP JUMPDEST PUSH2 0x35A PUSH2 0xA5C JUMP JUMPDEST PUSH2 0x35A PUSH2 0xA64 JUMP JUMPDEST PUSH1 0x0 JUMPDEST DUP4 DUP2 LT PUSH2 0xA87 JUMPI POP POP PUSH1 0x0 SWAP2 ADD MSTORE JUMP JUMPDEST DUP2 DUP2 ADD MLOAD DUP4 DUP3 ADD MSTORE PUSH1 0x20 ADD PUSH2 0xA77 JUMP JUMPDEST PUSH2 0xAB8 PUSH2 0xAC1 PUSH1 0x20 SWAP4 PUSH2 0x601 SWAP4 PUSH2 0xAAC DUP2 MLOAD SWAP1 JUMP JUMPDEST DUP1 DUP4 MSTORE SWAP4 DUP5 SWAP3 PUSH1 0x20 ADD SWAP1 JUMP JUMPDEST SWAP6 DUP7 SWAP2 ADD PUSH2 0xA74 JUMP JUMPDEST PUSH1 0x1F ADD PUSH1 0x1F NOT AND SWAP1 JUMP JUMPDEST PUSH1 0x20 DUP1 DUP3 MSTORE PUSH2 0x35A SWAP3 SWAP2 ADD SWAP1 PUSH2 0xA97 JUMP JUMPDEST CALLVALUE PUSH2 0x243 JUMPI PUSH2 0xAEC CALLDATASIZE PUSH1 0x4 PUSH2 0x53C JUMP JUMPDEST PUSH2 0x32F PUSH2 0xAF7 PUSH2 0xA6C JUMP JUMPDEST PUSH1 0x40 MLOAD SWAP2 DUP3 SWAP2 DUP3 PUSH2 0xACB JUMP JUMPDEST SWAP2 SWAP1 SWAP2 PUSH1 0x80 DUP2 DUP5 SUB SLT PUSH2 0x243 JUMPI PUSH2 0xB1A DUP4 DUP3 PUSH2 0x4B9 JUMP JUMPDEST SWAP3 PUSH2 0xB28 DUP2 PUSH1 0x20 DUP5 ADD PUSH2 0x339 JUMP JUMPDEST SWAP3 PUSH1 0x40 DUP4 ADD CALLDATALOAD PUSH1 0x1 PUSH1 0x1 PUSH1 0x40 SHL SUB DUP2 GT PUSH2 0x243 JUMPI DUP3 PUSH2 0xB4E PUSH1 0x60 SWAP5 PUSH2 0x35A SWAP4 DUP8 ADD PUSH2 0x257 JUMP JUMPDEST SWAP5 SWAP1 SWAP6 ADD PUSH2 0x339 JUMP JUMPDEST CALLVALUE PUSH2 0x243 JUMPI PUSH2 0x32F PUSH2 0x3BB PUSH2 0xB6D CALLDATASIZE PUSH1 0x4 PUSH2 0xB03 JUMP JUMPDEST SWAP4 SWAP3 SWAP1 SWAP3 PUSH2 0x2467 JUMP JUMPDEST CALLVALUE PUSH2 0x243 JUMPI PUSH2 0x329 PUSH2 0xB89 CALLDATASIZE PUSH1 0x4 PUSH2 0x72E JUMP JUMPDEST SWAP1 PUSH2 0x253C JUMP JUMPDEST SWAP2 SWAP1 PUSH1 0x40 DUP4 DUP3 SUB SLT PUSH2 0x243 JUMPI PUSH2 0x35A SWAP1 PUSH1 0x20 PUSH2 0x987 DUP3 DUP7 PUSH2 0x248 JUMP JUMPDEST CALLVALUE PUSH2 0x243 JUMPI PUSH2 0x329 PUSH2 0xBBE CALLDATASIZE PUSH1 0x4 PUSH2 0xB8F JUMP JUMPDEST SWAP1 PUSH2 0x2639 JUMP JUMPDEST SWAP1 PUSH1 0x60 DUP3 DUP3 SUB SLT PUSH2 0x243 JUMPI PUSH2 0xBD9 DUP2 DUP4 PUSH2 0x339 JUMP JUMPDEST SWAP3 PUSH1 0x20 DUP4 ADD CALLDATALOAD PUSH1 0x1 PUSH1 0x1 PUSH1 0x40 SHL SUB DUP2 GT PUSH2 0x243 JUMPI DUP3 PUSH2 0xBFF PUSH1 0x40 SWAP5 PUSH2 0x35A SWAP4 DUP8 ADD PUSH2 0x257 JUMP JUMPDEST SWAP5 SWAP1 SWAP6 ADD PUSH2 0x4B9 JUMP JUMPDEST CALLVALUE PUSH2 0x243 JUMPI PUSH2 0x329 PUSH2 0xC1B CALLDATASIZE PUSH1 0x4 PUSH2 0xBC4 JUMP JUMPDEST SWAP3 SWAP2 SWAP1 SWAP2 PUSH2 0x27B3 JUMP JUMPDEST CALLVALUE PUSH2 0x243 JUMPI PUSH2 0x329 PUSH2 0xC37 CALLDATASIZE PUSH1 0x4 PUSH2 0x346 JUMP JUMPDEST PUSH2 0x27D6 JUMP JUMPDEST CALLVALUE PUSH2 0x243 JUMPI PUSH2 0x329 PUSH2 0xC4F CALLDATASIZE PUSH1 0x4 PUSH2 0xB03 JUMP JUMPDEST SWAP4 SWAP3 SWAP1 SWAP3 PUSH2 0x288D JUMP JUMPDEST PUSH2 0x35A PUSH2 0x35A PUSH2 0x35A SWAP3 SWAP1 JUMP JUMPDEST PUSH2 0x35A PUSH10 0x152D02C7E14AF6800000 PUSH2 0xC58 JUMP JUMPDEST PUSH2 0x35A PUSH2 0xC65 JUMP JUMPDEST CALLVALUE PUSH2 0x243 JUMPI PUSH2 0xC90 CALLDATASIZE PUSH1 0x4 PUSH2 0x53C JUMP JUMPDEST PUSH2 0x32F PUSH2 0x584 PUSH2 0xC78 JUMP JUMPDEST CALLVALUE PUSH2 0x243 JUMPI PUSH2 0x329 PUSH2 0xCAE CALLDATASIZE PUSH1 0x4 PUSH2 0xBC4 JUMP JUMPDEST SWAP3 SWAP2 SWAP1 SWAP2 PUSH2 0x2954 JUMP JUMPDEST PUSH2 0x35A PUSH3 0x15180 PUSH2 0xC58 JUMP JUMPDEST PUSH2 0x35A PUSH2 0xCB7 JUMP JUMPDEST CALLVALUE PUSH2 0x243 JUMPI PUSH2 0xCDB CALLDATASIZE PUSH1 0x4 PUSH2 0x53C JUMP JUMPDEST PUSH2 0x32F PUSH2 0x584 PUSH2 0xCC3 JUMP JUMPDEST CALLVALUE PUSH2 0x243 JUMPI PUSH2 0x329 PUSH2 0xCF9 CALLDATASIZE PUSH1 0x4 PUSH2 0x6A4 JUMP JUMPDEST PUSH2 0x29B2 JUMP JUMPDEST SWAP1 SWAP2 PUSH1 0x60 DUP3 DUP5 SUB SLT PUSH2 0x243 JUMPI PUSH2 0x35A PUSH2 0xD17 DUP5 DUP5 PUSH2 0x248 JUMP JUMPDEST SWAP4 PUSH1 0x40 PUSH2 0x987 DUP3 PUSH1 0x20 DUP8 ADD PUSH2 0x4B9 JUMP JUMPDEST CALLVALUE PUSH2 0x243 JUMPI PUSH2 0x329 PUSH2 0xD3A CALLDATASIZE PUSH1 0x4 PUSH2 0xCFE JUMP JUMPDEST SWAP2 PUSH2 0x2B74 JUMP JUMPDEST PUSH1 0x0 PUSH2 0xD50 PUSH2 0x35A SWAP3 PUSH1 0x2 PUSH2 0x3FA JUMP JUMPDEST PUSH2 0x788 JUMP JUMPDEST CALLVALUE PUSH2 0x243 JUMPI PUSH2 0x32F PUSH2 0x949 PUSH2 0xD6B CALLDATASIZE PUSH1 0x4 PUSH2 0x3CE JUMP JUMPDEST PUSH2 0xD40 JUMP JUMPDEST PUSH2 0x35A PUSH1 0x0 DUP1 PUSH2 0x788 JUMP JUMPDEST CALLVALUE PUSH2 0x243 JUMPI PUSH2 0xD8B CALLDATASIZE PUSH1 0x4 PUSH2 0x53C JUMP JUMPDEST PUSH2 0x32F PUSH2 0x7D3 PUSH2 0xD70 JUMP JUMPDEST ISZERO PUSH2 0xD9D JUMPI JUMP JUMPDEST PUSH1 0x40 MLOAD PUSH3 0x461BCD PUSH1 0xE5 SHL DUP2 MSTORE PUSH1 0x20 PUSH1 0x4 DUP3 ADD MSTORE PUSH1 0x17 PUSH1 0x24 DUP3 ADD MSTORE PUSH32 0x496E76616C696420656E64706F696E742063616C6C6572000000000000000000 PUSH1 0x44 DUP3 ADD MSTORE DUP1 PUSH1 0x64 DUP2 ADD JUMPDEST SUB SWAP1 REVERT JUMPDEST ISZERO PUSH2 0xDEE JUMPI JUMP JUMPDEST PUSH1 0x40 MLOAD PUSH3 0x461BCD PUSH1 0xE5 SHL DUP2 MSTORE PUSH1 0x20 PUSH1 0x4 DUP3 ADD MSTORE PUSH1 0x13 PUSH1 0x24 DUP3 ADD MSTORE PUSH19 0x10DA185A5B881B9BDD081CDD5C1C1BDC9D1959 PUSH1 0x6A SHL PUSH1 0x44 DUP3 ADD MSTORE PUSH1 0x64 SWAP1 REVERT JUMPDEST CALLDATALOAD PUSH12 0xFFFFFFFFFFFFFFFFFFFFFFFF NOT AND SWAP1 PUSH1 0x14 DUP2 LT PUSH2 0xE46 JUMPI POP SWAP1 JUMP JUMPDEST PUSH2 0xE63 SWAP1 PUSH12 0xFFFFFFFFFFFFFFFFFFFFFFFF NOT SWAP1 PUSH1 0x14 SUB PUSH1 0x8 MUL SHL SWAP1 JUMP JUMPDEST AND SWAP1 JUMP JUMPDEST PUSH2 0x35A SWAP1 PUSH1 0x60 SHR PUSH2 0x6B8 JUMP JUMPDEST PUSH2 0x35A SWAP1 PUSH2 0xE67 JUMP JUMPDEST ISZERO PUSH2 0xE83 JUMPI JUMP JUMPDEST PUSH1 0x40 MLOAD PUSH3 0x461BCD PUSH1 0xE5 SHL DUP2 MSTORE PUSH1 0x20 PUSH1 0x4 DUP3 ADD MSTORE PUSH1 0x15 PUSH1 0x24 DUP3 ADD MSTORE PUSH21 0x496E76616C696420736F7572636520627269646765 PUSH1 0x58 SHL PUSH1 0x44 DUP3 ADD MSTORE PUSH1 0x64 SWAP1 REVERT JUMPDEST PUSH2 0x409 PUSH2 0x35A PUSH2 0x35A SWAP3 SWAP1 JUMP JUMPDEST PUSH2 0x35A SWAP1 PUSH2 0xEC0 JUMP JUMPDEST ISZERO PUSH2 0xEDD JUMPI JUMP JUMPDEST PUSH1 0x40 MLOAD PUSH3 0x461BCD PUSH1 0xE5 SHL DUP2 MSTORE PUSH1 0x20 PUSH1 0x4 DUP3 ADD MSTORE PUSH1 0x11 PUSH1 0x24 DUP3 ADD MSTORE PUSH17 0x125B9D985B1A59081C9958DA5C1A595B9D PUSH1 0x7A SHL PUSH1 0x44 DUP3 ADD MSTORE PUSH1 0x64 SWAP1 REVERT JUMPDEST SWAP1 POP MLOAD SWAP1 PUSH2 0x255 DUP3 PUSH2 0x956 JUMP JUMPDEST SWAP1 PUSH1 0x20 DUP3 DUP3 SUB SLT PUSH2 0x243 JUMPI PUSH2 0x35A SWAP2 PUSH2 0xF16 JUMP JUMPDEST SWAP2 PUSH1 0x20 PUSH2 0x255 SWAP3 SWAP5 SWAP4 PUSH2 0xF52 PUSH1 0x40 DUP3 ADD SWAP7 PUSH1 0x0 DUP4 ADD SWAP1 PUSH2 0x456 JUMP JUMPDEST ADD MSTORE JUMP JUMPDEST PUSH1 0x40 MLOAD RETURNDATASIZE PUSH1 0x0 DUP3 RETURNDATACOPY RETURNDATASIZE SWAP1 REVERT JUMPDEST ISZERO PUSH2 0xF69 JUMPI JUMP JUMPDEST PUSH1 0x40 MLOAD PUSH3 0x461BCD PUSH1 0xE5 SHL DUP2 MSTORE PUSH1 0x20 PUSH1 0x4 DUP3 ADD MSTORE PUSH1 0xE PUSH1 0x24 DUP3 ADD MSTORE PUSH14 0x135A5B9D1A5B99C819985A5B1959 PUSH1 0x92 SHL PUSH1 0x44 DUP3 ADD MSTORE PUSH1 0x64 SWAP1 REVERT JUMPDEST PUSH2 0x39C SWAP1 PUSH2 0xFFFF AND PUSH1 0xF0 SHL SWAP1 JUMP JUMPDEST SWAP1 PUSH2 0x601 PUSH2 0xFC9 PUSH1 0x2 SWAP4 PUSH6 0x636861696E2D PUSH1 0xD0 SHL DUP2 MSTORE PUSH1 0x6 ADD SWAP1 JUMP JUMPDEST DUP1 SWAP3 PUSH2 0xF9F JUMP JUMPDEST PUSH2 0x35A PUSH2 0x35A PUSH2 0x35A SWAP3 PUSH1 0x1 PUSH1 0x1 PUSH1 0x40 SHL SUB AND SWAP1 JUMP JUMPDEST SWAP1 DUP2 MSTORE SWAP3 SWAP2 PUSH2 0x255 SWAP2 PUSH1 0x40 SWAP1 PUSH2 0x1008 SWAP1 PUSH1 0x60 DUP8 ADD SWAP1 DUP8 DUP3 SUB PUSH1 0x20 DUP10 ADD MSTORE PUSH2 0xA97 JUMP JUMPDEST SWAP5 ADD MSTORE JUMP JUMPDEST SWAP1 SWAP2 PUSH2 0x601 SWAP1 DUP4 SWAP1 DUP1 SWAP4 PUSH2 0x605 JUMP JUMPDEST PUSH2 0x39C SWAP1 PUSH1 0x1 PUSH1 0x1 PUSH1 0x40 SHL SUB AND PUSH1 0xC0 SHL SWAP1 JUMP JUMPDEST PUSH2 0x103B PUSH2 0x39C SWAP2 PUSH2 0x409 JUMP JUMPDEST PUSH1 0x60 SHL SWAP1 JUMP JUMPDEST PUSH2 0x601 SWAP5 PUSH2 0x1073 PUSH2 0x106C PUSH1 0x20 SWAP10 SWAP9 SWAP6 PUSH1 0x14 SWAP8 PUSH1 0x2 DUP7 PUSH2 0x1065 PUSH1 0x8 SWAP9 PUSH2 0x107B SWAP11 PUSH2 0xF9F JUMP JUMPDEST ADD SWAP2 PUSH2 0x100D JUMP JUMPDEST DUP1 SWAP3 PUSH2 0x101C JUMP JUMPDEST ADD DUP1 SWAP3 PUSH2 0x102F JUMP JUMPDEST ADD SWAP2 DUP3 MSTORE JUMP JUMPDEST PUSH2 0x35A PUSH1 0x80 PUSH2 0x5D1 JUMP JUMPDEST SWAP1 PUSH2 0x39C SWAP1 PUSH2 0x409 JUMP JUMPDEST PUSH2 0x35A SWAP1 MLOAD PUSH2 0x409 JUMP JUMPDEST SWAP1 PUSH1 0x1 PUSH1 0x1 PUSH1 0xA0 SHL SUB SWAP1 JUMPDEST SWAP2 DUP2 NOT AND SWAP2 AND OR SWAP1 JUMP JUMPDEST SWAP1 PUSH2 0x10C4 PUSH2 0x35A PUSH2 0x10CB SWAP3 PUSH2 0x6D5 JUMP JUMPDEST DUP3 SLOAD PUSH2 0x109F JUMP JUMPDEST SWAP1 SSTORE JUMP JUMPDEST SWAP1 PUSH1 0x0 NOT SWAP1 PUSH2 0x10AA JUMP JUMPDEST SWAP1 PUSH2 0x10E9 PUSH2 0x35A PUSH2 0x10CB SWAP3 PUSH2 0xC58 JUMP JUMPDEST DUP3 SLOAD PUSH2 0x10CF JUMP JUMPDEST SWAP1 PUSH1 0xFF SWAP1 PUSH2 0x10AA JUMP JUMPDEST SWAP1 PUSH2 0x1109 PUSH2 0x35A PUSH2 0x10CB SWAP3 ISZERO ISZERO SWAP1 JUMP JUMPDEST DUP3 SLOAD PUSH2 0x10F0 JUMP JUMPDEST PUSH1 0x3 PUSH2 0x1165 PUSH1 0x60 PUSH2 0x255 SWAP5 PUSH2 0x1130 PUSH2 0x112A PUSH1 0x0 DUP4 ADD PUSH2 0x1095 JUMP JUMPDEST DUP7 PUSH2 0x10B4 JUMP JUMPDEST PUSH2 0x1147 PUSH2 0x113E PUSH1 0x20 DUP4 ADD MLOAD SWAP1 JUMP JUMPDEST PUSH1 0x1 DUP8 ADD PUSH2 0x10D9 JUMP JUMPDEST PUSH2 0x115E PUSH2 0x1155 PUSH1 0x40 DUP4 ADD MLOAD SWAP1 JUMP JUMPDEST PUSH1 0x2 DUP8 ADD PUSH2 0x10D9 JUMP JUMPDEST ADD MLOAD ISZERO ISZERO SWAP1 JUMP JUMPDEST SWAP2 ADD PUSH2 0x10F9 JUMP JUMPDEST SWAP1 PUSH2 0x255 SWAP2 PUSH2 0x1110 JUMP JUMPDEST SWAP4 PUSH2 0x120E SWAP1 PUSH2 0x1215 SWAP7 PUSH2 0x11AB PUSH2 0x119C PUSH2 0x1197 PUSH2 0x1192 PUSH1 0x3 PUSH2 0x415 JUMP JUMPDEST PUSH2 0x6D5 JUMP JUMPDEST PUSH2 0x409 JUMP JUMPDEST PUSH2 0x11A5 CALLER PUSH2 0x409 JUMP JUMPDEST EQ PUSH2 0xD96 JUMP JUMPDEST PUSH2 0x11C9 PUSH2 0x11C4 PUSH1 0x0 PUSH2 0x11BE DUP11 PUSH1 0x5 PUSH2 0x3FA JUMP JUMPDEST ADD PUSH2 0x42B JUMP JUMPDEST PUSH2 0xDE7 JUMP JUMPDEST PUSH2 0x1206 PUSH2 0x11DE PUSH2 0x11D9 DUP8 DUP8 PUSH2 0xE29 JUMP JUMPDEST PUSH2 0xE73 JUMP JUMPDEST PUSH2 0x1200 PUSH2 0x11FA PUSH2 0x1197 PUSH1 0x0 PUSH2 0x11F4 DUP14 PUSH1 0x5 PUSH2 0x3FA JUMP JUMPDEST ADD PUSH2 0x415 JUMP JUMPDEST SWAP2 PUSH2 0x409 JUMP JUMPDEST EQ PUSH2 0xE7C JUMP JUMPDEST DUP2 ADD SWAP1 PUSH2 0x72E JUMP JUMPDEST SWAP6 SWAP1 PUSH2 0x6D5 JUMP JUMPDEST SWAP4 PUSH1 0x0 SWAP4 PUSH2 0x1238 PUSH2 0x1228 PUSH2 0x1197 DUP8 PUSH2 0xECD JUMP JUMPDEST PUSH2 0x1231 DUP9 PUSH2 0x409 JUMP JUMPDEST EQ ISZERO PUSH2 0xED6 JUMP JUMPDEST PUSH2 0x1243 PUSH2 0x35A PUSH2 0xC65 JUMP JUMPDEST DUP8 GT ISZERO PUSH2 0x1317 JUMPI SWAP4 PUSH2 0x35A PUSH2 0x1312 SWAP5 PUSH2 0x12A7 PUSH2 0x1308 SWAP6 PUSH2 0x1302 SWAP6 PUSH2 0x129B DUP13 DUP13 PUSH32 0xF5949F687937BD6768DB11A421FEB8C55DEED44C9BC8E6E25EFE684D2968300C SWAP13 PUSH2 0x128D PUSH1 0x40 MLOAD SWAP1 JUMP JUMPDEST SWAP8 DUP9 SWAP7 PUSH1 0x20 DUP9 ADD SWAP7 DUP8 PUSH2 0x1041 JUMP JUMPDEST SWAP1 DUP2 SUB DUP3 MSTORE SUB DUP3 PUSH2 0x5AB JUMP JUMPDEST PUSH2 0x12B9 PUSH2 0x12B2 DUP3 MLOAD SWAP1 JUMP JUMPDEST SWAP2 PUSH1 0x20 ADD SWAP1 JUMP JUMPDEST KECCAK256 SWAP2 PUSH2 0x12F2 PUSH2 0x12C6 PUSH2 0x1081 JUMP JUMPDEST SWAP2 PUSH2 0x12D3 DUP11 DUP3 DUP6 ADD PUSH2 0x108B JUMP JUMPDEST PUSH2 0x12DE DUP12 PUSH1 0x20 DUP6 ADD MSTORE JUMP JUMPDEST PUSH2 0x12E9 TIMESTAMP PUSH1 0x40 DUP6 ADD MSTORE JUMP JUMPDEST ISZERO ISZERO PUSH1 0x60 DUP4 ADD MSTORE JUMP JUMPDEST PUSH2 0x12FD DUP4 PUSH1 0x4 PUSH2 0x35D JUMP JUMPDEST PUSH2 0x116C JUMP JUMPDEST SWAP4 PUSH2 0x6D5 JUMP JUMPDEST SWAP4 PUSH2 0x588 PUSH1 0x40 MLOAD SWAP1 JUMP JUMPDEST SUB SWAP1 LOG3 JUMP JUMPDEST SWAP4 SWAP2 POP SWAP4 SWAP5 SWAP2 POP PUSH1 0x20 PUSH2 0x132C PUSH2 0x1192 DUP4 PUSH2 0x415 JUMP JUMPDEST SWAP2 PUSH2 0x1336 PUSH1 0x40 MLOAD SWAP1 JUMP JUMPDEST SWAP3 DUP4 SWAP2 DUP3 SWAP1 PUSH4 0x8934A5F PUSH1 0xE3 SHL DUP3 MSTORE DUP2 PUSH2 0x1354 DUP9 DUP13 PUSH1 0x4 DUP5 ADD PUSH2 0xF37 JUMP JUMPDEST SUB SWAP3 GAS CALL DUP1 ISZERO PUSH2 0x1404 JUMPI PUSH2 0x13B7 PUSH2 0x13B2 PUSH2 0x13AC PUSH1 0x0 DUP1 MLOAD PUSH1 0x20 PUSH2 0x3264 DUP4 CODECOPY DUP2 MLOAD SWAP2 MSTORE SWAP8 PUSH2 0x1390 PUSH2 0x13BD SWAP6 PUSH2 0x13D0 SWAP8 PUSH1 0x0 SWAP2 PUSH2 0x13D5 JUMPI JUMPDEST POP PUSH2 0xF62 JUMP JUMPDEST PUSH2 0x35A PUSH2 0x139C PUSH1 0x40 MLOAD SWAP1 JUMP JUMPDEST DUP1 SWAP3 PUSH2 0x129B PUSH1 0x20 DUP4 ADD SWAP2 DUP3 PUSH2 0xFAD JUMP JUMPDEST SWAP6 PUSH2 0xFD0 JUMP JUMPDEST PUSH2 0xC58 JUMP JUMPDEST SWAP6 PUSH2 0x6D5 JUMP JUMPDEST SWAP5 PUSH2 0x13C7 PUSH1 0x40 MLOAD SWAP1 JUMP JUMPDEST SWAP4 DUP5 SWAP4 DUP5 PUSH2 0xFE6 JUMP JUMPDEST SUB SWAP1 LOG2 JUMP JUMPDEST PUSH2 0x13F7 SWAP2 POP PUSH1 0x20 RETURNDATASIZE PUSH1 0x20 GT PUSH2 0x13FD JUMPI JUMPDEST PUSH2 0x13EF DUP2 DUP4 PUSH2 0x5AB JUMP JUMPDEST DUP2 ADD SWAP1 PUSH2 0xF23 JUMP JUMPDEST CODESIZE PUSH2 0x138A JUMP JUMPDEST POP RETURNDATASIZE PUSH2 0x13E5 JUMP JUMPDEST PUSH2 0xF56 JUMP JUMPDEST PUSH2 0x35A SWAP1 PUSH1 0x40 SHR PUSH2 0x376 JUMP JUMPDEST PUSH2 0x35A SWAP1 SLOAD PUSH2 0x1409 JUMP JUMPDEST PUSH2 0x35A SWAP1 JUMPDEST PUSH1 0x1 PUSH1 0x1 PUSH1 0x40 SHL SUB AND SWAP1 JUMP JUMPDEST PUSH2 0x35A SWAP1 SLOAD PUSH2 0x141F JUMP JUMPDEST PUSH2 0x1424 PUSH2 0x35A PUSH2 0x35A SWAP3 SWAP1 JUMP JUMPDEST SWAP1 PUSH1 0x1 PUSH1 0x1 PUSH1 0x40 SHL SUB SWAP1 PUSH2 0x10AA JUMP JUMPDEST PUSH2 0x1424 PUSH2 0x35A PUSH2 0x35A SWAP3 PUSH1 0x1 PUSH1 0x1 PUSH1 0x40 SHL SUB AND SWAP1 JUMP JUMPDEST SWAP1 PUSH2 0x147C PUSH2 0x35A PUSH2 0x10CB SWAP3 PUSH2 0x1456 JUMP JUMPDEST DUP3 SLOAD PUSH2 0x1447 JUMP JUMPDEST SWAP1 PUSH9 0xFF0000000000000000 SWAP1 PUSH1 0x40 SHL PUSH2 0x10AA JUMP JUMPDEST SWAP1 PUSH2 0x14A7 PUSH2 0x35A PUSH2 0x10CB SWAP3 ISZERO ISZERO SWAP1 JUMP JUMPDEST DUP3 SLOAD PUSH2 0x1483 JUMP JUMPDEST PUSH2 0x39C SWAP1 PUSH2 0x143A JUMP JUMPDEST PUSH1 0x20 DUP2 ADD SWAP3 SWAP2 PUSH2 0x255 SWAP2 SWAP1 PUSH2 0x14AE JUMP JUMPDEST SWAP1 PUSH2 0x14D0 PUSH2 0x2B7F JUMP JUMPDEST SWAP3 DUP4 SWAP1 PUSH2 0x14EC PUSH2 0x14E6 PUSH2 0x14E2 DUP5 PUSH2 0x1415 JUMP JUMPDEST ISZERO SWAP1 JUMP JUMPDEST SWAP3 PUSH2 0x1430 JUMP JUMPDEST SWAP3 PUSH1 0x0 SWAP5 PUSH2 0x14F9 DUP7 PUSH2 0x143A JUMP JUMPDEST PUSH1 0x1 PUSH1 0x1 PUSH1 0x40 SHL SUB DUP7 AND EQ DUP1 PUSH2 0x15F9 JUMPI JUMPDEST PUSH1 0x1 SWAP6 PUSH2 0x1526 PUSH2 0x1519 DUP9 PUSH2 0x143A JUMP JUMPDEST SWAP2 PUSH1 0x1 PUSH1 0x1 PUSH1 0x40 SHL SUB AND SWAP1 JUMP JUMPDEST EQ SWAP1 DUP2 PUSH2 0x15D1 JUMPI JUMPDEST ISZERO JUMPDEST SWAP1 DUP2 PUSH2 0x15C8 JUMPI JUMPDEST POP PUSH2 0x15B9 JUMPI SWAP1 PUSH2 0x1562 SWAP3 SWAP2 DUP5 PUSH2 0x1559 DUP9 PUSH2 0x1550 DUP10 PUSH2 0x143A JUMP JUMPDEST SWAP11 ADD SWAP10 DUP11 PUSH2 0x146C JUMP JUMPDEST PUSH2 0x15AA JUMPI PUSH2 0x16F9 JUMP JUMPDEST PUSH2 0x156B JUMPI POP POP POP JUMP JUMPDEST PUSH2 0x1599 PUSH2 0x15A5 SWAP3 PUSH32 0xC7F505B2F371AE2175EE4913F4499E1F2633A7B5936321EED1CDAEB6115181D2 SWAP5 PUSH2 0x1497 JUMP JUMPDEST PUSH1 0x40 MLOAD SWAP2 DUP3 SWAP2 DUP3 PUSH2 0x14B7 JUMP JUMPDEST SUB SWAP1 LOG1 JUMP JUMPDEST PUSH2 0x15B4 DUP7 DUP10 PUSH2 0x1497 JUMP JUMPDEST PUSH2 0x16F9 JUMP JUMPDEST PUSH4 0xF92EE8A9 PUSH1 0xE0 SHL DUP7 MSTORE PUSH1 0x4 DUP7 REVERT JUMPDEST ISZERO SWAP1 POP CODESIZE PUSH2 0x1537 JUMP JUMPDEST SWAP1 POP PUSH2 0x1530 PUSH2 0x15DF ADDRESS PUSH2 0x6D5 JUMP JUMPDEST EXTCODESIZE PUSH2 0x15F0 PUSH2 0x15EC DUP11 PUSH2 0xC58 JUMP JUMPDEST SWAP2 SWAP1 JUMP JUMPDEST EQ SWAP2 SWAP1 POP PUSH2 0x152E JUMP JUMPDEST POP DUP4 PUSH2 0x150A JUMP JUMPDEST ISZERO PUSH2 0x1607 JUMPI JUMP JUMPDEST PUSH1 0x40 MLOAD PUSH3 0x461BCD PUSH1 0xE5 SHL DUP2 MSTORE PUSH1 0x20 PUSH1 0x4 DUP3 ADD MSTORE PUSH1 0x15 PUSH1 0x24 DUP3 ADD MSTORE PUSH21 0x496E76616C696420746F6B656E2061646472657373 PUSH1 0x58 SHL PUSH1 0x44 DUP3 ADD MSTORE PUSH1 0x64 SWAP1 REVERT JUMPDEST ISZERO PUSH2 0x164B JUMPI JUMP JUMPDEST PUSH1 0x40 MLOAD PUSH3 0x461BCD PUSH1 0xE5 SHL DUP2 MSTORE PUSH1 0x20 PUSH1 0x4 DUP3 ADD MSTORE PUSH1 0x18 PUSH1 0x24 DUP3 ADD MSTORE PUSH32 0x496E76616C696420656E64706F696E7420616464726573730000000000000000 PUSH1 0x44 DUP3 ADD MSTORE PUSH1 0x64 SWAP1 REVERT JUMPDEST ISZERO PUSH2 0x1697 JUMPI JUMP JUMPDEST PUSH1 0x40 MLOAD PUSH3 0x461BCD PUSH1 0xE5 SHL DUP2 MSTORE PUSH1 0x20 PUSH1 0x4 DUP3 ADD MSTORE PUSH1 0x15 PUSH1 0x24 DUP3 ADD MSTORE PUSH21 0x496E76616C6964206D696E206761732076616C7565 PUSH1 0x58 SHL PUSH1 0x44 DUP3 ADD MSTORE PUSH1 0x64 SWAP1 REVERT JUMPDEST SWAP2 PUSH1 0x20 PUSH2 0x255 SWAP3 SWAP5 SWAP4 PUSH2 0x16EF PUSH1 0x40 DUP3 ADD SWAP7 PUSH1 0x0 DUP4 ADD SWAP1 PUSH2 0x456 JUMP JUMPDEST ADD SWAP1 PUSH2 0xFFFF AND SWAP1 MSTORE JUMP JUMPDEST SWAP1 PUSH32 0x9791FB750D6C4D3651A42030E2DDCF3CDABFE8B1A4544B5B4D615111CA343C16 SWAP3 PUSH2 0x17A1 PUSH2 0x179A PUSH2 0x17A8 SWAP4 PUSH2 0x172F CALLER PUSH2 0x2B9C JUMP JUMPDEST PUSH2 0x1737 PUSH2 0x2BB8 JUMP JUMPDEST PUSH2 0x1773 PUSH2 0x1763 PUSH2 0x1747 PUSH1 0x0 PUSH2 0xECD JUMP JUMPDEST PUSH2 0x1197 PUSH2 0x1753 DUP3 PUSH2 0x409 JUMP JUMPDEST PUSH2 0x175C DUP12 PUSH2 0x409 JUMP JUMPDEST EQ ISZERO PUSH2 0x1600 JUMP JUMPDEST PUSH2 0x176C DUP4 PUSH2 0x409 JUMP JUMPDEST EQ ISZERO PUSH2 0x1644 JUMP JUMPDEST PUSH2 0x1787 PUSH2 0x1780 PUSH1 0x0 PUSH2 0xC58 JUMP JUMPDEST DUP6 GT PUSH2 0x1690 JUMP JUMPDEST PUSH2 0x1192 PUSH2 0x1793 DUP8 PUSH2 0x6D5 JUMP JUMPDEST PUSH1 0x0 PUSH2 0x10B4 JUMP JUMPDEST PUSH1 0x3 PUSH2 0x10B4 JUMP JUMPDEST PUSH1 0x6 PUSH2 0x10D9 JUMP JUMPDEST PUSH2 0x17B0 PUSH2 0x804 JUMP JUMPDEST SWAP1 PUSH2 0x15A5 PUSH2 0x17BD PUSH1 0x40 MLOAD SWAP1 JUMP JUMPDEST SWAP3 DUP4 SWAP3 DUP4 PUSH2 0x16D4 JUMP JUMPDEST SWAP1 PUSH2 0x255 SWAP3 SWAP2 PUSH2 0x14C7 JUMP JUMPDEST SWAP1 PUSH2 0x17E4 SWAP3 SWAP2 PUSH2 0x17DF PUSH2 0x2BCA JUMP JUMPDEST PUSH2 0x182D JUMP JUMPDEST PUSH2 0x255 PUSH2 0x2C2B JUMP JUMPDEST ISZERO PUSH2 0x17F3 JUMPI JUMP JUMPDEST PUSH1 0x40 MLOAD PUSH3 0x461BCD PUSH1 0xE5 SHL DUP2 MSTORE PUSH1 0x20 PUSH1 0x4 DUP3 ADD MSTORE PUSH1 0x12 PUSH1 0x24 DUP3 ADD MSTORE PUSH18 0x1059191C995CDCC81A5CC8189B1BD8DAD959 PUSH1 0x72 SHL PUSH1 0x44 DUP3 ADD MSTORE PUSH1 0x64 SWAP1 REVERT JUMPDEST SWAP1 PUSH2 0x255 SWAP3 SWAP2 PUSH2 0x1851 PUSH2 0x184C PUSH2 0x14E2 PUSH2 0x1847 CALLER PUSH1 0x7 PUSH2 0x6DE JUMP JUMPDEST PUSH2 0x878 JUMP JUMPDEST PUSH2 0x17EC JUMP JUMPDEST SWAP1 PUSH2 0x255 SWAP3 SWAP2 PUSH2 0x186B PUSH2 0x184C PUSH2 0x14E2 PUSH2 0x1847 DUP6 PUSH1 0x7 PUSH2 0x6DE JUMP JUMPDEST PUSH2 0x1A00 JUMP JUMPDEST ISZERO PUSH2 0x1877 JUMPI JUMP JUMPDEST PUSH1 0x40 MLOAD PUSH3 0x461BCD PUSH1 0xE5 SHL DUP2 MSTORE PUSH1 0x20 PUSH1 0x4 DUP3 ADD MSTORE PUSH1 0x1D PUSH1 0x24 DUP3 ADD MSTORE PUSH32 0x416D6F756E74206D7573742062652067726561746572207468616E2030000000 PUSH1 0x44 DUP3 ADD MSTORE PUSH1 0x64 SWAP1 REVERT JUMPDEST ISZERO PUSH2 0x18C3 JUMPI JUMP JUMPDEST PUSH1 0x40 MLOAD PUSH3 0x461BCD PUSH1 0xE5 SHL DUP2 MSTORE PUSH1 0x20 PUSH1 0x4 DUP3 ADD MSTORE PUSH1 0x18 PUSH1 0x24 DUP3 ADD MSTORE PUSH32 0x436861696E206272696467652069732064697361626C65640000000000000000 PUSH1 0x44 DUP3 ADD MSTORE PUSH1 0x64 SWAP1 REVERT JUMPDEST ISZERO PUSH2 0x190F JUMPI JUMP JUMPDEST PUSH1 0x40 MLOAD PUSH3 0x461BCD PUSH1 0xE5 SHL DUP2 MSTORE PUSH1 0x20 PUSH1 0x4 DUP3 ADD MSTORE PUSH1 0x19 PUSH1 0x24 DUP3 ADD MSTORE PUSH32 0x496E73756666696369656E74206761732070726F766964656400000000000000 PUSH1 0x44 DUP3 ADD MSTORE PUSH1 0x64 SWAP1 REVERT JUMPDEST PUSH2 0xFFFF SWAP1 SWAP2 AND DUP2 MSTORE PUSH1 0x60 DUP2 ADD SWAP4 SWAP3 PUSH2 0x255 SWAP3 SWAP1 SWAP2 PUSH1 0x40 SWAP2 PUSH2 0xF52 SWAP1 JUMPDEST PUSH1 0x20 DUP4 ADD SWAP1 PUSH2 0x456 JUMP JUMPDEST PUSH2 0x601 DUP2 PUSH1 0x14 SWAP4 PUSH2 0x102F JUMP JUMPDEST PUSH2 0x35A PUSH1 0x0 PUSH2 0xA2F JUMP JUMPDEST PUSH2 0x35A PUSH2 0x1986 JUMP JUMPDEST SWAP3 PUSH2 0x19DE PUSH2 0x19E9 SWAP2 PUSH2 0x19D0 PUSH2 0x35A SWAP10 SWAP8 SWAP9 SWAP5 PUSH2 0x19F3 SWAP7 PUSH2 0x19C3 PUSH1 0xC0 DUP11 ADD SWAP3 PUSH1 0x0 DUP12 ADD SWAP1 PUSH2 0xFFFF AND SWAP1 MSTORE JUMP JUMPDEST DUP9 DUP3 SUB PUSH1 0x20 DUP11 ADD MSTORE PUSH2 0xA97 JUMP JUMPDEST SWAP1 DUP7 DUP3 SUB PUSH1 0x40 DUP9 ADD MSTORE PUSH2 0xA97 JUMP JUMPDEST SWAP6 PUSH1 0x60 DUP6 ADD SWAP1 PUSH2 0x456 JUMP JUMPDEST PUSH1 0x80 DUP4 ADD SWAP1 PUSH2 0x456 JUMP JUMPDEST PUSH1 0xA0 DUP2 DUP5 SUB SWAP2 ADD MSTORE PUSH2 0xA97 JUMP JUMPDEST SWAP2 SWAP1 PUSH1 0x0 SWAP3 PUSH2 0x1A19 PUSH2 0x1A11 DUP6 PUSH2 0xC58 JUMP JUMPDEST DUP5 JUMPDEST GT PUSH2 0x1870 JUMP JUMPDEST PUSH1 0x5 SWAP3 PUSH2 0x1A2A DUP6 PUSH2 0x11F4 DUP5 DUP8 PUSH2 0x3FA JUMP JUMPDEST SWAP3 PUSH2 0x1A4B PUSH2 0x1A37 DUP8 PUSH2 0xECD JUMP JUMPDEST SWAP5 PUSH2 0x1A44 PUSH2 0x11FA DUP8 PUSH2 0x409 JUMP JUMPDEST EQ ISZERO PUSH2 0xDE7 JUMP JUMPDEST PUSH2 0x1A61 PUSH2 0x1A5C DUP8 PUSH2 0x11BE DUP7 DUP10 PUSH2 0x3FA JUMP JUMPDEST PUSH2 0x18BC JUMP JUMPDEST PUSH2 0x1A79 PUSH2 0x1A71 PUSH2 0x35A PUSH1 0x6 PUSH2 0x865 JUMP JUMPDEST CALLVALUE LT ISZERO PUSH2 0x1908 JUMP JUMPDEST PUSH2 0x1A85 PUSH2 0x1192 DUP8 PUSH2 0x415 JUMP JUMPDEST SWAP2 DUP3 EXTCODESIZE ISZERO PUSH2 0x243 JUMPI DUP7 PUSH2 0x1A97 PUSH1 0x40 MLOAD SWAP1 JUMP JUMPDEST SWAP4 DUP5 SWAP1 PUSH4 0x79CC679 PUSH1 0xE4 SHL DUP3 MSTORE DUP2 DUP4 DUP2 PUSH2 0x1AB5 DUP8 CALLER PUSH1 0x4 DUP5 ADD PUSH2 0xF37 JUMP JUMPDEST SUB SWAP3 GAS CALL SWAP2 DUP3 ISZERO PUSH2 0x1404 JUMPI PUSH2 0x129B SWAP4 PUSH2 0x1B22 SWAP4 PUSH2 0x1BEA JUMPI JUMPDEST POP PUSH2 0x1AD7 CALLER PUSH2 0x6D5 JUMP JUMPDEST PUSH32 0xC16A36DCB251F4C00971094FBEFFDB9EEE9C1F58125DE0F87A424BBACD3F87CA PUSH2 0x1B01 PUSH1 0x40 MLOAD SWAP1 JUMP JUMPDEST DUP1 PUSH2 0x1B0E DUP7 DUP7 DUP12 DUP5 PUSH2 0x1954 JUMP JUMPDEST SUB SWAP1 LOG2 PUSH1 0x40 MLOAD SWAP4 DUP5 SWAP3 PUSH1 0x20 DUP5 ADD SWAP3 DUP4 PUSH2 0xF37 JUMP JUMPDEST PUSH2 0x1B2F PUSH2 0x1192 PUSH1 0x3 PUSH2 0x415 JUMP JUMPDEST SWAP1 PUSH2 0x1B43 DUP7 PUSH2 0x11F4 DUP6 PUSH4 0xC5803100 SWAP9 PUSH2 0x3FA JUMP JUMPDEST SWAP5 PUSH2 0x1B6C PUSH2 0x1B50 PUSH1 0x40 MLOAD SWAP1 JUMP JUMPDEST DUP1 SWAP8 PUSH2 0x1B60 PUSH1 0x20 DUP4 ADD SWAP2 DUP3 PUSH2 0x197A JUMP JUMPDEST SWAP1 DUP2 SUB DUP3 MSTORE SUB DUP8 PUSH2 0x5AB JUMP JUMPDEST PUSH2 0x1B75 CALLER PUSH2 0x6D5 JUMP JUMPDEST SWAP2 PUSH2 0x1B7E PUSH2 0x1990 JUMP JUMPDEST DUP5 EXTCODESIZE ISZERO PUSH2 0x243 JUMPI DUP9 SWAP7 PUSH2 0x1BA5 SWAP5 PUSH2 0x1BB0 SWAP4 PUSH2 0x1B98 PUSH1 0x40 MLOAD SWAP1 JUMP JUMPDEST SWAP11 DUP12 SWAP10 DUP11 SWAP9 DUP10 SWAP9 PUSH1 0xE0 SHL SWAP1 JUMP JUMPDEST DUP9 MSTORE PUSH1 0x4 DUP9 ADD PUSH2 0x1998 JUMP JUMPDEST SUB SWAP2 CALLVALUE SWAP1 GAS CALL DUP1 ISZERO PUSH2 0x1404 JUMPI PUSH2 0x1BC4 JUMPI POP POP JUMP JUMPDEST DUP2 PUSH2 0x255 SWAP3 SWAP1 RETURNDATASIZE LT PUSH2 0x1BE3 JUMPI JUMPDEST PUSH2 0x1BDB DUP2 DUP4 PUSH2 0x5AB JUMP JUMPDEST DUP2 ADD SWAP1 PUSH2 0x53C JUMP JUMPDEST POP RETURNDATASIZE PUSH2 0x1BD1 JUMP JUMPDEST PUSH2 0x1C00 SWAP1 DUP10 RETURNDATASIZE DUP12 GT PUSH2 0x1BE3 JUMPI PUSH2 0x1BDB DUP2 DUP4 PUSH2 0x5AB JUMP JUMPDEST CODESIZE PUSH2 0x1ACD JUMP JUMPDEST SWAP1 PUSH2 0x255 SWAP3 SWAP2 PUSH2 0x17D1 JUMP JUMPDEST SWAP1 PUSH2 0x255 SWAP2 PUSH2 0x1C1E PUSH2 0x2C60 JUMP JUMPDEST SWAP1 PUSH2 0x255 SWAP2 PUSH2 0x1C2C DUP2 PUSH2 0x2CE0 JUMP JUMPDEST PUSH2 0x2D0A JUMP JUMPDEST SWAP1 PUSH2 0x255 SWAP2 PUSH2 0x1C11 JUMP JUMPDEST PUSH2 0x35A SWAP1 PUSH2 0x1C47 PUSH2 0x2DD0 JUMP JUMPDEST PUSH2 0x1C75 JUMP JUMPDEST PUSH2 0x35A PUSH32 0x360894A13BA1A3210667C828492DB98DCA3E2076CC3735A920A3CA505D382BBC PUSH2 0xC58 JUMP JUMPDEST POP PUSH2 0x35A PUSH2 0x1C4C JUMP JUMPDEST PUSH2 0x35A PUSH1 0x0 PUSH2 0x1C3B JUMP JUMPDEST SWAP1 PUSH2 0x255 SWAP2 PUSH2 0x1C95 PUSH2 0x2E0C JUMP JUMPDEST PUSH2 0x1CE6 JUMP JUMPDEST ISZERO PUSH2 0x1CA1 JUMPI JUMP JUMPDEST PUSH1 0x40 MLOAD PUSH3 0x461BCD PUSH1 0xE5 SHL DUP2 MSTORE PUSH1 0x20 PUSH1 0x4 DUP3 ADD MSTORE PUSH1 0x1A PUSH1 0x24 DUP3 ADD MSTORE PUSH32 0x43616E6E6F74207265736375652062726964676520746F6B656E000000000000 PUSH1 0x44 DUP3 ADD MSTORE PUSH1 0x64 SWAP1 REVERT JUMPDEST PUSH2 0x1D48 SWAP2 PUSH2 0x1D16 PUSH2 0x1192 PUSH1 0x20 SWAP4 PUSH2 0x1192 PUSH2 0x1D06 PUSH2 0x1197 PUSH2 0x1192 PUSH1 0x0 PUSH2 0x415 JUMP JUMPDEST PUSH2 0x1D0F DUP4 PUSH2 0x409 JUMP JUMPDEST EQ ISZERO PUSH2 0x1C9A JUMP JUMPDEST PUSH2 0x1D1E PUSH2 0x2092 JUMP JUMPDEST PUSH1 0x0 PUSH2 0x1D29 PUSH1 0x40 MLOAD SWAP1 JUMP JUMPDEST DUP1 SWAP7 DUP2 SWAP6 DUP3 SWAP5 PUSH2 0x1D3D PUSH4 0xA9059CBB PUSH1 0xE0 SHL SWAP1 JUMP JUMPDEST DUP5 MSTORE PUSH1 0x4 DUP5 ADD PUSH2 0xF37 JUMP JUMPDEST SUB SWAP3 GAS CALL DUP1 ISZERO PUSH2 0x1404 JUMPI PUSH2 0x1D59 JUMPI POP JUMP JUMPDEST PUSH2 0x1D71 SWAP1 PUSH1 0x20 RETURNDATASIZE PUSH1 0x20 GT PUSH2 0x13FD JUMPI PUSH2 0x13EF DUP2 DUP4 PUSH2 0x5AB JUMP JUMPDEST POP JUMP JUMPDEST SWAP1 PUSH2 0x255 SWAP2 PUSH2 0x1C88 JUMP JUMPDEST PUSH2 0x255 SWAP1 PUSH2 0x1D8A PUSH2 0x2E0C JUMP JUMPDEST PUSH2 0x17E4 SWAP1 PUSH2 0x1D96 PUSH2 0x2BCA JUMP JUMPDEST PUSH2 0x1ED8 JUMP JUMPDEST ISZERO PUSH2 0x1DA2 JUMPI JUMP JUMPDEST PUSH1 0x40 MLOAD PUSH3 0x461BCD PUSH1 0xE5 SHL DUP2 MSTORE PUSH1 0x20 PUSH1 0x4 DUP3 ADD MSTORE PUSH1 0x12 PUSH1 0x24 DUP3 ADD MSTORE PUSH18 0x151C985B9CD9995C881B9BDD08199BDD5B99 PUSH1 0x72 SHL PUSH1 0x44 DUP3 ADD MSTORE PUSH1 0x64 SWAP1 REVERT JUMPDEST ISZERO PUSH2 0x1DE3 JUMPI JUMP JUMPDEST PUSH1 0x40 MLOAD PUSH3 0x461BCD PUSH1 0xE5 SHL DUP2 MSTORE PUSH1 0x20 PUSH1 0x4 DUP3 ADD MSTORE PUSH1 0x1A PUSH1 0x24 DUP3 ADD MSTORE PUSH32 0x5472616E7366657220616C72656164792070726F636573736564000000000000 PUSH1 0x44 DUP3 ADD MSTORE PUSH1 0x64 SWAP1 REVERT JUMPDEST PUSH4 0x4E487B71 PUSH1 0xE0 SHL PUSH1 0x0 MSTORE PUSH1 0x11 PUSH1 0x4 MSTORE PUSH1 0x24 PUSH1 0x0 REVERT JUMPDEST SWAP2 SWAP1 DUP3 ADD DUP1 SWAP3 GT PUSH2 0x1E4B JUMPI JUMP JUMPDEST PUSH2 0x1E28 JUMP JUMPDEST ISZERO PUSH2 0x1E57 JUMPI JUMP JUMPDEST PUSH1 0x40 MLOAD PUSH3 0x461BCD PUSH1 0xE5 SHL DUP2 MSTORE PUSH1 0x20 PUSH1 0x4 DUP3 ADD MSTORE PUSH1 0x18 PUSH1 0x24 DUP3 ADD MSTORE PUSH32 0x44656C617920706572696F64206E6F7420656C61707365640000000000000000 PUSH1 0x44 DUP3 ADD MSTORE PUSH1 0x64 SWAP1 REVERT JUMPDEST SWAP1 DUP2 MSTORE PUSH1 0x60 PUSH1 0x20 DUP3 ADD DUP2 SWAP1 MSTORE PUSH1 0x10 SWAP1 DUP3 ADD MSTORE PUSH16 0x3232B630BCB2B216BA3930B739B332B9 PUSH1 0x81 SHL PUSH1 0x80 DUP3 ADD MSTORE SWAP2 SWAP1 PUSH2 0x255 SWAP1 PUSH1 0x40 PUSH1 0xA0 DUP6 ADD SWAP5 ADD MSTORE JUMP JUMPDEST PUSH2 0x1FA2 PUSH2 0x1EE9 PUSH2 0x35A DUP4 PUSH1 0x4 PUSH2 0x35D JUMP JUMPDEST SWAP2 PUSH2 0x1F0D PUSH2 0x1EF6 DUP5 PUSH2 0x415 JUMP JUMPDEST PUSH2 0x1F06 PUSH2 0x11FA PUSH2 0x1197 PUSH1 0x0 PUSH2 0xECD JUMP JUMPDEST EQ ISZERO PUSH2 0x1D9B JUMP JUMPDEST PUSH2 0x1F5A PUSH1 0x1 PUSH1 0x3 DUP6 ADD PUSH2 0x1F2A PUSH2 0x1F25 PUSH2 0x14E2 DUP4 PUSH2 0x878 JUMP JUMPDEST PUSH2 0x1DDC JUMP JUMPDEST PUSH2 0x1F55 PUSH2 0x1F4D PUSH2 0x35A PUSH2 0x1F3F PUSH1 0x2 DUP11 ADD PUSH2 0x865 JUMP JUMPDEST PUSH2 0x1F47 PUSH2 0xCB7 JUMP JUMPDEST SWAP1 PUSH2 0x1E3E JUMP JUMPDEST TIMESTAMP LT ISZERO PUSH2 0x1E50 JUMP JUMPDEST PUSH2 0x10F9 JUMP JUMPDEST PUSH2 0x1F67 PUSH2 0x1192 PUSH1 0x0 PUSH2 0x415 JUMP JUMPDEST SWAP3 PUSH1 0x20 DUP2 PUSH1 0x1 PUSH2 0x1F76 DUP3 PUSH2 0x415 JUMP JUMPDEST SWAP2 ADD SWAP6 PUSH2 0x1F82 DUP8 PUSH2 0x865 JUMP JUMPDEST SWAP2 PUSH1 0x0 PUSH2 0x1F8E PUSH1 0x40 MLOAD SWAP1 JUMP JUMPDEST DUP1 SWAP9 DUP2 SWAP6 DUP3 SWAP5 PUSH2 0x1D3D PUSH4 0x449A52F8 PUSH1 0xE0 SHL SWAP1 JUMP JUMPDEST SUB SWAP3 GAS CALL SWAP3 DUP4 ISZERO PUSH2 0x1404 JUMPI PUSH2 0x1FDD PUSH2 0x1FE3 SWAP3 PUSH2 0x1FD8 PUSH1 0x0 DUP1 MLOAD PUSH1 0x20 PUSH2 0x3264 DUP4 CODECOPY DUP2 MLOAD SWAP2 MSTORE SWAP7 PUSH2 0x1302 SWAP5 PUSH1 0x0 SWAP2 PUSH2 0x13D5 JUMPI POP PUSH2 0xF62 JUMP JUMPDEST PUSH2 0x415 JUMP JUMPDEST SWAP5 PUSH2 0x865 JUMP JUMPDEST SWAP3 PUSH2 0x13D0 PUSH2 0x1FF0 PUSH1 0x40 MLOAD SWAP1 JUMP JUMPDEST SWAP3 DUP4 SWAP3 DUP4 PUSH2 0x1E9C JUMP JUMPDEST PUSH2 0x255 SWAP1 PUSH2 0x1D7E JUMP JUMPDEST PUSH2 0x200A PUSH2 0x2E0C JUMP JUMPDEST PUSH2 0x255 PUSH2 0x255 PUSH2 0x201A PUSH1 0x0 PUSH2 0xECD JUMP JUMPDEST PUSH2 0x2E43 JUMP JUMPDEST PUSH2 0x255 PUSH2 0x2002 JUMP JUMPDEST PUSH2 0x255 SWAP1 PUSH2 0x2033 PUSH2 0x2E0C JUMP JUMPDEST PUSH2 0x17E4 SWAP1 PUSH2 0x203F PUSH2 0x2BCA JUMP JUMPDEST PUSH2 0x15A5 PUSH32 0x5BA6B30CD4B2F9E9E67F4FEB9B9DF10D5DA3B057598E6901B217B7D590345E30 SWAP2 PUSH2 0x207D PUSH2 0x2074 PUSH2 0x1197 PUSH1 0x0 PUSH2 0xECD JUMP JUMPDEST PUSH2 0x175C DUP4 PUSH2 0x409 JUMP JUMPDEST PUSH2 0x949 PUSH2 0x1793 DUP3 PUSH2 0x6D5 JUMP JUMPDEST PUSH2 0x255 SWAP1 PUSH2 0x2027 JUMP JUMPDEST PUSH2 0x35A PUSH1 0x0 PUSH32 0x9016D09D72D40FDAE2FD8CEAC6B6234C7706214FD39C1CD1E609A0528C199300 PUSH2 0x11F4 JUMP JUMPDEST SWAP1 PUSH2 0x255 SWAP2 PUSH2 0x20CA PUSH2 0x2E0C JUMP JUMPDEST SWAP1 PUSH2 0x1F55 PUSH2 0x255 SWAP3 PUSH1 0x7 PUSH2 0x6DE JUMP JUMPDEST SWAP1 PUSH2 0x255 SWAP2 PUSH2 0x20BD JUMP JUMPDEST PUSH2 0x255 SWAP1 PUSH2 0x20EF PUSH2 0x2E0C JUMP JUMPDEST PUSH2 0x2100 PUSH2 0x35A PUSH2 0x255 SWAP3 PUSH1 0x4 PUSH2 0x35D JUMP JUMPDEST PUSH2 0x2112 PUSH2 0x1F4D PUSH2 0x1F3F PUSH1 0x2 DUP5 ADD PUSH2 0x865 JUMP JUMPDEST PUSH2 0x212A PUSH1 0x1 PUSH1 0x3 DUP4 ADD PUSH2 0x1F55 PUSH2 0x1F25 PUSH2 0x14E2 DUP4 PUSH2 0x878 JUMP JUMPDEST PUSH2 0x213F PUSH1 0x1 PUSH2 0x2138 DUP4 PUSH2 0x415 JUMP JUMPDEST SWAP3 ADD PUSH2 0x865 JUMP JUMPDEST SWAP1 PUSH2 0x2F32 JUMP JUMPDEST PUSH2 0x255 SWAP1 PUSH2 0x20E3 JUMP JUMPDEST SWAP1 PUSH2 0x255 SWAP5 SWAP4 SWAP3 SWAP2 PUSH2 0x215E PUSH2 0x2E0C JUMP JUMPDEST PUSH2 0x219F JUMP JUMPDEST SWAP2 SWAP1 PUSH2 0xAC1 DUP2 PUSH2 0x217A DUP2 PUSH2 0x601 SWAP6 PUSH1 0x20 SWAP2 DUP2 MSTORE ADD SWAP1 JUMP JUMPDEST DUP1 SWAP6 PUSH2 0x605 JUMP JUMPDEST PUSH2 0xFFFF SWAP2 SWAP1 SWAP2 AND DUP2 MSTORE PUSH1 0x40 PUSH1 0x20 DUP3 ADD DUP2 SWAP1 MSTORE PUSH2 0x35A SWAP4 SWAP2 ADD SWAP2 PUSH2 0x2163 JUMP JUMPDEST SWAP3 POP SWAP3 POP PUSH2 0x21B0 PUSH2 0x1192 PUSH1 0x3 PUSH2 0x415 JUMP JUMPDEST DUP1 EXTCODESIZE ISZERO PUSH2 0x243 JUMPI PUSH2 0x21E2 SWAP4 PUSH1 0x0 DUP1 SWAP5 PUSH2 0x21C8 PUSH1 0x40 MLOAD SWAP1 JUMP JUMPDEST SWAP7 DUP8 SWAP6 DUP7 SWAP5 DUP6 SWAP4 PUSH4 0x42D65A8D PUSH1 0xE0 SHL DUP6 MSTORE PUSH1 0x4 DUP6 ADD PUSH2 0x2181 JUMP JUMPDEST SUB SWAP3 GAS CALL DUP1 ISZERO PUSH2 0x1404 JUMPI PUSH2 0x21F3 JUMPI POP JUMP JUMPDEST PUSH2 0x255 SWAP1 PUSH1 0x0 PUSH2 0x1BDB DUP2 DUP4 PUSH2 0x5AB JUMP JUMPDEST SWAP1 PUSH2 0x255 SWAP5 SWAP4 SWAP3 SWAP2 PUSH2 0x214E JUMP JUMPDEST SWAP1 PUSH2 0x35A SWAP6 SWAP5 SWAP4 SWAP3 SWAP2 PUSH2 0x2221 PUSH2 0x2E0C JUMP JUMPDEST SWAP1 PUSH2 0x2237 SWAP6 SWAP5 SWAP4 SWAP3 SWAP2 PUSH2 0x2232 PUSH2 0x2BCA JUMP JUMPDEST PUSH2 0x2347 JUMP JUMPDEST SWAP1 PUSH2 0x255 PUSH2 0x2C2B JUMP JUMPDEST ISZERO PUSH2 0x2247 JUMPI JUMP JUMPDEST PUSH1 0x40 MLOAD PUSH3 0x461BCD PUSH1 0xE5 SHL DUP2 MSTORE PUSH1 0x20 PUSH1 0x4 DUP3 ADD MSTORE PUSH1 0x1D PUSH1 0x24 DUP3 ADD MSTORE PUSH32 0x5472616E73616374696F6E20616C72656164792070726F636573736564000000 PUSH1 0x44 DUP3 ADD MSTORE PUSH1 0x64 SWAP1 REVERT JUMPDEST ISZERO PUSH2 0x2293 JUMPI JUMP JUMPDEST PUSH1 0x40 MLOAD PUSH3 0x461BCD PUSH1 0xE5 SHL DUP2 MSTORE PUSH1 0x20 PUSH1 0x4 DUP3 ADD MSTORE PUSH1 0x16 PUSH1 0x24 DUP3 ADD MSTORE PUSH22 0x496E76616C6964207461726765742061646472657373 PUSH1 0x50 SHL PUSH1 0x44 DUP3 ADD MSTORE PUSH1 0x64 SWAP1 REVERT JUMPDEST ISZERO PUSH2 0x22D8 JUMPI JUMP JUMPDEST PUSH1 0x40 MLOAD PUSH3 0x461BCD PUSH1 0xE5 SHL DUP2 MSTORE PUSH1 0x20 PUSH1 0x4 DUP3 ADD MSTORE PUSH1 0x18 PUSH1 0x24 DUP3 ADD MSTORE PUSH32 0x416D6F756E742065786365656473207468726573686F6C640000000000000000 PUSH1 0x44 DUP3 ADD MSTORE PUSH1 0x64 SWAP1 REVERT JUMPDEST SWAP5 SWAP4 SWAP2 PUSH1 0x40 SWAP2 PUSH2 0x255 SWAP5 PUSH2 0x1008 SWAP3 PUSH2 0x233A PUSH1 0x60 DUP11 ADD SWAP4 PUSH1 0x0 DUP12 ADD MSTORE JUMP JUMPDEST DUP9 DUP4 SUB PUSH1 0x20 DUP11 ADD MSTORE PUSH2 0x2163 JUMP JUMPDEST POP SWAP4 SWAP3 SWAP2 SWAP1 PUSH2 0x23A9 PUSH1 0x1 PUSH2 0x2369 PUSH2 0x2364 PUSH2 0x14E2 PUSH2 0x1847 DUP10 DUP6 PUSH2 0x35D JUMP JUMPDEST PUSH2 0x2240 JUMP JUMPDEST PUSH2 0x2389 PUSH2 0x2379 PUSH2 0x1197 PUSH1 0x0 PUSH2 0xECD JUMP JUMPDEST PUSH2 0x2382 DUP10 PUSH2 0x409 JUMP JUMPDEST EQ ISZERO PUSH2 0x228C JUMP JUMPDEST PUSH2 0x239F PUSH2 0x2397 PUSH2 0x35A PUSH2 0xC65 JUMP JUMPDEST DUP5 GT ISZERO PUSH2 0x22D1 JUMP JUMPDEST PUSH2 0x1F55 DUP7 DUP3 PUSH2 0x35D JUMP JUMPDEST PUSH2 0x23B6 PUSH2 0x1192 PUSH1 0x0 PUSH2 0x415 JUMP JUMPDEST SWAP4 PUSH1 0x20 PUSH2 0x23C2 PUSH1 0x40 MLOAD SWAP1 JUMP JUMPDEST SWAP6 DUP7 SWAP1 PUSH4 0x8934A5F PUSH1 0xE3 SHL DUP3 MSTORE DUP2 PUSH1 0x0 DUP2 PUSH2 0x23E1 DUP9 DUP14 PUSH1 0x4 DUP5 ADD PUSH2 0xF37 JUMP JUMPDEST SUB SWAP3 GAS CALL SWAP5 DUP6 ISZERO PUSH2 0x1404 JUMPI PUSH1 0x0 SWAP6 PUSH2 0x242C JUMPI JUMPDEST POP PUSH2 0x2426 SWAP1 PUSH2 0x2413 PUSH1 0x0 DUP1 MLOAD PUSH1 0x20 PUSH2 0x3264 DUP4 CODECOPY DUP2 MLOAD SWAP2 MSTORE SWAP6 SWAP7 SWAP8 PUSH2 0x6D5 JUMP JUMPDEST SWAP6 PUSH2 0x241D PUSH1 0x40 MLOAD SWAP1 JUMP JUMPDEST SWAP5 DUP6 SWAP5 DUP6 PUSH2 0x231D JUMP JUMPDEST SUB SWAP1 LOG2 SWAP1 JUMP JUMPDEST PUSH1 0x0 DUP1 MLOAD PUSH1 0x20 PUSH2 0x3264 DUP4 CODECOPY DUP2 MLOAD SWAP2 MSTORE SWAP5 SWAP6 POP SWAP1 PUSH2 0x2413 PUSH2 0x245D PUSH2 0x2426 SWAP4 PUSH1 0x20 RETURNDATASIZE PUSH1 0x20 GT PUSH2 0x13FD JUMPI PUSH2 0x13EF DUP2 DUP4 PUSH2 0x5AB JUMP JUMPDEST SWAP7 SWAP6 POP POP SWAP1 PUSH2 0x23F4 JUMP JUMPDEST PUSH2 0x35A SWAP5 SWAP4 SWAP3 SWAP2 SWAP1 PUSH1 0x0 PUSH2 0x2210 JUMP JUMPDEST SWAP1 PUSH2 0x17E4 SWAP2 PUSH2 0x2483 PUSH2 0x2BCA JUMP JUMPDEST PUSH2 0x24AF JUMP JUMPDEST PUSH1 0x40 SWAP1 PUSH2 0xF52 PUSH2 0x255 SWAP5 SWAP7 SWAP6 SWAP4 SWAP7 PUSH2 0x24A8 PUSH1 0x60 DUP5 ADD SWAP9 PUSH1 0x0 DUP6 ADD SWAP1 PUSH2 0x456 JUMP JUMPDEST PUSH1 0x20 DUP4 ADD MSTORE JUMP JUMPDEST PUSH1 0x0 PUSH2 0x24C9 PUSH2 0x24C0 PUSH2 0x1197 DUP4 PUSH2 0xECD JUMP JUMPDEST PUSH2 0x1231 DUP5 PUSH2 0x409 JUMP JUMPDEST PUSH2 0x24D5 PUSH2 0x1A11 DUP3 PUSH2 0xC58 JUMP JUMPDEST PUSH2 0x24E0 PUSH2 0x35A PUSH2 0xC65 JUMP JUMPDEST DUP4 LT PUSH2 0x2531 JUMPI PUSH2 0x1312 PUSH2 0x1308 PUSH2 0x1302 PUSH32 0xF5949F687937BD6768DB11A421FEB8C55DEED44C9BC8E6E25EFE684D2968300C SWAP4 PUSH2 0x35A PUSH2 0x251D PUSH1 0x40 MLOAD SWAP1 JUMP JUMPDEST PUSH2 0x12A7 DUP2 PUSH1 0x20 DUP2 ADD PUSH2 0x129B TIMESTAMP DUP14 DUP14 DUP5 PUSH2 0x2488 JUMP JUMPDEST POP SWAP1 PUSH2 0x255 SWAP2 PUSH2 0x2F32 JUMP JUMPDEST SWAP1 PUSH2 0x255 SWAP2 PUSH2 0x2476 JUMP JUMPDEST SWAP1 PUSH2 0x255 SWAP2 PUSH2 0x2553 PUSH2 0x2E0C JUMP JUMPDEST PUSH2 0x25C1 JUMP JUMPDEST ISZERO PUSH2 0x255F JUMPI JUMP JUMPDEST PUSH1 0x40 MLOAD PUSH3 0x461BCD PUSH1 0xE5 SHL DUP2 MSTORE PUSH1 0x20 PUSH1 0x4 DUP3 ADD MSTORE PUSH1 0x14 PUSH1 0x24 DUP3 ADD MSTORE PUSH20 0x10DA185A5B881B9BDD081C9959DA5CDD195C9959 PUSH1 0x62 SHL PUSH1 0x44 DUP3 ADD MSTORE PUSH1 0x64 SWAP1 REVERT JUMPDEST SWAP1 PUSH1 0xFF PUSH1 0xA0 SHL SWAP1 PUSH1 0xA0 SHL PUSH2 0x10AA JUMP JUMPDEST SWAP1 PUSH2 0x25BA PUSH2 0x35A PUSH2 0x10CB SWAP3 ISZERO ISZERO SWAP1 JUMP JUMPDEST DUP3 SLOAD PUSH2 0x259B JUMP JUMPDEST PUSH2 0x13D0 PUSH2 0x262F PUSH32 0x3670C8077FE2B25F52EFD0A9D8D4A2745875BE1F4BD3296B938D456E55B63CEE SWAP3 PUSH2 0x2613 PUSH2 0x25FC PUSH1 0x0 PUSH2 0x11F4 DUP5 PUSH1 0x5 PUSH2 0x3FA JUMP JUMPDEST PUSH2 0x260C PUSH2 0x11FA PUSH2 0x1197 PUSH1 0x0 PUSH2 0xECD JUMP JUMPDEST EQ ISZERO PUSH2 0x2558 JUMP JUMPDEST PUSH2 0x262A DUP6 PUSH1 0x0 PUSH2 0x2624 DUP5 PUSH1 0x5 PUSH2 0x3FA JUMP JUMPDEST ADD PUSH2 0x25AA JUMP JUMPDEST PUSH2 0x3E2 JUMP JUMPDEST SWAP3 PUSH2 0x3BF PUSH1 0x40 MLOAD SWAP1 JUMP JUMPDEST SWAP1 PUSH2 0x255 SWAP2 PUSH2 0x2546 JUMP JUMPDEST SWAP1 PUSH2 0x17E4 SWAP4 SWAP3 SWAP2 PUSH2 0x2652 PUSH2 0x2BCA JUMP JUMPDEST PUSH2 0x26DA JUMP JUMPDEST PUSH1 0x40 SWAP1 PUSH2 0xF52 PUSH2 0x255 SWAP5 SWAP7 SWAP6 SWAP4 SWAP7 PUSH2 0x1970 PUSH1 0x60 DUP5 ADD SWAP9 PUSH1 0x0 DUP6 ADD SWAP1 PUSH2 0x456 JUMP JUMPDEST ISZERO PUSH2 0x267E JUMPI JUMP JUMPDEST PUSH1 0x40 MLOAD PUSH3 0x461BCD PUSH1 0xE5 SHL DUP2 MSTORE PUSH1 0x20 PUSH1 0x4 DUP3 ADD MSTORE PUSH1 0xF PUSH1 0x24 DUP3 ADD MSTORE PUSH15 0x151C985B9CD9995C8819985A5B1959 PUSH1 0x8A SHL PUSH1 0x44 DUP3 ADD MSTORE PUSH1 0x64 SWAP1 REVERT JUMPDEST SWAP5 SWAP4 SWAP2 PUSH1 0x40 SWAP2 PUSH2 0x255 SWAP5 PUSH2 0x26D2 SWAP3 PUSH2 0x233A PUSH1 0x60 DUP11 ADD SWAP4 PUSH1 0x0 DUP12 ADD MSTORE JUMP JUMPDEST SWAP5 ADD SWAP1 PUSH2 0x456 JUMP JUMPDEST PUSH2 0x2736 SWAP3 SWAP4 PUSH2 0x26F2 PUSH2 0x26EC PUSH1 0x0 PUSH2 0xC58 JUMP JUMPDEST DUP4 PUSH2 0x1A13 JUMP JUMPDEST PUSH1 0x20 DUP3 PUSH2 0x2702 PUSH2 0x1192 PUSH1 0x0 PUSH2 0x415 JUMP JUMPDEST PUSH2 0x270B ADDRESS PUSH2 0x6D5 JUMP JUMPDEST PUSH1 0x0 PUSH2 0x2716 PUSH1 0x40 MLOAD SWAP1 JUMP JUMPDEST DUP1 SWAP10 DUP2 SWAP6 DUP3 SWAP5 PUSH2 0x272A PUSH4 0x23B872DD PUSH1 0xE0 SHL SWAP1 JUMP JUMPDEST DUP5 MSTORE CALLER PUSH1 0x4 DUP6 ADD PUSH2 0x2657 JUMP JUMPDEST SUB SWAP3 GAS CALL SWAP1 DUP2 ISZERO PUSH2 0x1404 JUMPI PUSH2 0x2778 PUSH2 0x13D0 SWAP3 PUSH32 0x8786E6EC8D013CB6DFB1B71A429E4F9D6F71ACFB1F381106E217046664AD90C6 SWAP7 PUSH1 0x0 SWAP2 PUSH2 0x2794 JUMPI JUMPDEST POP PUSH2 0x2677 JUMP JUMPDEST PUSH2 0x2781 CALLER PUSH2 0x6D5 JUMP JUMPDEST SWAP6 PUSH2 0x278B PUSH1 0x40 MLOAD SWAP1 JUMP JUMPDEST SWAP5 DUP6 SWAP5 DUP6 PUSH2 0x26B5 JUMP JUMPDEST PUSH2 0x27AD SWAP2 POP PUSH1 0x20 RETURNDATASIZE PUSH1 0x20 GT PUSH2 0x13FD JUMPI PUSH2 0x13EF DUP2 DUP4 PUSH2 0x5AB JUMP JUMPDEST CODESIZE PUSH2 0x2772 JUMP JUMPDEST SWAP1 PUSH2 0x255 SWAP4 SWAP3 SWAP2 PUSH2 0x2643 JUMP JUMPDEST PUSH2 0x255 SWAP1 PUSH2 0x27CB PUSH2 0x2E0C JUMP JUMPDEST PUSH2 0x255 SWAP1 PUSH1 0x6 PUSH2 0x10D9 JUMP JUMPDEST PUSH2 0x255 SWAP1 PUSH2 0x27BF JUMP JUMPDEST SWAP1 PUSH2 0x255 SWAP5 SWAP4 SWAP3 SWAP2 PUSH2 0x27EF PUSH2 0x2E0C JUMP JUMPDEST SWAP1 PUSH2 0x17E4 SWAP5 SWAP4 SWAP3 SWAP2 PUSH2 0x27FF PUSH2 0x2BCA JUMP JUMPDEST SWAP3 SWAP4 PUSH2 0x2823 PUSH1 0x1 PUSH2 0x2819 PUSH2 0x2364 PUSH2 0x14E2 PUSH2 0x1847 DUP7 DUP6 PUSH2 0x35D JUMP JUMPDEST PUSH2 0x1F55 DUP4 DUP3 PUSH2 0x35D JUMP JUMPDEST PUSH2 0x2830 PUSH2 0x1192 PUSH1 0x0 PUSH2 0x415 JUMP JUMPDEST SWAP1 PUSH1 0x20 PUSH2 0x283C PUSH1 0x40 MLOAD SWAP1 JUMP JUMPDEST SWAP3 DUP4 SWAP1 PUSH4 0xA9059CBB PUSH1 0xE0 SHL DUP3 MSTORE DUP2 PUSH1 0x0 DUP2 PUSH2 0x285B DUP10 DUP13 PUSH1 0x4 DUP5 ADD PUSH2 0xF37 JUMP JUMPDEST SUB SWAP3 GAS CALL DUP1 ISZERO PUSH2 0x1404 JUMPI PUSH1 0x0 DUP1 MLOAD PUSH1 0x20 PUSH2 0x3264 DUP4 CODECOPY DUP2 MLOAD SWAP2 MSTORE SWAP6 PUSH2 0x1192 PUSH2 0x2413 SWAP3 PUSH2 0x13D0 SWAP6 PUSH1 0x0 SWAP2 PUSH2 0x2794 JUMPI POP PUSH2 0x2677 JUMP JUMPDEST SWAP1 PUSH2 0x255 SWAP5 SWAP4 SWAP3 SWAP2 PUSH2 0x27DF JUMP JUMPDEST SWAP1 PUSH2 0x17E4 SWAP4 SWAP3 SWAP2 PUSH2 0x28A9 PUSH2 0x2BCA JUMP JUMPDEST SWAP3 SWAP2 SWAP3 PUSH1 0x0 PUSH2 0x28BA PUSH2 0x26EC DUP3 PUSH2 0xC58 JUMP JUMPDEST PUSH2 0x28C6 PUSH2 0x1192 DUP3 PUSH2 0x415 JUMP JUMPDEST SWAP4 DUP5 EXTCODESIZE ISZERO PUSH2 0x243 JUMPI DUP2 PUSH2 0x28D8 PUSH1 0x40 MLOAD SWAP1 JUMP JUMPDEST SWAP6 DUP7 SWAP1 PUSH4 0x79CC679 PUSH1 0xE4 SHL DUP3 MSTORE DUP2 DUP4 DUP2 PUSH2 0x28F6 DUP10 CALLER PUSH1 0x4 DUP5 ADD PUSH2 0xF37 JUMP JUMPDEST SUB SWAP3 GAS CALL SWAP2 DUP3 ISZERO PUSH2 0x1404 JUMPI PUSH32 0x8786E6EC8D013CB6DFB1B71A429E4F9D6F71ACFB1F381106E217046664AD90C6 SWAP6 PUSH2 0x13D0 SWAP4 PUSH2 0x2937 JUMPI JUMPDEST POP POP PUSH2 0x2781 CALLER PUSH2 0x6D5 JUMP JUMPDEST DUP2 PUSH2 0x294D SWAP3 SWAP1 RETURNDATASIZE LT PUSH2 0x1BE3 JUMPI PUSH2 0x1BDB DUP2 DUP4 PUSH2 0x5AB JUMP JUMPDEST CODESIZE DUP1 PUSH2 0x292C JUMP JUMPDEST SWAP1 PUSH2 0x255 SWAP4 SWAP3 SWAP2 PUSH2 0x289A JUMP JUMPDEST PUSH2 0x255 SWAP1 PUSH2 0x296C PUSH2 0x2E0C JUMP JUMPDEST PUSH1 0x0 PUSH2 0x2977 DUP2 PUSH2 0xECD JUMP JUMPDEST PUSH2 0x2980 DUP2 PUSH2 0x409 JUMP JUMPDEST PUSH2 0x2989 DUP5 PUSH2 0x409 JUMP JUMPDEST EQ PUSH2 0x2999 JUMPI POP POP PUSH2 0x255 SWAP1 PUSH2 0x2E43 JUMP JUMPDEST PUSH4 0x1E4FBDF7 PUSH1 0xE0 SHL DUP3 MSTORE DUP2 SWAP1 PUSH2 0xDE3 SWAP1 PUSH1 0x4 DUP4 ADD PUSH2 0x91E JUMP JUMPDEST PUSH2 0x255 SWAP1 PUSH2 0x2960 JUMP JUMPDEST SWAP1 PUSH2 0x255 SWAP3 SWAP2 PUSH2 0x29C9 PUSH2 0x2E0C JUMP JUMPDEST PUSH2 0x2A95 JUMP JUMPDEST ISZERO PUSH2 0x29D5 JUMPI JUMP JUMPDEST PUSH1 0x40 MLOAD PUSH3 0x461BCD PUSH1 0xE5 SHL DUP2 MSTORE PUSH1 0x20 PUSH1 0x4 DUP3 ADD MSTORE PUSH1 0x15 PUSH1 0x24 DUP3 ADD MSTORE PUSH21 0x496E76616C69642072656D6F746520627269646765 PUSH1 0x58 SHL PUSH1 0x44 DUP3 ADD MSTORE PUSH1 0x64 SWAP1 REVERT JUMPDEST ISZERO PUSH2 0x2A19 JUMPI JUMP JUMPDEST PUSH1 0x40 MLOAD PUSH3 0x461BCD PUSH1 0xE5 SHL DUP2 MSTORE PUSH1 0x20 PUSH1 0x4 DUP3 ADD MSTORE PUSH1 0x1C PUSH1 0x24 DUP3 ADD MSTORE PUSH32 0x43616E6E6F7420726567697374657220736F7572636520636861696E00000000 PUSH1 0x44 DUP3 ADD MSTORE PUSH1 0x64 SWAP1 REVERT JUMPDEST PUSH2 0x35A PUSH1 0x40 PUSH2 0x5D1 JUMP JUMPDEST PUSH2 0x255 SWAP2 PUSH2 0x2A85 SWAP1 PUSH1 0x20 SWAP1 PUSH2 0x115E PUSH2 0x2A7F DUP3 PUSH2 0x1095 JUMP JUMPDEST DUP6 PUSH2 0x10B4 JUMP JUMPDEST SWAP1 PUSH2 0x25AA JUMP JUMPDEST SWAP1 PUSH2 0x255 SWAP2 PUSH2 0x2A68 JUMP JUMPDEST SWAP1 PUSH32 0xB2F92AE146563FE193B48846974F797B06908D26DAB8E3598EA23A1EDB83141D PUSH2 0x2B26 PUSH2 0x2B32 SWAP5 SWAP4 PUSH2 0x2ADF PUSH2 0x2ACF PUSH2 0x1197 PUSH1 0x0 PUSH2 0xECD JUMP JUMPDEST PUSH2 0x2AD8 DUP7 PUSH2 0x409 JUMP JUMPDEST EQ ISZERO PUSH2 0x29CE JUMP JUMPDEST PUSH2 0x2AF9 PUSH2 0x2AED PUSH2 0x3F3 PUSH2 0x804 JUMP JUMPDEST PUSH2 0xFFFF DUP4 AND EQ ISZERO PUSH2 0x2A12 JUMP JUMPDEST PUSH2 0x262A PUSH2 0x2B04 PUSH2 0x2A5E JUMP JUMPDEST PUSH2 0x2B0E DUP7 DUP3 PUSH2 0x108B JUMP JUMPDEST DUP7 ISZERO ISZERO PUSH1 0x20 DUP3 ADD MSTORE PUSH2 0x2B21 DUP4 PUSH1 0x5 PUSH2 0x3FA JUMP JUMPDEST PUSH2 0x2A8B JUMP JUMPDEST SWAP4 DUP5 SWAP3 PUSH2 0x94D PUSH1 0x40 MLOAD SWAP1 JUMP JUMPDEST SUB SWAP1 LOG2 PUSH2 0x2B3C JUMPI POP JUMP JUMPDEST PUSH32 0x3670C8077FE2B25F52EFD0A9D8D4A2745875BE1F4BD3296B938D456E55B63CEE PUSH2 0x2B66 PUSH1 0x40 MLOAD SWAP1 JUMP JUMPDEST PUSH1 0x1 DUP2 MSTORE DUP1 PUSH1 0x20 DUP2 ADD PUSH2 0x13D0 JUMP JUMPDEST SWAP1 PUSH2 0x255 SWAP3 SWAP2 PUSH2 0x29BB JUMP JUMPDEST PUSH2 0x35A PUSH2 0x3056 JUMP JUMPDEST PUSH2 0x255 SWAP1 PUSH2 0x2B93 PUSH2 0x305E JUMP JUMPDEST PUSH2 0x255 SWAP1 PUSH2 0x308D JUMP JUMPDEST PUSH2 0x255 SWAP1 PUSH2 0x2B87 JUMP JUMPDEST PUSH2 0x2BAD PUSH2 0x305E JUMP JUMPDEST PUSH2 0x255 PUSH2 0x255 PUSH2 0x309E JUMP JUMPDEST PUSH2 0x255 PUSH2 0x2BA5 JUMP JUMPDEST PUSH2 0x35A PUSH1 0x2 PUSH2 0xC58 JUMP JUMPDEST PUSH32 0x9B779B17422D0DF92223018B32B4D1FA46E071723D6817E2486D003BECC55F00 PUSH2 0x2BF4 DUP2 PUSH2 0x865 JUMP JUMPDEST PUSH2 0x2BFC PUSH2 0x2BC0 JUMP JUMPDEST SWAP1 DUP2 EQ PUSH2 0x2C0C JUMPI PUSH2 0x255 SWAP2 PUSH2 0x10D9 JUMP JUMPDEST PUSH4 0x3EE5AEB5 PUSH1 0xE0 SHL PUSH1 0x0 SWAP1 DUP2 MSTORE PUSH1 0x4 JUMPDEST SUB PUSH1 0x0 REVERT JUMPDEST PUSH2 0x35A PUSH1 0x1 PUSH2 0xC58 JUMP JUMPDEST PUSH2 0x255 PUSH32 0x9B779B17422D0DF92223018B32B4D1FA46E071723D6817E2486D003BECC55F00 PUSH1 0x0 PUSH2 0x2C59 PUSH2 0x2C21 JUMP JUMPDEST SWAP2 ADD PUSH2 0x10D9 JUMP JUMPDEST PUSH2 0x2C69 ADDRESS PUSH2 0x6D5 JUMP JUMPDEST PUSH32 0x0 SWAP1 PUSH2 0x2C97 PUSH2 0x11FA DUP4 PUSH2 0x409 JUMP JUMPDEST EQ SWAP1 DUP2 ISZERO PUSH2 0x2CB9 JUMPI JUMPDEST POP PUSH2 0x2CA7 JUMPI JUMP JUMPDEST PUSH4 0x703E46DD PUSH1 0xE1 SHL PUSH1 0x0 SWAP1 DUP2 MSTORE PUSH1 0x4 SWAP1 REVERT JUMPDEST SWAP1 POP PUSH2 0x2CCF PUSH2 0x11FA PUSH2 0x2CC9 PUSH2 0x30A6 JUMP JUMPDEST SWAP3 PUSH2 0x409 JUMP JUMPDEST EQ ISZERO CODESIZE PUSH2 0x2CA0 JUMP JUMPDEST POP PUSH2 0x255 PUSH2 0x2E0C JUMP JUMPDEST PUSH2 0x255 SWAP1 PUSH2 0x2CD7 JUMP JUMPDEST SWAP1 POP MLOAD SWAP1 PUSH2 0x255 DUP3 PUSH2 0x333 JUMP JUMPDEST SWAP1 PUSH1 0x20 DUP3 DUP3 SUB SLT PUSH2 0x243 JUMPI PUSH2 0x35A SWAP2 PUSH2 0x2CE9 JUMP JUMPDEST SWAP1 PUSH2 0x2D17 PUSH2 0x1192 DUP4 PUSH2 0x6D5 JUMP JUMPDEST SWAP1 PUSH1 0x20 PUSH2 0x2D23 PUSH1 0x40 MLOAD SWAP1 JUMP JUMPDEST PUSH4 0x52D1902D PUSH1 0xE0 SHL DUP2 MSTORE SWAP3 DUP4 SWAP1 PUSH1 0x4 SWAP1 DUP3 SWAP1 GAS STATICCALL PUSH1 0x0 SWAP3 DUP2 PUSH2 0x2D9F JUMPI JUMPDEST POP PUSH2 0x2D69 JUMPI POP POP PUSH1 0x1 PUSH2 0x2D50 JUMPI POP JUMP JUMPDEST PUSH4 0x4C9C8CE3 PUSH1 0xE0 SHL PUSH1 0x0 SWAP1 DUP2 MSTORE SWAP1 PUSH2 0x2C1C SWAP1 PUSH1 0x4 PUSH2 0x91E JUMP JUMPDEST SWAP1 SWAP3 SWAP2 PUSH2 0x2D77 PUSH2 0x35A PUSH2 0x1C4C JUMP JUMPDEST DUP5 SUB PUSH2 0x2D88 JUMPI PUSH2 0x255 SWAP3 SWAP4 POP PUSH2 0x30B6 JUMP JUMPDEST PUSH4 0x2A875269 PUSH1 0xE2 SHL PUSH1 0x0 SWAP1 DUP2 MSTORE PUSH1 0x4 DUP6 SWAP1 MSTORE PUSH1 0x24 SWAP1 REVERT JUMPDEST PUSH2 0x2DC2 SWAP2 SWAP4 POP PUSH1 0x20 RETURNDATASIZE PUSH1 0x20 GT PUSH2 0x2DC9 JUMPI JUMPDEST PUSH2 0x2DBA DUP2 DUP4 PUSH2 0x5AB JUMP JUMPDEST DUP2 ADD SWAP1 PUSH2 0x2CF6 JUMP JUMPDEST SWAP2 CODESIZE PUSH2 0x2D40 JUMP JUMPDEST POP RETURNDATASIZE PUSH2 0x2DB0 JUMP JUMPDEST PUSH2 0x2DD9 ADDRESS PUSH2 0x6D5 JUMP JUMPDEST PUSH2 0x2E05 PUSH2 0x11FA PUSH32 0x0 PUSH2 0x409 JUMP JUMPDEST SUB PUSH2 0x2CA7 JUMPI JUMP JUMPDEST PUSH2 0x2E14 PUSH2 0x2092 JUMP JUMPDEST CALLER SWAP1 PUSH2 0x2E22 PUSH2 0x11FA DUP4 PUSH2 0x409 JUMP JUMPDEST SUB PUSH2 0x2E2A JUMPI POP JUMP JUMPDEST PUSH4 0x118CDAA7 PUSH1 0xE0 SHL PUSH1 0x0 SWAP1 DUP2 MSTORE SWAP1 PUSH2 0x2C1C SWAP1 PUSH1 0x4 PUSH2 0x91E JUMP JUMPDEST PUSH2 0x2E83 PUSH2 0x2E7D PUSH32 0x9016D09D72D40FDAE2FD8CEAC6B6234C7706214FD39C1CD1E609A0528C199300 PUSH2 0x1192 DUP5 PUSH2 0x2E77 DUP4 PUSH2 0x415 JUMP JUMPDEST SWAP3 PUSH2 0x10B4 JUMP JUMPDEST SWAP2 PUSH2 0x6D5 JUMP JUMPDEST SWAP1 PUSH32 0x8BE0079C531659141344CD1FD0A4F28419497F9722A3DAAFE3B4186F6B6457E0 PUSH2 0x2EAE PUSH1 0x40 MLOAD SWAP1 JUMP JUMPDEST DUP1 DUP1 PUSH2 0x1312 JUMP JUMPDEST ISZERO PUSH2 0x2EBC JUMPI JUMP JUMPDEST PUSH1 0x40 MLOAD PUSH3 0x461BCD PUSH1 0xE5 SHL DUP2 MSTORE PUSH1 0x20 PUSH1 0x4 DUP3 ADD MSTORE PUSH1 0x14 PUSH1 0x24 DUP3 ADD MSTORE PUSH20 0x149958DA5C1A595B9D081A5CC8189B1BD8DAD959 PUSH1 0x62 SHL PUSH1 0x44 DUP3 ADD MSTORE PUSH1 0x64 SWAP1 REVERT JUMPDEST SWAP1 DUP2 MSTORE PUSH1 0x60 PUSH1 0x20 DUP3 ADD DUP2 SWAP1 MSTORE PUSH1 0xE SWAP1 DUP3 ADD MSTORE PUSH14 0x3637B1B0B616BA3930B739B332B9 PUSH1 0x91 SHL PUSH1 0x80 DUP3 ADD MSTORE SWAP2 SWAP1 PUSH2 0x255 SWAP1 PUSH1 0x40 PUSH1 0xA0 DUP6 ADD SWAP5 ADD MSTORE JUMP JUMPDEST PUSH2 0x2F4B PUSH2 0x2F42 PUSH2 0x1197 PUSH1 0x0 PUSH2 0xECD JUMP JUMPDEST PUSH2 0x1231 DUP4 PUSH2 0x409 JUMP JUMPDEST PUSH2 0x2F58 PUSH2 0x26EC PUSH1 0x0 PUSH2 0xC58 JUMP JUMPDEST PUSH2 0x2F71 PUSH2 0x2F6C PUSH2 0x14E2 PUSH2 0x1847 DUP5 PUSH1 0x7 PUSH2 0x6DE JUMP JUMPDEST PUSH2 0x2EB5 JUMP JUMPDEST PUSH2 0x2F7E PUSH2 0x1192 PUSH1 0x0 PUSH2 0x415 JUMP JUMPDEST SWAP1 PUSH1 0x20 PUSH2 0x2F8A PUSH1 0x40 MLOAD SWAP1 JUMP JUMPDEST SWAP3 DUP4 SWAP1 PUSH4 0x8934A5F PUSH1 0xE3 SHL DUP3 MSTORE DUP2 PUSH1 0x0 DUP2 PUSH2 0x2FA9 DUP10 DUP9 PUSH1 0x4 DUP5 ADD PUSH2 0xF37 JUMP JUMPDEST SUB SWAP3 GAS CALL SWAP2 DUP3 ISZERO PUSH2 0x1404 JUMPI PUSH1 0x0 DUP1 MLOAD PUSH1 0x20 PUSH2 0x3264 DUP4 CODECOPY DUP2 MLOAD SWAP2 MSTORE SWAP3 PUSH2 0x2FD5 SWAP2 PUSH1 0x0 SWAP2 PUSH2 0x2794 JUMPI POP PUSH2 0x2677 JUMP JUMPDEST PUSH2 0x3017 PUSH2 0x2FE1 PUSH1 0x40 MLOAD SWAP1 JUMP JUMPDEST TIMESTAMP PUSH1 0x20 DUP1 DUP4 ADD SWAP2 DUP3 MSTORE PUSH2 0x3005 SWAP2 DUP4 SWAP2 PUSH2 0x129B SWAP1 DUP10 PUSH2 0x601 PUSH1 0x14 DUP11 PUSH2 0x107B DUP6 DUP9 PUSH2 0x1073 JUMP JUMPDEST PUSH2 0x3010 PUSH2 0x12B2 DUP3 MLOAD SWAP1 JUMP JUMPDEST KECCAK256 SWAP2 PUSH2 0x6D5 JUMP JUMPDEST SWAP3 PUSH2 0x13D0 PUSH2 0x3024 PUSH1 0x40 MLOAD SWAP1 JUMP JUMPDEST SWAP3 DUP4 SWAP3 DUP4 PUSH2 0x2EF8 JUMP JUMPDEST PUSH2 0x35A PUSH32 0xF0C57E16840DF040F15088DC2F81FE391C3923BEC73E23A9662EFC9C229C6A00 PUSH2 0xC58 JUMP JUMPDEST PUSH2 0x35A PUSH2 0x302D JUMP JUMPDEST PUSH2 0x3069 PUSH2 0x14E2 PUSH2 0x311F JUMP JUMPDEST PUSH2 0x306F JUMPI JUMP JUMPDEST PUSH4 0x1AFCD79F PUSH1 0xE3 SHL PUSH1 0x0 SWAP1 DUP2 MSTORE PUSH1 0x4 SWAP1 REVERT JUMPDEST PUSH2 0x255 SWAP1 PUSH2 0x296C PUSH2 0x305E JUMP JUMPDEST PUSH2 0x255 SWAP1 PUSH2 0x3081 JUMP JUMPDEST PUSH2 0x17E4 PUSH2 0x305E JUMP JUMPDEST PUSH2 0x255 PUSH2 0x3096 JUMP JUMPDEST PUSH2 0x35A PUSH1 0x0 PUSH2 0x11F4 PUSH2 0x35A PUSH2 0x1C4C JUMP JUMPDEST SWAP1 PUSH2 0x30C0 DUP3 PUSH2 0x3132 JUMP JUMPDEST PUSH2 0x30C9 DUP3 PUSH2 0x6D5 JUMP JUMPDEST PUSH32 0xBC7CD75A20EE27FD9ADEBAB32041F755214DBC6BFFA90CC0225B39DA2E5C2D3B PUSH2 0x30F3 PUSH1 0x40 MLOAD SWAP1 JUMP JUMPDEST PUSH1 0x0 SWAP1 LOG2 DUP1 MLOAD PUSH2 0x3106 PUSH2 0x15EC PUSH1 0x0 PUSH2 0xC58 JUMP JUMPDEST GT ISZERO PUSH2 0x3115 JUMPI PUSH2 0x1D71 SWAP2 PUSH2 0x31B7 JUMP JUMPDEST POP POP PUSH2 0x255 PUSH2 0x3175 JUMP JUMPDEST PUSH2 0x35A PUSH1 0x0 PUSH2 0x312C PUSH2 0x2B7F JUMP JUMPDEST ADD PUSH2 0x1415 JUMP JUMPDEST PUSH1 0x0 DUP2 EXTCODESIZE PUSH2 0x3142 PUSH2 0x15EC DUP4 PUSH2 0xC58 JUMP JUMPDEST EQ PUSH2 0x315D JUMPI SWAP1 PUSH2 0x255 SWAP2 PUSH2 0x3157 PUSH2 0x35A PUSH2 0x1C4C JUMP JUMPDEST ADD PUSH2 0x10B4 JUMP JUMPDEST PUSH2 0xDE3 DUP2 SWAP3 PUSH4 0x4C9C8CE3 PUSH1 0xE0 SHL DUP4 MSTORE PUSH1 0x4 DUP4 ADD PUSH2 0x91E JUMP JUMPDEST PUSH1 0x0 PUSH2 0x3180 DUP2 PUSH2 0xC58 JUMP JUMPDEST CALLVALUE GT PUSH2 0x3189 JUMPI POP JUMP JUMPDEST PUSH4 0xB398979F PUSH1 0xE0 SHL DUP2 MSTORE PUSH1 0x4 SWAP1 REVERT JUMPDEST RETURNDATASIZE ISZERO PUSH2 0x31B2 JUMPI PUSH2 0x31A7 RETURNDATASIZE PUSH2 0xA2F JUMP JUMPDEST SWAP1 RETURNDATASIZE PUSH1 0x0 PUSH1 0x20 DUP5 ADD RETURNDATACOPY JUMP JUMPDEST PUSH1 0x60 SWAP1 JUMP JUMPDEST PUSH1 0x0 DUP1 PUSH2 0x35A SWAP4 PUSH2 0x31C6 PUSH1 0x60 SWAP1 JUMP JUMPDEST POP PUSH1 0x20 DUP2 MLOAD SWAP2 ADD DUP5 GAS DELEGATECALL PUSH2 0x31D8 PUSH2 0x3198 JUMP JUMPDEST SWAP2 SWAP1 PUSH2 0x31E4 JUMPI POP PUSH2 0x3234 JUMP JUMPDEST DUP2 MLOAD SWAP1 PUSH1 0x0 SWAP2 PUSH2 0x31F6 PUSH2 0x15EC DUP5 PUSH2 0xC58 JUMP JUMPDEST EQ DUP1 PUSH2 0x321F JUMPI JUMPDEST PUSH2 0x3206 JUMPI POP POP SWAP1 JUMP JUMPDEST PUSH4 0x9996B315 PUSH1 0xE0 SHL DUP3 MSTORE DUP2 SWAP1 PUSH2 0xDE3 SWAP1 PUSH1 0x4 DUP4 ADD PUSH2 0x91E JUMP JUMPDEST POP DUP1 EXTCODESIZE PUSH2 0x322E PUSH2 0x15EC DUP5 PUSH2 0xC58 JUMP JUMPDEST EQ PUSH2 0x31FD JUMP JUMPDEST DUP1 MLOAD PUSH1 0x0 SWAP1 PUSH2 0x3245 PUSH2 0x15EC DUP4 PUSH2 0xC58 JUMP JUMPDEST GT ISZERO PUSH2 0x3254 JUMPI POP DUP1 MLOAD SWAP1 PUSH1 0x20 ADD REVERT JUMPDEST PUSH4 0xD6BDA275 PUSH1 0xE0 SHL DUP2 MSTORE PUSH1 0x4 SWAP1 REVERT INVALID PUSH28 0x93D20AA9666FFF2B9034D25DB8EEFA4ADA8752B0B713F599E9DA3BD4 CALLDATACOPY 0xE1 SWAP3 LOG2 PUSH5 0x6970667358 0x22 SLT KECCAK256 PUSH5 0xAFB7A6FBEE 0xC4 0xD PC 0xAE SSTORE 0xE9 0xD3 0xA8 PUSH9 0xA783835B83EEA99771 CALL PUSH20 0x4C3C8A633E6A64736F6C634300081B0033000000 "},"methodIdentifiers":{"DELAY_PERIOD()":"e71a02e1","LARGE_TRANSFER_THRESHOLD()":"d5e42e2c","SOURCE_CHAIN_ID()":"74be2150","UPGRADE_INTERFACE_VERSION()":"ad3cb1cc","blockedAddresses(address)":"4f93208a","burnTokens(uint256,string,address)":"e331de2b","endpoint()":"5e280f11","executeDelayedTransfer(bytes32)":"9e25fc5c","initialize(address,address,uint256)":"1794bb3c","initiateTransfer(address,uint256)":"b504cd1e","lockTokens(uint256,string,address)":"be6cd04f","lzReceive(uint16,bytes,uint64,bytes)":"001d3567","minGasForTransfer()":"4514ad12","mintTokens(address,uint256,string,bytes32)":"b2f18522","owner()":"8da5cb5b","pendingTransfers(bytes32)":"8d4ab2c0","processDelayedTransfer(bytes32)":"5745a3a2","processedHashes(bytes32)":"07d9c534","proxiableUUID()":"52d1902d","registerChain(uint16,address,bool)":"f6a0817b","releaseTokens(address,uint256,string,bytes32)":"d01292dd","remoteBridges(uint16)":"fb7a9479","renounceOwnership()":"715018a6","rescueTokens(address,uint256)":"57376198","retryPayload(uint16,bytes,bytes)":"aaff5f16","sendTokens(uint16,address,uint256)":"3c43d99d","setBlockedAddress(address,bool)":"92d5011f","setMinGasForTransfer(uint256)":"cfa713a3","supportedChains(uint16)":"10d58783","toggleChain(uint16,bool)":"b932aa37","token()":"fc0c546a","transferOwnership(address)":"f2fde38b","updateToken(address)":"7ad3def2","upgradeToAndCall(address,bytes)":"4f1ef286"}},"storageLayout":{"storage":[{"astId":1660,"contract":"contracts/NooriBankBridge.sol:NooriBankBridge","label":"token","offset":0,"slot":"0","type":"t_contract(INooriToken)2852"},{"astId":1664,"contract":"contracts/NooriBankBridge.sol:NooriBankBridge","label":"processedHashes","offset":0,"slot":"1","type":"t_mapping(t_bytes32,t_bool)"},{"astId":1671,"contract":"contracts/NooriBankBridge.sol:NooriBankBridge","label":"remoteBridges","offset":0,"slot":"2","type":"t_mapping(t_uint16,t_address)"},{"astId":1674,"contract":"contracts/NooriBankBridge.sol:NooriBankBridge","label":"endpoint","offset":0,"slot":"3","type":"t_contract(ILayerZeroEndpoint)2819"},{"astId":1687,"contract":"contracts/NooriBankBridge.sol:NooriBankBridge","label":"pendingTransfers","offset":0,"slot":"4","type":"t_mapping(t_bytes32,t_struct(PendingTransfer)1696_storage)"},{"astId":1766,"contract":"contracts/NooriBankBridge.sol:NooriBankBridge","label":"supportedChains","offset":0,"slot":"5","type":"t_mapping(t_uint16,t_struct(ChainSupport)1761_storage)"},{"astId":1768,"contract":"contracts/NooriBankBridge.sol:NooriBankBridge","label":"minGasForTransfer","offset":0,"slot":"6","type":"t_uint256"},{"astId":2278,"contract":"contracts/NooriBankBridge.sol:NooriBankBridge","label":"blockedAddresses","offset":0,"slot":"7","type":"t_mapping(t_address,t_bool)"}],"types":{"t_address":{"encoding":"inplace","label":"address","numberOfBytes":"20"},"t_bool":{"encoding":"inplace","label":"bool","numberOfBytes":"1"},"t_bytes32":{"encoding":"inplace","label":"bytes32","numberOfBytes":"32"},"t_contract(ILayerZeroEndpoint)2819":{"encoding":"inplace","label":"contract ILayerZeroEndpoint","numberOfBytes":"20"},"t_contract(INooriToken)2852":{"encoding":"inplace","label":"contract INooriToken","numberOfBytes":"20"},"t_mapping(t_address,t_bool)":{"encoding":"mapping","key":"t_address","label":"mapping(address => bool)","numberOfBytes":"32","value":"t_bool"},"t_mapping(t_bytes32,t_bool)":{"encoding":"mapping","key":"t_bytes32","label":"mapping(bytes32 => bool)","numberOfBytes":"32","value":"t_bool"},"t_mapping(t_bytes32,t_struct(PendingTransfer)1696_storage)":{"encoding":"mapping","key":"t_bytes32","label":"mapping(bytes32 => struct NooriBankBridge.PendingTransfer)","numberOfBytes":"32","value":"t_struct(PendingTransfer)1696_storage"},"t_mapping(t_uint16,t_address)":{"encoding":"mapping","key":"t_uint16","label":"mapping(uint16 => address)","numberOfBytes":"32","value":"t_address"},"t_mapping(t_uint16,t_struct(ChainSupport)1761_storage)":{"encoding":"mapping","key":"t_uint16","label":"mapping(uint16 => struct NooriBankBridge.ChainSupport)","numberOfBytes":"32","value":"t_struct(ChainSupport)1761_storage"},"t_struct(ChainSupport)1761_storage":{"encoding":"inplace","label":"struct NooriBankBridge.ChainSupport","members":[{"astId":1758,"contract":"contracts/NooriBankBridge.sol:NooriBankBridge","label":"remoteBridge","offset":0,"slot":"0","type":"t_address"},{"astId":1760,"contract":"contracts/NooriBankBridge.sol:NooriBankBridge","label":"enabled","offset":20,"slot":"0","type":"t_bool"}],"numberOfBytes":"32"},"t_struct(PendingTransfer)1696_storage":{"encoding":"inplace","label":"struct NooriBankBridge.PendingTransfer","members":[{"astId":1689,"contract":"contracts/NooriBankBridge.sol:NooriBankBridge","label":"recipient","offset":0,"slot":"0","type":"t_address"},{"astId":1691,"contract":"contracts/NooriBankBridge.sol:NooriBankBridge","label":"amount","offset":0,"slot":"1","type":"t_uint256"},{"astId":1693,"contract":"contracts/NooriBankBridge.sol:NooriBankBridge","label":"timestamp","offset":0,"slot":"2","type":"t_uint256"},{"astId":1695,"contract":"contracts/NooriBankBridge.sol:NooriBankBridge","label":"processed","offset":0,"slot":"3","type":"t_bool"}],"numberOfBytes":"128"},"t_uint16":{"encoding":"inplace","label":"uint16","numberOfBytes":"2"},"t_uint256":{"encoding":"inplace","label":"uint256","numberOfBytes":"32"}}}}}}