{"contracts/NooriBankBridge.sol":{"NooriBankBridge":{"abi":[{"inputs":[],"stateMutability":"nonpayable","type":"constructor"},{"inputs":[],"name":"InvalidInitialization","type":"error"},{"inputs":[],"name":"NotInitializing","type":"error"},{"inputs":[{"internalType":"address","name":"owner","type":"address"}],"name":"OwnableInvalidOwner","type":"error"},{"inputs":[{"internalType":"address","name":"account","type":"address"}],"name":"OwnableUnauthorizedAccount","type":"error"},{"inputs":[],"name":"ReentrancyGuardReentrantCall","type":"error"},{"anonymous":false,"inputs":[{"indexed":false,"internalType":"address","name":"token","type":"address"},{"indexed":false,"internalType":"uint16","name":"sourceChainId","type":"uint16"}],"name":"BridgeInitialized","type":"event"},{"anonymous":false,"inputs":[{"indexed":true,"internalType":"uint16","name":"chainId","type":"uint16"},{"indexed":false,"internalType":"address","name":"remoteBridge","type":"address"}],"name":"ChainRegistered","type":"event"},{"anonymous":false,"inputs":[{"indexed":true,"internalType":"uint16","name":"chainId","type":"uint16"},{"indexed":false,"internalType":"bool","name":"enabled","type":"bool"}],"name":"ChainToggled","type":"event"},{"anonymous":false,"inputs":[{"indexed":true,"internalType":"address","name":"from","type":"address"},{"indexed":false,"internalType":"uint16","name":"targetChainId","type":"uint16"},{"indexed":false,"internalType":"address","name":"targetAddress","type":"address"},{"indexed":false,"internalType":"uint256","name":"amount","type":"uint256"}],"name":"CrossChainTransferInitiated","type":"event"},{"anonymous":false,"inputs":[{"indexed":false,"internalType":"uint64","name":"version","type":"uint64"}],"name":"Initialized","type":"event"},{"anonymous":false,"inputs":[{"indexed":true,"internalType":"address","name":"previousOwner","type":"address"},{"indexed":true,"internalType":"address","name":"newOwner","type":"address"}],"name":"OwnershipTransferred","type":"event"},{"anonymous":false,"inputs":[{"indexed":true,"internalType":"address","name":"user","type":"address"},{"indexed":false,"internalType":"uint256","name":"amount","type":"uint256"},{"indexed":false,"internalType":"string","name":"targetChain","type":"string"},{"indexed":false,"internalType":"address","name":"targetAddress","type":"address"}],"name":"TokenLocked","type":"event"},{"anonymous":false,"inputs":[{"indexed":true,"internalType":"address","name":"user","type":"address"},{"indexed":false,"internalType":"uint256","name":"amount","type":"uint256"},{"indexed":false,"internalType":"string","name":"sourceChain","type":"string"},{"indexed":false,"internalType":"bytes32","name":"transactionHash","type":"bytes32"}],"name":"TokenMinted","type":"event"},{"anonymous":false,"inputs":[{"indexed":false,"internalType":"address","name":"newAddress","type":"address"}],"name":"TokenUpdated","type":"event"},{"anonymous":false,"inputs":[{"indexed":true,"internalType":"bytes32","name":"transferId","type":"bytes32"},{"indexed":true,"internalType":"address","name":"recipient","type":"address"},{"indexed":false,"internalType":"uint256","name":"amount","type":"uint256"}],"name":"TransferDelayed","type":"event"},{"inputs":[],"name":"DELAY_PERIOD","outputs":[{"internalType":"uint256","name":"","type":"uint256"}],"stateMutability":"view","type":"function"},{"inputs":[],"name":"LARGE_TRANSFER_THRESHOLD","outputs":[{"internalType":"uint256","name":"","type":"uint256"}],"stateMutability":"view","type":"function"},{"inputs":[],"name":"SOURCE_CHAIN_ID","outputs":[{"internalType":"uint16","name":"","type":"uint16"}],"stateMutability":"view","type":"function"},{"inputs":[{"internalType":"address","name":"","type":"address"}],"name":"blockedAddresses","outputs":[{"internalType":"bool","name":"","type":"bool"}],"stateMutability":"view","type":"function"},{"inputs":[{"internalType":"uint256","name":"amount","type":"uint256"},{"internalType":"string","name":"targetChain","type":"string"},{"internalType":"address","name":"targetAddress","type":"address"}],"name":"burnTokens","outputs":[],"stateMutability":"nonpayable","type":"function"},{"inputs":[],"name":"endpoint","outputs":[{"internalType":"contract ILayerZeroEndpoint","name":"","type":"address"}],"stateMutability":"view","type":"function"},{"inputs":[{"internalType":"bytes32","name":"transferId","type":"bytes32"}],"name":"executeDelayedTransfer","outputs":[],"stateMutability":"nonpayable","type":"function"},{"inputs":[{"internalType":"address","name":"_token","type":"address"},{"internalType":"address","name":"_endpoint","type":"address"},{"internalType":"uint256","name":"_minGasForTransfer","type":"uint256"}],"name":"initialize","outputs":[],"stateMutability":"nonpayable","type":"function"},{"inputs":[{"internalType":"address","name":"to","type":"address"},{"internalType":"uint256","name":"amount","type":"uint256"}],"name":"initiateTransfer","outputs":[],"stateMutability":"nonpayable","type":"function"},{"inputs":[{"internalType":"uint256","name":"amount","type":"uint256"},{"internalType":"string","name":"targetChain","type":"string"},{"internalType":"address","name":"targetAddress","type":"address"}],"name":"lockTokens","outputs":[],"stateMutability":"nonpayable","type":"function"},{"inputs":[{"internalType":"uint16","name":"_srcChainId","type":"uint16"},{"internalType":"bytes","name":"_srcAddress","type":"bytes"},{"internalType":"uint64","name":"_nonce","type":"uint64"},{"internalType":"bytes","name":"_payload","type":"bytes"}],"name":"lzReceive","outputs":[],"stateMutability":"nonpayable","type":"function"},{"inputs":[],"name":"minGasForTransfer","outputs":[{"internalType":"uint256","name":"","type":"uint256"}],"stateMutability":"view","type":"function"},{"inputs":[{"internalType":"address","name":"to","type":"address"},{"internalType":"uint256","name":"amount","type":"uint256"},{"internalType":"string","name":"sourceChain","type":"string"},{"internalType":"bytes32","name":"transactionHash","type":"bytes32"}],"name":"mintTokens","outputs":[{"internalType":"bool","name":"","type":"bool"}],"stateMutability":"nonpayable","type":"function"},{"inputs":[],"name":"owner","outputs":[{"internalType":"address","name":"","type":"address"}],"stateMutability":"view","type":"function"},{"inputs":[{"internalType":"bytes32","name":"","type":"bytes32"}],"name":"pendingTransfers","outputs":[{"internalType":"address","name":"recipient","type":"address"},{"internalType":"uint256","name":"amount","type":"uint256"},{"internalType":"uint256","name":"timestamp","type":"uint256"},{"internalType":"bool","name":"processed","type":"bool"}],"stateMutability":"view","type":"function"},{"inputs":[{"internalType":"bytes32","name":"transferId","type":"bytes32"}],"name":"processDelayedTransfer","outputs":[],"stateMutability":"nonpayable","type":"function"},{"inputs":[{"internalType":"bytes32","name":"","type":"bytes32"}],"name":"processedHashes","outputs":[{"internalType":"bool","name":"","type":"bool"}],"stateMutability":"view","type":"function"},{"inputs":[{"internalType":"uint16","name":"chainId","type":"uint16"},{"internalType":"address","name":"remoteBridge","type":"address"},{"internalType":"bool","name":"enabled","type":"bool"}],"name":"registerChain","outputs":[],"stateMutability":"nonpayable","type":"function"},{"inputs":[{"internalType":"address","name":"to","type":"address"},{"internalType":"uint256","name":"amount","type":"uint256"},{"internalType":"string","name":"sourceChain","type":"string"},{"internalType":"bytes32","name":"transactionHash","type":"bytes32"}],"name":"releaseTokens","outputs":[],"stateMutability":"nonpayable","type":"function"},{"inputs":[{"internalType":"uint16","name":"","type":"uint16"}],"name":"remoteBridges","outputs":[{"internalType":"address","name":"","type":"address"}],"stateMutability":"view","type":"function"},{"inputs":[],"name":"renounceOwnership","outputs":[],"stateMutability":"nonpayable","type":"function"},{"inputs":[{"internalType":"address","name":"tokenAddress","type":"address"},{"internalType":"uint256","name":"amount","type":"uint256"}],"name":"rescueTokens","outputs":[],"stateMutability":"nonpayable","type":"function"},{"inputs":[{"internalType":"uint16","name":"_srcChainId","type":"uint16"},{"internalType":"bytes","name":"_srcAddress","type":"bytes"},{"internalType":"bytes","name":"","type":"bytes"}],"name":"retryPayload","outputs":[],"stateMutability":"nonpayable","type":"function"},{"inputs":[{"internalType":"uint16","name":"targetChainId","type":"uint16"},{"internalType":"address","name":"targetAddress","type":"address"},{"internalType":"uint256","name":"amount","type":"uint256"}],"name":"sendTokens","outputs":[],"stateMutability":"payable","type":"function"},{"inputs":[{"internalType":"address","name":"account","type":"address"},{"internalType":"bool","name":"blocked","type":"bool"}],"name":"setBlockedAddress","outputs":[],"stateMutability":"nonpayable","type":"function"},{"inputs":[{"internalType":"uint256","name":"_minGasForTransfer","type":"uint256"}],"name":"setMinGasForTransfer","outputs":[],"stateMutability":"nonpayable","type":"function"},{"inputs":[{"internalType":"uint16","name":"","type":"uint16"}],"name":"supportedChains","outputs":[{"internalType":"address","name":"remoteBridge","type":"address"},{"internalType":"bool","name":"enabled","type":"bool"}],"stateMutability":"view","type":"function"},{"inputs":[{"internalType":"uint16","name":"chainId","type":"uint16"},{"internalType":"bool","name":"enabled","type":"bool"}],"name":"toggleChain","outputs":[],"stateMutability":"nonpayable","type":"function"},{"inputs":[],"name":"token","outputs":[{"internalType":"contract INooriToken","name":"","type":"address"}],"stateMutability":"view","type":"function"},{"inputs":[{"internalType":"address","name":"newOwner","type":"address"}],"name":"transferOwnership","outputs":[],"stateMutability":"nonpayable","type":"function"},{"inputs":[{"internalType":"address","name":"newAddress","type":"address"}],"name":"updateToken","outputs":[],"stateMutability":"nonpayable","type":"function"}],"evm":{"bytecode":{"linkReferences":{},"object":"60806040523461002257610011610027565b604051612da86101898239612da890f35b600080fd5b61002f6100aa565b565b61003e9060401c60ff1690565b90565b61003e9054610031565b61003e905b6001600160401b031690565b61003e905461004b565b61003e90610050906001600160401b031682565b9061008a61003e6100a692610066565b82546001600160401b0319166001600160401b03919091161790565b9055565b60006100b4610142565b016100be81610041565b610130576100cb8161005c565b6001600160401b03919082908116036100e2575050565b816101117fc7f505b2f371ae2175ee4913f4499e1f2633a7b5936321eed1cdaeb6115181d29361012b9361007a565b604051918291826001600160401b03909116815260200190565b0390a1565b63f92ee8a960e01b6000908152600490fd5b61003e610180565b61003e61003e61003e9290565b61003e7ff0c57e16840df040f15088dc2f81fe391c3923bec73e23a9662efc9c229c6a0061014a565b61003e61015756fe6080604052600436101561001257600080fd5b60003560e01c80621d35671461020157806307d9c534146101fc57806310d58783146101f75780631794bb3c146101f25780633c43d99d146101ed5780634514ad12146101e85780634f93208a146101e357806357376198146101de5780635745a3a2146101d95780635e280f11146101d4578063715018a6146101cf57806374be2150146101ca5780637ad3def2146101c55780638d4ab2c0146101c05780638da5cb5b146101bb57806392d5011f146101b65780639e25fc5c146101b1578063aaff5f16146101ac578063b2f18522146101a7578063b504cd1e146101a2578063b932aa371461019d578063be6cd04f14610198578063cfa713a314610193578063d01292dd1461018e578063d5e42e2c14610189578063e331de2b14610184578063e71a02e11461017f578063f2fde38b1461017a578063f6a0817b14610175578063fb7a9479146101705763fc0c546a0361021357610b4d565b610b27565b610af9565b610ab8565b610a9d565b610a6d565b610a52565b610a0e565b6109f6565b6109da565b61097d565b610948565b610929565b6108b9565b61084d565b610834565b6107d4565b610793565b6106ec565b6106bc565b610685565b61065e565b610609565b6105f0565b6105b9565b610539565b6104f8565b6104c6565b610452565b610370565b6102da565b61ffff81165b0361021357565b600080fd5b9050359061022582610206565b565b909182601f83011215610213578135916001600160401b03831161021357602001926001830284011161021357565b6001600160401b03811661020c565b9050359061022582610256565b9091608082840312610213576102888383610218565b9260208301356001600160401b03811161021357816102a8918501610227565b9290936102b88360408301610265565b9260608201356001600160401b038111610213576102d69201610227565b9091565b34610213576102f96102ed366004610272565b94939093929192610fff565b60405180805b0390f35b8061020c565b9050359061022582610303565b906020828203126102135761032a91610309565b90565b905b600052602052604060002090565b61032a916008021c5b60ff1690565b9061032a915461033d565b600061036761032a92600161032d565b61034c565b9052565b34610213576102ff61038b610386366004610316565b610357565b6040515b91829182901515815260200190565b906020828203126102135761032a91610218565b6103c361032a61032a9261ffff1690565b61ffff1690565b9061032f906103b2565b61032a905b6001600160a01b031690565b61032a90546103d4565b61032a9060a01c610346565b61032a90546103ef565b6104109060056103ca565b9061032a600061041f846103e5565b93016103fb565b61036c906103d9565b91602061022592949361044a60408201966000830190610426565b019015159052565b346102135761046a61046536600461039e565b610405565b906102ff61047760405190565b9283928361042f565b61020c816103d9565b9050359061022582610480565b90916060828403126102135761032a6104af8484610489565b9360406104bf8260208701610489565b9401610309565b34610213576102f96104d9366004610496565b9161164f565b90916060828403126102135761032a6104af8484610218565b6102f96105063660046104df565b91611ac2565b600091031261021357565b61032a916008021c81565b9061032a9154610517565b61032a60006006610522565b346102135761054936600461050c565b6102ff61055461052d565b6040515b9182918290815260200190565b906020828203126102135761032a91610489565b61032a906103d9906001600160a01b031682565b61032a90610579565b61032a9061058d565b9061032f90610596565b600061036761032a92600761059f565b34610213576102ff61038b6105cf366004610565565b6105a9565b91906040838203126102135761032a9060206104bf8286610489565b34610213576102f96106033660046105d4565b90611bb9565b34610213576102f961061c366004610316565b611e3e565b61032a916008021c6103d9565b9061032a9154610621565b61032a6000600361062e565b61036c90610596565b6020810192916102259190610645565b346102135761066e36600461050c565b6102ff610679610639565b6040519182918261064e565b346102135761069536600461050c565b6102f9611e64565b6103c361032a61032a9290565b61032a600161069d565b61032a6106aa565b34610213576106cc36600461050c565b6102ff6106d76106b4565b6040519182918261ffff909116815260200190565b34610213576102f96106ff366004610565565b611ece565b61032a9081565b61032a9054610704565b61032a90610346565b61032a9054610715565b61073390600461032d565b9061073d826103e5565b9161074a6001820161070b565b9161032a600361075c6002850161070b565b930161071e565b61044a6102259461078c606094989795610785608086019a6000870190610426565b6020850152565b6040830152565b34610213576102ff6107ae6107a9366004610316565b610728565b906107bb94929460405190565b94859485610763565b6020810192916102259190610426565b34610213576107e436600461050c565b6102ff6107ef611ed7565b6040515b918291826107c4565b80151561020c565b90503590610225826107fc565b91906040838203126102135761032a90602061082d8286610489565b9401610804565b34610213576102f9610847366004610811565b90611f1e565b34610213576102f9610860366004610316565b611f8a565b606081830312610213576108798282610218565b9260208201356001600160401b0381116102135783610899918401610227565b92909360408201356001600160401b038111610213576102d69201610227565b34610213576102f96108cc366004610865565b93929092612048565b919091608081840312610213576108ec8382610489565b926108fa8160208401610309565b9260408301356001600160401b038111610213578261092060609461032a938701610227565b94909501610309565b34610213576102ff61038b61093f3660046108d5565b939290926122ac565b34610213576102f961095b3660046105d4565b90612381565b91906040838203126102135761032a90602061082d8286610218565b34610213576102f9610990366004610961565b9061247e565b90606082820312610213576109ab8183610309565b9260208301356001600160401b03811161021357826109d160409461032a938701610227565b94909501610489565b34610213576102f96109ed366004610996565b929190916125f8565b34610213576102f9610a09366004610316565b61261b565b34610213576102f9610a213660046108d5565b939290926126d2565b61032a61032a61032a9290565b61032a69152d02c7e14af6800000610a2a565b61032a610a37565b3461021357610a6236600461050c565b6102ff610554610a4a565b34610213576102f9610a80366004610996565b92919091612799565b61032a62015180610a2a565b61032a610a89565b3461021357610aad36600461050c565b6102ff610554610a95565b34610213576102f9610acb366004610565565b6127f7565b90916060828403126102135761032a610ae98484610218565b93604061082d8260208701610489565b34610213576102f9610b0c366004610ad0565b916129b9565b6000610b2261032a9260026103ca565b61062e565b34610213576102ff6107ef610b3d36600461039e565b610b12565b61032a60008061062e565b3461021357610b5d36600461050c565b6102ff610679610b42565b0190565b15610b7357565b60405162461bcd60e51b815260206004820152601760248201527f496e76616c696420656e64706f696e742063616c6c6572000000000000000000604482015280606481015b0390fd5b15610bc457565b60405162461bcd60e51b815260206004820152601360248201527210da185a5b881b9bdd081cdd5c1c1bdc9d1959606a1b6044820152606490fd5b356bffffffffffffffffffffffff19169060148110610c1c575090565b610c39906bffffffffffffffffffffffff19906014036008021b90565b1690565b61032a9060601c610579565b61032a90610c3d565b15610c5957565b60405162461bcd60e51b8152602060048201526015602482015274496e76616c696420736f757263652062726964676560581b6044820152606490fd5b6103d961032a61032a9290565b61032a90610c96565b15610cb357565b60405162461bcd60e51b8152602060048201526011602482015270125b9d985b1a59081c9958da5c1a595b9d607a1b6044820152606490fd5b634e487b7160e01b600052604160045260246000fd5b90601f01601f191681019081106001600160401b03821117610d2357604052565b610cec565b90505190610225826107fc565b906020828203126102135761032a91610d28565b916020610225929493610d6460408201966000830190610426565b0152565b6040513d6000823e3d90fd5b15610d7b57565b60405162461bcd60e51b815260206004820152600e60248201526d135a5b9d1a5b99c819985a5b195960921b6044820152606490fd5b61036c9061ffff1660f01b90565b90610b68610ddb60029365636861696e2d60d01b815260060190565b8092610db1565b61032a61032a61032a926001600160401b031690565b60005b838110610e0b5750506000910152565b8181015183820152602001610dfb565b610e3c610e45602093610b6893610e30815190565b80835293849260200190565b95869101610df8565b601f01601f191690565b908152929161022591604090610e719060608701908782036020890152610e1b565b940152565b90826000939282370152565b9091610b689083908093610e76565b61036c906001600160401b031660c01b90565b610eb061036c916103d9565b60601b90565b610b6894610ee8610ee16020999895601497600286610eda600898610ef09a610db1565b0191610e82565b8092610e91565b018092610ea4565b01918252565b90610225610f0360405190565b9283610d02565b61032a6080610ef6565b9061036c906103d9565b61032a90516103d9565b906001600160a01b03905b9181191691161790565b90610f4d61032a610f5492610596565b8254610f28565b9055565b9060001990610f33565b90610f7261032a610f5492610a2a565b8254610f58565b9060ff90610f33565b90610f9261032a610f5492151590565b8254610f79565b6003610fee606061022594610fb9610fb360008301610f1e565b86610f3d565b610fd0610fc7602083015190565b60018701610f62565b610fe7610fde604083015190565b60028701610f62565b0151151590565b9101610f82565b9061022591610f99565b936110979061109e9661103461102561102061101b60036103e5565b610596565b6103d9565b61102e336103d9565b14610b6c565b61105261104d60006110478a60056103ca565b016103fb565b610bbd565b61108f6110676110628787610bff565b610c49565b611089611083611020600061107d8d60056103ca565b016103e5565b916103d9565b14610c52565b8101906105d4565b9590610596565b936000936110c16110b161102087610ca3565b6110ba886103d9565b1415610cac565b6110cc61032a610a37565b8711156111a0579361032a61119b946111306111919561118b956111248c8c7ff5949f687937bd6768db11a421feb8c55deed44c9bc8e6e25efe684d2968300c9c61111660405190565b978896602088019687610eb6565b90810382520382610d02565b61114261113b825190565b9160200190565b209161117b61114f610f0a565b9161115c8a828501610f14565b6111678b6020850152565b611172426040850152565b15156060830152565b61118683600461032d565b610ff5565b93610596565b9361055860405190565b0390a3565b9391509394915060206111b561101b836103e5565b916111bf60405190565b92839182906308934a5f60e31b8252816111dd888c60048401610d49565b03925af1801561128d5761124061123b611235600080516020612d5383398151915297611219611246956112599760009161125e575b50610d74565b61032a61122560405190565b8092611124602083019182610dbf565b95610de2565b610a2a565b95610596565b9461125060405190565b93849384610e4f565b0390a2565b611280915060203d602011611286575b6112788183610d02565b810190610d35565b38611213565b503d61126e565b610d68565b61032a9060401c610346565b61032a9054611292565b61032a905b6001600160401b031690565b61032a90546112a8565b6112ad61032a61032a9290565b906001600160401b0390610f33565b6112ad61032a61032a926001600160401b031690565b9061130561032a610f54926112df565b82546112d0565b9068ff00000000000000009060401b610f33565b9061133061032a610f5492151590565b825461130c565b61036c906112c3565b6020810192916102259190611337565b906113596129c4565b92839061137561136f61136b8461129e565b1590565b926112b9565b92600094611382866112c3565b6001600160401b0386161480611482575b6001956113af6113a2886112c3565b916001600160401b031690565b14908161145a575b155b9081611451575b5061144257906113eb9291846113e2886113d9896112c3565b9a01998a6112f5565b61143357611582565b6113f457505050565b61142261142e927fc7f505b2f371ae2175ee4913f4499e1f2633a7b5936321eed1cdaeb6115181d294611320565b60405191829182611340565b0390a1565b61143d8689611320565b611582565b63f92ee8a960e01b8652600486fd5b159050386113c0565b90506113b961146830610596565b3b6114796114758a610a2a565b9190565b149190506113b7565b5083611393565b1561149057565b60405162461bcd60e51b8152602060048201526015602482015274496e76616c696420746f6b656e206164647265737360581b6044820152606490fd5b156114d457565b60405162461bcd60e51b815260206004820152601860248201527f496e76616c696420656e64706f696e74206164647265737300000000000000006044820152606490fd5b1561152057565b60405162461bcd60e51b8152602060048201526015602482015274496e76616c6964206d696e206761732076616c756560581b6044820152606490fd5b91602061022592949361157860408201966000830190610426565b019061ffff169052565b907f9791fb750d6c4d3651a42030e2ddcf3cdabfe8b1a4544b5b4d615111ca343c169261162a611623611631936115b8336129e1565b6115c06129fd565b6115fc6115ec6115d06000610ca3565b6110206115dc826103d9565b6115e58b6103d9565b1415611489565b6115f5836103d9565b14156114cd565b6116106116096000610a2a565b8511611519565b61101b61161c87610596565b6000610f3d565b6003610f3d565b6006610f62565b6116396106aa565b9061142e61164660405190565b9283928361155d565b906102259291611350565b9061166d9291611668612a0f565b6116b6565b610225612a70565b1561167c57565b60405162461bcd60e51b81526020600482015260126024820152711059191c995cdcc81a5cc8189b1bd8dad95960721b6044820152606490fd5b9061022592916116da6116d561136b6116d033600761059f565b61071e565b611675565b9061022592916116f46116d561136b6116d085600761059f565b6118bc565b1561170057565b60405162461bcd60e51b815260206004820152601d60248201527f416d6f756e74206d7573742062652067726561746572207468616e20300000006044820152606490fd5b1561174c57565b60405162461bcd60e51b815260206004820152601860248201527f436861696e206272696467652069732064697361626c656400000000000000006044820152606490fd5b1561179857565b60405162461bcd60e51b815260206004820152601960248201527f496e73756666696369656e74206761732070726f7669646564000000000000006044820152606490fd5b61ffff9091168152606081019392610225929091604091610d64905b6020830190610426565b610b6881601493610ea4565b6001600160401b038111610d2357602090601f01601f19160190565b9061183d6118388361180f565b610ef6565b918252565b61032a600061182b565b61032a611842565b9261189a6118a59161188c61032a999798946118af9661187f60c08a019260008b019061ffff169052565b88820360208a0152610e1b565b908682036040880152610e1b565b956060850190610426565b6080830190610426565b60a0818403910152610e1b565b91906000926118d56118cd85610a2a565b845b116116f9565b6005926118e68561107d84876103ca565b926119076118f387610ca3565b94611900611083876103d9565b1415610bbd565b61191d6119188761104786896103ca565b611745565b61193561192d61032a600661070b565b341015611791565b61194161101b876103e5565b91823b15610213578661195360405190565b93849063079cc67960e41b8252818381611971873360048401610d49565b03925af191821561128d57611124936119de93611aa6575b5061199333610596565b7fc16a36dcb251f4c00971094fbeffdb9eee9c1f58125de0f87a424bbacd3f87ca6119bd60405190565b806119ca86868b846117dd565b0390a2604051938492602084019283610d49565b6119eb61101b60036103e5565b906119ff8661107d8563c5803100986103ca565b94611a28611a0c60405190565b8097611a1c602083019182611803565b90810382520387610d02565b611a3133610596565b91611a3a61184c565b843b15610213578896611a6194611a6c93611a5460405190565b9a8b998a98899860e01b90565b885260048801611854565b039134905af1801561128d57611a80575050565b8161022592903d10611a9f575b611a978183610d02565b81019061050c565b503d611a8d565b611abc90893d8b11611a9f57611a978183610d02565b38611989565b90610225929161165a565b9061022591611ada612aa5565b611b2b565b15611ae657565b60405162461bcd60e51b815260206004820152601a60248201527f43616e6e6f74207265736375652062726964676520746f6b656e0000000000006044820152606490fd5b611b8d91611b5b61101b60209361101b611b4b61102061101b60006103e5565b611b54836103d9565b1415611adf565b611b63611ed7565b6000611b6e60405190565b809681958294611b8263a9059cbb60e01b90565b845260048401610d49565b03925af1801561128d57611b9e5750565b611bb69060203d602011611286576112788183610d02565b50565b9061022591611acd565b61022590611bcf612aa5565b61166d90611bdb612a0f565b611d1d565b15611be757565b60405162461bcd60e51b8152602060048201526012602482015271151c985b9cd9995c881b9bdd08199bdd5b9960721b6044820152606490fd5b15611c2857565b60405162461bcd60e51b815260206004820152601a60248201527f5472616e7366657220616c72656164792070726f6365737365640000000000006044820152606490fd5b634e487b7160e01b600052601160045260246000fd5b91908201809211611c9057565b611c6d565b15611c9c57565b60405162461bcd60e51b815260206004820152601860248201527f44656c617920706572696f64206e6f7420656c617073656400000000000000006044820152606490fd5b9081526060602082018190526010908201526f3232b630bcb2b216ba3930b739b332b960811b6080820152919061022590604060a08501940152565b611de7611d2e61032a83600461032d565b91611d52611d3b846103e5565b611d4b6110836110206000610ca3565b1415611be0565b611d9f600160038501611d6f611d6a61136b8361071e565b611c21565b611d9a611d9261032a611d8460028a0161070b565b611d8c610a89565b90611c83565b421015611c95565b610f82565b611dac61101b60006103e5565b926020816001611dbb826103e5565b910195611dc78761070b565b916000611dd360405190565b809881958294611b8263449a52f860e01b90565b03925af192831561128d57611e22611e2892611e1d600080516020612d538339815191529661118b9460009161125e5750610d74565b6103e5565b9461070b565b92611259611e3560405190565b92839283611ce1565b61022590611bc3565b611e4f612aa5565b610225610225611e5f6000610ca3565b612adc565b610225611e47565b61022590611e78612aa5565b61166d90611e84612a0f565b61142e7f5ba6b30cd4b2f9e9e67f4feb9b9df10d5da3b057598e6901b217b7d590345e3091611ec2611eb96110206000610ca3565b6115e5836103d9565b6107ef61161c82610596565b61022590611e6c565b61032a60007f9016d09d72d40fdae2fd8ceac6b6234c7706214fd39c1cd1e609a0528c19930061107d565b9061022591611f0f612aa5565b90611d9a61022592600761059f565b9061022591611f02565b61022590611f34612aa5565b611f4561032a61022592600461032d565b611f57611d92611d846002840161070b565b611f6f600160038301611d9a611d6a61136b8361071e565b611f846001611f7d836103e5565b920161070b565b90612bcb565b61022590611f28565b9061022594939291611fa3612aa5565b611fe4565b9190610e4581611fbf81610b689560209181520190565b8095610e76565b61ffff91909116815260406020820181905261032a93910191611fa8565b92509250611ff561101b60036103e5565b803b1561021357612027936000809461200d60405190565b968795869485936342d65a8d60e01b855260048501611fc6565b03925af1801561128d576120385750565b610225906000611a978183610d02565b9061022594939291611f93565b9061032a9594939291612066612aa5565b9061207c9594939291612077612a0f565b61218c565b90610225612a70565b1561208c57565b60405162461bcd60e51b815260206004820152601d60248201527f5472616e73616374696f6e20616c72656164792070726f6365737365640000006044820152606490fd5b156120d857565b60405162461bcd60e51b8152602060048201526016602482015275496e76616c696420746172676574206164647265737360501b6044820152606490fd5b1561211d57565b60405162461bcd60e51b815260206004820152601860248201527f416d6f756e742065786365656473207468726573686f6c6400000000000000006044820152606490fd5b94939160409161022594610e719261217f60608a019360008b0152565b88830360208a0152611fa8565b50939291906121ee60016121ae6121a961136b6116d0898561032d565b612085565b6121ce6121be6110206000610ca3565b6121c7896103d9565b14156120d1565b6121e46121dc61032a610a37565b841115612116565b611d9a868261032d565b6121fb61101b60006103e5565b93602061220760405190565b9586906308934a5f60e31b825281600081612226888d60048401610d49565b03925af194851561128d57600095612271575b5061226b90612258600080516020612d53833981519152959697610596565b9561226260405190565b94859485612162565b0390a290565b600080516020612d53833981519152949550906122586122a261226b9360203d602011611286576112788183610d02565b9695505090612239565b61032a94939291906000612055565b9061166d916122c8612a0f565b6122f4565b604090610d6461022594969593966122ed60608401986000850190610426565b6020830152565b600061230e61230561102083610ca3565b6110ba846103d9565b61231a6118cd82610a2a565b61232561032a610a37565b83106123765761119b61119161118b7ff5949f687937bd6768db11a421feb8c55deed44c9bc8e6e25efe684d2968300c9361032a61236260405190565b6111308160208101611124428d8d846122cd565b509061022591612bcb565b90610225916122bb565b9061022591612398612aa5565b612406565b156123a457565b60405162461bcd60e51b815260206004820152601460248201527310da185a5b881b9bdd081c9959da5cdd195c995960621b6044820152606490fd5b9060ff60a01b9060a01b610f33565b906123ff61032a610f5492151590565b82546123e0565b6112596124747f3670c8077fe2b25f52efd0a9d8d4a2745875be1f4bd3296b938d456e55b63cee92612458612441600061107d8460056103ca565b6124516110836110206000610ca3565b141561239d565b61246f8560006124698460056103ca565b016123ef565b6103b2565b9261038f60405190565b906102259161238b565b9061166d939291612497612a0f565b61251f565b604090610d6461022594969593966117f960608401986000850190610426565b156124c357565b60405162461bcd60e51b815260206004820152600f60248201526e151c985b9cd9995c8819985a5b1959608a1b6044820152606490fd5b949391604091610225946125179261217f60608a019360008b0152565b940190610426565b61257b92936125376125316000610a2a565b836118cf565b60208261254761101b60006103e5565b61255030610596565b600061255b60405190565b80998195829461256f6323b872dd60e01b90565b8452336004850161249c565b03925af190811561128d576125bd611259927f8786e6ec8d013cb6dfb1b71a429e4f9d6f71acfb1f381106e217046664ad90c6966000916125d9575b506124bc565b6125c633610596565b956125d060405190565b948594856124fa565b6125f2915060203d602011611286576112788183610d02565b386125b7565b90610225939291612488565b61022590612610612aa5565b610225906006610f62565b61022590612604565b9061022594939291612634612aa5565b9061166d94939291612644612a0f565b9293612668600161265e6121a961136b6116d0868561032d565b611d9a838261032d565b61267561101b60006103e5565b90602061268160405190565b92839063a9059cbb60e01b8252816000816126a0898c60048401610d49565b03925af1801561128d57600080516020612d538339815191529561101b61225892611259956000916125d957506124bc565b9061022594939291612624565b9061166d9392916126ee612a0f565b92919260006126ff61253182610a2a565b61270b61101b826103e5565b93843b15610213578161271d60405190565b95869063079cc67960e41b825281838161273b893360048401610d49565b03925af191821561128d577f8786e6ec8d013cb6dfb1b71a429e4f9d6f71acfb1f381106e217046664ad90c6956112599361277c575b50506125c633610596565b8161279292903d10611a9f57611a978183610d02565b3880612771565b906102259392916126df565b610225906127b1612aa5565b60006127bc81610ca3565b6127c5816103d9565b6127ce846103d9565b146127de57505061022590612adc565b631e4fbdf760e01b82528190610bb990600483016107c4565b610225906127a5565b90610225929161280e612aa5565b6128da565b1561281a57565b60405162461bcd60e51b8152602060048201526015602482015274496e76616c69642072656d6f74652062726964676560581b6044820152606490fd5b1561285e57565b60405162461bcd60e51b815260206004820152601c60248201527f43616e6e6f7420726567697374657220736f7572636520636861696e000000006044820152606490fd5b61032a6040610ef6565b610225916128ca90602090610fe76128c482610f1e565b85610f3d565b906123ef565b90610225916128ad565b907fb2f92ae146563fe193b48846974f797b06908d26dab8e3598ea23a1edb83141d61296b61297794936129246129146110206000610ca3565b61291d866103d9565b1415612813565b61293e6129326103c36106aa565b61ffff83161415612857565b61246f6129496128a3565b6129538682610f14565b86151560208201526129668360056103ca565b6128d0565b9384926107f360405190565b0390a26129815750565b7f3670c8077fe2b25f52efd0a9d8d4a2745875be1f4bd3296b938d456e55b63cee6129ab60405190565b600181528060208101611259565b906102259291612800565b61032a612cef565b610225906129d8612cf7565b61022590612d26565b610225906129cc565b6129f2612cf7565b610225610225612d37565b6102256129ea565b61032a6002610a2a565b7f9b779b17422d0df92223018b32b4d1fa46e071723d6817e2486d003becc55f00612a398161070b565b612a41612a05565b908114612a515761022591610f62565b633ee5aeb560e01b600090815260045b036000fd5b61032a6001610a2a565b6102257f9b779b17422d0df92223018b32b4d1fa46e071723d6817e2486d003becc55f006000612a9e612a66565b9101610f62565b612aad611ed7565b3390612abb611083836103d9565b03612ac35750565b63118cdaa760e01b600090815290612a619060046107c4565b612b1c612b167f9016d09d72d40fdae2fd8ceac6b6234c7706214fd39c1cd1e609a0528c19930061101b84612b10836103e5565b92610f3d565b91610596565b907f8be0079c531659141344cd1fd0a4f28419497f9722a3daafe3b4186f6b6457e0612b4760405190565b808061119b565b15612b5557565b60405162461bcd60e51b8152602060048201526014602482015273149958da5c1a595b9d081a5cc8189b1bd8dad95960621b6044820152606490fd5b908152606060208201819052600e908201526d3637b1b0b616ba3930b739b332b960911b6080820152919061022590604060a08501940152565b612be4612bdb6110206000610ca3565b6110ba836103d9565b612bf16125316000610a2a565b612c0a612c0561136b6116d084600761059f565b612b4e565b612c1761101b60006103e5565b906020612c2360405190565b9283906308934a5f60e31b825281600081612c42898860048401610d49565b03925af191821561128d57600080516020612d5383398151915292612c6e916000916125d957506124bc565b612cb0612c7a60405190565b426020808301918252612c9e9183916111249089610b6860148a610ef08588610ee8565b612ca961113b825190565b2091610596565b92611259612cbd60405190565b92839283612b91565b61032a7ff0c57e16840df040f15088dc2f81fe391c3923bec73e23a9662efc9c229c6a00610a2a565b61032a612cc6565b612d0261136b612d3f565b612d0857565b631afcd79f60e31b6000908152600490fd5b610225906127b1612cf7565b61022590612d1a565b61166d612cf7565b610225612d2f565b61032a6000612d4c6129c4565b0161129e56fe7b93d20aa9666fff2b9034d25db8eefa4ada8752b0b713f599e9da3bd437e192a2646970667358221220a63b88ed8a7174cbee6b0934682ff519e1d0f988a435383383c3993feb6ed79464736f6c634300081b0033","opcodes":"PUSH1 0x80 PUSH1 0x40 MSTORE CALLVALUE PUSH2 0x22 JUMPI PUSH2 0x11 PUSH2 0x27 JUMP JUMPDEST PUSH1 0x40 MLOAD PUSH2 0x2DA8 PUSH2 0x189 DUP3 CODECOPY PUSH2 0x2DA8 SWAP1 RETURN JUMPDEST PUSH1 0x0 DUP1 REVERT JUMPDEST PUSH2 0x2F PUSH2 0xAA JUMP JUMPDEST JUMP JUMPDEST PUSH2 0x3E SWAP1 PUSH1 0x40 SHR PUSH1 0xFF AND SWAP1 JUMP JUMPDEST SWAP1 JUMP JUMPDEST PUSH2 0x3E SWAP1 SLOAD PUSH2 0x31 JUMP JUMPDEST PUSH2 0x3E SWAP1 JUMPDEST PUSH1 0x1 PUSH1 0x1 PUSH1 0x40 SHL SUB AND SWAP1 JUMP JUMPDEST PUSH2 0x3E SWAP1 SLOAD PUSH2 0x4B JUMP JUMPDEST PUSH2 0x3E SWAP1 PUSH2 0x50 SWAP1 PUSH1 0x1 PUSH1 0x1 PUSH1 0x40 SHL SUB AND DUP3 JUMP JUMPDEST SWAP1 PUSH2 0x8A PUSH2 0x3E PUSH2 0xA6 SWAP3 PUSH2 0x66 JUMP JUMPDEST DUP3 SLOAD PUSH1 0x1 PUSH1 0x1 PUSH1 0x40 SHL SUB NOT AND PUSH1 0x1 PUSH1 0x1 PUSH1 0x40 SHL SUB SWAP2 SWAP1 SWAP2 AND OR SWAP1 JUMP JUMPDEST SWAP1 SSTORE JUMP JUMPDEST PUSH1 0x0 PUSH2 0xB4 PUSH2 0x142 JUMP JUMPDEST ADD PUSH2 0xBE DUP2 PUSH2 0x41 JUMP JUMPDEST PUSH2 0x130 JUMPI PUSH2 0xCB DUP2 PUSH2 0x5C JUMP JUMPDEST PUSH1 0x1 PUSH1 0x1 PUSH1 0x40 SHL SUB SWAP2 SWAP1 DUP3 SWAP1 DUP2 AND SUB PUSH2 0xE2 JUMPI POP POP JUMP JUMPDEST DUP2 PUSH2 0x111 PUSH32 0xC7F505B2F371AE2175EE4913F4499E1F2633A7B5936321EED1CDAEB6115181D2 SWAP4 PUSH2 0x12B SWAP4 PUSH2 0x7A JUMP JUMPDEST PUSH1 0x40 MLOAD SWAP2 DUP3 SWAP2 DUP3 PUSH1 0x1 PUSH1 0x1 PUSH1 0x40 SHL SUB SWAP1 SWAP2 AND DUP2 MSTORE PUSH1 0x20 ADD SWAP1 JUMP JUMPDEST SUB SWAP1 LOG1 JUMP JUMPDEST PUSH4 0xF92EE8A9 PUSH1 0xE0 SHL PUSH1 0x0 SWAP1 DUP2 MSTORE PUSH1 0x4 SWAP1 REVERT JUMPDEST PUSH2 0x3E PUSH2 0x180 JUMP JUMPDEST PUSH2 0x3E PUSH2 0x3E PUSH2 0x3E SWAP3 SWAP1 JUMP JUMPDEST PUSH2 0x3E PUSH32 0xF0C57E16840DF040F15088DC2F81FE391C3923BEC73E23A9662EFC9C229C6A00 PUSH2 0x14A JUMP JUMPDEST PUSH2 0x3E PUSH2 0x157 JUMP INVALID PUSH1 0x80 PUSH1 0x40 MSTORE PUSH1 0x4 CALLDATASIZE LT ISZERO PUSH2 0x12 JUMPI PUSH1 0x0 DUP1 REVERT JUMPDEST PUSH1 0x0 CALLDATALOAD PUSH1 0xE0 SHR DUP1 PUSH3 0x1D3567 EQ PUSH2 0x201 JUMPI DUP1 PUSH4 0x7D9C534 EQ PUSH2 0x1FC JUMPI DUP1 PUSH4 0x10D58783 EQ PUSH2 0x1F7 JUMPI DUP1 PUSH4 0x1794BB3C EQ PUSH2 0x1F2 JUMPI DUP1 PUSH4 0x3C43D99D EQ PUSH2 0x1ED JUMPI DUP1 PUSH4 0x4514AD12 EQ PUSH2 0x1E8 JUMPI DUP1 PUSH4 0x4F93208A EQ PUSH2 0x1E3 JUMPI DUP1 PUSH4 0x57376198 EQ PUSH2 0x1DE JUMPI DUP1 PUSH4 0x5745A3A2 EQ PUSH2 0x1D9 JUMPI DUP1 PUSH4 0x5E280F11 EQ PUSH2 0x1D4 JUMPI DUP1 PUSH4 0x715018A6 EQ PUSH2 0x1CF JUMPI DUP1 PUSH4 0x74BE2150 EQ PUSH2 0x1CA JUMPI DUP1 PUSH4 0x7AD3DEF2 EQ PUSH2 0x1C5 JUMPI DUP1 PUSH4 0x8D4AB2C0 EQ PUSH2 0x1C0 JUMPI DUP1 PUSH4 0x8DA5CB5B EQ PUSH2 0x1BB JUMPI DUP1 PUSH4 0x92D5011F EQ PUSH2 0x1B6 JUMPI DUP1 PUSH4 0x9E25FC5C EQ PUSH2 0x1B1 JUMPI DUP1 PUSH4 0xAAFF5F16 EQ PUSH2 0x1AC JUMPI DUP1 PUSH4 0xB2F18522 EQ PUSH2 0x1A7 JUMPI DUP1 PUSH4 0xB504CD1E EQ PUSH2 0x1A2 JUMPI DUP1 PUSH4 0xB932AA37 EQ PUSH2 0x19D JUMPI DUP1 PUSH4 0xBE6CD04F EQ PUSH2 0x198 JUMPI DUP1 PUSH4 0xCFA713A3 EQ PUSH2 0x193 JUMPI DUP1 PUSH4 0xD01292DD EQ PUSH2 0x18E JUMPI DUP1 PUSH4 0xD5E42E2C EQ PUSH2 0x189 JUMPI DUP1 PUSH4 0xE331DE2B EQ PUSH2 0x184 JUMPI DUP1 PUSH4 0xE71A02E1 EQ PUSH2 0x17F JUMPI DUP1 PUSH4 0xF2FDE38B EQ PUSH2 0x17A JUMPI DUP1 PUSH4 0xF6A0817B EQ PUSH2 0x175 JUMPI DUP1 PUSH4 0xFB7A9479 EQ PUSH2 0x170 JUMPI PUSH4 0xFC0C546A SUB PUSH2 0x213 JUMPI PUSH2 0xB4D JUMP JUMPDEST PUSH2 0xB27 JUMP JUMPDEST PUSH2 0xAF9 JUMP JUMPDEST PUSH2 0xAB8 JUMP JUMPDEST PUSH2 0xA9D JUMP JUMPDEST PUSH2 0xA6D JUMP JUMPDEST PUSH2 0xA52 JUMP JUMPDEST PUSH2 0xA0E JUMP JUMPDEST PUSH2 0x9F6 JUMP JUMPDEST PUSH2 0x9DA JUMP JUMPDEST PUSH2 0x97D JUMP JUMPDEST PUSH2 0x948 JUMP JUMPDEST PUSH2 0x929 JUMP JUMPDEST PUSH2 0x8B9 JUMP JUMPDEST PUSH2 0x84D JUMP JUMPDEST PUSH2 0x834 JUMP JUMPDEST PUSH2 0x7D4 JUMP JUMPDEST PUSH2 0x793 JUMP JUMPDEST PUSH2 0x6EC JUMP JUMPDEST PUSH2 0x6BC JUMP JUMPDEST PUSH2 0x685 JUMP JUMPDEST PUSH2 0x65E JUMP JUMPDEST PUSH2 0x609 JUMP JUMPDEST PUSH2 0x5F0 JUMP JUMPDEST PUSH2 0x5B9 JUMP JUMPDEST PUSH2 0x539 JUMP JUMPDEST PUSH2 0x4F8 JUMP JUMPDEST PUSH2 0x4C6 JUMP JUMPDEST PUSH2 0x452 JUMP JUMPDEST PUSH2 0x370 JUMP JUMPDEST PUSH2 0x2DA JUMP JUMPDEST PUSH2 0xFFFF DUP2 AND JUMPDEST SUB PUSH2 0x213 JUMPI JUMP JUMPDEST PUSH1 0x0 DUP1 REVERT JUMPDEST SWAP1 POP CALLDATALOAD SWAP1 PUSH2 0x225 DUP3 PUSH2 0x206 JUMP JUMPDEST JUMP JUMPDEST SWAP1 SWAP2 DUP3 PUSH1 0x1F DUP4 ADD SLT ISZERO PUSH2 0x213 JUMPI DUP2 CALLDATALOAD SWAP2 PUSH1 0x1 PUSH1 0x1 PUSH1 0x40 SHL SUB DUP4 GT PUSH2 0x213 JUMPI PUSH1 0x20 ADD SWAP3 PUSH1 0x1 DUP4 MUL DUP5 ADD GT PUSH2 0x213 JUMPI JUMP JUMPDEST PUSH1 0x1 PUSH1 0x1 PUSH1 0x40 SHL SUB DUP2 AND PUSH2 0x20C JUMP JUMPDEST SWAP1 POP CALLDATALOAD SWAP1 PUSH2 0x225 DUP3 PUSH2 0x256 JUMP JUMPDEST SWAP1 SWAP2 PUSH1 0x80 DUP3 DUP5 SUB SLT PUSH2 0x213 JUMPI PUSH2 0x288 DUP4 DUP4 PUSH2 0x218 JUMP JUMPDEST SWAP3 PUSH1 0x20 DUP4 ADD CALLDATALOAD PUSH1 0x1 PUSH1 0x1 PUSH1 0x40 SHL SUB DUP2 GT PUSH2 0x213 JUMPI DUP2 PUSH2 0x2A8 SWAP2 DUP6 ADD PUSH2 0x227 JUMP JUMPDEST SWAP3 SWAP1 SWAP4 PUSH2 0x2B8 DUP4 PUSH1 0x40 DUP4 ADD PUSH2 0x265 JUMP JUMPDEST SWAP3 PUSH1 0x60 DUP3 ADD CALLDATALOAD PUSH1 0x1 PUSH1 0x1 PUSH1 0x40 SHL SUB DUP2 GT PUSH2 0x213 JUMPI PUSH2 0x2D6 SWAP3 ADD PUSH2 0x227 JUMP JUMPDEST SWAP1 SWAP2 JUMP JUMPDEST CALLVALUE PUSH2 0x213 JUMPI PUSH2 0x2F9 PUSH2 0x2ED CALLDATASIZE PUSH1 0x4 PUSH2 0x272 JUMP JUMPDEST SWAP5 SWAP4 SWAP1 SWAP4 SWAP3 SWAP2 SWAP3 PUSH2 0xFFF JUMP JUMPDEST PUSH1 0x40 MLOAD DUP1 DUP1 JUMPDEST SUB SWAP1 RETURN JUMPDEST DUP1 PUSH2 0x20C JUMP JUMPDEST SWAP1 POP CALLDATALOAD SWAP1 PUSH2 0x225 DUP3 PUSH2 0x303 JUMP JUMPDEST SWAP1 PUSH1 0x20 DUP3 DUP3 SUB SLT PUSH2 0x213 JUMPI PUSH2 0x32A SWAP2 PUSH2 0x309 JUMP JUMPDEST SWAP1 JUMP JUMPDEST SWAP1 JUMPDEST PUSH1 0x0 MSTORE PUSH1 0x20 MSTORE PUSH1 0x40 PUSH1 0x0 KECCAK256 SWAP1 JUMP JUMPDEST PUSH2 0x32A SWAP2 PUSH1 0x8 MUL SHR JUMPDEST PUSH1 0xFF AND SWAP1 JUMP JUMPDEST SWAP1 PUSH2 0x32A SWAP2 SLOAD PUSH2 0x33D JUMP JUMPDEST PUSH1 0x0 PUSH2 0x367 PUSH2 0x32A SWAP3 PUSH1 0x1 PUSH2 0x32D JUMP JUMPDEST PUSH2 0x34C JUMP JUMPDEST SWAP1 MSTORE JUMP JUMPDEST CALLVALUE PUSH2 0x213 JUMPI PUSH2 0x2FF PUSH2 0x38B PUSH2 0x386 CALLDATASIZE PUSH1 0x4 PUSH2 0x316 JUMP JUMPDEST PUSH2 0x357 JUMP JUMPDEST PUSH1 0x40 MLOAD JUMPDEST SWAP2 DUP3 SWAP2 DUP3 SWAP1 ISZERO ISZERO DUP2 MSTORE PUSH1 0x20 ADD SWAP1 JUMP JUMPDEST SWAP1 PUSH1 0x20 DUP3 DUP3 SUB SLT PUSH2 0x213 JUMPI PUSH2 0x32A SWAP2 PUSH2 0x218 JUMP JUMPDEST PUSH2 0x3C3 PUSH2 0x32A PUSH2 0x32A SWAP3 PUSH2 0xFFFF AND SWAP1 JUMP JUMPDEST PUSH2 0xFFFF AND SWAP1 JUMP JUMPDEST SWAP1 PUSH2 0x32F SWAP1 PUSH2 0x3B2 JUMP JUMPDEST PUSH2 0x32A SWAP1 JUMPDEST PUSH1 0x1 PUSH1 0x1 PUSH1 0xA0 SHL SUB AND SWAP1 JUMP JUMPDEST PUSH2 0x32A SWAP1 SLOAD PUSH2 0x3D4 JUMP JUMPDEST PUSH2 0x32A SWAP1 PUSH1 0xA0 SHR PUSH2 0x346 JUMP JUMPDEST PUSH2 0x32A SWAP1 SLOAD PUSH2 0x3EF JUMP JUMPDEST PUSH2 0x410 SWAP1 PUSH1 0x5 PUSH2 0x3CA JUMP JUMPDEST SWAP1 PUSH2 0x32A PUSH1 0x0 PUSH2 0x41F DUP5 PUSH2 0x3E5 JUMP JUMPDEST SWAP4 ADD PUSH2 0x3FB JUMP JUMPDEST PUSH2 0x36C SWAP1 PUSH2 0x3D9 JUMP JUMPDEST SWAP2 PUSH1 0x20 PUSH2 0x225 SWAP3 SWAP5 SWAP4 PUSH2 0x44A PUSH1 0x40 DUP3 ADD SWAP7 PUSH1 0x0 DUP4 ADD SWAP1 PUSH2 0x426 JUMP JUMPDEST ADD SWAP1 ISZERO ISZERO SWAP1 MSTORE JUMP JUMPDEST CALLVALUE PUSH2 0x213 JUMPI PUSH2 0x46A PUSH2 0x465 CALLDATASIZE PUSH1 0x4 PUSH2 0x39E JUMP JUMPDEST PUSH2 0x405 JUMP JUMPDEST SWAP1 PUSH2 0x2FF PUSH2 0x477 PUSH1 0x40 MLOAD SWAP1 JUMP JUMPDEST SWAP3 DUP4 SWAP3 DUP4 PUSH2 0x42F JUMP JUMPDEST PUSH2 0x20C DUP2 PUSH2 0x3D9 JUMP JUMPDEST SWAP1 POP CALLDATALOAD SWAP1 PUSH2 0x225 DUP3 PUSH2 0x480 JUMP JUMPDEST SWAP1 SWAP2 PUSH1 0x60 DUP3 DUP5 SUB SLT PUSH2 0x213 JUMPI PUSH2 0x32A PUSH2 0x4AF DUP5 DUP5 PUSH2 0x489 JUMP JUMPDEST SWAP4 PUSH1 0x40 PUSH2 0x4BF DUP3 PUSH1 0x20 DUP8 ADD PUSH2 0x489 JUMP JUMPDEST SWAP5 ADD PUSH2 0x309 JUMP JUMPDEST CALLVALUE PUSH2 0x213 JUMPI PUSH2 0x2F9 PUSH2 0x4D9 CALLDATASIZE PUSH1 0x4 PUSH2 0x496 JUMP JUMPDEST SWAP2 PUSH2 0x164F JUMP JUMPDEST SWAP1 SWAP2 PUSH1 0x60 DUP3 DUP5 SUB SLT PUSH2 0x213 JUMPI PUSH2 0x32A PUSH2 0x4AF DUP5 DUP5 PUSH2 0x218 JUMP JUMPDEST PUSH2 0x2F9 PUSH2 0x506 CALLDATASIZE PUSH1 0x4 PUSH2 0x4DF JUMP JUMPDEST SWAP2 PUSH2 0x1AC2 JUMP JUMPDEST PUSH1 0x0 SWAP2 SUB SLT PUSH2 0x213 JUMPI JUMP JUMPDEST PUSH2 0x32A SWAP2 PUSH1 0x8 MUL SHR DUP2 JUMP JUMPDEST SWAP1 PUSH2 0x32A SWAP2 SLOAD PUSH2 0x517 JUMP JUMPDEST PUSH2 0x32A PUSH1 0x0 PUSH1 0x6 PUSH2 0x522 JUMP JUMPDEST CALLVALUE PUSH2 0x213 JUMPI PUSH2 0x549 CALLDATASIZE PUSH1 0x4 PUSH2 0x50C JUMP JUMPDEST PUSH2 0x2FF PUSH2 0x554 PUSH2 0x52D JUMP JUMPDEST PUSH1 0x40 MLOAD JUMPDEST SWAP2 DUP3 SWAP2 DUP3 SWAP1 DUP2 MSTORE PUSH1 0x20 ADD SWAP1 JUMP JUMPDEST SWAP1 PUSH1 0x20 DUP3 DUP3 SUB SLT PUSH2 0x213 JUMPI PUSH2 0x32A SWAP2 PUSH2 0x489 JUMP JUMPDEST PUSH2 0x32A SWAP1 PUSH2 0x3D9 SWAP1 PUSH1 0x1 PUSH1 0x1 PUSH1 0xA0 SHL SUB AND DUP3 JUMP JUMPDEST PUSH2 0x32A SWAP1 PUSH2 0x579 JUMP JUMPDEST PUSH2 0x32A SWAP1 PUSH2 0x58D JUMP JUMPDEST SWAP1 PUSH2 0x32F SWAP1 PUSH2 0x596 JUMP JUMPDEST PUSH1 0x0 PUSH2 0x367 PUSH2 0x32A SWAP3 PUSH1 0x7 PUSH2 0x59F JUMP JUMPDEST CALLVALUE PUSH2 0x213 JUMPI PUSH2 0x2FF PUSH2 0x38B PUSH2 0x5CF CALLDATASIZE PUSH1 0x4 PUSH2 0x565 JUMP JUMPDEST PUSH2 0x5A9 JUMP JUMPDEST SWAP2 SWAP1 PUSH1 0x40 DUP4 DUP3 SUB SLT PUSH2 0x213 JUMPI PUSH2 0x32A SWAP1 PUSH1 0x20 PUSH2 0x4BF DUP3 DUP7 PUSH2 0x489 JUMP JUMPDEST CALLVALUE PUSH2 0x213 JUMPI PUSH2 0x2F9 PUSH2 0x603 CALLDATASIZE PUSH1 0x4 PUSH2 0x5D4 JUMP JUMPDEST SWAP1 PUSH2 0x1BB9 JUMP JUMPDEST CALLVALUE PUSH2 0x213 JUMPI PUSH2 0x2F9 PUSH2 0x61C CALLDATASIZE PUSH1 0x4 PUSH2 0x316 JUMP JUMPDEST PUSH2 0x1E3E JUMP JUMPDEST PUSH2 0x32A SWAP2 PUSH1 0x8 MUL SHR PUSH2 0x3D9 JUMP JUMPDEST SWAP1 PUSH2 0x32A SWAP2 SLOAD PUSH2 0x621 JUMP JUMPDEST PUSH2 0x32A PUSH1 0x0 PUSH1 0x3 PUSH2 0x62E JUMP JUMPDEST PUSH2 0x36C SWAP1 PUSH2 0x596 JUMP JUMPDEST PUSH1 0x20 DUP2 ADD SWAP3 SWAP2 PUSH2 0x225 SWAP2 SWAP1 PUSH2 0x645 JUMP JUMPDEST CALLVALUE PUSH2 0x213 JUMPI PUSH2 0x66E CALLDATASIZE PUSH1 0x4 PUSH2 0x50C JUMP JUMPDEST PUSH2 0x2FF PUSH2 0x679 PUSH2 0x639 JUMP JUMPDEST PUSH1 0x40 MLOAD SWAP2 DUP3 SWAP2 DUP3 PUSH2 0x64E JUMP JUMPDEST CALLVALUE PUSH2 0x213 JUMPI PUSH2 0x695 CALLDATASIZE PUSH1 0x4 PUSH2 0x50C JUMP JUMPDEST PUSH2 0x2F9 PUSH2 0x1E64 JUMP JUMPDEST PUSH2 0x3C3 PUSH2 0x32A PUSH2 0x32A SWAP3 SWAP1 JUMP JUMPDEST PUSH2 0x32A PUSH1 0x1 PUSH2 0x69D JUMP JUMPDEST PUSH2 0x32A PUSH2 0x6AA JUMP JUMPDEST CALLVALUE PUSH2 0x213 JUMPI PUSH2 0x6CC CALLDATASIZE PUSH1 0x4 PUSH2 0x50C JUMP JUMPDEST PUSH2 0x2FF PUSH2 0x6D7 PUSH2 0x6B4 JUMP JUMPDEST PUSH1 0x40 MLOAD SWAP2 DUP3 SWAP2 DUP3 PUSH2 0xFFFF SWAP1 SWAP2 AND DUP2 MSTORE PUSH1 0x20 ADD SWAP1 JUMP JUMPDEST CALLVALUE PUSH2 0x213 JUMPI PUSH2 0x2F9 PUSH2 0x6FF CALLDATASIZE PUSH1 0x4 PUSH2 0x565 JUMP JUMPDEST PUSH2 0x1ECE JUMP JUMPDEST PUSH2 0x32A SWAP1 DUP2 JUMP JUMPDEST PUSH2 0x32A SWAP1 SLOAD PUSH2 0x704 JUMP JUMPDEST PUSH2 0x32A SWAP1 PUSH2 0x346 JUMP JUMPDEST PUSH2 0x32A SWAP1 SLOAD PUSH2 0x715 JUMP JUMPDEST PUSH2 0x733 SWAP1 PUSH1 0x4 PUSH2 0x32D JUMP JUMPDEST SWAP1 PUSH2 0x73D DUP3 PUSH2 0x3E5 JUMP JUMPDEST SWAP2 PUSH2 0x74A PUSH1 0x1 DUP3 ADD PUSH2 0x70B JUMP JUMPDEST SWAP2 PUSH2 0x32A PUSH1 0x3 PUSH2 0x75C PUSH1 0x2 DUP6 ADD PUSH2 0x70B JUMP JUMPDEST SWAP4 ADD PUSH2 0x71E JUMP JUMPDEST PUSH2 0x44A PUSH2 0x225 SWAP5 PUSH2 0x78C PUSH1 0x60 SWAP5 SWAP9 SWAP8 SWAP6 PUSH2 0x785 PUSH1 0x80 DUP7 ADD SWAP11 PUSH1 0x0 DUP8 ADD SWAP1 PUSH2 0x426 JUMP JUMPDEST PUSH1 0x20 DUP6 ADD MSTORE JUMP JUMPDEST PUSH1 0x40 DUP4 ADD MSTORE JUMP JUMPDEST CALLVALUE PUSH2 0x213 JUMPI PUSH2 0x2FF PUSH2 0x7AE PUSH2 0x7A9 CALLDATASIZE PUSH1 0x4 PUSH2 0x316 JUMP JUMPDEST PUSH2 0x728 JUMP JUMPDEST SWAP1 PUSH2 0x7BB SWAP5 SWAP3 SWAP5 PUSH1 0x40 MLOAD SWAP1 JUMP JUMPDEST SWAP5 DUP6 SWAP5 DUP6 PUSH2 0x763 JUMP JUMPDEST PUSH1 0x20 DUP2 ADD SWAP3 SWAP2 PUSH2 0x225 SWAP2 SWAP1 PUSH2 0x426 JUMP JUMPDEST CALLVALUE PUSH2 0x213 JUMPI PUSH2 0x7E4 CALLDATASIZE PUSH1 0x4 PUSH2 0x50C JUMP JUMPDEST PUSH2 0x2FF PUSH2 0x7EF PUSH2 0x1ED7 JUMP JUMPDEST PUSH1 0x40 MLOAD JUMPDEST SWAP2 DUP3 SWAP2 DUP3 PUSH2 0x7C4 JUMP JUMPDEST DUP1 ISZERO ISZERO PUSH2 0x20C JUMP JUMPDEST SWAP1 POP CALLDATALOAD SWAP1 PUSH2 0x225 DUP3 PUSH2 0x7FC JUMP JUMPDEST SWAP2 SWAP1 PUSH1 0x40 DUP4 DUP3 SUB SLT PUSH2 0x213 JUMPI PUSH2 0x32A SWAP1 PUSH1 0x20 PUSH2 0x82D DUP3 DUP7 PUSH2 0x489 JUMP JUMPDEST SWAP5 ADD PUSH2 0x804 JUMP JUMPDEST CALLVALUE PUSH2 0x213 JUMPI PUSH2 0x2F9 PUSH2 0x847 CALLDATASIZE PUSH1 0x4 PUSH2 0x811 JUMP JUMPDEST SWAP1 PUSH2 0x1F1E JUMP JUMPDEST CALLVALUE PUSH2 0x213 JUMPI PUSH2 0x2F9 PUSH2 0x860 CALLDATASIZE PUSH1 0x4 PUSH2 0x316 JUMP JUMPDEST PUSH2 0x1F8A JUMP JUMPDEST PUSH1 0x60 DUP2 DUP4 SUB SLT PUSH2 0x213 JUMPI PUSH2 0x879 DUP3 DUP3 PUSH2 0x218 JUMP JUMPDEST SWAP3 PUSH1 0x20 DUP3 ADD CALLDATALOAD PUSH1 0x1 PUSH1 0x1 PUSH1 0x40 SHL SUB DUP2 GT PUSH2 0x213 JUMPI DUP4 PUSH2 0x899 SWAP2 DUP5 ADD PUSH2 0x227 JUMP JUMPDEST SWAP3 SWAP1 SWAP4 PUSH1 0x40 DUP3 ADD CALLDATALOAD PUSH1 0x1 PUSH1 0x1 PUSH1 0x40 SHL SUB DUP2 GT PUSH2 0x213 JUMPI PUSH2 0x2D6 SWAP3 ADD PUSH2 0x227 JUMP JUMPDEST CALLVALUE PUSH2 0x213 JUMPI PUSH2 0x2F9 PUSH2 0x8CC CALLDATASIZE PUSH1 0x4 PUSH2 0x865 JUMP JUMPDEST SWAP4 SWAP3 SWAP1 SWAP3 PUSH2 0x2048 JUMP JUMPDEST SWAP2 SWAP1 SWAP2 PUSH1 0x80 DUP2 DUP5 SUB SLT PUSH2 0x213 JUMPI PUSH2 0x8EC DUP4 DUP3 PUSH2 0x489 JUMP JUMPDEST SWAP3 PUSH2 0x8FA DUP2 PUSH1 0x20 DUP5 ADD PUSH2 0x309 JUMP JUMPDEST SWAP3 PUSH1 0x40 DUP4 ADD CALLDATALOAD PUSH1 0x1 PUSH1 0x1 PUSH1 0x40 SHL SUB DUP2 GT PUSH2 0x213 JUMPI DUP3 PUSH2 0x920 PUSH1 0x60 SWAP5 PUSH2 0x32A SWAP4 DUP8 ADD PUSH2 0x227 JUMP JUMPDEST SWAP5 SWAP1 SWAP6 ADD PUSH2 0x309 JUMP JUMPDEST CALLVALUE PUSH2 0x213 JUMPI PUSH2 0x2FF PUSH2 0x38B PUSH2 0x93F CALLDATASIZE PUSH1 0x4 PUSH2 0x8D5 JUMP JUMPDEST SWAP4 SWAP3 SWAP1 SWAP3 PUSH2 0x22AC JUMP JUMPDEST CALLVALUE PUSH2 0x213 JUMPI PUSH2 0x2F9 PUSH2 0x95B CALLDATASIZE PUSH1 0x4 PUSH2 0x5D4 JUMP JUMPDEST SWAP1 PUSH2 0x2381 JUMP JUMPDEST SWAP2 SWAP1 PUSH1 0x40 DUP4 DUP3 SUB SLT PUSH2 0x213 JUMPI PUSH2 0x32A SWAP1 PUSH1 0x20 PUSH2 0x82D DUP3 DUP7 PUSH2 0x218 JUMP JUMPDEST CALLVALUE PUSH2 0x213 JUMPI PUSH2 0x2F9 PUSH2 0x990 CALLDATASIZE PUSH1 0x4 PUSH2 0x961 JUMP JUMPDEST SWAP1 PUSH2 0x247E JUMP JUMPDEST SWAP1 PUSH1 0x60 DUP3 DUP3 SUB SLT PUSH2 0x213 JUMPI PUSH2 0x9AB DUP2 DUP4 PUSH2 0x309 JUMP JUMPDEST SWAP3 PUSH1 0x20 DUP4 ADD CALLDATALOAD PUSH1 0x1 PUSH1 0x1 PUSH1 0x40 SHL SUB DUP2 GT PUSH2 0x213 JUMPI DUP3 PUSH2 0x9D1 PUSH1 0x40 SWAP5 PUSH2 0x32A SWAP4 DUP8 ADD PUSH2 0x227 JUMP JUMPDEST SWAP5 SWAP1 SWAP6 ADD PUSH2 0x489 JUMP JUMPDEST CALLVALUE PUSH2 0x213 JUMPI PUSH2 0x2F9 PUSH2 0x9ED CALLDATASIZE PUSH1 0x4 PUSH2 0x996 JUMP JUMPDEST SWAP3 SWAP2 SWAP1 SWAP2 PUSH2 0x25F8 JUMP JUMPDEST CALLVALUE PUSH2 0x213 JUMPI PUSH2 0x2F9 PUSH2 0xA09 CALLDATASIZE PUSH1 0x4 PUSH2 0x316 JUMP JUMPDEST PUSH2 0x261B JUMP JUMPDEST CALLVALUE PUSH2 0x213 JUMPI PUSH2 0x2F9 PUSH2 0xA21 CALLDATASIZE PUSH1 0x4 PUSH2 0x8D5 JUMP JUMPDEST SWAP4 SWAP3 SWAP1 SWAP3 PUSH2 0x26D2 JUMP JUMPDEST PUSH2 0x32A PUSH2 0x32A PUSH2 0x32A SWAP3 SWAP1 JUMP JUMPDEST PUSH2 0x32A PUSH10 0x152D02C7E14AF6800000 PUSH2 0xA2A JUMP JUMPDEST PUSH2 0x32A PUSH2 0xA37 JUMP JUMPDEST CALLVALUE PUSH2 0x213 JUMPI PUSH2 0xA62 CALLDATASIZE PUSH1 0x4 PUSH2 0x50C JUMP JUMPDEST PUSH2 0x2FF PUSH2 0x554 PUSH2 0xA4A JUMP JUMPDEST CALLVALUE PUSH2 0x213 JUMPI PUSH2 0x2F9 PUSH2 0xA80 CALLDATASIZE PUSH1 0x4 PUSH2 0x996 JUMP JUMPDEST SWAP3 SWAP2 SWAP1 SWAP2 PUSH2 0x2799 JUMP JUMPDEST PUSH2 0x32A PUSH3 0x15180 PUSH2 0xA2A JUMP JUMPDEST PUSH2 0x32A PUSH2 0xA89 JUMP JUMPDEST CALLVALUE PUSH2 0x213 JUMPI PUSH2 0xAAD CALLDATASIZE PUSH1 0x4 PUSH2 0x50C JUMP JUMPDEST PUSH2 0x2FF PUSH2 0x554 PUSH2 0xA95 JUMP JUMPDEST CALLVALUE PUSH2 0x213 JUMPI PUSH2 0x2F9 PUSH2 0xACB CALLDATASIZE PUSH1 0x4 PUSH2 0x565 JUMP JUMPDEST PUSH2 0x27F7 JUMP JUMPDEST SWAP1 SWAP2 PUSH1 0x60 DUP3 DUP5 SUB SLT PUSH2 0x213 JUMPI PUSH2 0x32A PUSH2 0xAE9 DUP5 DUP5 PUSH2 0x218 JUMP JUMPDEST SWAP4 PUSH1 0x40 PUSH2 0x82D DUP3 PUSH1 0x20 DUP8 ADD PUSH2 0x489 JUMP JUMPDEST CALLVALUE PUSH2 0x213 JUMPI PUSH2 0x2F9 PUSH2 0xB0C CALLDATASIZE PUSH1 0x4 PUSH2 0xAD0 JUMP JUMPDEST SWAP2 PUSH2 0x29B9 JUMP JUMPDEST PUSH1 0x0 PUSH2 0xB22 PUSH2 0x32A SWAP3 PUSH1 0x2 PUSH2 0x3CA JUMP JUMPDEST PUSH2 0x62E JUMP JUMPDEST CALLVALUE PUSH2 0x213 JUMPI PUSH2 0x2FF PUSH2 0x7EF PUSH2 0xB3D CALLDATASIZE PUSH1 0x4 PUSH2 0x39E JUMP JUMPDEST PUSH2 0xB12 JUMP JUMPDEST PUSH2 0x32A PUSH1 0x0 DUP1 PUSH2 0x62E JUMP JUMPDEST CALLVALUE PUSH2 0x213 JUMPI PUSH2 0xB5D CALLDATASIZE PUSH1 0x4 PUSH2 0x50C JUMP JUMPDEST PUSH2 0x2FF PUSH2 0x679 PUSH2 0xB42 JUMP JUMPDEST ADD SWAP1 JUMP JUMPDEST ISZERO PUSH2 0xB73 JUMPI JUMP JUMPDEST PUSH1 0x40 MLOAD PUSH3 0x461BCD PUSH1 0xE5 SHL DUP2 MSTORE PUSH1 0x20 PUSH1 0x4 DUP3 ADD MSTORE PUSH1 0x17 PUSH1 0x24 DUP3 ADD MSTORE PUSH32 0x496E76616C696420656E64706F696E742063616C6C6572000000000000000000 PUSH1 0x44 DUP3 ADD MSTORE DUP1 PUSH1 0x64 DUP2 ADD JUMPDEST SUB SWAP1 REVERT JUMPDEST ISZERO PUSH2 0xBC4 JUMPI JUMP JUMPDEST PUSH1 0x40 MLOAD PUSH3 0x461BCD PUSH1 0xE5 SHL DUP2 MSTORE PUSH1 0x20 PUSH1 0x4 DUP3 ADD MSTORE PUSH1 0x13 PUSH1 0x24 DUP3 ADD MSTORE PUSH19 0x10DA185A5B881B9BDD081CDD5C1C1BDC9D1959 PUSH1 0x6A SHL PUSH1 0x44 DUP3 ADD MSTORE PUSH1 0x64 SWAP1 REVERT JUMPDEST CALLDATALOAD PUSH12 0xFFFFFFFFFFFFFFFFFFFFFFFF NOT AND SWAP1 PUSH1 0x14 DUP2 LT PUSH2 0xC1C JUMPI POP SWAP1 JUMP JUMPDEST PUSH2 0xC39 SWAP1 PUSH12 0xFFFFFFFFFFFFFFFFFFFFFFFF NOT SWAP1 PUSH1 0x14 SUB PUSH1 0x8 MUL SHL SWAP1 JUMP JUMPDEST AND SWAP1 JUMP JUMPDEST PUSH2 0x32A SWAP1 PUSH1 0x60 SHR PUSH2 0x579 JUMP JUMPDEST PUSH2 0x32A SWAP1 PUSH2 0xC3D JUMP JUMPDEST ISZERO PUSH2 0xC59 JUMPI JUMP JUMPDEST PUSH1 0x40 MLOAD PUSH3 0x461BCD PUSH1 0xE5 SHL DUP2 MSTORE PUSH1 0x20 PUSH1 0x4 DUP3 ADD MSTORE PUSH1 0x15 PUSH1 0x24 DUP3 ADD MSTORE PUSH21 0x496E76616C696420736F7572636520627269646765 PUSH1 0x58 SHL PUSH1 0x44 DUP3 ADD MSTORE PUSH1 0x64 SWAP1 REVERT JUMPDEST PUSH2 0x3D9 PUSH2 0x32A PUSH2 0x32A SWAP3 SWAP1 JUMP JUMPDEST PUSH2 0x32A SWAP1 PUSH2 0xC96 JUMP JUMPDEST ISZERO PUSH2 0xCB3 JUMPI JUMP JUMPDEST PUSH1 0x40 MLOAD PUSH3 0x461BCD PUSH1 0xE5 SHL DUP2 MSTORE PUSH1 0x20 PUSH1 0x4 DUP3 ADD MSTORE PUSH1 0x11 PUSH1 0x24 DUP3 ADD MSTORE PUSH17 0x125B9D985B1A59081C9958DA5C1A595B9D PUSH1 0x7A SHL PUSH1 0x44 DUP3 ADD MSTORE PUSH1 0x64 SWAP1 REVERT JUMPDEST PUSH4 0x4E487B71 PUSH1 0xE0 SHL PUSH1 0x0 MSTORE PUSH1 0x41 PUSH1 0x4 MSTORE PUSH1 0x24 PUSH1 0x0 REVERT JUMPDEST SWAP1 PUSH1 0x1F ADD PUSH1 0x1F NOT AND DUP2 ADD SWAP1 DUP2 LT PUSH1 0x1 PUSH1 0x1 PUSH1 0x40 SHL SUB DUP3 GT OR PUSH2 0xD23 JUMPI PUSH1 0x40 MSTORE JUMP JUMPDEST PUSH2 0xCEC JUMP JUMPDEST SWAP1 POP MLOAD SWAP1 PUSH2 0x225 DUP3 PUSH2 0x7FC JUMP JUMPDEST SWAP1 PUSH1 0x20 DUP3 DUP3 SUB SLT PUSH2 0x213 JUMPI PUSH2 0x32A SWAP2 PUSH2 0xD28 JUMP JUMPDEST SWAP2 PUSH1 0x20 PUSH2 0x225 SWAP3 SWAP5 SWAP4 PUSH2 0xD64 PUSH1 0x40 DUP3 ADD SWAP7 PUSH1 0x0 DUP4 ADD SWAP1 PUSH2 0x426 JUMP JUMPDEST ADD MSTORE JUMP JUMPDEST PUSH1 0x40 MLOAD RETURNDATASIZE PUSH1 0x0 DUP3 RETURNDATACOPY RETURNDATASIZE SWAP1 REVERT JUMPDEST ISZERO PUSH2 0xD7B JUMPI JUMP JUMPDEST PUSH1 0x40 MLOAD PUSH3 0x461BCD PUSH1 0xE5 SHL DUP2 MSTORE PUSH1 0x20 PUSH1 0x4 DUP3 ADD MSTORE PUSH1 0xE PUSH1 0x24 DUP3 ADD MSTORE PUSH14 0x135A5B9D1A5B99C819985A5B1959 PUSH1 0x92 SHL PUSH1 0x44 DUP3 ADD MSTORE PUSH1 0x64 SWAP1 REVERT JUMPDEST PUSH2 0x36C SWAP1 PUSH2 0xFFFF AND PUSH1 0xF0 SHL SWAP1 JUMP JUMPDEST SWAP1 PUSH2 0xB68 PUSH2 0xDDB PUSH1 0x2 SWAP4 PUSH6 0x636861696E2D PUSH1 0xD0 SHL DUP2 MSTORE PUSH1 0x6 ADD SWAP1 JUMP JUMPDEST DUP1 SWAP3 PUSH2 0xDB1 JUMP JUMPDEST PUSH2 0x32A PUSH2 0x32A PUSH2 0x32A SWAP3 PUSH1 0x1 PUSH1 0x1 PUSH1 0x40 SHL SUB AND SWAP1 JUMP JUMPDEST PUSH1 0x0 JUMPDEST DUP4 DUP2 LT PUSH2 0xE0B JUMPI POP POP PUSH1 0x0 SWAP2 ADD MSTORE JUMP JUMPDEST DUP2 DUP2 ADD MLOAD DUP4 DUP3 ADD MSTORE PUSH1 0x20 ADD PUSH2 0xDFB JUMP JUMPDEST PUSH2 0xE3C PUSH2 0xE45 PUSH1 0x20 SWAP4 PUSH2 0xB68 SWAP4 PUSH2 0xE30 DUP2 MLOAD SWAP1 JUMP JUMPDEST DUP1 DUP4 MSTORE SWAP4 DUP5 SWAP3 PUSH1 0x20 ADD SWAP1 JUMP JUMPDEST SWAP6 DUP7 SWAP2 ADD PUSH2 0xDF8 JUMP JUMPDEST PUSH1 0x1F ADD PUSH1 0x1F NOT AND SWAP1 JUMP JUMPDEST SWAP1 DUP2 MSTORE SWAP3 SWAP2 PUSH2 0x225 SWAP2 PUSH1 0x40 SWAP1 PUSH2 0xE71 SWAP1 PUSH1 0x60 DUP8 ADD SWAP1 DUP8 DUP3 SUB PUSH1 0x20 DUP10 ADD MSTORE PUSH2 0xE1B JUMP JUMPDEST SWAP5 ADD MSTORE JUMP JUMPDEST SWAP1 DUP3 PUSH1 0x0 SWAP4 SWAP3 DUP3 CALLDATACOPY ADD MSTORE JUMP JUMPDEST SWAP1 SWAP2 PUSH2 0xB68 SWAP1 DUP4 SWAP1 DUP1 SWAP4 PUSH2 0xE76 JUMP JUMPDEST PUSH2 0x36C SWAP1 PUSH1 0x1 PUSH1 0x1 PUSH1 0x40 SHL SUB AND PUSH1 0xC0 SHL SWAP1 JUMP JUMPDEST PUSH2 0xEB0 PUSH2 0x36C SWAP2 PUSH2 0x3D9 JUMP JUMPDEST PUSH1 0x60 SHL SWAP1 JUMP JUMPDEST PUSH2 0xB68 SWAP5 PUSH2 0xEE8 PUSH2 0xEE1 PUSH1 0x20 SWAP10 SWAP9 SWAP6 PUSH1 0x14 SWAP8 PUSH1 0x2 DUP7 PUSH2 0xEDA PUSH1 0x8 SWAP9 PUSH2 0xEF0 SWAP11 PUSH2 0xDB1 JUMP JUMPDEST ADD SWAP2 PUSH2 0xE82 JUMP JUMPDEST DUP1 SWAP3 PUSH2 0xE91 JUMP JUMPDEST ADD DUP1 SWAP3 PUSH2 0xEA4 JUMP JUMPDEST ADD SWAP2 DUP3 MSTORE JUMP JUMPDEST SWAP1 PUSH2 0x225 PUSH2 0xF03 PUSH1 0x40 MLOAD SWAP1 JUMP JUMPDEST SWAP3 DUP4 PUSH2 0xD02 JUMP JUMPDEST PUSH2 0x32A PUSH1 0x80 PUSH2 0xEF6 JUMP JUMPDEST SWAP1 PUSH2 0x36C SWAP1 PUSH2 0x3D9 JUMP JUMPDEST PUSH2 0x32A SWAP1 MLOAD PUSH2 0x3D9 JUMP JUMPDEST SWAP1 PUSH1 0x1 PUSH1 0x1 PUSH1 0xA0 SHL SUB SWAP1 JUMPDEST SWAP2 DUP2 NOT AND SWAP2 AND OR SWAP1 JUMP JUMPDEST SWAP1 PUSH2 0xF4D PUSH2 0x32A PUSH2 0xF54 SWAP3 PUSH2 0x596 JUMP JUMPDEST DUP3 SLOAD PUSH2 0xF28 JUMP JUMPDEST SWAP1 SSTORE JUMP JUMPDEST SWAP1 PUSH1 0x0 NOT SWAP1 PUSH2 0xF33 JUMP JUMPDEST SWAP1 PUSH2 0xF72 PUSH2 0x32A PUSH2 0xF54 SWAP3 PUSH2 0xA2A JUMP JUMPDEST DUP3 SLOAD PUSH2 0xF58 JUMP JUMPDEST SWAP1 PUSH1 0xFF SWAP1 PUSH2 0xF33 JUMP JUMPDEST SWAP1 PUSH2 0xF92 PUSH2 0x32A PUSH2 0xF54 SWAP3 ISZERO ISZERO SWAP1 JUMP JUMPDEST DUP3 SLOAD PUSH2 0xF79 JUMP JUMPDEST PUSH1 0x3 PUSH2 0xFEE PUSH1 0x60 PUSH2 0x225 SWAP5 PUSH2 0xFB9 PUSH2 0xFB3 PUSH1 0x0 DUP4 ADD PUSH2 0xF1E JUMP JUMPDEST DUP7 PUSH2 0xF3D JUMP JUMPDEST PUSH2 0xFD0 PUSH2 0xFC7 PUSH1 0x20 DUP4 ADD MLOAD SWAP1 JUMP JUMPDEST PUSH1 0x1 DUP8 ADD PUSH2 0xF62 JUMP JUMPDEST PUSH2 0xFE7 PUSH2 0xFDE PUSH1 0x40 DUP4 ADD MLOAD SWAP1 JUMP JUMPDEST PUSH1 0x2 DUP8 ADD PUSH2 0xF62 JUMP JUMPDEST ADD MLOAD ISZERO ISZERO SWAP1 JUMP JUMPDEST SWAP2 ADD PUSH2 0xF82 JUMP JUMPDEST SWAP1 PUSH2 0x225 SWAP2 PUSH2 0xF99 JUMP JUMPDEST SWAP4 PUSH2 0x1097 SWAP1 PUSH2 0x109E SWAP7 PUSH2 0x1034 PUSH2 0x1025 PUSH2 0x1020 PUSH2 0x101B PUSH1 0x3 PUSH2 0x3E5 JUMP JUMPDEST PUSH2 0x596 JUMP JUMPDEST PUSH2 0x3D9 JUMP JUMPDEST PUSH2 0x102E CALLER PUSH2 0x3D9 JUMP JUMPDEST EQ PUSH2 0xB6C JUMP JUMPDEST PUSH2 0x1052 PUSH2 0x104D PUSH1 0x0 PUSH2 0x1047 DUP11 PUSH1 0x5 PUSH2 0x3CA JUMP JUMPDEST ADD PUSH2 0x3FB JUMP JUMPDEST PUSH2 0xBBD JUMP JUMPDEST PUSH2 0x108F PUSH2 0x1067 PUSH2 0x1062 DUP8 DUP8 PUSH2 0xBFF JUMP JUMPDEST PUSH2 0xC49 JUMP JUMPDEST PUSH2 0x1089 PUSH2 0x1083 PUSH2 0x1020 PUSH1 0x0 PUSH2 0x107D DUP14 PUSH1 0x5 PUSH2 0x3CA JUMP JUMPDEST ADD PUSH2 0x3E5 JUMP JUMPDEST SWAP2 PUSH2 0x3D9 JUMP JUMPDEST EQ PUSH2 0xC52 JUMP JUMPDEST DUP2 ADD SWAP1 PUSH2 0x5D4 JUMP JUMPDEST SWAP6 SWAP1 PUSH2 0x596 JUMP JUMPDEST SWAP4 PUSH1 0x0 SWAP4 PUSH2 0x10C1 PUSH2 0x10B1 PUSH2 0x1020 DUP8 PUSH2 0xCA3 JUMP JUMPDEST PUSH2 0x10BA DUP9 PUSH2 0x3D9 JUMP JUMPDEST EQ ISZERO PUSH2 0xCAC JUMP JUMPDEST PUSH2 0x10CC PUSH2 0x32A PUSH2 0xA37 JUMP JUMPDEST DUP8 GT ISZERO PUSH2 0x11A0 JUMPI SWAP4 PUSH2 0x32A PUSH2 0x119B SWAP5 PUSH2 0x1130 PUSH2 0x1191 SWAP6 PUSH2 0x118B SWAP6 PUSH2 0x1124 DUP13 DUP13 PUSH32 0xF5949F687937BD6768DB11A421FEB8C55DEED44C9BC8E6E25EFE684D2968300C SWAP13 PUSH2 0x1116 PUSH1 0x40 MLOAD SWAP1 JUMP JUMPDEST SWAP8 DUP9 SWAP7 PUSH1 0x20 DUP9 ADD SWAP7 DUP8 PUSH2 0xEB6 JUMP JUMPDEST SWAP1 DUP2 SUB DUP3 MSTORE SUB DUP3 PUSH2 0xD02 JUMP JUMPDEST PUSH2 0x1142 PUSH2 0x113B DUP3 MLOAD SWAP1 JUMP JUMPDEST SWAP2 PUSH1 0x20 ADD SWAP1 JUMP JUMPDEST KECCAK256 SWAP2 PUSH2 0x117B PUSH2 0x114F PUSH2 0xF0A JUMP JUMPDEST SWAP2 PUSH2 0x115C DUP11 DUP3 DUP6 ADD PUSH2 0xF14 JUMP JUMPDEST PUSH2 0x1167 DUP12 PUSH1 0x20 DUP6 ADD MSTORE JUMP JUMPDEST PUSH2 0x1172 TIMESTAMP PUSH1 0x40 DUP6 ADD MSTORE JUMP JUMPDEST ISZERO ISZERO PUSH1 0x60 DUP4 ADD MSTORE JUMP JUMPDEST PUSH2 0x1186 DUP4 PUSH1 0x4 PUSH2 0x32D JUMP JUMPDEST PUSH2 0xFF5 JUMP JUMPDEST SWAP4 PUSH2 0x596 JUMP JUMPDEST SWAP4 PUSH2 0x558 PUSH1 0x40 MLOAD SWAP1 JUMP JUMPDEST SUB SWAP1 LOG3 JUMP JUMPDEST SWAP4 SWAP2 POP SWAP4 SWAP5 SWAP2 POP PUSH1 0x20 PUSH2 0x11B5 PUSH2 0x101B DUP4 PUSH2 0x3E5 JUMP JUMPDEST SWAP2 PUSH2 0x11BF PUSH1 0x40 MLOAD SWAP1 JUMP JUMPDEST SWAP3 DUP4 SWAP2 DUP3 SWAP1 PUSH4 0x8934A5F PUSH1 0xE3 SHL DUP3 MSTORE DUP2 PUSH2 0x11DD DUP9 DUP13 PUSH1 0x4 DUP5 ADD PUSH2 0xD49 JUMP JUMPDEST SUB SWAP3 GAS CALL DUP1 ISZERO PUSH2 0x128D JUMPI PUSH2 0x1240 PUSH2 0x123B PUSH2 0x1235 PUSH1 0x0 DUP1 MLOAD PUSH1 0x20 PUSH2 0x2D53 DUP4 CODECOPY DUP2 MLOAD SWAP2 MSTORE SWAP8 PUSH2 0x1219 PUSH2 0x1246 SWAP6 PUSH2 0x1259 SWAP8 PUSH1 0x0 SWAP2 PUSH2 0x125E JUMPI JUMPDEST POP PUSH2 0xD74 JUMP JUMPDEST PUSH2 0x32A PUSH2 0x1225 PUSH1 0x40 MLOAD SWAP1 JUMP JUMPDEST DUP1 SWAP3 PUSH2 0x1124 PUSH1 0x20 DUP4 ADD SWAP2 DUP3 PUSH2 0xDBF JUMP JUMPDEST SWAP6 PUSH2 0xDE2 JUMP JUMPDEST PUSH2 0xA2A JUMP JUMPDEST SWAP6 PUSH2 0x596 JUMP JUMPDEST SWAP5 PUSH2 0x1250 PUSH1 0x40 MLOAD SWAP1 JUMP JUMPDEST SWAP4 DUP5 SWAP4 DUP5 PUSH2 0xE4F JUMP JUMPDEST SUB SWAP1 LOG2 JUMP JUMPDEST PUSH2 0x1280 SWAP2 POP PUSH1 0x20 RETURNDATASIZE PUSH1 0x20 GT PUSH2 0x1286 JUMPI JUMPDEST PUSH2 0x1278 DUP2 DUP4 PUSH2 0xD02 JUMP JUMPDEST DUP2 ADD SWAP1 PUSH2 0xD35 JUMP JUMPDEST CODESIZE PUSH2 0x1213 JUMP JUMPDEST POP RETURNDATASIZE PUSH2 0x126E JUMP JUMPDEST PUSH2 0xD68 JUMP JUMPDEST PUSH2 0x32A SWAP1 PUSH1 0x40 SHR PUSH2 0x346 JUMP JUMPDEST PUSH2 0x32A SWAP1 SLOAD PUSH2 0x1292 JUMP JUMPDEST PUSH2 0x32A SWAP1 JUMPDEST PUSH1 0x1 PUSH1 0x1 PUSH1 0x40 SHL SUB AND SWAP1 JUMP JUMPDEST PUSH2 0x32A SWAP1 SLOAD PUSH2 0x12A8 JUMP JUMPDEST PUSH2 0x12AD PUSH2 0x32A PUSH2 0x32A SWAP3 SWAP1 JUMP JUMPDEST SWAP1 PUSH1 0x1 PUSH1 0x1 PUSH1 0x40 SHL SUB SWAP1 PUSH2 0xF33 JUMP JUMPDEST PUSH2 0x12AD PUSH2 0x32A PUSH2 0x32A SWAP3 PUSH1 0x1 PUSH1 0x1 PUSH1 0x40 SHL SUB AND SWAP1 JUMP JUMPDEST SWAP1 PUSH2 0x1305 PUSH2 0x32A PUSH2 0xF54 SWAP3 PUSH2 0x12DF JUMP JUMPDEST DUP3 SLOAD PUSH2 0x12D0 JUMP JUMPDEST SWAP1 PUSH9 0xFF0000000000000000 SWAP1 PUSH1 0x40 SHL PUSH2 0xF33 JUMP JUMPDEST SWAP1 PUSH2 0x1330 PUSH2 0x32A PUSH2 0xF54 SWAP3 ISZERO ISZERO SWAP1 JUMP JUMPDEST DUP3 SLOAD PUSH2 0x130C JUMP JUMPDEST PUSH2 0x36C SWAP1 PUSH2 0x12C3 JUMP JUMPDEST PUSH1 0x20 DUP2 ADD SWAP3 SWAP2 PUSH2 0x225 SWAP2 SWAP1 PUSH2 0x1337 JUMP JUMPDEST SWAP1 PUSH2 0x1359 PUSH2 0x29C4 JUMP JUMPDEST SWAP3 DUP4 SWAP1 PUSH2 0x1375 PUSH2 0x136F PUSH2 0x136B DUP5 PUSH2 0x129E JUMP JUMPDEST ISZERO SWAP1 JUMP JUMPDEST SWAP3 PUSH2 0x12B9 JUMP JUMPDEST SWAP3 PUSH1 0x0 SWAP5 PUSH2 0x1382 DUP7 PUSH2 0x12C3 JUMP JUMPDEST PUSH1 0x1 PUSH1 0x1 PUSH1 0x40 SHL SUB DUP7 AND EQ DUP1 PUSH2 0x1482 JUMPI JUMPDEST PUSH1 0x1 SWAP6 PUSH2 0x13AF PUSH2 0x13A2 DUP9 PUSH2 0x12C3 JUMP JUMPDEST SWAP2 PUSH1 0x1 PUSH1 0x1 PUSH1 0x40 SHL SUB AND SWAP1 JUMP JUMPDEST EQ SWAP1 DUP2 PUSH2 0x145A JUMPI JUMPDEST ISZERO JUMPDEST SWAP1 DUP2 PUSH2 0x1451 JUMPI JUMPDEST POP PUSH2 0x1442 JUMPI SWAP1 PUSH2 0x13EB SWAP3 SWAP2 DUP5 PUSH2 0x13E2 DUP9 PUSH2 0x13D9 DUP10 PUSH2 0x12C3 JUMP JUMPDEST SWAP11 ADD SWAP10 DUP11 PUSH2 0x12F5 JUMP JUMPDEST PUSH2 0x1433 JUMPI PUSH2 0x1582 JUMP JUMPDEST PUSH2 0x13F4 JUMPI POP POP POP JUMP JUMPDEST PUSH2 0x1422 PUSH2 0x142E SWAP3 PUSH32 0xC7F505B2F371AE2175EE4913F4499E1F2633A7B5936321EED1CDAEB6115181D2 SWAP5 PUSH2 0x1320 JUMP JUMPDEST PUSH1 0x40 MLOAD SWAP2 DUP3 SWAP2 DUP3 PUSH2 0x1340 JUMP JUMPDEST SUB SWAP1 LOG1 JUMP JUMPDEST PUSH2 0x143D DUP7 DUP10 PUSH2 0x1320 JUMP JUMPDEST PUSH2 0x1582 JUMP JUMPDEST PUSH4 0xF92EE8A9 PUSH1 0xE0 SHL DUP7 MSTORE PUSH1 0x4 DUP7 REVERT JUMPDEST ISZERO SWAP1 POP CODESIZE PUSH2 0x13C0 JUMP JUMPDEST SWAP1 POP PUSH2 0x13B9 PUSH2 0x1468 ADDRESS PUSH2 0x596 JUMP JUMPDEST EXTCODESIZE PUSH2 0x1479 PUSH2 0x1475 DUP11 PUSH2 0xA2A JUMP JUMPDEST SWAP2 SWAP1 JUMP JUMPDEST EQ SWAP2 SWAP1 POP PUSH2 0x13B7 JUMP JUMPDEST POP DUP4 PUSH2 0x1393 JUMP JUMPDEST ISZERO PUSH2 0x1490 JUMPI JUMP JUMPDEST PUSH1 0x40 MLOAD PUSH3 0x461BCD PUSH1 0xE5 SHL DUP2 MSTORE PUSH1 0x20 PUSH1 0x4 DUP3 ADD MSTORE PUSH1 0x15 PUSH1 0x24 DUP3 ADD MSTORE PUSH21 0x496E76616C696420746F6B656E2061646472657373 PUSH1 0x58 SHL PUSH1 0x44 DUP3 ADD MSTORE PUSH1 0x64 SWAP1 REVERT JUMPDEST ISZERO PUSH2 0x14D4 JUMPI JUMP JUMPDEST PUSH1 0x40 MLOAD PUSH3 0x461BCD PUSH1 0xE5 SHL DUP2 MSTORE PUSH1 0x20 PUSH1 0x4 DUP3 ADD MSTORE PUSH1 0x18 PUSH1 0x24 DUP3 ADD MSTORE PUSH32 0x496E76616C696420656E64706F696E7420616464726573730000000000000000 PUSH1 0x44 DUP3 ADD MSTORE PUSH1 0x64 SWAP1 REVERT JUMPDEST ISZERO PUSH2 0x1520 JUMPI JUMP JUMPDEST PUSH1 0x40 MLOAD PUSH3 0x461BCD PUSH1 0xE5 SHL DUP2 MSTORE PUSH1 0x20 PUSH1 0x4 DUP3 ADD MSTORE PUSH1 0x15 PUSH1 0x24 DUP3 ADD MSTORE PUSH21 0x496E76616C6964206D696E206761732076616C7565 PUSH1 0x58 SHL PUSH1 0x44 DUP3 ADD MSTORE PUSH1 0x64 SWAP1 REVERT JUMPDEST SWAP2 PUSH1 0x20 PUSH2 0x225 SWAP3 SWAP5 SWAP4 PUSH2 0x1578 PUSH1 0x40 DUP3 ADD SWAP7 PUSH1 0x0 DUP4 ADD SWAP1 PUSH2 0x426 JUMP JUMPDEST ADD SWAP1 PUSH2 0xFFFF AND SWAP1 MSTORE JUMP JUMPDEST SWAP1 PUSH32 0x9791FB750D6C4D3651A42030E2DDCF3CDABFE8B1A4544B5B4D615111CA343C16 SWAP3 PUSH2 0x162A PUSH2 0x1623 PUSH2 0x1631 SWAP4 PUSH2 0x15B8 CALLER PUSH2 0x29E1 JUMP JUMPDEST PUSH2 0x15C0 PUSH2 0x29FD JUMP JUMPDEST PUSH2 0x15FC PUSH2 0x15EC PUSH2 0x15D0 PUSH1 0x0 PUSH2 0xCA3 JUMP JUMPDEST PUSH2 0x1020 PUSH2 0x15DC DUP3 PUSH2 0x3D9 JUMP JUMPDEST PUSH2 0x15E5 DUP12 PUSH2 0x3D9 JUMP JUMPDEST EQ ISZERO PUSH2 0x1489 JUMP JUMPDEST PUSH2 0x15F5 DUP4 PUSH2 0x3D9 JUMP JUMPDEST EQ ISZERO PUSH2 0x14CD JUMP JUMPDEST PUSH2 0x1610 PUSH2 0x1609 PUSH1 0x0 PUSH2 0xA2A JUMP JUMPDEST DUP6 GT PUSH2 0x1519 JUMP JUMPDEST PUSH2 0x101B PUSH2 0x161C DUP8 PUSH2 0x596 JUMP JUMPDEST PUSH1 0x0 PUSH2 0xF3D JUMP JUMPDEST PUSH1 0x3 PUSH2 0xF3D JUMP JUMPDEST PUSH1 0x6 PUSH2 0xF62 JUMP JUMPDEST PUSH2 0x1639 PUSH2 0x6AA JUMP JUMPDEST SWAP1 PUSH2 0x142E PUSH2 0x1646 PUSH1 0x40 MLOAD SWAP1 JUMP JUMPDEST SWAP3 DUP4 SWAP3 DUP4 PUSH2 0x155D JUMP JUMPDEST SWAP1 PUSH2 0x225 SWAP3 SWAP2 PUSH2 0x1350 JUMP JUMPDEST SWAP1 PUSH2 0x166D SWAP3 SWAP2 PUSH2 0x1668 PUSH2 0x2A0F JUMP JUMPDEST PUSH2 0x16B6 JUMP JUMPDEST PUSH2 0x225 PUSH2 0x2A70 JUMP JUMPDEST ISZERO PUSH2 0x167C JUMPI JUMP JUMPDEST PUSH1 0x40 MLOAD PUSH3 0x461BCD PUSH1 0xE5 SHL DUP2 MSTORE PUSH1 0x20 PUSH1 0x4 DUP3 ADD MSTORE PUSH1 0x12 PUSH1 0x24 DUP3 ADD MSTORE PUSH18 0x1059191C995CDCC81A5CC8189B1BD8DAD959 PUSH1 0x72 SHL PUSH1 0x44 DUP3 ADD MSTORE PUSH1 0x64 SWAP1 REVERT JUMPDEST SWAP1 PUSH2 0x225 SWAP3 SWAP2 PUSH2 0x16DA PUSH2 0x16D5 PUSH2 0x136B PUSH2 0x16D0 CALLER PUSH1 0x7 PUSH2 0x59F JUMP JUMPDEST PUSH2 0x71E JUMP JUMPDEST PUSH2 0x1675 JUMP JUMPDEST SWAP1 PUSH2 0x225 SWAP3 SWAP2 PUSH2 0x16F4 PUSH2 0x16D5 PUSH2 0x136B PUSH2 0x16D0 DUP6 PUSH1 0x7 PUSH2 0x59F JUMP JUMPDEST PUSH2 0x18BC JUMP JUMPDEST ISZERO PUSH2 0x1700 JUMPI JUMP JUMPDEST PUSH1 0x40 MLOAD PUSH3 0x461BCD PUSH1 0xE5 SHL DUP2 MSTORE PUSH1 0x20 PUSH1 0x4 DUP3 ADD MSTORE PUSH1 0x1D PUSH1 0x24 DUP3 ADD MSTORE PUSH32 0x416D6F756E74206D7573742062652067726561746572207468616E2030000000 PUSH1 0x44 DUP3 ADD MSTORE PUSH1 0x64 SWAP1 REVERT JUMPDEST ISZERO PUSH2 0x174C JUMPI JUMP JUMPDEST PUSH1 0x40 MLOAD PUSH3 0x461BCD PUSH1 0xE5 SHL DUP2 MSTORE PUSH1 0x20 PUSH1 0x4 DUP3 ADD MSTORE PUSH1 0x18 PUSH1 0x24 DUP3 ADD MSTORE PUSH32 0x436861696E206272696467652069732064697361626C65640000000000000000 PUSH1 0x44 DUP3 ADD MSTORE PUSH1 0x64 SWAP1 REVERT JUMPDEST ISZERO PUSH2 0x1798 JUMPI JUMP JUMPDEST PUSH1 0x40 MLOAD PUSH3 0x461BCD PUSH1 0xE5 SHL DUP2 MSTORE PUSH1 0x20 PUSH1 0x4 DUP3 ADD MSTORE PUSH1 0x19 PUSH1 0x24 DUP3 ADD MSTORE PUSH32 0x496E73756666696369656E74206761732070726F766964656400000000000000 PUSH1 0x44 DUP3 ADD MSTORE PUSH1 0x64 SWAP1 REVERT JUMPDEST PUSH2 0xFFFF SWAP1 SWAP2 AND DUP2 MSTORE PUSH1 0x60 DUP2 ADD SWAP4 SWAP3 PUSH2 0x225 SWAP3 SWAP1 SWAP2 PUSH1 0x40 SWAP2 PUSH2 0xD64 SWAP1 JUMPDEST PUSH1 0x20 DUP4 ADD SWAP1 PUSH2 0x426 JUMP JUMPDEST PUSH2 0xB68 DUP2 PUSH1 0x14 SWAP4 PUSH2 0xEA4 JUMP JUMPDEST PUSH1 0x1 PUSH1 0x1 PUSH1 0x40 SHL SUB DUP2 GT PUSH2 0xD23 JUMPI PUSH1 0x20 SWAP1 PUSH1 0x1F ADD PUSH1 0x1F NOT AND ADD SWAP1 JUMP JUMPDEST SWAP1 PUSH2 0x183D PUSH2 0x1838 DUP4 PUSH2 0x180F JUMP JUMPDEST PUSH2 0xEF6 JUMP JUMPDEST SWAP2 DUP3 MSTORE JUMP JUMPDEST PUSH2 0x32A PUSH1 0x0 PUSH2 0x182B JUMP JUMPDEST PUSH2 0x32A PUSH2 0x1842 JUMP JUMPDEST SWAP3 PUSH2 0x189A PUSH2 0x18A5 SWAP2 PUSH2 0x188C PUSH2 0x32A SWAP10 SWAP8 SWAP9 SWAP5 PUSH2 0x18AF SWAP7 PUSH2 0x187F PUSH1 0xC0 DUP11 ADD SWAP3 PUSH1 0x0 DUP12 ADD SWAP1 PUSH2 0xFFFF AND SWAP1 MSTORE JUMP JUMPDEST DUP9 DUP3 SUB PUSH1 0x20 DUP11 ADD MSTORE PUSH2 0xE1B JUMP JUMPDEST SWAP1 DUP7 DUP3 SUB PUSH1 0x40 DUP9 ADD MSTORE PUSH2 0xE1B JUMP JUMPDEST SWAP6 PUSH1 0x60 DUP6 ADD SWAP1 PUSH2 0x426 JUMP JUMPDEST PUSH1 0x80 DUP4 ADD SWAP1 PUSH2 0x426 JUMP JUMPDEST PUSH1 0xA0 DUP2 DUP5 SUB SWAP2 ADD MSTORE PUSH2 0xE1B JUMP JUMPDEST SWAP2 SWAP1 PUSH1 0x0 SWAP3 PUSH2 0x18D5 PUSH2 0x18CD DUP6 PUSH2 0xA2A JUMP JUMPDEST DUP5 JUMPDEST GT PUSH2 0x16F9 JUMP JUMPDEST PUSH1 0x5 SWAP3 PUSH2 0x18E6 DUP6 PUSH2 0x107D DUP5 DUP8 PUSH2 0x3CA JUMP JUMPDEST SWAP3 PUSH2 0x1907 PUSH2 0x18F3 DUP8 PUSH2 0xCA3 JUMP JUMPDEST SWAP5 PUSH2 0x1900 PUSH2 0x1083 DUP8 PUSH2 0x3D9 JUMP JUMPDEST EQ ISZERO PUSH2 0xBBD JUMP JUMPDEST PUSH2 0x191D PUSH2 0x1918 DUP8 PUSH2 0x1047 DUP7 DUP10 PUSH2 0x3CA JUMP JUMPDEST PUSH2 0x1745 JUMP JUMPDEST PUSH2 0x1935 PUSH2 0x192D PUSH2 0x32A PUSH1 0x6 PUSH2 0x70B JUMP JUMPDEST CALLVALUE LT ISZERO PUSH2 0x1791 JUMP JUMPDEST PUSH2 0x1941 PUSH2 0x101B DUP8 PUSH2 0x3E5 JUMP JUMPDEST SWAP2 DUP3 EXTCODESIZE ISZERO PUSH2 0x213 JUMPI DUP7 PUSH2 0x1953 PUSH1 0x40 MLOAD SWAP1 JUMP JUMPDEST SWAP4 DUP5 SWAP1 PUSH4 0x79CC679 PUSH1 0xE4 SHL DUP3 MSTORE DUP2 DUP4 DUP2 PUSH2 0x1971 DUP8 CALLER PUSH1 0x4 DUP5 ADD PUSH2 0xD49 JUMP JUMPDEST SUB SWAP3 GAS CALL SWAP2 DUP3 ISZERO PUSH2 0x128D JUMPI PUSH2 0x1124 SWAP4 PUSH2 0x19DE SWAP4 PUSH2 0x1AA6 JUMPI JUMPDEST POP PUSH2 0x1993 CALLER PUSH2 0x596 JUMP JUMPDEST PUSH32 0xC16A36DCB251F4C00971094FBEFFDB9EEE9C1F58125DE0F87A424BBACD3F87CA PUSH2 0x19BD PUSH1 0x40 MLOAD SWAP1 JUMP JUMPDEST DUP1 PUSH2 0x19CA DUP7 DUP7 DUP12 DUP5 PUSH2 0x17DD JUMP JUMPDEST SUB SWAP1 LOG2 PUSH1 0x40 MLOAD SWAP4 DUP5 SWAP3 PUSH1 0x20 DUP5 ADD SWAP3 DUP4 PUSH2 0xD49 JUMP JUMPDEST PUSH2 0x19EB PUSH2 0x101B PUSH1 0x3 PUSH2 0x3E5 JUMP JUMPDEST SWAP1 PUSH2 0x19FF DUP7 PUSH2 0x107D DUP6 PUSH4 0xC5803100 SWAP9 PUSH2 0x3CA JUMP JUMPDEST SWAP5 PUSH2 0x1A28 PUSH2 0x1A0C PUSH1 0x40 MLOAD SWAP1 JUMP JUMPDEST DUP1 SWAP8 PUSH2 0x1A1C PUSH1 0x20 DUP4 ADD SWAP2 DUP3 PUSH2 0x1803 JUMP JUMPDEST SWAP1 DUP2 SUB DUP3 MSTORE SUB DUP8 PUSH2 0xD02 JUMP JUMPDEST PUSH2 0x1A31 CALLER PUSH2 0x596 JUMP JUMPDEST SWAP2 PUSH2 0x1A3A PUSH2 0x184C JUMP JUMPDEST DUP5 EXTCODESIZE ISZERO PUSH2 0x213 JUMPI DUP9 SWAP7 PUSH2 0x1A61 SWAP5 PUSH2 0x1A6C SWAP4 PUSH2 0x1A54 PUSH1 0x40 MLOAD SWAP1 JUMP JUMPDEST SWAP11 DUP12 SWAP10 DUP11 SWAP9 DUP10 SWAP9 PUSH1 0xE0 SHL SWAP1 JUMP JUMPDEST DUP9 MSTORE PUSH1 0x4 DUP9 ADD PUSH2 0x1854 JUMP JUMPDEST SUB SWAP2 CALLVALUE SWAP1 GAS CALL DUP1 ISZERO PUSH2 0x128D JUMPI PUSH2 0x1A80 JUMPI POP POP JUMP JUMPDEST DUP2 PUSH2 0x225 SWAP3 SWAP1 RETURNDATASIZE LT PUSH2 0x1A9F JUMPI JUMPDEST PUSH2 0x1A97 DUP2 DUP4 PUSH2 0xD02 JUMP JUMPDEST DUP2 ADD SWAP1 PUSH2 0x50C JUMP JUMPDEST POP RETURNDATASIZE PUSH2 0x1A8D JUMP JUMPDEST PUSH2 0x1ABC SWAP1 DUP10 RETURNDATASIZE DUP12 GT PUSH2 0x1A9F JUMPI PUSH2 0x1A97 DUP2 DUP4 PUSH2 0xD02 JUMP JUMPDEST CODESIZE PUSH2 0x1989 JUMP JUMPDEST SWAP1 PUSH2 0x225 SWAP3 SWAP2 PUSH2 0x165A JUMP JUMPDEST SWAP1 PUSH2 0x225 SWAP2 PUSH2 0x1ADA PUSH2 0x2AA5 JUMP JUMPDEST PUSH2 0x1B2B JUMP JUMPDEST ISZERO PUSH2 0x1AE6 JUMPI JUMP JUMPDEST PUSH1 0x40 MLOAD PUSH3 0x461BCD PUSH1 0xE5 SHL DUP2 MSTORE PUSH1 0x20 PUSH1 0x4 DUP3 ADD MSTORE PUSH1 0x1A PUSH1 0x24 DUP3 ADD MSTORE PUSH32 0x43616E6E6F74207265736375652062726964676520746F6B656E000000000000 PUSH1 0x44 DUP3 ADD MSTORE PUSH1 0x64 SWAP1 REVERT JUMPDEST PUSH2 0x1B8D SWAP2 PUSH2 0x1B5B PUSH2 0x101B PUSH1 0x20 SWAP4 PUSH2 0x101B PUSH2 0x1B4B PUSH2 0x1020 PUSH2 0x101B PUSH1 0x0 PUSH2 0x3E5 JUMP JUMPDEST PUSH2 0x1B54 DUP4 PUSH2 0x3D9 JUMP JUMPDEST EQ ISZERO PUSH2 0x1ADF JUMP JUMPDEST PUSH2 0x1B63 PUSH2 0x1ED7 JUMP JUMPDEST PUSH1 0x0 PUSH2 0x1B6E PUSH1 0x40 MLOAD SWAP1 JUMP JUMPDEST DUP1 SWAP7 DUP2 SWAP6 DUP3 SWAP5 PUSH2 0x1B82 PUSH4 0xA9059CBB PUSH1 0xE0 SHL SWAP1 JUMP JUMPDEST DUP5 MSTORE PUSH1 0x4 DUP5 ADD PUSH2 0xD49 JUMP JUMPDEST SUB SWAP3 GAS CALL DUP1 ISZERO PUSH2 0x128D JUMPI PUSH2 0x1B9E JUMPI POP JUMP JUMPDEST PUSH2 0x1BB6 SWAP1 PUSH1 0x20 RETURNDATASIZE PUSH1 0x20 GT PUSH2 0x1286 JUMPI PUSH2 0x1278 DUP2 DUP4 PUSH2 0xD02 JUMP JUMPDEST POP JUMP JUMPDEST SWAP1 PUSH2 0x225 SWAP2 PUSH2 0x1ACD JUMP JUMPDEST PUSH2 0x225 SWAP1 PUSH2 0x1BCF PUSH2 0x2AA5 JUMP JUMPDEST PUSH2 0x166D SWAP1 PUSH2 0x1BDB PUSH2 0x2A0F JUMP JUMPDEST PUSH2 0x1D1D JUMP JUMPDEST ISZERO PUSH2 0x1BE7 JUMPI JUMP JUMPDEST PUSH1 0x40 MLOAD PUSH3 0x461BCD PUSH1 0xE5 SHL DUP2 MSTORE PUSH1 0x20 PUSH1 0x4 DUP3 ADD MSTORE PUSH1 0x12 PUSH1 0x24 DUP3 ADD MSTORE PUSH18 0x151C985B9CD9995C881B9BDD08199BDD5B99 PUSH1 0x72 SHL PUSH1 0x44 DUP3 ADD MSTORE PUSH1 0x64 SWAP1 REVERT JUMPDEST ISZERO PUSH2 0x1C28 JUMPI JUMP JUMPDEST PUSH1 0x40 MLOAD PUSH3 0x461BCD PUSH1 0xE5 SHL DUP2 MSTORE PUSH1 0x20 PUSH1 0x4 DUP3 ADD MSTORE PUSH1 0x1A PUSH1 0x24 DUP3 ADD MSTORE PUSH32 0x5472616E7366657220616C72656164792070726F636573736564000000000000 PUSH1 0x44 DUP3 ADD MSTORE PUSH1 0x64 SWAP1 REVERT JUMPDEST PUSH4 0x4E487B71 PUSH1 0xE0 SHL PUSH1 0x0 MSTORE PUSH1 0x11 PUSH1 0x4 MSTORE PUSH1 0x24 PUSH1 0x0 REVERT JUMPDEST SWAP2 SWAP1 DUP3 ADD DUP1 SWAP3 GT PUSH2 0x1C90 JUMPI JUMP JUMPDEST PUSH2 0x1C6D JUMP JUMPDEST ISZERO PUSH2 0x1C9C JUMPI JUMP JUMPDEST PUSH1 0x40 MLOAD PUSH3 0x461BCD PUSH1 0xE5 SHL DUP2 MSTORE PUSH1 0x20 PUSH1 0x4 DUP3 ADD MSTORE PUSH1 0x18 PUSH1 0x24 DUP3 ADD MSTORE PUSH32 0x44656C617920706572696F64206E6F7420656C61707365640000000000000000 PUSH1 0x44 DUP3 ADD MSTORE PUSH1 0x64 SWAP1 REVERT JUMPDEST SWAP1 DUP2 MSTORE PUSH1 0x60 PUSH1 0x20 DUP3 ADD DUP2 SWAP1 MSTORE PUSH1 0x10 SWAP1 DUP3 ADD MSTORE PUSH16 0x3232B630BCB2B216BA3930B739B332B9 PUSH1 0x81 SHL PUSH1 0x80 DUP3 ADD MSTORE SWAP2 SWAP1 PUSH2 0x225 SWAP1 PUSH1 0x40 PUSH1 0xA0 DUP6 ADD SWAP5 ADD MSTORE JUMP JUMPDEST PUSH2 0x1DE7 PUSH2 0x1D2E PUSH2 0x32A DUP4 PUSH1 0x4 PUSH2 0x32D JUMP JUMPDEST SWAP2 PUSH2 0x1D52 PUSH2 0x1D3B DUP5 PUSH2 0x3E5 JUMP JUMPDEST PUSH2 0x1D4B PUSH2 0x1083 PUSH2 0x1020 PUSH1 0x0 PUSH2 0xCA3 JUMP JUMPDEST EQ ISZERO PUSH2 0x1BE0 JUMP JUMPDEST PUSH2 0x1D9F PUSH1 0x1 PUSH1 0x3 DUP6 ADD PUSH2 0x1D6F PUSH2 0x1D6A PUSH2 0x136B DUP4 PUSH2 0x71E JUMP JUMPDEST PUSH2 0x1C21 JUMP JUMPDEST PUSH2 0x1D9A PUSH2 0x1D92 PUSH2 0x32A PUSH2 0x1D84 PUSH1 0x2 DUP11 ADD PUSH2 0x70B JUMP JUMPDEST PUSH2 0x1D8C PUSH2 0xA89 JUMP JUMPDEST SWAP1 PUSH2 0x1C83 JUMP JUMPDEST TIMESTAMP LT ISZERO PUSH2 0x1C95 JUMP JUMPDEST PUSH2 0xF82 JUMP JUMPDEST PUSH2 0x1DAC PUSH2 0x101B PUSH1 0x0 PUSH2 0x3E5 JUMP JUMPDEST SWAP3 PUSH1 0x20 DUP2 PUSH1 0x1 PUSH2 0x1DBB DUP3 PUSH2 0x3E5 JUMP JUMPDEST SWAP2 ADD SWAP6 PUSH2 0x1DC7 DUP8 PUSH2 0x70B JUMP JUMPDEST SWAP2 PUSH1 0x0 PUSH2 0x1DD3 PUSH1 0x40 MLOAD SWAP1 JUMP JUMPDEST DUP1 SWAP9 DUP2 SWAP6 DUP3 SWAP5 PUSH2 0x1B82 PUSH4 0x449A52F8 PUSH1 0xE0 SHL SWAP1 JUMP JUMPDEST SUB SWAP3 GAS CALL SWAP3 DUP4 ISZERO PUSH2 0x128D JUMPI PUSH2 0x1E22 PUSH2 0x1E28 SWAP3 PUSH2 0x1E1D PUSH1 0x0 DUP1 MLOAD PUSH1 0x20 PUSH2 0x2D53 DUP4 CODECOPY DUP2 MLOAD SWAP2 MSTORE SWAP7 PUSH2 0x118B SWAP5 PUSH1 0x0 SWAP2 PUSH2 0x125E JUMPI POP PUSH2 0xD74 JUMP JUMPDEST PUSH2 0x3E5 JUMP JUMPDEST SWAP5 PUSH2 0x70B JUMP JUMPDEST SWAP3 PUSH2 0x1259 PUSH2 0x1E35 PUSH1 0x40 MLOAD SWAP1 JUMP JUMPDEST SWAP3 DUP4 SWAP3 DUP4 PUSH2 0x1CE1 JUMP JUMPDEST PUSH2 0x225 SWAP1 PUSH2 0x1BC3 JUMP JUMPDEST PUSH2 0x1E4F PUSH2 0x2AA5 JUMP JUMPDEST PUSH2 0x225 PUSH2 0x225 PUSH2 0x1E5F PUSH1 0x0 PUSH2 0xCA3 JUMP JUMPDEST PUSH2 0x2ADC JUMP JUMPDEST PUSH2 0x225 PUSH2 0x1E47 JUMP JUMPDEST PUSH2 0x225 SWAP1 PUSH2 0x1E78 PUSH2 0x2AA5 JUMP JUMPDEST PUSH2 0x166D SWAP1 PUSH2 0x1E84 PUSH2 0x2A0F JUMP JUMPDEST PUSH2 0x142E PUSH32 0x5BA6B30CD4B2F9E9E67F4FEB9B9DF10D5DA3B057598E6901B217B7D590345E30 SWAP2 PUSH2 0x1EC2 PUSH2 0x1EB9 PUSH2 0x1020 PUSH1 0x0 PUSH2 0xCA3 JUMP JUMPDEST PUSH2 0x15E5 DUP4 PUSH2 0x3D9 JUMP JUMPDEST PUSH2 0x7EF PUSH2 0x161C DUP3 PUSH2 0x596 JUMP JUMPDEST PUSH2 0x225 SWAP1 PUSH2 0x1E6C JUMP JUMPDEST PUSH2 0x32A PUSH1 0x0 PUSH32 0x9016D09D72D40FDAE2FD8CEAC6B6234C7706214FD39C1CD1E609A0528C199300 PUSH2 0x107D JUMP JUMPDEST SWAP1 PUSH2 0x225 SWAP2 PUSH2 0x1F0F PUSH2 0x2AA5 JUMP JUMPDEST SWAP1 PUSH2 0x1D9A PUSH2 0x225 SWAP3 PUSH1 0x7 PUSH2 0x59F JUMP JUMPDEST SWAP1 PUSH2 0x225 SWAP2 PUSH2 0x1F02 JUMP JUMPDEST PUSH2 0x225 SWAP1 PUSH2 0x1F34 PUSH2 0x2AA5 JUMP JUMPDEST PUSH2 0x1F45 PUSH2 0x32A PUSH2 0x225 SWAP3 PUSH1 0x4 PUSH2 0x32D JUMP JUMPDEST PUSH2 0x1F57 PUSH2 0x1D92 PUSH2 0x1D84 PUSH1 0x2 DUP5 ADD PUSH2 0x70B JUMP JUMPDEST PUSH2 0x1F6F PUSH1 0x1 PUSH1 0x3 DUP4 ADD PUSH2 0x1D9A PUSH2 0x1D6A PUSH2 0x136B DUP4 PUSH2 0x71E JUMP JUMPDEST PUSH2 0x1F84 PUSH1 0x1 PUSH2 0x1F7D DUP4 PUSH2 0x3E5 JUMP JUMPDEST SWAP3 ADD PUSH2 0x70B JUMP JUMPDEST SWAP1 PUSH2 0x2BCB JUMP JUMPDEST PUSH2 0x225 SWAP1 PUSH2 0x1F28 JUMP JUMPDEST SWAP1 PUSH2 0x225 SWAP5 SWAP4 SWAP3 SWAP2 PUSH2 0x1FA3 PUSH2 0x2AA5 JUMP JUMPDEST PUSH2 0x1FE4 JUMP JUMPDEST SWAP2 SWAP1 PUSH2 0xE45 DUP2 PUSH2 0x1FBF DUP2 PUSH2 0xB68 SWAP6 PUSH1 0x20 SWAP2 DUP2 MSTORE ADD SWAP1 JUMP JUMPDEST DUP1 SWAP6 PUSH2 0xE76 JUMP JUMPDEST PUSH2 0xFFFF SWAP2 SWAP1 SWAP2 AND DUP2 MSTORE PUSH1 0x40 PUSH1 0x20 DUP3 ADD DUP2 SWAP1 MSTORE PUSH2 0x32A SWAP4 SWAP2 ADD SWAP2 PUSH2 0x1FA8 JUMP JUMPDEST SWAP3 POP SWAP3 POP PUSH2 0x1FF5 PUSH2 0x101B PUSH1 0x3 PUSH2 0x3E5 JUMP JUMPDEST DUP1 EXTCODESIZE ISZERO PUSH2 0x213 JUMPI PUSH2 0x2027 SWAP4 PUSH1 0x0 DUP1 SWAP5 PUSH2 0x200D PUSH1 0x40 MLOAD SWAP1 JUMP JUMPDEST SWAP7 DUP8 SWAP6 DUP7 SWAP5 DUP6 SWAP4 PUSH4 0x42D65A8D PUSH1 0xE0 SHL DUP6 MSTORE PUSH1 0x4 DUP6 ADD PUSH2 0x1FC6 JUMP JUMPDEST SUB SWAP3 GAS CALL DUP1 ISZERO PUSH2 0x128D JUMPI PUSH2 0x2038 JUMPI POP JUMP JUMPDEST PUSH2 0x225 SWAP1 PUSH1 0x0 PUSH2 0x1A97 DUP2 DUP4 PUSH2 0xD02 JUMP JUMPDEST SWAP1 PUSH2 0x225 SWAP5 SWAP4 SWAP3 SWAP2 PUSH2 0x1F93 JUMP JUMPDEST SWAP1 PUSH2 0x32A SWAP6 SWAP5 SWAP4 SWAP3 SWAP2 PUSH2 0x2066 PUSH2 0x2AA5 JUMP JUMPDEST SWAP1 PUSH2 0x207C SWAP6 SWAP5 SWAP4 SWAP3 SWAP2 PUSH2 0x2077 PUSH2 0x2A0F JUMP JUMPDEST PUSH2 0x218C JUMP JUMPDEST SWAP1 PUSH2 0x225 PUSH2 0x2A70 JUMP JUMPDEST ISZERO PUSH2 0x208C JUMPI JUMP JUMPDEST PUSH1 0x40 MLOAD PUSH3 0x461BCD PUSH1 0xE5 SHL DUP2 MSTORE PUSH1 0x20 PUSH1 0x4 DUP3 ADD MSTORE PUSH1 0x1D PUSH1 0x24 DUP3 ADD MSTORE PUSH32 0x5472616E73616374696F6E20616C72656164792070726F636573736564000000 PUSH1 0x44 DUP3 ADD MSTORE PUSH1 0x64 SWAP1 REVERT JUMPDEST ISZERO PUSH2 0x20D8 JUMPI JUMP JUMPDEST PUSH1 0x40 MLOAD PUSH3 0x461BCD PUSH1 0xE5 SHL DUP2 MSTORE PUSH1 0x20 PUSH1 0x4 DUP3 ADD MSTORE PUSH1 0x16 PUSH1 0x24 DUP3 ADD MSTORE PUSH22 0x496E76616C6964207461726765742061646472657373 PUSH1 0x50 SHL PUSH1 0x44 DUP3 ADD MSTORE PUSH1 0x64 SWAP1 REVERT JUMPDEST ISZERO PUSH2 0x211D JUMPI JUMP JUMPDEST PUSH1 0x40 MLOAD PUSH3 0x461BCD PUSH1 0xE5 SHL DUP2 MSTORE PUSH1 0x20 PUSH1 0x4 DUP3 ADD MSTORE PUSH1 0x18 PUSH1 0x24 DUP3 ADD MSTORE PUSH32 0x416D6F756E742065786365656473207468726573686F6C640000000000000000 PUSH1 0x44 DUP3 ADD MSTORE PUSH1 0x64 SWAP1 REVERT JUMPDEST SWAP5 SWAP4 SWAP2 PUSH1 0x40 SWAP2 PUSH2 0x225 SWAP5 PUSH2 0xE71 SWAP3 PUSH2 0x217F PUSH1 0x60 DUP11 ADD SWAP4 PUSH1 0x0 DUP12 ADD MSTORE JUMP JUMPDEST DUP9 DUP4 SUB PUSH1 0x20 DUP11 ADD MSTORE PUSH2 0x1FA8 JUMP JUMPDEST POP SWAP4 SWAP3 SWAP2 SWAP1 PUSH2 0x21EE PUSH1 0x1 PUSH2 0x21AE PUSH2 0x21A9 PUSH2 0x136B PUSH2 0x16D0 DUP10 DUP6 PUSH2 0x32D JUMP JUMPDEST PUSH2 0x2085 JUMP JUMPDEST PUSH2 0x21CE PUSH2 0x21BE PUSH2 0x1020 PUSH1 0x0 PUSH2 0xCA3 JUMP JUMPDEST PUSH2 0x21C7 DUP10 PUSH2 0x3D9 JUMP JUMPDEST EQ ISZERO PUSH2 0x20D1 JUMP JUMPDEST PUSH2 0x21E4 PUSH2 0x21DC PUSH2 0x32A PUSH2 0xA37 JUMP JUMPDEST DUP5 GT ISZERO PUSH2 0x2116 JUMP JUMPDEST PUSH2 0x1D9A DUP7 DUP3 PUSH2 0x32D JUMP JUMPDEST PUSH2 0x21FB PUSH2 0x101B PUSH1 0x0 PUSH2 0x3E5 JUMP JUMPDEST SWAP4 PUSH1 0x20 PUSH2 0x2207 PUSH1 0x40 MLOAD SWAP1 JUMP JUMPDEST SWAP6 DUP7 SWAP1 PUSH4 0x8934A5F PUSH1 0xE3 SHL DUP3 MSTORE DUP2 PUSH1 0x0 DUP2 PUSH2 0x2226 DUP9 DUP14 PUSH1 0x4 DUP5 ADD PUSH2 0xD49 JUMP JUMPDEST SUB SWAP3 GAS CALL SWAP5 DUP6 ISZERO PUSH2 0x128D JUMPI PUSH1 0x0 SWAP6 PUSH2 0x2271 JUMPI JUMPDEST POP PUSH2 0x226B SWAP1 PUSH2 0x2258 PUSH1 0x0 DUP1 MLOAD PUSH1 0x20 PUSH2 0x2D53 DUP4 CODECOPY DUP2 MLOAD SWAP2 MSTORE SWAP6 SWAP7 SWAP8 PUSH2 0x596 JUMP JUMPDEST SWAP6 PUSH2 0x2262 PUSH1 0x40 MLOAD SWAP1 JUMP JUMPDEST SWAP5 DUP6 SWAP5 DUP6 PUSH2 0x2162 JUMP JUMPDEST SUB SWAP1 LOG2 SWAP1 JUMP JUMPDEST PUSH1 0x0 DUP1 MLOAD PUSH1 0x20 PUSH2 0x2D53 DUP4 CODECOPY DUP2 MLOAD SWAP2 MSTORE SWAP5 SWAP6 POP SWAP1 PUSH2 0x2258 PUSH2 0x22A2 PUSH2 0x226B SWAP4 PUSH1 0x20 RETURNDATASIZE PUSH1 0x20 GT PUSH2 0x1286 JUMPI PUSH2 0x1278 DUP2 DUP4 PUSH2 0xD02 JUMP JUMPDEST SWAP7 SWAP6 POP POP SWAP1 PUSH2 0x2239 JUMP JUMPDEST PUSH2 0x32A SWAP5 SWAP4 SWAP3 SWAP2 SWAP1 PUSH1 0x0 PUSH2 0x2055 JUMP JUMPDEST SWAP1 PUSH2 0x166D SWAP2 PUSH2 0x22C8 PUSH2 0x2A0F JUMP JUMPDEST PUSH2 0x22F4 JUMP JUMPDEST PUSH1 0x40 SWAP1 PUSH2 0xD64 PUSH2 0x225 SWAP5 SWAP7 SWAP6 SWAP4 SWAP7 PUSH2 0x22ED PUSH1 0x60 DUP5 ADD SWAP9 PUSH1 0x0 DUP6 ADD SWAP1 PUSH2 0x426 JUMP JUMPDEST PUSH1 0x20 DUP4 ADD MSTORE JUMP JUMPDEST PUSH1 0x0 PUSH2 0x230E PUSH2 0x2305 PUSH2 0x1020 DUP4 PUSH2 0xCA3 JUMP JUMPDEST PUSH2 0x10BA DUP5 PUSH2 0x3D9 JUMP JUMPDEST PUSH2 0x231A PUSH2 0x18CD DUP3 PUSH2 0xA2A JUMP JUMPDEST PUSH2 0x2325 PUSH2 0x32A PUSH2 0xA37 JUMP JUMPDEST DUP4 LT PUSH2 0x2376 JUMPI PUSH2 0x119B PUSH2 0x1191 PUSH2 0x118B PUSH32 0xF5949F687937BD6768DB11A421FEB8C55DEED44C9BC8E6E25EFE684D2968300C SWAP4 PUSH2 0x32A PUSH2 0x2362 PUSH1 0x40 MLOAD SWAP1 JUMP JUMPDEST PUSH2 0x1130 DUP2 PUSH1 0x20 DUP2 ADD PUSH2 0x1124 TIMESTAMP DUP14 DUP14 DUP5 PUSH2 0x22CD JUMP JUMPDEST POP SWAP1 PUSH2 0x225 SWAP2 PUSH2 0x2BCB JUMP JUMPDEST SWAP1 PUSH2 0x225 SWAP2 PUSH2 0x22BB JUMP JUMPDEST SWAP1 PUSH2 0x225 SWAP2 PUSH2 0x2398 PUSH2 0x2AA5 JUMP JUMPDEST PUSH2 0x2406 JUMP JUMPDEST ISZERO PUSH2 0x23A4 JUMPI JUMP JUMPDEST PUSH1 0x40 MLOAD PUSH3 0x461BCD PUSH1 0xE5 SHL DUP2 MSTORE PUSH1 0x20 PUSH1 0x4 DUP3 ADD MSTORE PUSH1 0x14 PUSH1 0x24 DUP3 ADD MSTORE PUSH20 0x10DA185A5B881B9BDD081C9959DA5CDD195C9959 PUSH1 0x62 SHL PUSH1 0x44 DUP3 ADD MSTORE PUSH1 0x64 SWAP1 REVERT JUMPDEST SWAP1 PUSH1 0xFF PUSH1 0xA0 SHL SWAP1 PUSH1 0xA0 SHL PUSH2 0xF33 JUMP JUMPDEST SWAP1 PUSH2 0x23FF PUSH2 0x32A PUSH2 0xF54 SWAP3 ISZERO ISZERO SWAP1 JUMP JUMPDEST DUP3 SLOAD PUSH2 0x23E0 JUMP JUMPDEST PUSH2 0x1259 PUSH2 0x2474 PUSH32 0x3670C8077FE2B25F52EFD0A9D8D4A2745875BE1F4BD3296B938D456E55B63CEE SWAP3 PUSH2 0x2458 PUSH2 0x2441 PUSH1 0x0 PUSH2 0x107D DUP5 PUSH1 0x5 PUSH2 0x3CA JUMP JUMPDEST PUSH2 0x2451 PUSH2 0x1083 PUSH2 0x1020 PUSH1 0x0 PUSH2 0xCA3 JUMP JUMPDEST EQ ISZERO PUSH2 0x239D JUMP JUMPDEST PUSH2 0x246F DUP6 PUSH1 0x0 PUSH2 0x2469 DUP5 PUSH1 0x5 PUSH2 0x3CA JUMP JUMPDEST ADD PUSH2 0x23EF JUMP JUMPDEST PUSH2 0x3B2 JUMP JUMPDEST SWAP3 PUSH2 0x38F PUSH1 0x40 MLOAD SWAP1 JUMP JUMPDEST SWAP1 PUSH2 0x225 SWAP2 PUSH2 0x238B JUMP JUMPDEST SWAP1 PUSH2 0x166D SWAP4 SWAP3 SWAP2 PUSH2 0x2497 PUSH2 0x2A0F JUMP JUMPDEST PUSH2 0x251F JUMP JUMPDEST PUSH1 0x40 SWAP1 PUSH2 0xD64 PUSH2 0x225 SWAP5 SWAP7 SWAP6 SWAP4 SWAP7 PUSH2 0x17F9 PUSH1 0x60 DUP5 ADD SWAP9 PUSH1 0x0 DUP6 ADD SWAP1 PUSH2 0x426 JUMP JUMPDEST ISZERO PUSH2 0x24C3 JUMPI JUMP JUMPDEST PUSH1 0x40 MLOAD PUSH3 0x461BCD PUSH1 0xE5 SHL DUP2 MSTORE PUSH1 0x20 PUSH1 0x4 DUP3 ADD MSTORE PUSH1 0xF PUSH1 0x24 DUP3 ADD MSTORE PUSH15 0x151C985B9CD9995C8819985A5B1959 PUSH1 0x8A SHL PUSH1 0x44 DUP3 ADD MSTORE PUSH1 0x64 SWAP1 REVERT JUMPDEST SWAP5 SWAP4 SWAP2 PUSH1 0x40 SWAP2 PUSH2 0x225 SWAP5 PUSH2 0x2517 SWAP3 PUSH2 0x217F PUSH1 0x60 DUP11 ADD SWAP4 PUSH1 0x0 DUP12 ADD MSTORE JUMP JUMPDEST SWAP5 ADD SWAP1 PUSH2 0x426 JUMP JUMPDEST PUSH2 0x257B SWAP3 SWAP4 PUSH2 0x2537 PUSH2 0x2531 PUSH1 0x0 PUSH2 0xA2A JUMP JUMPDEST DUP4 PUSH2 0x18CF JUMP JUMPDEST PUSH1 0x20 DUP3 PUSH2 0x2547 PUSH2 0x101B PUSH1 0x0 PUSH2 0x3E5 JUMP JUMPDEST PUSH2 0x2550 ADDRESS PUSH2 0x596 JUMP JUMPDEST PUSH1 0x0 PUSH2 0x255B PUSH1 0x40 MLOAD SWAP1 JUMP JUMPDEST DUP1 SWAP10 DUP2 SWAP6 DUP3 SWAP5 PUSH2 0x256F PUSH4 0x23B872DD PUSH1 0xE0 SHL SWAP1 JUMP JUMPDEST DUP5 MSTORE CALLER PUSH1 0x4 DUP6 ADD PUSH2 0x249C JUMP JUMPDEST SUB SWAP3 GAS CALL SWAP1 DUP2 ISZERO PUSH2 0x128D JUMPI PUSH2 0x25BD PUSH2 0x1259 SWAP3 PUSH32 0x8786E6EC8D013CB6DFB1B71A429E4F9D6F71ACFB1F381106E217046664AD90C6 SWAP7 PUSH1 0x0 SWAP2 PUSH2 0x25D9 JUMPI JUMPDEST POP PUSH2 0x24BC JUMP JUMPDEST PUSH2 0x25C6 CALLER PUSH2 0x596 JUMP JUMPDEST SWAP6 PUSH2 0x25D0 PUSH1 0x40 MLOAD SWAP1 JUMP JUMPDEST SWAP5 DUP6 SWAP5 DUP6 PUSH2 0x24FA JUMP JUMPDEST PUSH2 0x25F2 SWAP2 POP PUSH1 0x20 RETURNDATASIZE PUSH1 0x20 GT PUSH2 0x1286 JUMPI PUSH2 0x1278 DUP2 DUP4 PUSH2 0xD02 JUMP JUMPDEST CODESIZE PUSH2 0x25B7 JUMP JUMPDEST SWAP1 PUSH2 0x225 SWAP4 SWAP3 SWAP2 PUSH2 0x2488 JUMP JUMPDEST PUSH2 0x225 SWAP1 PUSH2 0x2610 PUSH2 0x2AA5 JUMP JUMPDEST PUSH2 0x225 SWAP1 PUSH1 0x6 PUSH2 0xF62 JUMP JUMPDEST PUSH2 0x225 SWAP1 PUSH2 0x2604 JUMP JUMPDEST SWAP1 PUSH2 0x225 SWAP5 SWAP4 SWAP3 SWAP2 PUSH2 0x2634 PUSH2 0x2AA5 JUMP JUMPDEST SWAP1 PUSH2 0x166D SWAP5 SWAP4 SWAP3 SWAP2 PUSH2 0x2644 PUSH2 0x2A0F JUMP JUMPDEST SWAP3 SWAP4 PUSH2 0x2668 PUSH1 0x1 PUSH2 0x265E PUSH2 0x21A9 PUSH2 0x136B PUSH2 0x16D0 DUP7 DUP6 PUSH2 0x32D JUMP JUMPDEST PUSH2 0x1D9A DUP4 DUP3 PUSH2 0x32D JUMP JUMPDEST PUSH2 0x2675 PUSH2 0x101B PUSH1 0x0 PUSH2 0x3E5 JUMP JUMPDEST SWAP1 PUSH1 0x20 PUSH2 0x2681 PUSH1 0x40 MLOAD SWAP1 JUMP JUMPDEST SWAP3 DUP4 SWAP1 PUSH4 0xA9059CBB PUSH1 0xE0 SHL DUP3 MSTORE DUP2 PUSH1 0x0 DUP2 PUSH2 0x26A0 DUP10 DUP13 PUSH1 0x4 DUP5 ADD PUSH2 0xD49 JUMP JUMPDEST SUB SWAP3 GAS CALL DUP1 ISZERO PUSH2 0x128D JUMPI PUSH1 0x0 DUP1 MLOAD PUSH1 0x20 PUSH2 0x2D53 DUP4 CODECOPY DUP2 MLOAD SWAP2 MSTORE SWAP6 PUSH2 0x101B PUSH2 0x2258 SWAP3 PUSH2 0x1259 SWAP6 PUSH1 0x0 SWAP2 PUSH2 0x25D9 JUMPI POP PUSH2 0x24BC JUMP JUMPDEST SWAP1 PUSH2 0x225 SWAP5 SWAP4 SWAP3 SWAP2 PUSH2 0x2624 JUMP JUMPDEST SWAP1 PUSH2 0x166D SWAP4 SWAP3 SWAP2 PUSH2 0x26EE PUSH2 0x2A0F JUMP JUMPDEST SWAP3 SWAP2 SWAP3 PUSH1 0x0 PUSH2 0x26FF PUSH2 0x2531 DUP3 PUSH2 0xA2A JUMP JUMPDEST PUSH2 0x270B PUSH2 0x101B DUP3 PUSH2 0x3E5 JUMP JUMPDEST SWAP4 DUP5 EXTCODESIZE ISZERO PUSH2 0x213 JUMPI DUP2 PUSH2 0x271D PUSH1 0x40 MLOAD SWAP1 JUMP JUMPDEST SWAP6 DUP7 SWAP1 PUSH4 0x79CC679 PUSH1 0xE4 SHL DUP3 MSTORE DUP2 DUP4 DUP2 PUSH2 0x273B DUP10 CALLER PUSH1 0x4 DUP5 ADD PUSH2 0xD49 JUMP JUMPDEST SUB SWAP3 GAS CALL SWAP2 DUP3 ISZERO PUSH2 0x128D JUMPI PUSH32 0x8786E6EC8D013CB6DFB1B71A429E4F9D6F71ACFB1F381106E217046664AD90C6 SWAP6 PUSH2 0x1259 SWAP4 PUSH2 0x277C JUMPI JUMPDEST POP POP PUSH2 0x25C6 CALLER PUSH2 0x596 JUMP JUMPDEST DUP2 PUSH2 0x2792 SWAP3 SWAP1 RETURNDATASIZE LT PUSH2 0x1A9F JUMPI PUSH2 0x1A97 DUP2 DUP4 PUSH2 0xD02 JUMP JUMPDEST CODESIZE DUP1 PUSH2 0x2771 JUMP JUMPDEST SWAP1 PUSH2 0x225 SWAP4 SWAP3 SWAP2 PUSH2 0x26DF JUMP JUMPDEST PUSH2 0x225 SWAP1 PUSH2 0x27B1 PUSH2 0x2AA5 JUMP JUMPDEST PUSH1 0x0 PUSH2 0x27BC DUP2 PUSH2 0xCA3 JUMP JUMPDEST PUSH2 0x27C5 DUP2 PUSH2 0x3D9 JUMP JUMPDEST PUSH2 0x27CE DUP5 PUSH2 0x3D9 JUMP JUMPDEST EQ PUSH2 0x27DE JUMPI POP POP PUSH2 0x225 SWAP1 PUSH2 0x2ADC JUMP JUMPDEST PUSH4 0x1E4FBDF7 PUSH1 0xE0 SHL DUP3 MSTORE DUP2 SWAP1 PUSH2 0xBB9 SWAP1 PUSH1 0x4 DUP4 ADD PUSH2 0x7C4 JUMP JUMPDEST PUSH2 0x225 SWAP1 PUSH2 0x27A5 JUMP JUMPDEST SWAP1 PUSH2 0x225 SWAP3 SWAP2 PUSH2 0x280E PUSH2 0x2AA5 JUMP JUMPDEST PUSH2 0x28DA JUMP JUMPDEST ISZERO PUSH2 0x281A JUMPI JUMP JUMPDEST PUSH1 0x40 MLOAD PUSH3 0x461BCD PUSH1 0xE5 SHL DUP2 MSTORE PUSH1 0x20 PUSH1 0x4 DUP3 ADD MSTORE PUSH1 0x15 PUSH1 0x24 DUP3 ADD MSTORE PUSH21 0x496E76616C69642072656D6F746520627269646765 PUSH1 0x58 SHL PUSH1 0x44 DUP3 ADD MSTORE PUSH1 0x64 SWAP1 REVERT JUMPDEST ISZERO PUSH2 0x285E JUMPI JUMP JUMPDEST PUSH1 0x40 MLOAD PUSH3 0x461BCD PUSH1 0xE5 SHL DUP2 MSTORE PUSH1 0x20 PUSH1 0x4 DUP3 ADD MSTORE PUSH1 0x1C PUSH1 0x24 DUP3 ADD MSTORE PUSH32 0x43616E6E6F7420726567697374657220736F7572636520636861696E00000000 PUSH1 0x44 DUP3 ADD MSTORE PUSH1 0x64 SWAP1 REVERT JUMPDEST PUSH2 0x32A PUSH1 0x40 PUSH2 0xEF6 JUMP JUMPDEST PUSH2 0x225 SWAP2 PUSH2 0x28CA SWAP1 PUSH1 0x20 SWAP1 PUSH2 0xFE7 PUSH2 0x28C4 DUP3 PUSH2 0xF1E JUMP JUMPDEST DUP6 PUSH2 0xF3D JUMP JUMPDEST SWAP1 PUSH2 0x23EF JUMP JUMPDEST SWAP1 PUSH2 0x225 SWAP2 PUSH2 0x28AD JUMP JUMPDEST SWAP1 PUSH32 0xB2F92AE146563FE193B48846974F797B06908D26DAB8E3598EA23A1EDB83141D PUSH2 0x296B PUSH2 0x2977 SWAP5 SWAP4 PUSH2 0x2924 PUSH2 0x2914 PUSH2 0x1020 PUSH1 0x0 PUSH2 0xCA3 JUMP JUMPDEST PUSH2 0x291D DUP7 PUSH2 0x3D9 JUMP JUMPDEST EQ ISZERO PUSH2 0x2813 JUMP JUMPDEST PUSH2 0x293E PUSH2 0x2932 PUSH2 0x3C3 PUSH2 0x6AA JUMP JUMPDEST PUSH2 0xFFFF DUP4 AND EQ ISZERO PUSH2 0x2857 JUMP JUMPDEST PUSH2 0x246F PUSH2 0x2949 PUSH2 0x28A3 JUMP JUMPDEST PUSH2 0x2953 DUP7 DUP3 PUSH2 0xF14 JUMP JUMPDEST DUP7 ISZERO ISZERO PUSH1 0x20 DUP3 ADD MSTORE PUSH2 0x2966 DUP4 PUSH1 0x5 PUSH2 0x3CA JUMP JUMPDEST PUSH2 0x28D0 JUMP JUMPDEST SWAP4 DUP5 SWAP3 PUSH2 0x7F3 PUSH1 0x40 MLOAD SWAP1 JUMP JUMPDEST SUB SWAP1 LOG2 PUSH2 0x2981 JUMPI POP JUMP JUMPDEST PUSH32 0x3670C8077FE2B25F52EFD0A9D8D4A2745875BE1F4BD3296B938D456E55B63CEE PUSH2 0x29AB PUSH1 0x40 MLOAD SWAP1 JUMP JUMPDEST PUSH1 0x1 DUP2 MSTORE DUP1 PUSH1 0x20 DUP2 ADD PUSH2 0x1259 JUMP JUMPDEST SWAP1 PUSH2 0x225 SWAP3 SWAP2 PUSH2 0x2800 JUMP JUMPDEST PUSH2 0x32A PUSH2 0x2CEF JUMP JUMPDEST PUSH2 0x225 SWAP1 PUSH2 0x29D8 PUSH2 0x2CF7 JUMP JUMPDEST PUSH2 0x225 SWAP1 PUSH2 0x2D26 JUMP JUMPDEST PUSH2 0x225 SWAP1 PUSH2 0x29CC JUMP JUMPDEST PUSH2 0x29F2 PUSH2 0x2CF7 JUMP JUMPDEST PUSH2 0x225 PUSH2 0x225 PUSH2 0x2D37 JUMP JUMPDEST PUSH2 0x225 PUSH2 0x29EA JUMP JUMPDEST PUSH2 0x32A PUSH1 0x2 PUSH2 0xA2A JUMP JUMPDEST PUSH32 0x9B779B17422D0DF92223018B32B4D1FA46E071723D6817E2486D003BECC55F00 PUSH2 0x2A39 DUP2 PUSH2 0x70B JUMP JUMPDEST PUSH2 0x2A41 PUSH2 0x2A05 JUMP JUMPDEST SWAP1 DUP2 EQ PUSH2 0x2A51 JUMPI PUSH2 0x225 SWAP2 PUSH2 0xF62 JUMP JUMPDEST PUSH4 0x3EE5AEB5 PUSH1 0xE0 SHL PUSH1 0x0 SWAP1 DUP2 MSTORE PUSH1 0x4 JUMPDEST SUB PUSH1 0x0 REVERT JUMPDEST PUSH2 0x32A PUSH1 0x1 PUSH2 0xA2A JUMP JUMPDEST PUSH2 0x225 PUSH32 0x9B779B17422D0DF92223018B32B4D1FA46E071723D6817E2486D003BECC55F00 PUSH1 0x0 PUSH2 0x2A9E PUSH2 0x2A66 JUMP JUMPDEST SWAP2 ADD PUSH2 0xF62 JUMP JUMPDEST PUSH2 0x2AAD PUSH2 0x1ED7 JUMP JUMPDEST CALLER SWAP1 PUSH2 0x2ABB PUSH2 0x1083 DUP4 PUSH2 0x3D9 JUMP JUMPDEST SUB PUSH2 0x2AC3 JUMPI POP JUMP JUMPDEST PUSH4 0x118CDAA7 PUSH1 0xE0 SHL PUSH1 0x0 SWAP1 DUP2 MSTORE SWAP1 PUSH2 0x2A61 SWAP1 PUSH1 0x4 PUSH2 0x7C4 JUMP JUMPDEST PUSH2 0x2B1C PUSH2 0x2B16 PUSH32 0x9016D09D72D40FDAE2FD8CEAC6B6234C7706214FD39C1CD1E609A0528C199300 PUSH2 0x101B DUP5 PUSH2 0x2B10 DUP4 PUSH2 0x3E5 JUMP JUMPDEST SWAP3 PUSH2 0xF3D JUMP JUMPDEST SWAP2 PUSH2 0x596 JUMP JUMPDEST SWAP1 PUSH32 0x8BE0079C531659141344CD1FD0A4F28419497F9722A3DAAFE3B4186F6B6457E0 PUSH2 0x2B47 PUSH1 0x40 MLOAD SWAP1 JUMP JUMPDEST DUP1 DUP1 PUSH2 0x119B JUMP JUMPDEST ISZERO PUSH2 0x2B55 JUMPI JUMP JUMPDEST PUSH1 0x40 MLOAD PUSH3 0x461BCD PUSH1 0xE5 SHL DUP2 MSTORE PUSH1 0x20 PUSH1 0x4 DUP3 ADD MSTORE PUSH1 0x14 PUSH1 0x24 DUP3 ADD MSTORE PUSH20 0x149958DA5C1A595B9D081A5CC8189B1BD8DAD959 PUSH1 0x62 SHL PUSH1 0x44 DUP3 ADD MSTORE PUSH1 0x64 SWAP1 REVERT JUMPDEST SWAP1 DUP2 MSTORE PUSH1 0x60 PUSH1 0x20 DUP3 ADD DUP2 SWAP1 MSTORE PUSH1 0xE SWAP1 DUP3 ADD MSTORE PUSH14 0x3637B1B0B616BA3930B739B332B9 PUSH1 0x91 SHL PUSH1 0x80 DUP3 ADD MSTORE SWAP2 SWAP1 PUSH2 0x225 SWAP1 PUSH1 0x40 PUSH1 0xA0 DUP6 ADD SWAP5 ADD MSTORE JUMP JUMPDEST PUSH2 0x2BE4 PUSH2 0x2BDB PUSH2 0x1020 PUSH1 0x0 PUSH2 0xCA3 JUMP JUMPDEST PUSH2 0x10BA DUP4 PUSH2 0x3D9 JUMP JUMPDEST PUSH2 0x2BF1 PUSH2 0x2531 PUSH1 0x0 PUSH2 0xA2A JUMP JUMPDEST PUSH2 0x2C0A PUSH2 0x2C05 PUSH2 0x136B PUSH2 0x16D0 DUP5 PUSH1 0x7 PUSH2 0x59F JUMP JUMPDEST PUSH2 0x2B4E JUMP JUMPDEST PUSH2 0x2C17 PUSH2 0x101B PUSH1 0x0 PUSH2 0x3E5 JUMP JUMPDEST SWAP1 PUSH1 0x20 PUSH2 0x2C23 PUSH1 0x40 MLOAD SWAP1 JUMP JUMPDEST SWAP3 DUP4 SWAP1 PUSH4 0x8934A5F PUSH1 0xE3 SHL DUP3 MSTORE DUP2 PUSH1 0x0 DUP2 PUSH2 0x2C42 DUP10 DUP9 PUSH1 0x4 DUP5 ADD PUSH2 0xD49 JUMP JUMPDEST SUB SWAP3 GAS CALL SWAP2 DUP3 ISZERO PUSH2 0x128D JUMPI PUSH1 0x0 DUP1 MLOAD PUSH1 0x20 PUSH2 0x2D53 DUP4 CODECOPY DUP2 MLOAD SWAP2 MSTORE SWAP3 PUSH2 0x2C6E SWAP2 PUSH1 0x0 SWAP2 PUSH2 0x25D9 JUMPI POP PUSH2 0x24BC JUMP JUMPDEST PUSH2 0x2CB0 PUSH2 0x2C7A PUSH1 0x40 MLOAD SWAP1 JUMP JUMPDEST TIMESTAMP PUSH1 0x20 DUP1 DUP4 ADD SWAP2 DUP3 MSTORE PUSH2 0x2C9E SWAP2 DUP4 SWAP2 PUSH2 0x1124 SWAP1 DUP10 PUSH2 0xB68 PUSH1 0x14 DUP11 PUSH2 0xEF0 DUP6 DUP9 PUSH2 0xEE8 JUMP JUMPDEST PUSH2 0x2CA9 PUSH2 0x113B DUP3 MLOAD SWAP1 JUMP JUMPDEST KECCAK256 SWAP2 PUSH2 0x596 JUMP JUMPDEST SWAP3 PUSH2 0x1259 PUSH2 0x2CBD PUSH1 0x40 MLOAD SWAP1 JUMP JUMPDEST SWAP3 DUP4 SWAP3 DUP4 PUSH2 0x2B91 JUMP JUMPDEST PUSH2 0x32A PUSH32 0xF0C57E16840DF040F15088DC2F81FE391C3923BEC73E23A9662EFC9C229C6A00 PUSH2 0xA2A JUMP JUMPDEST PUSH2 0x32A PUSH2 0x2CC6 JUMP JUMPDEST PUSH2 0x2D02 PUSH2 0x136B PUSH2 0x2D3F JUMP JUMPDEST PUSH2 0x2D08 JUMPI JUMP JUMPDEST PUSH4 0x1AFCD79F PUSH1 0xE3 SHL PUSH1 0x0 SWAP1 DUP2 MSTORE PUSH1 0x4 SWAP1 REVERT JUMPDEST PUSH2 0x225 SWAP1 PUSH2 0x27B1 PUSH2 0x2CF7 JUMP JUMPDEST PUSH2 0x225 SWAP1 PUSH2 0x2D1A JUMP JUMPDEST PUSH2 0x166D PUSH2 0x2CF7 JUMP JUMPDEST PUSH2 0x225 PUSH2 0x2D2F JUMP JUMPDEST PUSH2 0x32A PUSH1 0x0 PUSH2 0x2D4C PUSH2 0x29C4 JUMP JUMPDEST ADD PUSH2 0x129E JUMP INVALID PUSH28 0x93D20AA9666FFF2B9034D25DB8EEFA4ADA8752B0B713F599E9DA3BD4 CALLDATACOPY 0xE1 SWAP3 LOG2 PUSH5 0x6970667358 0x22 SLT KECCAK256 0xA6 EXTCODESIZE DUP9 0xED DUP11 PUSH18 0x74CBEE6B0934682FF519E1D0F988A4353833 DUP4 0xC3 SWAP10 EXTCODEHASH 0xEB PUSH15 0xD79464736F6C634300081B00330000 "},"methodIdentifiers":{"DELAY_PERIOD()":"e71a02e1","LARGE_TRANSFER_THRESHOLD()":"d5e42e2c","SOURCE_CHAIN_ID()":"74be2150","blockedAddresses(address)":"4f93208a","burnTokens(uint256,string,address)":"e331de2b","endpoint()":"5e280f11","executeDelayedTransfer(bytes32)":"9e25fc5c","initialize(address,address,uint256)":"1794bb3c","initiateTransfer(address,uint256)":"b504cd1e","lockTokens(uint256,string,address)":"be6cd04f","lzReceive(uint16,bytes,uint64,bytes)":"001d3567","minGasForTransfer()":"4514ad12","mintTokens(address,uint256,string,bytes32)":"b2f18522","owner()":"8da5cb5b","pendingTransfers(bytes32)":"8d4ab2c0","processDelayedTransfer(bytes32)":"5745a3a2","processedHashes(bytes32)":"07d9c534","registerChain(uint16,address,bool)":"f6a0817b","releaseTokens(address,uint256,string,bytes32)":"d01292dd","remoteBridges(uint16)":"fb7a9479","renounceOwnership()":"715018a6","rescueTokens(address,uint256)":"57376198","retryPayload(uint16,bytes,bytes)":"aaff5f16","sendTokens(uint16,address,uint256)":"3c43d99d","setBlockedAddress(address,bool)":"92d5011f","setMinGasForTransfer(uint256)":"cfa713a3","supportedChains(uint16)":"10d58783","toggleChain(uint16,bool)":"b932aa37","token()":"fc0c546a","transferOwnership(address)":"f2fde38b","updateToken(address)":"7ad3def2"}},"storageLayout":{"storage":[{"astId":733,"contract":"contracts/NooriBankBridge.sol:NooriBankBridge","label":"token","offset":0,"slot":"0","type":"t_contract(INooriToken)1915"},{"astId":737,"contract":"contracts/NooriBankBridge.sol:NooriBankBridge","label":"processedHashes","offset":0,"slot":"1","type":"t_mapping(t_bytes32,t_bool)"},{"astId":744,"contract":"contracts/NooriBankBridge.sol:NooriBankBridge","label":"remoteBridges","offset":0,"slot":"2","type":"t_mapping(t_uint16,t_address)"},{"astId":747,"contract":"contracts/NooriBankBridge.sol:NooriBankBridge","label":"endpoint","offset":0,"slot":"3","type":"t_contract(ILayerZeroEndpoint)1882"},{"astId":760,"contract":"contracts/NooriBankBridge.sol:NooriBankBridge","label":"pendingTransfers","offset":0,"slot":"4","type":"t_mapping(t_bytes32,t_struct(PendingTransfer)769_storage)"},{"astId":839,"contract":"contracts/NooriBankBridge.sol:NooriBankBridge","label":"supportedChains","offset":0,"slot":"5","type":"t_mapping(t_uint16,t_struct(ChainSupport)834_storage)"},{"astId":841,"contract":"contracts/NooriBankBridge.sol:NooriBankBridge","label":"minGasForTransfer","offset":0,"slot":"6","type":"t_uint256"},{"astId":1350,"contract":"contracts/NooriBankBridge.sol:NooriBankBridge","label":"blockedAddresses","offset":0,"slot":"7","type":"t_mapping(t_address,t_bool)"}],"types":{"t_address":{"encoding":"inplace","label":"address","numberOfBytes":"20"},"t_bool":{"encoding":"inplace","label":"bool","numberOfBytes":"1"},"t_bytes32":{"encoding":"inplace","label":"bytes32","numberOfBytes":"32"},"t_contract(ILayerZeroEndpoint)1882":{"encoding":"inplace","label":"contract ILayerZeroEndpoint","numberOfBytes":"20"},"t_contract(INooriToken)1915":{"encoding":"inplace","label":"contract INooriToken","numberOfBytes":"20"},"t_mapping(t_address,t_bool)":{"encoding":"mapping","key":"t_address","label":"mapping(address => bool)","numberOfBytes":"32","value":"t_bool"},"t_mapping(t_bytes32,t_bool)":{"encoding":"mapping","key":"t_bytes32","label":"mapping(bytes32 => bool)","numberOfBytes":"32","value":"t_bool"},"t_mapping(t_bytes32,t_struct(PendingTransfer)769_storage)":{"encoding":"mapping","key":"t_bytes32","label":"mapping(bytes32 => struct NooriBankBridge.PendingTransfer)","numberOfBytes":"32","value":"t_struct(PendingTransfer)769_storage"},"t_mapping(t_uint16,t_address)":{"encoding":"mapping","key":"t_uint16","label":"mapping(uint16 => address)","numberOfBytes":"32","value":"t_address"},"t_mapping(t_uint16,t_struct(ChainSupport)834_storage)":{"encoding":"mapping","key":"t_uint16","label":"mapping(uint16 => struct NooriBankBridge.ChainSupport)","numberOfBytes":"32","value":"t_struct(ChainSupport)834_storage"},"t_struct(ChainSupport)834_storage":{"encoding":"inplace","label":"struct NooriBankBridge.ChainSupport","members":[{"astId":831,"contract":"contracts/NooriBankBridge.sol:NooriBankBridge","label":"remoteBridge","offset":0,"slot":"0","type":"t_address"},{"astId":833,"contract":"contracts/NooriBankBridge.sol:NooriBankBridge","label":"enabled","offset":20,"slot":"0","type":"t_bool"}],"numberOfBytes":"32"},"t_struct(PendingTransfer)769_storage":{"encoding":"inplace","label":"struct NooriBankBridge.PendingTransfer","members":[{"astId":762,"contract":"contracts/NooriBankBridge.sol:NooriBankBridge","label":"recipient","offset":0,"slot":"0","type":"t_address"},{"astId":764,"contract":"contracts/NooriBankBridge.sol:NooriBankBridge","label":"amount","offset":0,"slot":"1","type":"t_uint256"},{"astId":766,"contract":"contracts/NooriBankBridge.sol:NooriBankBridge","label":"timestamp","offset":0,"slot":"2","type":"t_uint256"},{"astId":768,"contract":"contracts/NooriBankBridge.sol:NooriBankBridge","label":"processed","offset":0,"slot":"3","type":"t_bool"}],"numberOfBytes":"128"},"t_uint16":{"encoding":"inplace","label":"uint16","numberOfBytes":"2"},"t_uint256":{"encoding":"inplace","label":"uint256","numberOfBytes":"32"}}}}}}