{"contracts/vault/NooriVault.sol":{"NooriVault":{"abi":[{"inputs":[],"stateMutability":"nonpayable","type":"constructor"},{"inputs":[],"name":"AccessControlBadConfirmation","type":"error"},{"inputs":[{"internalType":"address","name":"account","type":"address"},{"internalType":"bytes32","name":"neededRole","type":"bytes32"}],"name":"AccessControlUnauthorizedAccount","type":"error"},{"inputs":[{"internalType":"address","name":"target","type":"address"}],"name":"AddressEmptyCode","type":"error"},{"inputs":[{"internalType":"address","name":"implementation","type":"address"}],"name":"ERC1967InvalidImplementation","type":"error"},{"inputs":[],"name":"ERC1967NonPayable","type":"error"},{"inputs":[{"internalType":"address","name":"spender","type":"address"},{"internalType":"uint256","name":"allowance","type":"uint256"},{"internalType":"uint256","name":"needed","type":"uint256"}],"name":"ERC20InsufficientAllowance","type":"error"},{"inputs":[{"internalType":"address","name":"sender","type":"address"},{"internalType":"uint256","name":"balance","type":"uint256"},{"internalType":"uint256","name":"needed","type":"uint256"}],"name":"ERC20InsufficientBalance","type":"error"},{"inputs":[{"internalType":"address","name":"approver","type":"address"}],"name":"ERC20InvalidApprover","type":"error"},{"inputs":[{"internalType":"address","name":"receiver","type":"address"}],"name":"ERC20InvalidReceiver","type":"error"},{"inputs":[{"internalType":"address","name":"sender","type":"address"}],"name":"ERC20InvalidSender","type":"error"},{"inputs":[{"internalType":"address","name":"spender","type":"address"}],"name":"ERC20InvalidSpender","type":"error"},{"inputs":[{"internalType":"address","name":"receiver","type":"address"},{"internalType":"uint256","name":"assets","type":"uint256"},{"internalType":"uint256","name":"max","type":"uint256"}],"name":"ERC4626ExceededMaxDeposit","type":"error"},{"inputs":[{"internalType":"address","name":"receiver","type":"address"},{"internalType":"uint256","name":"shares","type":"uint256"},{"internalType":"uint256","name":"max","type":"uint256"}],"name":"ERC4626ExceededMaxMint","type":"error"},{"inputs":[{"internalType":"address","name":"owner","type":"address"},{"internalType":"uint256","name":"shares","type":"uint256"},{"internalType":"uint256","name":"max","type":"uint256"}],"name":"ERC4626ExceededMaxRedeem","type":"error"},{"inputs":[{"internalType":"address","name":"owner","type":"address"},{"internalType":"uint256","name":"assets","type":"uint256"},{"internalType":"uint256","name":"max","type":"uint256"}],"name":"ERC4626ExceededMaxWithdraw","type":"error"},{"inputs":[],"name":"EnforcedPause","type":"error"},{"inputs":[],"name":"ExpectedPause","type":"error"},{"inputs":[],"name":"FailedCall","type":"error"},{"inputs":[],"name":"InvalidInitialization","type":"error"},{"inputs":[],"name":"NotInitializing","type":"error"},{"inputs":[],"name":"ReentrancyGuardReentrantCall","type":"error"},{"inputs":[{"internalType":"address","name":"token","type":"address"}],"name":"SafeERC20FailedOperation","type":"error"},{"inputs":[],"name":"UUPSUnauthorizedCallContext","type":"error"},{"inputs":[{"internalType":"bytes32","name":"slot","type":"bytes32"}],"name":"UUPSUnsupportedProxiableUUID","type":"error"},{"anonymous":false,"inputs":[{"indexed":true,"internalType":"address","name":"wallet","type":"address"},{"indexed":false,"internalType":"uint256","name":"id","type":"uint256"}],"name":"AccountRegistered","type":"event"},{"anonymous":false,"inputs":[{"indexed":true,"internalType":"address","name":"owner","type":"address"},{"indexed":true,"internalType":"address","name":"spender","type":"address"},{"indexed":false,"internalType":"uint256","name":"value","type":"uint256"}],"name":"Approval","type":"event"},{"anonymous":false,"inputs":[{"indexed":true,"internalType":"address","name":"sender","type":"address"},{"indexed":true,"internalType":"address","name":"owner","type":"address"},{"indexed":false,"internalType":"uint256","name":"assets","type":"uint256"},{"indexed":false,"internalType":"uint256","name":"shares","type":"uint256"}],"name":"Deposit","type":"event"},{"anonymous":false,"inputs":[{"indexed":false,"internalType":"uint64","name":"version","type":"uint64"}],"name":"Initialized","type":"event"},{"anonymous":false,"inputs":[{"indexed":false,"internalType":"uint256","name":"amount","type":"uint256"},{"indexed":false,"internalType":"uint256","name":"timestamp","type":"uint256"}],"name":"InterestAccrued","type":"event"},{"anonymous":false,"inputs":[{"indexed":false,"internalType":"address","name":"_kycService","type":"address"}],"name":"KYCServiceUpdated","type":"event"},{"anonymous":false,"inputs":[{"indexed":false,"internalType":"string","name":"statement","type":"string"},{"indexed":false,"internalType":"bool","name":"verified","type":"bool"}],"name":"KYCVerified","type":"event"},{"anonymous":false,"inputs":[{"indexed":false,"internalType":"uint256","name":"id","type":"uint256"},{"indexed":false,"internalType":"string","name":"memo","type":"string"}],"name":"MemoGenerated","type":"event"},{"anonymous":false,"inputs":[{"indexed":false,"internalType":"address","name":"account","type":"address"}],"name":"Paused","type":"event"},{"anonymous":false,"inputs":[{"indexed":false,"internalType":"address","name":"priceFeed","type":"address"}],"name":"PriceFeedSet","type":"event"},{"anonymous":false,"inputs":[{"indexed":true,"internalType":"bytes32","name":"role","type":"bytes32"},{"indexed":true,"internalType":"bytes32","name":"previousAdminRole","type":"bytes32"},{"indexed":true,"internalType":"bytes32","name":"newAdminRole","type":"bytes32"}],"name":"RoleAdminChanged","type":"event"},{"anonymous":false,"inputs":[{"indexed":true,"internalType":"bytes32","name":"role","type":"bytes32"},{"indexed":true,"internalType":"address","name":"account","type":"address"},{"indexed":true,"internalType":"address","name":"sender","type":"address"}],"name":"RoleGranted","type":"event"},{"anonymous":false,"inputs":[{"indexed":true,"internalType":"bytes32","name":"role","type":"bytes32"},{"indexed":true,"internalType":"address","name":"account","type":"address"},{"indexed":true,"internalType":"address","name":"sender","type":"address"}],"name":"RoleRevoked","type":"event"},{"anonymous":false,"inputs":[{"indexed":false,"internalType":"uint256","name":"id","type":"uint256"},{"indexed":false,"internalType":"string","name":"memo","type":"string"},{"indexed":false,"internalType":"uint256","name":"amount","type":"uint256"},{"indexed":false,"internalType":"string","name":"timestamp","type":"string"}],"name":"TransactionRecorded","type":"event"},{"anonymous":false,"inputs":[{"indexed":true,"internalType":"address","name":"from","type":"address"},{"indexed":true,"internalType":"address","name":"to","type":"address"},{"indexed":false,"internalType":"uint256","name":"value","type":"uint256"}],"name":"Transfer","type":"event"},{"anonymous":false,"inputs":[{"indexed":false,"internalType":"address","name":"account","type":"address"}],"name":"Unpaused","type":"event"},{"anonymous":false,"inputs":[{"indexed":true,"internalType":"address","name":"implementation","type":"address"}],"name":"Upgraded","type":"event"},{"anonymous":false,"inputs":[{"indexed":true,"internalType":"address","name":"sender","type":"address"},{"indexed":true,"internalType":"address","name":"receiver","type":"address"},{"indexed":true,"internalType":"address","name":"owner","type":"address"},{"indexed":false,"internalType":"uint256","name":"assets","type":"uint256"},{"indexed":false,"internalType":"uint256","name":"shares","type":"uint256"}],"name":"Withdraw","type":"event"},{"inputs":[],"name":"ADMIN_ROLE","outputs":[{"internalType":"bytes32","name":"","type":"bytes32"}],"stateMutability":"view","type":"function"},{"inputs":[],"name":"DEFAULT_ADMIN_ROLE","outputs":[{"internalType":"bytes32","name":"","type":"bytes32"}],"stateMutability":"view","type":"function"},{"inputs":[],"name":"EMERGENCY_ROLE","outputs":[{"internalType":"bytes32","name":"","type":"bytes32"}],"stateMutability":"view","type":"function"},{"inputs":[],"name":"UPGRADER_ROLE","outputs":[{"internalType":"bytes32","name":"","type":"bytes32"}],"stateMutability":"view","type":"function"},{"inputs":[],"name":"UPGRADE_INTERFACE_VERSION","outputs":[{"internalType":"string","name":"","type":"string"}],"stateMutability":"view","type":"function"},{"inputs":[{"internalType":"address","name":"owner","type":"address"},{"internalType":"address","name":"spender","type":"address"}],"name":"allowance","outputs":[{"internalType":"uint256","name":"","type":"uint256"}],"stateMutability":"view","type":"function"},{"inputs":[{"internalType":"address","name":"spender","type":"address"},{"internalType":"uint256","name":"value","type":"uint256"}],"name":"approve","outputs":[{"internalType":"bool","name":"","type":"bool"}],"stateMutability":"nonpayable","type":"function"},{"inputs":[],"name":"asset","outputs":[{"internalType":"address","name":"","type":"address"}],"stateMutability":"view","type":"function"},{"inputs":[{"internalType":"address","name":"","type":"address"}],"name":"assetPriceFeeds","outputs":[{"internalType":"contract AggregatorV3Interface","name":"","type":"address"}],"stateMutability":"view","type":"function"},{"inputs":[{"internalType":"address","name":"account","type":"address"}],"name":"balanceOf","outputs":[{"internalType":"uint256","name":"","type":"uint256"}],"stateMutability":"view","type":"function"},{"inputs":[{"internalType":"uint256","name":"shares","type":"uint256"}],"name":"convertToAssets","outputs":[{"internalType":"uint256","name":"","type":"uint256"}],"stateMutability":"view","type":"function"},{"inputs":[{"internalType":"uint256","name":"assets","type":"uint256"}],"name":"convertToShares","outputs":[{"internalType":"uint256","name":"","type":"uint256"}],"stateMutability":"view","type":"function"},{"inputs":[],"name":"decimals","outputs":[{"internalType":"uint8","name":"","type":"uint8"}],"stateMutability":"view","type":"function"},{"inputs":[{"internalType":"uint256","name":"assets","type":"uint256"},{"internalType":"address","name":"receiver","type":"address"}],"name":"deposit","outputs":[{"internalType":"uint256","name":"","type":"uint256"}],"stateMutability":"nonpayable","type":"function"},{"inputs":[],"name":"generateMemo","outputs":[{"internalType":"string","name":"","type":"string"}],"stateMutability":"nonpayable","type":"function"},{"inputs":[{"internalType":"bytes32","name":"role","type":"bytes32"}],"name":"getRoleAdmin","outputs":[{"internalType":"bytes32","name":"","type":"bytes32"}],"stateMutability":"view","type":"function"},{"inputs":[{"internalType":"bytes32","name":"role","type":"bytes32"},{"internalType":"address","name":"account","type":"address"}],"name":"grantRole","outputs":[],"stateMutability":"nonpayable","type":"function"},{"inputs":[{"internalType":"bytes32","name":"role","type":"bytes32"},{"internalType":"address","name":"account","type":"address"}],"name":"hasRole","outputs":[{"internalType":"bool","name":"","type":"bool"}],"stateMutability":"view","type":"function"},{"inputs":[{"internalType":"contract IERC20","name":"asset_","type":"address"},{"internalType":"string","name":"name_","type":"string"},{"internalType":"string","name":"symbol_","type":"string"},{"internalType":"address","name":"kycService_","type":"address"}],"name":"initialize","outputs":[],"stateMutability":"nonpayable","type":"function"},{"inputs":[],"name":"kycService","outputs":[{"internalType":"contract IDidItMe","name":"","type":"address"}],"stateMutability":"view","type":"function"},{"inputs":[{"internalType":"address","name":"","type":"address"}],"name":"maxDeposit","outputs":[{"internalType":"uint256","name":"","type":"uint256"}],"stateMutability":"view","type":"function"},{"inputs":[{"internalType":"address","name":"","type":"address"}],"name":"maxMint","outputs":[{"internalType":"uint256","name":"","type":"uint256"}],"stateMutability":"view","type":"function"},{"inputs":[{"internalType":"address","name":"owner","type":"address"}],"name":"maxRedeem","outputs":[{"internalType":"uint256","name":"","type":"uint256"}],"stateMutability":"view","type":"function"},{"inputs":[{"internalType":"address","name":"owner","type":"address"}],"name":"maxWithdraw","outputs":[{"internalType":"uint256","name":"","type":"uint256"}],"stateMutability":"view","type":"function"},{"inputs":[{"internalType":"uint256","name":"shares","type":"uint256"},{"internalType":"address","name":"receiver","type":"address"}],"name":"mint","outputs":[{"internalType":"uint256","name":"","type":"uint256"}],"stateMutability":"nonpayable","type":"function"},{"inputs":[],"name":"name","outputs":[{"internalType":"string","name":"","type":"string"}],"stateMutability":"view","type":"function"},{"inputs":[],"name":"pause","outputs":[],"stateMutability":"nonpayable","type":"function"},{"inputs":[],"name":"paused","outputs":[{"internalType":"bool","name":"","type":"bool"}],"stateMutability":"view","type":"function"},{"inputs":[{"internalType":"uint256","name":"assets","type":"uint256"}],"name":"previewDeposit","outputs":[{"internalType":"uint256","name":"","type":"uint256"}],"stateMutability":"view","type":"function"},{"inputs":[{"internalType":"uint256","name":"shares","type":"uint256"}],"name":"previewMint","outputs":[{"internalType":"uint256","name":"","type":"uint256"}],"stateMutability":"view","type":"function"},{"inputs":[{"internalType":"uint256","name":"shares","type":"uint256"}],"name":"previewRedeem","outputs":[{"internalType":"uint256","name":"","type":"uint256"}],"stateMutability":"view","type":"function"},{"inputs":[{"internalType":"uint256","name":"assets","type":"uint256"}],"name":"previewWithdraw","outputs":[{"internalType":"uint256","name":"","type":"uint256"}],"stateMutability":"view","type":"function"},{"inputs":[],"name":"proxiableUUID","outputs":[{"internalType":"bytes32","name":"","type":"bytes32"}],"stateMutability":"view","type":"function"},{"inputs":[{"internalType":"uint256","name":"shares","type":"uint256"},{"internalType":"address","name":"receiver","type":"address"},{"internalType":"address","name":"owner","type":"address"}],"name":"redeem","outputs":[{"internalType":"uint256","name":"","type":"uint256"}],"stateMutability":"nonpayable","type":"function"},{"inputs":[{"internalType":"string","name":"masterPassword","type":"string"},{"internalType":"string","name":"recoveryKey","type":"string"}],"name":"register","outputs":[{"internalType":"uint256","name":"","type":"uint256"}],"stateMutability":"nonpayable","type":"function"},{"inputs":[{"internalType":"bytes32","name":"role","type":"bytes32"},{"internalType":"address","name":"callerConfirmation","type":"address"}],"name":"renounceRole","outputs":[],"stateMutability":"nonpayable","type":"function"},{"inputs":[{"internalType":"bytes32","name":"role","type":"bytes32"},{"internalType":"address","name":"account","type":"address"}],"name":"revokeRole","outputs":[],"stateMutability":"nonpayable","type":"function"},{"inputs":[{"internalType":"address","name":"_kycService","type":"address"}],"name":"setKYCService","outputs":[],"stateMutability":"nonpayable","type":"function"},{"inputs":[{"internalType":"address","name":"token","type":"address"},{"internalType":"address","name":"priceFeed","type":"address"}],"name":"setPriceFeed","outputs":[],"stateMutability":"nonpayable","type":"function"},{"inputs":[{"internalType":"bytes4","name":"interfaceId","type":"bytes4"}],"name":"supportsInterface","outputs":[{"internalType":"bool","name":"","type":"bool"}],"stateMutability":"view","type":"function"},{"inputs":[],"name":"symbol","outputs":[{"internalType":"string","name":"","type":"string"}],"stateMutability":"view","type":"function"},{"inputs":[],"name":"totalAssets","outputs":[{"internalType":"uint256","name":"","type":"uint256"}],"stateMutability":"view","type":"function"},{"inputs":[],"name":"totalSupply","outputs":[{"internalType":"uint256","name":"","type":"uint256"}],"stateMutability":"view","type":"function"},{"inputs":[{"internalType":"address","name":"to","type":"address"},{"internalType":"uint256","name":"amount","type":"uint256"}],"name":"transfer","outputs":[{"internalType":"bool","name":"","type":"bool"}],"stateMutability":"nonpayable","type":"function"},{"inputs":[{"internalType":"address","name":"from","type":"address"},{"internalType":"address","name":"to","type":"address"},{"internalType":"uint256","name":"value","type":"uint256"}],"name":"transferFrom","outputs":[{"internalType":"bool","name":"","type":"bool"}],"stateMutability":"nonpayable","type":"function"},{"inputs":[],"name":"unpause","outputs":[],"stateMutability":"nonpayable","type":"function"},{"inputs":[{"internalType":"address","name":"newImplementation","type":"address"},{"internalType":"bytes","name":"data","type":"bytes"}],"name":"upgradeToAndCall","outputs":[],"stateMutability":"payable","type":"function"},{"inputs":[{"internalType":"uint256","name":"assets","type":"uint256"},{"internalType":"address","name":"receiver","type":"address"},{"internalType":"address","name":"owner","type":"address"}],"name":"withdraw","outputs":[{"internalType":"uint256","name":"","type":"uint256"}],"stateMutability":"nonpayable","type":"function"}],"evm":{"bytecode":{"linkReferences":{},"object":"60a06040523461003257610011610037565b604051613f2d6101e18239608051818181612a350152612bb60152613f2d90f35b600080fd5b61003f61007e565b610047610102565b565b61005d90610060906001600160a01b031682565b90565b6001600160a01b031690565b61005d90610049565b61005d9061006c565b61008730610075565b608052565b61005d9060401c60ff1690565b61005d905461008c565b61005d905b6001600160401b031690565b61005d90546100a3565b61005d906100a8906001600160401b031682565b906100e261005d6100fe926100be565b82546001600160401b0319166001600160401b03919091161790565b9055565b600061010c61019a565b0161011681610099565b61018857610123816100b4565b6001600160401b039190829081160361013a575050565b816101697fc7f505b2f371ae2175ee4913f4499e1f2633a7b5936321eed1cdaeb6115181d293610183936100d2565b604051918291826001600160401b03909116815260200190565b0390a1565b63f92ee8a960e01b6000908152600490fd5b61005d6101d8565b61005d61005d61005d9290565b61005d7ff0c57e16840df040f15088dc2f81fe391c3923bec73e23a9662efc9c229c6a006101a2565b61005d6101af56fe6080604052600436101561001257600080fd5b60003560e01c806301e1d1141461030357806301ffc9a7146102fe57806306fdde03146102f957806307a2d13a146102a9578063095ea7b3146102f45780630a28a477146102ef57806318160ddd146102ea57806319b02d99146102e55780631e8b3d19146102e057806320df4359146102db57806323b872dd146102d6578063248a9ca3146102d15780632f2ff15d146102cc578063313ce567146102c757806336568abe146102c257806338d52e0f146102bd5780633f4ba83a146102b85780633ffbd47f146102b3578063402d267d1461024a578063466143fc146102ae5780634cdad506146102a95780634f1ef286146102a457806352d1902d1461029f5780635c975abb1461029a578063613d25bb146102955780636e553f651461029057806370a082311461028b57806375b238fc1461028657806376e11286146102815780638456cb591461027c57806391d148541461027757806394bf804d1461027257806395d89b411461026d578063a217fddf14610268578063a9059cbb14610263578063ad3cb1cc1461025e578063b3d7f6b914610259578063b460af9414610254578063ba0876521461024f578063c63d75b61461024a578063c6e6f5921461022c578063ce96cb7714610245578063d27e52e814610240578063d547741f1461023b578063d905777e14610236578063dd62ed3e14610231578063ef8b30f71461022c5763f72c0d8b0361031357610c82565b610bb4565b610c66565b610c4b565b610c32565b610c17565b610bcf565b6107ff565b610b98565b610b7c565b610b38565b610b1d565b610abc565b610aa1565b610a67565b610a4b565b610a2f565b610a17565b6109fe565b6109bb565b6109a0565b610984565b610968565b6108f3565b6108d8565b6108c4565b61046c565b610886565b6107e3565b6106c2565b61068d565b610674565b610645565b61062c565b6105ee565b6105d2565b610570565b610555565b610538565b610509565b6104ee565b6104d2565b61041e565b610385565b61031e565b600091031261031357565b600080fd5b9052565b565b346103135761032e366004610308565b61034a610339610cf4565b6040515b9182918290815260200190565b0390f35b6001600160e01b031981165b0361031357565b9050359061031c8261034e565b906020828203126103135761038291610361565b90565b346103135761034a6103a061039b36600461036e565b610d0f565b60405191829182901515815260200190565b60005b8381106103c55750506000910152565b81810151838201526020016103b5565b6103f66103ff602093610409936103ea815190565b80835293849260200190565b958691016103b2565b601f01601f191690565b0190565b6020808252610382929101906103d5565b346103135761042e366004610308565b61034a610439610e10565b6040519182918261040d565b8061035a565b9050359061031c82610445565b90602082820312610313576103829161044b565b346103135761034a610339610482366004610458565b610e2b565b6001600160a01b031690565b6001600160a01b03811661035a565b9050359061031c82610493565b9190604083820312610313576103829060206104cb82866104a2565b940161044b565b346103135761034a6103a06104e83660046104af565b90610e3f565b346103135761034a610339610504366004610458565b610e4f565b3461031357610519366004610308565b61034a610339610e63565b9060208282031261031357610382916104a2565b346103135761055061054b366004610524565b610f10565b604051005b3461031357610565366004610308565b61034a61043961133d565b3461031357610580366004610308565b61034a7fbf233dd2aafeb4d50879c4aa5c81e96d92f6e6945c906a58f9f2d1c1631b4b26610339565b9091606082840312610313576103826105c284846104a2565b9360406104cb82602087016104a2565b346103135761034a6103a06105e83660046105a9565b91611347565b346103135761034a610339610604366004610458565b611363565b919060408382031261031357610382906020610625828661044b565b94016104a2565b346103135761055061063f366004610609565b906113ab565b3461031357610655366004610308565b61034a6106606113e8565b6040519182918260ff909116815260200190565b3461031357610550610687366004610609565b90611422565b346103135761069d366004610308565b61034a6106a8611459565b604051918291826001600160a01b03909116815260200190565b34610313576106d2366004610308565b6105506114ae565b634e487b7160e01b600052604160045260246000fd5b90601f01601f191681019081106001600160401b0382111761071157604052565b6106da565b9061031c61072360405190565b92836106f0565b6001600160401b03811161071157602090601f01601f19160190565b90826000939282370152565b909291926107676107628261072a565b610716565b93818552818301116103135761031c916020850190610746565b9080601f830112156103135781602061038293359101610752565b9190916040818403126103135780356001600160401b03811161031357836107c5918301610781565b9260208201356001600160401b038111610313576103829201610781565b346103135761034a6103396107f936600461079c565b90611b5e565b346103135761034a610339610815366004610524565b5060001990565b610382916008021c6001600160a01b031690565b90610382915461081c565b61038260006004610830565b61038290610487906001600160a01b031682565b61038290610847565b6103829061085b565b61031890610864565b60208101929161031c919061086d565b3461031357610896366004610308565b61034a6108a161083b565b60405191829182610876565b919091604081840312610313576107c583826104a2565b6105506108d23660046108ad565b90611b8a565b34610313576108e8366004610308565b61034a610339611bd7565b3461031357610903366004610308565b61034a6103a0611bf4565b6080818303126103135761092282826104a2565b9260208201356001600160401b0381116103135783610942918401610781565b926040830135906001600160401b03821161031357606061062582610382948701610781565b346103135761055061097b36600461090e565b92919091611ed0565b346103135761034a61033961099a366004610609565b90611f65565b346103135761034a6103396109b6366004610524565b611f71565b34610313576109cb366004610308565b61034a600080516020613ed8833981519152610339565b91906040838203126103135761038290602061062582866104a2565b3461031357610550610a113660046109e2565b90611ff7565b3461031357610a27366004610308565b610550612035565b346103135761034a6103a0610a45366004610609565b9061203d565b346103135761034a610339610a61366004610609565b906120b0565b3461031357610a77366004610308565b61034a6104396120bc565b6103826103826103829290565b6103826000610a82565b610382610a8f565b3461031357610ab1366004610308565b61034a610339610a99565b346103135761034a6103a0610ad23660046104af565b9061221b565b90610ae56107628361072a565b918252565b610af46005610ad8565b640352e302e360dc1b602082015290565b610382610aea565b610382610b05565b610382610b0d565b3461031357610b2d366004610308565b61034a610439610b15565b346103135761034a610339610b4e366004610458565b612227565b909160608284031261031357610382610b6c848461044b565b93604061062582602087016104a2565b346103135761034a610339610b92366004610b53565b91612313565b346103135761034a610339610bae366004610b53565b91612401565b346103135761034a610339610bca366004610458565b61240e565b346103135761034a610339610be5366004610524565b61241c565b90610bf490610864565b600052602052604060002090565b6000610c12610382926007610bea565b610830565b346103135761034a6108a1610c2d366004610524565b610c02565b3461031357610550610c45366004610609565b90612453565b346103135761034a610339610c61366004610524565b61245d565b346103135761034a610339610c7c3660046109e2565b90612468565b3461031357610c92366004610308565b61034a7f189ab7a9244df0848122154315af71fe140f3db0fe014031783b0946b8c9d2e3610339565b6103829081565b6103829054610cbb565b634e487b7160e01b600052601160045260246000fd5b91908201809211610cef57565b610ccc565b610382610cff6124c4565b610d096001610cc2565b90610ce2565b61038290612556565b634e487b7160e01b600052602260045260246000fd5b9060016002830492168015610d4e575b6020831014610d4957565b610d18565b91607f1691610d3e565b80546000939291610d75610d6b83610d2e565b8085529360200190565b9160018116908115610dc75750600114610d8e57505050565b610da19192939450600052602060002090565b916000925b818410610db35750500190565b805484840152602090930192600101610da6565b92949550505060ff1916825215156020020190565b9061038291610d58565b9061031c610e0092610df760405190565b93848092610ddc565b03836106f0565b61038290610de6565b6103826003600080516020613e988339815191525b01610e07565b600061038291610e39600090565b506125a1565b610e4a9190336125dc565b600190565b600161038291610e5d600090565b506125e9565b6103826002600080516020613e988339815191525b01610cc2565b61031c90610e9e600080516020613ed8833981519152612604565b612604565b610ed3565b906001600160a01b03905b9181191691161790565b90610ec8610382610ecf92610864565b8254610ea3565b9055565b610f0b7f83557575ccbb6480c69683a86123ba745290c764ea233a6dc0de003080df11bd916106a8610f0482610864565b6004610eb8565b0390a1565b61031c90610e7e565b61038290610f2561260f565b611232565b6104876103826103829290565b61038290610f2a565b15610f4757565b60405162461bcd60e51b815260206004820152601060248201526f1058d8dbdd5b9d081c995c5d5a5c995960821b604482015280606481015b0390fd5b610409610f9c92602092610f96815190565b94859290565b938491016103b2565b610fcb6103829392610fc5610fc593644d454d4f2d60d81b815260050190565b90610f84565b602d60f81b815260010190565b634e487b7160e01b600052603260045260246000fd5b805482101561101157611008600191600052602060002090565b91020190600090565b610fd8565b634e487b7160e01b600052600060045260246000fd5b9160001960089290920291821b911b610eae565b9190611051610382610ecf93610a82565b90835461102c565b61031c91600091611040565b818110611070575050565b8061107e6000600193611059565b01611065565b9190601f811161109357505050565b6110a561031c93600052602060002090565b906020601f8401819004830193106110c8575b6020601f909101045b0190611065565b90915081906110b8565b600019600883021c1916906002021790565b906110ed815190565b906001600160401b038211610711576111108261110a8554610d2e565b85611084565b602090601f831160011461113e57610ecf929160009183611133575b50506110d2565b01519050388061112c565b601f1983169161115385600052602060002090565b9260005b81811061119157509160029391856001969410611178575b50505002019055565b01516000196008601f8516021c1916905538808061116f565b91936020600181928787015181550195019201611157565b91906111b85761031c916110e4565b611016565b90815491600160401b83101561071157826111e091600161031c95018155610fee565b906111a9565b610ae56104099160209493610f84565b61120b61120260405190565b928392836111e6565b03902090565b610382916111f6565b908152604060208201819052610382929101906103d5565b506112786112546001611246336005610bea565b01546001600160a01b031690565b6112716112646104876000610f37565b916001600160a01b031690565b1415610f40565b6113037f8255c8525999a4033c19435fbc50486f0692671b14f480923f0b3a6472ebb23560046113226112af610382336005610bea565b611308816112fa6112ee6103826112cd6112c885610cc2565b6126ca565b6112d6426126ca565b906112e060405190565b938492602084019283610fa5565b908103825203826106f0565b96879586920190565b6111bd565b61131d611316846006611211565b3390610eb8565b610cc2565b61133761132e60405190565b9283928361121a565b0390a190565b6103826060610f19565b610e4a9291906113588333836127d8565b612829565b90610bf4565b6001610e7861038292611374600090565b506000600080516020613eb88339815191525b0161135d565b9061031c9161139e610e9982611363565b906113a8916128b5565b50565b9061031c9161138d565b6103829060a01c5b60ff1690565b61038290546113b5565b6113dc9060ff165b9160ff1690565b019060ff8211610cef57565b6103826114147f0773e532dfede91f04b12a73d3d2acd361424f41f76b4fb79f090161e36b4e006113c3565b61141c612948565b906113cd565b9061142c33610487565b6001600160a01b03821603611444576113a891612952565b63334bd91960e11b600090815260045b036000fd5b61038261148760007f0773e532dfede91f04b12a73d3d2acd361424f41f76b4fb79f090161e36b4e00611246565b610864565b6114a3600080516020613ed8833981519152612604565b61031c61031c612a22565b61031c61148c565b9061038292916114c461260f565b6119b2565b156114d057565b60405162461bcd60e51b815260206004820152600e60248201526d4163636f756e742065786973747360901b6044820152606490fd5b1561150d57565b60405162461bcd60e51b815260206004820152601260248201527114185cdcdddbdc99081d1bdbc81cda1bdc9d60721b6044820152606490fd5b1561154e57565b60405162461bcd60e51b8152602060048201526016602482015275149958dbdd995c9e481ad95e481d1bdbc81cda1bdc9d60521b6044820152606490fd5b6000198114610cef5760010190565b9060001990610eae565b906115b5610382610ecf92610a82565b825461159b565b61038291610f84565b6001600160401b0381116107115760208091020190565b90610ae5610762836115c5565b60005b8281106115f857505050565b6060828201526020016115ec565b9061031c61161c611616846115dc565b936115c5565b601f1901602084016115e9565b610382610100610716565b906115b5610382610ecf9290565b81810292918115918404141715610cef57565b9061166890600019906020036008021c90565b8154169055565b9060009161168d61168582600052602060002090565b9283546110d2565b905555565b91929060208210156116ea57601f84116001146116b457610ecf9293506110d2565b50906116e561031c9360016116dc6116d185600052602060002090565b92601f602091010490565b82019101611065565b61166f565b506117238293611701600194600052602060002090565b6110c16020601f860104820192601f86168061172b575b50601f602091010490565b600202179055565b61173790888603611655565b38611718565b929091600160401b8211610711576020111561178457602081101561176557610ecf916110d2565b60019160ff191661177b84600052602060002090565b55600202019055565b60019150600202019055565b90815461179c81610d2e565b908183116117c5575b8183106117b3575b50505050565b6117bc93611692565b388080806117ad565b6117d18383838761173d565b6117a5565b600061031c91611790565b906000036111b85761031c906117d6565b8181106117fd575050565b8061180b60006001936117e1565b016117f2565b91909182821061182057505050565b61031c9291611836905b91600052602060002090565b91820191016117f2565b90600160401b8111610711578161185861031c935490565b90828155611811565b9061031c916110e4565b61188a61182a611879845190565b936118848585611840565b60200190565b6000915b83831061189b5750505050565b60016020826118b26118ac84955190565b86611861565b0192019201919061188e565b9061031c9161186b565b9060ff90610eae565b906118e1610382610ecf92151590565b82546118c8565b60076119a160e061031c94611907611901600083015190565b866115a5565b61192761191e60208301516001600160a01b031690565b60018701610eb8565b61193e611935604083015190565b60028701611634565b61195561194c606083015190565b60038701611634565b61196c611963608083015190565b600487016118be565b61198361197a60a083015190565b600587016115a5565b61199c61199360c0830151151590565b600687016118d1565b015190565b91016115a5565b9061031c916118e8565b611b1092611b009150611af96119ce6001611246336005610bea565b6119e96000916119e361126461048785610f37565b146114c9565b611a0c6119f4865190565b611a05611a016008610a82565b9190565b1015611506565b611a2b611a17845190565b611a24611a016008610a82565b1015611547565b611a47611a40611a3b6002610cc2565b61158c565b60026115a5565b611ae5611a546002610cc2565b95611a71611a6160405190565b80926112ee6020830191826115bc565b611a83611a7c825190565b9160200190565b2093611a91611a6160405190565b611a9c611a7c825190565b2093611ade611aaa84610a82565b95611ad7611ab788611606565b93611aca611ac3611629565b9b888d0152565b3360208c015260408b0152565b6060890152565b6080870152565b611af04260a0870152565b151560c0850152565b60e0830152565b611b0b336005610bea565b6119a8565b611b1a6002610cc2565b7fefd1ddef00b1051abc144c2e895de70a10dbbc3ad8985118c74c15e40e3d391f611b51611b4733610864565b9261033d60405190565b0390a26103826002610cc2565b610382919060006114b6565b9061031c91611b77612a2a565b9061031c91611b8581612ad8565b612ae1565b9061031c91611b6a565b61038290611ba0612ba0565b611bce565b6103827f360894a13ba1a3210667c828492db98dca3e2076cc3735a920a3ca505d382bbc610a82565b50610382611ba5565b6103826000611b94565b610382906113bd565b6103829054611be1565b6103827fcd5ed15c6e187e77e9aee88184c21f4f2182ab5827cb3b7e07fbedcd63f03300611bea565b6103829060401c6113bd565b6103829054611c1d565b610382905b6001600160401b031690565b6103829054611c33565b611c386103826103829290565b906001600160401b0390610eae565b611c38610382610382926001600160401b031690565b90611c90610382610ecf92611c6a565b8254611c5b565b9068ff00000000000000009060401b610eae565b90611cbb610382610ecf92151590565b8254611c97565b61031890611c4e565b60208101929161031c9190611cc2565b91611ce4612be2565b938491611d00611cfa611cf685611c29565b1590565b93611c44565b93600095611d0d87611c4e565b6001600160401b0387161480611e05575b600196611d3a611d2d89611c4e565b916001600160401b031690565b149081611de1575b155b9081611dd8575b50611dc95790611d7793929185611d6e89611d658a611c4e565b9b019a8b611c80565b611dba57611e0c565b611d8057505050565b611dae610f0b927fc7f505b2f371ae2175ee4913f4499e1f2633a7b5936321eed1cdaeb6115181d294611cab565b60405191829182611ccb565b611dc4878a611cab565b611e0c565b63f92ee8a960e01b8752600487fd5b15905038611d4b565b9050611d44611def30610864565b3b611dfc611a018b610a82565b14919050611d42565b5084611d1e565b610f049261031c9492611e21611e2693612bff565b612c1f565b611e2e612c31565b611e36612c4c565b611e3e612c31565b611e46612c31565b611e58611e51610a8f565b33906128b5565b50611e70600080516020613ed8833981519152611e51565b50611e9a7f189ab7a9244df0848122154315af71fe140f3db0fe014031783b0946b8c9d2e3611e51565b50611ec47fbf233dd2aafeb4d50879c4aa5c81e96d92f6e6945c906a58f9f2d1c1631b4b26611e51565b506114874260006115a5565b9061031c939291611cdb565b906103829291611eea61260f565b90611efd9291611ef8612c5e565b611f41565b9061031c612cbc565b15611f0d57565b60405162461bcd60e51b815260206004820152600c60248201526b12d650c81c995c5d5a5c995960a21b6044820152606490fd5b506103829190611f58611f5382612d10565b611f06565b611f60612da0565b612ebe565b61038291906000611edc565b61131d61038291611f80600090565b506000600080516020613e988339815191525b01610bea565b61031c9190611fb5600080516020613ed8833981519152612604565b7f40d8738b990e6ff9a2f56f11247e657a1e7070472260b020a4fc3ab1844787bd916106a8610f0b92611ff2611fea84610864565b916007610bea565b610eb8565b9061031c91611f99565b61202a7fbf233dd2aafeb4d50879c4aa5c81e96d92f6e6945c906a58f9f2d1c1631b4b26612604565b61031c61031c612f3c565b61031c612001565b610382916000611f9361206893612052600090565b5082600080516020613eb8833981519152611387565b611bea565b90610382929161207b61260f565b90611efd9291612089612c5e565b5061038291906120a3611f5361209e83612227565b612d10565b6120ab612da0565b612f44565b6103829190600061206d565b6103826004600080516020613e98833981519152610e25565b9061038292916120e361260f565b90611efd92916120f1612c5e565b6121ac565b610382600a610a82565b610382612710610a82565b634e487b7160e01b600052601260045260246000fd5b811561212b570490565b61210b565b91908203918211610cef57565b6121476008610ad8565b673a3930b739b332b960c11b602082015290565b61038261213d565b61216d6005610ad8565b644e4f4f524960d81b602082015290565b610382612163565b6121906008610ad8565b672a3930b739b332b960c11b602082015290565b610382612186565b5061038291906121be611f5383612d10565b6121c6612da0565b6122166121f46121ee6121e06121da6120f6565b86611642565b6121e8612100565b90612121565b84612130565b926121fd61215b565b61220561217e565b9061220e6121a4565b9285336130bb565b613212565b610382919060006120d5565b600161038291610e39600090565b9061038293929161224461260f565b90611efd939291612253612c5e565b6122b0565b6103826032610a82565b61226c6008610ad8565b67776974686472617760c01b602082015290565b610382612262565b612292600a610ad8565b6915da5d1a191c985dd85b60b21b602082015290565b610382612288565b506103829291906122c4611f53848361321d565b6122cc612da0565b61230e6122ec6122e66121e06122e0612258565b85611642565b83612130565b916122f5612280565b6122fd61217e565b906123066122a8565b9286886130bb565b613235565b6103829291906000612235565b9061038293929161232f61260f565b90611efd93929161233e612c5e565b61238f565b61234d6006610ad8565b6572656465656d60d01b602082015290565b610382612343565b612371600a610ad8565b692932b232b6b83a34b7b760b11b602082015290565b610382612367565b6103829392916123fc91506123f76123a682610e2b565b916123b4611f53878561321d565b6123bc612da0565b6123cd6121ee6121e06121da612258565b906123f26123d961235f565b6123e161217e565b6123e9612387565b91878a8c6130bb565b611642565b612121565b613278565b6103829291906000612320565b600061038291610e5d600090565b60006124336103829261242d600090565b50611f71565b6125a1565b9061031c91612449610e9982611363565b906113a891612952565b9061031c91612438565b61038290600061242d565b6103829161249261131d9261247b600090565b506001600080516020613e98833981519152611f93565b610bea565b9050519061031c82610445565b906020828203126103135761038291612497565b6040513d6000823e3d90fd5b61251260206124d7611487611487611459565b6124e030610864565b906124ea60405190565b938492839182916370a0823160e01b8352600483016001600160a01b03909116815260200190565b03915afa90811561255157600091612528575090565b610382915060203d60201161254a575b61254281836106f0565b8101906124a4565b503d612538565b6124b8565b637965db0b60e01b6001600160e01b0319821614908115612575575090565b61038291506001600160e01b0319166301ffc9a760e01b1490565b60ff16604d8111610cef57600a0a90565b61038291906125bb6125b1610cf4565b610d096001610a82565b6125d66125c6610e63565b610d096125d1612948565b612590565b916132c0565b9160019161031c93613318565b61038291906125f96125c6610e63565b6125d66125b1610cf4565b61031c903390613428565b612617611bf4565b61261d57565b63d93c066560e01b6000908152600490fd5b6126396001610ad8565b600360fc1b602082015290565b61038261262f565b369037565b9061031c61266961266384610ad8565b9361072a565b601f19016020840161264e565b905b90811561212b570690565b6113bd6103826103829290565b6126a66126a06103829260ff1690565b60f81b90565b6001600160f81b03191690565b906126bc825190565b811015611011570160200190565b9060006126d681610a82565b83146127a2579091908160005b6126ec83610a82565b841461270f576126fe6127099161158c565b936121e8600a610a82565b926126e3565b9193925061271c82612653565b915b61272785610a82565b8214612797576127446127919161273e6001610a82565b90612130565b916121e8600a8461278b61278261277d61277861276961276387610a82565b89612676565b6127736030610a82565b610ce2565b612683565b612690565b8a1a91886126b3565b53610a82565b9061271e565b505061038291925090565b509050610382612646565b6001600160a01b03909116815260608101939261031c9290916040916127d4906020830152565b0152565b916127e38284612468565b60001981106127f25750505050565b81811061280f57916128096117bc94926000940390565b91613318565b637dc7a0d960e11b600090815293506114549260046127ad565b92919060009361283885610f37565b856001600160a01b0382166001600160a01b0384161461289557506001600160a01b0381166001600160a01b03841614612878575061031c939450613457565b63ec442f0560e01b86526001600160a01b03166004860152602485fd5b634b637e8f60e11b81526001600160a01b03919091166004820152602490fd5b600080516020613eb88339815191526128d1611cf6848461203d565b156129405760016128ed846000611f9386826128f2970161135d565b6118d1565b61290c612906612900339390565b93610864565b91610864565b917f2f8788117e7eff1d82e926ec794901d17c78024a50270940304540a733656f0d61293760405190565b600090a4600190565b505050600090565b6103826000612683565b600080516020613eb883398151915261296b838361203d565b156129405760006128ed8482611f938682612986970161135d565b612994612906612900339390565b917ff6391f5c32d9c69d2a47ea670b442974b53935d1edc7fd64eb21e047a839171b61293760405190565b6129c7613596565b61031c6129f86000807fcd5ed15c6e187e77e9aee88184c21f4f2182ab5827cb3b7e07fbedcd63f033005b016118d1565b7f5db9ee0a495bf2e6ff9c91a7834c1ba4fdd244a5e8aa4e537bd38aeae4b073aa610f0b336106a8565b61031c6129bf565b612a3330610864565b7f000000000000000000000000000000000000000000000000000000000000000090612a676001600160a01b038316611264565b14908115612a89575b50612a7757565b63703e46dd60e11b6000908152600490fd5b9050612aa6611264612a996135b9565b926001600160a01b031690565b141538612a70565b5061031c7f189ab7a9244df0848122154315af71fe140f3db0fe014031783b0946b8c9d2e3612604565b61031c90612aae565b90612aee61148783610864565b906020612afa60405190565b6352d1902d60e01b815292839060049082905afa60009281612b7f575b50612b495750506001612b275750565b634c9c8ce360e01b60009081526001600160a01b039091166004526024036000fd5b909291612b57610382611ba5565b8403612b685761031c9293506135c9565b632a87526960e21b60009081526004859052602490fd5b612b9991935060203d60201161254a5761254281836106f0565b9138612b17565b612ba930610864565b612bdb6001600160a01b037f000000000000000000000000000000000000000000000000000000000000000016611264565b03612a7757565b61038261365b565b61031c90612bf6613663565b61031c90613727565b61031c90612bea565b9061031c91612c15613663565b9061031c9161376c565b9061031c91612c08565b61031c613663565b61031c612c29565b612c41613663565b61031c61031c613786565b61031c612c39565b6103826002610a82565b7f9b779b17422d0df92223018b32b4d1fa46e071723d6817e2486d003becc55f00612c8881610cc2565b612c90612c54565b908114612ca05761031c916115a5565b633ee5aeb560e01b6000908152600490fd5b6103826001610a82565b61031c7f9b779b17422d0df92223018b32b4d1fa46e071723d6817e2486d003becc55f0060006119a1612cb2565b610382692a5a058fc295ed000000610a82565b61038269d3c21bcecceda1000000610a82565b612d1e610382336005610bea565b612d2a60068201611bea565b918215612d3657505090565b909150612d44610382612cea565b8111159182612d5257505090565b612d63925060076127739101610cc2565b612d71611a01610382612cfd565b111590565b61038262015180610a82565b6103826103e8610a82565b90815260408101929161031c9160200152565b612db3612dad6000610cc2565b42612130565b90612dbc612d76565b80831015612dc957509050565b612dd16124c4565b92612e11612ddd612d82565b92612e0b6121e0612e00670de0b6b3a764000096612dfa88610a82565b90611642565b6121e861016d610a82565b92612121565b9284612e1d6000610a82565b955b855b871015612e5757612e4f612e4882610d09612e3f88612e2196611642565b6121e88a610a82565b9760010190565b969050612e1f565b909195507f3d8708181c6452c5711a2b4c6ed3f12149f6ea35f78549aba00a89d041e766ca9450610f0b9350612e8d9250612130565b612ea5612e9e826127736001610cc2565b60016115a5565b612eb04260006115a5565b604051918291429083612d8d565b9061038290612ecc8361240e565b9283913361378e565b61378e565b612ee261260f565b61031c612f12600160007fcd5ed15c6e187e77e9aee88184c21f4f2182ab5827cb3b7e07fbedcd63f033006129f2565b7f62e78cea01bee320cd4e420270b5ea74000d11b0c9f74754ebdbfc544b05a258610f0b336106a8565b61031c612eda565b80612f5161038292612227565b8093612ed53390565b610382610120610716565b805482101561101157611008600991600052602060002090565b60086119a161010061031c94612f99611901600083015190565b612fb061191e60208301516001600160a01b031690565b612fc7612fbe604083015190565b60028701611861565b612fe7612fde60608301516001600160a01b031690565b60038701610eb8565b613007612ffe60808301516001600160a01b031690565b60048701610eb8565b61301e61301560a083015190565b60058701611861565b61303561302c60c083015190565b60068701611861565b61199c61304360e083015190565b60078701611861565b91906111b85761031c91612f7f565b90815491600160401b831015610711578261307e91600161031c95018155612f65565b9061304c565b90815261038293916130ae906130a690608084019084820360208601526103d5565b936040830152565b60608184039101526103d5565b929491949390936130cc6003610cc2565b6130d59061158c565b6130e09060036115a5565b6130ea6003610cc2565b946130f4426126ca565b936130fd612f5a565b9687526001600160a01b038616602088015260408701526001600160a01b031660608601526001600160a01b038416608086015260a085015260c084015260e083015261314c83610100840152565b61315782600861305b565b613162816005610bea565b600101546001600160a01b03166131796000610f37565b6001600160a01b0316906001600160a01b03161415927f35f40bc6254d16659c30da1d658dc7236ac919f02ed864ab8357f22295ee4d2d936131e7575b50508051610f0b60408301519260e06131d161010083015190565b910151906131de60405190565b94859485613084565b61320560076131fa61320b946005610bea565b019161277383610cc2565b906115a5565b38806131b6565b610e4a919033612829565b90610382612d1e9161322d600090565b506005610bea565b61323e8361241c565b80821161325d5750908161325461038293610e4f565b938492336137f8565b633fa733bb60e21b60009081529161145491908560046127ad565b906132828361245d565b8083116132a15750906103829161329882610e2b565b938491336137f8565b632e52afbb60e21b60009081529061145490848660046127ad565b1490565b92916132d66132d08284876138a2565b93613a18565b93846132ec575b505050610d0961038292151590565b90809294501561212b57613310610d09926103829561330b6000610a82565b930990565b1192386132dd565b909192613330600080516020613e9883398151915290565b600061333b81610f37565b6001600160a01b0381166001600160a01b038616146133ee576001600160a01b0381166001600160a01b038716146133d157505084613384856124928660016133899601610bea565b6115a5565b61339257505050565b6133cc6133c26129007f8c5be1e5ebec7d5bd14f71427d1e84f3dd0314c0f7b2291e5b200ac8c7c3b92593610864565b9361033d60405190565b0390a3565b634a1406b160e11b82526001600160a01b03166004820152602490fd5b63e602df0560e01b82526001600160a01b03166004820152602490fd5b6001600160a01b03909116815260408101929161031c9160200152565b90613436611cf6828461203d565b61343e575050565b63e2517d3f60e01b60009081529161145491600461340b565b600080516020613e9883398151915282600061347281610f37565b6001600160a01b0381166001600160a01b038616036135175793836133c293612900936134d27fddf252ad1be2c89b69c2b068fc378daa952ba7f163c4a11628f55a4df523b3ef986104878c61320560026133cc9c019161277383610cc2565b6001600160a01b038316036134fb57505060026114879101613205896134f783610cc2565b0390565b9061350a916114879301610bea565b6132058961040983610cc2565b90809250830161352a61131d8683610bea565b87811061357b5793866133c2946134d2612900956104878a966133847fddf252ad1be2c89b69c2b068fc378daa952ba7f163c4a11628f55a4df523b3ef9c8f613575906133cc9e0390565b92610bea565b83610f808982938963391434e360e21b8552600485016127ad565b6135a1611cf6611bf4565b6135a757565b638dfc202b60e01b6000908152600490fd5b6103826000611246610382611ba5565b906135d382613a4a565b6135dc82610864565b7fbc7cd75a20ee27fd9adebab32041f755214dbc6bffa90cc0225b39da2e5c2d3b61360660405190565b600090a28051613619611a016000610a82565b1115613628576113a891613ad7565b505061031c613a95565b6103827ff0c57e16840df040f15088dc2f81fe391c3923bec73e23a9662efc9c229c6a00610a82565b610382613632565b61366e611cf6613afe565b61367457565b631afcd79f60e31b6000908152600490fd5b61031c90613692613663565b6136cd565b9060ff60a01b9060a01b610eae565b6113bd6103826103829260ff1690565b906136c6610382610ecf926136a6565b8254613697565b61031c907f0773e532dfede91f04b12a73d3d2acd361424f41f76b4fb79f090161e36b4e006136fb82613b21565b9015613711576000611ff291925b0191826136b6565b50611ff260006137216012612683565b92613709565b61031c90613686565b9061031c9161373d613663565b90600461031c9261376661375c600080516020613e9883398151915290565b9160038301611861565b01611861565b9061031c91613730565b61377e613663565b61031c612cbc565b61031c613776565b926137e26129007fdcbc1c05240f31ff3ad067ef1ee35ce4997762752e3a095284754544f4c709d79394956137d8876137c8611487611459565b836137d230610864565b91613c22565b6114878487613c5d565b936133cc6137ef60405190565b92839283612d8d565b9361386c6138666138667ffbde797d201c681b91056529119e0b02407c7bb96a4a2c75c01fc9667232c8db94959697613837886001600160a01b031690565b6001600160a01b0382160361387e575b6138518589613cac565b6114878988613861611487611459565b613cfd565b94610864565b946138796137ef60405190565b0390a4565b61388985828a6127d8565b613847565b6103826012610a82565b6103826011610a82565b906000916138b08282613d31565b9290916000946138bf86610a82565b84146139c5578387111561399957869593610382976139099461391c979460019450099083821190039203956138f8816134f787610a82565b811680808093049804950304010290565b179161391c6139208261391c6003610a82565b0290565b6134f761399361398d61397e61396f61396061395160029761394189610a82565b1861391c8b82026134f78b610a82565b61391c8a82026134f78a610a82565b61391c8982026134f789610a82565b61391c8882026134f788610a82565b61391c8782026134f787610a82565b80950290565b91610a82565b6139c0876139a9611a0189610a82565b146139b261388e565b6139ba613898565b91613d45565b613d61565b50505050610382929150612121565b634e487b7160e01b600052602160045260246000fd5b600411156139f457565b6139d4565b9061031c826139ea565b610382906139f9565b6126789060ff166113d5565b613a2d613a3d91613a27600090565b50613a03565b613a376002612683565b90613a0c565b6132bc6113d56001612683565b6000813b613a5a611a0183610a82565b14613a75579061031c91613a6f610382611ba5565b01610eb8565b634c9c8ce360e01b81526001600160a01b03919091166004820152602490fd5b6000613aa081610a82565b3411613aa95750565b63b398979f60e01b8152600490fd5b3d15613ad257613ac73d610ad8565b903d6000602084013e565b606090565b60008061038293613ae6606090565b50602081519101845af4613af8613ab8565b91613d72565b6103826000613b0b612be2565b01611c29565b6103826103826103829260ff1690565b6000613b368192613b30600090565b50610864565b60405163313ce56760e01b602082015290613b5f82602481015b602082018103825203836106f0565b602082519201905afa613b70613ab8565b9080613bc1575b613b8a575b506000906103826000612683565b806020613b98613ba3935190565b8183010191016124a4565b613bad60ff613b11565b8111613b7c57613bbc90612683565b600191565b508051613bd1611a016020610a82565b1015613b77565b613bf1613beb6103829263ffffffff1690565b60e01b90565b6001600160e01b03191690565b6001600160a01b0391821681529116602082015260608101929161031c9160400152565b90613c5890613b5061031c95600495613c3e6323b872dd613bd8565b93613c4860405190565b9788956020870190815201613bfe565b613dd1565b9190600092613c6b84610f37565b6001600160a01b0381166001600160a01b03831614613c8f5761031c939450613457565b63ec442f0560e01b85526001600160a01b03166004850152602484fd5b9190600092613cba84610f37565b906001600160a01b0382166001600160a01b03821614613cdf5761031c939450613457565b634b637e8f60e11b85526001600160a01b0382166004860152602485fd5b613c58600492613b5061031c95613d1763a9059cbb613bd8565b92613d2160405190565b968794602086019081520161340b565b906000198183099102908180821091030391565b61391c83613d5d93613d55600090565b501891151590565b1890565b634e487b716000526020526024601cfd5b90613d7d5750613e68565b815190600091613d8f611a0184610a82565b1480613dbc575b613d9f57505090565b639996b31560e01b82526001600160a01b03166004820152602490fd5b50803b613dcb611a0184610a82565b14613d96565b906000602091613ddf600090565b50828151910182855af1156124b8573d90600051600092613e02611a0185610a82565b03613e545750613e1181610864565b3b613e1e611a0184610a82565b145b613e28575050565b610f80613e358392610864565b635274afe760e01b83526001600160a01b031660048301526024820190565b613e61611a016001610a82565b1415613e20565b8051600090613e79611a0183610a82565b1115613e885750805190602001fd5b63d6bda27560e01b8152600490fdfe52c63247e1f47db19d5ce0460030c497f067ca4cebf71ba98eeadabe20bace0002dd7bc7dec4dceedda775e58dd541e08a116c6c53815c0bd028192f7b626800a49807205ce4d355092ef5a8a18f56e8913cf4a201fbe287825b095693c21775a26469706673582212206e92d7729017e333833b976c3184cd032af5dc82e4f074119272bb149696093c64736f6c634300081b0033","opcodes":"PUSH1 0xA0 PUSH1 0x40 MSTORE CALLVALUE PUSH2 0x32 JUMPI PUSH2 0x11 PUSH2 0x37 JUMP JUMPDEST PUSH1 0x40 MLOAD PUSH2 0x3F2D PUSH2 0x1E1 DUP3 CODECOPY PUSH1 0x80 MLOAD DUP2 DUP2 DUP2 PUSH2 0x2A35 ADD MSTORE PUSH2 0x2BB6 ADD MSTORE PUSH2 0x3F2D SWAP1 RETURN JUMPDEST PUSH1 0x0 DUP1 REVERT JUMPDEST PUSH2 0x3F PUSH2 0x7E JUMP JUMPDEST PUSH2 0x47 PUSH2 0x102 JUMP JUMPDEST JUMP JUMPDEST PUSH2 0x5D SWAP1 PUSH2 0x60 SWAP1 PUSH1 0x1 PUSH1 0x1 PUSH1 0xA0 SHL SUB AND DUP3 JUMP JUMPDEST SWAP1 JUMP JUMPDEST PUSH1 0x1 PUSH1 0x1 PUSH1 0xA0 SHL SUB AND SWAP1 JUMP JUMPDEST PUSH2 0x5D SWAP1 PUSH2 0x49 JUMP JUMPDEST PUSH2 0x5D SWAP1 PUSH2 0x6C JUMP JUMPDEST PUSH2 0x87 ADDRESS PUSH2 0x75 JUMP JUMPDEST PUSH1 0x80 MSTORE JUMP JUMPDEST PUSH2 0x5D SWAP1 PUSH1 0x40 SHR PUSH1 0xFF AND SWAP1 JUMP JUMPDEST PUSH2 0x5D SWAP1 SLOAD PUSH2 0x8C JUMP JUMPDEST PUSH2 0x5D SWAP1 JUMPDEST PUSH1 0x1 PUSH1 0x1 PUSH1 0x40 SHL SUB AND SWAP1 JUMP JUMPDEST PUSH2 0x5D SWAP1 SLOAD PUSH2 0xA3 JUMP JUMPDEST PUSH2 0x5D SWAP1 PUSH2 0xA8 SWAP1 PUSH1 0x1 PUSH1 0x1 PUSH1 0x40 SHL SUB AND DUP3 JUMP JUMPDEST SWAP1 PUSH2 0xE2 PUSH2 0x5D PUSH2 0xFE SWAP3 PUSH2 0xBE JUMP JUMPDEST DUP3 SLOAD PUSH1 0x1 PUSH1 0x1 PUSH1 0x40 SHL SUB NOT AND PUSH1 0x1 PUSH1 0x1 PUSH1 0x40 SHL SUB SWAP2 SWAP1 SWAP2 AND OR SWAP1 JUMP JUMPDEST SWAP1 SSTORE JUMP JUMPDEST PUSH1 0x0 PUSH2 0x10C PUSH2 0x19A JUMP JUMPDEST ADD PUSH2 0x116 DUP2 PUSH2 0x99 JUMP JUMPDEST PUSH2 0x188 JUMPI PUSH2 0x123 DUP2 PUSH2 0xB4 JUMP JUMPDEST PUSH1 0x1 PUSH1 0x1 PUSH1 0x40 SHL SUB SWAP2 SWAP1 DUP3 SWAP1 DUP2 AND SUB PUSH2 0x13A JUMPI POP POP JUMP JUMPDEST DUP2 PUSH2 0x169 PUSH32 0xC7F505B2F371AE2175EE4913F4499E1F2633A7B5936321EED1CDAEB6115181D2 SWAP4 PUSH2 0x183 SWAP4 PUSH2 0xD2 JUMP JUMPDEST PUSH1 0x40 MLOAD SWAP2 DUP3 SWAP2 DUP3 PUSH1 0x1 PUSH1 0x1 PUSH1 0x40 SHL SUB SWAP1 SWAP2 AND DUP2 MSTORE PUSH1 0x20 ADD SWAP1 JUMP JUMPDEST SUB SWAP1 LOG1 JUMP JUMPDEST PUSH4 0xF92EE8A9 PUSH1 0xE0 SHL PUSH1 0x0 SWAP1 DUP2 MSTORE PUSH1 0x4 SWAP1 REVERT JUMPDEST PUSH2 0x5D PUSH2 0x1D8 JUMP JUMPDEST PUSH2 0x5D PUSH2 0x5D PUSH2 0x5D SWAP3 SWAP1 JUMP JUMPDEST PUSH2 0x5D PUSH32 0xF0C57E16840DF040F15088DC2F81FE391C3923BEC73E23A9662EFC9C229C6A00 PUSH2 0x1A2 JUMP JUMPDEST PUSH2 0x5D PUSH2 0x1AF JUMP INVALID PUSH1 0x80 PUSH1 0x40 MSTORE PUSH1 0x4 CALLDATASIZE LT ISZERO PUSH2 0x12 JUMPI PUSH1 0x0 DUP1 REVERT JUMPDEST PUSH1 0x0 CALLDATALOAD PUSH1 0xE0 SHR DUP1 PUSH4 0x1E1D114 EQ PUSH2 0x303 JUMPI DUP1 PUSH4 0x1FFC9A7 EQ PUSH2 0x2FE JUMPI DUP1 PUSH4 0x6FDDE03 EQ PUSH2 0x2F9 JUMPI DUP1 PUSH4 0x7A2D13A EQ PUSH2 0x2A9 JUMPI DUP1 PUSH4 0x95EA7B3 EQ PUSH2 0x2F4 JUMPI DUP1 PUSH4 0xA28A477 EQ PUSH2 0x2EF JUMPI DUP1 PUSH4 0x18160DDD EQ PUSH2 0x2EA JUMPI DUP1 PUSH4 0x19B02D99 EQ PUSH2 0x2E5 JUMPI DUP1 PUSH4 0x1E8B3D19 EQ PUSH2 0x2E0 JUMPI DUP1 PUSH4 0x20DF4359 EQ PUSH2 0x2DB JUMPI DUP1 PUSH4 0x23B872DD EQ PUSH2 0x2D6 JUMPI DUP1 PUSH4 0x248A9CA3 EQ PUSH2 0x2D1 JUMPI DUP1 PUSH4 0x2F2FF15D EQ PUSH2 0x2CC JUMPI DUP1 PUSH4 0x313CE567 EQ PUSH2 0x2C7 JUMPI DUP1 PUSH4 0x36568ABE EQ PUSH2 0x2C2 JUMPI DUP1 PUSH4 0x38D52E0F EQ PUSH2 0x2BD JUMPI DUP1 PUSH4 0x3F4BA83A EQ PUSH2 0x2B8 JUMPI DUP1 PUSH4 0x3FFBD47F EQ PUSH2 0x2B3 JUMPI DUP1 PUSH4 0x402D267D EQ PUSH2 0x24A JUMPI DUP1 PUSH4 0x466143FC EQ PUSH2 0x2AE JUMPI DUP1 PUSH4 0x4CDAD506 EQ PUSH2 0x2A9 JUMPI DUP1 PUSH4 0x4F1EF286 EQ PUSH2 0x2A4 JUMPI DUP1 PUSH4 0x52D1902D EQ PUSH2 0x29F JUMPI DUP1 PUSH4 0x5C975ABB EQ PUSH2 0x29A JUMPI DUP1 PUSH4 0x613D25BB EQ PUSH2 0x295 JUMPI DUP1 PUSH4 0x6E553F65 EQ PUSH2 0x290 JUMPI DUP1 PUSH4 0x70A08231 EQ PUSH2 0x28B JUMPI DUP1 PUSH4 0x75B238FC EQ PUSH2 0x286 JUMPI DUP1 PUSH4 0x76E11286 EQ PUSH2 0x281 JUMPI DUP1 PUSH4 0x8456CB59 EQ PUSH2 0x27C JUMPI DUP1 PUSH4 0x91D14854 EQ PUSH2 0x277 JUMPI DUP1 PUSH4 0x94BF804D EQ PUSH2 0x272 JUMPI DUP1 PUSH4 0x95D89B41 EQ PUSH2 0x26D JUMPI DUP1 PUSH4 0xA217FDDF EQ PUSH2 0x268 JUMPI DUP1 PUSH4 0xA9059CBB EQ PUSH2 0x263 JUMPI DUP1 PUSH4 0xAD3CB1CC EQ PUSH2 0x25E JUMPI DUP1 PUSH4 0xB3D7F6B9 EQ PUSH2 0x259 JUMPI DUP1 PUSH4 0xB460AF94 EQ PUSH2 0x254 JUMPI DUP1 PUSH4 0xBA087652 EQ PUSH2 0x24F JUMPI DUP1 PUSH4 0xC63D75B6 EQ PUSH2 0x24A JUMPI DUP1 PUSH4 0xC6E6F592 EQ PUSH2 0x22C JUMPI DUP1 PUSH4 0xCE96CB77 EQ PUSH2 0x245 JUMPI DUP1 PUSH4 0xD27E52E8 EQ PUSH2 0x240 JUMPI DUP1 PUSH4 0xD547741F EQ PUSH2 0x23B JUMPI DUP1 PUSH4 0xD905777E EQ PUSH2 0x236 JUMPI DUP1 PUSH4 0xDD62ED3E EQ PUSH2 0x231 JUMPI DUP1 PUSH4 0xEF8B30F7 EQ PUSH2 0x22C JUMPI PUSH4 0xF72C0D8B SUB PUSH2 0x313 JUMPI PUSH2 0xC82 JUMP JUMPDEST PUSH2 0xBB4 JUMP JUMPDEST PUSH2 0xC66 JUMP JUMPDEST PUSH2 0xC4B JUMP JUMPDEST PUSH2 0xC32 JUMP JUMPDEST PUSH2 0xC17 JUMP JUMPDEST PUSH2 0xBCF JUMP JUMPDEST PUSH2 0x7FF JUMP JUMPDEST PUSH2 0xB98 JUMP JUMPDEST PUSH2 0xB7C JUMP JUMPDEST PUSH2 0xB38 JUMP JUMPDEST PUSH2 0xB1D JUMP JUMPDEST PUSH2 0xABC JUMP JUMPDEST PUSH2 0xAA1 JUMP JUMPDEST PUSH2 0xA67 JUMP JUMPDEST PUSH2 0xA4B JUMP JUMPDEST PUSH2 0xA2F JUMP JUMPDEST PUSH2 0xA17 JUMP JUMPDEST PUSH2 0x9FE JUMP JUMPDEST PUSH2 0x9BB JUMP JUMPDEST PUSH2 0x9A0 JUMP JUMPDEST PUSH2 0x984 JUMP JUMPDEST PUSH2 0x968 JUMP JUMPDEST PUSH2 0x8F3 JUMP JUMPDEST PUSH2 0x8D8 JUMP JUMPDEST PUSH2 0x8C4 JUMP JUMPDEST PUSH2 0x46C JUMP JUMPDEST PUSH2 0x886 JUMP JUMPDEST PUSH2 0x7E3 JUMP JUMPDEST PUSH2 0x6C2 JUMP JUMPDEST PUSH2 0x68D JUMP JUMPDEST PUSH2 0x674 JUMP JUMPDEST PUSH2 0x645 JUMP JUMPDEST PUSH2 0x62C JUMP JUMPDEST PUSH2 0x5EE JUMP JUMPDEST PUSH2 0x5D2 JUMP JUMPDEST PUSH2 0x570 JUMP JUMPDEST PUSH2 0x555 JUMP JUMPDEST PUSH2 0x538 JUMP JUMPDEST PUSH2 0x509 JUMP JUMPDEST PUSH2 0x4EE JUMP JUMPDEST PUSH2 0x4D2 JUMP JUMPDEST PUSH2 0x41E JUMP JUMPDEST PUSH2 0x385 JUMP JUMPDEST PUSH2 0x31E JUMP JUMPDEST PUSH1 0x0 SWAP2 SUB SLT PUSH2 0x313 JUMPI JUMP JUMPDEST PUSH1 0x0 DUP1 REVERT JUMPDEST SWAP1 MSTORE JUMP JUMPDEST JUMP JUMPDEST CALLVALUE PUSH2 0x313 JUMPI PUSH2 0x32E CALLDATASIZE PUSH1 0x4 PUSH2 0x308 JUMP JUMPDEST PUSH2 0x34A PUSH2 0x339 PUSH2 0xCF4 JUMP JUMPDEST PUSH1 0x40 MLOAD JUMPDEST SWAP2 DUP3 SWAP2 DUP3 SWAP1 DUP2 MSTORE PUSH1 0x20 ADD SWAP1 JUMP JUMPDEST SUB SWAP1 RETURN JUMPDEST PUSH1 0x1 PUSH1 0x1 PUSH1 0xE0 SHL SUB NOT DUP2 AND JUMPDEST SUB PUSH2 0x313 JUMPI JUMP JUMPDEST SWAP1 POP CALLDATALOAD SWAP1 PUSH2 0x31C DUP3 PUSH2 0x34E JUMP JUMPDEST SWAP1 PUSH1 0x20 DUP3 DUP3 SUB SLT PUSH2 0x313 JUMPI PUSH2 0x382 SWAP2 PUSH2 0x361 JUMP JUMPDEST SWAP1 JUMP JUMPDEST CALLVALUE PUSH2 0x313 JUMPI PUSH2 0x34A PUSH2 0x3A0 PUSH2 0x39B CALLDATASIZE PUSH1 0x4 PUSH2 0x36E JUMP JUMPDEST PUSH2 0xD0F JUMP JUMPDEST PUSH1 0x40 MLOAD SWAP2 DUP3 SWAP2 DUP3 SWAP1 ISZERO ISZERO DUP2 MSTORE PUSH1 0x20 ADD SWAP1 JUMP JUMPDEST PUSH1 0x0 JUMPDEST DUP4 DUP2 LT PUSH2 0x3C5 JUMPI POP POP PUSH1 0x0 SWAP2 ADD MSTORE JUMP JUMPDEST DUP2 DUP2 ADD MLOAD DUP4 DUP3 ADD MSTORE PUSH1 0x20 ADD PUSH2 0x3B5 JUMP JUMPDEST PUSH2 0x3F6 PUSH2 0x3FF PUSH1 0x20 SWAP4 PUSH2 0x409 SWAP4 PUSH2 0x3EA DUP2 MLOAD SWAP1 JUMP JUMPDEST DUP1 DUP4 MSTORE SWAP4 DUP5 SWAP3 PUSH1 0x20 ADD SWAP1 JUMP JUMPDEST SWAP6 DUP7 SWAP2 ADD PUSH2 0x3B2 JUMP JUMPDEST PUSH1 0x1F ADD PUSH1 0x1F NOT AND SWAP1 JUMP JUMPDEST ADD SWAP1 JUMP JUMPDEST PUSH1 0x20 DUP1 DUP3 MSTORE PUSH2 0x382 SWAP3 SWAP2 ADD SWAP1 PUSH2 0x3D5 JUMP JUMPDEST CALLVALUE PUSH2 0x313 JUMPI PUSH2 0x42E CALLDATASIZE PUSH1 0x4 PUSH2 0x308 JUMP JUMPDEST PUSH2 0x34A PUSH2 0x439 PUSH2 0xE10 JUMP JUMPDEST PUSH1 0x40 MLOAD SWAP2 DUP3 SWAP2 DUP3 PUSH2 0x40D JUMP JUMPDEST DUP1 PUSH2 0x35A JUMP JUMPDEST SWAP1 POP CALLDATALOAD SWAP1 PUSH2 0x31C DUP3 PUSH2 0x445 JUMP JUMPDEST SWAP1 PUSH1 0x20 DUP3 DUP3 SUB SLT PUSH2 0x313 JUMPI PUSH2 0x382 SWAP2 PUSH2 0x44B JUMP JUMPDEST CALLVALUE PUSH2 0x313 JUMPI PUSH2 0x34A PUSH2 0x339 PUSH2 0x482 CALLDATASIZE PUSH1 0x4 PUSH2 0x458 JUMP JUMPDEST PUSH2 0xE2B JUMP JUMPDEST PUSH1 0x1 PUSH1 0x1 PUSH1 0xA0 SHL SUB AND SWAP1 JUMP JUMPDEST PUSH1 0x1 PUSH1 0x1 PUSH1 0xA0 SHL SUB DUP2 AND PUSH2 0x35A JUMP JUMPDEST SWAP1 POP CALLDATALOAD SWAP1 PUSH2 0x31C DUP3 PUSH2 0x493 JUMP JUMPDEST SWAP2 SWAP1 PUSH1 0x40 DUP4 DUP3 SUB SLT PUSH2 0x313 JUMPI PUSH2 0x382 SWAP1 PUSH1 0x20 PUSH2 0x4CB DUP3 DUP7 PUSH2 0x4A2 JUMP JUMPDEST SWAP5 ADD PUSH2 0x44B JUMP JUMPDEST CALLVALUE PUSH2 0x313 JUMPI PUSH2 0x34A PUSH2 0x3A0 PUSH2 0x4E8 CALLDATASIZE PUSH1 0x4 PUSH2 0x4AF JUMP JUMPDEST SWAP1 PUSH2 0xE3F JUMP JUMPDEST CALLVALUE PUSH2 0x313 JUMPI PUSH2 0x34A PUSH2 0x339 PUSH2 0x504 CALLDATASIZE PUSH1 0x4 PUSH2 0x458 JUMP JUMPDEST PUSH2 0xE4F JUMP JUMPDEST CALLVALUE PUSH2 0x313 JUMPI PUSH2 0x519 CALLDATASIZE PUSH1 0x4 PUSH2 0x308 JUMP JUMPDEST PUSH2 0x34A PUSH2 0x339 PUSH2 0xE63 JUMP JUMPDEST SWAP1 PUSH1 0x20 DUP3 DUP3 SUB SLT PUSH2 0x313 JUMPI PUSH2 0x382 SWAP2 PUSH2 0x4A2 JUMP JUMPDEST CALLVALUE PUSH2 0x313 JUMPI PUSH2 0x550 PUSH2 0x54B CALLDATASIZE PUSH1 0x4 PUSH2 0x524 JUMP JUMPDEST PUSH2 0xF10 JUMP JUMPDEST PUSH1 0x40 MLOAD STOP JUMPDEST CALLVALUE PUSH2 0x313 JUMPI PUSH2 0x565 CALLDATASIZE PUSH1 0x4 PUSH2 0x308 JUMP JUMPDEST PUSH2 0x34A PUSH2 0x439 PUSH2 0x133D JUMP JUMPDEST CALLVALUE PUSH2 0x313 JUMPI PUSH2 0x580 CALLDATASIZE PUSH1 0x4 PUSH2 0x308 JUMP JUMPDEST PUSH2 0x34A PUSH32 0xBF233DD2AAFEB4D50879C4AA5C81E96D92F6E6945C906A58F9F2D1C1631B4B26 PUSH2 0x339 JUMP JUMPDEST SWAP1 SWAP2 PUSH1 0x60 DUP3 DUP5 SUB SLT PUSH2 0x313 JUMPI PUSH2 0x382 PUSH2 0x5C2 DUP5 DUP5 PUSH2 0x4A2 JUMP JUMPDEST SWAP4 PUSH1 0x40 PUSH2 0x4CB DUP3 PUSH1 0x20 DUP8 ADD PUSH2 0x4A2 JUMP JUMPDEST CALLVALUE PUSH2 0x313 JUMPI PUSH2 0x34A PUSH2 0x3A0 PUSH2 0x5E8 CALLDATASIZE PUSH1 0x4 PUSH2 0x5A9 JUMP JUMPDEST SWAP2 PUSH2 0x1347 JUMP JUMPDEST CALLVALUE PUSH2 0x313 JUMPI PUSH2 0x34A PUSH2 0x339 PUSH2 0x604 CALLDATASIZE PUSH1 0x4 PUSH2 0x458 JUMP JUMPDEST PUSH2 0x1363 JUMP JUMPDEST SWAP2 SWAP1 PUSH1 0x40 DUP4 DUP3 SUB SLT PUSH2 0x313 JUMPI PUSH2 0x382 SWAP1 PUSH1 0x20 PUSH2 0x625 DUP3 DUP7 PUSH2 0x44B JUMP JUMPDEST SWAP5 ADD PUSH2 0x4A2 JUMP JUMPDEST CALLVALUE PUSH2 0x313 JUMPI PUSH2 0x550 PUSH2 0x63F CALLDATASIZE PUSH1 0x4 PUSH2 0x609 JUMP JUMPDEST SWAP1 PUSH2 0x13AB JUMP JUMPDEST CALLVALUE PUSH2 0x313 JUMPI PUSH2 0x655 CALLDATASIZE PUSH1 0x4 PUSH2 0x308 JUMP JUMPDEST PUSH2 0x34A PUSH2 0x660 PUSH2 0x13E8 JUMP JUMPDEST PUSH1 0x40 MLOAD SWAP2 DUP3 SWAP2 DUP3 PUSH1 0xFF SWAP1 SWAP2 AND DUP2 MSTORE PUSH1 0x20 ADD SWAP1 JUMP JUMPDEST CALLVALUE PUSH2 0x313 JUMPI PUSH2 0x550 PUSH2 0x687 CALLDATASIZE PUSH1 0x4 PUSH2 0x609 JUMP JUMPDEST SWAP1 PUSH2 0x1422 JUMP JUMPDEST CALLVALUE PUSH2 0x313 JUMPI PUSH2 0x69D CALLDATASIZE PUSH1 0x4 PUSH2 0x308 JUMP JUMPDEST PUSH2 0x34A PUSH2 0x6A8 PUSH2 0x1459 JUMP JUMPDEST PUSH1 0x40 MLOAD SWAP2 DUP3 SWAP2 DUP3 PUSH1 0x1 PUSH1 0x1 PUSH1 0xA0 SHL SUB SWAP1 SWAP2 AND DUP2 MSTORE PUSH1 0x20 ADD SWAP1 JUMP JUMPDEST CALLVALUE PUSH2 0x313 JUMPI PUSH2 0x6D2 CALLDATASIZE PUSH1 0x4 PUSH2 0x308 JUMP JUMPDEST PUSH2 0x550 PUSH2 0x14AE JUMP JUMPDEST PUSH4 0x4E487B71 PUSH1 0xE0 SHL PUSH1 0x0 MSTORE PUSH1 0x41 PUSH1 0x4 MSTORE PUSH1 0x24 PUSH1 0x0 REVERT JUMPDEST SWAP1 PUSH1 0x1F ADD PUSH1 0x1F NOT AND DUP2 ADD SWAP1 DUP2 LT PUSH1 0x1 PUSH1 0x1 PUSH1 0x40 SHL SUB DUP3 GT OR PUSH2 0x711 JUMPI PUSH1 0x40 MSTORE JUMP JUMPDEST PUSH2 0x6DA JUMP JUMPDEST SWAP1 PUSH2 0x31C PUSH2 0x723 PUSH1 0x40 MLOAD SWAP1 JUMP JUMPDEST SWAP3 DUP4 PUSH2 0x6F0 JUMP JUMPDEST PUSH1 0x1 PUSH1 0x1 PUSH1 0x40 SHL SUB DUP2 GT PUSH2 0x711 JUMPI PUSH1 0x20 SWAP1 PUSH1 0x1F ADD PUSH1 0x1F NOT AND ADD SWAP1 JUMP JUMPDEST SWAP1 DUP3 PUSH1 0x0 SWAP4 SWAP3 DUP3 CALLDATACOPY ADD MSTORE JUMP JUMPDEST SWAP1 SWAP3 SWAP2 SWAP3 PUSH2 0x767 PUSH2 0x762 DUP3 PUSH2 0x72A JUMP JUMPDEST PUSH2 0x716 JUMP JUMPDEST SWAP4 DUP2 DUP6 MSTORE DUP2 DUP4 ADD GT PUSH2 0x313 JUMPI PUSH2 0x31C SWAP2 PUSH1 0x20 DUP6 ADD SWAP1 PUSH2 0x746 JUMP JUMPDEST SWAP1 DUP1 PUSH1 0x1F DUP4 ADD SLT ISZERO PUSH2 0x313 JUMPI DUP2 PUSH1 0x20 PUSH2 0x382 SWAP4 CALLDATALOAD SWAP2 ADD PUSH2 0x752 JUMP JUMPDEST SWAP2 SWAP1 SWAP2 PUSH1 0x40 DUP2 DUP5 SUB SLT PUSH2 0x313 JUMPI DUP1 CALLDATALOAD PUSH1 0x1 PUSH1 0x1 PUSH1 0x40 SHL SUB DUP2 GT PUSH2 0x313 JUMPI DUP4 PUSH2 0x7C5 SWAP2 DUP4 ADD PUSH2 0x781 JUMP JUMPDEST SWAP3 PUSH1 0x20 DUP3 ADD CALLDATALOAD PUSH1 0x1 PUSH1 0x1 PUSH1 0x40 SHL SUB DUP2 GT PUSH2 0x313 JUMPI PUSH2 0x382 SWAP3 ADD PUSH2 0x781 JUMP JUMPDEST CALLVALUE PUSH2 0x313 JUMPI PUSH2 0x34A PUSH2 0x339 PUSH2 0x7F9 CALLDATASIZE PUSH1 0x4 PUSH2 0x79C JUMP JUMPDEST SWAP1 PUSH2 0x1B5E JUMP JUMPDEST CALLVALUE PUSH2 0x313 JUMPI PUSH2 0x34A PUSH2 0x339 PUSH2 0x815 CALLDATASIZE PUSH1 0x4 PUSH2 0x524 JUMP JUMPDEST POP PUSH1 0x0 NOT SWAP1 JUMP JUMPDEST PUSH2 0x382 SWAP2 PUSH1 0x8 MUL SHR PUSH1 0x1 PUSH1 0x1 PUSH1 0xA0 SHL SUB AND SWAP1 JUMP JUMPDEST SWAP1 PUSH2 0x382 SWAP2 SLOAD PUSH2 0x81C JUMP JUMPDEST PUSH2 0x382 PUSH1 0x0 PUSH1 0x4 PUSH2 0x830 JUMP JUMPDEST PUSH2 0x382 SWAP1 PUSH2 0x487 SWAP1 PUSH1 0x1 PUSH1 0x1 PUSH1 0xA0 SHL SUB AND DUP3 JUMP JUMPDEST PUSH2 0x382 SWAP1 PUSH2 0x847 JUMP JUMPDEST PUSH2 0x382 SWAP1 PUSH2 0x85B JUMP JUMPDEST PUSH2 0x318 SWAP1 PUSH2 0x864 JUMP JUMPDEST PUSH1 0x20 DUP2 ADD SWAP3 SWAP2 PUSH2 0x31C SWAP2 SWAP1 PUSH2 0x86D JUMP JUMPDEST CALLVALUE PUSH2 0x313 JUMPI PUSH2 0x896 CALLDATASIZE PUSH1 0x4 PUSH2 0x308 JUMP JUMPDEST PUSH2 0x34A PUSH2 0x8A1 PUSH2 0x83B JUMP JUMPDEST PUSH1 0x40 MLOAD SWAP2 DUP3 SWAP2 DUP3 PUSH2 0x876 JUMP JUMPDEST SWAP2 SWAP1 SWAP2 PUSH1 0x40 DUP2 DUP5 SUB SLT PUSH2 0x313 JUMPI PUSH2 0x7C5 DUP4 DUP3 PUSH2 0x4A2 JUMP JUMPDEST PUSH2 0x550 PUSH2 0x8D2 CALLDATASIZE PUSH1 0x4 PUSH2 0x8AD JUMP JUMPDEST SWAP1 PUSH2 0x1B8A JUMP JUMPDEST CALLVALUE PUSH2 0x313 JUMPI PUSH2 0x8E8 CALLDATASIZE PUSH1 0x4 PUSH2 0x308 JUMP JUMPDEST PUSH2 0x34A PUSH2 0x339 PUSH2 0x1BD7 JUMP JUMPDEST CALLVALUE PUSH2 0x313 JUMPI PUSH2 0x903 CALLDATASIZE PUSH1 0x4 PUSH2 0x308 JUMP JUMPDEST PUSH2 0x34A PUSH2 0x3A0 PUSH2 0x1BF4 JUMP JUMPDEST PUSH1 0x80 DUP2 DUP4 SUB SLT PUSH2 0x313 JUMPI PUSH2 0x922 DUP3 DUP3 PUSH2 0x4A2 JUMP JUMPDEST SWAP3 PUSH1 0x20 DUP3 ADD CALLDATALOAD PUSH1 0x1 PUSH1 0x1 PUSH1 0x40 SHL SUB DUP2 GT PUSH2 0x313 JUMPI DUP4 PUSH2 0x942 SWAP2 DUP5 ADD PUSH2 0x781 JUMP JUMPDEST SWAP3 PUSH1 0x40 DUP4 ADD CALLDATALOAD SWAP1 PUSH1 0x1 PUSH1 0x1 PUSH1 0x40 SHL SUB DUP3 GT PUSH2 0x313 JUMPI PUSH1 0x60 PUSH2 0x625 DUP3 PUSH2 0x382 SWAP5 DUP8 ADD PUSH2 0x781 JUMP JUMPDEST CALLVALUE PUSH2 0x313 JUMPI PUSH2 0x550 PUSH2 0x97B CALLDATASIZE PUSH1 0x4 PUSH2 0x90E JUMP JUMPDEST SWAP3 SWAP2 SWAP1 SWAP2 PUSH2 0x1ED0 JUMP JUMPDEST CALLVALUE PUSH2 0x313 JUMPI PUSH2 0x34A PUSH2 0x339 PUSH2 0x99A CALLDATASIZE PUSH1 0x4 PUSH2 0x609 JUMP JUMPDEST SWAP1 PUSH2 0x1F65 JUMP JUMPDEST CALLVALUE PUSH2 0x313 JUMPI PUSH2 0x34A PUSH2 0x339 PUSH2 0x9B6 CALLDATASIZE PUSH1 0x4 PUSH2 0x524 JUMP JUMPDEST PUSH2 0x1F71 JUMP JUMPDEST CALLVALUE PUSH2 0x313 JUMPI PUSH2 0x9CB CALLDATASIZE PUSH1 0x4 PUSH2 0x308 JUMP JUMPDEST PUSH2 0x34A PUSH1 0x0 DUP1 MLOAD PUSH1 0x20 PUSH2 0x3ED8 DUP4 CODECOPY DUP2 MLOAD SWAP2 MSTORE PUSH2 0x339 JUMP JUMPDEST SWAP2 SWAP1 PUSH1 0x40 DUP4 DUP3 SUB SLT PUSH2 0x313 JUMPI PUSH2 0x382 SWAP1 PUSH1 0x20 PUSH2 0x625 DUP3 DUP7 PUSH2 0x4A2 JUMP JUMPDEST CALLVALUE PUSH2 0x313 JUMPI PUSH2 0x550 PUSH2 0xA11 CALLDATASIZE PUSH1 0x4 PUSH2 0x9E2 JUMP JUMPDEST SWAP1 PUSH2 0x1FF7 JUMP JUMPDEST CALLVALUE PUSH2 0x313 JUMPI PUSH2 0xA27 CALLDATASIZE PUSH1 0x4 PUSH2 0x308 JUMP JUMPDEST PUSH2 0x550 PUSH2 0x2035 JUMP JUMPDEST CALLVALUE PUSH2 0x313 JUMPI PUSH2 0x34A PUSH2 0x3A0 PUSH2 0xA45 CALLDATASIZE PUSH1 0x4 PUSH2 0x609 JUMP JUMPDEST SWAP1 PUSH2 0x203D JUMP JUMPDEST CALLVALUE PUSH2 0x313 JUMPI PUSH2 0x34A PUSH2 0x339 PUSH2 0xA61 CALLDATASIZE PUSH1 0x4 PUSH2 0x609 JUMP JUMPDEST SWAP1 PUSH2 0x20B0 JUMP JUMPDEST CALLVALUE PUSH2 0x313 JUMPI PUSH2 0xA77 CALLDATASIZE PUSH1 0x4 PUSH2 0x308 JUMP JUMPDEST PUSH2 0x34A PUSH2 0x439 PUSH2 0x20BC JUMP JUMPDEST PUSH2 0x382 PUSH2 0x382 PUSH2 0x382 SWAP3 SWAP1 JUMP JUMPDEST PUSH2 0x382 PUSH1 0x0 PUSH2 0xA82 JUMP JUMPDEST PUSH2 0x382 PUSH2 0xA8F JUMP JUMPDEST CALLVALUE PUSH2 0x313 JUMPI PUSH2 0xAB1 CALLDATASIZE PUSH1 0x4 PUSH2 0x308 JUMP JUMPDEST PUSH2 0x34A PUSH2 0x339 PUSH2 0xA99 JUMP JUMPDEST CALLVALUE PUSH2 0x313 JUMPI PUSH2 0x34A PUSH2 0x3A0 PUSH2 0xAD2 CALLDATASIZE PUSH1 0x4 PUSH2 0x4AF JUMP JUMPDEST SWAP1 PUSH2 0x221B JUMP JUMPDEST SWAP1 PUSH2 0xAE5 PUSH2 0x762 DUP4 PUSH2 0x72A JUMP JUMPDEST SWAP2 DUP3 MSTORE JUMP JUMPDEST PUSH2 0xAF4 PUSH1 0x5 PUSH2 0xAD8 JUMP JUMPDEST PUSH5 0x352E302E3 PUSH1 0xDC SHL PUSH1 0x20 DUP3 ADD MSTORE SWAP1 JUMP JUMPDEST PUSH2 0x382 PUSH2 0xAEA JUMP JUMPDEST PUSH2 0x382 PUSH2 0xB05 JUMP JUMPDEST PUSH2 0x382 PUSH2 0xB0D JUMP JUMPDEST CALLVALUE PUSH2 0x313 JUMPI PUSH2 0xB2D CALLDATASIZE PUSH1 0x4 PUSH2 0x308 JUMP JUMPDEST PUSH2 0x34A PUSH2 0x439 PUSH2 0xB15 JUMP JUMPDEST CALLVALUE PUSH2 0x313 JUMPI PUSH2 0x34A PUSH2 0x339 PUSH2 0xB4E CALLDATASIZE PUSH1 0x4 PUSH2 0x458 JUMP JUMPDEST PUSH2 0x2227 JUMP JUMPDEST SWAP1 SWAP2 PUSH1 0x60 DUP3 DUP5 SUB SLT PUSH2 0x313 JUMPI PUSH2 0x382 PUSH2 0xB6C DUP5 DUP5 PUSH2 0x44B JUMP JUMPDEST SWAP4 PUSH1 0x40 PUSH2 0x625 DUP3 PUSH1 0x20 DUP8 ADD PUSH2 0x4A2 JUMP JUMPDEST CALLVALUE PUSH2 0x313 JUMPI PUSH2 0x34A PUSH2 0x339 PUSH2 0xB92 CALLDATASIZE PUSH1 0x4 PUSH2 0xB53 JUMP JUMPDEST SWAP2 PUSH2 0x2313 JUMP JUMPDEST CALLVALUE PUSH2 0x313 JUMPI PUSH2 0x34A PUSH2 0x339 PUSH2 0xBAE CALLDATASIZE PUSH1 0x4 PUSH2 0xB53 JUMP JUMPDEST SWAP2 PUSH2 0x2401 JUMP JUMPDEST CALLVALUE PUSH2 0x313 JUMPI PUSH2 0x34A PUSH2 0x339 PUSH2 0xBCA CALLDATASIZE PUSH1 0x4 PUSH2 0x458 JUMP JUMPDEST PUSH2 0x240E JUMP JUMPDEST CALLVALUE PUSH2 0x313 JUMPI PUSH2 0x34A PUSH2 0x339 PUSH2 0xBE5 CALLDATASIZE PUSH1 0x4 PUSH2 0x524 JUMP JUMPDEST PUSH2 0x241C JUMP JUMPDEST SWAP1 PUSH2 0xBF4 SWAP1 PUSH2 0x864 JUMP JUMPDEST PUSH1 0x0 MSTORE PUSH1 0x20 MSTORE PUSH1 0x40 PUSH1 0x0 KECCAK256 SWAP1 JUMP JUMPDEST PUSH1 0x0 PUSH2 0xC12 PUSH2 0x382 SWAP3 PUSH1 0x7 PUSH2 0xBEA JUMP JUMPDEST PUSH2 0x830 JUMP JUMPDEST CALLVALUE PUSH2 0x313 JUMPI PUSH2 0x34A PUSH2 0x8A1 PUSH2 0xC2D CALLDATASIZE PUSH1 0x4 PUSH2 0x524 JUMP JUMPDEST PUSH2 0xC02 JUMP JUMPDEST CALLVALUE PUSH2 0x313 JUMPI PUSH2 0x550 PUSH2 0xC45 CALLDATASIZE PUSH1 0x4 PUSH2 0x609 JUMP JUMPDEST SWAP1 PUSH2 0x2453 JUMP JUMPDEST CALLVALUE PUSH2 0x313 JUMPI PUSH2 0x34A PUSH2 0x339 PUSH2 0xC61 CALLDATASIZE PUSH1 0x4 PUSH2 0x524 JUMP JUMPDEST PUSH2 0x245D JUMP JUMPDEST CALLVALUE PUSH2 0x313 JUMPI PUSH2 0x34A PUSH2 0x339 PUSH2 0xC7C CALLDATASIZE PUSH1 0x4 PUSH2 0x9E2 JUMP JUMPDEST SWAP1 PUSH2 0x2468 JUMP JUMPDEST CALLVALUE PUSH2 0x313 JUMPI PUSH2 0xC92 CALLDATASIZE PUSH1 0x4 PUSH2 0x308 JUMP JUMPDEST PUSH2 0x34A PUSH32 0x189AB7A9244DF0848122154315AF71FE140F3DB0FE014031783B0946B8C9D2E3 PUSH2 0x339 JUMP JUMPDEST PUSH2 0x382 SWAP1 DUP2 JUMP JUMPDEST PUSH2 0x382 SWAP1 SLOAD PUSH2 0xCBB JUMP JUMPDEST PUSH4 0x4E487B71 PUSH1 0xE0 SHL PUSH1 0x0 MSTORE PUSH1 0x11 PUSH1 0x4 MSTORE PUSH1 0x24 PUSH1 0x0 REVERT JUMPDEST SWAP2 SWAP1 DUP3 ADD DUP1 SWAP3 GT PUSH2 0xCEF JUMPI JUMP JUMPDEST PUSH2 0xCCC JUMP JUMPDEST PUSH2 0x382 PUSH2 0xCFF PUSH2 0x24C4 JUMP JUMPDEST PUSH2 0xD09 PUSH1 0x1 PUSH2 0xCC2 JUMP JUMPDEST SWAP1 PUSH2 0xCE2 JUMP JUMPDEST PUSH2 0x382 SWAP1 PUSH2 0x2556 JUMP JUMPDEST PUSH4 0x4E487B71 PUSH1 0xE0 SHL PUSH1 0x0 MSTORE PUSH1 0x22 PUSH1 0x4 MSTORE PUSH1 0x24 PUSH1 0x0 REVERT JUMPDEST SWAP1 PUSH1 0x1 PUSH1 0x2 DUP4 DIV SWAP3 AND DUP1 ISZERO PUSH2 0xD4E JUMPI JUMPDEST PUSH1 0x20 DUP4 LT EQ PUSH2 0xD49 JUMPI JUMP JUMPDEST PUSH2 0xD18 JUMP JUMPDEST SWAP2 PUSH1 0x7F AND SWAP2 PUSH2 0xD3E JUMP JUMPDEST DUP1 SLOAD PUSH1 0x0 SWAP4 SWAP3 SWAP2 PUSH2 0xD75 PUSH2 0xD6B DUP4 PUSH2 0xD2E JUMP JUMPDEST DUP1 DUP6 MSTORE SWAP4 PUSH1 0x20 ADD SWAP1 JUMP JUMPDEST SWAP2 PUSH1 0x1 DUP2 AND SWAP1 DUP2 ISZERO PUSH2 0xDC7 JUMPI POP PUSH1 0x1 EQ PUSH2 0xD8E JUMPI POP POP POP JUMP JUMPDEST PUSH2 0xDA1 SWAP2 SWAP3 SWAP4 SWAP5 POP PUSH1 0x0 MSTORE PUSH1 0x20 PUSH1 0x0 KECCAK256 SWAP1 JUMP JUMPDEST SWAP2 PUSH1 0x0 SWAP3 JUMPDEST DUP2 DUP5 LT PUSH2 0xDB3 JUMPI POP POP ADD SWAP1 JUMP JUMPDEST DUP1 SLOAD DUP5 DUP5 ADD MSTORE PUSH1 0x20 SWAP1 SWAP4 ADD SWAP3 PUSH1 0x1 ADD PUSH2 0xDA6 JUMP JUMPDEST SWAP3 SWAP5 SWAP6 POP POP POP PUSH1 0xFF NOT AND DUP3 MSTORE ISZERO ISZERO PUSH1 0x20 MUL ADD SWAP1 JUMP JUMPDEST SWAP1 PUSH2 0x382 SWAP2 PUSH2 0xD58 JUMP JUMPDEST SWAP1 PUSH2 0x31C PUSH2 0xE00 SWAP3 PUSH2 0xDF7 PUSH1 0x40 MLOAD SWAP1 JUMP JUMPDEST SWAP4 DUP5 DUP1 SWAP3 PUSH2 0xDDC JUMP JUMPDEST SUB DUP4 PUSH2 0x6F0 JUMP JUMPDEST PUSH2 0x382 SWAP1 PUSH2 0xDE6 JUMP JUMPDEST PUSH2 0x382 PUSH1 0x3 PUSH1 0x0 DUP1 MLOAD PUSH1 0x20 PUSH2 0x3E98 DUP4 CODECOPY DUP2 MLOAD SWAP2 MSTORE JUMPDEST ADD PUSH2 0xE07 JUMP JUMPDEST PUSH1 0x0 PUSH2 0x382 SWAP2 PUSH2 0xE39 PUSH1 0x0 SWAP1 JUMP JUMPDEST POP PUSH2 0x25A1 JUMP JUMPDEST PUSH2 0xE4A SWAP2 SWAP1 CALLER PUSH2 0x25DC JUMP JUMPDEST PUSH1 0x1 SWAP1 JUMP JUMPDEST PUSH1 0x1 PUSH2 0x382 SWAP2 PUSH2 0xE5D PUSH1 0x0 SWAP1 JUMP JUMPDEST POP PUSH2 0x25E9 JUMP JUMPDEST PUSH2 0x382 PUSH1 0x2 PUSH1 0x0 DUP1 MLOAD PUSH1 0x20 PUSH2 0x3E98 DUP4 CODECOPY DUP2 MLOAD SWAP2 MSTORE JUMPDEST ADD PUSH2 0xCC2 JUMP JUMPDEST PUSH2 0x31C SWAP1 PUSH2 0xE9E PUSH1 0x0 DUP1 MLOAD PUSH1 0x20 PUSH2 0x3ED8 DUP4 CODECOPY DUP2 MLOAD SWAP2 MSTORE PUSH2 0x2604 JUMP JUMPDEST PUSH2 0x2604 JUMP JUMPDEST PUSH2 0xED3 JUMP JUMPDEST SWAP1 PUSH1 0x1 PUSH1 0x1 PUSH1 0xA0 SHL SUB SWAP1 JUMPDEST SWAP2 DUP2 NOT AND SWAP2 AND OR SWAP1 JUMP JUMPDEST SWAP1 PUSH2 0xEC8 PUSH2 0x382 PUSH2 0xECF SWAP3 PUSH2 0x864 JUMP JUMPDEST DUP3 SLOAD PUSH2 0xEA3 JUMP JUMPDEST SWAP1 SSTORE JUMP JUMPDEST PUSH2 0xF0B PUSH32 0x83557575CCBB6480C69683A86123BA745290C764EA233A6DC0DE003080DF11BD SWAP2 PUSH2 0x6A8 PUSH2 0xF04 DUP3 PUSH2 0x864 JUMP JUMPDEST PUSH1 0x4 PUSH2 0xEB8 JUMP JUMPDEST SUB SWAP1 LOG1 JUMP JUMPDEST PUSH2 0x31C SWAP1 PUSH2 0xE7E JUMP JUMPDEST PUSH2 0x382 SWAP1 PUSH2 0xF25 PUSH2 0x260F JUMP JUMPDEST PUSH2 0x1232 JUMP JUMPDEST PUSH2 0x487 PUSH2 0x382 PUSH2 0x382 SWAP3 SWAP1 JUMP JUMPDEST PUSH2 0x382 SWAP1 PUSH2 0xF2A JUMP JUMPDEST ISZERO PUSH2 0xF47 JUMPI JUMP JUMPDEST PUSH1 0x40 MLOAD PUSH3 0x461BCD PUSH1 0xE5 SHL DUP2 MSTORE PUSH1 0x20 PUSH1 0x4 DUP3 ADD MSTORE PUSH1 0x10 PUSH1 0x24 DUP3 ADD MSTORE PUSH16 0x1058D8DBDD5B9D081C995C5D5A5C9959 PUSH1 0x82 SHL PUSH1 0x44 DUP3 ADD MSTORE DUP1 PUSH1 0x64 DUP2 ADD JUMPDEST SUB SWAP1 REVERT JUMPDEST PUSH2 0x409 PUSH2 0xF9C SWAP3 PUSH1 0x20 SWAP3 PUSH2 0xF96 DUP2 MLOAD SWAP1 JUMP JUMPDEST SWAP5 DUP6 SWAP3 SWAP1 JUMP JUMPDEST SWAP4 DUP5 SWAP2 ADD PUSH2 0x3B2 JUMP JUMPDEST PUSH2 0xFCB PUSH2 0x382 SWAP4 SWAP3 PUSH2 0xFC5 PUSH2 0xFC5 SWAP4 PUSH5 0x4D454D4F2D PUSH1 0xD8 SHL DUP2 MSTORE PUSH1 0x5 ADD SWAP1 JUMP JUMPDEST SWAP1 PUSH2 0xF84 JUMP JUMPDEST PUSH1 0x2D PUSH1 0xF8 SHL DUP2 MSTORE PUSH1 0x1 ADD SWAP1 JUMP JUMPDEST PUSH4 0x4E487B71 PUSH1 0xE0 SHL PUSH1 0x0 MSTORE PUSH1 0x32 PUSH1 0x4 MSTORE PUSH1 0x24 PUSH1 0x0 REVERT JUMPDEST DUP1 SLOAD DUP3 LT ISZERO PUSH2 0x1011 JUMPI PUSH2 0x1008 PUSH1 0x1 SWAP2 PUSH1 0x0 MSTORE PUSH1 0x20 PUSH1 0x0 KECCAK256 SWAP1 JUMP JUMPDEST SWAP2 MUL ADD SWAP1 PUSH1 0x0 SWAP1 JUMP JUMPDEST PUSH2 0xFD8 JUMP JUMPDEST PUSH4 0x4E487B71 PUSH1 0xE0 SHL PUSH1 0x0 MSTORE PUSH1 0x0 PUSH1 0x4 MSTORE PUSH1 0x24 PUSH1 0x0 REVERT JUMPDEST SWAP2 PUSH1 0x0 NOT PUSH1 0x8 SWAP3 SWAP1 SWAP3 MUL SWAP2 DUP3 SHL SWAP2 SHL PUSH2 0xEAE JUMP JUMPDEST SWAP2 SWAP1 PUSH2 0x1051 PUSH2 0x382 PUSH2 0xECF SWAP4 PUSH2 0xA82 JUMP JUMPDEST SWAP1 DUP4 SLOAD PUSH2 0x102C JUMP JUMPDEST PUSH2 0x31C SWAP2 PUSH1 0x0 SWAP2 PUSH2 0x1040 JUMP JUMPDEST DUP2 DUP2 LT PUSH2 0x1070 JUMPI POP POP JUMP JUMPDEST DUP1 PUSH2 0x107E PUSH1 0x0 PUSH1 0x1 SWAP4 PUSH2 0x1059 JUMP JUMPDEST ADD PUSH2 0x1065 JUMP JUMPDEST SWAP2 SWAP1 PUSH1 0x1F DUP2 GT PUSH2 0x1093 JUMPI POP POP POP JUMP JUMPDEST PUSH2 0x10A5 PUSH2 0x31C SWAP4 PUSH1 0x0 MSTORE PUSH1 0x20 PUSH1 0x0 KECCAK256 SWAP1 JUMP JUMPDEST SWAP1 PUSH1 0x20 PUSH1 0x1F DUP5 ADD DUP2 SWAP1 DIV DUP4 ADD SWAP4 LT PUSH2 0x10C8 JUMPI JUMPDEST PUSH1 0x20 PUSH1 0x1F SWAP1 SWAP2 ADD DIV JUMPDEST ADD SWAP1 PUSH2 0x1065 JUMP JUMPDEST SWAP1 SWAP2 POP DUP2 SWAP1 PUSH2 0x10B8 JUMP JUMPDEST PUSH1 0x0 NOT PUSH1 0x8 DUP4 MUL SHR NOT AND SWAP1 PUSH1 0x2 MUL OR SWAP1 JUMP JUMPDEST SWAP1 PUSH2 0x10ED DUP2 MLOAD SWAP1 JUMP JUMPDEST SWAP1 PUSH1 0x1 PUSH1 0x1 PUSH1 0x40 SHL SUB DUP3 GT PUSH2 0x711 JUMPI PUSH2 0x1110 DUP3 PUSH2 0x110A DUP6 SLOAD PUSH2 0xD2E JUMP JUMPDEST DUP6 PUSH2 0x1084 JUMP JUMPDEST PUSH1 0x20 SWAP1 PUSH1 0x1F DUP4 GT PUSH1 0x1 EQ PUSH2 0x113E JUMPI PUSH2 0xECF SWAP3 SWAP2 PUSH1 0x0 SWAP2 DUP4 PUSH2 0x1133 JUMPI JUMPDEST POP POP PUSH2 0x10D2 JUMP JUMPDEST ADD MLOAD SWAP1 POP CODESIZE DUP1 PUSH2 0x112C JUMP JUMPDEST PUSH1 0x1F NOT DUP4 AND SWAP2 PUSH2 0x1153 DUP6 PUSH1 0x0 MSTORE PUSH1 0x20 PUSH1 0x0 KECCAK256 SWAP1 JUMP JUMPDEST SWAP3 PUSH1 0x0 JUMPDEST DUP2 DUP2 LT PUSH2 0x1191 JUMPI POP SWAP2 PUSH1 0x2 SWAP4 SWAP2 DUP6 PUSH1 0x1 SWAP7 SWAP5 LT PUSH2 0x1178 JUMPI JUMPDEST POP POP POP MUL ADD SWAP1 SSTORE JUMP JUMPDEST ADD MLOAD PUSH1 0x0 NOT PUSH1 0x8 PUSH1 0x1F DUP6 AND MUL SHR NOT AND SWAP1 SSTORE CODESIZE DUP1 DUP1 PUSH2 0x116F JUMP JUMPDEST SWAP2 SWAP4 PUSH1 0x20 PUSH1 0x1 DUP2 SWAP3 DUP8 DUP8 ADD MLOAD DUP2 SSTORE ADD SWAP6 ADD SWAP3 ADD PUSH2 0x1157 JUMP JUMPDEST SWAP2 SWAP1 PUSH2 0x11B8 JUMPI PUSH2 0x31C SWAP2 PUSH2 0x10E4 JUMP JUMPDEST PUSH2 0x1016 JUMP JUMPDEST SWAP1 DUP2 SLOAD SWAP2 PUSH1 0x1 PUSH1 0x40 SHL DUP4 LT ISZERO PUSH2 0x711 JUMPI DUP3 PUSH2 0x11E0 SWAP2 PUSH1 0x1 PUSH2 0x31C SWAP6 ADD DUP2 SSTORE PUSH2 0xFEE JUMP JUMPDEST SWAP1 PUSH2 0x11A9 JUMP JUMPDEST PUSH2 0xAE5 PUSH2 0x409 SWAP2 PUSH1 0x20 SWAP5 SWAP4 PUSH2 0xF84 JUMP JUMPDEST PUSH2 0x120B PUSH2 0x1202 PUSH1 0x40 MLOAD SWAP1 JUMP JUMPDEST SWAP3 DUP4 SWAP3 DUP4 PUSH2 0x11E6 JUMP JUMPDEST SUB SWAP1 KECCAK256 SWAP1 JUMP JUMPDEST PUSH2 0x382 SWAP2 PUSH2 0x11F6 JUMP JUMPDEST SWAP1 DUP2 MSTORE PUSH1 0x40 PUSH1 0x20 DUP3 ADD DUP2 SWAP1 MSTORE PUSH2 0x382 SWAP3 SWAP2 ADD SWAP1 PUSH2 0x3D5 JUMP JUMPDEST POP PUSH2 0x1278 PUSH2 0x1254 PUSH1 0x1 PUSH2 0x1246 CALLER PUSH1 0x5 PUSH2 0xBEA JUMP JUMPDEST ADD SLOAD PUSH1 0x1 PUSH1 0x1 PUSH1 0xA0 SHL SUB AND SWAP1 JUMP JUMPDEST PUSH2 0x1271 PUSH2 0x1264 PUSH2 0x487 PUSH1 0x0 PUSH2 0xF37 JUMP JUMPDEST SWAP2 PUSH1 0x1 PUSH1 0x1 PUSH1 0xA0 SHL SUB AND SWAP1 JUMP JUMPDEST EQ ISZERO PUSH2 0xF40 JUMP JUMPDEST PUSH2 0x1303 PUSH32 0x8255C8525999A4033C19435FBC50486F0692671B14F480923F0B3A6472EBB235 PUSH1 0x4 PUSH2 0x1322 PUSH2 0x12AF PUSH2 0x382 CALLER PUSH1 0x5 PUSH2 0xBEA JUMP JUMPDEST PUSH2 0x1308 DUP2 PUSH2 0x12FA PUSH2 0x12EE PUSH2 0x382 PUSH2 0x12CD PUSH2 0x12C8 DUP6 PUSH2 0xCC2 JUMP JUMPDEST PUSH2 0x26CA JUMP JUMPDEST PUSH2 0x12D6 TIMESTAMP PUSH2 0x26CA JUMP JUMPDEST SWAP1 PUSH2 0x12E0 PUSH1 0x40 MLOAD SWAP1 JUMP JUMPDEST SWAP4 DUP5 SWAP3 PUSH1 0x20 DUP5 ADD SWAP3 DUP4 PUSH2 0xFA5 JUMP JUMPDEST SWAP1 DUP2 SUB DUP3 MSTORE SUB DUP3 PUSH2 0x6F0 JUMP JUMPDEST SWAP7 DUP8 SWAP6 DUP7 SWAP3 ADD SWAP1 JUMP JUMPDEST PUSH2 0x11BD JUMP JUMPDEST PUSH2 0x131D PUSH2 0x1316 DUP5 PUSH1 0x6 PUSH2 0x1211 JUMP JUMPDEST CALLER SWAP1 PUSH2 0xEB8 JUMP JUMPDEST PUSH2 0xCC2 JUMP JUMPDEST PUSH2 0x1337 PUSH2 0x132E PUSH1 0x40 MLOAD SWAP1 JUMP JUMPDEST SWAP3 DUP4 SWAP3 DUP4 PUSH2 0x121A JUMP JUMPDEST SUB SWAP1 LOG1 SWAP1 JUMP JUMPDEST PUSH2 0x382 PUSH1 0x60 PUSH2 0xF19 JUMP JUMPDEST PUSH2 0xE4A SWAP3 SWAP2 SWAP1 PUSH2 0x1358 DUP4 CALLER DUP4 PUSH2 0x27D8 JUMP JUMPDEST PUSH2 0x2829 JUMP JUMPDEST SWAP1 PUSH2 0xBF4 JUMP JUMPDEST PUSH1 0x1 PUSH2 0xE78 PUSH2 0x382 SWAP3 PUSH2 0x1374 PUSH1 0x0 SWAP1 JUMP JUMPDEST POP PUSH1 0x0 PUSH1 0x0 DUP1 MLOAD PUSH1 0x20 PUSH2 0x3EB8 DUP4 CODECOPY DUP2 MLOAD SWAP2 MSTORE JUMPDEST ADD PUSH2 0x135D JUMP JUMPDEST SWAP1 PUSH2 0x31C SWAP2 PUSH2 0x139E PUSH2 0xE99 DUP3 PUSH2 0x1363 JUMP JUMPDEST SWAP1 PUSH2 0x13A8 SWAP2 PUSH2 0x28B5 JUMP JUMPDEST POP JUMP JUMPDEST SWAP1 PUSH2 0x31C SWAP2 PUSH2 0x138D JUMP JUMPDEST PUSH2 0x382 SWAP1 PUSH1 0xA0 SHR JUMPDEST PUSH1 0xFF AND SWAP1 JUMP JUMPDEST PUSH2 0x382 SWAP1 SLOAD PUSH2 0x13B5 JUMP JUMPDEST PUSH2 0x13DC SWAP1 PUSH1 0xFF AND JUMPDEST SWAP2 PUSH1 0xFF AND SWAP1 JUMP JUMPDEST ADD SWAP1 PUSH1 0xFF DUP3 GT PUSH2 0xCEF JUMPI JUMP JUMPDEST PUSH2 0x382 PUSH2 0x1414 PUSH32 0x773E532DFEDE91F04B12A73D3D2ACD361424F41F76B4FB79F090161E36B4E00 PUSH2 0x13C3 JUMP JUMPDEST PUSH2 0x141C PUSH2 0x2948 JUMP JUMPDEST SWAP1 PUSH2 0x13CD JUMP JUMPDEST SWAP1 PUSH2 0x142C CALLER PUSH2 0x487 JUMP JUMPDEST PUSH1 0x1 PUSH1 0x1 PUSH1 0xA0 SHL SUB DUP3 AND SUB PUSH2 0x1444 JUMPI PUSH2 0x13A8 SWAP2 PUSH2 0x2952 JUMP JUMPDEST PUSH4 0x334BD919 PUSH1 0xE1 SHL PUSH1 0x0 SWAP1 DUP2 MSTORE PUSH1 0x4 JUMPDEST SUB PUSH1 0x0 REVERT JUMPDEST PUSH2 0x382 PUSH2 0x1487 PUSH1 0x0 PUSH32 0x773E532DFEDE91F04B12A73D3D2ACD361424F41F76B4FB79F090161E36B4E00 PUSH2 0x1246 JUMP JUMPDEST PUSH2 0x864 JUMP JUMPDEST PUSH2 0x14A3 PUSH1 0x0 DUP1 MLOAD PUSH1 0x20 PUSH2 0x3ED8 DUP4 CODECOPY DUP2 MLOAD SWAP2 MSTORE PUSH2 0x2604 JUMP JUMPDEST PUSH2 0x31C PUSH2 0x31C PUSH2 0x2A22 JUMP JUMPDEST PUSH2 0x31C PUSH2 0x148C JUMP JUMPDEST SWAP1 PUSH2 0x382 SWAP3 SWAP2 PUSH2 0x14C4 PUSH2 0x260F JUMP JUMPDEST PUSH2 0x19B2 JUMP JUMPDEST ISZERO PUSH2 0x14D0 JUMPI JUMP JUMPDEST PUSH1 0x40 MLOAD PUSH3 0x461BCD PUSH1 0xE5 SHL DUP2 MSTORE PUSH1 0x20 PUSH1 0x4 DUP3 ADD MSTORE PUSH1 0xE PUSH1 0x24 DUP3 ADD MSTORE PUSH14 0x4163636F756E7420657869737473 PUSH1 0x90 SHL PUSH1 0x44 DUP3 ADD MSTORE PUSH1 0x64 SWAP1 REVERT JUMPDEST ISZERO PUSH2 0x150D JUMPI JUMP JUMPDEST PUSH1 0x40 MLOAD PUSH3 0x461BCD PUSH1 0xE5 SHL DUP2 MSTORE PUSH1 0x20 PUSH1 0x4 DUP3 ADD MSTORE PUSH1 0x12 PUSH1 0x24 DUP3 ADD MSTORE PUSH18 0x14185CDCDDDBDC99081D1BDBC81CDA1BDC9D PUSH1 0x72 SHL PUSH1 0x44 DUP3 ADD MSTORE PUSH1 0x64 SWAP1 REVERT JUMPDEST ISZERO PUSH2 0x154E JUMPI JUMP JUMPDEST PUSH1 0x40 MLOAD PUSH3 0x461BCD PUSH1 0xE5 SHL DUP2 MSTORE PUSH1 0x20 PUSH1 0x4 DUP3 ADD MSTORE PUSH1 0x16 PUSH1 0x24 DUP3 ADD MSTORE PUSH22 0x149958DBDD995C9E481AD95E481D1BDBC81CDA1BDC9D PUSH1 0x52 SHL PUSH1 0x44 DUP3 ADD MSTORE PUSH1 0x64 SWAP1 REVERT JUMPDEST PUSH1 0x0 NOT DUP2 EQ PUSH2 0xCEF JUMPI PUSH1 0x1 ADD SWAP1 JUMP JUMPDEST SWAP1 PUSH1 0x0 NOT SWAP1 PUSH2 0xEAE JUMP JUMPDEST SWAP1 PUSH2 0x15B5 PUSH2 0x382 PUSH2 0xECF SWAP3 PUSH2 0xA82 JUMP JUMPDEST DUP3 SLOAD PUSH2 0x159B JUMP JUMPDEST PUSH2 0x382 SWAP2 PUSH2 0xF84 JUMP JUMPDEST PUSH1 0x1 PUSH1 0x1 PUSH1 0x40 SHL SUB DUP2 GT PUSH2 0x711 JUMPI PUSH1 0x20 DUP1 SWAP2 MUL ADD SWAP1 JUMP JUMPDEST SWAP1 PUSH2 0xAE5 PUSH2 0x762 DUP4 PUSH2 0x15C5 JUMP JUMPDEST PUSH1 0x0 JUMPDEST DUP3 DUP2 LT PUSH2 0x15F8 JUMPI POP POP POP JUMP JUMPDEST PUSH1 0x60 DUP3 DUP3 ADD MSTORE PUSH1 0x20 ADD PUSH2 0x15EC JUMP JUMPDEST SWAP1 PUSH2 0x31C PUSH2 0x161C PUSH2 0x1616 DUP5 PUSH2 0x15DC JUMP JUMPDEST SWAP4 PUSH2 0x15C5 JUMP JUMPDEST PUSH1 0x1F NOT ADD PUSH1 0x20 DUP5 ADD PUSH2 0x15E9 JUMP JUMPDEST PUSH2 0x382 PUSH2 0x100 PUSH2 0x716 JUMP JUMPDEST SWAP1 PUSH2 0x15B5 PUSH2 0x382 PUSH2 0xECF SWAP3 SWAP1 JUMP JUMPDEST DUP2 DUP2 MUL SWAP3 SWAP2 DUP2 ISZERO SWAP2 DUP5 DIV EQ OR ISZERO PUSH2 0xCEF JUMPI JUMP JUMPDEST SWAP1 PUSH2 0x1668 SWAP1 PUSH1 0x0 NOT SWAP1 PUSH1 0x20 SUB PUSH1 0x8 MUL SHR SWAP1 JUMP JUMPDEST DUP2 SLOAD AND SWAP1 SSTORE JUMP JUMPDEST SWAP1 PUSH1 0x0 SWAP2 PUSH2 0x168D PUSH2 0x1685 DUP3 PUSH1 0x0 MSTORE PUSH1 0x20 PUSH1 0x0 KECCAK256 SWAP1 JUMP JUMPDEST SWAP3 DUP4 SLOAD PUSH2 0x10D2 JUMP JUMPDEST SWAP1 SSTORE SSTORE JUMP JUMPDEST SWAP2 SWAP3 SWAP1 PUSH1 0x20 DUP3 LT ISZERO PUSH2 0x16EA JUMPI PUSH1 0x1F DUP5 GT PUSH1 0x1 EQ PUSH2 0x16B4 JUMPI PUSH2 0xECF SWAP3 SWAP4 POP PUSH2 0x10D2 JUMP JUMPDEST POP SWAP1 PUSH2 0x16E5 PUSH2 0x31C SWAP4 PUSH1 0x1 PUSH2 0x16DC PUSH2 0x16D1 DUP6 PUSH1 0x0 MSTORE PUSH1 0x20 PUSH1 0x0 KECCAK256 SWAP1 JUMP JUMPDEST SWAP3 PUSH1 0x1F PUSH1 0x20 SWAP2 ADD DIV SWAP1 JUMP JUMPDEST DUP3 ADD SWAP2 ADD PUSH2 0x1065 JUMP JUMPDEST PUSH2 0x166F JUMP JUMPDEST POP PUSH2 0x1723 DUP3 SWAP4 PUSH2 0x1701 PUSH1 0x1 SWAP5 PUSH1 0x0 MSTORE PUSH1 0x20 PUSH1 0x0 KECCAK256 SWAP1 JUMP JUMPDEST PUSH2 0x10C1 PUSH1 0x20 PUSH1 0x1F DUP7 ADD DIV DUP3 ADD SWAP3 PUSH1 0x1F DUP7 AND DUP1 PUSH2 0x172B JUMPI JUMPDEST POP PUSH1 0x1F PUSH1 0x20 SWAP2 ADD DIV SWAP1 JUMP JUMPDEST PUSH1 0x2 MUL OR SWAP1 SSTORE JUMP JUMPDEST PUSH2 0x1737 SWAP1 DUP9 DUP7 SUB PUSH2 0x1655 JUMP JUMPDEST CODESIZE PUSH2 0x1718 JUMP JUMPDEST SWAP3 SWAP1 SWAP2 PUSH1 0x1 PUSH1 0x40 SHL DUP3 GT PUSH2 0x711 JUMPI PUSH1 0x20 GT ISZERO PUSH2 0x1784 JUMPI PUSH1 0x20 DUP2 LT ISZERO PUSH2 0x1765 JUMPI PUSH2 0xECF SWAP2 PUSH2 0x10D2 JUMP JUMPDEST PUSH1 0x1 SWAP2 PUSH1 0xFF NOT AND PUSH2 0x177B DUP5 PUSH1 0x0 MSTORE PUSH1 0x20 PUSH1 0x0 KECCAK256 SWAP1 JUMP JUMPDEST SSTORE PUSH1 0x2 MUL ADD SWAP1 SSTORE JUMP JUMPDEST PUSH1 0x1 SWAP2 POP PUSH1 0x2 MUL ADD SWAP1 SSTORE JUMP JUMPDEST SWAP1 DUP2 SLOAD PUSH2 0x179C DUP2 PUSH2 0xD2E JUMP JUMPDEST SWAP1 DUP2 DUP4 GT PUSH2 0x17C5 JUMPI JUMPDEST DUP2 DUP4 LT PUSH2 0x17B3 JUMPI JUMPDEST POP POP POP POP JUMP JUMPDEST PUSH2 0x17BC SWAP4 PUSH2 0x1692 JUMP JUMPDEST CODESIZE DUP1 DUP1 DUP1 PUSH2 0x17AD JUMP JUMPDEST PUSH2 0x17D1 DUP4 DUP4 DUP4 DUP8 PUSH2 0x173D JUMP JUMPDEST PUSH2 0x17A5 JUMP JUMPDEST PUSH1 0x0 PUSH2 0x31C SWAP2 PUSH2 0x1790 JUMP JUMPDEST SWAP1 PUSH1 0x0 SUB PUSH2 0x11B8 JUMPI PUSH2 0x31C SWAP1 PUSH2 0x17D6 JUMP JUMPDEST DUP2 DUP2 LT PUSH2 0x17FD JUMPI POP POP JUMP JUMPDEST DUP1 PUSH2 0x180B PUSH1 0x0 PUSH1 0x1 SWAP4 PUSH2 0x17E1 JUMP JUMPDEST ADD PUSH2 0x17F2 JUMP JUMPDEST SWAP2 SWAP1 SWAP2 DUP3 DUP3 LT PUSH2 0x1820 JUMPI POP POP POP JUMP JUMPDEST PUSH2 0x31C SWAP3 SWAP2 PUSH2 0x1836 SWAP1 JUMPDEST SWAP2 PUSH1 0x0 MSTORE PUSH1 0x20 PUSH1 0x0 KECCAK256 SWAP1 JUMP JUMPDEST SWAP2 DUP3 ADD SWAP2 ADD PUSH2 0x17F2 JUMP JUMPDEST SWAP1 PUSH1 0x1 PUSH1 0x40 SHL DUP2 GT PUSH2 0x711 JUMPI DUP2 PUSH2 0x1858 PUSH2 0x31C SWAP4 SLOAD SWAP1 JUMP JUMPDEST SWAP1 DUP3 DUP2 SSTORE PUSH2 0x1811 JUMP JUMPDEST SWAP1 PUSH2 0x31C SWAP2 PUSH2 0x10E4 JUMP JUMPDEST PUSH2 0x188A PUSH2 0x182A PUSH2 0x1879 DUP5 MLOAD SWAP1 JUMP JUMPDEST SWAP4 PUSH2 0x1884 DUP6 DUP6 PUSH2 0x1840 JUMP JUMPDEST PUSH1 0x20 ADD SWAP1 JUMP JUMPDEST PUSH1 0x0 SWAP2 JUMPDEST DUP4 DUP4 LT PUSH2 0x189B JUMPI POP POP POP POP JUMP JUMPDEST PUSH1 0x1 PUSH1 0x20 DUP3 PUSH2 0x18B2 PUSH2 0x18AC DUP5 SWAP6 MLOAD SWAP1 JUMP JUMPDEST DUP7 PUSH2 0x1861 JUMP JUMPDEST ADD SWAP3 ADD SWAP3 ADD SWAP2 SWAP1 PUSH2 0x188E JUMP JUMPDEST SWAP1 PUSH2 0x31C SWAP2 PUSH2 0x186B JUMP JUMPDEST SWAP1 PUSH1 0xFF SWAP1 PUSH2 0xEAE JUMP JUMPDEST SWAP1 PUSH2 0x18E1 PUSH2 0x382 PUSH2 0xECF SWAP3 ISZERO ISZERO SWAP1 JUMP JUMPDEST DUP3 SLOAD PUSH2 0x18C8 JUMP JUMPDEST PUSH1 0x7 PUSH2 0x19A1 PUSH1 0xE0 PUSH2 0x31C SWAP5 PUSH2 0x1907 PUSH2 0x1901 PUSH1 0x0 DUP4 ADD MLOAD SWAP1 JUMP JUMPDEST DUP7 PUSH2 0x15A5 JUMP JUMPDEST PUSH2 0x1927 PUSH2 0x191E PUSH1 0x20 DUP4 ADD MLOAD PUSH1 0x1 PUSH1 0x1 PUSH1 0xA0 SHL SUB AND SWAP1 JUMP JUMPDEST PUSH1 0x1 DUP8 ADD PUSH2 0xEB8 JUMP JUMPDEST PUSH2 0x193E PUSH2 0x1935 PUSH1 0x40 DUP4 ADD MLOAD SWAP1 JUMP JUMPDEST PUSH1 0x2 DUP8 ADD PUSH2 0x1634 JUMP JUMPDEST PUSH2 0x1955 PUSH2 0x194C PUSH1 0x60 DUP4 ADD MLOAD SWAP1 JUMP JUMPDEST PUSH1 0x3 DUP8 ADD PUSH2 0x1634 JUMP JUMPDEST PUSH2 0x196C PUSH2 0x1963 PUSH1 0x80 DUP4 ADD MLOAD SWAP1 JUMP JUMPDEST PUSH1 0x4 DUP8 ADD PUSH2 0x18BE JUMP JUMPDEST PUSH2 0x1983 PUSH2 0x197A PUSH1 0xA0 DUP4 ADD MLOAD SWAP1 JUMP JUMPDEST PUSH1 0x5 DUP8 ADD PUSH2 0x15A5 JUMP JUMPDEST PUSH2 0x199C PUSH2 0x1993 PUSH1 0xC0 DUP4 ADD MLOAD ISZERO ISZERO SWAP1 JUMP JUMPDEST PUSH1 0x6 DUP8 ADD PUSH2 0x18D1 JUMP JUMPDEST ADD MLOAD SWAP1 JUMP JUMPDEST SWAP2 ADD PUSH2 0x15A5 JUMP JUMPDEST SWAP1 PUSH2 0x31C SWAP2 PUSH2 0x18E8 JUMP JUMPDEST PUSH2 0x1B10 SWAP3 PUSH2 0x1B00 SWAP2 POP PUSH2 0x1AF9 PUSH2 0x19CE PUSH1 0x1 PUSH2 0x1246 CALLER PUSH1 0x5 PUSH2 0xBEA JUMP JUMPDEST PUSH2 0x19E9 PUSH1 0x0 SWAP2 PUSH2 0x19E3 PUSH2 0x1264 PUSH2 0x487 DUP6 PUSH2 0xF37 JUMP JUMPDEST EQ PUSH2 0x14C9 JUMP JUMPDEST PUSH2 0x1A0C PUSH2 0x19F4 DUP7 MLOAD SWAP1 JUMP JUMPDEST PUSH2 0x1A05 PUSH2 0x1A01 PUSH1 0x8 PUSH2 0xA82 JUMP JUMPDEST SWAP2 SWAP1 JUMP JUMPDEST LT ISZERO PUSH2 0x1506 JUMP JUMPDEST PUSH2 0x1A2B PUSH2 0x1A17 DUP5 MLOAD SWAP1 JUMP JUMPDEST PUSH2 0x1A24 PUSH2 0x1A01 PUSH1 0x8 PUSH2 0xA82 JUMP JUMPDEST LT ISZERO PUSH2 0x1547 JUMP JUMPDEST PUSH2 0x1A47 PUSH2 0x1A40 PUSH2 0x1A3B PUSH1 0x2 PUSH2 0xCC2 JUMP JUMPDEST PUSH2 0x158C JUMP JUMPDEST PUSH1 0x2 PUSH2 0x15A5 JUMP JUMPDEST PUSH2 0x1AE5 PUSH2 0x1A54 PUSH1 0x2 PUSH2 0xCC2 JUMP JUMPDEST SWAP6 PUSH2 0x1A71 PUSH2 0x1A61 PUSH1 0x40 MLOAD SWAP1 JUMP JUMPDEST DUP1 SWAP3 PUSH2 0x12EE PUSH1 0x20 DUP4 ADD SWAP2 DUP3 PUSH2 0x15BC JUMP JUMPDEST PUSH2 0x1A83 PUSH2 0x1A7C DUP3 MLOAD SWAP1 JUMP JUMPDEST SWAP2 PUSH1 0x20 ADD SWAP1 JUMP JUMPDEST KECCAK256 SWAP4 PUSH2 0x1A91 PUSH2 0x1A61 PUSH1 0x40 MLOAD SWAP1 JUMP JUMPDEST PUSH2 0x1A9C PUSH2 0x1A7C DUP3 MLOAD SWAP1 JUMP JUMPDEST KECCAK256 SWAP4 PUSH2 0x1ADE PUSH2 0x1AAA DUP5 PUSH2 0xA82 JUMP JUMPDEST SWAP6 PUSH2 0x1AD7 PUSH2 0x1AB7 DUP9 PUSH2 0x1606 JUMP JUMPDEST SWAP4 PUSH2 0x1ACA PUSH2 0x1AC3 PUSH2 0x1629 JUMP JUMPDEST SWAP12 DUP9 DUP14 ADD MSTORE JUMP JUMPDEST CALLER PUSH1 0x20 DUP13 ADD MSTORE PUSH1 0x40 DUP12 ADD MSTORE JUMP JUMPDEST PUSH1 0x60 DUP10 ADD MSTORE JUMP JUMPDEST PUSH1 0x80 DUP8 ADD MSTORE JUMP JUMPDEST PUSH2 0x1AF0 TIMESTAMP PUSH1 0xA0 DUP8 ADD MSTORE JUMP JUMPDEST ISZERO ISZERO PUSH1 0xC0 DUP6 ADD MSTORE JUMP JUMPDEST PUSH1 0xE0 DUP4 ADD MSTORE JUMP JUMPDEST PUSH2 0x1B0B CALLER PUSH1 0x5 PUSH2 0xBEA JUMP JUMPDEST PUSH2 0x19A8 JUMP JUMPDEST PUSH2 0x1B1A PUSH1 0x2 PUSH2 0xCC2 JUMP JUMPDEST PUSH32 0xEFD1DDEF00B1051ABC144C2E895DE70A10DBBC3AD8985118C74C15E40E3D391F PUSH2 0x1B51 PUSH2 0x1B47 CALLER PUSH2 0x864 JUMP JUMPDEST SWAP3 PUSH2 0x33D PUSH1 0x40 MLOAD SWAP1 JUMP JUMPDEST SUB SWAP1 LOG2 PUSH2 0x382 PUSH1 0x2 PUSH2 0xCC2 JUMP JUMPDEST PUSH2 0x382 SWAP2 SWAP1 PUSH1 0x0 PUSH2 0x14B6 JUMP JUMPDEST SWAP1 PUSH2 0x31C SWAP2 PUSH2 0x1B77 PUSH2 0x2A2A JUMP JUMPDEST SWAP1 PUSH2 0x31C SWAP2 PUSH2 0x1B85 DUP2 PUSH2 0x2AD8 JUMP JUMPDEST PUSH2 0x2AE1 JUMP JUMPDEST SWAP1 PUSH2 0x31C SWAP2 PUSH2 0x1B6A JUMP JUMPDEST PUSH2 0x382 SWAP1 PUSH2 0x1BA0 PUSH2 0x2BA0 JUMP JUMPDEST PUSH2 0x1BCE JUMP JUMPDEST PUSH2 0x382 PUSH32 0x360894A13BA1A3210667C828492DB98DCA3E2076CC3735A920A3CA505D382BBC PUSH2 0xA82 JUMP JUMPDEST POP PUSH2 0x382 PUSH2 0x1BA5 JUMP JUMPDEST PUSH2 0x382 PUSH1 0x0 PUSH2 0x1B94 JUMP JUMPDEST PUSH2 0x382 SWAP1 PUSH2 0x13BD JUMP JUMPDEST PUSH2 0x382 SWAP1 SLOAD PUSH2 0x1BE1 JUMP JUMPDEST PUSH2 0x382 PUSH32 0xCD5ED15C6E187E77E9AEE88184C21F4F2182AB5827CB3B7E07FBEDCD63F03300 PUSH2 0x1BEA JUMP JUMPDEST PUSH2 0x382 SWAP1 PUSH1 0x40 SHR PUSH2 0x13BD JUMP JUMPDEST PUSH2 0x382 SWAP1 SLOAD PUSH2 0x1C1D JUMP JUMPDEST PUSH2 0x382 SWAP1 JUMPDEST PUSH1 0x1 PUSH1 0x1 PUSH1 0x40 SHL SUB AND SWAP1 JUMP JUMPDEST PUSH2 0x382 SWAP1 SLOAD PUSH2 0x1C33 JUMP JUMPDEST PUSH2 0x1C38 PUSH2 0x382 PUSH2 0x382 SWAP3 SWAP1 JUMP JUMPDEST SWAP1 PUSH1 0x1 PUSH1 0x1 PUSH1 0x40 SHL SUB SWAP1 PUSH2 0xEAE JUMP JUMPDEST PUSH2 0x1C38 PUSH2 0x382 PUSH2 0x382 SWAP3 PUSH1 0x1 PUSH1 0x1 PUSH1 0x40 SHL SUB AND SWAP1 JUMP JUMPDEST SWAP1 PUSH2 0x1C90 PUSH2 0x382 PUSH2 0xECF SWAP3 PUSH2 0x1C6A JUMP JUMPDEST DUP3 SLOAD PUSH2 0x1C5B JUMP JUMPDEST SWAP1 PUSH9 0xFF0000000000000000 SWAP1 PUSH1 0x40 SHL PUSH2 0xEAE JUMP JUMPDEST SWAP1 PUSH2 0x1CBB PUSH2 0x382 PUSH2 0xECF SWAP3 ISZERO ISZERO SWAP1 JUMP JUMPDEST DUP3 SLOAD PUSH2 0x1C97 JUMP JUMPDEST PUSH2 0x318 SWAP1 PUSH2 0x1C4E JUMP JUMPDEST PUSH1 0x20 DUP2 ADD SWAP3 SWAP2 PUSH2 0x31C SWAP2 SWAP1 PUSH2 0x1CC2 JUMP JUMPDEST SWAP2 PUSH2 0x1CE4 PUSH2 0x2BE2 JUMP JUMPDEST SWAP4 DUP5 SWAP2 PUSH2 0x1D00 PUSH2 0x1CFA PUSH2 0x1CF6 DUP6 PUSH2 0x1C29 JUMP JUMPDEST ISZERO SWAP1 JUMP JUMPDEST SWAP4 PUSH2 0x1C44 JUMP JUMPDEST SWAP4 PUSH1 0x0 SWAP6 PUSH2 0x1D0D DUP8 PUSH2 0x1C4E JUMP JUMPDEST PUSH1 0x1 PUSH1 0x1 PUSH1 0x40 SHL SUB DUP8 AND EQ DUP1 PUSH2 0x1E05 JUMPI JUMPDEST PUSH1 0x1 SWAP7 PUSH2 0x1D3A PUSH2 0x1D2D DUP10 PUSH2 0x1C4E JUMP JUMPDEST SWAP2 PUSH1 0x1 PUSH1 0x1 PUSH1 0x40 SHL SUB AND SWAP1 JUMP JUMPDEST EQ SWAP1 DUP2 PUSH2 0x1DE1 JUMPI JUMPDEST ISZERO JUMPDEST SWAP1 DUP2 PUSH2 0x1DD8 JUMPI JUMPDEST POP PUSH2 0x1DC9 JUMPI SWAP1 PUSH2 0x1D77 SWAP4 SWAP3 SWAP2 DUP6 PUSH2 0x1D6E DUP10 PUSH2 0x1D65 DUP11 PUSH2 0x1C4E JUMP JUMPDEST SWAP12 ADD SWAP11 DUP12 PUSH2 0x1C80 JUMP JUMPDEST PUSH2 0x1DBA JUMPI PUSH2 0x1E0C JUMP JUMPDEST PUSH2 0x1D80 JUMPI POP POP POP JUMP JUMPDEST PUSH2 0x1DAE PUSH2 0xF0B SWAP3 PUSH32 0xC7F505B2F371AE2175EE4913F4499E1F2633A7B5936321EED1CDAEB6115181D2 SWAP5 PUSH2 0x1CAB JUMP JUMPDEST PUSH1 0x40 MLOAD SWAP2 DUP3 SWAP2 DUP3 PUSH2 0x1CCB JUMP JUMPDEST PUSH2 0x1DC4 DUP8 DUP11 PUSH2 0x1CAB JUMP JUMPDEST PUSH2 0x1E0C JUMP JUMPDEST PUSH4 0xF92EE8A9 PUSH1 0xE0 SHL DUP8 MSTORE PUSH1 0x4 DUP8 REVERT JUMPDEST ISZERO SWAP1 POP CODESIZE PUSH2 0x1D4B JUMP JUMPDEST SWAP1 POP PUSH2 0x1D44 PUSH2 0x1DEF ADDRESS PUSH2 0x864 JUMP JUMPDEST EXTCODESIZE PUSH2 0x1DFC PUSH2 0x1A01 DUP12 PUSH2 0xA82 JUMP JUMPDEST EQ SWAP2 SWAP1 POP PUSH2 0x1D42 JUMP JUMPDEST POP DUP5 PUSH2 0x1D1E JUMP JUMPDEST PUSH2 0xF04 SWAP3 PUSH2 0x31C SWAP5 SWAP3 PUSH2 0x1E21 PUSH2 0x1E26 SWAP4 PUSH2 0x2BFF JUMP JUMPDEST PUSH2 0x2C1F JUMP JUMPDEST PUSH2 0x1E2E PUSH2 0x2C31 JUMP JUMPDEST PUSH2 0x1E36 PUSH2 0x2C4C JUMP JUMPDEST PUSH2 0x1E3E PUSH2 0x2C31 JUMP JUMPDEST PUSH2 0x1E46 PUSH2 0x2C31 JUMP JUMPDEST PUSH2 0x1E58 PUSH2 0x1E51 PUSH2 0xA8F JUMP JUMPDEST CALLER SWAP1 PUSH2 0x28B5 JUMP JUMPDEST POP PUSH2 0x1E70 PUSH1 0x0 DUP1 MLOAD PUSH1 0x20 PUSH2 0x3ED8 DUP4 CODECOPY DUP2 MLOAD SWAP2 MSTORE PUSH2 0x1E51 JUMP JUMPDEST POP PUSH2 0x1E9A PUSH32 0x189AB7A9244DF0848122154315AF71FE140F3DB0FE014031783B0946B8C9D2E3 PUSH2 0x1E51 JUMP JUMPDEST POP PUSH2 0x1EC4 PUSH32 0xBF233DD2AAFEB4D50879C4AA5C81E96D92F6E6945C906A58F9F2D1C1631B4B26 PUSH2 0x1E51 JUMP JUMPDEST POP PUSH2 0x1487 TIMESTAMP PUSH1 0x0 PUSH2 0x15A5 JUMP JUMPDEST SWAP1 PUSH2 0x31C SWAP4 SWAP3 SWAP2 PUSH2 0x1CDB JUMP JUMPDEST SWAP1 PUSH2 0x382 SWAP3 SWAP2 PUSH2 0x1EEA PUSH2 0x260F JUMP JUMPDEST SWAP1 PUSH2 0x1EFD SWAP3 SWAP2 PUSH2 0x1EF8 PUSH2 0x2C5E JUMP JUMPDEST PUSH2 0x1F41 JUMP JUMPDEST SWAP1 PUSH2 0x31C PUSH2 0x2CBC JUMP JUMPDEST ISZERO PUSH2 0x1F0D JUMPI JUMP JUMPDEST PUSH1 0x40 MLOAD PUSH3 0x461BCD PUSH1 0xE5 SHL DUP2 MSTORE PUSH1 0x20 PUSH1 0x4 DUP3 ADD MSTORE PUSH1 0xC PUSH1 0x24 DUP3 ADD MSTORE PUSH12 0x12D650C81C995C5D5A5C9959 PUSH1 0xA2 SHL PUSH1 0x44 DUP3 ADD MSTORE PUSH1 0x64 SWAP1 REVERT JUMPDEST POP PUSH2 0x382 SWAP2 SWAP1 PUSH2 0x1F58 PUSH2 0x1F53 DUP3 PUSH2 0x2D10 JUMP JUMPDEST PUSH2 0x1F06 JUMP JUMPDEST PUSH2 0x1F60 PUSH2 0x2DA0 JUMP JUMPDEST PUSH2 0x2EBE JUMP JUMPDEST PUSH2 0x382 SWAP2 SWAP1 PUSH1 0x0 PUSH2 0x1EDC JUMP JUMPDEST PUSH2 0x131D PUSH2 0x382 SWAP2 PUSH2 0x1F80 PUSH1 0x0 SWAP1 JUMP JUMPDEST POP PUSH1 0x0 PUSH1 0x0 DUP1 MLOAD PUSH1 0x20 PUSH2 0x3E98 DUP4 CODECOPY DUP2 MLOAD SWAP2 MSTORE JUMPDEST ADD PUSH2 0xBEA JUMP JUMPDEST PUSH2 0x31C SWAP2 SWAP1 PUSH2 0x1FB5 PUSH1 0x0 DUP1 MLOAD PUSH1 0x20 PUSH2 0x3ED8 DUP4 CODECOPY DUP2 MLOAD SWAP2 MSTORE PUSH2 0x2604 JUMP JUMPDEST PUSH32 0x40D8738B990E6FF9A2F56F11247E657A1E7070472260B020A4FC3AB1844787BD SWAP2 PUSH2 0x6A8 PUSH2 0xF0B SWAP3 PUSH2 0x1FF2 PUSH2 0x1FEA DUP5 PUSH2 0x864 JUMP JUMPDEST SWAP2 PUSH1 0x7 PUSH2 0xBEA JUMP JUMPDEST PUSH2 0xEB8 JUMP JUMPDEST SWAP1 PUSH2 0x31C SWAP2 PUSH2 0x1F99 JUMP JUMPDEST PUSH2 0x202A PUSH32 0xBF233DD2AAFEB4D50879C4AA5C81E96D92F6E6945C906A58F9F2D1C1631B4B26 PUSH2 0x2604 JUMP JUMPDEST PUSH2 0x31C PUSH2 0x31C PUSH2 0x2F3C JUMP JUMPDEST PUSH2 0x31C PUSH2 0x2001 JUMP JUMPDEST PUSH2 0x382 SWAP2 PUSH1 0x0 PUSH2 0x1F93 PUSH2 0x2068 SWAP4 PUSH2 0x2052 PUSH1 0x0 SWAP1 JUMP JUMPDEST POP DUP3 PUSH1 0x0 DUP1 MLOAD PUSH1 0x20 PUSH2 0x3EB8 DUP4 CODECOPY DUP2 MLOAD SWAP2 MSTORE PUSH2 0x1387 JUMP JUMPDEST PUSH2 0x1BEA JUMP JUMPDEST SWAP1 PUSH2 0x382 SWAP3 SWAP2 PUSH2 0x207B PUSH2 0x260F JUMP JUMPDEST SWAP1 PUSH2 0x1EFD SWAP3 SWAP2 PUSH2 0x2089 PUSH2 0x2C5E JUMP JUMPDEST POP PUSH2 0x382 SWAP2 SWAP1 PUSH2 0x20A3 PUSH2 0x1F53 PUSH2 0x209E DUP4 PUSH2 0x2227 JUMP JUMPDEST PUSH2 0x2D10 JUMP JUMPDEST PUSH2 0x20AB PUSH2 0x2DA0 JUMP JUMPDEST PUSH2 0x2F44 JUMP JUMPDEST PUSH2 0x382 SWAP2 SWAP1 PUSH1 0x0 PUSH2 0x206D JUMP JUMPDEST PUSH2 0x382 PUSH1 0x4 PUSH1 0x0 DUP1 MLOAD PUSH1 0x20 PUSH2 0x3E98 DUP4 CODECOPY DUP2 MLOAD SWAP2 MSTORE PUSH2 0xE25 JUMP JUMPDEST SWAP1 PUSH2 0x382 SWAP3 SWAP2 PUSH2 0x20E3 PUSH2 0x260F JUMP JUMPDEST SWAP1 PUSH2 0x1EFD SWAP3 SWAP2 PUSH2 0x20F1 PUSH2 0x2C5E JUMP JUMPDEST PUSH2 0x21AC JUMP JUMPDEST PUSH2 0x382 PUSH1 0xA PUSH2 0xA82 JUMP JUMPDEST PUSH2 0x382 PUSH2 0x2710 PUSH2 0xA82 JUMP JUMPDEST PUSH4 0x4E487B71 PUSH1 0xE0 SHL PUSH1 0x0 MSTORE PUSH1 0x12 PUSH1 0x4 MSTORE PUSH1 0x24 PUSH1 0x0 REVERT JUMPDEST DUP2 ISZERO PUSH2 0x212B JUMPI DIV SWAP1 JUMP JUMPDEST PUSH2 0x210B JUMP JUMPDEST SWAP2 SWAP1 DUP3 SUB SWAP2 DUP3 GT PUSH2 0xCEF JUMPI JUMP JUMPDEST PUSH2 0x2147 PUSH1 0x8 PUSH2 0xAD8 JUMP JUMPDEST PUSH8 0x3A3930B739B332B9 PUSH1 0xC1 SHL PUSH1 0x20 DUP3 ADD MSTORE SWAP1 JUMP JUMPDEST PUSH2 0x382 PUSH2 0x213D JUMP JUMPDEST PUSH2 0x216D PUSH1 0x5 PUSH2 0xAD8 JUMP JUMPDEST PUSH5 0x4E4F4F5249 PUSH1 0xD8 SHL PUSH1 0x20 DUP3 ADD MSTORE SWAP1 JUMP JUMPDEST PUSH2 0x382 PUSH2 0x2163 JUMP JUMPDEST PUSH2 0x2190 PUSH1 0x8 PUSH2 0xAD8 JUMP JUMPDEST PUSH8 0x2A3930B739B332B9 PUSH1 0xC1 SHL PUSH1 0x20 DUP3 ADD MSTORE SWAP1 JUMP JUMPDEST PUSH2 0x382 PUSH2 0x2186 JUMP JUMPDEST POP PUSH2 0x382 SWAP2 SWAP1 PUSH2 0x21BE PUSH2 0x1F53 DUP4 PUSH2 0x2D10 JUMP JUMPDEST PUSH2 0x21C6 PUSH2 0x2DA0 JUMP JUMPDEST PUSH2 0x2216 PUSH2 0x21F4 PUSH2 0x21EE PUSH2 0x21E0 PUSH2 0x21DA PUSH2 0x20F6 JUMP JUMPDEST DUP7 PUSH2 0x1642 JUMP JUMPDEST PUSH2 0x21E8 PUSH2 0x2100 JUMP JUMPDEST SWAP1 PUSH2 0x2121 JUMP JUMPDEST DUP5 PUSH2 0x2130 JUMP JUMPDEST SWAP3 PUSH2 0x21FD PUSH2 0x215B JUMP JUMPDEST PUSH2 0x2205 PUSH2 0x217E JUMP JUMPDEST SWAP1 PUSH2 0x220E PUSH2 0x21A4 JUMP JUMPDEST SWAP3 DUP6 CALLER PUSH2 0x30BB JUMP JUMPDEST PUSH2 0x3212 JUMP JUMPDEST PUSH2 0x382 SWAP2 SWAP1 PUSH1 0x0 PUSH2 0x20D5 JUMP JUMPDEST PUSH1 0x1 PUSH2 0x382 SWAP2 PUSH2 0xE39 PUSH1 0x0 SWAP1 JUMP JUMPDEST SWAP1 PUSH2 0x382 SWAP4 SWAP3 SWAP2 PUSH2 0x2244 PUSH2 0x260F JUMP JUMPDEST SWAP1 PUSH2 0x1EFD SWAP4 SWAP3 SWAP2 PUSH2 0x2253 PUSH2 0x2C5E JUMP JUMPDEST PUSH2 0x22B0 JUMP JUMPDEST PUSH2 0x382 PUSH1 0x32 PUSH2 0xA82 JUMP JUMPDEST PUSH2 0x226C PUSH1 0x8 PUSH2 0xAD8 JUMP JUMPDEST PUSH8 0x7769746864726177 PUSH1 0xC0 SHL PUSH1 0x20 DUP3 ADD MSTORE SWAP1 JUMP JUMPDEST PUSH2 0x382 PUSH2 0x2262 JUMP JUMPDEST PUSH2 0x2292 PUSH1 0xA PUSH2 0xAD8 JUMP JUMPDEST PUSH10 0x15DA5D1A191C985DD85B PUSH1 0xB2 SHL PUSH1 0x20 DUP3 ADD MSTORE SWAP1 JUMP JUMPDEST PUSH2 0x382 PUSH2 0x2288 JUMP JUMPDEST POP PUSH2 0x382 SWAP3 SWAP2 SWAP1 PUSH2 0x22C4 PUSH2 0x1F53 DUP5 DUP4 PUSH2 0x321D JUMP JUMPDEST PUSH2 0x22CC PUSH2 0x2DA0 JUMP JUMPDEST PUSH2 0x230E PUSH2 0x22EC PUSH2 0x22E6 PUSH2 0x21E0 PUSH2 0x22E0 PUSH2 0x2258 JUMP JUMPDEST DUP6 PUSH2 0x1642 JUMP JUMPDEST DUP4 PUSH2 0x2130 JUMP JUMPDEST SWAP2 PUSH2 0x22F5 PUSH2 0x2280 JUMP JUMPDEST PUSH2 0x22FD PUSH2 0x217E JUMP JUMPDEST SWAP1 PUSH2 0x2306 PUSH2 0x22A8 JUMP JUMPDEST SWAP3 DUP7 DUP9 PUSH2 0x30BB JUMP JUMPDEST PUSH2 0x3235 JUMP JUMPDEST PUSH2 0x382 SWAP3 SWAP2 SWAP1 PUSH1 0x0 PUSH2 0x2235 JUMP JUMPDEST SWAP1 PUSH2 0x382 SWAP4 SWAP3 SWAP2 PUSH2 0x232F PUSH2 0x260F JUMP JUMPDEST SWAP1 PUSH2 0x1EFD SWAP4 SWAP3 SWAP2 PUSH2 0x233E PUSH2 0x2C5E JUMP JUMPDEST PUSH2 0x238F JUMP JUMPDEST PUSH2 0x234D PUSH1 0x6 PUSH2 0xAD8 JUMP JUMPDEST PUSH6 0x72656465656D PUSH1 0xD0 SHL PUSH1 0x20 DUP3 ADD MSTORE SWAP1 JUMP JUMPDEST PUSH2 0x382 PUSH2 0x2343 JUMP JUMPDEST PUSH2 0x2371 PUSH1 0xA PUSH2 0xAD8 JUMP JUMPDEST PUSH10 0x2932B232B6B83A34B7B7 PUSH1 0xB1 SHL PUSH1 0x20 DUP3 ADD MSTORE SWAP1 JUMP JUMPDEST PUSH2 0x382 PUSH2 0x2367 JUMP JUMPDEST PUSH2 0x382 SWAP4 SWAP3 SWAP2 PUSH2 0x23FC SWAP2 POP PUSH2 0x23F7 PUSH2 0x23A6 DUP3 PUSH2 0xE2B JUMP JUMPDEST SWAP2 PUSH2 0x23B4 PUSH2 0x1F53 DUP8 DUP6 PUSH2 0x321D JUMP JUMPDEST PUSH2 0x23BC PUSH2 0x2DA0 JUMP JUMPDEST PUSH2 0x23CD PUSH2 0x21EE PUSH2 0x21E0 PUSH2 0x21DA PUSH2 0x2258 JUMP JUMPDEST SWAP1 PUSH2 0x23F2 PUSH2 0x23D9 PUSH2 0x235F JUMP JUMPDEST PUSH2 0x23E1 PUSH2 0x217E JUMP JUMPDEST PUSH2 0x23E9 PUSH2 0x2387 JUMP JUMPDEST SWAP2 DUP8 DUP11 DUP13 PUSH2 0x30BB JUMP JUMPDEST PUSH2 0x1642 JUMP JUMPDEST PUSH2 0x2121 JUMP JUMPDEST PUSH2 0x3278 JUMP JUMPDEST PUSH2 0x382 SWAP3 SWAP2 SWAP1 PUSH1 0x0 PUSH2 0x2320 JUMP JUMPDEST PUSH1 0x0 PUSH2 0x382 SWAP2 PUSH2 0xE5D PUSH1 0x0 SWAP1 JUMP JUMPDEST PUSH1 0x0 PUSH2 0x2433 PUSH2 0x382 SWAP3 PUSH2 0x242D PUSH1 0x0 SWAP1 JUMP JUMPDEST POP PUSH2 0x1F71 JUMP JUMPDEST PUSH2 0x25A1 JUMP JUMPDEST SWAP1 PUSH2 0x31C SWAP2 PUSH2 0x2449 PUSH2 0xE99 DUP3 PUSH2 0x1363 JUMP JUMPDEST SWAP1 PUSH2 0x13A8 SWAP2 PUSH2 0x2952 JUMP JUMPDEST SWAP1 PUSH2 0x31C SWAP2 PUSH2 0x2438 JUMP JUMPDEST PUSH2 0x382 SWAP1 PUSH1 0x0 PUSH2 0x242D JUMP JUMPDEST PUSH2 0x382 SWAP2 PUSH2 0x2492 PUSH2 0x131D SWAP3 PUSH2 0x247B PUSH1 0x0 SWAP1 JUMP JUMPDEST POP PUSH1 0x1 PUSH1 0x0 DUP1 MLOAD PUSH1 0x20 PUSH2 0x3E98 DUP4 CODECOPY DUP2 MLOAD SWAP2 MSTORE PUSH2 0x1F93 JUMP JUMPDEST PUSH2 0xBEA JUMP JUMPDEST SWAP1 POP MLOAD SWAP1 PUSH2 0x31C DUP3 PUSH2 0x445 JUMP JUMPDEST SWAP1 PUSH1 0x20 DUP3 DUP3 SUB SLT PUSH2 0x313 JUMPI PUSH2 0x382 SWAP2 PUSH2 0x2497 JUMP JUMPDEST PUSH1 0x40 MLOAD RETURNDATASIZE PUSH1 0x0 DUP3 RETURNDATACOPY RETURNDATASIZE SWAP1 REVERT JUMPDEST PUSH2 0x2512 PUSH1 0x20 PUSH2 0x24D7 PUSH2 0x1487 PUSH2 0x1487 PUSH2 0x1459 JUMP JUMPDEST PUSH2 0x24E0 ADDRESS PUSH2 0x864 JUMP JUMPDEST SWAP1 PUSH2 0x24EA PUSH1 0x40 MLOAD SWAP1 JUMP JUMPDEST SWAP4 DUP5 SWAP3 DUP4 SWAP2 DUP3 SWAP2 PUSH4 0x70A08231 PUSH1 0xE0 SHL DUP4 MSTORE PUSH1 0x4 DUP4 ADD PUSH1 0x1 PUSH1 0x1 PUSH1 0xA0 SHL SUB SWAP1 SWAP2 AND DUP2 MSTORE PUSH1 0x20 ADD SWAP1 JUMP JUMPDEST SUB SWAP2 GAS STATICCALL SWAP1 DUP2 ISZERO PUSH2 0x2551 JUMPI PUSH1 0x0 SWAP2 PUSH2 0x2528 JUMPI POP SWAP1 JUMP JUMPDEST PUSH2 0x382 SWAP2 POP PUSH1 0x20 RETURNDATASIZE PUSH1 0x20 GT PUSH2 0x254A JUMPI JUMPDEST PUSH2 0x2542 DUP2 DUP4 PUSH2 0x6F0 JUMP JUMPDEST DUP2 ADD SWAP1 PUSH2 0x24A4 JUMP JUMPDEST POP RETURNDATASIZE PUSH2 0x2538 JUMP JUMPDEST PUSH2 0x24B8 JUMP JUMPDEST PUSH4 0x7965DB0B PUSH1 0xE0 SHL PUSH1 0x1 PUSH1 0x1 PUSH1 0xE0 SHL SUB NOT DUP3 AND EQ SWAP1 DUP2 ISZERO PUSH2 0x2575 JUMPI POP SWAP1 JUMP JUMPDEST PUSH2 0x382 SWAP2 POP PUSH1 0x1 PUSH1 0x1 PUSH1 0xE0 SHL SUB NOT AND PUSH4 0x1FFC9A7 PUSH1 0xE0 SHL EQ SWAP1 JUMP JUMPDEST PUSH1 0xFF AND PUSH1 0x4D DUP2 GT PUSH2 0xCEF JUMPI PUSH1 0xA EXP SWAP1 JUMP JUMPDEST PUSH2 0x382 SWAP2 SWAP1 PUSH2 0x25BB PUSH2 0x25B1 PUSH2 0xCF4 JUMP JUMPDEST PUSH2 0xD09 PUSH1 0x1 PUSH2 0xA82 JUMP JUMPDEST PUSH2 0x25D6 PUSH2 0x25C6 PUSH2 0xE63 JUMP JUMPDEST PUSH2 0xD09 PUSH2 0x25D1 PUSH2 0x2948 JUMP JUMPDEST PUSH2 0x2590 JUMP JUMPDEST SWAP2 PUSH2 0x32C0 JUMP JUMPDEST SWAP2 PUSH1 0x1 SWAP2 PUSH2 0x31C SWAP4 PUSH2 0x3318 JUMP JUMPDEST PUSH2 0x382 SWAP2 SWAP1 PUSH2 0x25F9 PUSH2 0x25C6 PUSH2 0xE63 JUMP JUMPDEST PUSH2 0x25D6 PUSH2 0x25B1 PUSH2 0xCF4 JUMP JUMPDEST PUSH2 0x31C SWAP1 CALLER SWAP1 PUSH2 0x3428 JUMP JUMPDEST PUSH2 0x2617 PUSH2 0x1BF4 JUMP JUMPDEST PUSH2 0x261D JUMPI JUMP JUMPDEST PUSH4 0xD93C0665 PUSH1 0xE0 SHL PUSH1 0x0 SWAP1 DUP2 MSTORE PUSH1 0x4 SWAP1 REVERT JUMPDEST PUSH2 0x2639 PUSH1 0x1 PUSH2 0xAD8 JUMP JUMPDEST PUSH1 0x3 PUSH1 0xFC SHL PUSH1 0x20 DUP3 ADD MSTORE SWAP1 JUMP JUMPDEST PUSH2 0x382 PUSH2 0x262F JUMP JUMPDEST CALLDATASIZE SWAP1 CALLDATACOPY JUMP JUMPDEST SWAP1 PUSH2 0x31C PUSH2 0x2669 PUSH2 0x2663 DUP5 PUSH2 0xAD8 JUMP JUMPDEST SWAP4 PUSH2 0x72A JUMP JUMPDEST PUSH1 0x1F NOT ADD PUSH1 0x20 DUP5 ADD PUSH2 0x264E JUMP JUMPDEST SWAP1 JUMPDEST SWAP1 DUP2 ISZERO PUSH2 0x212B JUMPI MOD SWAP1 JUMP JUMPDEST PUSH2 0x13BD PUSH2 0x382 PUSH2 0x382 SWAP3 SWAP1 JUMP JUMPDEST PUSH2 0x26A6 PUSH2 0x26A0 PUSH2 0x382 SWAP3 PUSH1 0xFF AND SWAP1 JUMP JUMPDEST PUSH1 0xF8 SHL SWAP1 JUMP JUMPDEST PUSH1 0x1 PUSH1 0x1 PUSH1 0xF8 SHL SUB NOT AND SWAP1 JUMP JUMPDEST SWAP1 PUSH2 0x26BC DUP3 MLOAD SWAP1 JUMP JUMPDEST DUP2 LT ISZERO PUSH2 0x1011 JUMPI ADD PUSH1 0x20 ADD SWAP1 JUMP JUMPDEST SWAP1 PUSH1 0x0 PUSH2 0x26D6 DUP2 PUSH2 0xA82 JUMP JUMPDEST DUP4 EQ PUSH2 0x27A2 JUMPI SWAP1 SWAP2 SWAP1 DUP2 PUSH1 0x0 JUMPDEST PUSH2 0x26EC DUP4 PUSH2 0xA82 JUMP JUMPDEST DUP5 EQ PUSH2 0x270F JUMPI PUSH2 0x26FE PUSH2 0x2709 SWAP2 PUSH2 0x158C JUMP JUMPDEST SWAP4 PUSH2 0x21E8 PUSH1 0xA PUSH2 0xA82 JUMP JUMPDEST SWAP3 PUSH2 0x26E3 JUMP JUMPDEST SWAP2 SWAP4 SWAP3 POP PUSH2 0x271C DUP3 PUSH2 0x2653 JUMP JUMPDEST SWAP2 JUMPDEST PUSH2 0x2727 DUP6 PUSH2 0xA82 JUMP JUMPDEST DUP3 EQ PUSH2 0x2797 JUMPI PUSH2 0x2744 PUSH2 0x2791 SWAP2 PUSH2 0x273E PUSH1 0x1 PUSH2 0xA82 JUMP JUMPDEST SWAP1 PUSH2 0x2130 JUMP JUMPDEST SWAP2 PUSH2 0x21E8 PUSH1 0xA DUP5 PUSH2 0x278B PUSH2 0x2782 PUSH2 0x277D PUSH2 0x2778 PUSH2 0x2769 PUSH2 0x2763 DUP8 PUSH2 0xA82 JUMP JUMPDEST DUP10 PUSH2 0x2676 JUMP JUMPDEST PUSH2 0x2773 PUSH1 0x30 PUSH2 0xA82 JUMP JUMPDEST PUSH2 0xCE2 JUMP JUMPDEST PUSH2 0x2683 JUMP JUMPDEST PUSH2 0x2690 JUMP JUMPDEST DUP11 BYTE SWAP2 DUP9 PUSH2 0x26B3 JUMP JUMPDEST MSTORE8 PUSH2 0xA82 JUMP JUMPDEST SWAP1 PUSH2 0x271E JUMP JUMPDEST POP POP PUSH2 0x382 SWAP2 SWAP3 POP SWAP1 JUMP JUMPDEST POP SWAP1 POP PUSH2 0x382 PUSH2 0x2646 JUMP JUMPDEST PUSH1 0x1 PUSH1 0x1 PUSH1 0xA0 SHL SUB SWAP1 SWAP2 AND DUP2 MSTORE PUSH1 0x60 DUP2 ADD SWAP4 SWAP3 PUSH2 0x31C SWAP3 SWAP1 SWAP2 PUSH1 0x40 SWAP2 PUSH2 0x27D4 SWAP1 PUSH1 0x20 DUP4 ADD MSTORE JUMP JUMPDEST ADD MSTORE JUMP JUMPDEST SWAP2 PUSH2 0x27E3 DUP3 DUP5 PUSH2 0x2468 JUMP JUMPDEST PUSH1 0x0 NOT DUP2 LT PUSH2 0x27F2 JUMPI POP POP POP POP JUMP JUMPDEST DUP2 DUP2 LT PUSH2 0x280F JUMPI SWAP2 PUSH2 0x2809 PUSH2 0x17BC SWAP5 SWAP3 PUSH1 0x0 SWAP5 SUB SWAP1 JUMP JUMPDEST SWAP2 PUSH2 0x3318 JUMP JUMPDEST PUSH4 0x7DC7A0D9 PUSH1 0xE1 SHL PUSH1 0x0 SWAP1 DUP2 MSTORE SWAP4 POP PUSH2 0x1454 SWAP3 PUSH1 0x4 PUSH2 0x27AD JUMP JUMPDEST SWAP3 SWAP2 SWAP1 PUSH1 0x0 SWAP4 PUSH2 0x2838 DUP6 PUSH2 0xF37 JUMP JUMPDEST DUP6 PUSH1 0x1 PUSH1 0x1 PUSH1 0xA0 SHL SUB DUP3 AND PUSH1 0x1 PUSH1 0x1 PUSH1 0xA0 SHL SUB DUP5 AND EQ PUSH2 0x2895 JUMPI POP PUSH1 0x1 PUSH1 0x1 PUSH1 0xA0 SHL SUB DUP2 AND PUSH1 0x1 PUSH1 0x1 PUSH1 0xA0 SHL SUB DUP5 AND EQ PUSH2 0x2878 JUMPI POP PUSH2 0x31C SWAP4 SWAP5 POP PUSH2 0x3457 JUMP JUMPDEST PUSH4 0xEC442F05 PUSH1 0xE0 SHL DUP7 MSTORE PUSH1 0x1 PUSH1 0x1 PUSH1 0xA0 SHL SUB AND PUSH1 0x4 DUP7 ADD MSTORE PUSH1 0x24 DUP6 REVERT JUMPDEST PUSH4 0x4B637E8F PUSH1 0xE1 SHL DUP2 MSTORE PUSH1 0x1 PUSH1 0x1 PUSH1 0xA0 SHL SUB SWAP2 SWAP1 SWAP2 AND PUSH1 0x4 DUP3 ADD MSTORE PUSH1 0x24 SWAP1 REVERT JUMPDEST PUSH1 0x0 DUP1 MLOAD PUSH1 0x20 PUSH2 0x3EB8 DUP4 CODECOPY DUP2 MLOAD SWAP2 MSTORE PUSH2 0x28D1 PUSH2 0x1CF6 DUP5 DUP5 PUSH2 0x203D JUMP JUMPDEST ISZERO PUSH2 0x2940 JUMPI PUSH1 0x1 PUSH2 0x28ED DUP5 PUSH1 0x0 PUSH2 0x1F93 DUP7 DUP3 PUSH2 0x28F2 SWAP8 ADD PUSH2 0x135D JUMP JUMPDEST PUSH2 0x18D1 JUMP JUMPDEST PUSH2 0x290C PUSH2 0x2906 PUSH2 0x2900 CALLER SWAP4 SWAP1 JUMP JUMPDEST SWAP4 PUSH2 0x864 JUMP JUMPDEST SWAP2 PUSH2 0x864 JUMP JUMPDEST SWAP2 PUSH32 0x2F8788117E7EFF1D82E926EC794901D17C78024A50270940304540A733656F0D PUSH2 0x2937 PUSH1 0x40 MLOAD SWAP1 JUMP JUMPDEST PUSH1 0x0 SWAP1 LOG4 PUSH1 0x1 SWAP1 JUMP JUMPDEST POP POP POP PUSH1 0x0 SWAP1 JUMP JUMPDEST PUSH2 0x382 PUSH1 0x0 PUSH2 0x2683 JUMP JUMPDEST PUSH1 0x0 DUP1 MLOAD PUSH1 0x20 PUSH2 0x3EB8 DUP4 CODECOPY DUP2 MLOAD SWAP2 MSTORE PUSH2 0x296B DUP4 DUP4 PUSH2 0x203D JUMP JUMPDEST ISZERO PUSH2 0x2940 JUMPI PUSH1 0x0 PUSH2 0x28ED DUP5 DUP3 PUSH2 0x1F93 DUP7 DUP3 PUSH2 0x2986 SWAP8 ADD PUSH2 0x135D JUMP JUMPDEST PUSH2 0x2994 PUSH2 0x2906 PUSH2 0x2900 CALLER SWAP4 SWAP1 JUMP JUMPDEST SWAP2 PUSH32 0xF6391F5C32D9C69D2A47EA670B442974B53935D1EDC7FD64EB21E047A839171B PUSH2 0x2937 PUSH1 0x40 MLOAD SWAP1 JUMP JUMPDEST PUSH2 0x29C7 PUSH2 0x3596 JUMP JUMPDEST PUSH2 0x31C PUSH2 0x29F8 PUSH1 0x0 DUP1 PUSH32 0xCD5ED15C6E187E77E9AEE88184C21F4F2182AB5827CB3B7E07FBEDCD63F03300 JUMPDEST ADD PUSH2 0x18D1 JUMP JUMPDEST PUSH32 0x5DB9EE0A495BF2E6FF9C91A7834C1BA4FDD244A5E8AA4E537BD38AEAE4B073AA PUSH2 0xF0B CALLER PUSH2 0x6A8 JUMP JUMPDEST PUSH2 0x31C PUSH2 0x29BF JUMP JUMPDEST PUSH2 0x2A33 ADDRESS PUSH2 0x864 JUMP JUMPDEST PUSH32 0x0 SWAP1 PUSH2 0x2A67 PUSH1 0x1 PUSH1 0x1 PUSH1 0xA0 SHL SUB DUP4 AND PUSH2 0x1264 JUMP JUMPDEST EQ SWAP1 DUP2 ISZERO PUSH2 0x2A89 JUMPI JUMPDEST POP PUSH2 0x2A77 JUMPI JUMP JUMPDEST PUSH4 0x703E46DD PUSH1 0xE1 SHL PUSH1 0x0 SWAP1 DUP2 MSTORE PUSH1 0x4 SWAP1 REVERT JUMPDEST SWAP1 POP PUSH2 0x2AA6 PUSH2 0x1264 PUSH2 0x2A99 PUSH2 0x35B9 JUMP JUMPDEST SWAP3 PUSH1 0x1 PUSH1 0x1 PUSH1 0xA0 SHL SUB AND SWAP1 JUMP JUMPDEST EQ ISZERO CODESIZE PUSH2 0x2A70 JUMP JUMPDEST POP PUSH2 0x31C PUSH32 0x189AB7A9244DF0848122154315AF71FE140F3DB0FE014031783B0946B8C9D2E3 PUSH2 0x2604 JUMP JUMPDEST PUSH2 0x31C SWAP1 PUSH2 0x2AAE JUMP JUMPDEST SWAP1 PUSH2 0x2AEE PUSH2 0x1487 DUP4 PUSH2 0x864 JUMP JUMPDEST SWAP1 PUSH1 0x20 PUSH2 0x2AFA PUSH1 0x40 MLOAD SWAP1 JUMP JUMPDEST PUSH4 0x52D1902D PUSH1 0xE0 SHL DUP2 MSTORE SWAP3 DUP4 SWAP1 PUSH1 0x4 SWAP1 DUP3 SWAP1 GAS STATICCALL PUSH1 0x0 SWAP3 DUP2 PUSH2 0x2B7F JUMPI JUMPDEST POP PUSH2 0x2B49 JUMPI POP POP PUSH1 0x1 PUSH2 0x2B27 JUMPI POP JUMP JUMPDEST PUSH4 0x4C9C8CE3 PUSH1 0xE0 SHL PUSH1 0x0 SWAP1 DUP2 MSTORE PUSH1 0x1 PUSH1 0x1 PUSH1 0xA0 SHL SUB SWAP1 SWAP2 AND PUSH1 0x4 MSTORE PUSH1 0x24 SUB PUSH1 0x0 REVERT JUMPDEST SWAP1 SWAP3 SWAP2 PUSH2 0x2B57 PUSH2 0x382 PUSH2 0x1BA5 JUMP JUMPDEST DUP5 SUB PUSH2 0x2B68 JUMPI PUSH2 0x31C SWAP3 SWAP4 POP PUSH2 0x35C9 JUMP JUMPDEST PUSH4 0x2A875269 PUSH1 0xE2 SHL PUSH1 0x0 SWAP1 DUP2 MSTORE PUSH1 0x4 DUP6 SWAP1 MSTORE PUSH1 0x24 SWAP1 REVERT JUMPDEST PUSH2 0x2B99 SWAP2 SWAP4 POP PUSH1 0x20 RETURNDATASIZE PUSH1 0x20 GT PUSH2 0x254A JUMPI PUSH2 0x2542 DUP2 DUP4 PUSH2 0x6F0 JUMP JUMPDEST SWAP2 CODESIZE PUSH2 0x2B17 JUMP JUMPDEST PUSH2 0x2BA9 ADDRESS PUSH2 0x864 JUMP JUMPDEST PUSH2 0x2BDB PUSH1 0x1 PUSH1 0x1 PUSH1 0xA0 SHL SUB PUSH32 0x0 AND PUSH2 0x1264 JUMP JUMPDEST SUB PUSH2 0x2A77 JUMPI JUMP JUMPDEST PUSH2 0x382 PUSH2 0x365B JUMP JUMPDEST PUSH2 0x31C SWAP1 PUSH2 0x2BF6 PUSH2 0x3663 JUMP JUMPDEST PUSH2 0x31C SWAP1 PUSH2 0x3727 JUMP JUMPDEST PUSH2 0x31C SWAP1 PUSH2 0x2BEA JUMP JUMPDEST SWAP1 PUSH2 0x31C SWAP2 PUSH2 0x2C15 PUSH2 0x3663 JUMP JUMPDEST SWAP1 PUSH2 0x31C SWAP2 PUSH2 0x376C JUMP JUMPDEST SWAP1 PUSH2 0x31C SWAP2 PUSH2 0x2C08 JUMP JUMPDEST PUSH2 0x31C PUSH2 0x3663 JUMP JUMPDEST PUSH2 0x31C PUSH2 0x2C29 JUMP JUMPDEST PUSH2 0x2C41 PUSH2 0x3663 JUMP JUMPDEST PUSH2 0x31C PUSH2 0x31C PUSH2 0x3786 JUMP JUMPDEST PUSH2 0x31C PUSH2 0x2C39 JUMP JUMPDEST PUSH2 0x382 PUSH1 0x2 PUSH2 0xA82 JUMP JUMPDEST PUSH32 0x9B779B17422D0DF92223018B32B4D1FA46E071723D6817E2486D003BECC55F00 PUSH2 0x2C88 DUP2 PUSH2 0xCC2 JUMP JUMPDEST PUSH2 0x2C90 PUSH2 0x2C54 JUMP JUMPDEST SWAP1 DUP2 EQ PUSH2 0x2CA0 JUMPI PUSH2 0x31C SWAP2 PUSH2 0x15A5 JUMP JUMPDEST PUSH4 0x3EE5AEB5 PUSH1 0xE0 SHL PUSH1 0x0 SWAP1 DUP2 MSTORE PUSH1 0x4 SWAP1 REVERT JUMPDEST PUSH2 0x382 PUSH1 0x1 PUSH2 0xA82 JUMP JUMPDEST PUSH2 0x31C PUSH32 0x9B779B17422D0DF92223018B32B4D1FA46E071723D6817E2486D003BECC55F00 PUSH1 0x0 PUSH2 0x19A1 PUSH2 0x2CB2 JUMP JUMPDEST PUSH2 0x382 PUSH10 0x2A5A058FC295ED000000 PUSH2 0xA82 JUMP JUMPDEST PUSH2 0x382 PUSH10 0xD3C21BCECCEDA1000000 PUSH2 0xA82 JUMP JUMPDEST PUSH2 0x2D1E PUSH2 0x382 CALLER PUSH1 0x5 PUSH2 0xBEA JUMP JUMPDEST PUSH2 0x2D2A PUSH1 0x6 DUP3 ADD PUSH2 0x1BEA JUMP JUMPDEST SWAP2 DUP3 ISZERO PUSH2 0x2D36 JUMPI POP POP SWAP1 JUMP JUMPDEST SWAP1 SWAP2 POP PUSH2 0x2D44 PUSH2 0x382 PUSH2 0x2CEA JUMP JUMPDEST DUP2 GT ISZERO SWAP2 DUP3 PUSH2 0x2D52 JUMPI POP POP SWAP1 JUMP JUMPDEST PUSH2 0x2D63 SWAP3 POP PUSH1 0x7 PUSH2 0x2773 SWAP2 ADD PUSH2 0xCC2 JUMP JUMPDEST PUSH2 0x2D71 PUSH2 0x1A01 PUSH2 0x382 PUSH2 0x2CFD JUMP JUMPDEST GT ISZERO SWAP1 JUMP JUMPDEST PUSH2 0x382 PUSH3 0x15180 PUSH2 0xA82 JUMP JUMPDEST PUSH2 0x382 PUSH2 0x3E8 PUSH2 0xA82 JUMP JUMPDEST SWAP1 DUP2 MSTORE PUSH1 0x40 DUP2 ADD SWAP3 SWAP2 PUSH2 0x31C SWAP2 PUSH1 0x20 ADD MSTORE JUMP JUMPDEST PUSH2 0x2DB3 PUSH2 0x2DAD PUSH1 0x0 PUSH2 0xCC2 JUMP JUMPDEST TIMESTAMP PUSH2 0x2130 JUMP JUMPDEST SWAP1 PUSH2 0x2DBC PUSH2 0x2D76 JUMP JUMPDEST DUP1 DUP4 LT ISZERO PUSH2 0x2DC9 JUMPI POP SWAP1 POP JUMP JUMPDEST PUSH2 0x2DD1 PUSH2 0x24C4 JUMP JUMPDEST SWAP3 PUSH2 0x2E11 PUSH2 0x2DDD PUSH2 0x2D82 JUMP JUMPDEST SWAP3 PUSH2 0x2E0B PUSH2 0x21E0 PUSH2 0x2E00 PUSH8 0xDE0B6B3A7640000 SWAP7 PUSH2 0x2DFA DUP9 PUSH2 0xA82 JUMP JUMPDEST SWAP1 PUSH2 0x1642 JUMP JUMPDEST PUSH2 0x21E8 PUSH2 0x16D PUSH2 0xA82 JUMP JUMPDEST SWAP3 PUSH2 0x2121 JUMP JUMPDEST SWAP3 DUP5 PUSH2 0x2E1D PUSH1 0x0 PUSH2 0xA82 JUMP JUMPDEST SWAP6 JUMPDEST DUP6 JUMPDEST DUP8 LT ISZERO PUSH2 0x2E57 JUMPI PUSH2 0x2E4F PUSH2 0x2E48 DUP3 PUSH2 0xD09 PUSH2 0x2E3F DUP9 PUSH2 0x2E21 SWAP7 PUSH2 0x1642 JUMP JUMPDEST PUSH2 0x21E8 DUP11 PUSH2 0xA82 JUMP JUMPDEST SWAP8 PUSH1 0x1 ADD SWAP1 JUMP JUMPDEST SWAP7 SWAP1 POP PUSH2 0x2E1F JUMP JUMPDEST SWAP1 SWAP2 SWAP6 POP PUSH32 0x3D8708181C6452C5711A2B4C6ED3F12149F6EA35F78549ABA00A89D041E766CA SWAP5 POP PUSH2 0xF0B SWAP4 POP PUSH2 0x2E8D SWAP3 POP PUSH2 0x2130 JUMP JUMPDEST PUSH2 0x2EA5 PUSH2 0x2E9E DUP3 PUSH2 0x2773 PUSH1 0x1 PUSH2 0xCC2 JUMP JUMPDEST PUSH1 0x1 PUSH2 0x15A5 JUMP JUMPDEST PUSH2 0x2EB0 TIMESTAMP PUSH1 0x0 PUSH2 0x15A5 JUMP JUMPDEST PUSH1 0x40 MLOAD SWAP2 DUP3 SWAP2 TIMESTAMP SWAP1 DUP4 PUSH2 0x2D8D JUMP JUMPDEST SWAP1 PUSH2 0x382 SWAP1 PUSH2 0x2ECC DUP4 PUSH2 0x240E JUMP JUMPDEST SWAP3 DUP4 SWAP2 CALLER PUSH2 0x378E JUMP JUMPDEST PUSH2 0x378E JUMP JUMPDEST PUSH2 0x2EE2 PUSH2 0x260F JUMP JUMPDEST PUSH2 0x31C PUSH2 0x2F12 PUSH1 0x1 PUSH1 0x0 PUSH32 0xCD5ED15C6E187E77E9AEE88184C21F4F2182AB5827CB3B7E07FBEDCD63F03300 PUSH2 0x29F2 JUMP JUMPDEST PUSH32 0x62E78CEA01BEE320CD4E420270B5EA74000D11B0C9F74754EBDBFC544B05A258 PUSH2 0xF0B CALLER PUSH2 0x6A8 JUMP JUMPDEST PUSH2 0x31C PUSH2 0x2EDA JUMP JUMPDEST DUP1 PUSH2 0x2F51 PUSH2 0x382 SWAP3 PUSH2 0x2227 JUMP JUMPDEST DUP1 SWAP4 PUSH2 0x2ED5 CALLER SWAP1 JUMP JUMPDEST PUSH2 0x382 PUSH2 0x120 PUSH2 0x716 JUMP JUMPDEST DUP1 SLOAD DUP3 LT ISZERO PUSH2 0x1011 JUMPI PUSH2 0x1008 PUSH1 0x9 SWAP2 PUSH1 0x0 MSTORE PUSH1 0x20 PUSH1 0x0 KECCAK256 SWAP1 JUMP JUMPDEST PUSH1 0x8 PUSH2 0x19A1 PUSH2 0x100 PUSH2 0x31C SWAP5 PUSH2 0x2F99 PUSH2 0x1901 PUSH1 0x0 DUP4 ADD MLOAD SWAP1 JUMP JUMPDEST PUSH2 0x2FB0 PUSH2 0x191E PUSH1 0x20 DUP4 ADD MLOAD PUSH1 0x1 PUSH1 0x1 PUSH1 0xA0 SHL SUB AND SWAP1 JUMP JUMPDEST PUSH2 0x2FC7 PUSH2 0x2FBE PUSH1 0x40 DUP4 ADD MLOAD SWAP1 JUMP JUMPDEST PUSH1 0x2 DUP8 ADD PUSH2 0x1861 JUMP JUMPDEST PUSH2 0x2FE7 PUSH2 0x2FDE PUSH1 0x60 DUP4 ADD MLOAD PUSH1 0x1 PUSH1 0x1 PUSH1 0xA0 SHL SUB AND SWAP1 JUMP JUMPDEST PUSH1 0x3 DUP8 ADD PUSH2 0xEB8 JUMP JUMPDEST PUSH2 0x3007 PUSH2 0x2FFE PUSH1 0x80 DUP4 ADD MLOAD PUSH1 0x1 PUSH1 0x1 PUSH1 0xA0 SHL SUB AND SWAP1 JUMP JUMPDEST PUSH1 0x4 DUP8 ADD PUSH2 0xEB8 JUMP JUMPDEST PUSH2 0x301E PUSH2 0x3015 PUSH1 0xA0 DUP4 ADD MLOAD SWAP1 JUMP JUMPDEST PUSH1 0x5 DUP8 ADD PUSH2 0x1861 JUMP JUMPDEST PUSH2 0x3035 PUSH2 0x302C PUSH1 0xC0 DUP4 ADD MLOAD SWAP1 JUMP JUMPDEST PUSH1 0x6 DUP8 ADD PUSH2 0x1861 JUMP JUMPDEST PUSH2 0x199C PUSH2 0x3043 PUSH1 0xE0 DUP4 ADD MLOAD SWAP1 JUMP JUMPDEST PUSH1 0x7 DUP8 ADD PUSH2 0x1861 JUMP JUMPDEST SWAP2 SWAP1 PUSH2 0x11B8 JUMPI PUSH2 0x31C SWAP2 PUSH2 0x2F7F JUMP JUMPDEST SWAP1 DUP2 SLOAD SWAP2 PUSH1 0x1 PUSH1 0x40 SHL DUP4 LT ISZERO PUSH2 0x711 JUMPI DUP3 PUSH2 0x307E SWAP2 PUSH1 0x1 PUSH2 0x31C SWAP6 ADD DUP2 SSTORE PUSH2 0x2F65 JUMP JUMPDEST SWAP1 PUSH2 0x304C JUMP JUMPDEST SWAP1 DUP2 MSTORE PUSH2 0x382 SWAP4 SWAP2 PUSH2 0x30AE SWAP1 PUSH2 0x30A6 SWAP1 PUSH1 0x80 DUP5 ADD SWAP1 DUP5 DUP3 SUB PUSH1 0x20 DUP7 ADD MSTORE PUSH2 0x3D5 JUMP JUMPDEST SWAP4 PUSH1 0x40 DUP4 ADD MSTORE JUMP JUMPDEST PUSH1 0x60 DUP2 DUP5 SUB SWAP2 ADD MSTORE PUSH2 0x3D5 JUMP JUMPDEST SWAP3 SWAP5 SWAP2 SWAP5 SWAP4 SWAP1 SWAP4 PUSH2 0x30CC PUSH1 0x3 PUSH2 0xCC2 JUMP JUMPDEST PUSH2 0x30D5 SWAP1 PUSH2 0x158C JUMP JUMPDEST PUSH2 0x30E0 SWAP1 PUSH1 0x3 PUSH2 0x15A5 JUMP JUMPDEST PUSH2 0x30EA PUSH1 0x3 PUSH2 0xCC2 JUMP JUMPDEST SWAP5 PUSH2 0x30F4 TIMESTAMP PUSH2 0x26CA JUMP JUMPDEST SWAP4 PUSH2 0x30FD PUSH2 0x2F5A JUMP JUMPDEST SWAP7 DUP8 MSTORE PUSH1 0x1 PUSH1 0x1 PUSH1 0xA0 SHL SUB DUP7 AND PUSH1 0x20 DUP9 ADD MSTORE PUSH1 0x40 DUP8 ADD MSTORE PUSH1 0x1 PUSH1 0x1 PUSH1 0xA0 SHL SUB AND PUSH1 0x60 DUP7 ADD MSTORE PUSH1 0x1 PUSH1 0x1 PUSH1 0xA0 SHL SUB DUP5 AND PUSH1 0x80 DUP7 ADD MSTORE PUSH1 0xA0 DUP6 ADD MSTORE PUSH1 0xC0 DUP5 ADD MSTORE PUSH1 0xE0 DUP4 ADD MSTORE PUSH2 0x314C DUP4 PUSH2 0x100 DUP5 ADD MSTORE JUMP JUMPDEST PUSH2 0x3157 DUP3 PUSH1 0x8 PUSH2 0x305B JUMP JUMPDEST PUSH2 0x3162 DUP2 PUSH1 0x5 PUSH2 0xBEA JUMP JUMPDEST PUSH1 0x1 ADD SLOAD PUSH1 0x1 PUSH1 0x1 PUSH1 0xA0 SHL SUB AND PUSH2 0x3179 PUSH1 0x0 PUSH2 0xF37 JUMP JUMPDEST PUSH1 0x1 PUSH1 0x1 PUSH1 0xA0 SHL SUB AND SWAP1 PUSH1 0x1 PUSH1 0x1 PUSH1 0xA0 SHL SUB AND EQ ISZERO SWAP3 PUSH32 0x35F40BC6254D16659C30DA1D658DC7236AC919F02ED864AB8357F22295EE4D2D SWAP4 PUSH2 0x31E7 JUMPI JUMPDEST POP POP DUP1 MLOAD PUSH2 0xF0B PUSH1 0x40 DUP4 ADD MLOAD SWAP3 PUSH1 0xE0 PUSH2 0x31D1 PUSH2 0x100 DUP4 ADD MLOAD SWAP1 JUMP JUMPDEST SWAP2 ADD MLOAD SWAP1 PUSH2 0x31DE PUSH1 0x40 MLOAD SWAP1 JUMP JUMPDEST SWAP5 DUP6 SWAP5 DUP6 PUSH2 0x3084 JUMP JUMPDEST PUSH2 0x3205 PUSH1 0x7 PUSH2 0x31FA PUSH2 0x320B SWAP5 PUSH1 0x5 PUSH2 0xBEA JUMP JUMPDEST ADD SWAP2 PUSH2 0x2773 DUP4 PUSH2 0xCC2 JUMP JUMPDEST SWAP1 PUSH2 0x15A5 JUMP JUMPDEST CODESIZE DUP1 PUSH2 0x31B6 JUMP JUMPDEST PUSH2 0xE4A SWAP2 SWAP1 CALLER PUSH2 0x2829 JUMP JUMPDEST SWAP1 PUSH2 0x382 PUSH2 0x2D1E SWAP2 PUSH2 0x322D PUSH1 0x0 SWAP1 JUMP JUMPDEST POP PUSH1 0x5 PUSH2 0xBEA JUMP JUMPDEST PUSH2 0x323E DUP4 PUSH2 0x241C JUMP JUMPDEST DUP1 DUP3 GT PUSH2 0x325D JUMPI POP SWAP1 DUP2 PUSH2 0x3254 PUSH2 0x382 SWAP4 PUSH2 0xE4F JUMP JUMPDEST SWAP4 DUP5 SWAP3 CALLER PUSH2 0x37F8 JUMP JUMPDEST PUSH4 0x3FA733BB PUSH1 0xE2 SHL PUSH1 0x0 SWAP1 DUP2 MSTORE SWAP2 PUSH2 0x1454 SWAP2 SWAP1 DUP6 PUSH1 0x4 PUSH2 0x27AD JUMP JUMPDEST SWAP1 PUSH2 0x3282 DUP4 PUSH2 0x245D JUMP JUMPDEST DUP1 DUP4 GT PUSH2 0x32A1 JUMPI POP SWAP1 PUSH2 0x382 SWAP2 PUSH2 0x3298 DUP3 PUSH2 0xE2B JUMP JUMPDEST SWAP4 DUP5 SWAP2 CALLER PUSH2 0x37F8 JUMP JUMPDEST PUSH4 0x2E52AFBB PUSH1 0xE2 SHL PUSH1 0x0 SWAP1 DUP2 MSTORE SWAP1 PUSH2 0x1454 SWAP1 DUP5 DUP7 PUSH1 0x4 PUSH2 0x27AD JUMP JUMPDEST EQ SWAP1 JUMP JUMPDEST SWAP3 SWAP2 PUSH2 0x32D6 PUSH2 0x32D0 DUP3 DUP5 DUP8 PUSH2 0x38A2 JUMP JUMPDEST SWAP4 PUSH2 0x3A18 JUMP JUMPDEST SWAP4 DUP5 PUSH2 0x32EC JUMPI JUMPDEST POP POP POP PUSH2 0xD09 PUSH2 0x382 SWAP3 ISZERO ISZERO SWAP1 JUMP JUMPDEST SWAP1 DUP1 SWAP3 SWAP5 POP ISZERO PUSH2 0x212B JUMPI PUSH2 0x3310 PUSH2 0xD09 SWAP3 PUSH2 0x382 SWAP6 PUSH2 0x330B PUSH1 0x0 PUSH2 0xA82 JUMP JUMPDEST SWAP4 MULMOD SWAP1 JUMP JUMPDEST GT SWAP3 CODESIZE PUSH2 0x32DD JUMP JUMPDEST SWAP1 SWAP2 SWAP3 PUSH2 0x3330 PUSH1 0x0 DUP1 MLOAD PUSH1 0x20 PUSH2 0x3E98 DUP4 CODECOPY DUP2 MLOAD SWAP2 MSTORE SWAP1 JUMP JUMPDEST PUSH1 0x0 PUSH2 0x333B DUP2 PUSH2 0xF37 JUMP JUMPDEST PUSH1 0x1 PUSH1 0x1 PUSH1 0xA0 SHL SUB DUP2 AND PUSH1 0x1 PUSH1 0x1 PUSH1 0xA0 SHL SUB DUP7 AND EQ PUSH2 0x33EE JUMPI PUSH1 0x1 PUSH1 0x1 PUSH1 0xA0 SHL SUB DUP2 AND PUSH1 0x1 PUSH1 0x1 PUSH1 0xA0 SHL SUB DUP8 AND EQ PUSH2 0x33D1 JUMPI POP POP DUP5 PUSH2 0x3384 DUP6 PUSH2 0x2492 DUP7 PUSH1 0x1 PUSH2 0x3389 SWAP7 ADD PUSH2 0xBEA JUMP JUMPDEST PUSH2 0x15A5 JUMP JUMPDEST PUSH2 0x3392 JUMPI POP POP POP JUMP JUMPDEST PUSH2 0x33CC PUSH2 0x33C2 PUSH2 0x2900 PUSH32 0x8C5BE1E5EBEC7D5BD14F71427D1E84F3DD0314C0F7B2291E5B200AC8C7C3B925 SWAP4 PUSH2 0x864 JUMP JUMPDEST SWAP4 PUSH2 0x33D PUSH1 0x40 MLOAD SWAP1 JUMP JUMPDEST SUB SWAP1 LOG3 JUMP JUMPDEST PUSH4 0x4A1406B1 PUSH1 0xE1 SHL DUP3 MSTORE PUSH1 0x1 PUSH1 0x1 PUSH1 0xA0 SHL SUB AND PUSH1 0x4 DUP3 ADD MSTORE PUSH1 0x24 SWAP1 REVERT JUMPDEST PUSH4 0xE602DF05 PUSH1 0xE0 SHL DUP3 MSTORE PUSH1 0x1 PUSH1 0x1 PUSH1 0xA0 SHL SUB AND PUSH1 0x4 DUP3 ADD MSTORE PUSH1 0x24 SWAP1 REVERT JUMPDEST PUSH1 0x1 PUSH1 0x1 PUSH1 0xA0 SHL SUB SWAP1 SWAP2 AND DUP2 MSTORE PUSH1 0x40 DUP2 ADD SWAP3 SWAP2 PUSH2 0x31C SWAP2 PUSH1 0x20 ADD MSTORE JUMP JUMPDEST SWAP1 PUSH2 0x3436 PUSH2 0x1CF6 DUP3 DUP5 PUSH2 0x203D JUMP JUMPDEST PUSH2 0x343E JUMPI POP POP JUMP JUMPDEST PUSH4 0xE2517D3F PUSH1 0xE0 SHL PUSH1 0x0 SWAP1 DUP2 MSTORE SWAP2 PUSH2 0x1454 SWAP2 PUSH1 0x4 PUSH2 0x340B JUMP JUMPDEST PUSH1 0x0 DUP1 MLOAD PUSH1 0x20 PUSH2 0x3E98 DUP4 CODECOPY DUP2 MLOAD SWAP2 MSTORE DUP3 PUSH1 0x0 PUSH2 0x3472 DUP2 PUSH2 0xF37 JUMP JUMPDEST PUSH1 0x1 PUSH1 0x1 PUSH1 0xA0 SHL SUB DUP2 AND PUSH1 0x1 PUSH1 0x1 PUSH1 0xA0 SHL SUB DUP7 AND SUB PUSH2 0x3517 JUMPI SWAP4 DUP4 PUSH2 0x33C2 SWAP4 PUSH2 0x2900 SWAP4 PUSH2 0x34D2 PUSH32 0xDDF252AD1BE2C89B69C2B068FC378DAA952BA7F163C4A11628F55A4DF523B3EF SWAP9 PUSH2 0x487 DUP13 PUSH2 0x3205 PUSH1 0x2 PUSH2 0x33CC SWAP13 ADD SWAP2 PUSH2 0x2773 DUP4 PUSH2 0xCC2 JUMP JUMPDEST PUSH1 0x1 PUSH1 0x1 PUSH1 0xA0 SHL SUB DUP4 AND SUB PUSH2 0x34FB JUMPI POP POP PUSH1 0x2 PUSH2 0x1487 SWAP2 ADD PUSH2 0x3205 DUP10 PUSH2 0x34F7 DUP4 PUSH2 0xCC2 JUMP JUMPDEST SUB SWAP1 JUMP JUMPDEST SWAP1 PUSH2 0x350A SWAP2 PUSH2 0x1487 SWAP4 ADD PUSH2 0xBEA JUMP JUMPDEST PUSH2 0x3205 DUP10 PUSH2 0x409 DUP4 PUSH2 0xCC2 JUMP JUMPDEST SWAP1 DUP1 SWAP3 POP DUP4 ADD PUSH2 0x352A PUSH2 0x131D DUP7 DUP4 PUSH2 0xBEA JUMP JUMPDEST DUP8 DUP2 LT PUSH2 0x357B JUMPI SWAP4 DUP7 PUSH2 0x33C2 SWAP5 PUSH2 0x34D2 PUSH2 0x2900 SWAP6 PUSH2 0x487 DUP11 SWAP7 PUSH2 0x3384 PUSH32 0xDDF252AD1BE2C89B69C2B068FC378DAA952BA7F163C4A11628F55A4DF523B3EF SWAP13 DUP16 PUSH2 0x3575 SWAP1 PUSH2 0x33CC SWAP15 SUB SWAP1 JUMP JUMPDEST SWAP3 PUSH2 0xBEA JUMP JUMPDEST DUP4 PUSH2 0xF80 DUP10 DUP3 SWAP4 DUP10 PUSH4 0x391434E3 PUSH1 0xE2 SHL DUP6 MSTORE PUSH1 0x4 DUP6 ADD PUSH2 0x27AD JUMP JUMPDEST PUSH2 0x35A1 PUSH2 0x1CF6 PUSH2 0x1BF4 JUMP JUMPDEST PUSH2 0x35A7 JUMPI JUMP JUMPDEST PUSH4 0x8DFC202B PUSH1 0xE0 SHL PUSH1 0x0 SWAP1 DUP2 MSTORE PUSH1 0x4 SWAP1 REVERT JUMPDEST PUSH2 0x382 PUSH1 0x0 PUSH2 0x1246 PUSH2 0x382 PUSH2 0x1BA5 JUMP JUMPDEST SWAP1 PUSH2 0x35D3 DUP3 PUSH2 0x3A4A JUMP JUMPDEST PUSH2 0x35DC DUP3 PUSH2 0x864 JUMP JUMPDEST PUSH32 0xBC7CD75A20EE27FD9ADEBAB32041F755214DBC6BFFA90CC0225B39DA2E5C2D3B PUSH2 0x3606 PUSH1 0x40 MLOAD SWAP1 JUMP JUMPDEST PUSH1 0x0 SWAP1 LOG2 DUP1 MLOAD PUSH2 0x3619 PUSH2 0x1A01 PUSH1 0x0 PUSH2 0xA82 JUMP JUMPDEST GT ISZERO PUSH2 0x3628 JUMPI PUSH2 0x13A8 SWAP2 PUSH2 0x3AD7 JUMP JUMPDEST POP POP PUSH2 0x31C PUSH2 0x3A95 JUMP JUMPDEST PUSH2 0x382 PUSH32 0xF0C57E16840DF040F15088DC2F81FE391C3923BEC73E23A9662EFC9C229C6A00 PUSH2 0xA82 JUMP JUMPDEST PUSH2 0x382 PUSH2 0x3632 JUMP JUMPDEST PUSH2 0x366E PUSH2 0x1CF6 PUSH2 0x3AFE JUMP JUMPDEST PUSH2 0x3674 JUMPI JUMP JUMPDEST PUSH4 0x1AFCD79F PUSH1 0xE3 SHL PUSH1 0x0 SWAP1 DUP2 MSTORE PUSH1 0x4 SWAP1 REVERT JUMPDEST PUSH2 0x31C SWAP1 PUSH2 0x3692 PUSH2 0x3663 JUMP JUMPDEST PUSH2 0x36CD JUMP JUMPDEST SWAP1 PUSH1 0xFF PUSH1 0xA0 SHL SWAP1 PUSH1 0xA0 SHL PUSH2 0xEAE JUMP JUMPDEST PUSH2 0x13BD PUSH2 0x382 PUSH2 0x382 SWAP3 PUSH1 0xFF AND SWAP1 JUMP JUMPDEST SWAP1 PUSH2 0x36C6 PUSH2 0x382 PUSH2 0xECF SWAP3 PUSH2 0x36A6 JUMP JUMPDEST DUP3 SLOAD PUSH2 0x3697 JUMP JUMPDEST PUSH2 0x31C SWAP1 PUSH32 0x773E532DFEDE91F04B12A73D3D2ACD361424F41F76B4FB79F090161E36B4E00 PUSH2 0x36FB DUP3 PUSH2 0x3B21 JUMP JUMPDEST SWAP1 ISZERO PUSH2 0x3711 JUMPI PUSH1 0x0 PUSH2 0x1FF2 SWAP2 SWAP3 JUMPDEST ADD SWAP2 DUP3 PUSH2 0x36B6 JUMP JUMPDEST POP PUSH2 0x1FF2 PUSH1 0x0 PUSH2 0x3721 PUSH1 0x12 PUSH2 0x2683 JUMP JUMPDEST SWAP3 PUSH2 0x3709 JUMP JUMPDEST PUSH2 0x31C SWAP1 PUSH2 0x3686 JUMP JUMPDEST SWAP1 PUSH2 0x31C SWAP2 PUSH2 0x373D PUSH2 0x3663 JUMP JUMPDEST SWAP1 PUSH1 0x4 PUSH2 0x31C SWAP3 PUSH2 0x3766 PUSH2 0x375C PUSH1 0x0 DUP1 MLOAD PUSH1 0x20 PUSH2 0x3E98 DUP4 CODECOPY DUP2 MLOAD SWAP2 MSTORE SWAP1 JUMP JUMPDEST SWAP2 PUSH1 0x3 DUP4 ADD PUSH2 0x1861 JUMP JUMPDEST ADD PUSH2 0x1861 JUMP JUMPDEST SWAP1 PUSH2 0x31C SWAP2 PUSH2 0x3730 JUMP JUMPDEST PUSH2 0x377E PUSH2 0x3663 JUMP JUMPDEST PUSH2 0x31C PUSH2 0x2CBC JUMP JUMPDEST PUSH2 0x31C PUSH2 0x3776 JUMP JUMPDEST SWAP3 PUSH2 0x37E2 PUSH2 0x2900 PUSH32 0xDCBC1C05240F31FF3AD067EF1EE35CE4997762752E3A095284754544F4C709D7 SWAP4 SWAP5 SWAP6 PUSH2 0x37D8 DUP8 PUSH2 0x37C8 PUSH2 0x1487 PUSH2 0x1459 JUMP JUMPDEST DUP4 PUSH2 0x37D2 ADDRESS PUSH2 0x864 JUMP JUMPDEST SWAP2 PUSH2 0x3C22 JUMP JUMPDEST PUSH2 0x1487 DUP5 DUP8 PUSH2 0x3C5D JUMP JUMPDEST SWAP4 PUSH2 0x33CC PUSH2 0x37EF PUSH1 0x40 MLOAD SWAP1 JUMP JUMPDEST SWAP3 DUP4 SWAP3 DUP4 PUSH2 0x2D8D JUMP JUMPDEST SWAP4 PUSH2 0x386C PUSH2 0x3866 PUSH2 0x3866 PUSH32 0xFBDE797D201C681B91056529119E0B02407C7BB96A4A2C75C01FC9667232C8DB SWAP5 SWAP6 SWAP7 SWAP8 PUSH2 0x3837 DUP9 PUSH1 0x1 PUSH1 0x1 PUSH1 0xA0 SHL SUB AND SWAP1 JUMP JUMPDEST PUSH1 0x1 PUSH1 0x1 PUSH1 0xA0 SHL SUB DUP3 AND SUB PUSH2 0x387E JUMPI JUMPDEST PUSH2 0x3851 DUP6 DUP10 PUSH2 0x3CAC JUMP JUMPDEST PUSH2 0x1487 DUP10 DUP9 PUSH2 0x3861 PUSH2 0x1487 PUSH2 0x1459 JUMP JUMPDEST PUSH2 0x3CFD JUMP JUMPDEST SWAP5 PUSH2 0x864 JUMP JUMPDEST SWAP5 PUSH2 0x3879 PUSH2 0x37EF PUSH1 0x40 MLOAD SWAP1 JUMP JUMPDEST SUB SWAP1 LOG4 JUMP JUMPDEST PUSH2 0x3889 DUP6 DUP3 DUP11 PUSH2 0x27D8 JUMP JUMPDEST PUSH2 0x3847 JUMP JUMPDEST PUSH2 0x382 PUSH1 0x12 PUSH2 0xA82 JUMP JUMPDEST PUSH2 0x382 PUSH1 0x11 PUSH2 0xA82 JUMP JUMPDEST SWAP1 PUSH1 0x0 SWAP2 PUSH2 0x38B0 DUP3 DUP3 PUSH2 0x3D31 JUMP JUMPDEST SWAP3 SWAP1 SWAP2 PUSH1 0x0 SWAP5 PUSH2 0x38BF DUP7 PUSH2 0xA82 JUMP JUMPDEST DUP5 EQ PUSH2 0x39C5 JUMPI DUP4 DUP8 GT ISZERO PUSH2 0x3999 JUMPI DUP7 SWAP6 SWAP4 PUSH2 0x382 SWAP8 PUSH2 0x3909 SWAP5 PUSH2 0x391C SWAP8 SWAP5 PUSH1 0x1 SWAP5 POP MULMOD SWAP1 DUP4 DUP3 GT SWAP1 SUB SWAP3 SUB SWAP6 PUSH2 0x38F8 DUP2 PUSH2 0x34F7 DUP8 PUSH2 0xA82 JUMP JUMPDEST DUP2 AND DUP1 DUP1 DUP1 SWAP4 DIV SWAP9 DIV SWAP6 SUB DIV ADD MUL SWAP1 JUMP JUMPDEST OR SWAP2 PUSH2 0x391C PUSH2 0x3920 DUP3 PUSH2 0x391C PUSH1 0x3 PUSH2 0xA82 JUMP JUMPDEST MUL SWAP1 JUMP JUMPDEST PUSH2 0x34F7 PUSH2 0x3993 PUSH2 0x398D PUSH2 0x397E PUSH2 0x396F PUSH2 0x3960 PUSH2 0x3951 PUSH1 0x2 SWAP8 PUSH2 0x3941 DUP10 PUSH2 0xA82 JUMP JUMPDEST XOR PUSH2 0x391C DUP12 DUP3 MUL PUSH2 0x34F7 DUP12 PUSH2 0xA82 JUMP JUMPDEST PUSH2 0x391C DUP11 DUP3 MUL PUSH2 0x34F7 DUP11 PUSH2 0xA82 JUMP JUMPDEST PUSH2 0x391C DUP10 DUP3 MUL PUSH2 0x34F7 DUP10 PUSH2 0xA82 JUMP JUMPDEST PUSH2 0x391C DUP9 DUP3 MUL PUSH2 0x34F7 DUP9 PUSH2 0xA82 JUMP JUMPDEST PUSH2 0x391C DUP8 DUP3 MUL PUSH2 0x34F7 DUP8 PUSH2 0xA82 JUMP JUMPDEST DUP1 SWAP6 MUL SWAP1 JUMP JUMPDEST SWAP2 PUSH2 0xA82 JUMP JUMPDEST PUSH2 0x39C0 DUP8 PUSH2 0x39A9 PUSH2 0x1A01 DUP10 PUSH2 0xA82 JUMP JUMPDEST EQ PUSH2 0x39B2 PUSH2 0x388E JUMP JUMPDEST PUSH2 0x39BA PUSH2 0x3898 JUMP JUMPDEST SWAP2 PUSH2 0x3D45 JUMP JUMPDEST PUSH2 0x3D61 JUMP JUMPDEST POP POP POP POP PUSH2 0x382 SWAP3 SWAP2 POP PUSH2 0x2121 JUMP JUMPDEST PUSH4 0x4E487B71 PUSH1 0xE0 SHL PUSH1 0x0 MSTORE PUSH1 0x21 PUSH1 0x4 MSTORE PUSH1 0x24 PUSH1 0x0 REVERT JUMPDEST PUSH1 0x4 GT ISZERO PUSH2 0x39F4 JUMPI JUMP JUMPDEST PUSH2 0x39D4 JUMP JUMPDEST SWAP1 PUSH2 0x31C DUP3 PUSH2 0x39EA JUMP JUMPDEST PUSH2 0x382 SWAP1 PUSH2 0x39F9 JUMP JUMPDEST PUSH2 0x2678 SWAP1 PUSH1 0xFF AND PUSH2 0x13D5 JUMP JUMPDEST PUSH2 0x3A2D PUSH2 0x3A3D SWAP2 PUSH2 0x3A27 PUSH1 0x0 SWAP1 JUMP JUMPDEST POP PUSH2 0x3A03 JUMP JUMPDEST PUSH2 0x3A37 PUSH1 0x2 PUSH2 0x2683 JUMP JUMPDEST SWAP1 PUSH2 0x3A0C JUMP JUMPDEST PUSH2 0x32BC PUSH2 0x13D5 PUSH1 0x1 PUSH2 0x2683 JUMP JUMPDEST PUSH1 0x0 DUP2 EXTCODESIZE PUSH2 0x3A5A PUSH2 0x1A01 DUP4 PUSH2 0xA82 JUMP JUMPDEST EQ PUSH2 0x3A75 JUMPI SWAP1 PUSH2 0x31C SWAP2 PUSH2 0x3A6F PUSH2 0x382 PUSH2 0x1BA5 JUMP JUMPDEST ADD PUSH2 0xEB8 JUMP JUMPDEST PUSH4 0x4C9C8CE3 PUSH1 0xE0 SHL DUP2 MSTORE PUSH1 0x1 PUSH1 0x1 PUSH1 0xA0 SHL SUB SWAP2 SWAP1 SWAP2 AND PUSH1 0x4 DUP3 ADD MSTORE PUSH1 0x24 SWAP1 REVERT JUMPDEST PUSH1 0x0 PUSH2 0x3AA0 DUP2 PUSH2 0xA82 JUMP JUMPDEST CALLVALUE GT PUSH2 0x3AA9 JUMPI POP JUMP JUMPDEST PUSH4 0xB398979F PUSH1 0xE0 SHL DUP2 MSTORE PUSH1 0x4 SWAP1 REVERT JUMPDEST RETURNDATASIZE ISZERO PUSH2 0x3AD2 JUMPI PUSH2 0x3AC7 RETURNDATASIZE PUSH2 0xAD8 JUMP JUMPDEST SWAP1 RETURNDATASIZE PUSH1 0x0 PUSH1 0x20 DUP5 ADD RETURNDATACOPY JUMP JUMPDEST PUSH1 0x60 SWAP1 JUMP JUMPDEST PUSH1 0x0 DUP1 PUSH2 0x382 SWAP4 PUSH2 0x3AE6 PUSH1 0x60 SWAP1 JUMP JUMPDEST POP PUSH1 0x20 DUP2 MLOAD SWAP2 ADD DUP5 GAS DELEGATECALL PUSH2 0x3AF8 PUSH2 0x3AB8 JUMP JUMPDEST SWAP2 PUSH2 0x3D72 JUMP JUMPDEST PUSH2 0x382 PUSH1 0x0 PUSH2 0x3B0B PUSH2 0x2BE2 JUMP JUMPDEST ADD PUSH2 0x1C29 JUMP JUMPDEST PUSH2 0x382 PUSH2 0x382 PUSH2 0x382 SWAP3 PUSH1 0xFF AND SWAP1 JUMP JUMPDEST PUSH1 0x0 PUSH2 0x3B36 DUP2 SWAP3 PUSH2 0x3B30 PUSH1 0x0 SWAP1 JUMP JUMPDEST POP PUSH2 0x864 JUMP JUMPDEST PUSH1 0x40 MLOAD PUSH4 0x313CE567 PUSH1 0xE0 SHL PUSH1 0x20 DUP3 ADD MSTORE SWAP1 PUSH2 0x3B5F DUP3 PUSH1 0x24 DUP2 ADD JUMPDEST PUSH1 0x20 DUP3 ADD DUP2 SUB DUP3 MSTORE SUB DUP4 PUSH2 0x6F0 JUMP JUMPDEST PUSH1 0x20 DUP3 MLOAD SWAP3 ADD SWAP1 GAS STATICCALL PUSH2 0x3B70 PUSH2 0x3AB8 JUMP JUMPDEST SWAP1 DUP1 PUSH2 0x3BC1 JUMPI JUMPDEST PUSH2 0x3B8A JUMPI JUMPDEST POP PUSH1 0x0 SWAP1 PUSH2 0x382 PUSH1 0x0 PUSH2 0x2683 JUMP JUMPDEST DUP1 PUSH1 0x20 PUSH2 0x3B98 PUSH2 0x3BA3 SWAP4 MLOAD SWAP1 JUMP JUMPDEST DUP2 DUP4 ADD ADD SWAP2 ADD PUSH2 0x24A4 JUMP JUMPDEST PUSH2 0x3BAD PUSH1 0xFF PUSH2 0x3B11 JUMP JUMPDEST DUP2 GT PUSH2 0x3B7C JUMPI PUSH2 0x3BBC SWAP1 PUSH2 0x2683 JUMP JUMPDEST PUSH1 0x1 SWAP2 JUMP JUMPDEST POP DUP1 MLOAD PUSH2 0x3BD1 PUSH2 0x1A01 PUSH1 0x20 PUSH2 0xA82 JUMP JUMPDEST LT ISZERO PUSH2 0x3B77 JUMP JUMPDEST PUSH2 0x3BF1 PUSH2 0x3BEB PUSH2 0x382 SWAP3 PUSH4 0xFFFFFFFF AND SWAP1 JUMP JUMPDEST PUSH1 0xE0 SHL SWAP1 JUMP JUMPDEST PUSH1 0x1 PUSH1 0x1 PUSH1 0xE0 SHL SUB NOT AND SWAP1 JUMP JUMPDEST PUSH1 0x1 PUSH1 0x1 PUSH1 0xA0 SHL SUB SWAP2 DUP3 AND DUP2 MSTORE SWAP2 AND PUSH1 0x20 DUP3 ADD MSTORE PUSH1 0x60 DUP2 ADD SWAP3 SWAP2 PUSH2 0x31C SWAP2 PUSH1 0x40 ADD MSTORE JUMP JUMPDEST SWAP1 PUSH2 0x3C58 SWAP1 PUSH2 0x3B50 PUSH2 0x31C SWAP6 PUSH1 0x4 SWAP6 PUSH2 0x3C3E PUSH4 0x23B872DD PUSH2 0x3BD8 JUMP JUMPDEST SWAP4 PUSH2 0x3C48 PUSH1 0x40 MLOAD SWAP1 JUMP JUMPDEST SWAP8 DUP9 SWAP6 PUSH1 0x20 DUP8 ADD SWAP1 DUP2 MSTORE ADD PUSH2 0x3BFE JUMP JUMPDEST PUSH2 0x3DD1 JUMP JUMPDEST SWAP2 SWAP1 PUSH1 0x0 SWAP3 PUSH2 0x3C6B DUP5 PUSH2 0xF37 JUMP JUMPDEST PUSH1 0x1 PUSH1 0x1 PUSH1 0xA0 SHL SUB DUP2 AND PUSH1 0x1 PUSH1 0x1 PUSH1 0xA0 SHL SUB DUP4 AND EQ PUSH2 0x3C8F JUMPI PUSH2 0x31C SWAP4 SWAP5 POP PUSH2 0x3457 JUMP JUMPDEST PUSH4 0xEC442F05 PUSH1 0xE0 SHL DUP6 MSTORE PUSH1 0x1 PUSH1 0x1 PUSH1 0xA0 SHL SUB AND PUSH1 0x4 DUP6 ADD MSTORE PUSH1 0x24 DUP5 REVERT JUMPDEST SWAP2 SWAP1 PUSH1 0x0 SWAP3 PUSH2 0x3CBA DUP5 PUSH2 0xF37 JUMP JUMPDEST SWAP1 PUSH1 0x1 PUSH1 0x1 PUSH1 0xA0 SHL SUB DUP3 AND PUSH1 0x1 PUSH1 0x1 PUSH1 0xA0 SHL SUB DUP3 AND EQ PUSH2 0x3CDF JUMPI PUSH2 0x31C SWAP4 SWAP5 POP PUSH2 0x3457 JUMP JUMPDEST PUSH4 0x4B637E8F PUSH1 0xE1 SHL DUP6 MSTORE PUSH1 0x1 PUSH1 0x1 PUSH1 0xA0 SHL SUB DUP3 AND PUSH1 0x4 DUP7 ADD MSTORE PUSH1 0x24 DUP6 REVERT JUMPDEST PUSH2 0x3C58 PUSH1 0x4 SWAP3 PUSH2 0x3B50 PUSH2 0x31C SWAP6 PUSH2 0x3D17 PUSH4 0xA9059CBB PUSH2 0x3BD8 JUMP JUMPDEST SWAP3 PUSH2 0x3D21 PUSH1 0x40 MLOAD SWAP1 JUMP JUMPDEST SWAP7 DUP8 SWAP5 PUSH1 0x20 DUP7 ADD SWAP1 DUP2 MSTORE ADD PUSH2 0x340B JUMP JUMPDEST SWAP1 PUSH1 0x0 NOT DUP2 DUP4 MULMOD SWAP2 MUL SWAP1 DUP2 DUP1 DUP3 LT SWAP2 SUB SUB SWAP2 JUMP JUMPDEST PUSH2 0x391C DUP4 PUSH2 0x3D5D SWAP4 PUSH2 0x3D55 PUSH1 0x0 SWAP1 JUMP JUMPDEST POP XOR SWAP2 ISZERO ISZERO SWAP1 JUMP JUMPDEST XOR SWAP1 JUMP JUMPDEST PUSH4 0x4E487B71 PUSH1 0x0 MSTORE PUSH1 0x20 MSTORE PUSH1 0x24 PUSH1 0x1C REVERT JUMPDEST SWAP1 PUSH2 0x3D7D JUMPI POP PUSH2 0x3E68 JUMP JUMPDEST DUP2 MLOAD SWAP1 PUSH1 0x0 SWAP2 PUSH2 0x3D8F PUSH2 0x1A01 DUP5 PUSH2 0xA82 JUMP JUMPDEST EQ DUP1 PUSH2 0x3DBC JUMPI JUMPDEST PUSH2 0x3D9F JUMPI POP POP SWAP1 JUMP JUMPDEST PUSH4 0x9996B315 PUSH1 0xE0 SHL DUP3 MSTORE PUSH1 0x1 PUSH1 0x1 PUSH1 0xA0 SHL SUB AND PUSH1 0x4 DUP3 ADD MSTORE PUSH1 0x24 SWAP1 REVERT JUMPDEST POP DUP1 EXTCODESIZE PUSH2 0x3DCB PUSH2 0x1A01 DUP5 PUSH2 0xA82 JUMP JUMPDEST EQ PUSH2 0x3D96 JUMP JUMPDEST SWAP1 PUSH1 0x0 PUSH1 0x20 SWAP2 PUSH2 0x3DDF PUSH1 0x0 SWAP1 JUMP JUMPDEST POP DUP3 DUP2 MLOAD SWAP2 ADD DUP3 DUP6 GAS CALL ISZERO PUSH2 0x24B8 JUMPI RETURNDATASIZE SWAP1 PUSH1 0x0 MLOAD PUSH1 0x0 SWAP3 PUSH2 0x3E02 PUSH2 0x1A01 DUP6 PUSH2 0xA82 JUMP JUMPDEST SUB PUSH2 0x3E54 JUMPI POP PUSH2 0x3E11 DUP2 PUSH2 0x864 JUMP JUMPDEST EXTCODESIZE PUSH2 0x3E1E PUSH2 0x1A01 DUP5 PUSH2 0xA82 JUMP JUMPDEST EQ JUMPDEST PUSH2 0x3E28 JUMPI POP POP JUMP JUMPDEST PUSH2 0xF80 PUSH2 0x3E35 DUP4 SWAP3 PUSH2 0x864 JUMP JUMPDEST PUSH4 0x5274AFE7 PUSH1 0xE0 SHL DUP4 MSTORE PUSH1 0x1 PUSH1 0x1 PUSH1 0xA0 SHL SUB AND PUSH1 0x4 DUP4 ADD MSTORE PUSH1 0x24 DUP3 ADD SWAP1 JUMP JUMPDEST PUSH2 0x3E61 PUSH2 0x1A01 PUSH1 0x1 PUSH2 0xA82 JUMP JUMPDEST EQ ISZERO PUSH2 0x3E20 JUMP JUMPDEST DUP1 MLOAD PUSH1 0x0 SWAP1 PUSH2 0x3E79 PUSH2 0x1A01 DUP4 PUSH2 0xA82 JUMP JUMPDEST GT ISZERO PUSH2 0x3E88 JUMPI POP DUP1 MLOAD SWAP1 PUSH1 0x20 ADD REVERT JUMPDEST PUSH4 0xD6BDA275 PUSH1 0xE0 SHL DUP2 MSTORE PUSH1 0x4 SWAP1 REVERT INVALID MSTORE 0xC6 ORIGIN SELFBALANCE 0xE1 DELEGATECALL PUSH30 0xB19D5CE0460030C497F067CA4CEBF71BA98EEADABE20BACE0002DD7BC7DE 0xC4 0xDC 0xEE 0xDD 0xA7 PUSH22 0xE58DD541E08A116C6C53815C0BD028192F7B626800A4 SWAP9 SMOD KECCAK256 TLOAD 0xE4 0xD3 SSTORE MULMOD 0x2E CREATE2 0xA8 LOG1 DUP16 JUMP 0xE8 SWAP2 EXTCODECOPY DELEGATECALL LOG2 ADD 0xFB 0xE2 DUP8 DUP3 JUMPDEST MULMOD JUMP SWAP4 0xC2 OR PUSH22 0xA26469706673582212206E92D7729017E333833B976C BALANCE DUP5 0xCD SUB 0x2A CREATE2 0xDC DUP3 0xE4 CREATE PUSH21 0x119272BB149696093C64736F6C634300081B003300 "},"methodIdentifiers":{"ADMIN_ROLE()":"75b238fc","DEFAULT_ADMIN_ROLE()":"a217fddf","EMERGENCY_ROLE()":"20df4359","UPGRADER_ROLE()":"f72c0d8b","UPGRADE_INTERFACE_VERSION()":"ad3cb1cc","allowance(address,address)":"dd62ed3e","approve(address,uint256)":"095ea7b3","asset()":"38d52e0f","assetPriceFeeds(address)":"d27e52e8","balanceOf(address)":"70a08231","convertToAssets(uint256)":"07a2d13a","convertToShares(uint256)":"c6e6f592","decimals()":"313ce567","deposit(uint256,address)":"6e553f65","generateMemo()":"1e8b3d19","getRoleAdmin(bytes32)":"248a9ca3","grantRole(bytes32,address)":"2f2ff15d","hasRole(bytes32,address)":"91d14854","initialize(address,string,string,address)":"613d25bb","kycService()":"466143fc","maxDeposit(address)":"402d267d","maxMint(address)":"c63d75b6","maxRedeem(address)":"d905777e","maxWithdraw(address)":"ce96cb77","mint(uint256,address)":"94bf804d","name()":"06fdde03","pause()":"8456cb59","paused()":"5c975abb","previewDeposit(uint256)":"ef8b30f7","previewMint(uint256)":"b3d7f6b9","previewRedeem(uint256)":"4cdad506","previewWithdraw(uint256)":"0a28a477","proxiableUUID()":"52d1902d","redeem(uint256,address,address)":"ba087652","register(string,string)":"3ffbd47f","renounceRole(bytes32,address)":"36568abe","revokeRole(bytes32,address)":"d547741f","setKYCService(address)":"19b02d99","setPriceFeed(address,address)":"76e11286","supportsInterface(bytes4)":"01ffc9a7","symbol()":"95d89b41","totalAssets()":"01e1d114","totalSupply()":"18160ddd","transfer(address,uint256)":"a9059cbb","transferFrom(address,address,uint256)":"23b872dd","unpause()":"3f4ba83a","upgradeToAndCall(address,bytes)":"4f1ef286","withdraw(uint256,address,address)":"b460af94"}},"storageLayout":{"storage":[{"astId":8849,"contract":"contracts/vault/NooriVault.sol:NooriVault","label":"lastInterestUpdate","offset":0,"slot":"0","type":"t_uint256"},{"astId":8851,"contract":"contracts/vault/NooriVault.sol:NooriVault","label":"totalInterestAccrued","offset":0,"slot":"1","type":"t_uint256"},{"astId":8853,"contract":"contracts/vault/NooriVault.sol:NooriVault","label":"accountIdCounter","offset":0,"slot":"2","type":"t_uint256"},{"astId":8855,"contract":"contracts/vault/NooriVault.sol:NooriVault","label":"transactionCounter","offset":0,"slot":"3","type":"t_uint256"},{"astId":8858,"contract":"contracts/vault/NooriVault.sol:NooriVault","label":"kycService","offset":0,"slot":"4","type":"t_contract(IDidItMe)9783"},{"astId":8863,"contract":"contracts/vault/NooriVault.sol:NooriVault","label":"accounts","offset":0,"slot":"5","type":"t_mapping(t_address,t_struct(Account)8828_storage)"},{"astId":8867,"contract":"contracts/vault/NooriVault.sol:NooriVault","label":"memoToAccount","offset":0,"slot":"6","type":"t_mapping(t_string_memory_ptr,t_address)"},{"astId":8872,"contract":"contracts/vault/NooriVault.sol:NooriVault","label":"assetPriceFeeds","offset":0,"slot":"7","type":"t_mapping(t_address,t_contract(AggregatorV3Interface)45)"},{"astId":8876,"contract":"contracts/vault/NooriVault.sol:NooriVault","label":"transactionRecords","offset":0,"slot":"8","type":"t_array(t_struct(TransactionHistory)8847_storage)dyn_storage"}],"types":{"t_address":{"encoding":"inplace","label":"address","numberOfBytes":"20"},"t_array(t_string_storage)dyn_storage":{"base":"t_string_storage","encoding":"dynamic_array","label":"string[]","numberOfBytes":"32"},"t_array(t_struct(TransactionHistory)8847_storage)dyn_storage":{"base":"t_struct(TransactionHistory)8847_storage","encoding":"dynamic_array","label":"struct NooriVault.TransactionHistory[]","numberOfBytes":"32"},"t_bool":{"encoding":"inplace","label":"bool","numberOfBytes":"1"},"t_bytes32":{"encoding":"inplace","label":"bytes32","numberOfBytes":"32"},"t_contract(AggregatorV3Interface)45":{"encoding":"inplace","label":"contract AggregatorV3Interface","numberOfBytes":"20"},"t_contract(IDidItMe)9783":{"encoding":"inplace","label":"contract IDidItMe","numberOfBytes":"20"},"t_mapping(t_address,t_contract(AggregatorV3Interface)45)":{"encoding":"mapping","key":"t_address","label":"mapping(address => contract AggregatorV3Interface)","numberOfBytes":"32","value":"t_contract(AggregatorV3Interface)45"},"t_mapping(t_address,t_struct(Account)8828_storage)":{"encoding":"mapping","key":"t_address","label":"mapping(address => struct NooriVault.Account)","numberOfBytes":"32","value":"t_struct(Account)8828_storage"},"t_mapping(t_string_memory_ptr,t_address)":{"encoding":"mapping","key":"t_string_memory_ptr","label":"mapping(string => address)","numberOfBytes":"32","value":"t_address"},"t_string_memory_ptr":{"encoding":"bytes","label":"string","numberOfBytes":"32"},"t_string_storage":{"encoding":"bytes","label":"string","numberOfBytes":"32"},"t_struct(Account)8828_storage":{"encoding":"inplace","label":"struct NooriVault.Account","members":[{"astId":8812,"contract":"contracts/vault/NooriVault.sol:NooriVault","label":"id","offset":0,"slot":"0","type":"t_uint256"},{"astId":8814,"contract":"contracts/vault/NooriVault.sol:NooriVault","label":"wallet","offset":0,"slot":"1","type":"t_address"},{"astId":8816,"contract":"contracts/vault/NooriVault.sol:NooriVault","label":"masterPasswordHash","offset":0,"slot":"2","type":"t_bytes32"},{"astId":8818,"contract":"contracts/vault/NooriVault.sol:NooriVault","label":"recoveryKeyHash","offset":0,"slot":"3","type":"t_bytes32"},{"astId":8821,"contract":"contracts/vault/NooriVault.sol:NooriVault","label":"memos","offset":0,"slot":"4","type":"t_array(t_string_storage)dyn_storage"},{"astId":8823,"contract":"contracts/vault/NooriVault.sol:NooriVault","label":"lastInterestTimestamp","offset":0,"slot":"5","type":"t_uint256"},{"astId":8825,"contract":"contracts/vault/NooriVault.sol:NooriVault","label":"kycVerified","offset":0,"slot":"6","type":"t_bool"},{"astId":8827,"contract":"contracts/vault/NooriVault.sol:NooriVault","label":"totalTransactionVolume","offset":0,"slot":"7","type":"t_uint256"}],"numberOfBytes":"256"},"t_struct(TransactionHistory)8847_storage":{"encoding":"inplace","label":"struct NooriVault.TransactionHistory","members":[{"astId":8830,"contract":"contracts/vault/NooriVault.sol:NooriVault","label":"id","offset":0,"slot":"0","type":"t_uint256"},{"astId":8832,"contract":"contracts/vault/NooriVault.sol:NooriVault","label":"wallet","offset":0,"slot":"1","type":"t_address"},{"astId":8834,"contract":"contracts/vault/NooriVault.sol:NooriVault","label":"memo","offset":0,"slot":"2","type":"t_string_storage"},{"astId":8836,"contract":"contracts/vault/NooriVault.sol:NooriVault","label":"to","offset":0,"slot":"3","type":"t_address"},{"astId":8838,"contract":"contracts/vault/NooriVault.sol:NooriVault","label":"from","offset":0,"slot":"4","type":"t_address"},{"astId":8840,"contract":"contracts/vault/NooriVault.sol:NooriVault","label":"txType","offset":0,"slot":"5","type":"t_string_storage"},{"astId":8842,"contract":"contracts/vault/NooriVault.sol:NooriVault","label":"asset","offset":0,"slot":"6","type":"t_string_storage"},{"astId":8844,"contract":"contracts/vault/NooriVault.sol:NooriVault","label":"timestamp","offset":0,"slot":"7","type":"t_string_storage"},{"astId":8846,"contract":"contracts/vault/NooriVault.sol:NooriVault","label":"amount","offset":0,"slot":"8","type":"t_uint256"}],"numberOfBytes":"288"},"t_uint256":{"encoding":"inplace","label":"uint256","numberOfBytes":"32"}}}}}}