{"contracts/token/NooriToken.sol":{"NooriToken":{"abi":[{"inputs":[],"stateMutability":"nonpayable","type":"constructor"},{"inputs":[],"name":"AccessControlBadConfirmation","type":"error"},{"inputs":[{"internalType":"address","name":"account","type":"address"},{"internalType":"bytes32","name":"neededRole","type":"bytes32"}],"name":"AccessControlUnauthorizedAccount","type":"error"},{"inputs":[{"internalType":"address","name":"target","type":"address"}],"name":"AddressEmptyCode","type":"error"},{"inputs":[{"internalType":"address","name":"implementation","type":"address"}],"name":"ERC1967InvalidImplementation","type":"error"},{"inputs":[],"name":"ERC1967NonPayable","type":"error"},{"inputs":[{"internalType":"address","name":"spender","type":"address"},{"internalType":"uint256","name":"allowance","type":"uint256"},{"internalType":"uint256","name":"needed","type":"uint256"}],"name":"ERC20InsufficientAllowance","type":"error"},{"inputs":[{"internalType":"address","name":"sender","type":"address"},{"internalType":"uint256","name":"balance","type":"uint256"},{"internalType":"uint256","name":"needed","type":"uint256"}],"name":"ERC20InsufficientBalance","type":"error"},{"inputs":[{"internalType":"address","name":"approver","type":"address"}],"name":"ERC20InvalidApprover","type":"error"},{"inputs":[{"internalType":"address","name":"receiver","type":"address"}],"name":"ERC20InvalidReceiver","type":"error"},{"inputs":[{"internalType":"address","name":"sender","type":"address"}],"name":"ERC20InvalidSender","type":"error"},{"inputs":[{"internalType":"address","name":"spender","type":"address"}],"name":"ERC20InvalidSpender","type":"error"},{"inputs":[],"name":"EnforcedPause","type":"error"},{"inputs":[],"name":"ExpectedPause","type":"error"},{"inputs":[],"name":"FailedCall","type":"error"},{"inputs":[],"name":"InvalidInitialization","type":"error"},{"inputs":[],"name":"NotInitializing","type":"error"},{"inputs":[{"internalType":"address","name":"owner","type":"address"}],"name":"OwnableInvalidOwner","type":"error"},{"inputs":[{"internalType":"address","name":"account","type":"address"}],"name":"OwnableUnauthorizedAccount","type":"error"},{"inputs":[],"name":"UUPSUnauthorizedCallContext","type":"error"},{"inputs":[{"internalType":"bytes32","name":"slot","type":"bytes32"}],"name":"UUPSUnsupportedProxiableUUID","type":"error"},{"anonymous":false,"inputs":[{"indexed":true,"internalType":"address","name":"account","type":"address"}],"name":"AccountFrozen","type":"event"},{"anonymous":false,"inputs":[{"indexed":true,"internalType":"address","name":"account","type":"address"}],"name":"AccountUnfrozen","type":"event"},{"anonymous":false,"inputs":[{"indexed":true,"internalType":"address","name":"admin","type":"address"}],"name":"AdminUpdated","type":"event"},{"anonymous":false,"inputs":[{"indexed":true,"internalType":"address","name":"owner","type":"address"},{"indexed":true,"internalType":"address","name":"spender","type":"address"},{"indexed":false,"internalType":"uint256","name":"value","type":"uint256"}],"name":"Approval","type":"event"},{"anonymous":false,"inputs":[{"indexed":true,"internalType":"address","name":"bridge","type":"address"},{"indexed":false,"internalType":"bool","name":"status","type":"bool"}],"name":"BridgeAuthorized","type":"event"},{"anonymous":false,"inputs":[{"indexed":false,"internalType":"uint64","name":"version","type":"uint64"}],"name":"Initialized","type":"event"},{"anonymous":false,"inputs":[{"indexed":true,"internalType":"address","name":"to","type":"address"},{"indexed":false,"internalType":"uint256","name":"amount","type":"uint256"}],"name":"Mint","type":"event"},{"anonymous":false,"inputs":[{"indexed":true,"internalType":"address","name":"minter","type":"address"},{"indexed":false,"internalType":"bool","name":"status","type":"bool"}],"name":"MinterUpdated","type":"event"},{"anonymous":false,"inputs":[{"indexed":true,"internalType":"address","name":"previousOwner","type":"address"},{"indexed":true,"internalType":"address","name":"newOwner","type":"address"}],"name":"OwnershipTransferred","type":"event"},{"anonymous":false,"inputs":[{"indexed":false,"internalType":"address","name":"account","type":"address"}],"name":"Pause","type":"event"},{"anonymous":false,"inputs":[{"indexed":false,"internalType":"address","name":"account","type":"address"}],"name":"Paused","type":"event"},{"anonymous":false,"inputs":[{"indexed":true,"internalType":"address","name":"pauser","type":"address"},{"indexed":false,"internalType":"bool","name":"status","type":"bool"}],"name":"PauserUpdated","type":"event"},{"anonymous":false,"inputs":[{"indexed":true,"internalType":"bytes32","name":"role","type":"bytes32"},{"indexed":true,"internalType":"bytes32","name":"previousAdminRole","type":"bytes32"},{"indexed":true,"internalType":"bytes32","name":"newAdminRole","type":"bytes32"}],"name":"RoleAdminChanged","type":"event"},{"anonymous":false,"inputs":[{"indexed":true,"internalType":"bytes32","name":"role","type":"bytes32"},{"indexed":true,"internalType":"address","name":"account","type":"address"},{"indexed":true,"internalType":"address","name":"sender","type":"address"}],"name":"RoleGranted","type":"event"},{"anonymous":false,"inputs":[{"indexed":true,"internalType":"bytes32","name":"role","type":"bytes32"},{"indexed":true,"internalType":"address","name":"account","type":"address"},{"indexed":true,"internalType":"address","name":"sender","type":"address"}],"name":"RoleRevoked","type":"event"},{"anonymous":false,"inputs":[{"indexed":true,"internalType":"address","name":"from","type":"address"},{"indexed":false,"internalType":"uint256","name":"amount","type":"uint256"},{"indexed":false,"internalType":"string","name":"targetChain","type":"string"},{"indexed":false,"internalType":"address","name":"targetAddress","type":"address"}],"name":"TokensBurned","type":"event"},{"anonymous":false,"inputs":[{"indexed":true,"internalType":"address","name":"to","type":"address"},{"indexed":false,"internalType":"uint256","name":"amount","type":"uint256"},{"indexed":false,"internalType":"string","name":"sourceChain","type":"string"},{"indexed":false,"internalType":"bytes32","name":"transactionHash","type":"bytes32"}],"name":"TokensMinted","type":"event"},{"anonymous":false,"inputs":[{"indexed":true,"internalType":"address","name":"from","type":"address"},{"indexed":true,"internalType":"address","name":"to","type":"address"},{"indexed":false,"internalType":"uint256","name":"value","type":"uint256"}],"name":"Transfer","type":"event"},{"anonymous":false,"inputs":[{"indexed":false,"internalType":"address","name":"account","type":"address"}],"name":"Unpause","type":"event"},{"anonymous":false,"inputs":[{"indexed":false,"internalType":"address","name":"account","type":"address"}],"name":"Unpaused","type":"event"},{"anonymous":false,"inputs":[{"indexed":true,"internalType":"address","name":"implementation","type":"address"}],"name":"Upgraded","type":"event"},{"inputs":[],"name":"ADMIN_ROLE","outputs":[{"internalType":"bytes32","name":"","type":"bytes32"}],"stateMutability":"view","type":"function"},{"inputs":[],"name":"BLACKLISTER_ROLE","outputs":[{"internalType":"bytes32","name":"","type":"bytes32"}],"stateMutability":"view","type":"function"},{"inputs":[],"name":"BRIDGE_ROLE","outputs":[{"internalType":"bytes32","name":"","type":"bytes32"}],"stateMutability":"view","type":"function"},{"inputs":[],"name":"DEFAULT_ADMIN_ROLE","outputs":[{"internalType":"bytes32","name":"","type":"bytes32"}],"stateMutability":"view","type":"function"},{"inputs":[],"name":"MINTER_ROLE","outputs":[{"internalType":"bytes32","name":"","type":"bytes32"}],"stateMutability":"view","type":"function"},{"inputs":[],"name":"PAUSER_ROLE","outputs":[{"internalType":"bytes32","name":"","type":"bytes32"}],"stateMutability":"view","type":"function"},{"inputs":[],"name":"UPGRADER_ROLE","outputs":[{"internalType":"bytes32","name":"","type":"bytes32"}],"stateMutability":"view","type":"function"},{"inputs":[],"name":"UPGRADE_INTERFACE_VERSION","outputs":[{"internalType":"string","name":"","type":"string"}],"stateMutability":"view","type":"function"},{"inputs":[{"internalType":"address","name":"owner","type":"address"},{"internalType":"address","name":"spender","type":"address"}],"name":"allowance","outputs":[{"internalType":"uint256","name":"","type":"uint256"}],"stateMutability":"view","type":"function"},{"inputs":[{"internalType":"address","name":"spender","type":"address"},{"internalType":"uint256","name":"value","type":"uint256"}],"name":"approve","outputs":[{"internalType":"bool","name":"","type":"bool"}],"stateMutability":"nonpayable","type":"function"},{"inputs":[{"internalType":"address","name":"","type":"address"}],"name":"authorized_bridges","outputs":[{"internalType":"bool","name":"","type":"bool"}],"stateMutability":"view","type":"function"},{"inputs":[{"internalType":"address","name":"account","type":"address"}],"name":"balanceOf","outputs":[{"internalType":"uint256","name":"","type":"uint256"}],"stateMutability":"view","type":"function"},{"inputs":[{"internalType":"address","name":"account","type":"address"}],"name":"blacklist","outputs":[],"stateMutability":"nonpayable","type":"function"},{"inputs":[{"internalType":"address","name":"","type":"address"}],"name":"blacklisted","outputs":[{"internalType":"bool","name":"","type":"bool"}],"stateMutability":"view","type":"function"},{"inputs":[{"internalType":"uint256","name":"value","type":"uint256"}],"name":"burn","outputs":[],"stateMutability":"nonpayable","type":"function"},{"inputs":[{"internalType":"address","name":"from","type":"address"},{"internalType":"uint256","name":"amount","type":"uint256"}],"name":"burnFrom","outputs":[],"stateMutability":"nonpayable","type":"function"},{"inputs":[],"name":"currency","outputs":[{"internalType":"string","name":"","type":"string"}],"stateMutability":"view","type":"function"},{"inputs":[],"name":"decimals","outputs":[{"internalType":"uint8","name":"","type":"uint8"}],"stateMutability":"view","type":"function"},{"inputs":[{"internalType":"address","name":"account","type":"address"}],"name":"freezeAccount","outputs":[],"stateMutability":"nonpayable","type":"function"},{"inputs":[{"internalType":"bytes32","name":"role","type":"bytes32"}],"name":"getRoleAdmin","outputs":[{"internalType":"bytes32","name":"","type":"bytes32"}],"stateMutability":"view","type":"function"},{"inputs":[{"internalType":"bytes32","name":"role","type":"bytes32"},{"internalType":"address","name":"account","type":"address"}],"name":"grantRole","outputs":[],"stateMutability":"nonpayable","type":"function"},{"inputs":[{"internalType":"bytes32","name":"role","type":"bytes32"},{"internalType":"address","name":"account","type":"address"}],"name":"hasRole","outputs":[{"internalType":"bool","name":"","type":"bool"}],"stateMutability":"view","type":"function"},{"inputs":[],"name":"initialize","outputs":[],"stateMutability":"nonpayable","type":"function"},{"inputs":[{"internalType":"address","name":"account","type":"address"}],"name":"isFrozen","outputs":[{"internalType":"bool","name":"","type":"bool"}],"stateMutability":"view","type":"function"},{"inputs":[{"internalType":"address","name":"to","type":"address"},{"internalType":"uint256","name":"amount","type":"uint256"}],"name":"mint","outputs":[],"stateMutability":"nonpayable","type":"function"},{"inputs":[{"internalType":"address","name":"to","type":"address"},{"internalType":"uint256","name":"amount","type":"uint256"}],"name":"mintTo","outputs":[{"internalType":"bool","name":"","type":"bool"}],"stateMutability":"nonpayable","type":"function"},{"inputs":[],"name":"name","outputs":[{"internalType":"string","name":"","type":"string"}],"stateMutability":"view","type":"function"},{"inputs":[],"name":"owner","outputs":[{"internalType":"address","name":"","type":"address"}],"stateMutability":"view","type":"function"},{"inputs":[],"name":"pause","outputs":[],"stateMutability":"nonpayable","type":"function"},{"inputs":[],"name":"paused","outputs":[{"internalType":"bool","name":"","type":"bool"}],"stateMutability":"view","type":"function"},{"inputs":[],"name":"proxiableUUID","outputs":[{"internalType":"bytes32","name":"","type":"bytes32"}],"stateMutability":"view","type":"function"},{"inputs":[],"name":"renounceOwnership","outputs":[],"stateMutability":"nonpayable","type":"function"},{"inputs":[{"internalType":"bytes32","name":"role","type":"bytes32"},{"internalType":"address","name":"callerConfirmation","type":"address"}],"name":"renounceRole","outputs":[],"stateMutability":"nonpayable","type":"function"},{"inputs":[{"internalType":"bytes32","name":"role","type":"bytes32"},{"internalType":"address","name":"account","type":"address"}],"name":"revokeRole","outputs":[],"stateMutability":"nonpayable","type":"function"},{"inputs":[{"internalType":"address","name":"newAdmin","type":"address"}],"name":"setAdmin","outputs":[],"stateMutability":"nonpayable","type":"function"},{"inputs":[{"internalType":"address","name":"bridge","type":"address"},{"internalType":"bool","name":"status","type":"bool"}],"name":"setBridge","outputs":[],"stateMutability":"nonpayable","type":"function"},{"inputs":[{"internalType":"address","name":"minter","type":"address"},{"internalType":"bool","name":"status","type":"bool"}],"name":"setMinter","outputs":[],"stateMutability":"nonpayable","type":"function"},{"inputs":[{"internalType":"address","name":"pauser","type":"address"},{"internalType":"bool","name":"status","type":"bool"}],"name":"setPauser","outputs":[],"stateMutability":"nonpayable","type":"function"},{"inputs":[{"internalType":"bytes4","name":"interfaceId","type":"bytes4"}],"name":"supportsInterface","outputs":[{"internalType":"bool","name":"","type":"bool"}],"stateMutability":"view","type":"function"},{"inputs":[],"name":"symbol","outputs":[{"internalType":"string","name":"","type":"string"}],"stateMutability":"view","type":"function"},{"inputs":[],"name":"totalSupply","outputs":[{"internalType":"uint256","name":"","type":"uint256"}],"stateMutability":"view","type":"function"},{"inputs":[{"internalType":"address","name":"to","type":"address"},{"internalType":"uint256","name":"value","type":"uint256"}],"name":"transfer","outputs":[{"internalType":"bool","name":"","type":"bool"}],"stateMutability":"nonpayable","type":"function"},{"inputs":[{"internalType":"address","name":"from","type":"address"},{"internalType":"address","name":"to","type":"address"},{"internalType":"uint256","name":"value","type":"uint256"}],"name":"transferFrom","outputs":[{"internalType":"bool","name":"","type":"bool"}],"stateMutability":"nonpayable","type":"function"},{"inputs":[{"internalType":"address","name":"newOwner","type":"address"}],"name":"transferOwnership","outputs":[],"stateMutability":"nonpayable","type":"function"},{"inputs":[{"internalType":"address","name":"account","type":"address"}],"name":"unblacklist","outputs":[],"stateMutability":"nonpayable","type":"function"},{"inputs":[{"internalType":"address","name":"account","type":"address"}],"name":"unfreezeAccount","outputs":[],"stateMutability":"nonpayable","type":"function"},{"inputs":[],"name":"unpause","outputs":[],"stateMutability":"nonpayable","type":"function"},{"inputs":[{"internalType":"address","name":"newImplementation","type":"address"},{"internalType":"bytes","name":"data","type":"bytes"}],"name":"upgradeToAndCall","outputs":[],"stateMutability":"payable","type":"function"}],"evm":{"bytecode":{"linkReferences":{},"object":"60a06040523461003257610011610037565b604051612c706101e98239608051818181611fbd01526121780152612c7090f35b600080fd5b61003f610049565b61004761010a565b565b610047610086565b61006590610068906001600160a01b031682565b90565b6001600160a01b031690565b61006590610051565b61006590610074565b61008f3061007d565b608052565b6100659060401c60ff1690565b6100659054610094565b610065905b6001600160401b031690565b61006590546100ab565b610065906100b0906001600160401b031682565b906100ea610065610106926100c6565b82546001600160401b0319166001600160401b03919091161790565b9055565b60006101146101a2565b0161011e816100a1565b6101905761012b816100bc565b6001600160401b0391908290811603610142575050565b816101717fc7f505b2f371ae2175ee4913f4499e1f2633a7b5936321eed1cdaeb6115181d29361018b936100da565b604051918291826001600160401b03909116815260200190565b0390a1565b63f92ee8a960e01b6000908152600490fd5b6100656101e0565b6100656100656100659290565b6100657ff0c57e16840df040f15088dc2f81fe391c3923bec73e23a9662efc9c229c6a006101aa565b6100656101b756fe6080604052600436101561001257600080fd5b60003560e01c806301ffc9a71461031257806306fdde031461030d578063095ea7b31461030857806317a1b5701461030357806318160ddd146102fe57806323b872dd146102f9578063248a9ca3146102f45780632f2ff15d146102ef578063313ce567146102ea57806336568abe146102e55780633f4ba83a146102e057806340c10f19146102db57806342966c68146102d6578063449a52f8146102d15780634f1ef286146102cc57806352d1902d146102c75780635c975abb146102c2578063704b6c02146102bd57806370a08231146102b8578063715018a6146102b35780637180c8ca146102ae57806375b238fc146102a957806375e3661e146102a4578063788649ea1461029f57806379cc67901461029a5780638129fc1c146102955780638456cb59146102905780638da5cb5b1461028b57806391d148541461028657806395d89b4114610281578063a217fddf1461027c578063a9059cbb14610277578063ad3cb1cc14610272578063b5bfddea1461026d578063cf456ae714610268578063d539139314610263578063d547741f1461025e578063dbac26e914610259578063dd62ed3e14610254578063e58398361461024f578063e5a6b10f1461024a578063e63ab1e914610245578063e7109b5f14610240578063f26c159f1461023b578063f2fde38b14610236578063f515e6f214610231578063f72c0d8b1461022c5763f9f92be40361032a57610d7e565b610d45565b610d1e565b610d06565b610cee565b610cd5565b610cae565b610c93565b610b52565b610b36565b610aff565b610ad6565b610aaf565b610a96565b610a6f565b610a54565b6109f3565b6109d8565b61099e565b610982565b61094d565b610935565b61091d565b610904565b6108ec565b6108d4565b6108ad565b610894565b610844565b610829565b610811565b6107f6565b6107db565b6107c7565b6106b1565b610699565b610680565b610668565b61064f565b610620565b610602565b6105c4565b610594565b61053f565b610524565b610487565b610402565b610359565b6001600160e01b031981165b0361032a57565b600080fd5b9050359061033c82610317565b565b9060208282031261032a576103529161032f565b90565b9052565b3461032a5761038761037461036f36600461033e565b610d96565b6040515b91829182901515815260200190565b0390f35b600091031261032a57565b60005b8381106103a95750506000910152565b8181015183820152602001610399565b6103da6103e36020936103ed936103ce815190565b80835293849260200190565b95869101610396565b601f01601f191690565b0190565b6020808252610352929101906103b9565b3461032a5761041236600461038b565b61038761041d610dd3565b604051918291826103f1565b6001600160a01b031690565b6001600160a01b038116610323565b9050359061033c82610435565b80610323565b9050359061033c82610451565b919060408382031261032a576103529060206104808286610444565b9401610457565b3461032a5761038761037461049d366004610464565b90610dee565b9060208282031261032a5761035291610444565b61035290610429906001600160a01b031682565b610352906104b7565b610352906104cb565b906104e7906104d4565b600052602052604060002090565b610352916008021c5b60ff1690565b9061035291546104f5565b600061051f6103529260026104dd565b610504565b3461032a5761038761037461053a3660046104a3565b61050f565b3461032a5761054f36600461038b565b61038761055a610e0f565b6040515b9182918290815260200190565b909160608284031261032a576103526105848484610444565b9360406104808260208701610444565b3461032a576103876103746105aa36600461056b565b91610e2a565b9060208282031261032a5761035291610457565b3461032a5761038761055a6105da3660046105b0565b610e47565b919060408382031261032a576103529060206105fb8286610457565b9401610444565b3461032a5761061b6106153660046105df565b90610e94565b604051005b3461032a5761063036600461038b565b61038761063b610eab565b6040519182918260ff909116815260200190565b3461032a5761061b6106623660046105df565b90610eb5565b3461032a5761067836600461038b565b61061b610f46565b3461032a5761061b610693366004610464565b906110bd565b3461032a5761061b6106ac3660046105b0565b6110c7565b3461032a576103876103746106c7366004610464565b906111b5565b634e487b7160e01b600052604160045260246000fd5b90601f01601f1916810190811067ffffffffffffffff82111761070557604052565b6106cd565b9061033c61071760405190565b92836106e3565b67ffffffffffffffff811161070557602090601f01601f19160190565b90826000939282370152565b9092919261075c6107578261071e565b61070a565b938185528183011161032a5761033c91602085019061073b565b9080601f8301121561032a5781602061035293359101610747565b91909160408184031261032a576107a88382610444565b92602082013567ffffffffffffffff811161032a576103529201610776565b61061b6107d5366004610791565b906111e1565b3461032a576107eb36600461038b565b61038761055a61122e565b3461032a5761080636600461038b565b610387610374611238565b3461032a5761061b6108243660046104a3565b6112c9565b3461032a5761038761055a61083f3660046104a3565b6112d2565b3461032a5761085436600461038b565b61061b61131c565b801515610323565b9050359061033c8261085c565b919060408382031261032a5761035290602061088d8286610444565b9401610864565b3461032a5761061b6108a7366004610871565b906113aa565b3461032a576108bd36600461038b565b610387600080516020612c1b83398151915261055a565b3461032a5761061b6108e73660046104a3565b611413565b3461032a5761061b6108ff3660046104a3565b611475565b3461032a5761061b610917366004610464565b906114d1565b3461032a5761092d36600461038b565b61061b6118ea565b3461032a5761094536600461038b565b61061b61193e565b3461032a5761095d36600461038b565b610387610968611959565b604051918291826001600160a01b03909116815260200190565b3461032a576103876103746109983660046105df565b90611986565b3461032a576109ae36600461038b565b61038761041d6119b1565b6103526103526103529290565b61035260006109b9565b6103526109c6565b3461032a576109e836600461038b565b61038761055a6109d0565b3461032a57610387610374610a09366004610464565b906119ca565b90610a1c6107578361071e565b918252565b610a2b6005610a0f565b640352e302e360dc1b602082015290565b610352610a21565b610352610a3c565b610352610a44565b3461032a57610a6436600461038b565b61038761041d610a4c565b3461032a57610a7f36600461038b565b610387600080516020612bfb83398151915261055a565b3461032a5761061b610aa9366004610871565b90611a51565b3461032a57610abf36600461038b565b610387600080516020612b9b83398151915261055a565b3461032a5761061b610ae93660046105df565b90611a76565b600061051f6103529260016104dd565b3461032a57610387610374610b153660046104a3565b610aef565b919060408382031261032a576103529060206105fb8286610444565b3461032a5761038761055a610b4c366004610b1a565b90611a80565b3461032a57610387610374610b683660046104a3565b611aaf565b634e487b7160e01b600052600060045260246000fd5b634e487b7160e01b600052602260045260246000fd5b9060016002830492168015610bb9575b6020831014610bb457565b610b83565b91607f1691610ba9565b80546000939291610be0610bd683610b99565b8085529360200190565b9160018116908115610c325750600114610bf957505050565b610c0c9192939450600052602060002090565b916000925b818410610c1e5750500190565b805484840152602090930192600101610c11565b92949550505060ff1916825215156020020190565b9061035291610bc3565b9061033c610c6b92610c6260405190565b93848092610c47565b03836106e3565b90600010610c835761035290610c51565b610b6d565b610352600080610c72565b3461032a57610ca336600461038b565b61038761041d610c88565b3461032a57610cbe36600461038b565b610387600080516020612b7b83398151915261055a565b3461032a5761061b610ce8366004610871565b90611b59565b3461032a5761061b610d013660046104a3565b611bbc565b3461032a5761061b610d193660046104a3565b611c1d565b3461032a57610d2e36600461038b565b610387600080516020612bbb83398151915261055a565b3461032a57610d5536600461038b565b6103877f189ab7a9244df0848122154315af71fe140f3db0fe014031783b0946b8c9d2e361055a565b3461032a5761061b610d913660046104a3565b611c50565b610d9f81611c59565b908115610daa575090565b9050610dc66336372b0760e01b5b916001600160e01b03191690565b1490565b61035290610c51565b6103526003600080516020612b5b8339815191525b01610dca565b610df9919033611c82565b600190565b6103529081565b6103529054610dfe565b6103526002600080516020612b5b8339815191525b01610e05565b610df9929190610e3c83335b83611cba565b611d15565b906104e7565b6001610e2461035292610e58600090565b506000600080516020612bdb8339815191525b01610e41565b9061033c91610e87610e8282610e47565b611da1565b90610e9191611dac565b50565b9061033c91610e71565b6104fe6103526103529290565b6103526012610e9e565b90610ebf33610429565b6001600160a01b03821603610ed757610e9191611e3a565b63334bd91960e11b600090815260045b036000fd5b610f03600080516020612b7b833981519152611da1565b61033c610f0e611f0a565b7faeb196d352664784d1900b0e7414a8face7d29f4dae8c4b0cf68ed477423bbf4610f3860405190565b33815280602081015b0390a1565b61033c610eec565b61033c9190610f6a600080516020612b9b833981519152611da1565b611041565b6104296103526103529290565b61035290610f6f565b15610f8c57565b60405162461bcd60e51b8152602060048201526024808201527f4e6f6f7269546f6b656e3a206d696e7420746f20746865207a65726f206164646044820152637265737360e01b606482015280608481015b0390fd5b15610fe957565b60405162461bcd60e51b815260206004820152602a60248201527f4e6f6f7269546f6b656e3a206d696e7420616d6f756e74206e6f7420677265616044820152690746572207468616e20360b41b6064820152608490fd5b6110b86110ae7f0f6798a560793a54c3bcfe86a93cde1e73087d944c0ea20544137d41213968859261108a6110796104296000610f7c565b6001600160a01b0383161415610f85565b61109f61109760006109b9565b865b11610fe2565b6110a98582611f12565b6104d4565b9261055e60405190565b0390a2565b9061033c91610f4e565b61033c9033611f61565b611f61565b610352906104fe565b61035290546110d6565b156110f057565b60405162461bcd60e51b815260206004820152601860248201527f4e6f7420616e20617574686f72697a65642062726964676500000000000000006044820152606490fd5b610352929190611155600080516020612bfb8339815191525b3390611986565b80611169575b611164906110e9565b611187565b5061116461118061117b3360026104dd565b6110df565b905061115b565b50610df9919061119d6110796104296000610f7c565b6111b06111aa60006109b9565b83611099565b611f12565b61035291906000611135565b9061033c916111ce611fb2565b9061033c916111dc81612069565b612093565b9061033c916111c1565b610352906111f7612162565b611225565b6103527f360894a13ba1a3210667c828492db98dca3e2076cc3735a920a3ca505d382bbc6109b9565b506103526111fc565b61035260006111eb565b6103527fcd5ed15c6e187e77e9aee88184c21f4f2182ab5827cb3b7e07fbedcd63f033006110df565b61033c9061127c600080516020612c1b833981519152611da1565b611298906110a981600080516020612c1b833981519152610e94565b7f54e4612788f90384e6843298d7854436f3a585b2c3831ab66abf1de63bfa6c2d6112c260405190565b80806110b8565b61033c90611261565b6112fa610352916112e1600090565b506000600080516020612b5b8339815191525b016104dd565b610e05565b6113076121a4565b61033c61033c6113176000610f7c565b612207565b61033c6112ff565b61033c9190611340600080516020612c1b833981519152611da1565b6110b86113887f902923dcd4814f6cef7005a70e01d5cf2035ab02d4523ef3b865f1d7bab885af9284600014611392576110a981600080516020612b7b833981519152610e94565b9261037860405190565b6110a981600080516020612b7b833981519152611a76565b9061033c91611324565b61033c906113cf600080516020612bbb833981519152611da1565b6113fe565b9060ff905b9181191691161790565b906113f36103526113fa92151590565b82546113d4565b9055565b600061140e61033c9260016104dd565b6113e3565b61033c906113b4565b61033c90611437600080516020612c1b833981519152611da1565b61144b906110a9600061140e8360036104dd565b7ff915cd9fe234de6e8d3afe7bf2388d35b2b6d48e8c629a24602019bde79c213a6112c260405190565b61033c9061141c565b61033c919061149a600080516020612bfb83398151915261114e565b806114ae575b6114a9906110e9565b6114c7565b506114a96114c061117b3360026104dd565b90506114a0565b9061033c91612274565b9061033c9161147e565b6103529060401c6104fe565b61035290546114db565b610352905b67ffffffffffffffff1690565b61035290546114f1565b6114f66103526103529290565b9067ffffffffffffffff906113d9565b6114f66103526103529267ffffffffffffffff1690565b906115516103526113fa9261152a565b825461151a565b9068ff00000000000000009060401b6113d9565b9061157c6103526113fa92151590565b8254611558565b6103559061150d565b60208101929161033c9190611583565b6115a4612283565b806115be6115b86115b4836114e7565b1590565b91611503565b6000916115ca8361150d565b67ffffffffffffffff831614806116c5575b6001926115f96115eb8561150d565b9167ffffffffffffffff1690565b14908161169d575b155b9081611694575b5061168557806116268461161d8561150d565b96019586611541565b611676575b6116336117e9565b61163c57505050565b61166a610f41927fc7f505b2f371ae2175ee4913f4499e1f2633a7b5936321eed1cdaeb6115181d29461156c565b6040519182918261158c565b611680828561156c565b61162b565b63f92ee8a960e01b8352600483fd5b1590503861160a565b90506116036116ab306104d4565b3b6116bc6116b8876109b9565b9190565b14919050611601565b50806115dc565b6116d6600b610a0f565b6a2727a7a924902a27a5a2a760a91b602082015290565b6103526116cc565b6116ff6005610a0f565b644e4f4f524960d81b602082015290565b6103526116f5565b9160001960089290920291821b911b6113d9565b919061173d6103526113fa936109b9565b908354611718565b61033c9160009161172c565b81811061175c575050565b8061176a6000600193611745565b01611751565b9190601f811161177f57505050565b61179161033c93600052602060002090565b906020601f8401819004830193106117b3575b6020601f909101040190611751565b90915081906117a4565b6117d260036117cc8354610b99565b83611770565b6006621554d160ea1b019055565b61033c906117bd565b6118026117f46116ed565b6117fc611710565b906122a2565b61180a6122b4565b6118126122b4565b61181a6122b4565b6118226122b4565b61182b336122d1565b61183d6118366109c6565b3390611dac565b50611855600080516020612c1b833981519152611836565b5061186d600080516020612b9b833981519152611836565b50611885600080516020612b7b833981519152611836565b506118af7f189ab7a9244df0848122154315af71fe140f3db0fe014031783b0946b8c9d2e3611836565b506118c7600080516020612bbb833981519152611836565b506118df600080516020612bfb833981519152611836565b5061033c60006117e0565b61033c61159c565b611909600080516020612b7b833981519152611da1565b61033c61191461233c565b7f5ee71a369c8672edded508e624ffc9257fa1ae6886ef32905c18e60196bca399610f3860405190565b61033c6118f2565b61035290610429565b6103529054611946565b61035260007f9016d09d72d40fdae2fd8ceac6b6234c7706214fd39c1cd1e609a0528c1993005b0161194f565b6103529160006112f461117b9361199b600090565b5082600080516020612bdb833981519152610e6b565b6103526004600080516020612b5b833981519152610de8565b610df9919033611d15565b61033c91906119f1600080516020612c1b833981519152611da1565b6110b86113887fb21afb9ce9be0a676f8f317ff0ca072fb89a4f8ce2d1b6fe80f8755c14f1cb199284600014611a39576110a981600080516020612b9b833981519152610e94565b6110a981600080516020612b9b833981519152611a76565b9061033c916119d5565b9061033c91611a6c610e8282610e47565b90610e9191611e3a565b9061033c91611a5b565b61035291611aaa6112fa92611a93600090565b506001600080516020612b5b8339815191526112f4565b6104dd565b61117b61035291611abe600090565b5060036104dd565b61033c9190611ae2600080516020612c1b833981519152611da1565b6110b86113887fc11208a19c10526c5b56ff36e4790217719cbe00bda41649d1d47b0d1d5d5c0d9284600014611b3b57611b2a81600080516020612bfb833981519152611dac565b505b6110a98561140e8360026104dd565b611b5381600080516020612bfb833981519152611e3a565b50611b2c565b9061033c91611ac6565b61033c90611b7e600080516020612c1b833981519152611da1565b611b92906110a9600161140e8360036104dd565b7f4f2a367e694e71282f29ab5eaa04c4c0be45ac5bf2ca74fb67068b98bdc2887d6112c260405190565b61033c90611b63565b61033c90611bd16121a4565b6000611bdc81610f7c565b6001600160a01b0381166001600160a01b03841614611c0057505061033c90612207565b631e4fbdf760e01b82526001600160a01b03166004820152602490fd5b61033c90611bc5565b61033c90611c41600080516020612bbb833981519152611da1565b600161140e61033c92826104dd565b61033c90611c26565b637965db0b60e01b6001600160e01b0319821614908115611c78575090565b6103529150612344565b9160019161033c93612375565b6001600160a01b03909116815260608101939261033c929091604091611cb6906020830152565b0152565b91611cc58284611a80565b6000198110611cd5575b50505050565b818110611cfb5791611cec611cf294926000940390565b91612375565b38808080611ccf565b637dc7a0d960e11b60009081529350610ee7926004611c8f565b929190600093611d2485610f7c565b856001600160a01b0382166001600160a01b03841614611d8157506001600160a01b0381166001600160a01b03841614611d64575061033c9394506125ef565b63ec442f0560e01b86526001600160a01b03166004860152602485fd5b634b637e8f60e11b81526001600160a01b03919091166004820152602490fd5b61033c903390612617565b600080516020612bdb833981519152611dc86115b48484611986565b15611e3257600161140e8460006112f48682611de49701610e41565b611dfe611df8611df2339390565b936104d4565b916104d4565b917f2f8788117e7eff1d82e926ec794901d17c78024a50270940304540a733656f0d611e2960405190565b600090a4600190565b505050600090565b600080516020612bdb833981519152611e538383611986565b15611e3257600061140e84826112f48682611e6e9701610e41565b611e7c611df8611df2339390565b917ff6391f5c32d9c69d2a47ea670b442974b53935d1edc7fd64eb21e047a839171b611e2960405190565b611eaf612646565b61033c611ee06000807fcd5ed15c6e187e77e9aee88184c21f4f2182ab5827cb3b7e07fbedcd63f033005b016113e3565b7f5db9ee0a495bf2e6ff9c91a7834c1ba4fdd244a5e8aa4e537bd38aeae4b073aa610f4133610968565b61033c611ea7565b9190600092611f2084610f7c565b6001600160a01b0381166001600160a01b03831614611f445761033c9394506125ef565b63ec442f0560e01b85526001600160a01b03166004850152602484fd5b9190600092611f6f84610f7c565b906001600160a01b0382166001600160a01b03821614611f945761033c9394506125ef565b634b637e8f60e11b85526001600160a01b0382166004860152602485fd5b611fbb306104d4565b7f000000000000000000000000000000000000000000000000000000000000000090611ff86001600160a01b0383165b916001600160a01b031690565b1490811561201a575b5061200857565b63703e46dd60e11b6000908152600490fd5b9050612037611feb61202a612669565b926001600160a01b031690565b141538612001565b5061033c7f189ab7a9244df0848122154315af71fe140f3db0fe014031783b0946b8c9d2e3611da1565b61033c9061203f565b9050519061033c82610451565b9060208282031261032a5761035291612072565b906120a06110a9836104d4565b9060206120ac60405190565b6352d1902d60e01b815292839060049082905afa60009281612131575b506120fb57505060016120d95750565b634c9c8ce360e01b60009081526001600160a01b039091166004526024036000fd5b9092916121096103526111fc565b840361211a5761033c929350612679565b632a87526960e21b60009081526004859052602490fd5b61215491935060203d60201161215b575b61214c81836106e3565b81019061207f565b91386120c9565b503d612142565b61216b306104d4565b61219d6001600160a01b037f000000000000000000000000000000000000000000000000000000000000000016611feb565b0361200857565b6121ac611959565b33906121b782611feb565b036121bf5750565b63118cdaa760e01b60009081526001600160a01b039091166004526024036000fd5b906001600160a01b03906113d9565b906122006103526113fa926104d4565b82546121e1565b612241611df87f9016d09d72d40fdae2fd8ceac6b6234c7706214fd39c1cd1e609a0528c1993006110a98461223b8361194f565b926121f0565b907f8be0079c531659141344cd1fd0a4f28419497f9722a3daafe3b4186f6b6457e061226c60405190565b80805b0390a3565b61033c91906110d18233610e36565b61035261270b565b9061033c91612298612713565b9061033c91612854565b9061033c9161228b565b61033c612713565b61033c6122ac565b61033c906122c8612713565b61033c9061286a565b61033c906122bc565b6122e2612873565b61033c612312600160007fcd5ed15c6e187e77e9aee88184c21f4f2182ab5827cb3b7e07fbedcd63f03300611eda565b7f62e78cea01bee320cd4e420270b5ea74000d11b0c9f74754ebdbfc544b05a258610f4133610968565b61033c6122da565b610dc66301ffc9a760e01b610db8565b90600019906113d9565b9061236e6103526113fa926109b9565b8254612354565b90919261238d600080516020612b5b83398151915290565b600061239881610f7c565b6001600160a01b0381166001600160a01b03861614612446576001600160a01b0381166001600160a01b03871614612429575050846123e185611aaa8660016123e696016104dd565b61235e565b6123ef57505050565b61226f61241f611df27f8c5be1e5ebec7d5bd14f71427d1e84f3dd0314c0f7b2291e5b200ac8c7c3b925936104d4565b9361055e60405190565b634a1406b160e11b82526001600160a01b03166004820152602490fd5b63e602df0560e01b82526001600160a01b03166004820152602490fd5b9061033c9291612471612873565b612576565b1561247d57565b60405162461bcd60e51b815260206004820152601d60248201527f4e4f4f52493a206163636f756e7420697320626c61636b6c69737465640000006044820152606490fd5b156124c957565b60405162461bcd60e51b8152602060048201526024808201527f4e6f6f7269546f6b656e3a2073656e646572206163636f756e7420697320667260448201526337bd32b760e11b6064820152608490fd5b1561252157565b60405162461bcd60e51b815260206004820152602760248201527f4e6f6f7269546f6b656e3a20726563697069656e74206163636f756e7420697360448201526610333937bd32b760c91b6064820152608490fd5b9061033c929161258d6115b461117b8360016104dd565b806125d3575b61259c90612476565b6125b56125b06115b461117b8460036104dd565b6124c2565b6125ce6125c96115b461117b8560036104dd565b61251a565b6128bb565b5061259c6125e86115b461117b8560016104dd565b9050612593565b9061033c9291612463565b6001600160a01b03909116815260408101929161033c9160200152565b906126256115b48284611986565b61262d575050565b63e2517d3f60e01b600090815291610ee79160046125fa565b6126516115b4611238565b61265757565b638dfc202b60e01b6000908152600490fd5b61035260006119806103526111fc565b9061268382612a05565b61268c826104d4565b7fbc7cd75a20ee27fd9adebab32041f755214dbc6bffa90cc0225b39da2e5c2d3b6126b660405190565b600090a280516126c96116b860006109b9565b11156126d857610e9191612a92565b505061033c612a50565b6103527ff0c57e16840df040f15088dc2f81fe391c3923bec73e23a9662efc9c229c6a006109b9565b6103526126e2565b61271e6115b4612ab9565b61272457565b631afcd79f60e31b6000908152600490fd5b9061033c91612743612713565b612825565b90612751815190565b9067ffffffffffffffff8211610705576127758261276f8554610b99565b85611770565b602090601f83116001146127b0576113fa9291600091836127a5575b5050600019600883021c1916906002021790565b015190503880612791565b601f198316916127c585600052602060002090565b9260005b818110612803575091600293918560019694106127ea575b50505002019055565b01516000196008601f8516021c191690553880806127e1565b919360206001819287870151815501950192016127c9565b9061033c91612748565b90600461033c9261284e612844600080516020612b5b83398151915290565b916003830161281b565b0161281b565b9061033c91612736565b61033c90611bd1612713565b61033c9061285e565b61287b611238565b61288157565b63d93c066560e01b6000908152600490fd5b634e487b7160e01b600052601160045260246000fd5b919082018092116128b657565b612893565b600080516020612b5b8339815191528260006128d681610f7c565b6001600160a01b0381166001600160a01b0386160361298657938361241f93611df2936129417fddf252ad1be2c89b69c2b068fc378daa952ba7f163c4a11628f55a4df523b3ef986104298c61293b600261226f9c019161293683610e05565b6128a9565b9061235e565b6001600160a01b0383160361296a57505060026110a9910161293b8961296683610e05565b0390565b90612979916110a993016104dd565b61293b896103ed83610e05565b9080925083016129996112fa86836104dd565b8781106129ea57938661241f94612941611df2956104298a966123e17fddf252ad1be2c89b69c2b068fc378daa952ba7f163c4a11628f55a4df523b3ef9c8f6129e49061226f9e0390565b926104dd565b83610fde8982938963391434e360e21b855260048501611c8f565b6000813b612a156116b8836109b9565b14612a30579061033c91612a2a6103526111fc565b016121f0565b634c9c8ce360e01b81526001600160a01b03919091166004820152602490fd5b6000612a5b816109b9565b3411612a645750565b63b398979f60e01b8152600490fd5b3d15612a8d57612a823d610a0f565b903d6000602084013e565b606090565b60008061035293612aa1606090565b50602081519101845af4612ab3612a73565b91612acc565b6103526000612ac6612283565b016114e7565b90612ad75750612b2b565b815190600091612ae96116b8846109b9565b1480612b16575b612af957505090565b639996b31560e01b82526001600160a01b03166004820152602490fd5b50803b612b256116b8846109b9565b14612af0565b8051600090612b3c6116b8836109b9565b1115612b4b5750805190602001fd5b63d6bda27560e01b8152600490fdfe52c63247e1f47db19d5ce0460030c497f067ca4cebf71ba98eeadabe20bace0065d7a28e3265b37a6474929f336521b332c1681b933f6cb9f3376673440d862a9f2df0fed2c77648de5860a4cc508cd0818c85b8b8a1ab4ceeef8d981c8956a698db8a220cd0f09badce9f22d0ba7e93edb3d404448cc3560d391ab096ad16e902dd7bc7dec4dceedda775e58dd541e08a116c6c53815c0bd028192f7b62680052ba824bfabc2bcfcdf7f0edbb486ebb05e1836c90e78047efeb949990f72e5fa49807205ce4d355092ef5a8a18f56e8913cf4a201fbe287825b095693c21775a2646970667358221220c64171c608f9ee5c0d59797759ccf1821f248de4cdad4ee311c570dea09e998d64736f6c634300081b0033","opcodes":"PUSH1 0xA0 PUSH1 0x40 MSTORE CALLVALUE PUSH2 0x32 JUMPI PUSH2 0x11 PUSH2 0x37 JUMP JUMPDEST PUSH1 0x40 MLOAD PUSH2 0x2C70 PUSH2 0x1E9 DUP3 CODECOPY PUSH1 0x80 MLOAD DUP2 DUP2 DUP2 PUSH2 0x1FBD ADD MSTORE PUSH2 0x2178 ADD MSTORE PUSH2 0x2C70 SWAP1 RETURN JUMPDEST PUSH1 0x0 DUP1 REVERT JUMPDEST PUSH2 0x3F PUSH2 0x49 JUMP JUMPDEST PUSH2 0x47 PUSH2 0x10A JUMP JUMPDEST JUMP JUMPDEST PUSH2 0x47 PUSH2 0x86 JUMP JUMPDEST PUSH2 0x65 SWAP1 PUSH2 0x68 SWAP1 PUSH1 0x1 PUSH1 0x1 PUSH1 0xA0 SHL SUB AND DUP3 JUMP JUMPDEST SWAP1 JUMP JUMPDEST PUSH1 0x1 PUSH1 0x1 PUSH1 0xA0 SHL SUB AND SWAP1 JUMP JUMPDEST PUSH2 0x65 SWAP1 PUSH2 0x51 JUMP JUMPDEST PUSH2 0x65 SWAP1 PUSH2 0x74 JUMP JUMPDEST PUSH2 0x8F ADDRESS PUSH2 0x7D JUMP JUMPDEST PUSH1 0x80 MSTORE JUMP JUMPDEST PUSH2 0x65 SWAP1 PUSH1 0x40 SHR PUSH1 0xFF AND SWAP1 JUMP JUMPDEST PUSH2 0x65 SWAP1 SLOAD PUSH2 0x94 JUMP JUMPDEST PUSH2 0x65 SWAP1 JUMPDEST PUSH1 0x1 PUSH1 0x1 PUSH1 0x40 SHL SUB AND SWAP1 JUMP JUMPDEST PUSH2 0x65 SWAP1 SLOAD PUSH2 0xAB JUMP JUMPDEST PUSH2 0x65 SWAP1 PUSH2 0xB0 SWAP1 PUSH1 0x1 PUSH1 0x1 PUSH1 0x40 SHL SUB AND DUP3 JUMP JUMPDEST SWAP1 PUSH2 0xEA PUSH2 0x65 PUSH2 0x106 SWAP3 PUSH2 0xC6 JUMP JUMPDEST DUP3 SLOAD PUSH1 0x1 PUSH1 0x1 PUSH1 0x40 SHL SUB NOT AND PUSH1 0x1 PUSH1 0x1 PUSH1 0x40 SHL SUB SWAP2 SWAP1 SWAP2 AND OR SWAP1 JUMP JUMPDEST SWAP1 SSTORE JUMP JUMPDEST PUSH1 0x0 PUSH2 0x114 PUSH2 0x1A2 JUMP JUMPDEST ADD PUSH2 0x11E DUP2 PUSH2 0xA1 JUMP JUMPDEST PUSH2 0x190 JUMPI PUSH2 0x12B DUP2 PUSH2 0xBC JUMP JUMPDEST PUSH1 0x1 PUSH1 0x1 PUSH1 0x40 SHL SUB SWAP2 SWAP1 DUP3 SWAP1 DUP2 AND SUB PUSH2 0x142 JUMPI POP POP JUMP JUMPDEST DUP2 PUSH2 0x171 PUSH32 0xC7F505B2F371AE2175EE4913F4499E1F2633A7B5936321EED1CDAEB6115181D2 SWAP4 PUSH2 0x18B SWAP4 PUSH2 0xDA JUMP JUMPDEST PUSH1 0x40 MLOAD SWAP2 DUP3 SWAP2 DUP3 PUSH1 0x1 PUSH1 0x1 PUSH1 0x40 SHL SUB SWAP1 SWAP2 AND DUP2 MSTORE PUSH1 0x20 ADD SWAP1 JUMP JUMPDEST SUB SWAP1 LOG1 JUMP JUMPDEST PUSH4 0xF92EE8A9 PUSH1 0xE0 SHL PUSH1 0x0 SWAP1 DUP2 MSTORE PUSH1 0x4 SWAP1 REVERT JUMPDEST PUSH2 0x65 PUSH2 0x1E0 JUMP JUMPDEST PUSH2 0x65 PUSH2 0x65 PUSH2 0x65 SWAP3 SWAP1 JUMP JUMPDEST PUSH2 0x65 PUSH32 0xF0C57E16840DF040F15088DC2F81FE391C3923BEC73E23A9662EFC9C229C6A00 PUSH2 0x1AA JUMP JUMPDEST PUSH2 0x65 PUSH2 0x1B7 JUMP INVALID PUSH1 0x80 PUSH1 0x40 MSTORE PUSH1 0x4 CALLDATASIZE LT ISZERO PUSH2 0x12 JUMPI PUSH1 0x0 DUP1 REVERT JUMPDEST PUSH1 0x0 CALLDATALOAD PUSH1 0xE0 SHR DUP1 PUSH4 0x1FFC9A7 EQ PUSH2 0x312 JUMPI DUP1 PUSH4 0x6FDDE03 EQ PUSH2 0x30D JUMPI DUP1 PUSH4 0x95EA7B3 EQ PUSH2 0x308 JUMPI DUP1 PUSH4 0x17A1B570 EQ PUSH2 0x303 JUMPI DUP1 PUSH4 0x18160DDD EQ PUSH2 0x2FE JUMPI DUP1 PUSH4 0x23B872DD EQ PUSH2 0x2F9 JUMPI DUP1 PUSH4 0x248A9CA3 EQ PUSH2 0x2F4 JUMPI DUP1 PUSH4 0x2F2FF15D EQ PUSH2 0x2EF JUMPI DUP1 PUSH4 0x313CE567 EQ PUSH2 0x2EA JUMPI DUP1 PUSH4 0x36568ABE EQ PUSH2 0x2E5 JUMPI DUP1 PUSH4 0x3F4BA83A EQ PUSH2 0x2E0 JUMPI DUP1 PUSH4 0x40C10F19 EQ PUSH2 0x2DB JUMPI DUP1 PUSH4 0x42966C68 EQ PUSH2 0x2D6 JUMPI DUP1 PUSH4 0x449A52F8 EQ PUSH2 0x2D1 JUMPI DUP1 PUSH4 0x4F1EF286 EQ PUSH2 0x2CC JUMPI DUP1 PUSH4 0x52D1902D EQ PUSH2 0x2C7 JUMPI DUP1 PUSH4 0x5C975ABB EQ PUSH2 0x2C2 JUMPI DUP1 PUSH4 0x704B6C02 EQ PUSH2 0x2BD JUMPI DUP1 PUSH4 0x70A08231 EQ PUSH2 0x2B8 JUMPI DUP1 PUSH4 0x715018A6 EQ PUSH2 0x2B3 JUMPI DUP1 PUSH4 0x7180C8CA EQ PUSH2 0x2AE JUMPI DUP1 PUSH4 0x75B238FC EQ PUSH2 0x2A9 JUMPI DUP1 PUSH4 0x75E3661E EQ PUSH2 0x2A4 JUMPI DUP1 PUSH4 0x788649EA EQ PUSH2 0x29F JUMPI DUP1 PUSH4 0x79CC6790 EQ PUSH2 0x29A JUMPI DUP1 PUSH4 0x8129FC1C EQ PUSH2 0x295 JUMPI DUP1 PUSH4 0x8456CB59 EQ PUSH2 0x290 JUMPI DUP1 PUSH4 0x8DA5CB5B EQ PUSH2 0x28B JUMPI DUP1 PUSH4 0x91D14854 EQ PUSH2 0x286 JUMPI DUP1 PUSH4 0x95D89B41 EQ PUSH2 0x281 JUMPI DUP1 PUSH4 0xA217FDDF EQ PUSH2 0x27C JUMPI DUP1 PUSH4 0xA9059CBB EQ PUSH2 0x277 JUMPI DUP1 PUSH4 0xAD3CB1CC EQ PUSH2 0x272 JUMPI DUP1 PUSH4 0xB5BFDDEA EQ PUSH2 0x26D JUMPI DUP1 PUSH4 0xCF456AE7 EQ PUSH2 0x268 JUMPI DUP1 PUSH4 0xD5391393 EQ PUSH2 0x263 JUMPI DUP1 PUSH4 0xD547741F EQ PUSH2 0x25E JUMPI DUP1 PUSH4 0xDBAC26E9 EQ PUSH2 0x259 JUMPI DUP1 PUSH4 0xDD62ED3E EQ PUSH2 0x254 JUMPI DUP1 PUSH4 0xE5839836 EQ PUSH2 0x24F JUMPI DUP1 PUSH4 0xE5A6B10F EQ PUSH2 0x24A JUMPI DUP1 PUSH4 0xE63AB1E9 EQ PUSH2 0x245 JUMPI DUP1 PUSH4 0xE7109B5F EQ PUSH2 0x240 JUMPI DUP1 PUSH4 0xF26C159F EQ PUSH2 0x23B JUMPI DUP1 PUSH4 0xF2FDE38B EQ PUSH2 0x236 JUMPI DUP1 PUSH4 0xF515E6F2 EQ PUSH2 0x231 JUMPI DUP1 PUSH4 0xF72C0D8B EQ PUSH2 0x22C JUMPI PUSH4 0xF9F92BE4 SUB PUSH2 0x32A JUMPI PUSH2 0xD7E JUMP JUMPDEST PUSH2 0xD45 JUMP JUMPDEST PUSH2 0xD1E JUMP JUMPDEST PUSH2 0xD06 JUMP JUMPDEST PUSH2 0xCEE JUMP JUMPDEST PUSH2 0xCD5 JUMP JUMPDEST PUSH2 0xCAE JUMP JUMPDEST PUSH2 0xC93 JUMP JUMPDEST PUSH2 0xB52 JUMP JUMPDEST PUSH2 0xB36 JUMP JUMPDEST PUSH2 0xAFF JUMP JUMPDEST PUSH2 0xAD6 JUMP JUMPDEST PUSH2 0xAAF JUMP JUMPDEST PUSH2 0xA96 JUMP JUMPDEST PUSH2 0xA6F JUMP JUMPDEST PUSH2 0xA54 JUMP JUMPDEST PUSH2 0x9F3 JUMP JUMPDEST PUSH2 0x9D8 JUMP JUMPDEST PUSH2 0x99E JUMP JUMPDEST PUSH2 0x982 JUMP JUMPDEST PUSH2 0x94D JUMP JUMPDEST PUSH2 0x935 JUMP JUMPDEST PUSH2 0x91D JUMP JUMPDEST PUSH2 0x904 JUMP JUMPDEST PUSH2 0x8EC JUMP JUMPDEST PUSH2 0x8D4 JUMP JUMPDEST PUSH2 0x8AD JUMP JUMPDEST PUSH2 0x894 JUMP JUMPDEST PUSH2 0x844 JUMP JUMPDEST PUSH2 0x829 JUMP JUMPDEST PUSH2 0x811 JUMP JUMPDEST PUSH2 0x7F6 JUMP JUMPDEST PUSH2 0x7DB JUMP JUMPDEST PUSH2 0x7C7 JUMP JUMPDEST PUSH2 0x6B1 JUMP JUMPDEST PUSH2 0x699 JUMP JUMPDEST PUSH2 0x680 JUMP JUMPDEST PUSH2 0x668 JUMP JUMPDEST PUSH2 0x64F JUMP JUMPDEST PUSH2 0x620 JUMP JUMPDEST PUSH2 0x602 JUMP JUMPDEST PUSH2 0x5C4 JUMP JUMPDEST PUSH2 0x594 JUMP JUMPDEST PUSH2 0x53F JUMP JUMPDEST PUSH2 0x524 JUMP JUMPDEST PUSH2 0x487 JUMP JUMPDEST PUSH2 0x402 JUMP JUMPDEST PUSH2 0x359 JUMP JUMPDEST PUSH1 0x1 PUSH1 0x1 PUSH1 0xE0 SHL SUB NOT DUP2 AND JUMPDEST SUB PUSH2 0x32A JUMPI JUMP JUMPDEST PUSH1 0x0 DUP1 REVERT JUMPDEST SWAP1 POP CALLDATALOAD SWAP1 PUSH2 0x33C DUP3 PUSH2 0x317 JUMP JUMPDEST JUMP JUMPDEST SWAP1 PUSH1 0x20 DUP3 DUP3 SUB SLT PUSH2 0x32A JUMPI PUSH2 0x352 SWAP2 PUSH2 0x32F JUMP JUMPDEST SWAP1 JUMP JUMPDEST SWAP1 MSTORE JUMP JUMPDEST CALLVALUE PUSH2 0x32A JUMPI PUSH2 0x387 PUSH2 0x374 PUSH2 0x36F CALLDATASIZE PUSH1 0x4 PUSH2 0x33E JUMP JUMPDEST PUSH2 0xD96 JUMP JUMPDEST PUSH1 0x40 MLOAD JUMPDEST SWAP2 DUP3 SWAP2 DUP3 SWAP1 ISZERO ISZERO DUP2 MSTORE PUSH1 0x20 ADD SWAP1 JUMP JUMPDEST SUB SWAP1 RETURN JUMPDEST PUSH1 0x0 SWAP2 SUB SLT PUSH2 0x32A JUMPI JUMP JUMPDEST PUSH1 0x0 JUMPDEST DUP4 DUP2 LT PUSH2 0x3A9 JUMPI POP POP PUSH1 0x0 SWAP2 ADD MSTORE JUMP JUMPDEST DUP2 DUP2 ADD MLOAD DUP4 DUP3 ADD MSTORE PUSH1 0x20 ADD PUSH2 0x399 JUMP JUMPDEST PUSH2 0x3DA PUSH2 0x3E3 PUSH1 0x20 SWAP4 PUSH2 0x3ED SWAP4 PUSH2 0x3CE DUP2 MLOAD SWAP1 JUMP JUMPDEST DUP1 DUP4 MSTORE SWAP4 DUP5 SWAP3 PUSH1 0x20 ADD SWAP1 JUMP JUMPDEST SWAP6 DUP7 SWAP2 ADD PUSH2 0x396 JUMP JUMPDEST PUSH1 0x1F ADD PUSH1 0x1F NOT AND SWAP1 JUMP JUMPDEST ADD SWAP1 JUMP JUMPDEST PUSH1 0x20 DUP1 DUP3 MSTORE PUSH2 0x352 SWAP3 SWAP2 ADD SWAP1 PUSH2 0x3B9 JUMP JUMPDEST CALLVALUE PUSH2 0x32A JUMPI PUSH2 0x412 CALLDATASIZE PUSH1 0x4 PUSH2 0x38B JUMP JUMPDEST PUSH2 0x387 PUSH2 0x41D PUSH2 0xDD3 JUMP JUMPDEST PUSH1 0x40 MLOAD SWAP2 DUP3 SWAP2 DUP3 PUSH2 0x3F1 JUMP JUMPDEST PUSH1 0x1 PUSH1 0x1 PUSH1 0xA0 SHL SUB AND SWAP1 JUMP JUMPDEST PUSH1 0x1 PUSH1 0x1 PUSH1 0xA0 SHL SUB DUP2 AND PUSH2 0x323 JUMP JUMPDEST SWAP1 POP CALLDATALOAD SWAP1 PUSH2 0x33C DUP3 PUSH2 0x435 JUMP JUMPDEST DUP1 PUSH2 0x323 JUMP JUMPDEST SWAP1 POP CALLDATALOAD SWAP1 PUSH2 0x33C DUP3 PUSH2 0x451 JUMP JUMPDEST SWAP2 SWAP1 PUSH1 0x40 DUP4 DUP3 SUB SLT PUSH2 0x32A JUMPI PUSH2 0x352 SWAP1 PUSH1 0x20 PUSH2 0x480 DUP3 DUP7 PUSH2 0x444 JUMP JUMPDEST SWAP5 ADD PUSH2 0x457 JUMP JUMPDEST CALLVALUE PUSH2 0x32A JUMPI PUSH2 0x387 PUSH2 0x374 PUSH2 0x49D CALLDATASIZE PUSH1 0x4 PUSH2 0x464 JUMP JUMPDEST SWAP1 PUSH2 0xDEE JUMP JUMPDEST SWAP1 PUSH1 0x20 DUP3 DUP3 SUB SLT PUSH2 0x32A JUMPI PUSH2 0x352 SWAP2 PUSH2 0x444 JUMP JUMPDEST PUSH2 0x352 SWAP1 PUSH2 0x429 SWAP1 PUSH1 0x1 PUSH1 0x1 PUSH1 0xA0 SHL SUB AND DUP3 JUMP JUMPDEST PUSH2 0x352 SWAP1 PUSH2 0x4B7 JUMP JUMPDEST PUSH2 0x352 SWAP1 PUSH2 0x4CB JUMP JUMPDEST SWAP1 PUSH2 0x4E7 SWAP1 PUSH2 0x4D4 JUMP JUMPDEST PUSH1 0x0 MSTORE PUSH1 0x20 MSTORE PUSH1 0x40 PUSH1 0x0 KECCAK256 SWAP1 JUMP JUMPDEST PUSH2 0x352 SWAP2 PUSH1 0x8 MUL SHR JUMPDEST PUSH1 0xFF AND SWAP1 JUMP JUMPDEST SWAP1 PUSH2 0x352 SWAP2 SLOAD PUSH2 0x4F5 JUMP JUMPDEST PUSH1 0x0 PUSH2 0x51F PUSH2 0x352 SWAP3 PUSH1 0x2 PUSH2 0x4DD JUMP JUMPDEST PUSH2 0x504 JUMP JUMPDEST CALLVALUE PUSH2 0x32A JUMPI PUSH2 0x387 PUSH2 0x374 PUSH2 0x53A CALLDATASIZE PUSH1 0x4 PUSH2 0x4A3 JUMP JUMPDEST PUSH2 0x50F JUMP JUMPDEST CALLVALUE PUSH2 0x32A JUMPI PUSH2 0x54F CALLDATASIZE PUSH1 0x4 PUSH2 0x38B JUMP JUMPDEST PUSH2 0x387 PUSH2 0x55A PUSH2 0xE0F JUMP JUMPDEST PUSH1 0x40 MLOAD JUMPDEST SWAP2 DUP3 SWAP2 DUP3 SWAP1 DUP2 MSTORE PUSH1 0x20 ADD SWAP1 JUMP JUMPDEST SWAP1 SWAP2 PUSH1 0x60 DUP3 DUP5 SUB SLT PUSH2 0x32A JUMPI PUSH2 0x352 PUSH2 0x584 DUP5 DUP5 PUSH2 0x444 JUMP JUMPDEST SWAP4 PUSH1 0x40 PUSH2 0x480 DUP3 PUSH1 0x20 DUP8 ADD PUSH2 0x444 JUMP JUMPDEST CALLVALUE PUSH2 0x32A JUMPI PUSH2 0x387 PUSH2 0x374 PUSH2 0x5AA CALLDATASIZE PUSH1 0x4 PUSH2 0x56B JUMP JUMPDEST SWAP2 PUSH2 0xE2A JUMP JUMPDEST SWAP1 PUSH1 0x20 DUP3 DUP3 SUB SLT PUSH2 0x32A JUMPI PUSH2 0x352 SWAP2 PUSH2 0x457 JUMP JUMPDEST CALLVALUE PUSH2 0x32A JUMPI PUSH2 0x387 PUSH2 0x55A PUSH2 0x5DA CALLDATASIZE PUSH1 0x4 PUSH2 0x5B0 JUMP JUMPDEST PUSH2 0xE47 JUMP JUMPDEST SWAP2 SWAP1 PUSH1 0x40 DUP4 DUP3 SUB SLT PUSH2 0x32A JUMPI PUSH2 0x352 SWAP1 PUSH1 0x20 PUSH2 0x5FB DUP3 DUP7 PUSH2 0x457 JUMP JUMPDEST SWAP5 ADD PUSH2 0x444 JUMP JUMPDEST CALLVALUE PUSH2 0x32A JUMPI PUSH2 0x61B PUSH2 0x615 CALLDATASIZE PUSH1 0x4 PUSH2 0x5DF JUMP JUMPDEST SWAP1 PUSH2 0xE94 JUMP JUMPDEST PUSH1 0x40 MLOAD STOP JUMPDEST CALLVALUE PUSH2 0x32A JUMPI PUSH2 0x630 CALLDATASIZE PUSH1 0x4 PUSH2 0x38B JUMP JUMPDEST PUSH2 0x387 PUSH2 0x63B PUSH2 0xEAB JUMP JUMPDEST PUSH1 0x40 MLOAD SWAP2 DUP3 SWAP2 DUP3 PUSH1 0xFF SWAP1 SWAP2 AND DUP2 MSTORE PUSH1 0x20 ADD SWAP1 JUMP JUMPDEST CALLVALUE PUSH2 0x32A JUMPI PUSH2 0x61B PUSH2 0x662 CALLDATASIZE PUSH1 0x4 PUSH2 0x5DF JUMP JUMPDEST SWAP1 PUSH2 0xEB5 JUMP JUMPDEST CALLVALUE PUSH2 0x32A JUMPI PUSH2 0x678 CALLDATASIZE PUSH1 0x4 PUSH2 0x38B JUMP JUMPDEST PUSH2 0x61B PUSH2 0xF46 JUMP JUMPDEST CALLVALUE PUSH2 0x32A JUMPI PUSH2 0x61B PUSH2 0x693 CALLDATASIZE PUSH1 0x4 PUSH2 0x464 JUMP JUMPDEST SWAP1 PUSH2 0x10BD JUMP JUMPDEST CALLVALUE PUSH2 0x32A JUMPI PUSH2 0x61B PUSH2 0x6AC CALLDATASIZE PUSH1 0x4 PUSH2 0x5B0 JUMP JUMPDEST PUSH2 0x10C7 JUMP JUMPDEST CALLVALUE PUSH2 0x32A JUMPI PUSH2 0x387 PUSH2 0x374 PUSH2 0x6C7 CALLDATASIZE PUSH1 0x4 PUSH2 0x464 JUMP JUMPDEST SWAP1 PUSH2 0x11B5 JUMP JUMPDEST PUSH4 0x4E487B71 PUSH1 0xE0 SHL PUSH1 0x0 MSTORE PUSH1 0x41 PUSH1 0x4 MSTORE PUSH1 0x24 PUSH1 0x0 REVERT JUMPDEST SWAP1 PUSH1 0x1F ADD PUSH1 0x1F NOT AND DUP2 ADD SWAP1 DUP2 LT PUSH8 0xFFFFFFFFFFFFFFFF DUP3 GT OR PUSH2 0x705 JUMPI PUSH1 0x40 MSTORE JUMP JUMPDEST PUSH2 0x6CD JUMP JUMPDEST SWAP1 PUSH2 0x33C PUSH2 0x717 PUSH1 0x40 MLOAD SWAP1 JUMP JUMPDEST SWAP3 DUP4 PUSH2 0x6E3 JUMP JUMPDEST PUSH8 0xFFFFFFFFFFFFFFFF DUP2 GT PUSH2 0x705 JUMPI PUSH1 0x20 SWAP1 PUSH1 0x1F ADD PUSH1 0x1F NOT AND ADD SWAP1 JUMP JUMPDEST SWAP1 DUP3 PUSH1 0x0 SWAP4 SWAP3 DUP3 CALLDATACOPY ADD MSTORE JUMP JUMPDEST SWAP1 SWAP3 SWAP2 SWAP3 PUSH2 0x75C PUSH2 0x757 DUP3 PUSH2 0x71E JUMP JUMPDEST PUSH2 0x70A JUMP JUMPDEST SWAP4 DUP2 DUP6 MSTORE DUP2 DUP4 ADD GT PUSH2 0x32A JUMPI PUSH2 0x33C SWAP2 PUSH1 0x20 DUP6 ADD SWAP1 PUSH2 0x73B JUMP JUMPDEST SWAP1 DUP1 PUSH1 0x1F DUP4 ADD SLT ISZERO PUSH2 0x32A JUMPI DUP2 PUSH1 0x20 PUSH2 0x352 SWAP4 CALLDATALOAD SWAP2 ADD PUSH2 0x747 JUMP JUMPDEST SWAP2 SWAP1 SWAP2 PUSH1 0x40 DUP2 DUP5 SUB SLT PUSH2 0x32A JUMPI PUSH2 0x7A8 DUP4 DUP3 PUSH2 0x444 JUMP JUMPDEST SWAP3 PUSH1 0x20 DUP3 ADD CALLDATALOAD PUSH8 0xFFFFFFFFFFFFFFFF DUP2 GT PUSH2 0x32A JUMPI PUSH2 0x352 SWAP3 ADD PUSH2 0x776 JUMP JUMPDEST PUSH2 0x61B PUSH2 0x7D5 CALLDATASIZE PUSH1 0x4 PUSH2 0x791 JUMP JUMPDEST SWAP1 PUSH2 0x11E1 JUMP JUMPDEST CALLVALUE PUSH2 0x32A JUMPI PUSH2 0x7EB CALLDATASIZE PUSH1 0x4 PUSH2 0x38B JUMP JUMPDEST PUSH2 0x387 PUSH2 0x55A PUSH2 0x122E JUMP JUMPDEST CALLVALUE PUSH2 0x32A JUMPI PUSH2 0x806 CALLDATASIZE PUSH1 0x4 PUSH2 0x38B JUMP JUMPDEST PUSH2 0x387 PUSH2 0x374 PUSH2 0x1238 JUMP JUMPDEST CALLVALUE PUSH2 0x32A JUMPI PUSH2 0x61B PUSH2 0x824 CALLDATASIZE PUSH1 0x4 PUSH2 0x4A3 JUMP JUMPDEST PUSH2 0x12C9 JUMP JUMPDEST CALLVALUE PUSH2 0x32A JUMPI PUSH2 0x387 PUSH2 0x55A PUSH2 0x83F CALLDATASIZE PUSH1 0x4 PUSH2 0x4A3 JUMP JUMPDEST PUSH2 0x12D2 JUMP JUMPDEST CALLVALUE PUSH2 0x32A JUMPI PUSH2 0x854 CALLDATASIZE PUSH1 0x4 PUSH2 0x38B JUMP JUMPDEST PUSH2 0x61B PUSH2 0x131C JUMP JUMPDEST DUP1 ISZERO ISZERO PUSH2 0x323 JUMP JUMPDEST SWAP1 POP CALLDATALOAD SWAP1 PUSH2 0x33C DUP3 PUSH2 0x85C JUMP JUMPDEST SWAP2 SWAP1 PUSH1 0x40 DUP4 DUP3 SUB SLT PUSH2 0x32A JUMPI PUSH2 0x352 SWAP1 PUSH1 0x20 PUSH2 0x88D DUP3 DUP7 PUSH2 0x444 JUMP JUMPDEST SWAP5 ADD PUSH2 0x864 JUMP JUMPDEST CALLVALUE PUSH2 0x32A JUMPI PUSH2 0x61B PUSH2 0x8A7 CALLDATASIZE PUSH1 0x4 PUSH2 0x871 JUMP JUMPDEST SWAP1 PUSH2 0x13AA JUMP JUMPDEST CALLVALUE PUSH2 0x32A JUMPI PUSH2 0x8BD CALLDATASIZE PUSH1 0x4 PUSH2 0x38B JUMP JUMPDEST PUSH2 0x387 PUSH1 0x0 DUP1 MLOAD PUSH1 0x20 PUSH2 0x2C1B DUP4 CODECOPY DUP2 MLOAD SWAP2 MSTORE PUSH2 0x55A JUMP JUMPDEST CALLVALUE PUSH2 0x32A JUMPI PUSH2 0x61B PUSH2 0x8E7 CALLDATASIZE PUSH1 0x4 PUSH2 0x4A3 JUMP JUMPDEST PUSH2 0x1413 JUMP JUMPDEST CALLVALUE PUSH2 0x32A JUMPI PUSH2 0x61B PUSH2 0x8FF CALLDATASIZE PUSH1 0x4 PUSH2 0x4A3 JUMP JUMPDEST PUSH2 0x1475 JUMP JUMPDEST CALLVALUE PUSH2 0x32A JUMPI PUSH2 0x61B PUSH2 0x917 CALLDATASIZE PUSH1 0x4 PUSH2 0x464 JUMP JUMPDEST SWAP1 PUSH2 0x14D1 JUMP JUMPDEST CALLVALUE PUSH2 0x32A JUMPI PUSH2 0x92D CALLDATASIZE PUSH1 0x4 PUSH2 0x38B JUMP JUMPDEST PUSH2 0x61B PUSH2 0x18EA JUMP JUMPDEST CALLVALUE PUSH2 0x32A JUMPI PUSH2 0x945 CALLDATASIZE PUSH1 0x4 PUSH2 0x38B JUMP JUMPDEST PUSH2 0x61B PUSH2 0x193E JUMP JUMPDEST CALLVALUE PUSH2 0x32A JUMPI PUSH2 0x95D CALLDATASIZE PUSH1 0x4 PUSH2 0x38B JUMP JUMPDEST PUSH2 0x387 PUSH2 0x968 PUSH2 0x1959 JUMP JUMPDEST PUSH1 0x40 MLOAD SWAP2 DUP3 SWAP2 DUP3 PUSH1 0x1 PUSH1 0x1 PUSH1 0xA0 SHL SUB SWAP1 SWAP2 AND DUP2 MSTORE PUSH1 0x20 ADD SWAP1 JUMP JUMPDEST CALLVALUE PUSH2 0x32A JUMPI PUSH2 0x387 PUSH2 0x374 PUSH2 0x998 CALLDATASIZE PUSH1 0x4 PUSH2 0x5DF JUMP JUMPDEST SWAP1 PUSH2 0x1986 JUMP JUMPDEST CALLVALUE PUSH2 0x32A JUMPI PUSH2 0x9AE CALLDATASIZE PUSH1 0x4 PUSH2 0x38B JUMP JUMPDEST PUSH2 0x387 PUSH2 0x41D PUSH2 0x19B1 JUMP JUMPDEST PUSH2 0x352 PUSH2 0x352 PUSH2 0x352 SWAP3 SWAP1 JUMP JUMPDEST PUSH2 0x352 PUSH1 0x0 PUSH2 0x9B9 JUMP JUMPDEST PUSH2 0x352 PUSH2 0x9C6 JUMP JUMPDEST CALLVALUE PUSH2 0x32A JUMPI PUSH2 0x9E8 CALLDATASIZE PUSH1 0x4 PUSH2 0x38B JUMP JUMPDEST PUSH2 0x387 PUSH2 0x55A PUSH2 0x9D0 JUMP JUMPDEST CALLVALUE PUSH2 0x32A JUMPI PUSH2 0x387 PUSH2 0x374 PUSH2 0xA09 CALLDATASIZE PUSH1 0x4 PUSH2 0x464 JUMP JUMPDEST SWAP1 PUSH2 0x19CA JUMP JUMPDEST SWAP1 PUSH2 0xA1C PUSH2 0x757 DUP4 PUSH2 0x71E JUMP JUMPDEST SWAP2 DUP3 MSTORE JUMP JUMPDEST PUSH2 0xA2B PUSH1 0x5 PUSH2 0xA0F JUMP JUMPDEST PUSH5 0x352E302E3 PUSH1 0xDC SHL PUSH1 0x20 DUP3 ADD MSTORE SWAP1 JUMP JUMPDEST PUSH2 0x352 PUSH2 0xA21 JUMP JUMPDEST PUSH2 0x352 PUSH2 0xA3C JUMP JUMPDEST PUSH2 0x352 PUSH2 0xA44 JUMP JUMPDEST CALLVALUE PUSH2 0x32A JUMPI PUSH2 0xA64 CALLDATASIZE PUSH1 0x4 PUSH2 0x38B JUMP JUMPDEST PUSH2 0x387 PUSH2 0x41D PUSH2 0xA4C JUMP JUMPDEST CALLVALUE PUSH2 0x32A JUMPI PUSH2 0xA7F CALLDATASIZE PUSH1 0x4 PUSH2 0x38B JUMP JUMPDEST PUSH2 0x387 PUSH1 0x0 DUP1 MLOAD PUSH1 0x20 PUSH2 0x2BFB DUP4 CODECOPY DUP2 MLOAD SWAP2 MSTORE PUSH2 0x55A JUMP JUMPDEST CALLVALUE PUSH2 0x32A JUMPI PUSH2 0x61B PUSH2 0xAA9 CALLDATASIZE PUSH1 0x4 PUSH2 0x871 JUMP JUMPDEST SWAP1 PUSH2 0x1A51 JUMP JUMPDEST CALLVALUE PUSH2 0x32A JUMPI PUSH2 0xABF CALLDATASIZE PUSH1 0x4 PUSH2 0x38B JUMP JUMPDEST PUSH2 0x387 PUSH1 0x0 DUP1 MLOAD PUSH1 0x20 PUSH2 0x2B9B DUP4 CODECOPY DUP2 MLOAD SWAP2 MSTORE PUSH2 0x55A JUMP JUMPDEST CALLVALUE PUSH2 0x32A JUMPI PUSH2 0x61B PUSH2 0xAE9 CALLDATASIZE PUSH1 0x4 PUSH2 0x5DF JUMP JUMPDEST SWAP1 PUSH2 0x1A76 JUMP JUMPDEST PUSH1 0x0 PUSH2 0x51F PUSH2 0x352 SWAP3 PUSH1 0x1 PUSH2 0x4DD JUMP JUMPDEST CALLVALUE PUSH2 0x32A JUMPI PUSH2 0x387 PUSH2 0x374 PUSH2 0xB15 CALLDATASIZE PUSH1 0x4 PUSH2 0x4A3 JUMP JUMPDEST PUSH2 0xAEF JUMP JUMPDEST SWAP2 SWAP1 PUSH1 0x40 DUP4 DUP3 SUB SLT PUSH2 0x32A JUMPI PUSH2 0x352 SWAP1 PUSH1 0x20 PUSH2 0x5FB DUP3 DUP7 PUSH2 0x444 JUMP JUMPDEST CALLVALUE PUSH2 0x32A JUMPI PUSH2 0x387 PUSH2 0x55A PUSH2 0xB4C CALLDATASIZE PUSH1 0x4 PUSH2 0xB1A JUMP JUMPDEST SWAP1 PUSH2 0x1A80 JUMP JUMPDEST CALLVALUE PUSH2 0x32A JUMPI PUSH2 0x387 PUSH2 0x374 PUSH2 0xB68 CALLDATASIZE PUSH1 0x4 PUSH2 0x4A3 JUMP JUMPDEST PUSH2 0x1AAF JUMP JUMPDEST PUSH4 0x4E487B71 PUSH1 0xE0 SHL PUSH1 0x0 MSTORE PUSH1 0x0 PUSH1 0x4 MSTORE PUSH1 0x24 PUSH1 0x0 REVERT JUMPDEST PUSH4 0x4E487B71 PUSH1 0xE0 SHL PUSH1 0x0 MSTORE PUSH1 0x22 PUSH1 0x4 MSTORE PUSH1 0x24 PUSH1 0x0 REVERT JUMPDEST SWAP1 PUSH1 0x1 PUSH1 0x2 DUP4 DIV SWAP3 AND DUP1 ISZERO PUSH2 0xBB9 JUMPI JUMPDEST PUSH1 0x20 DUP4 LT EQ PUSH2 0xBB4 JUMPI JUMP JUMPDEST PUSH2 0xB83 JUMP JUMPDEST SWAP2 PUSH1 0x7F AND SWAP2 PUSH2 0xBA9 JUMP JUMPDEST DUP1 SLOAD PUSH1 0x0 SWAP4 SWAP3 SWAP2 PUSH2 0xBE0 PUSH2 0xBD6 DUP4 PUSH2 0xB99 JUMP JUMPDEST DUP1 DUP6 MSTORE SWAP4 PUSH1 0x20 ADD SWAP1 JUMP JUMPDEST SWAP2 PUSH1 0x1 DUP2 AND SWAP1 DUP2 ISZERO PUSH2 0xC32 JUMPI POP PUSH1 0x1 EQ PUSH2 0xBF9 JUMPI POP POP POP JUMP JUMPDEST PUSH2 0xC0C SWAP2 SWAP3 SWAP4 SWAP5 POP PUSH1 0x0 MSTORE PUSH1 0x20 PUSH1 0x0 KECCAK256 SWAP1 JUMP JUMPDEST SWAP2 PUSH1 0x0 SWAP3 JUMPDEST DUP2 DUP5 LT PUSH2 0xC1E JUMPI POP POP ADD SWAP1 JUMP JUMPDEST DUP1 SLOAD DUP5 DUP5 ADD MSTORE PUSH1 0x20 SWAP1 SWAP4 ADD SWAP3 PUSH1 0x1 ADD PUSH2 0xC11 JUMP JUMPDEST SWAP3 SWAP5 SWAP6 POP POP POP PUSH1 0xFF NOT AND DUP3 MSTORE ISZERO ISZERO PUSH1 0x20 MUL ADD SWAP1 JUMP JUMPDEST SWAP1 PUSH2 0x352 SWAP2 PUSH2 0xBC3 JUMP JUMPDEST SWAP1 PUSH2 0x33C PUSH2 0xC6B SWAP3 PUSH2 0xC62 PUSH1 0x40 MLOAD SWAP1 JUMP JUMPDEST SWAP4 DUP5 DUP1 SWAP3 PUSH2 0xC47 JUMP JUMPDEST SUB DUP4 PUSH2 0x6E3 JUMP JUMPDEST SWAP1 PUSH1 0x0 LT PUSH2 0xC83 JUMPI PUSH2 0x352 SWAP1 PUSH2 0xC51 JUMP JUMPDEST PUSH2 0xB6D JUMP JUMPDEST PUSH2 0x352 PUSH1 0x0 DUP1 PUSH2 0xC72 JUMP JUMPDEST CALLVALUE PUSH2 0x32A JUMPI PUSH2 0xCA3 CALLDATASIZE PUSH1 0x4 PUSH2 0x38B JUMP JUMPDEST PUSH2 0x387 PUSH2 0x41D PUSH2 0xC88 JUMP JUMPDEST CALLVALUE PUSH2 0x32A JUMPI PUSH2 0xCBE CALLDATASIZE PUSH1 0x4 PUSH2 0x38B JUMP JUMPDEST PUSH2 0x387 PUSH1 0x0 DUP1 MLOAD PUSH1 0x20 PUSH2 0x2B7B DUP4 CODECOPY DUP2 MLOAD SWAP2 MSTORE PUSH2 0x55A JUMP JUMPDEST CALLVALUE PUSH2 0x32A JUMPI PUSH2 0x61B PUSH2 0xCE8 CALLDATASIZE PUSH1 0x4 PUSH2 0x871 JUMP JUMPDEST SWAP1 PUSH2 0x1B59 JUMP JUMPDEST CALLVALUE PUSH2 0x32A JUMPI PUSH2 0x61B PUSH2 0xD01 CALLDATASIZE PUSH1 0x4 PUSH2 0x4A3 JUMP JUMPDEST PUSH2 0x1BBC JUMP JUMPDEST CALLVALUE PUSH2 0x32A JUMPI PUSH2 0x61B PUSH2 0xD19 CALLDATASIZE PUSH1 0x4 PUSH2 0x4A3 JUMP JUMPDEST PUSH2 0x1C1D JUMP JUMPDEST CALLVALUE PUSH2 0x32A JUMPI PUSH2 0xD2E CALLDATASIZE PUSH1 0x4 PUSH2 0x38B JUMP JUMPDEST PUSH2 0x387 PUSH1 0x0 DUP1 MLOAD PUSH1 0x20 PUSH2 0x2BBB DUP4 CODECOPY DUP2 MLOAD SWAP2 MSTORE PUSH2 0x55A JUMP JUMPDEST CALLVALUE PUSH2 0x32A JUMPI PUSH2 0xD55 CALLDATASIZE PUSH1 0x4 PUSH2 0x38B JUMP JUMPDEST PUSH2 0x387 PUSH32 0x189AB7A9244DF0848122154315AF71FE140F3DB0FE014031783B0946B8C9D2E3 PUSH2 0x55A JUMP JUMPDEST CALLVALUE PUSH2 0x32A JUMPI PUSH2 0x61B PUSH2 0xD91 CALLDATASIZE PUSH1 0x4 PUSH2 0x4A3 JUMP JUMPDEST PUSH2 0x1C50 JUMP JUMPDEST PUSH2 0xD9F DUP2 PUSH2 0x1C59 JUMP JUMPDEST SWAP1 DUP2 ISZERO PUSH2 0xDAA JUMPI POP SWAP1 JUMP JUMPDEST SWAP1 POP PUSH2 0xDC6 PUSH4 0x36372B07 PUSH1 0xE0 SHL JUMPDEST SWAP2 PUSH1 0x1 PUSH1 0x1 PUSH1 0xE0 SHL SUB NOT AND SWAP1 JUMP JUMPDEST EQ SWAP1 JUMP JUMPDEST PUSH2 0x352 SWAP1 PUSH2 0xC51 JUMP JUMPDEST PUSH2 0x352 PUSH1 0x3 PUSH1 0x0 DUP1 MLOAD PUSH1 0x20 PUSH2 0x2B5B DUP4 CODECOPY DUP2 MLOAD SWAP2 MSTORE JUMPDEST ADD PUSH2 0xDCA JUMP JUMPDEST PUSH2 0xDF9 SWAP2 SWAP1 CALLER PUSH2 0x1C82 JUMP JUMPDEST PUSH1 0x1 SWAP1 JUMP JUMPDEST PUSH2 0x352 SWAP1 DUP2 JUMP JUMPDEST PUSH2 0x352 SWAP1 SLOAD PUSH2 0xDFE JUMP JUMPDEST PUSH2 0x352 PUSH1 0x2 PUSH1 0x0 DUP1 MLOAD PUSH1 0x20 PUSH2 0x2B5B DUP4 CODECOPY DUP2 MLOAD SWAP2 MSTORE JUMPDEST ADD PUSH2 0xE05 JUMP JUMPDEST PUSH2 0xDF9 SWAP3 SWAP2 SWAP1 PUSH2 0xE3C DUP4 CALLER JUMPDEST DUP4 PUSH2 0x1CBA JUMP JUMPDEST PUSH2 0x1D15 JUMP JUMPDEST SWAP1 PUSH2 0x4E7 JUMP JUMPDEST PUSH1 0x1 PUSH2 0xE24 PUSH2 0x352 SWAP3 PUSH2 0xE58 PUSH1 0x0 SWAP1 JUMP JUMPDEST POP PUSH1 0x0 PUSH1 0x0 DUP1 MLOAD PUSH1 0x20 PUSH2 0x2BDB DUP4 CODECOPY DUP2 MLOAD SWAP2 MSTORE JUMPDEST ADD PUSH2 0xE41 JUMP JUMPDEST SWAP1 PUSH2 0x33C SWAP2 PUSH2 0xE87 PUSH2 0xE82 DUP3 PUSH2 0xE47 JUMP JUMPDEST PUSH2 0x1DA1 JUMP JUMPDEST SWAP1 PUSH2 0xE91 SWAP2 PUSH2 0x1DAC JUMP JUMPDEST POP JUMP JUMPDEST SWAP1 PUSH2 0x33C SWAP2 PUSH2 0xE71 JUMP JUMPDEST PUSH2 0x4FE PUSH2 0x352 PUSH2 0x352 SWAP3 SWAP1 JUMP JUMPDEST PUSH2 0x352 PUSH1 0x12 PUSH2 0xE9E JUMP JUMPDEST SWAP1 PUSH2 0xEBF CALLER PUSH2 0x429 JUMP JUMPDEST PUSH1 0x1 PUSH1 0x1 PUSH1 0xA0 SHL SUB DUP3 AND SUB PUSH2 0xED7 JUMPI PUSH2 0xE91 SWAP2 PUSH2 0x1E3A JUMP JUMPDEST PUSH4 0x334BD919 PUSH1 0xE1 SHL PUSH1 0x0 SWAP1 DUP2 MSTORE PUSH1 0x4 JUMPDEST SUB PUSH1 0x0 REVERT JUMPDEST PUSH2 0xF03 PUSH1 0x0 DUP1 MLOAD PUSH1 0x20 PUSH2 0x2B7B DUP4 CODECOPY DUP2 MLOAD SWAP2 MSTORE PUSH2 0x1DA1 JUMP JUMPDEST PUSH2 0x33C PUSH2 0xF0E PUSH2 0x1F0A JUMP JUMPDEST PUSH32 0xAEB196D352664784D1900B0E7414A8FACE7D29F4DAE8C4B0CF68ED477423BBF4 PUSH2 0xF38 PUSH1 0x40 MLOAD SWAP1 JUMP JUMPDEST CALLER DUP2 MSTORE DUP1 PUSH1 0x20 DUP2 ADD JUMPDEST SUB SWAP1 LOG1 JUMP JUMPDEST PUSH2 0x33C PUSH2 0xEEC JUMP JUMPDEST PUSH2 0x33C SWAP2 SWAP1 PUSH2 0xF6A PUSH1 0x0 DUP1 MLOAD PUSH1 0x20 PUSH2 0x2B9B DUP4 CODECOPY DUP2 MLOAD SWAP2 MSTORE PUSH2 0x1DA1 JUMP JUMPDEST PUSH2 0x1041 JUMP JUMPDEST PUSH2 0x429 PUSH2 0x352 PUSH2 0x352 SWAP3 SWAP1 JUMP JUMPDEST PUSH2 0x352 SWAP1 PUSH2 0xF6F JUMP JUMPDEST ISZERO PUSH2 0xF8C JUMPI JUMP JUMPDEST PUSH1 0x40 MLOAD PUSH3 0x461BCD PUSH1 0xE5 SHL DUP2 MSTORE PUSH1 0x20 PUSH1 0x4 DUP3 ADD MSTORE PUSH1 0x24 DUP1 DUP3 ADD MSTORE PUSH32 0x4E6F6F7269546F6B656E3A206D696E7420746F20746865207A65726F20616464 PUSH1 0x44 DUP3 ADD MSTORE PUSH4 0x72657373 PUSH1 0xE0 SHL PUSH1 0x64 DUP3 ADD MSTORE DUP1 PUSH1 0x84 DUP2 ADD JUMPDEST SUB SWAP1 REVERT JUMPDEST ISZERO PUSH2 0xFE9 JUMPI JUMP JUMPDEST PUSH1 0x40 MLOAD PUSH3 0x461BCD PUSH1 0xE5 SHL DUP2 MSTORE PUSH1 0x20 PUSH1 0x4 DUP3 ADD MSTORE PUSH1 0x2A PUSH1 0x24 DUP3 ADD MSTORE PUSH32 0x4E6F6F7269546F6B656E3A206D696E7420616D6F756E74206E6F742067726561 PUSH1 0x44 DUP3 ADD MSTORE PUSH10 0x746572207468616E203 PUSH1 0xB4 SHL PUSH1 0x64 DUP3 ADD MSTORE PUSH1 0x84 SWAP1 REVERT JUMPDEST PUSH2 0x10B8 PUSH2 0x10AE PUSH32 0xF6798A560793A54C3BCFE86A93CDE1E73087D944C0EA20544137D4121396885 SWAP3 PUSH2 0x108A PUSH2 0x1079 PUSH2 0x429 PUSH1 0x0 PUSH2 0xF7C JUMP JUMPDEST PUSH1 0x1 PUSH1 0x1 PUSH1 0xA0 SHL SUB DUP4 AND EQ ISZERO PUSH2 0xF85 JUMP JUMPDEST PUSH2 0x109F PUSH2 0x1097 PUSH1 0x0 PUSH2 0x9B9 JUMP JUMPDEST DUP7 JUMPDEST GT PUSH2 0xFE2 JUMP JUMPDEST PUSH2 0x10A9 DUP6 DUP3 PUSH2 0x1F12 JUMP JUMPDEST PUSH2 0x4D4 JUMP JUMPDEST SWAP3 PUSH2 0x55E PUSH1 0x40 MLOAD SWAP1 JUMP JUMPDEST SUB SWAP1 LOG2 JUMP JUMPDEST SWAP1 PUSH2 0x33C SWAP2 PUSH2 0xF4E JUMP JUMPDEST PUSH2 0x33C SWAP1 CALLER PUSH2 0x1F61 JUMP JUMPDEST PUSH2 0x1F61 JUMP JUMPDEST PUSH2 0x352 SWAP1 PUSH2 0x4FE JUMP JUMPDEST PUSH2 0x352 SWAP1 SLOAD PUSH2 0x10D6 JUMP JUMPDEST ISZERO PUSH2 0x10F0 JUMPI JUMP JUMPDEST PUSH1 0x40 MLOAD PUSH3 0x461BCD PUSH1 0xE5 SHL DUP2 MSTORE PUSH1 0x20 PUSH1 0x4 DUP3 ADD MSTORE PUSH1 0x18 PUSH1 0x24 DUP3 ADD MSTORE PUSH32 0x4E6F7420616E20617574686F72697A6564206272696467650000000000000000 PUSH1 0x44 DUP3 ADD MSTORE PUSH1 0x64 SWAP1 REVERT JUMPDEST PUSH2 0x352 SWAP3 SWAP2 SWAP1 PUSH2 0x1155 PUSH1 0x0 DUP1 MLOAD PUSH1 0x20 PUSH2 0x2BFB DUP4 CODECOPY DUP2 MLOAD SWAP2 MSTORE JUMPDEST CALLER SWAP1 PUSH2 0x1986 JUMP JUMPDEST DUP1 PUSH2 0x1169 JUMPI JUMPDEST PUSH2 0x1164 SWAP1 PUSH2 0x10E9 JUMP JUMPDEST PUSH2 0x1187 JUMP JUMPDEST POP PUSH2 0x1164 PUSH2 0x1180 PUSH2 0x117B CALLER PUSH1 0x2 PUSH2 0x4DD JUMP JUMPDEST PUSH2 0x10DF JUMP JUMPDEST SWAP1 POP PUSH2 0x115B JUMP JUMPDEST POP PUSH2 0xDF9 SWAP2 SWAP1 PUSH2 0x119D PUSH2 0x1079 PUSH2 0x429 PUSH1 0x0 PUSH2 0xF7C JUMP JUMPDEST PUSH2 0x11B0 PUSH2 0x11AA PUSH1 0x0 PUSH2 0x9B9 JUMP JUMPDEST DUP4 PUSH2 0x1099 JUMP JUMPDEST PUSH2 0x1F12 JUMP JUMPDEST PUSH2 0x352 SWAP2 SWAP1 PUSH1 0x0 PUSH2 0x1135 JUMP JUMPDEST SWAP1 PUSH2 0x33C SWAP2 PUSH2 0x11CE PUSH2 0x1FB2 JUMP JUMPDEST SWAP1 PUSH2 0x33C SWAP2 PUSH2 0x11DC DUP2 PUSH2 0x2069 JUMP JUMPDEST PUSH2 0x2093 JUMP JUMPDEST SWAP1 PUSH2 0x33C SWAP2 PUSH2 0x11C1 JUMP JUMPDEST PUSH2 0x352 SWAP1 PUSH2 0x11F7 PUSH2 0x2162 JUMP JUMPDEST PUSH2 0x1225 JUMP JUMPDEST PUSH2 0x352 PUSH32 0x360894A13BA1A3210667C828492DB98DCA3E2076CC3735A920A3CA505D382BBC PUSH2 0x9B9 JUMP JUMPDEST POP PUSH2 0x352 PUSH2 0x11FC JUMP JUMPDEST PUSH2 0x352 PUSH1 0x0 PUSH2 0x11EB JUMP JUMPDEST PUSH2 0x352 PUSH32 0xCD5ED15C6E187E77E9AEE88184C21F4F2182AB5827CB3B7E07FBEDCD63F03300 PUSH2 0x10DF JUMP JUMPDEST PUSH2 0x33C SWAP1 PUSH2 0x127C PUSH1 0x0 DUP1 MLOAD PUSH1 0x20 PUSH2 0x2C1B DUP4 CODECOPY DUP2 MLOAD SWAP2 MSTORE PUSH2 0x1DA1 JUMP JUMPDEST PUSH2 0x1298 SWAP1 PUSH2 0x10A9 DUP2 PUSH1 0x0 DUP1 MLOAD PUSH1 0x20 PUSH2 0x2C1B DUP4 CODECOPY DUP2 MLOAD SWAP2 MSTORE PUSH2 0xE94 JUMP JUMPDEST PUSH32 0x54E4612788F90384E6843298D7854436F3A585B2C3831AB66ABF1DE63BFA6C2D PUSH2 0x12C2 PUSH1 0x40 MLOAD SWAP1 JUMP JUMPDEST DUP1 DUP1 PUSH2 0x10B8 JUMP JUMPDEST PUSH2 0x33C SWAP1 PUSH2 0x1261 JUMP JUMPDEST PUSH2 0x12FA PUSH2 0x352 SWAP2 PUSH2 0x12E1 PUSH1 0x0 SWAP1 JUMP JUMPDEST POP PUSH1 0x0 PUSH1 0x0 DUP1 MLOAD PUSH1 0x20 PUSH2 0x2B5B DUP4 CODECOPY DUP2 MLOAD SWAP2 MSTORE JUMPDEST ADD PUSH2 0x4DD JUMP JUMPDEST PUSH2 0xE05 JUMP JUMPDEST PUSH2 0x1307 PUSH2 0x21A4 JUMP JUMPDEST PUSH2 0x33C PUSH2 0x33C PUSH2 0x1317 PUSH1 0x0 PUSH2 0xF7C JUMP JUMPDEST PUSH2 0x2207 JUMP JUMPDEST PUSH2 0x33C PUSH2 0x12FF JUMP JUMPDEST PUSH2 0x33C SWAP2 SWAP1 PUSH2 0x1340 PUSH1 0x0 DUP1 MLOAD PUSH1 0x20 PUSH2 0x2C1B DUP4 CODECOPY DUP2 MLOAD SWAP2 MSTORE PUSH2 0x1DA1 JUMP JUMPDEST PUSH2 0x10B8 PUSH2 0x1388 PUSH32 0x902923DCD4814F6CEF7005A70E01D5CF2035AB02D4523EF3B865F1D7BAB885AF SWAP3 DUP5 PUSH1 0x0 EQ PUSH2 0x1392 JUMPI PUSH2 0x10A9 DUP2 PUSH1 0x0 DUP1 MLOAD PUSH1 0x20 PUSH2 0x2B7B DUP4 CODECOPY DUP2 MLOAD SWAP2 MSTORE PUSH2 0xE94 JUMP JUMPDEST SWAP3 PUSH2 0x378 PUSH1 0x40 MLOAD SWAP1 JUMP JUMPDEST PUSH2 0x10A9 DUP2 PUSH1 0x0 DUP1 MLOAD PUSH1 0x20 PUSH2 0x2B7B DUP4 CODECOPY DUP2 MLOAD SWAP2 MSTORE PUSH2 0x1A76 JUMP JUMPDEST SWAP1 PUSH2 0x33C SWAP2 PUSH2 0x1324 JUMP JUMPDEST PUSH2 0x33C SWAP1 PUSH2 0x13CF PUSH1 0x0 DUP1 MLOAD PUSH1 0x20 PUSH2 0x2BBB DUP4 CODECOPY DUP2 MLOAD SWAP2 MSTORE PUSH2 0x1DA1 JUMP JUMPDEST PUSH2 0x13FE JUMP JUMPDEST SWAP1 PUSH1 0xFF SWAP1 JUMPDEST SWAP2 DUP2 NOT AND SWAP2 AND OR SWAP1 JUMP JUMPDEST SWAP1 PUSH2 0x13F3 PUSH2 0x352 PUSH2 0x13FA SWAP3 ISZERO ISZERO SWAP1 JUMP JUMPDEST DUP3 SLOAD PUSH2 0x13D4 JUMP JUMPDEST SWAP1 SSTORE JUMP JUMPDEST PUSH1 0x0 PUSH2 0x140E PUSH2 0x33C SWAP3 PUSH1 0x1 PUSH2 0x4DD JUMP JUMPDEST PUSH2 0x13E3 JUMP JUMPDEST PUSH2 0x33C SWAP1 PUSH2 0x13B4 JUMP JUMPDEST PUSH2 0x33C SWAP1 PUSH2 0x1437 PUSH1 0x0 DUP1 MLOAD PUSH1 0x20 PUSH2 0x2C1B DUP4 CODECOPY DUP2 MLOAD SWAP2 MSTORE PUSH2 0x1DA1 JUMP JUMPDEST PUSH2 0x144B SWAP1 PUSH2 0x10A9 PUSH1 0x0 PUSH2 0x140E DUP4 PUSH1 0x3 PUSH2 0x4DD JUMP JUMPDEST PUSH32 0xF915CD9FE234DE6E8D3AFE7BF2388D35B2B6D48E8C629A24602019BDE79C213A PUSH2 0x12C2 PUSH1 0x40 MLOAD SWAP1 JUMP JUMPDEST PUSH2 0x33C SWAP1 PUSH2 0x141C JUMP JUMPDEST PUSH2 0x33C SWAP2 SWAP1 PUSH2 0x149A PUSH1 0x0 DUP1 MLOAD PUSH1 0x20 PUSH2 0x2BFB DUP4 CODECOPY DUP2 MLOAD SWAP2 MSTORE PUSH2 0x114E JUMP JUMPDEST DUP1 PUSH2 0x14AE JUMPI JUMPDEST PUSH2 0x14A9 SWAP1 PUSH2 0x10E9 JUMP JUMPDEST PUSH2 0x14C7 JUMP JUMPDEST POP PUSH2 0x14A9 PUSH2 0x14C0 PUSH2 0x117B CALLER PUSH1 0x2 PUSH2 0x4DD JUMP JUMPDEST SWAP1 POP PUSH2 0x14A0 JUMP JUMPDEST SWAP1 PUSH2 0x33C SWAP2 PUSH2 0x2274 JUMP JUMPDEST SWAP1 PUSH2 0x33C SWAP2 PUSH2 0x147E JUMP JUMPDEST PUSH2 0x352 SWAP1 PUSH1 0x40 SHR PUSH2 0x4FE JUMP JUMPDEST PUSH2 0x352 SWAP1 SLOAD PUSH2 0x14DB JUMP JUMPDEST PUSH2 0x352 SWAP1 JUMPDEST PUSH8 0xFFFFFFFFFFFFFFFF AND SWAP1 JUMP JUMPDEST PUSH2 0x352 SWAP1 SLOAD PUSH2 0x14F1 JUMP JUMPDEST PUSH2 0x14F6 PUSH2 0x352 PUSH2 0x352 SWAP3 SWAP1 JUMP JUMPDEST SWAP1 PUSH8 0xFFFFFFFFFFFFFFFF SWAP1 PUSH2 0x13D9 JUMP JUMPDEST PUSH2 0x14F6 PUSH2 0x352 PUSH2 0x352 SWAP3 PUSH8 0xFFFFFFFFFFFFFFFF AND SWAP1 JUMP JUMPDEST SWAP1 PUSH2 0x1551 PUSH2 0x352 PUSH2 0x13FA SWAP3 PUSH2 0x152A JUMP JUMPDEST DUP3 SLOAD PUSH2 0x151A JUMP JUMPDEST SWAP1 PUSH9 0xFF0000000000000000 SWAP1 PUSH1 0x40 SHL PUSH2 0x13D9 JUMP JUMPDEST SWAP1 PUSH2 0x157C PUSH2 0x352 PUSH2 0x13FA SWAP3 ISZERO ISZERO SWAP1 JUMP JUMPDEST DUP3 SLOAD PUSH2 0x1558 JUMP JUMPDEST PUSH2 0x355 SWAP1 PUSH2 0x150D JUMP JUMPDEST PUSH1 0x20 DUP2 ADD SWAP3 SWAP2 PUSH2 0x33C SWAP2 SWAP1 PUSH2 0x1583 JUMP JUMPDEST PUSH2 0x15A4 PUSH2 0x2283 JUMP JUMPDEST DUP1 PUSH2 0x15BE PUSH2 0x15B8 PUSH2 0x15B4 DUP4 PUSH2 0x14E7 JUMP JUMPDEST ISZERO SWAP1 JUMP JUMPDEST SWAP2 PUSH2 0x1503 JUMP JUMPDEST PUSH1 0x0 SWAP2 PUSH2 0x15CA DUP4 PUSH2 0x150D JUMP JUMPDEST PUSH8 0xFFFFFFFFFFFFFFFF DUP4 AND EQ DUP1 PUSH2 0x16C5 JUMPI JUMPDEST PUSH1 0x1 SWAP3 PUSH2 0x15F9 PUSH2 0x15EB DUP6 PUSH2 0x150D JUMP JUMPDEST SWAP2 PUSH8 0xFFFFFFFFFFFFFFFF AND SWAP1 JUMP JUMPDEST EQ SWAP1 DUP2 PUSH2 0x169D JUMPI JUMPDEST ISZERO JUMPDEST SWAP1 DUP2 PUSH2 0x1694 JUMPI JUMPDEST POP PUSH2 0x1685 JUMPI DUP1 PUSH2 0x1626 DUP5 PUSH2 0x161D DUP6 PUSH2 0x150D JUMP JUMPDEST SWAP7 ADD SWAP6 DUP7 PUSH2 0x1541 JUMP JUMPDEST PUSH2 0x1676 JUMPI JUMPDEST PUSH2 0x1633 PUSH2 0x17E9 JUMP JUMPDEST PUSH2 0x163C JUMPI POP POP POP JUMP JUMPDEST PUSH2 0x166A PUSH2 0xF41 SWAP3 PUSH32 0xC7F505B2F371AE2175EE4913F4499E1F2633A7B5936321EED1CDAEB6115181D2 SWAP5 PUSH2 0x156C JUMP JUMPDEST PUSH1 0x40 MLOAD SWAP2 DUP3 SWAP2 DUP3 PUSH2 0x158C JUMP JUMPDEST PUSH2 0x1680 DUP3 DUP6 PUSH2 0x156C JUMP JUMPDEST PUSH2 0x162B JUMP JUMPDEST PUSH4 0xF92EE8A9 PUSH1 0xE0 SHL DUP4 MSTORE PUSH1 0x4 DUP4 REVERT JUMPDEST ISZERO SWAP1 POP CODESIZE PUSH2 0x160A JUMP JUMPDEST SWAP1 POP PUSH2 0x1603 PUSH2 0x16AB ADDRESS PUSH2 0x4D4 JUMP JUMPDEST EXTCODESIZE PUSH2 0x16BC PUSH2 0x16B8 DUP8 PUSH2 0x9B9 JUMP JUMPDEST SWAP2 SWAP1 JUMP JUMPDEST EQ SWAP2 SWAP1 POP PUSH2 0x1601 JUMP JUMPDEST POP DUP1 PUSH2 0x15DC JUMP JUMPDEST PUSH2 0x16D6 PUSH1 0xB PUSH2 0xA0F JUMP JUMPDEST PUSH11 0x2727A7A924902A27A5A2A7 PUSH1 0xA9 SHL PUSH1 0x20 DUP3 ADD MSTORE SWAP1 JUMP JUMPDEST PUSH2 0x352 PUSH2 0x16CC JUMP JUMPDEST PUSH2 0x16FF PUSH1 0x5 PUSH2 0xA0F JUMP JUMPDEST PUSH5 0x4E4F4F5249 PUSH1 0xD8 SHL PUSH1 0x20 DUP3 ADD MSTORE SWAP1 JUMP JUMPDEST PUSH2 0x352 PUSH2 0x16F5 JUMP JUMPDEST SWAP2 PUSH1 0x0 NOT PUSH1 0x8 SWAP3 SWAP1 SWAP3 MUL SWAP2 DUP3 SHL SWAP2 SHL PUSH2 0x13D9 JUMP JUMPDEST SWAP2 SWAP1 PUSH2 0x173D PUSH2 0x352 PUSH2 0x13FA SWAP4 PUSH2 0x9B9 JUMP JUMPDEST SWAP1 DUP4 SLOAD PUSH2 0x1718 JUMP JUMPDEST PUSH2 0x33C SWAP2 PUSH1 0x0 SWAP2 PUSH2 0x172C JUMP JUMPDEST DUP2 DUP2 LT PUSH2 0x175C JUMPI POP POP JUMP JUMPDEST DUP1 PUSH2 0x176A PUSH1 0x0 PUSH1 0x1 SWAP4 PUSH2 0x1745 JUMP JUMPDEST ADD PUSH2 0x1751 JUMP JUMPDEST SWAP2 SWAP1 PUSH1 0x1F DUP2 GT PUSH2 0x177F JUMPI POP POP POP JUMP JUMPDEST PUSH2 0x1791 PUSH2 0x33C SWAP4 PUSH1 0x0 MSTORE PUSH1 0x20 PUSH1 0x0 KECCAK256 SWAP1 JUMP JUMPDEST SWAP1 PUSH1 0x20 PUSH1 0x1F DUP5 ADD DUP2 SWAP1 DIV DUP4 ADD SWAP4 LT PUSH2 0x17B3 JUMPI JUMPDEST PUSH1 0x20 PUSH1 0x1F SWAP1 SWAP2 ADD DIV ADD SWAP1 PUSH2 0x1751 JUMP JUMPDEST SWAP1 SWAP2 POP DUP2 SWAP1 PUSH2 0x17A4 JUMP JUMPDEST PUSH2 0x17D2 PUSH1 0x3 PUSH2 0x17CC DUP4 SLOAD PUSH2 0xB99 JUMP JUMPDEST DUP4 PUSH2 0x1770 JUMP JUMPDEST PUSH1 0x6 PUSH3 0x1554D1 PUSH1 0xEA SHL ADD SWAP1 SSTORE JUMP JUMPDEST PUSH2 0x33C SWAP1 PUSH2 0x17BD JUMP JUMPDEST PUSH2 0x1802 PUSH2 0x17F4 PUSH2 0x16ED JUMP JUMPDEST PUSH2 0x17FC PUSH2 0x1710 JUMP JUMPDEST SWAP1 PUSH2 0x22A2 JUMP JUMPDEST PUSH2 0x180A PUSH2 0x22B4 JUMP JUMPDEST PUSH2 0x1812 PUSH2 0x22B4 JUMP JUMPDEST PUSH2 0x181A PUSH2 0x22B4 JUMP JUMPDEST PUSH2 0x1822 PUSH2 0x22B4 JUMP JUMPDEST PUSH2 0x182B CALLER PUSH2 0x22D1 JUMP JUMPDEST PUSH2 0x183D PUSH2 0x1836 PUSH2 0x9C6 JUMP JUMPDEST CALLER SWAP1 PUSH2 0x1DAC JUMP JUMPDEST POP PUSH2 0x1855 PUSH1 0x0 DUP1 MLOAD PUSH1 0x20 PUSH2 0x2C1B DUP4 CODECOPY DUP2 MLOAD SWAP2 MSTORE PUSH2 0x1836 JUMP JUMPDEST POP PUSH2 0x186D PUSH1 0x0 DUP1 MLOAD PUSH1 0x20 PUSH2 0x2B9B DUP4 CODECOPY DUP2 MLOAD SWAP2 MSTORE PUSH2 0x1836 JUMP JUMPDEST POP PUSH2 0x1885 PUSH1 0x0 DUP1 MLOAD PUSH1 0x20 PUSH2 0x2B7B DUP4 CODECOPY DUP2 MLOAD SWAP2 MSTORE PUSH2 0x1836 JUMP JUMPDEST POP PUSH2 0x18AF PUSH32 0x189AB7A9244DF0848122154315AF71FE140F3DB0FE014031783B0946B8C9D2E3 PUSH2 0x1836 JUMP JUMPDEST POP PUSH2 0x18C7 PUSH1 0x0 DUP1 MLOAD PUSH1 0x20 PUSH2 0x2BBB DUP4 CODECOPY DUP2 MLOAD SWAP2 MSTORE PUSH2 0x1836 JUMP JUMPDEST POP PUSH2 0x18DF PUSH1 0x0 DUP1 MLOAD PUSH1 0x20 PUSH2 0x2BFB DUP4 CODECOPY DUP2 MLOAD SWAP2 MSTORE PUSH2 0x1836 JUMP JUMPDEST POP PUSH2 0x33C PUSH1 0x0 PUSH2 0x17E0 JUMP JUMPDEST PUSH2 0x33C PUSH2 0x159C JUMP JUMPDEST PUSH2 0x1909 PUSH1 0x0 DUP1 MLOAD PUSH1 0x20 PUSH2 0x2B7B DUP4 CODECOPY DUP2 MLOAD SWAP2 MSTORE PUSH2 0x1DA1 JUMP JUMPDEST PUSH2 0x33C PUSH2 0x1914 PUSH2 0x233C JUMP JUMPDEST PUSH32 0x5EE71A369C8672EDDED508E624FFC9257FA1AE6886EF32905C18E60196BCA399 PUSH2 0xF38 PUSH1 0x40 MLOAD SWAP1 JUMP JUMPDEST PUSH2 0x33C PUSH2 0x18F2 JUMP JUMPDEST PUSH2 0x352 SWAP1 PUSH2 0x429 JUMP JUMPDEST PUSH2 0x352 SWAP1 SLOAD PUSH2 0x1946 JUMP JUMPDEST PUSH2 0x352 PUSH1 0x0 PUSH32 0x9016D09D72D40FDAE2FD8CEAC6B6234C7706214FD39C1CD1E609A0528C199300 JUMPDEST ADD PUSH2 0x194F JUMP JUMPDEST PUSH2 0x352 SWAP2 PUSH1 0x0 PUSH2 0x12F4 PUSH2 0x117B SWAP4 PUSH2 0x199B PUSH1 0x0 SWAP1 JUMP JUMPDEST POP DUP3 PUSH1 0x0 DUP1 MLOAD PUSH1 0x20 PUSH2 0x2BDB DUP4 CODECOPY DUP2 MLOAD SWAP2 MSTORE PUSH2 0xE6B JUMP JUMPDEST PUSH2 0x352 PUSH1 0x4 PUSH1 0x0 DUP1 MLOAD PUSH1 0x20 PUSH2 0x2B5B DUP4 CODECOPY DUP2 MLOAD SWAP2 MSTORE PUSH2 0xDE8 JUMP JUMPDEST PUSH2 0xDF9 SWAP2 SWAP1 CALLER PUSH2 0x1D15 JUMP JUMPDEST PUSH2 0x33C SWAP2 SWAP1 PUSH2 0x19F1 PUSH1 0x0 DUP1 MLOAD PUSH1 0x20 PUSH2 0x2C1B DUP4 CODECOPY DUP2 MLOAD SWAP2 MSTORE PUSH2 0x1DA1 JUMP JUMPDEST PUSH2 0x10B8 PUSH2 0x1388 PUSH32 0xB21AFB9CE9BE0A676F8F317FF0CA072FB89A4F8CE2D1B6FE80F8755C14F1CB19 SWAP3 DUP5 PUSH1 0x0 EQ PUSH2 0x1A39 JUMPI PUSH2 0x10A9 DUP2 PUSH1 0x0 DUP1 MLOAD PUSH1 0x20 PUSH2 0x2B9B DUP4 CODECOPY DUP2 MLOAD SWAP2 MSTORE PUSH2 0xE94 JUMP JUMPDEST PUSH2 0x10A9 DUP2 PUSH1 0x0 DUP1 MLOAD PUSH1 0x20 PUSH2 0x2B9B DUP4 CODECOPY DUP2 MLOAD SWAP2 MSTORE PUSH2 0x1A76 JUMP JUMPDEST SWAP1 PUSH2 0x33C SWAP2 PUSH2 0x19D5 JUMP JUMPDEST SWAP1 PUSH2 0x33C SWAP2 PUSH2 0x1A6C PUSH2 0xE82 DUP3 PUSH2 0xE47 JUMP JUMPDEST SWAP1 PUSH2 0xE91 SWAP2 PUSH2 0x1E3A JUMP JUMPDEST SWAP1 PUSH2 0x33C SWAP2 PUSH2 0x1A5B JUMP JUMPDEST PUSH2 0x352 SWAP2 PUSH2 0x1AAA PUSH2 0x12FA SWAP3 PUSH2 0x1A93 PUSH1 0x0 SWAP1 JUMP JUMPDEST POP PUSH1 0x1 PUSH1 0x0 DUP1 MLOAD PUSH1 0x20 PUSH2 0x2B5B DUP4 CODECOPY DUP2 MLOAD SWAP2 MSTORE PUSH2 0x12F4 JUMP JUMPDEST PUSH2 0x4DD JUMP JUMPDEST PUSH2 0x117B PUSH2 0x352 SWAP2 PUSH2 0x1ABE PUSH1 0x0 SWAP1 JUMP JUMPDEST POP PUSH1 0x3 PUSH2 0x4DD JUMP JUMPDEST PUSH2 0x33C SWAP2 SWAP1 PUSH2 0x1AE2 PUSH1 0x0 DUP1 MLOAD PUSH1 0x20 PUSH2 0x2C1B DUP4 CODECOPY DUP2 MLOAD SWAP2 MSTORE PUSH2 0x1DA1 JUMP JUMPDEST PUSH2 0x10B8 PUSH2 0x1388 PUSH32 0xC11208A19C10526C5B56FF36E4790217719CBE00BDA41649D1D47B0D1D5D5C0D SWAP3 DUP5 PUSH1 0x0 EQ PUSH2 0x1B3B JUMPI PUSH2 0x1B2A DUP2 PUSH1 0x0 DUP1 MLOAD PUSH1 0x20 PUSH2 0x2BFB DUP4 CODECOPY DUP2 MLOAD SWAP2 MSTORE PUSH2 0x1DAC JUMP JUMPDEST POP JUMPDEST PUSH2 0x10A9 DUP6 PUSH2 0x140E DUP4 PUSH1 0x2 PUSH2 0x4DD JUMP JUMPDEST PUSH2 0x1B53 DUP2 PUSH1 0x0 DUP1 MLOAD PUSH1 0x20 PUSH2 0x2BFB DUP4 CODECOPY DUP2 MLOAD SWAP2 MSTORE PUSH2 0x1E3A JUMP JUMPDEST POP PUSH2 0x1B2C JUMP JUMPDEST SWAP1 PUSH2 0x33C SWAP2 PUSH2 0x1AC6 JUMP JUMPDEST PUSH2 0x33C SWAP1 PUSH2 0x1B7E PUSH1 0x0 DUP1 MLOAD PUSH1 0x20 PUSH2 0x2C1B DUP4 CODECOPY DUP2 MLOAD SWAP2 MSTORE PUSH2 0x1DA1 JUMP JUMPDEST PUSH2 0x1B92 SWAP1 PUSH2 0x10A9 PUSH1 0x1 PUSH2 0x140E DUP4 PUSH1 0x3 PUSH2 0x4DD JUMP JUMPDEST PUSH32 0x4F2A367E694E71282F29AB5EAA04C4C0BE45AC5BF2CA74FB67068B98BDC2887D PUSH2 0x12C2 PUSH1 0x40 MLOAD SWAP1 JUMP JUMPDEST PUSH2 0x33C SWAP1 PUSH2 0x1B63 JUMP JUMPDEST PUSH2 0x33C SWAP1 PUSH2 0x1BD1 PUSH2 0x21A4 JUMP JUMPDEST PUSH1 0x0 PUSH2 0x1BDC DUP2 PUSH2 0xF7C JUMP JUMPDEST PUSH1 0x1 PUSH1 0x1 PUSH1 0xA0 SHL SUB DUP2 AND PUSH1 0x1 PUSH1 0x1 PUSH1 0xA0 SHL SUB DUP5 AND EQ PUSH2 0x1C00 JUMPI POP POP PUSH2 0x33C SWAP1 PUSH2 0x2207 JUMP JUMPDEST PUSH4 0x1E4FBDF7 PUSH1 0xE0 SHL DUP3 MSTORE PUSH1 0x1 PUSH1 0x1 PUSH1 0xA0 SHL SUB AND PUSH1 0x4 DUP3 ADD MSTORE PUSH1 0x24 SWAP1 REVERT JUMPDEST PUSH2 0x33C SWAP1 PUSH2 0x1BC5 JUMP JUMPDEST PUSH2 0x33C SWAP1 PUSH2 0x1C41 PUSH1 0x0 DUP1 MLOAD PUSH1 0x20 PUSH2 0x2BBB DUP4 CODECOPY DUP2 MLOAD SWAP2 MSTORE PUSH2 0x1DA1 JUMP JUMPDEST PUSH1 0x1 PUSH2 0x140E PUSH2 0x33C SWAP3 DUP3 PUSH2 0x4DD JUMP JUMPDEST PUSH2 0x33C SWAP1 PUSH2 0x1C26 JUMP JUMPDEST PUSH4 0x7965DB0B PUSH1 0xE0 SHL PUSH1 0x1 PUSH1 0x1 PUSH1 0xE0 SHL SUB NOT DUP3 AND EQ SWAP1 DUP2 ISZERO PUSH2 0x1C78 JUMPI POP SWAP1 JUMP JUMPDEST PUSH2 0x352 SWAP2 POP PUSH2 0x2344 JUMP JUMPDEST SWAP2 PUSH1 0x1 SWAP2 PUSH2 0x33C SWAP4 PUSH2 0x2375 JUMP JUMPDEST PUSH1 0x1 PUSH1 0x1 PUSH1 0xA0 SHL SUB SWAP1 SWAP2 AND DUP2 MSTORE PUSH1 0x60 DUP2 ADD SWAP4 SWAP3 PUSH2 0x33C SWAP3 SWAP1 SWAP2 PUSH1 0x40 SWAP2 PUSH2 0x1CB6 SWAP1 PUSH1 0x20 DUP4 ADD MSTORE JUMP JUMPDEST ADD MSTORE JUMP JUMPDEST SWAP2 PUSH2 0x1CC5 DUP3 DUP5 PUSH2 0x1A80 JUMP JUMPDEST PUSH1 0x0 NOT DUP2 LT PUSH2 0x1CD5 JUMPI JUMPDEST POP POP POP POP JUMP JUMPDEST DUP2 DUP2 LT PUSH2 0x1CFB JUMPI SWAP2 PUSH2 0x1CEC PUSH2 0x1CF2 SWAP5 SWAP3 PUSH1 0x0 SWAP5 SUB SWAP1 JUMP JUMPDEST SWAP2 PUSH2 0x2375 JUMP JUMPDEST CODESIZE DUP1 DUP1 DUP1 PUSH2 0x1CCF JUMP JUMPDEST PUSH4 0x7DC7A0D9 PUSH1 0xE1 SHL PUSH1 0x0 SWAP1 DUP2 MSTORE SWAP4 POP PUSH2 0xEE7 SWAP3 PUSH1 0x4 PUSH2 0x1C8F JUMP JUMPDEST SWAP3 SWAP2 SWAP1 PUSH1 0x0 SWAP4 PUSH2 0x1D24 DUP6 PUSH2 0xF7C JUMP JUMPDEST DUP6 PUSH1 0x1 PUSH1 0x1 PUSH1 0xA0 SHL SUB DUP3 AND PUSH1 0x1 PUSH1 0x1 PUSH1 0xA0 SHL SUB DUP5 AND EQ PUSH2 0x1D81 JUMPI POP PUSH1 0x1 PUSH1 0x1 PUSH1 0xA0 SHL SUB DUP2 AND PUSH1 0x1 PUSH1 0x1 PUSH1 0xA0 SHL SUB DUP5 AND EQ PUSH2 0x1D64 JUMPI POP PUSH2 0x33C SWAP4 SWAP5 POP PUSH2 0x25EF JUMP JUMPDEST PUSH4 0xEC442F05 PUSH1 0xE0 SHL DUP7 MSTORE PUSH1 0x1 PUSH1 0x1 PUSH1 0xA0 SHL SUB AND PUSH1 0x4 DUP7 ADD MSTORE PUSH1 0x24 DUP6 REVERT JUMPDEST PUSH4 0x4B637E8F PUSH1 0xE1 SHL DUP2 MSTORE PUSH1 0x1 PUSH1 0x1 PUSH1 0xA0 SHL SUB SWAP2 SWAP1 SWAP2 AND PUSH1 0x4 DUP3 ADD MSTORE PUSH1 0x24 SWAP1 REVERT JUMPDEST PUSH2 0x33C SWAP1 CALLER SWAP1 PUSH2 0x2617 JUMP JUMPDEST PUSH1 0x0 DUP1 MLOAD PUSH1 0x20 PUSH2 0x2BDB DUP4 CODECOPY DUP2 MLOAD SWAP2 MSTORE PUSH2 0x1DC8 PUSH2 0x15B4 DUP5 DUP5 PUSH2 0x1986 JUMP JUMPDEST ISZERO PUSH2 0x1E32 JUMPI PUSH1 0x1 PUSH2 0x140E DUP5 PUSH1 0x0 PUSH2 0x12F4 DUP7 DUP3 PUSH2 0x1DE4 SWAP8 ADD PUSH2 0xE41 JUMP JUMPDEST PUSH2 0x1DFE PUSH2 0x1DF8 PUSH2 0x1DF2 CALLER SWAP4 SWAP1 JUMP JUMPDEST SWAP4 PUSH2 0x4D4 JUMP JUMPDEST SWAP2 PUSH2 0x4D4 JUMP JUMPDEST SWAP2 PUSH32 0x2F8788117E7EFF1D82E926EC794901D17C78024A50270940304540A733656F0D PUSH2 0x1E29 PUSH1 0x40 MLOAD SWAP1 JUMP JUMPDEST PUSH1 0x0 SWAP1 LOG4 PUSH1 0x1 SWAP1 JUMP JUMPDEST POP POP POP PUSH1 0x0 SWAP1 JUMP JUMPDEST PUSH1 0x0 DUP1 MLOAD PUSH1 0x20 PUSH2 0x2BDB DUP4 CODECOPY DUP2 MLOAD SWAP2 MSTORE PUSH2 0x1E53 DUP4 DUP4 PUSH2 0x1986 JUMP JUMPDEST ISZERO PUSH2 0x1E32 JUMPI PUSH1 0x0 PUSH2 0x140E DUP5 DUP3 PUSH2 0x12F4 DUP7 DUP3 PUSH2 0x1E6E SWAP8 ADD PUSH2 0xE41 JUMP JUMPDEST PUSH2 0x1E7C PUSH2 0x1DF8 PUSH2 0x1DF2 CALLER SWAP4 SWAP1 JUMP JUMPDEST SWAP2 PUSH32 0xF6391F5C32D9C69D2A47EA670B442974B53935D1EDC7FD64EB21E047A839171B PUSH2 0x1E29 PUSH1 0x40 MLOAD SWAP1 JUMP JUMPDEST PUSH2 0x1EAF PUSH2 0x2646 JUMP JUMPDEST PUSH2 0x33C PUSH2 0x1EE0 PUSH1 0x0 DUP1 PUSH32 0xCD5ED15C6E187E77E9AEE88184C21F4F2182AB5827CB3B7E07FBEDCD63F03300 JUMPDEST ADD PUSH2 0x13E3 JUMP JUMPDEST PUSH32 0x5DB9EE0A495BF2E6FF9C91A7834C1BA4FDD244A5E8AA4E537BD38AEAE4B073AA PUSH2 0xF41 CALLER PUSH2 0x968 JUMP JUMPDEST PUSH2 0x33C PUSH2 0x1EA7 JUMP JUMPDEST SWAP2 SWAP1 PUSH1 0x0 SWAP3 PUSH2 0x1F20 DUP5 PUSH2 0xF7C JUMP JUMPDEST PUSH1 0x1 PUSH1 0x1 PUSH1 0xA0 SHL SUB DUP2 AND PUSH1 0x1 PUSH1 0x1 PUSH1 0xA0 SHL SUB DUP4 AND EQ PUSH2 0x1F44 JUMPI PUSH2 0x33C SWAP4 SWAP5 POP PUSH2 0x25EF JUMP JUMPDEST PUSH4 0xEC442F05 PUSH1 0xE0 SHL DUP6 MSTORE PUSH1 0x1 PUSH1 0x1 PUSH1 0xA0 SHL SUB AND PUSH1 0x4 DUP6 ADD MSTORE PUSH1 0x24 DUP5 REVERT JUMPDEST SWAP2 SWAP1 PUSH1 0x0 SWAP3 PUSH2 0x1F6F DUP5 PUSH2 0xF7C JUMP JUMPDEST SWAP1 PUSH1 0x1 PUSH1 0x1 PUSH1 0xA0 SHL SUB DUP3 AND PUSH1 0x1 PUSH1 0x1 PUSH1 0xA0 SHL SUB DUP3 AND EQ PUSH2 0x1F94 JUMPI PUSH2 0x33C SWAP4 SWAP5 POP PUSH2 0x25EF JUMP JUMPDEST PUSH4 0x4B637E8F PUSH1 0xE1 SHL DUP6 MSTORE PUSH1 0x1 PUSH1 0x1 PUSH1 0xA0 SHL SUB DUP3 AND PUSH1 0x4 DUP7 ADD MSTORE PUSH1 0x24 DUP6 REVERT JUMPDEST PUSH2 0x1FBB ADDRESS PUSH2 0x4D4 JUMP JUMPDEST PUSH32 0x0 SWAP1 PUSH2 0x1FF8 PUSH1 0x1 PUSH1 0x1 PUSH1 0xA0 SHL SUB DUP4 AND JUMPDEST SWAP2 PUSH1 0x1 PUSH1 0x1 PUSH1 0xA0 SHL SUB AND SWAP1 JUMP JUMPDEST EQ SWAP1 DUP2 ISZERO PUSH2 0x201A JUMPI JUMPDEST POP PUSH2 0x2008 JUMPI JUMP JUMPDEST PUSH4 0x703E46DD PUSH1 0xE1 SHL PUSH1 0x0 SWAP1 DUP2 MSTORE PUSH1 0x4 SWAP1 REVERT JUMPDEST SWAP1 POP PUSH2 0x2037 PUSH2 0x1FEB PUSH2 0x202A PUSH2 0x2669 JUMP JUMPDEST SWAP3 PUSH1 0x1 PUSH1 0x1 PUSH1 0xA0 SHL SUB AND SWAP1 JUMP JUMPDEST EQ ISZERO CODESIZE PUSH2 0x2001 JUMP JUMPDEST POP PUSH2 0x33C PUSH32 0x189AB7A9244DF0848122154315AF71FE140F3DB0FE014031783B0946B8C9D2E3 PUSH2 0x1DA1 JUMP JUMPDEST PUSH2 0x33C SWAP1 PUSH2 0x203F JUMP JUMPDEST SWAP1 POP MLOAD SWAP1 PUSH2 0x33C DUP3 PUSH2 0x451 JUMP JUMPDEST SWAP1 PUSH1 0x20 DUP3 DUP3 SUB SLT PUSH2 0x32A JUMPI PUSH2 0x352 SWAP2 PUSH2 0x2072 JUMP JUMPDEST SWAP1 PUSH2 0x20A0 PUSH2 0x10A9 DUP4 PUSH2 0x4D4 JUMP JUMPDEST SWAP1 PUSH1 0x20 PUSH2 0x20AC PUSH1 0x40 MLOAD SWAP1 JUMP JUMPDEST PUSH4 0x52D1902D PUSH1 0xE0 SHL DUP2 MSTORE SWAP3 DUP4 SWAP1 PUSH1 0x4 SWAP1 DUP3 SWAP1 GAS STATICCALL PUSH1 0x0 SWAP3 DUP2 PUSH2 0x2131 JUMPI JUMPDEST POP PUSH2 0x20FB JUMPI POP POP PUSH1 0x1 PUSH2 0x20D9 JUMPI POP JUMP JUMPDEST PUSH4 0x4C9C8CE3 PUSH1 0xE0 SHL PUSH1 0x0 SWAP1 DUP2 MSTORE PUSH1 0x1 PUSH1 0x1 PUSH1 0xA0 SHL SUB SWAP1 SWAP2 AND PUSH1 0x4 MSTORE PUSH1 0x24 SUB PUSH1 0x0 REVERT JUMPDEST SWAP1 SWAP3 SWAP2 PUSH2 0x2109 PUSH2 0x352 PUSH2 0x11FC JUMP JUMPDEST DUP5 SUB PUSH2 0x211A JUMPI PUSH2 0x33C SWAP3 SWAP4 POP PUSH2 0x2679 JUMP JUMPDEST PUSH4 0x2A875269 PUSH1 0xE2 SHL PUSH1 0x0 SWAP1 DUP2 MSTORE PUSH1 0x4 DUP6 SWAP1 MSTORE PUSH1 0x24 SWAP1 REVERT JUMPDEST PUSH2 0x2154 SWAP2 SWAP4 POP PUSH1 0x20 RETURNDATASIZE PUSH1 0x20 GT PUSH2 0x215B JUMPI JUMPDEST PUSH2 0x214C DUP2 DUP4 PUSH2 0x6E3 JUMP JUMPDEST DUP2 ADD SWAP1 PUSH2 0x207F JUMP JUMPDEST SWAP2 CODESIZE PUSH2 0x20C9 JUMP JUMPDEST POP RETURNDATASIZE PUSH2 0x2142 JUMP JUMPDEST PUSH2 0x216B ADDRESS PUSH2 0x4D4 JUMP JUMPDEST PUSH2 0x219D PUSH1 0x1 PUSH1 0x1 PUSH1 0xA0 SHL SUB PUSH32 0x0 AND PUSH2 0x1FEB JUMP JUMPDEST SUB PUSH2 0x2008 JUMPI JUMP JUMPDEST PUSH2 0x21AC PUSH2 0x1959 JUMP JUMPDEST CALLER SWAP1 PUSH2 0x21B7 DUP3 PUSH2 0x1FEB JUMP JUMPDEST SUB PUSH2 0x21BF JUMPI POP JUMP JUMPDEST PUSH4 0x118CDAA7 PUSH1 0xE0 SHL PUSH1 0x0 SWAP1 DUP2 MSTORE PUSH1 0x1 PUSH1 0x1 PUSH1 0xA0 SHL SUB SWAP1 SWAP2 AND PUSH1 0x4 MSTORE PUSH1 0x24 SUB PUSH1 0x0 REVERT JUMPDEST SWAP1 PUSH1 0x1 PUSH1 0x1 PUSH1 0xA0 SHL SUB SWAP1 PUSH2 0x13D9 JUMP JUMPDEST SWAP1 PUSH2 0x2200 PUSH2 0x352 PUSH2 0x13FA SWAP3 PUSH2 0x4D4 JUMP JUMPDEST DUP3 SLOAD PUSH2 0x21E1 JUMP JUMPDEST PUSH2 0x2241 PUSH2 0x1DF8 PUSH32 0x9016D09D72D40FDAE2FD8CEAC6B6234C7706214FD39C1CD1E609A0528C199300 PUSH2 0x10A9 DUP5 PUSH2 0x223B DUP4 PUSH2 0x194F JUMP JUMPDEST SWAP3 PUSH2 0x21F0 JUMP JUMPDEST SWAP1 PUSH32 0x8BE0079C531659141344CD1FD0A4F28419497F9722A3DAAFE3B4186F6B6457E0 PUSH2 0x226C PUSH1 0x40 MLOAD SWAP1 JUMP JUMPDEST DUP1 DUP1 JUMPDEST SUB SWAP1 LOG3 JUMP JUMPDEST PUSH2 0x33C SWAP2 SWAP1 PUSH2 0x10D1 DUP3 CALLER PUSH2 0xE36 JUMP JUMPDEST PUSH2 0x352 PUSH2 0x270B JUMP JUMPDEST SWAP1 PUSH2 0x33C SWAP2 PUSH2 0x2298 PUSH2 0x2713 JUMP JUMPDEST SWAP1 PUSH2 0x33C SWAP2 PUSH2 0x2854 JUMP JUMPDEST SWAP1 PUSH2 0x33C SWAP2 PUSH2 0x228B JUMP JUMPDEST PUSH2 0x33C PUSH2 0x2713 JUMP JUMPDEST PUSH2 0x33C PUSH2 0x22AC JUMP JUMPDEST PUSH2 0x33C SWAP1 PUSH2 0x22C8 PUSH2 0x2713 JUMP JUMPDEST PUSH2 0x33C SWAP1 PUSH2 0x286A JUMP JUMPDEST PUSH2 0x33C SWAP1 PUSH2 0x22BC JUMP JUMPDEST PUSH2 0x22E2 PUSH2 0x2873 JUMP JUMPDEST PUSH2 0x33C PUSH2 0x2312 PUSH1 0x1 PUSH1 0x0 PUSH32 0xCD5ED15C6E187E77E9AEE88184C21F4F2182AB5827CB3B7E07FBEDCD63F03300 PUSH2 0x1EDA JUMP JUMPDEST PUSH32 0x62E78CEA01BEE320CD4E420270B5EA74000D11B0C9F74754EBDBFC544B05A258 PUSH2 0xF41 CALLER PUSH2 0x968 JUMP JUMPDEST PUSH2 0x33C PUSH2 0x22DA JUMP JUMPDEST PUSH2 0xDC6 PUSH4 0x1FFC9A7 PUSH1 0xE0 SHL PUSH2 0xDB8 JUMP JUMPDEST SWAP1 PUSH1 0x0 NOT SWAP1 PUSH2 0x13D9 JUMP JUMPDEST SWAP1 PUSH2 0x236E PUSH2 0x352 PUSH2 0x13FA SWAP3 PUSH2 0x9B9 JUMP JUMPDEST DUP3 SLOAD PUSH2 0x2354 JUMP JUMPDEST SWAP1 SWAP2 SWAP3 PUSH2 0x238D PUSH1 0x0 DUP1 MLOAD PUSH1 0x20 PUSH2 0x2B5B DUP4 CODECOPY DUP2 MLOAD SWAP2 MSTORE SWAP1 JUMP JUMPDEST PUSH1 0x0 PUSH2 0x2398 DUP2 PUSH2 0xF7C JUMP JUMPDEST PUSH1 0x1 PUSH1 0x1 PUSH1 0xA0 SHL SUB DUP2 AND PUSH1 0x1 PUSH1 0x1 PUSH1 0xA0 SHL SUB DUP7 AND EQ PUSH2 0x2446 JUMPI PUSH1 0x1 PUSH1 0x1 PUSH1 0xA0 SHL SUB DUP2 AND PUSH1 0x1 PUSH1 0x1 PUSH1 0xA0 SHL SUB DUP8 AND EQ PUSH2 0x2429 JUMPI POP POP DUP5 PUSH2 0x23E1 DUP6 PUSH2 0x1AAA DUP7 PUSH1 0x1 PUSH2 0x23E6 SWAP7 ADD PUSH2 0x4DD JUMP JUMPDEST PUSH2 0x235E JUMP JUMPDEST PUSH2 0x23EF JUMPI POP POP POP JUMP JUMPDEST PUSH2 0x226F PUSH2 0x241F PUSH2 0x1DF2 PUSH32 0x8C5BE1E5EBEC7D5BD14F71427D1E84F3DD0314C0F7B2291E5B200AC8C7C3B925 SWAP4 PUSH2 0x4D4 JUMP JUMPDEST SWAP4 PUSH2 0x55E PUSH1 0x40 MLOAD SWAP1 JUMP JUMPDEST PUSH4 0x4A1406B1 PUSH1 0xE1 SHL DUP3 MSTORE PUSH1 0x1 PUSH1 0x1 PUSH1 0xA0 SHL SUB AND PUSH1 0x4 DUP3 ADD MSTORE PUSH1 0x24 SWAP1 REVERT JUMPDEST PUSH4 0xE602DF05 PUSH1 0xE0 SHL DUP3 MSTORE PUSH1 0x1 PUSH1 0x1 PUSH1 0xA0 SHL SUB AND PUSH1 0x4 DUP3 ADD MSTORE PUSH1 0x24 SWAP1 REVERT JUMPDEST SWAP1 PUSH2 0x33C SWAP3 SWAP2 PUSH2 0x2471 PUSH2 0x2873 JUMP JUMPDEST PUSH2 0x2576 JUMP JUMPDEST ISZERO PUSH2 0x247D JUMPI JUMP JUMPDEST PUSH1 0x40 MLOAD PUSH3 0x461BCD PUSH1 0xE5 SHL DUP2 MSTORE PUSH1 0x20 PUSH1 0x4 DUP3 ADD MSTORE PUSH1 0x1D PUSH1 0x24 DUP3 ADD MSTORE PUSH32 0x4E4F4F52493A206163636F756E7420697320626C61636B6C6973746564000000 PUSH1 0x44 DUP3 ADD MSTORE PUSH1 0x64 SWAP1 REVERT JUMPDEST ISZERO PUSH2 0x24C9 JUMPI JUMP JUMPDEST PUSH1 0x40 MLOAD PUSH3 0x461BCD PUSH1 0xE5 SHL DUP2 MSTORE PUSH1 0x20 PUSH1 0x4 DUP3 ADD MSTORE PUSH1 0x24 DUP1 DUP3 ADD MSTORE PUSH32 0x4E6F6F7269546F6B656E3A2073656E646572206163636F756E74206973206672 PUSH1 0x44 DUP3 ADD MSTORE PUSH4 0x37BD32B7 PUSH1 0xE1 SHL PUSH1 0x64 DUP3 ADD MSTORE PUSH1 0x84 SWAP1 REVERT JUMPDEST ISZERO PUSH2 0x2521 JUMPI JUMP JUMPDEST PUSH1 0x40 MLOAD PUSH3 0x461BCD PUSH1 0xE5 SHL DUP2 MSTORE PUSH1 0x20 PUSH1 0x4 DUP3 ADD MSTORE PUSH1 0x27 PUSH1 0x24 DUP3 ADD MSTORE PUSH32 0x4E6F6F7269546F6B656E3A20726563697069656E74206163636F756E74206973 PUSH1 0x44 DUP3 ADD MSTORE PUSH7 0x10333937BD32B7 PUSH1 0xC9 SHL PUSH1 0x64 DUP3 ADD MSTORE PUSH1 0x84 SWAP1 REVERT JUMPDEST SWAP1 PUSH2 0x33C SWAP3 SWAP2 PUSH2 0x258D PUSH2 0x15B4 PUSH2 0x117B DUP4 PUSH1 0x1 PUSH2 0x4DD JUMP JUMPDEST DUP1 PUSH2 0x25D3 JUMPI JUMPDEST PUSH2 0x259C SWAP1 PUSH2 0x2476 JUMP JUMPDEST PUSH2 0x25B5 PUSH2 0x25B0 PUSH2 0x15B4 PUSH2 0x117B DUP5 PUSH1 0x3 PUSH2 0x4DD JUMP JUMPDEST PUSH2 0x24C2 JUMP JUMPDEST PUSH2 0x25CE PUSH2 0x25C9 PUSH2 0x15B4 PUSH2 0x117B DUP6 PUSH1 0x3 PUSH2 0x4DD JUMP JUMPDEST PUSH2 0x251A JUMP JUMPDEST PUSH2 0x28BB JUMP JUMPDEST POP PUSH2 0x259C PUSH2 0x25E8 PUSH2 0x15B4 PUSH2 0x117B DUP6 PUSH1 0x1 PUSH2 0x4DD JUMP JUMPDEST SWAP1 POP PUSH2 0x2593 JUMP JUMPDEST SWAP1 PUSH2 0x33C SWAP3 SWAP2 PUSH2 0x2463 JUMP JUMPDEST PUSH1 0x1 PUSH1 0x1 PUSH1 0xA0 SHL SUB SWAP1 SWAP2 AND DUP2 MSTORE PUSH1 0x40 DUP2 ADD SWAP3 SWAP2 PUSH2 0x33C SWAP2 PUSH1 0x20 ADD MSTORE JUMP JUMPDEST SWAP1 PUSH2 0x2625 PUSH2 0x15B4 DUP3 DUP5 PUSH2 0x1986 JUMP JUMPDEST PUSH2 0x262D JUMPI POP POP JUMP JUMPDEST PUSH4 0xE2517D3F PUSH1 0xE0 SHL PUSH1 0x0 SWAP1 DUP2 MSTORE SWAP2 PUSH2 0xEE7 SWAP2 PUSH1 0x4 PUSH2 0x25FA JUMP JUMPDEST PUSH2 0x2651 PUSH2 0x15B4 PUSH2 0x1238 JUMP JUMPDEST PUSH2 0x2657 JUMPI JUMP JUMPDEST PUSH4 0x8DFC202B PUSH1 0xE0 SHL PUSH1 0x0 SWAP1 DUP2 MSTORE PUSH1 0x4 SWAP1 REVERT JUMPDEST PUSH2 0x352 PUSH1 0x0 PUSH2 0x1980 PUSH2 0x352 PUSH2 0x11FC JUMP JUMPDEST SWAP1 PUSH2 0x2683 DUP3 PUSH2 0x2A05 JUMP JUMPDEST PUSH2 0x268C DUP3 PUSH2 0x4D4 JUMP JUMPDEST PUSH32 0xBC7CD75A20EE27FD9ADEBAB32041F755214DBC6BFFA90CC0225B39DA2E5C2D3B PUSH2 0x26B6 PUSH1 0x40 MLOAD SWAP1 JUMP JUMPDEST PUSH1 0x0 SWAP1 LOG2 DUP1 MLOAD PUSH2 0x26C9 PUSH2 0x16B8 PUSH1 0x0 PUSH2 0x9B9 JUMP JUMPDEST GT ISZERO PUSH2 0x26D8 JUMPI PUSH2 0xE91 SWAP2 PUSH2 0x2A92 JUMP JUMPDEST POP POP PUSH2 0x33C PUSH2 0x2A50 JUMP JUMPDEST PUSH2 0x352 PUSH32 0xF0C57E16840DF040F15088DC2F81FE391C3923BEC73E23A9662EFC9C229C6A00 PUSH2 0x9B9 JUMP JUMPDEST PUSH2 0x352 PUSH2 0x26E2 JUMP JUMPDEST PUSH2 0x271E PUSH2 0x15B4 PUSH2 0x2AB9 JUMP JUMPDEST PUSH2 0x2724 JUMPI JUMP JUMPDEST PUSH4 0x1AFCD79F PUSH1 0xE3 SHL PUSH1 0x0 SWAP1 DUP2 MSTORE PUSH1 0x4 SWAP1 REVERT JUMPDEST SWAP1 PUSH2 0x33C SWAP2 PUSH2 0x2743 PUSH2 0x2713 JUMP JUMPDEST PUSH2 0x2825 JUMP JUMPDEST SWAP1 PUSH2 0x2751 DUP2 MLOAD SWAP1 JUMP JUMPDEST SWAP1 PUSH8 0xFFFFFFFFFFFFFFFF DUP3 GT PUSH2 0x705 JUMPI PUSH2 0x2775 DUP3 PUSH2 0x276F DUP6 SLOAD PUSH2 0xB99 JUMP JUMPDEST DUP6 PUSH2 0x1770 JUMP JUMPDEST PUSH1 0x20 SWAP1 PUSH1 0x1F DUP4 GT PUSH1 0x1 EQ PUSH2 0x27B0 JUMPI PUSH2 0x13FA SWAP3 SWAP2 PUSH1 0x0 SWAP2 DUP4 PUSH2 0x27A5 JUMPI JUMPDEST POP POP PUSH1 0x0 NOT PUSH1 0x8 DUP4 MUL SHR NOT AND SWAP1 PUSH1 0x2 MUL OR SWAP1 JUMP JUMPDEST ADD MLOAD SWAP1 POP CODESIZE DUP1 PUSH2 0x2791 JUMP JUMPDEST PUSH1 0x1F NOT DUP4 AND SWAP2 PUSH2 0x27C5 DUP6 PUSH1 0x0 MSTORE PUSH1 0x20 PUSH1 0x0 KECCAK256 SWAP1 JUMP JUMPDEST SWAP3 PUSH1 0x0 JUMPDEST DUP2 DUP2 LT PUSH2 0x2803 JUMPI POP SWAP2 PUSH1 0x2 SWAP4 SWAP2 DUP6 PUSH1 0x1 SWAP7 SWAP5 LT PUSH2 0x27EA JUMPI JUMPDEST POP POP POP MUL ADD SWAP1 SSTORE JUMP JUMPDEST ADD MLOAD PUSH1 0x0 NOT PUSH1 0x8 PUSH1 0x1F DUP6 AND MUL SHR NOT AND SWAP1 SSTORE CODESIZE DUP1 DUP1 PUSH2 0x27E1 JUMP JUMPDEST SWAP2 SWAP4 PUSH1 0x20 PUSH1 0x1 DUP2 SWAP3 DUP8 DUP8 ADD MLOAD DUP2 SSTORE ADD SWAP6 ADD SWAP3 ADD PUSH2 0x27C9 JUMP JUMPDEST SWAP1 PUSH2 0x33C SWAP2 PUSH2 0x2748 JUMP JUMPDEST SWAP1 PUSH1 0x4 PUSH2 0x33C SWAP3 PUSH2 0x284E PUSH2 0x2844 PUSH1 0x0 DUP1 MLOAD PUSH1 0x20 PUSH2 0x2B5B DUP4 CODECOPY DUP2 MLOAD SWAP2 MSTORE SWAP1 JUMP JUMPDEST SWAP2 PUSH1 0x3 DUP4 ADD PUSH2 0x281B JUMP JUMPDEST ADD PUSH2 0x281B JUMP JUMPDEST SWAP1 PUSH2 0x33C SWAP2 PUSH2 0x2736 JUMP JUMPDEST PUSH2 0x33C SWAP1 PUSH2 0x1BD1 PUSH2 0x2713 JUMP JUMPDEST PUSH2 0x33C SWAP1 PUSH2 0x285E JUMP JUMPDEST PUSH2 0x287B PUSH2 0x1238 JUMP JUMPDEST PUSH2 0x2881 JUMPI JUMP JUMPDEST PUSH4 0xD93C0665 PUSH1 0xE0 SHL PUSH1 0x0 SWAP1 DUP2 MSTORE PUSH1 0x4 SWAP1 REVERT JUMPDEST PUSH4 0x4E487B71 PUSH1 0xE0 SHL PUSH1 0x0 MSTORE PUSH1 0x11 PUSH1 0x4 MSTORE PUSH1 0x24 PUSH1 0x0 REVERT JUMPDEST SWAP2 SWAP1 DUP3 ADD DUP1 SWAP3 GT PUSH2 0x28B6 JUMPI JUMP JUMPDEST PUSH2 0x2893 JUMP JUMPDEST PUSH1 0x0 DUP1 MLOAD PUSH1 0x20 PUSH2 0x2B5B DUP4 CODECOPY DUP2 MLOAD SWAP2 MSTORE DUP3 PUSH1 0x0 PUSH2 0x28D6 DUP2 PUSH2 0xF7C JUMP JUMPDEST PUSH1 0x1 PUSH1 0x1 PUSH1 0xA0 SHL SUB DUP2 AND PUSH1 0x1 PUSH1 0x1 PUSH1 0xA0 SHL SUB DUP7 AND SUB PUSH2 0x2986 JUMPI SWAP4 DUP4 PUSH2 0x241F SWAP4 PUSH2 0x1DF2 SWAP4 PUSH2 0x2941 PUSH32 0xDDF252AD1BE2C89B69C2B068FC378DAA952BA7F163C4A11628F55A4DF523B3EF SWAP9 PUSH2 0x429 DUP13 PUSH2 0x293B PUSH1 0x2 PUSH2 0x226F SWAP13 ADD SWAP2 PUSH2 0x2936 DUP4 PUSH2 0xE05 JUMP JUMPDEST PUSH2 0x28A9 JUMP JUMPDEST SWAP1 PUSH2 0x235E JUMP JUMPDEST PUSH1 0x1 PUSH1 0x1 PUSH1 0xA0 SHL SUB DUP4 AND SUB PUSH2 0x296A JUMPI POP POP PUSH1 0x2 PUSH2 0x10A9 SWAP2 ADD PUSH2 0x293B DUP10 PUSH2 0x2966 DUP4 PUSH2 0xE05 JUMP JUMPDEST SUB SWAP1 JUMP JUMPDEST SWAP1 PUSH2 0x2979 SWAP2 PUSH2 0x10A9 SWAP4 ADD PUSH2 0x4DD JUMP JUMPDEST PUSH2 0x293B DUP10 PUSH2 0x3ED DUP4 PUSH2 0xE05 JUMP JUMPDEST SWAP1 DUP1 SWAP3 POP DUP4 ADD PUSH2 0x2999 PUSH2 0x12FA DUP7 DUP4 PUSH2 0x4DD JUMP JUMPDEST DUP8 DUP2 LT PUSH2 0x29EA JUMPI SWAP4 DUP7 PUSH2 0x241F SWAP5 PUSH2 0x2941 PUSH2 0x1DF2 SWAP6 PUSH2 0x429 DUP11 SWAP7 PUSH2 0x23E1 PUSH32 0xDDF252AD1BE2C89B69C2B068FC378DAA952BA7F163C4A11628F55A4DF523B3EF SWAP13 DUP16 PUSH2 0x29E4 SWAP1 PUSH2 0x226F SWAP15 SUB SWAP1 JUMP JUMPDEST SWAP3 PUSH2 0x4DD JUMP JUMPDEST DUP4 PUSH2 0xFDE DUP10 DUP3 SWAP4 DUP10 PUSH4 0x391434E3 PUSH1 0xE2 SHL DUP6 MSTORE PUSH1 0x4 DUP6 ADD PUSH2 0x1C8F JUMP JUMPDEST PUSH1 0x0 DUP2 EXTCODESIZE PUSH2 0x2A15 PUSH2 0x16B8 DUP4 PUSH2 0x9B9 JUMP JUMPDEST EQ PUSH2 0x2A30 JUMPI SWAP1 PUSH2 0x33C SWAP2 PUSH2 0x2A2A PUSH2 0x352 PUSH2 0x11FC JUMP JUMPDEST ADD PUSH2 0x21F0 JUMP JUMPDEST PUSH4 0x4C9C8CE3 PUSH1 0xE0 SHL DUP2 MSTORE PUSH1 0x1 PUSH1 0x1 PUSH1 0xA0 SHL SUB SWAP2 SWAP1 SWAP2 AND PUSH1 0x4 DUP3 ADD MSTORE PUSH1 0x24 SWAP1 REVERT JUMPDEST PUSH1 0x0 PUSH2 0x2A5B DUP2 PUSH2 0x9B9 JUMP JUMPDEST CALLVALUE GT PUSH2 0x2A64 JUMPI POP JUMP JUMPDEST PUSH4 0xB398979F PUSH1 0xE0 SHL DUP2 MSTORE PUSH1 0x4 SWAP1 REVERT JUMPDEST RETURNDATASIZE ISZERO PUSH2 0x2A8D JUMPI PUSH2 0x2A82 RETURNDATASIZE PUSH2 0xA0F JUMP JUMPDEST SWAP1 RETURNDATASIZE PUSH1 0x0 PUSH1 0x20 DUP5 ADD RETURNDATACOPY JUMP JUMPDEST PUSH1 0x60 SWAP1 JUMP JUMPDEST PUSH1 0x0 DUP1 PUSH2 0x352 SWAP4 PUSH2 0x2AA1 PUSH1 0x60 SWAP1 JUMP JUMPDEST POP PUSH1 0x20 DUP2 MLOAD SWAP2 ADD DUP5 GAS DELEGATECALL PUSH2 0x2AB3 PUSH2 0x2A73 JUMP JUMPDEST SWAP2 PUSH2 0x2ACC JUMP JUMPDEST PUSH2 0x352 PUSH1 0x0 PUSH2 0x2AC6 PUSH2 0x2283 JUMP JUMPDEST ADD PUSH2 0x14E7 JUMP JUMPDEST SWAP1 PUSH2 0x2AD7 JUMPI POP PUSH2 0x2B2B JUMP JUMPDEST DUP2 MLOAD SWAP1 PUSH1 0x0 SWAP2 PUSH2 0x2AE9 PUSH2 0x16B8 DUP5 PUSH2 0x9B9 JUMP JUMPDEST EQ DUP1 PUSH2 0x2B16 JUMPI JUMPDEST PUSH2 0x2AF9 JUMPI POP POP SWAP1 JUMP JUMPDEST PUSH4 0x9996B315 PUSH1 0xE0 SHL DUP3 MSTORE PUSH1 0x1 PUSH1 0x1 PUSH1 0xA0 SHL SUB AND PUSH1 0x4 DUP3 ADD MSTORE PUSH1 0x24 SWAP1 REVERT JUMPDEST POP DUP1 EXTCODESIZE PUSH2 0x2B25 PUSH2 0x16B8 DUP5 PUSH2 0x9B9 JUMP JUMPDEST EQ PUSH2 0x2AF0 JUMP JUMPDEST DUP1 MLOAD PUSH1 0x0 SWAP1 PUSH2 0x2B3C PUSH2 0x16B8 DUP4 PUSH2 0x9B9 JUMP JUMPDEST GT ISZERO PUSH2 0x2B4B JUMPI POP DUP1 MLOAD SWAP1 PUSH1 0x20 ADD REVERT JUMPDEST PUSH4 0xD6BDA275 PUSH1 0xE0 SHL DUP2 MSTORE PUSH1 0x4 SWAP1 REVERT INVALID MSTORE 0xC6 ORIGIN SELFBALANCE 0xE1 DELEGATECALL PUSH30 0xB19D5CE0460030C497F067CA4CEBF71BA98EEADABE20BACE0065D7A28E32 PUSH6 0xB37A6474929F CALLER PUSH6 0x21B332C1681B SWAP4 EXTCODEHASH PUSH13 0xB9F3376673440D862A9F2DF0FE 0xD2 0xC7 PUSH23 0x48DE5860A4CC508CD0818C85B8B8A1AB4CEEEF8D981C89 JUMP 0xA6 SWAP9 0xDB DUP11 0x22 0xC 0xD0 CREATE SWAP12 0xAD 0xCE SWAP16 0x22 0xD0 0xBA PUSH31 0x93EDB3D404448CC3560D391AB096AD16E902DD7BC7DEC4DCEEDDA775E58DD5 COINBASE 0xE0 DUP11 GT PUSH13 0x6C53815C0BD028192F7B626800 MSTORE 0xBA DUP3 0x4B STATICCALL 0xBC 0x2B 0xCF 0xCD 0xF7 CREATE 0xED 0xBB BASEFEE PUSH15 0xBB05E1836C90E78047EFEB949990F7 0x2E PUSH0 LOG4 SWAP9 SMOD KECCAK256 TLOAD 0xE4 0xD3 SSTORE MULMOD 0x2E CREATE2 0xA8 LOG1 DUP16 JUMP 0xE8 SWAP2 EXTCODECOPY DELEGATECALL LOG2 ADD 0xFB 0xE2 DUP8 DUP3 JUMPDEST MULMOD JUMP SWAP4 0xC2 OR PUSH22 0xA2646970667358221220C64171C608F9EE5C0D597977 MSIZE 0xCC CALL DUP3 0x1F 0x24 DUP14 0xE4 0xCD 0xAD 0x4E 0xE3 GT 0xC5 PUSH17 0xDEA09E998D64736F6C634300081B003300 "},"methodIdentifiers":{"ADMIN_ROLE()":"75b238fc","BLACKLISTER_ROLE()":"f515e6f2","BRIDGE_ROLE()":"b5bfddea","DEFAULT_ADMIN_ROLE()":"a217fddf","MINTER_ROLE()":"d5391393","PAUSER_ROLE()":"e63ab1e9","UPGRADER_ROLE()":"f72c0d8b","UPGRADE_INTERFACE_VERSION()":"ad3cb1cc","allowance(address,address)":"dd62ed3e","approve(address,uint256)":"095ea7b3","authorized_bridges(address)":"17a1b570","balanceOf(address)":"70a08231","blacklist(address)":"f9f92be4","blacklisted(address)":"dbac26e9","burn(uint256)":"42966c68","burnFrom(address,uint256)":"79cc6790","currency()":"e5a6b10f","decimals()":"313ce567","freezeAccount(address)":"f26c159f","getRoleAdmin(bytes32)":"248a9ca3","grantRole(bytes32,address)":"2f2ff15d","hasRole(bytes32,address)":"91d14854","initialize()":"8129fc1c","isFrozen(address)":"e5839836","mint(address,uint256)":"40c10f19","mintTo(address,uint256)":"449a52f8","name()":"06fdde03","owner()":"8da5cb5b","pause()":"8456cb59","paused()":"5c975abb","proxiableUUID()":"52d1902d","renounceOwnership()":"715018a6","renounceRole(bytes32,address)":"36568abe","revokeRole(bytes32,address)":"d547741f","setAdmin(address)":"704b6c02","setBridge(address,bool)":"e7109b5f","setMinter(address,bool)":"cf456ae7","setPauser(address,bool)":"7180c8ca","supportsInterface(bytes4)":"01ffc9a7","symbol()":"95d89b41","totalSupply()":"18160ddd","transfer(address,uint256)":"a9059cbb","transferFrom(address,address,uint256)":"23b872dd","transferOwnership(address)":"f2fde38b","unblacklist(address)":"75e3661e","unfreezeAccount(address)":"788649ea","unpause()":"3f4ba83a","upgradeToAndCall(address,bytes)":"4f1ef286"}},"storageLayout":{"storage":[{"astId":8159,"contract":"contracts/token/NooriToken.sol:NooriToken","label":"currency","offset":0,"slot":"0","type":"t_string_storage"},{"astId":8163,"contract":"contracts/token/NooriToken.sol:NooriToken","label":"blacklisted","offset":0,"slot":"1","type":"t_mapping(t_address,t_bool)"},{"astId":8167,"contract":"contracts/token/NooriToken.sol:NooriToken","label":"authorized_bridges","offset":0,"slot":"2","type":"t_mapping(t_address,t_bool)"},{"astId":8171,"contract":"contracts/token/NooriToken.sol:NooriToken","label":"_frozenAccounts","offset":0,"slot":"3","type":"t_mapping(t_address,t_bool)"}],"types":{"t_address":{"encoding":"inplace","label":"address","numberOfBytes":"20"},"t_bool":{"encoding":"inplace","label":"bool","numberOfBytes":"1"},"t_mapping(t_address,t_bool)":{"encoding":"mapping","key":"t_address","label":"mapping(address => bool)","numberOfBytes":"32","value":"t_bool"},"t_string_storage":{"encoding":"bytes","label":"string","numberOfBytes":"32"}}}}}}