{
  "_format": "hh-sol-artifact-1",
  "contractName": "NooriToken",
  "sourceName": "contracts/token/NooriToken.sol",
  "abi": [
    {
      "inputs": [],
      "stateMutability": "nonpayable",
      "type": "constructor"
    },
    {
      "inputs": [],
      "name": "AccessControlBadConfirmation",
      "type": "error"
    },
    {
      "inputs": [
        {
          "internalType": "address",
          "name": "account",
          "type": "address"
        },
        {
          "internalType": "bytes32",
          "name": "neededRole",
          "type": "bytes32"
        }
      ],
      "name": "AccessControlUnauthorizedAccount",
      "type": "error"
    },
    {
      "inputs": [
        {
          "internalType": "address",
          "name": "target",
          "type": "address"
        }
      ],
      "name": "AddressEmptyCode",
      "type": "error"
    },
    {
      "inputs": [
        {
          "internalType": "address",
          "name": "implementation",
          "type": "address"
        }
      ],
      "name": "ERC1967InvalidImplementation",
      "type": "error"
    },
    {
      "inputs": [],
      "name": "ERC1967NonPayable",
      "type": "error"
    },
    {
      "inputs": [
        {
          "internalType": "address",
          "name": "spender",
          "type": "address"
        },
        {
          "internalType": "uint256",
          "name": "allowance",
          "type": "uint256"
        },
        {
          "internalType": "uint256",
          "name": "needed",
          "type": "uint256"
        }
      ],
      "name": "ERC20InsufficientAllowance",
      "type": "error"
    },
    {
      "inputs": [
        {
          "internalType": "address",
          "name": "sender",
          "type": "address"
        },
        {
          "internalType": "uint256",
          "name": "balance",
          "type": "uint256"
        },
        {
          "internalType": "uint256",
          "name": "needed",
          "type": "uint256"
        }
      ],
      "name": "ERC20InsufficientBalance",
      "type": "error"
    },
    {
      "inputs": [
        {
          "internalType": "address",
          "name": "approver",
          "type": "address"
        }
      ],
      "name": "ERC20InvalidApprover",
      "type": "error"
    },
    {
      "inputs": [
        {
          "internalType": "address",
          "name": "receiver",
          "type": "address"
        }
      ],
      "name": "ERC20InvalidReceiver",
      "type": "error"
    },
    {
      "inputs": [
        {
          "internalType": "address",
          "name": "sender",
          "type": "address"
        }
      ],
      "name": "ERC20InvalidSender",
      "type": "error"
    },
    {
      "inputs": [
        {
          "internalType": "address",
          "name": "spender",
          "type": "address"
        }
      ],
      "name": "ERC20InvalidSpender",
      "type": "error"
    },
    {
      "inputs": [],
      "name": "EnforcedPause",
      "type": "error"
    },
    {
      "inputs": [],
      "name": "ExpectedPause",
      "type": "error"
    },
    {
      "inputs": [],
      "name": "FailedCall",
      "type": "error"
    },
    {
      "inputs": [],
      "name": "InvalidInitialization",
      "type": "error"
    },
    {
      "inputs": [],
      "name": "NotInitializing",
      "type": "error"
    },
    {
      "inputs": [
        {
          "internalType": "address",
          "name": "owner",
          "type": "address"
        }
      ],
      "name": "OwnableInvalidOwner",
      "type": "error"
    },
    {
      "inputs": [
        {
          "internalType": "address",
          "name": "account",
          "type": "address"
        }
      ],
      "name": "OwnableUnauthorizedAccount",
      "type": "error"
    },
    {
      "inputs": [],
      "name": "UUPSUnauthorizedCallContext",
      "type": "error"
    },
    {
      "inputs": [
        {
          "internalType": "bytes32",
          "name": "slot",
          "type": "bytes32"
        }
      ],
      "name": "UUPSUnsupportedProxiableUUID",
      "type": "error"
    },
    {
      "anonymous": false,
      "inputs": [
        {
          "indexed": true,
          "internalType": "address",
          "name": "account",
          "type": "address"
        }
      ],
      "name": "AccountFrozen",
      "type": "event"
    },
    {
      "anonymous": false,
      "inputs": [
        {
          "indexed": true,
          "internalType": "address",
          "name": "account",
          "type": "address"
        }
      ],
      "name": "AccountUnfrozen",
      "type": "event"
    },
    {
      "anonymous": false,
      "inputs": [
        {
          "indexed": true,
          "internalType": "address",
          "name": "admin",
          "type": "address"
        }
      ],
      "name": "AdminUpdated",
      "type": "event"
    },
    {
      "anonymous": false,
      "inputs": [
        {
          "indexed": true,
          "internalType": "address",
          "name": "owner",
          "type": "address"
        },
        {
          "indexed": true,
          "internalType": "address",
          "name": "spender",
          "type": "address"
        },
        {
          "indexed": false,
          "internalType": "uint256",
          "name": "value",
          "type": "uint256"
        }
      ],
      "name": "Approval",
      "type": "event"
    },
    {
      "anonymous": false,
      "inputs": [
        {
          "indexed": true,
          "internalType": "address",
          "name": "bridge",
          "type": "address"
        },
        {
          "indexed": false,
          "internalType": "bool",
          "name": "status",
          "type": "bool"
        }
      ],
      "name": "BridgeAuthorized",
      "type": "event"
    },
    {
      "anonymous": false,
      "inputs": [
        {
          "indexed": false,
          "internalType": "uint64",
          "name": "version",
          "type": "uint64"
        }
      ],
      "name": "Initialized",
      "type": "event"
    },
    {
      "anonymous": false,
      "inputs": [
        {
          "indexed": true,
          "internalType": "address",
          "name": "to",
          "type": "address"
        },
        {
          "indexed": false,
          "internalType": "uint256",
          "name": "amount",
          "type": "uint256"
        }
      ],
      "name": "Mint",
      "type": "event"
    },
    {
      "anonymous": false,
      "inputs": [
        {
          "indexed": true,
          "internalType": "address",
          "name": "minter",
          "type": "address"
        },
        {
          "indexed": false,
          "internalType": "bool",
          "name": "status",
          "type": "bool"
        }
      ],
      "name": "MinterUpdated",
      "type": "event"
    },
    {
      "anonymous": false,
      "inputs": [
        {
          "indexed": true,
          "internalType": "address",
          "name": "previousOwner",
          "type": "address"
        },
        {
          "indexed": true,
          "internalType": "address",
          "name": "newOwner",
          "type": "address"
        }
      ],
      "name": "OwnershipTransferred",
      "type": "event"
    },
    {
      "anonymous": false,
      "inputs": [
        {
          "indexed": false,
          "internalType": "address",
          "name": "account",
          "type": "address"
        }
      ],
      "name": "Pause",
      "type": "event"
    },
    {
      "anonymous": false,
      "inputs": [
        {
          "indexed": false,
          "internalType": "address",
          "name": "account",
          "type": "address"
        }
      ],
      "name": "Paused",
      "type": "event"
    },
    {
      "anonymous": false,
      "inputs": [
        {
          "indexed": true,
          "internalType": "address",
          "name": "pauser",
          "type": "address"
        },
        {
          "indexed": false,
          "internalType": "bool",
          "name": "status",
          "type": "bool"
        }
      ],
      "name": "PauserUpdated",
      "type": "event"
    },
    {
      "anonymous": false,
      "inputs": [
        {
          "indexed": true,
          "internalType": "bytes32",
          "name": "role",
          "type": "bytes32"
        },
        {
          "indexed": true,
          "internalType": "bytes32",
          "name": "previousAdminRole",
          "type": "bytes32"
        },
        {
          "indexed": true,
          "internalType": "bytes32",
          "name": "newAdminRole",
          "type": "bytes32"
        }
      ],
      "name": "RoleAdminChanged",
      "type": "event"
    },
    {
      "anonymous": false,
      "inputs": [
        {
          "indexed": true,
          "internalType": "bytes32",
          "name": "role",
          "type": "bytes32"
        },
        {
          "indexed": true,
          "internalType": "address",
          "name": "account",
          "type": "address"
        },
        {
          "indexed": true,
          "internalType": "address",
          "name": "sender",
          "type": "address"
        }
      ],
      "name": "RoleGranted",
      "type": "event"
    },
    {
      "anonymous": false,
      "inputs": [
        {
          "indexed": true,
          "internalType": "bytes32",
          "name": "role",
          "type": "bytes32"
        },
        {
          "indexed": true,
          "internalType": "address",
          "name": "account",
          "type": "address"
        },
        {
          "indexed": true,
          "internalType": "address",
          "name": "sender",
          "type": "address"
        }
      ],
      "name": "RoleRevoked",
      "type": "event"
    },
    {
      "anonymous": false,
      "inputs": [
        {
          "indexed": true,
          "internalType": "address",
          "name": "from",
          "type": "address"
        },
        {
          "indexed": false,
          "internalType": "uint256",
          "name": "amount",
          "type": "uint256"
        },
        {
          "indexed": false,
          "internalType": "string",
          "name": "targetChain",
          "type": "string"
        },
        {
          "indexed": false,
          "internalType": "address",
          "name": "targetAddress",
          "type": "address"
        }
      ],
      "name": "TokensBurned",
      "type": "event"
    },
    {
      "anonymous": false,
      "inputs": [
        {
          "indexed": true,
          "internalType": "address",
          "name": "to",
          "type": "address"
        },
        {
          "indexed": false,
          "internalType": "uint256",
          "name": "amount",
          "type": "uint256"
        },
        {
          "indexed": false,
          "internalType": "string",
          "name": "sourceChain",
          "type": "string"
        },
        {
          "indexed": false,
          "internalType": "bytes32",
          "name": "transactionHash",
          "type": "bytes32"
        }
      ],
      "name": "TokensMinted",
      "type": "event"
    },
    {
      "anonymous": false,
      "inputs": [
        {
          "indexed": true,
          "internalType": "address",
          "name": "from",
          "type": "address"
        },
        {
          "indexed": true,
          "internalType": "address",
          "name": "to",
          "type": "address"
        },
        {
          "indexed": false,
          "internalType": "uint256",
          "name": "value",
          "type": "uint256"
        }
      ],
      "name": "Transfer",
      "type": "event"
    },
    {
      "anonymous": false,
      "inputs": [
        {
          "indexed": false,
          "internalType": "address",
          "name": "account",
          "type": "address"
        }
      ],
      "name": "Unpause",
      "type": "event"
    },
    {
      "anonymous": false,
      "inputs": [
        {
          "indexed": false,
          "internalType": "address",
          "name": "account",
          "type": "address"
        }
      ],
      "name": "Unpaused",
      "type": "event"
    },
    {
      "anonymous": false,
      "inputs": [
        {
          "indexed": true,
          "internalType": "address",
          "name": "implementation",
          "type": "address"
        }
      ],
      "name": "Upgraded",
      "type": "event"
    },
    {
      "inputs": [],
      "name": "ADMIN_ROLE",
      "outputs": [
        {
          "internalType": "bytes32",
          "name": "",
          "type": "bytes32"
        }
      ],
      "stateMutability": "view",
      "type": "function"
    },
    {
      "inputs": [],
      "name": "BLACKLISTER_ROLE",
      "outputs": [
        {
          "internalType": "bytes32",
          "name": "",
          "type": "bytes32"
        }
      ],
      "stateMutability": "view",
      "type": "function"
    },
    {
      "inputs": [],
      "name": "BRIDGE_ROLE",
      "outputs": [
        {
          "internalType": "bytes32",
          "name": "",
          "type": "bytes32"
        }
      ],
      "stateMutability": "view",
      "type": "function"
    },
    {
      "inputs": [],
      "name": "DEFAULT_ADMIN_ROLE",
      "outputs": [
        {
          "internalType": "bytes32",
          "name": "",
          "type": "bytes32"
        }
      ],
      "stateMutability": "view",
      "type": "function"
    },
    {
      "inputs": [],
      "name": "MINTER_ROLE",
      "outputs": [
        {
          "internalType": "bytes32",
          "name": "",
          "type": "bytes32"
        }
      ],
      "stateMutability": "view",
      "type": "function"
    },
    {
      "inputs": [],
      "name": "PAUSER_ROLE",
      "outputs": [
        {
          "internalType": "bytes32",
          "name": "",
          "type": "bytes32"
        }
      ],
      "stateMutability": "view",
      "type": "function"
    },
    {
      "inputs": [],
      "name": "UPGRADER_ROLE",
      "outputs": [
        {
          "internalType": "bytes32",
          "name": "",
          "type": "bytes32"
        }
      ],
      "stateMutability": "view",
      "type": "function"
    },
    {
      "inputs": [],
      "name": "UPGRADE_INTERFACE_VERSION",
      "outputs": [
        {
          "internalType": "string",
          "name": "",
          "type": "string"
        }
      ],
      "stateMutability": "view",
      "type": "function"
    },
    {
      "inputs": [
        {
          "internalType": "address",
          "name": "owner",
          "type": "address"
        },
        {
          "internalType": "address",
          "name": "spender",
          "type": "address"
        }
      ],
      "name": "allowance",
      "outputs": [
        {
          "internalType": "uint256",
          "name": "",
          "type": "uint256"
        }
      ],
      "stateMutability": "view",
      "type": "function"
    },
    {
      "inputs": [
        {
          "internalType": "address",
          "name": "spender",
          "type": "address"
        },
        {
          "internalType": "uint256",
          "name": "value",
          "type": "uint256"
        }
      ],
      "name": "approve",
      "outputs": [
        {
          "internalType": "bool",
          "name": "",
          "type": "bool"
        }
      ],
      "stateMutability": "nonpayable",
      "type": "function"
    },
    {
      "inputs": [
        {
          "internalType": "address",
          "name": "",
          "type": "address"
        }
      ],
      "name": "authorized_bridges",
      "outputs": [
        {
          "internalType": "bool",
          "name": "",
          "type": "bool"
        }
      ],
      "stateMutability": "view",
      "type": "function"
    },
    {
      "inputs": [
        {
          "internalType": "address",
          "name": "account",
          "type": "address"
        }
      ],
      "name": "balanceOf",
      "outputs": [
        {
          "internalType": "uint256",
          "name": "",
          "type": "uint256"
        }
      ],
      "stateMutability": "view",
      "type": "function"
    },
    {
      "inputs": [
        {
          "internalType": "address",
          "name": "account",
          "type": "address"
        }
      ],
      "name": "blacklist",
      "outputs": [],
      "stateMutability": "nonpayable",
      "type": "function"
    },
    {
      "inputs": [
        {
          "internalType": "address",
          "name": "",
          "type": "address"
        }
      ],
      "name": "blacklisted",
      "outputs": [
        {
          "internalType": "bool",
          "name": "",
          "type": "bool"
        }
      ],
      "stateMutability": "view",
      "type": "function"
    },
    {
      "inputs": [
        {
          "internalType": "uint256",
          "name": "value",
          "type": "uint256"
        }
      ],
      "name": "burn",
      "outputs": [],
      "stateMutability": "nonpayable",
      "type": "function"
    },
    {
      "inputs": [
        {
          "internalType": "address",
          "name": "from",
          "type": "address"
        },
        {
          "internalType": "uint256",
          "name": "amount",
          "type": "uint256"
        }
      ],
      "name": "burnFrom",
      "outputs": [],
      "stateMutability": "nonpayable",
      "type": "function"
    },
    {
      "inputs": [],
      "name": "currency",
      "outputs": [
        {
          "internalType": "string",
          "name": "",
          "type": "string"
        }
      ],
      "stateMutability": "view",
      "type": "function"
    },
    {
      "inputs": [],
      "name": "decimals",
      "outputs": [
        {
          "internalType": "uint8",
          "name": "",
          "type": "uint8"
        }
      ],
      "stateMutability": "view",
      "type": "function"
    },
    {
      "inputs": [
        {
          "internalType": "address",
          "name": "account",
          "type": "address"
        }
      ],
      "name": "freezeAccount",
      "outputs": [],
      "stateMutability": "nonpayable",
      "type": "function"
    },
    {
      "inputs": [
        {
          "internalType": "bytes32",
          "name": "role",
          "type": "bytes32"
        }
      ],
      "name": "getRoleAdmin",
      "outputs": [
        {
          "internalType": "bytes32",
          "name": "",
          "type": "bytes32"
        }
      ],
      "stateMutability": "view",
      "type": "function"
    },
    {
      "inputs": [
        {
          "internalType": "bytes32",
          "name": "role",
          "type": "bytes32"
        },
        {
          "internalType": "address",
          "name": "account",
          "type": "address"
        }
      ],
      "name": "grantRole",
      "outputs": [],
      "stateMutability": "nonpayable",
      "type": "function"
    },
    {
      "inputs": [
        {
          "internalType": "bytes32",
          "name": "role",
          "type": "bytes32"
        },
        {
          "internalType": "address",
          "name": "account",
          "type": "address"
        }
      ],
      "name": "hasRole",
      "outputs": [
        {
          "internalType": "bool",
          "name": "",
          "type": "bool"
        }
      ],
      "stateMutability": "view",
      "type": "function"
    },
    {
      "inputs": [],
      "name": "initialize",
      "outputs": [],
      "stateMutability": "nonpayable",
      "type": "function"
    },
    {
      "inputs": [
        {
          "internalType": "address",
          "name": "account",
          "type": "address"
        }
      ],
      "name": "isFrozen",
      "outputs": [
        {
          "internalType": "bool",
          "name": "",
          "type": "bool"
        }
      ],
      "stateMutability": "view",
      "type": "function"
    },
    {
      "inputs": [
        {
          "internalType": "address",
          "name": "to",
          "type": "address"
        },
        {
          "internalType": "uint256",
          "name": "amount",
          "type": "uint256"
        }
      ],
      "name": "mint",
      "outputs": [],
      "stateMutability": "nonpayable",
      "type": "function"
    },
    {
      "inputs": [
        {
          "internalType": "address",
          "name": "to",
          "type": "address"
        },
        {
          "internalType": "uint256",
          "name": "amount",
          "type": "uint256"
        }
      ],
      "name": "mintTo",
      "outputs": [
        {
          "internalType": "bool",
          "name": "",
          "type": "bool"
        }
      ],
      "stateMutability": "nonpayable",
      "type": "function"
    },
    {
      "inputs": [],
      "name": "name",
      "outputs": [
        {
          "internalType": "string",
          "name": "",
          "type": "string"
        }
      ],
      "stateMutability": "view",
      "type": "function"
    },
    {
      "inputs": [],
      "name": "owner",
      "outputs": [
        {
          "internalType": "address",
          "name": "",
          "type": "address"
        }
      ],
      "stateMutability": "view",
      "type": "function"
    },
    {
      "inputs": [],
      "name": "pause",
      "outputs": [],
      "stateMutability": "nonpayable",
      "type": "function"
    },
    {
      "inputs": [],
      "name": "paused",
      "outputs": [
        {
          "internalType": "bool",
          "name": "",
          "type": "bool"
        }
      ],
      "stateMutability": "view",
      "type": "function"
    },
    {
      "inputs": [],
      "name": "proxiableUUID",
      "outputs": [
        {
          "internalType": "bytes32",
          "name": "",
          "type": "bytes32"
        }
      ],
      "stateMutability": "view",
      "type": "function"
    },
    {
      "inputs": [],
      "name": "renounceOwnership",
      "outputs": [],
      "stateMutability": "nonpayable",
      "type": "function"
    },
    {
      "inputs": [
        {
          "internalType": "bytes32",
          "name": "role",
          "type": "bytes32"
        },
        {
          "internalType": "address",
          "name": "callerConfirmation",
          "type": "address"
        }
      ],
      "name": "renounceRole",
      "outputs": [],
      "stateMutability": "nonpayable",
      "type": "function"
    },
    {
      "inputs": [
        {
          "internalType": "bytes32",
          "name": "role",
          "type": "bytes32"
        },
        {
          "internalType": "address",
          "name": "account",
          "type": "address"
        }
      ],
      "name": "revokeRole",
      "outputs": [],
      "stateMutability": "nonpayable",
      "type": "function"
    },
    {
      "inputs": [
        {
          "internalType": "address",
          "name": "newAdmin",
          "type": "address"
        }
      ],
      "name": "setAdmin",
      "outputs": [],
      "stateMutability": "nonpayable",
      "type": "function"
    },
    {
      "inputs": [
        {
          "internalType": "address",
          "name": "bridge",
          "type": "address"
        },
        {
          "internalType": "bool",
          "name": "status",
          "type": "bool"
        }
      ],
      "name": "setBridge",
      "outputs": [],
      "stateMutability": "nonpayable",
      "type": "function"
    },
    {
      "inputs": [
        {
          "internalType": "address",
          "name": "minter",
          "type": "address"
        },
        {
          "internalType": "bool",
          "name": "status",
          "type": "bool"
        }
      ],
      "name": "setMinter",
      "outputs": [],
      "stateMutability": "nonpayable",
      "type": "function"
    },
    {
      "inputs": [
        {
          "internalType": "address",
          "name": "pauser",
          "type": "address"
        },
        {
          "internalType": "bool",
          "name": "status",
          "type": "bool"
        }
      ],
      "name": "setPauser",
      "outputs": [],
      "stateMutability": "nonpayable",
      "type": "function"
    },
    {
      "inputs": [
        {
          "internalType": "bytes4",
          "name": "interfaceId",
          "type": "bytes4"
        }
      ],
      "name": "supportsInterface",
      "outputs": [
        {
          "internalType": "bool",
          "name": "",
          "type": "bool"
        }
      ],
      "stateMutability": "view",
      "type": "function"
    },
    {
      "inputs": [],
      "name": "symbol",
      "outputs": [
        {
          "internalType": "string",
          "name": "",
          "type": "string"
        }
      ],
      "stateMutability": "view",
      "type": "function"
    },
    {
      "inputs": [],
      "name": "totalSupply",
      "outputs": [
        {
          "internalType": "uint256",
          "name": "",
          "type": "uint256"
        }
      ],
      "stateMutability": "view",
      "type": "function"
    },
    {
      "inputs": [
        {
          "internalType": "address",
          "name": "to",
          "type": "address"
        },
        {
          "internalType": "uint256",
          "name": "value",
          "type": "uint256"
        }
      ],
      "name": "transfer",
      "outputs": [
        {
          "internalType": "bool",
          "name": "",
          "type": "bool"
        }
      ],
      "stateMutability": "nonpayable",
      "type": "function"
    },
    {
      "inputs": [
        {
          "internalType": "address",
          "name": "from",
          "type": "address"
        },
        {
          "internalType": "address",
          "name": "to",
          "type": "address"
        },
        {
          "internalType": "uint256",
          "name": "value",
          "type": "uint256"
        }
      ],
      "name": "transferFrom",
      "outputs": [
        {
          "internalType": "bool",
          "name": "",
          "type": "bool"
        }
      ],
      "stateMutability": "nonpayable",
      "type": "function"
    },
    {
      "inputs": [
        {
          "internalType": "address",
          "name": "newOwner",
          "type": "address"
        }
      ],
      "name": "transferOwnership",
      "outputs": [],
      "stateMutability": "nonpayable",
      "type": "function"
    },
    {
      "inputs": [
        {
          "internalType": "address",
          "name": "account",
          "type": "address"
        }
      ],
      "name": "unblacklist",
      "outputs": [],
      "stateMutability": "nonpayable",
      "type": "function"
    },
    {
      "inputs": [
        {
          "internalType": "address",
          "name": "account",
          "type": "address"
        }
      ],
      "name": "unfreezeAccount",
      "outputs": [],
      "stateMutability": "nonpayable",
      "type": "function"
    },
    {
      "inputs": [],
      "name": "unpause",
      "outputs": [],
      "stateMutability": "nonpayable",
      "type": "function"
    },
    {
      "inputs": [
        {
          "internalType": "address",
          "name": "newImplementation",
          "type": "address"
        },
        {
          "internalType": "bytes",
          "name": "data",
          "type": "bytes"
        }
      ],
      "name": "upgradeToAndCall",
      "outputs": [],
      "stateMutability": "payable",
      "type": "function"
    }
  ],
  "bytecode": "0x60a06040523461003257610011610037565b604051612c706101e98239608051818181611fbd01526121780152612c7090f35b600080fd5b61003f610049565b61004761010a565b565b610047610086565b61006590610068906001600160a01b031682565b90565b6001600160a01b031690565b61006590610051565b61006590610074565b61008f3061007d565b608052565b6100659060401c60ff1690565b6100659054610094565b610065905b6001600160401b031690565b61006590546100ab565b610065906100b0906001600160401b031682565b906100ea610065610106926100c6565b82546001600160401b0319166001600160401b03919091161790565b9055565b60006101146101a2565b0161011e816100a1565b6101905761012b816100bc565b6001600160401b0391908290811603610142575050565b816101717fc7f505b2f371ae2175ee4913f4499e1f2633a7b5936321eed1cdaeb6115181d29361018b936100da565b604051918291826001600160401b03909116815260200190565b0390a1565b63f92ee8a960e01b6000908152600490fd5b6100656101e0565b6100656100656100659290565b6100657ff0c57e16840df040f15088dc2f81fe391c3923bec73e23a9662efc9c229c6a006101aa565b6100656101b756fe6080604052600436101561001257600080fd5b60003560e01c806301ffc9a71461031257806306fdde031461030d578063095ea7b31461030857806317a1b5701461030357806318160ddd146102fe57806323b872dd146102f9578063248a9ca3146102f45780632f2ff15d146102ef578063313ce567146102ea57806336568abe146102e55780633f4ba83a146102e057806340c10f19146102db57806342966c68146102d6578063449a52f8146102d15780634f1ef286146102cc57806352d1902d146102c75780635c975abb146102c2578063704b6c02146102bd57806370a08231146102b8578063715018a6146102b35780637180c8ca146102ae57806375b238fc146102a957806375e3661e146102a4578063788649ea1461029f57806379cc67901461029a5780638129fc1c146102955780638456cb59146102905780638da5cb5b1461028b57806391d148541461028657806395d89b4114610281578063a217fddf1461027c578063a9059cbb14610277578063ad3cb1cc14610272578063b5bfddea1461026d578063cf456ae714610268578063d539139314610263578063d547741f1461025e578063dbac26e914610259578063dd62ed3e14610254578063e58398361461024f578063e5a6b10f1461024a578063e63ab1e914610245578063e7109b5f14610240578063f26c159f1461023b578063f2fde38b14610236578063f515e6f214610231578063f72c0d8b1461022c5763f9f92be40361032a57610d7e565b610d45565b610d1e565b610d06565b610cee565b610cd5565b610cae565b610c93565b610b52565b610b36565b610aff565b610ad6565b610aaf565b610a96565b610a6f565b610a54565b6109f3565b6109d8565b61099e565b610982565b61094d565b610935565b61091d565b610904565b6108ec565b6108d4565b6108ad565b610894565b610844565b610829565b610811565b6107f6565b6107db565b6107c7565b6106b1565b610699565b610680565b610668565b61064f565b610620565b610602565b6105c4565b610594565b61053f565b610524565b610487565b610402565b610359565b6001600160e01b031981165b0361032a57565b600080fd5b9050359061033c82610317565b565b9060208282031261032a576103529161032f565b90565b9052565b3461032a5761038761037461036f36600461033e565b610d96565b6040515b91829182901515815260200190565b0390f35b600091031261032a57565b60005b8381106103a95750506000910152565b8181015183820152602001610399565b6103da6103e36020936103ed936103ce815190565b80835293849260200190565b95869101610396565b601f01601f191690565b0190565b6020808252610352929101906103b9565b3461032a5761041236600461038b565b61038761041d610dd3565b604051918291826103f1565b6001600160a01b031690565b6001600160a01b038116610323565b9050359061033c82610435565b80610323565b9050359061033c82610451565b919060408382031261032a576103529060206104808286610444565b9401610457565b3461032a5761038761037461049d366004610464565b90610dee565b9060208282031261032a5761035291610444565b61035290610429906001600160a01b031682565b610352906104b7565b610352906104cb565b906104e7906104d4565b600052602052604060002090565b610352916008021c5b60ff1690565b9061035291546104f5565b600061051f6103529260026104dd565b610504565b3461032a5761038761037461053a3660046104a3565b61050f565b3461032a5761054f36600461038b565b61038761055a610e0f565b6040515b9182918290815260200190565b909160608284031261032a576103526105848484610444565b9360406104808260208701610444565b3461032a576103876103746105aa36600461056b565b91610e2a565b9060208282031261032a5761035291610457565b3461032a5761038761055a6105da3660046105b0565b610e47565b919060408382031261032a576103529060206105fb8286610457565b9401610444565b3461032a5761061b6106153660046105df565b90610e94565b604051005b3461032a5761063036600461038b565b61038761063b610eab565b6040519182918260ff909116815260200190565b3461032a5761061b6106623660046105df565b90610eb5565b3461032a5761067836600461038b565b61061b610f46565b3461032a5761061b610693366004610464565b906110bd565b3461032a5761061b6106ac3660046105b0565b6110c7565b3461032a576103876103746106c7366004610464565b906111b5565b634e487b7160e01b600052604160045260246000fd5b90601f01601f1916810190811067ffffffffffffffff82111761070557604052565b6106cd565b9061033c61071760405190565b92836106e3565b67ffffffffffffffff811161070557602090601f01601f19160190565b90826000939282370152565b9092919261075c6107578261071e565b61070a565b938185528183011161032a5761033c91602085019061073b565b9080601f8301121561032a5781602061035293359101610747565b91909160408184031261032a576107a88382610444565b92602082013567ffffffffffffffff811161032a576103529201610776565b61061b6107d5366004610791565b906111e1565b3461032a576107eb36600461038b565b61038761055a61122e565b3461032a5761080636600461038b565b610387610374611238565b3461032a5761061b6108243660046104a3565b6112c9565b3461032a5761038761055a61083f3660046104a3565b6112d2565b3461032a5761085436600461038b565b61061b61131c565b801515610323565b9050359061033c8261085c565b919060408382031261032a5761035290602061088d8286610444565b9401610864565b3461032a5761061b6108a7366004610871565b906113aa565b3461032a576108bd36600461038b565b610387600080516020612c1b83398151915261055a565b3461032a5761061b6108e73660046104a3565b611413565b3461032a5761061b6108ff3660046104a3565b611475565b3461032a5761061b610917366004610464565b906114d1565b3461032a5761092d36600461038b565b61061b6118ea565b3461032a5761094536600461038b565b61061b61193e565b3461032a5761095d36600461038b565b610387610968611959565b604051918291826001600160a01b03909116815260200190565b3461032a576103876103746109983660046105df565b90611986565b3461032a576109ae36600461038b565b61038761041d6119b1565b6103526103526103529290565b61035260006109b9565b6103526109c6565b3461032a576109e836600461038b565b61038761055a6109d0565b3461032a57610387610374610a09366004610464565b906119ca565b90610a1c6107578361071e565b918252565b610a2b6005610a0f565b640352e302e360dc1b602082015290565b610352610a21565b610352610a3c565b610352610a44565b3461032a57610a6436600461038b565b61038761041d610a4c565b3461032a57610a7f36600461038b565b610387600080516020612bfb83398151915261055a565b3461032a5761061b610aa9366004610871565b90611a51565b3461032a57610abf36600461038b565b610387600080516020612b9b83398151915261055a565b3461032a5761061b610ae93660046105df565b90611a76565b600061051f6103529260016104dd565b3461032a57610387610374610b153660046104a3565b610aef565b919060408382031261032a576103529060206105fb8286610444565b3461032a5761038761055a610b4c366004610b1a565b90611a80565b3461032a57610387610374610b683660046104a3565b611aaf565b634e487b7160e01b600052600060045260246000fd5b634e487b7160e01b600052602260045260246000fd5b9060016002830492168015610bb9575b6020831014610bb457565b610b83565b91607f1691610ba9565b80546000939291610be0610bd683610b99565b8085529360200190565b9160018116908115610c325750600114610bf957505050565b610c0c9192939450600052602060002090565b916000925b818410610c1e5750500190565b805484840152602090930192600101610c11565b92949550505060ff1916825215156020020190565b9061035291610bc3565b9061033c610c6b92610c6260405190565b93848092610c47565b03836106e3565b90600010610c835761035290610c51565b610b6d565b610352600080610c72565b3461032a57610ca336600461038b565b61038761041d610c88565b3461032a57610cbe36600461038b565b610387600080516020612b7b83398151915261055a565b3461032a5761061b610ce8366004610871565b90611b59565b3461032a5761061b610d013660046104a3565b611bbc565b3461032a5761061b610d193660046104a3565b611c1d565b3461032a57610d2e36600461038b565b610387600080516020612bbb83398151915261055a565b3461032a57610d5536600461038b565b6103877f189ab7a9244df0848122154315af71fe140f3db0fe014031783b0946b8c9d2e361055a565b3461032a5761061b610d913660046104a3565b611c50565b610d9f81611c59565b908115610daa575090565b9050610dc66336372b0760e01b5b916001600160e01b03191690565b1490565b61035290610c51565b6103526003600080516020612b5b8339815191525b01610dca565b610df9919033611c82565b600190565b6103529081565b6103529054610dfe565b6103526002600080516020612b5b8339815191525b01610e05565b610df9929190610e3c83335b83611cba565b611d15565b906104e7565b6001610e2461035292610e58600090565b506000600080516020612bdb8339815191525b01610e41565b9061033c91610e87610e8282610e47565b611da1565b90610e9191611dac565b50565b9061033c91610e71565b6104fe6103526103529290565b6103526012610e9e565b90610ebf33610429565b6001600160a01b03821603610ed757610e9191611e3a565b63334bd91960e11b600090815260045b036000fd5b610f03600080516020612b7b833981519152611da1565b61033c610f0e611f0a565b7faeb196d352664784d1900b0e7414a8face7d29f4dae8c4b0cf68ed477423bbf4610f3860405190565b33815280602081015b0390a1565b61033c610eec565b61033c9190610f6a600080516020612b9b833981519152611da1565b611041565b6104296103526103529290565b61035290610f6f565b15610f8c57565b60405162461bcd60e51b8152602060048201526024808201527f4e6f6f7269546f6b656e3a206d696e7420746f20746865207a65726f206164646044820152637265737360e01b606482015280608481015b0390fd5b15610fe957565b60405162461bcd60e51b815260206004820152602a60248201527f4e6f6f7269546f6b656e3a206d696e7420616d6f756e74206e6f7420677265616044820152690746572207468616e20360b41b6064820152608490fd5b6110b86110ae7f0f6798a560793a54c3bcfe86a93cde1e73087d944c0ea20544137d41213968859261108a6110796104296000610f7c565b6001600160a01b0383161415610f85565b61109f61109760006109b9565b865b11610fe2565b6110a98582611f12565b6104d4565b9261055e60405190565b0390a2565b9061033c91610f4e565b61033c9033611f61565b611f61565b610352906104fe565b61035290546110d6565b156110f057565b60405162461bcd60e51b815260206004820152601860248201527f4e6f7420616e20617574686f72697a65642062726964676500000000000000006044820152606490fd5b610352929190611155600080516020612bfb8339815191525b3390611986565b80611169575b611164906110e9565b611187565b5061116461118061117b3360026104dd565b6110df565b905061115b565b50610df9919061119d6110796104296000610f7c565b6111b06111aa60006109b9565b83611099565b611f12565b61035291906000611135565b9061033c916111ce611fb2565b9061033c916111dc81612069565b612093565b9061033c916111c1565b610352906111f7612162565b611225565b6103527f360894a13ba1a3210667c828492db98dca3e2076cc3735a920a3ca505d382bbc6109b9565b506103526111fc565b61035260006111eb565b6103527fcd5ed15c6e187e77e9aee88184c21f4f2182ab5827cb3b7e07fbedcd63f033006110df565b61033c9061127c600080516020612c1b833981519152611da1565b611298906110a981600080516020612c1b833981519152610e94565b7f54e4612788f90384e6843298d7854436f3a585b2c3831ab66abf1de63bfa6c2d6112c260405190565b80806110b8565b61033c90611261565b6112fa610352916112e1600090565b506000600080516020612b5b8339815191525b016104dd565b610e05565b6113076121a4565b61033c61033c6113176000610f7c565b612207565b61033c6112ff565b61033c9190611340600080516020612c1b833981519152611da1565b6110b86113887f902923dcd4814f6cef7005a70e01d5cf2035ab02d4523ef3b865f1d7bab885af9284600014611392576110a981600080516020612b7b833981519152610e94565b9261037860405190565b6110a981600080516020612b7b833981519152611a76565b9061033c91611324565b61033c906113cf600080516020612bbb833981519152611da1565b6113fe565b9060ff905b9181191691161790565b906113f36103526113fa92151590565b82546113d4565b9055565b600061140e61033c9260016104dd565b6113e3565b61033c906113b4565b61033c90611437600080516020612c1b833981519152611da1565b61144b906110a9600061140e8360036104dd565b7ff915cd9fe234de6e8d3afe7bf2388d35b2b6d48e8c629a24602019bde79c213a6112c260405190565b61033c9061141c565b61033c919061149a600080516020612bfb83398151915261114e565b806114ae575b6114a9906110e9565b6114c7565b506114a96114c061117b3360026104dd565b90506114a0565b9061033c91612274565b9061033c9161147e565b6103529060401c6104fe565b61035290546114db565b610352905b67ffffffffffffffff1690565b61035290546114f1565b6114f66103526103529290565b9067ffffffffffffffff906113d9565b6114f66103526103529267ffffffffffffffff1690565b906115516103526113fa9261152a565b825461151a565b9068ff00000000000000009060401b6113d9565b9061157c6103526113fa92151590565b8254611558565b6103559061150d565b60208101929161033c9190611583565b6115a4612283565b806115be6115b86115b4836114e7565b1590565b91611503565b6000916115ca8361150d565b67ffffffffffffffff831614806116c5575b6001926115f96115eb8561150d565b9167ffffffffffffffff1690565b14908161169d575b155b9081611694575b5061168557806116268461161d8561150d565b96019586611541565b611676575b6116336117e9565b61163c57505050565b61166a610f41927fc7f505b2f371ae2175ee4913f4499e1f2633a7b5936321eed1cdaeb6115181d29461156c565b6040519182918261158c565b611680828561156c565b61162b565b63f92ee8a960e01b8352600483fd5b1590503861160a565b90506116036116ab306104d4565b3b6116bc6116b8876109b9565b9190565b14919050611601565b50806115dc565b6116d6600b610a0f565b6a2727a7a924902a27a5a2a760a91b602082015290565b6103526116cc565b6116ff6005610a0f565b644e4f4f524960d81b602082015290565b6103526116f5565b9160001960089290920291821b911b6113d9565b919061173d6103526113fa936109b9565b908354611718565b61033c9160009161172c565b81811061175c575050565b8061176a6000600193611745565b01611751565b9190601f811161177f57505050565b61179161033c93600052602060002090565b906020601f8401819004830193106117b3575b6020601f909101040190611751565b90915081906117a4565b6117d260036117cc8354610b99565b83611770565b6006621554d160ea1b019055565b61033c906117bd565b6118026117f46116ed565b6117fc611710565b906122a2565b61180a6122b4565b6118126122b4565b61181a6122b4565b6118226122b4565b61182b336122d1565b61183d6118366109c6565b3390611dac565b50611855600080516020612c1b833981519152611836565b5061186d600080516020612b9b833981519152611836565b50611885600080516020612b7b833981519152611836565b506118af7f189ab7a9244df0848122154315af71fe140f3db0fe014031783b0946b8c9d2e3611836565b506118c7600080516020612bbb833981519152611836565b506118df600080516020612bfb833981519152611836565b5061033c60006117e0565b61033c61159c565b611909600080516020612b7b833981519152611da1565b61033c61191461233c565b7f5ee71a369c8672edded508e624ffc9257fa1ae6886ef32905c18e60196bca399610f3860405190565b61033c6118f2565b61035290610429565b6103529054611946565b61035260007f9016d09d72d40fdae2fd8ceac6b6234c7706214fd39c1cd1e609a0528c1993005b0161194f565b6103529160006112f461117b9361199b600090565b5082600080516020612bdb833981519152610e6b565b6103526004600080516020612b5b833981519152610de8565b610df9919033611d15565b61033c91906119f1600080516020612c1b833981519152611da1565b6110b86113887fb21afb9ce9be0a676f8f317ff0ca072fb89a4f8ce2d1b6fe80f8755c14f1cb199284600014611a39576110a981600080516020612b9b833981519152610e94565b6110a981600080516020612b9b833981519152611a76565b9061033c916119d5565b9061033c91611a6c610e8282610e47565b90610e9191611e3a565b9061033c91611a5b565b61035291611aaa6112fa92611a93600090565b506001600080516020612b5b8339815191526112f4565b6104dd565b61117b61035291611abe600090565b5060036104dd565b61033c9190611ae2600080516020612c1b833981519152611da1565b6110b86113887fc11208a19c10526c5b56ff36e4790217719cbe00bda41649d1d47b0d1d5d5c0d9284600014611b3b57611b2a81600080516020612bfb833981519152611dac565b505b6110a98561140e8360026104dd565b611b5381600080516020612bfb833981519152611e3a565b50611b2c565b9061033c91611ac6565b61033c90611b7e600080516020612c1b833981519152611da1565b611b92906110a9600161140e8360036104dd565b7f4f2a367e694e71282f29ab5eaa04c4c0be45ac5bf2ca74fb67068b98bdc2887d6112c260405190565b61033c90611b63565b61033c90611bd16121a4565b6000611bdc81610f7c565b6001600160a01b0381166001600160a01b03841614611c0057505061033c90612207565b631e4fbdf760e01b82526001600160a01b03166004820152602490fd5b61033c90611bc5565b61033c90611c41600080516020612bbb833981519152611da1565b600161140e61033c92826104dd565b61033c90611c26565b637965db0b60e01b6001600160e01b0319821614908115611c78575090565b6103529150612344565b9160019161033c93612375565b6001600160a01b03909116815260608101939261033c929091604091611cb6906020830152565b0152565b91611cc58284611a80565b6000198110611cd5575b50505050565b818110611cfb5791611cec611cf294926000940390565b91612375565b38808080611ccf565b637dc7a0d960e11b60009081529350610ee7926004611c8f565b929190600093611d2485610f7c565b856001600160a01b0382166001600160a01b03841614611d8157506001600160a01b0381166001600160a01b03841614611d64575061033c9394506125ef565b63ec442f0560e01b86526001600160a01b03166004860152602485fd5b634b637e8f60e11b81526001600160a01b03919091166004820152602490fd5b61033c903390612617565b600080516020612bdb833981519152611dc86115b48484611986565b15611e3257600161140e8460006112f48682611de49701610e41565b611dfe611df8611df2339390565b936104d4565b916104d4565b917f2f8788117e7eff1d82e926ec794901d17c78024a50270940304540a733656f0d611e2960405190565b600090a4600190565b505050600090565b600080516020612bdb833981519152611e538383611986565b15611e3257600061140e84826112f48682611e6e9701610e41565b611e7c611df8611df2339390565b917ff6391f5c32d9c69d2a47ea670b442974b53935d1edc7fd64eb21e047a839171b611e2960405190565b611eaf612646565b61033c611ee06000807fcd5ed15c6e187e77e9aee88184c21f4f2182ab5827cb3b7e07fbedcd63f033005b016113e3565b7f5db9ee0a495bf2e6ff9c91a7834c1ba4fdd244a5e8aa4e537bd38aeae4b073aa610f4133610968565b61033c611ea7565b9190600092611f2084610f7c565b6001600160a01b0381166001600160a01b03831614611f445761033c9394506125ef565b63ec442f0560e01b85526001600160a01b03166004850152602484fd5b9190600092611f6f84610f7c565b906001600160a01b0382166001600160a01b03821614611f945761033c9394506125ef565b634b637e8f60e11b85526001600160a01b0382166004860152602485fd5b611fbb306104d4565b7f000000000000000000000000000000000000000000000000000000000000000090611ff86001600160a01b0383165b916001600160a01b031690565b1490811561201a575b5061200857565b63703e46dd60e11b6000908152600490fd5b9050612037611feb61202a612669565b926001600160a01b031690565b141538612001565b5061033c7f189ab7a9244df0848122154315af71fe140f3db0fe014031783b0946b8c9d2e3611da1565b61033c9061203f565b9050519061033c82610451565b9060208282031261032a5761035291612072565b906120a06110a9836104d4565b9060206120ac60405190565b6352d1902d60e01b815292839060049082905afa60009281612131575b506120fb57505060016120d95750565b634c9c8ce360e01b60009081526001600160a01b039091166004526024036000fd5b9092916121096103526111fc565b840361211a5761033c929350612679565b632a87526960e21b60009081526004859052602490fd5b61215491935060203d60201161215b575b61214c81836106e3565b81019061207f565b91386120c9565b503d612142565b61216b306104d4565b61219d6001600160a01b037f000000000000000000000000000000000000000000000000000000000000000016611feb565b0361200857565b6121ac611959565b33906121b782611feb565b036121bf5750565b63118cdaa760e01b60009081526001600160a01b039091166004526024036000fd5b906001600160a01b03906113d9565b906122006103526113fa926104d4565b82546121e1565b612241611df87f9016d09d72d40fdae2fd8ceac6b6234c7706214fd39c1cd1e609a0528c1993006110a98461223b8361194f565b926121f0565b907f8be0079c531659141344cd1fd0a4f28419497f9722a3daafe3b4186f6b6457e061226c60405190565b80805b0390a3565b61033c91906110d18233610e36565b61035261270b565b9061033c91612298612713565b9061033c91612854565b9061033c9161228b565b61033c612713565b61033c6122ac565b61033c906122c8612713565b61033c9061286a565b61033c906122bc565b6122e2612873565b61033c612312600160007fcd5ed15c6e187e77e9aee88184c21f4f2182ab5827cb3b7e07fbedcd63f03300611eda565b7f62e78cea01bee320cd4e420270b5ea74000d11b0c9f74754ebdbfc544b05a258610f4133610968565b61033c6122da565b610dc66301ffc9a760e01b610db8565b90600019906113d9565b9061236e6103526113fa926109b9565b8254612354565b90919261238d600080516020612b5b83398151915290565b600061239881610f7c565b6001600160a01b0381166001600160a01b03861614612446576001600160a01b0381166001600160a01b03871614612429575050846123e185611aaa8660016123e696016104dd565b61235e565b6123ef57505050565b61226f61241f611df27f8c5be1e5ebec7d5bd14f71427d1e84f3dd0314c0f7b2291e5b200ac8c7c3b925936104d4565b9361055e60405190565b634a1406b160e11b82526001600160a01b03166004820152602490fd5b63e602df0560e01b82526001600160a01b03166004820152602490fd5b9061033c9291612471612873565b612576565b1561247d57565b60405162461bcd60e51b815260206004820152601d60248201527f4e4f4f52493a206163636f756e7420697320626c61636b6c69737465640000006044820152606490fd5b156124c957565b60405162461bcd60e51b8152602060048201526024808201527f4e6f6f7269546f6b656e3a2073656e646572206163636f756e7420697320667260448201526337bd32b760e11b6064820152608490fd5b1561252157565b60405162461bcd60e51b815260206004820152602760248201527f4e6f6f7269546f6b656e3a20726563697069656e74206163636f756e7420697360448201526610333937bd32b760c91b6064820152608490fd5b9061033c929161258d6115b461117b8360016104dd565b806125d3575b61259c90612476565b6125b56125b06115b461117b8460036104dd565b6124c2565b6125ce6125c96115b461117b8560036104dd565b61251a565b6128bb565b5061259c6125e86115b461117b8560016104dd565b9050612593565b9061033c9291612463565b6001600160a01b03909116815260408101929161033c9160200152565b906126256115b48284611986565b61262d575050565b63e2517d3f60e01b600090815291610ee79160046125fa565b6126516115b4611238565b61265757565b638dfc202b60e01b6000908152600490fd5b61035260006119806103526111fc565b9061268382612a05565b61268c826104d4565b7fbc7cd75a20ee27fd9adebab32041f755214dbc6bffa90cc0225b39da2e5c2d3b6126b660405190565b600090a280516126c96116b860006109b9565b11156126d857610e9191612a92565b505061033c612a50565b6103527ff0c57e16840df040f15088dc2f81fe391c3923bec73e23a9662efc9c229c6a006109b9565b6103526126e2565b61271e6115b4612ab9565b61272457565b631afcd79f60e31b6000908152600490fd5b9061033c91612743612713565b612825565b90612751815190565b9067ffffffffffffffff8211610705576127758261276f8554610b99565b85611770565b602090601f83116001146127b0576113fa9291600091836127a5575b5050600019600883021c1916906002021790565b015190503880612791565b601f198316916127c585600052602060002090565b9260005b818110612803575091600293918560019694106127ea575b50505002019055565b01516000196008601f8516021c191690553880806127e1565b919360206001819287870151815501950192016127c9565b9061033c91612748565b90600461033c9261284e612844600080516020612b5b83398151915290565b916003830161281b565b0161281b565b9061033c91612736565b61033c90611bd1612713565b61033c9061285e565b61287b611238565b61288157565b63d93c066560e01b6000908152600490fd5b634e487b7160e01b600052601160045260246000fd5b919082018092116128b657565b612893565b600080516020612b5b8339815191528260006128d681610f7c565b6001600160a01b0381166001600160a01b0386160361298657938361241f93611df2936129417fddf252ad1be2c89b69c2b068fc378daa952ba7f163c4a11628f55a4df523b3ef986104298c61293b600261226f9c019161293683610e05565b6128a9565b9061235e565b6001600160a01b0383160361296a57505060026110a9910161293b8961296683610e05565b0390565b90612979916110a993016104dd565b61293b896103ed83610e05565b9080925083016129996112fa86836104dd565b8781106129ea57938661241f94612941611df2956104298a966123e17fddf252ad1be2c89b69c2b068fc378daa952ba7f163c4a11628f55a4df523b3ef9c8f6129e49061226f9e0390565b926104dd565b83610fde8982938963391434e360e21b855260048501611c8f565b6000813b612a156116b8836109b9565b14612a30579061033c91612a2a6103526111fc565b016121f0565b634c9c8ce360e01b81526001600160a01b03919091166004820152602490fd5b6000612a5b816109b9565b3411612a645750565b63b398979f60e01b8152600490fd5b3d15612a8d57612a823d610a0f565b903d6000602084013e565b606090565b60008061035293612aa1606090565b50602081519101845af4612ab3612a73565b91612acc565b6103526000612ac6612283565b016114e7565b90612ad75750612b2b565b815190600091612ae96116b8846109b9565b1480612b16575b612af957505090565b639996b31560e01b82526001600160a01b03166004820152602490fd5b50803b612b256116b8846109b9565b14612af0565b8051600090612b3c6116b8836109b9565b1115612b4b5750805190602001fd5b63d6bda27560e01b8152600490fdfe52c63247e1f47db19d5ce0460030c497f067ca4cebf71ba98eeadabe20bace0065d7a28e3265b37a6474929f336521b332c1681b933f6cb9f3376673440d862a9f2df0fed2c77648de5860a4cc508cd0818c85b8b8a1ab4ceeef8d981c8956a698db8a220cd0f09badce9f22d0ba7e93edb3d404448cc3560d391ab096ad16e902dd7bc7dec4dceedda775e58dd541e08a116c6c53815c0bd028192f7b62680052ba824bfabc2bcfcdf7f0edbb486ebb05e1836c90e78047efeb949990f72e5fa49807205ce4d355092ef5a8a18f56e8913cf4a201fbe287825b095693c21775a2646970667358221220c64171c608f9ee5c0d59797759ccf1821f248de4cdad4ee311c570dea09e998d64736f6c634300081b0033",
  "linkReferences": {},
  "deployedLinkReferences": {}
}