{
  "_format": "hh-sol-artifact-1",
  "contractName": "NooriBankBridge",
  "sourceName": "contracts/NooriBankBridge.sol",
  "abi": [
    {
      "inputs": [],
      "stateMutability": "nonpayable",
      "type": "constructor"
    },
    {
      "inputs": [
        {
          "internalType": "address",
          "name": "target",
          "type": "address"
        }
      ],
      "name": "AddressEmptyCode",
      "type": "error"
    },
    {
      "inputs": [
        {
          "internalType": "address",
          "name": "implementation",
          "type": "address"
        }
      ],
      "name": "ERC1967InvalidImplementation",
      "type": "error"
    },
    {
      "inputs": [],
      "name": "ERC1967NonPayable",
      "type": "error"
    },
    {
      "inputs": [],
      "name": "FailedCall",
      "type": "error"
    },
    {
      "inputs": [],
      "name": "InvalidInitialization",
      "type": "error"
    },
    {
      "inputs": [],
      "name": "NotInitializing",
      "type": "error"
    },
    {
      "inputs": [
        {
          "internalType": "address",
          "name": "owner",
          "type": "address"
        }
      ],
      "name": "OwnableInvalidOwner",
      "type": "error"
    },
    {
      "inputs": [
        {
          "internalType": "address",
          "name": "account",
          "type": "address"
        }
      ],
      "name": "OwnableUnauthorizedAccount",
      "type": "error"
    },
    {
      "inputs": [],
      "name": "ReentrancyGuardReentrantCall",
      "type": "error"
    },
    {
      "inputs": [],
      "name": "UUPSUnauthorizedCallContext",
      "type": "error"
    },
    {
      "inputs": [
        {
          "internalType": "bytes32",
          "name": "slot",
          "type": "bytes32"
        }
      ],
      "name": "UUPSUnsupportedProxiableUUID",
      "type": "error"
    },
    {
      "anonymous": false,
      "inputs": [
        {
          "indexed": false,
          "internalType": "address",
          "name": "token",
          "type": "address"
        },
        {
          "indexed": false,
          "internalType": "uint16",
          "name": "sourceChainId",
          "type": "uint16"
        }
      ],
      "name": "BridgeInitialized",
      "type": "event"
    },
    {
      "anonymous": false,
      "inputs": [
        {
          "indexed": true,
          "internalType": "uint16",
          "name": "chainId",
          "type": "uint16"
        },
        {
          "indexed": false,
          "internalType": "address",
          "name": "remoteBridge",
          "type": "address"
        }
      ],
      "name": "ChainRegistered",
      "type": "event"
    },
    {
      "anonymous": false,
      "inputs": [
        {
          "indexed": true,
          "internalType": "uint16",
          "name": "chainId",
          "type": "uint16"
        },
        {
          "indexed": false,
          "internalType": "bool",
          "name": "enabled",
          "type": "bool"
        }
      ],
      "name": "ChainToggled",
      "type": "event"
    },
    {
      "anonymous": false,
      "inputs": [
        {
          "indexed": true,
          "internalType": "address",
          "name": "from",
          "type": "address"
        },
        {
          "indexed": false,
          "internalType": "uint16",
          "name": "targetChainId",
          "type": "uint16"
        },
        {
          "indexed": false,
          "internalType": "address",
          "name": "targetAddress",
          "type": "address"
        },
        {
          "indexed": false,
          "internalType": "uint256",
          "name": "amount",
          "type": "uint256"
        }
      ],
      "name": "CrossChainTransferInitiated",
      "type": "event"
    },
    {
      "anonymous": false,
      "inputs": [
        {
          "indexed": false,
          "internalType": "uint64",
          "name": "version",
          "type": "uint64"
        }
      ],
      "name": "Initialized",
      "type": "event"
    },
    {
      "anonymous": false,
      "inputs": [
        {
          "indexed": true,
          "internalType": "address",
          "name": "previousOwner",
          "type": "address"
        },
        {
          "indexed": true,
          "internalType": "address",
          "name": "newOwner",
          "type": "address"
        }
      ],
      "name": "OwnershipTransferred",
      "type": "event"
    },
    {
      "anonymous": false,
      "inputs": [
        {
          "indexed": true,
          "internalType": "address",
          "name": "user",
          "type": "address"
        },
        {
          "indexed": false,
          "internalType": "uint256",
          "name": "amount",
          "type": "uint256"
        },
        {
          "indexed": false,
          "internalType": "string",
          "name": "targetChain",
          "type": "string"
        },
        {
          "indexed": false,
          "internalType": "address",
          "name": "targetAddress",
          "type": "address"
        }
      ],
      "name": "TokenLocked",
      "type": "event"
    },
    {
      "anonymous": false,
      "inputs": [
        {
          "indexed": true,
          "internalType": "address",
          "name": "user",
          "type": "address"
        },
        {
          "indexed": false,
          "internalType": "uint256",
          "name": "amount",
          "type": "uint256"
        },
        {
          "indexed": false,
          "internalType": "string",
          "name": "sourceChain",
          "type": "string"
        },
        {
          "indexed": false,
          "internalType": "bytes32",
          "name": "transactionHash",
          "type": "bytes32"
        }
      ],
      "name": "TokenMinted",
      "type": "event"
    },
    {
      "anonymous": false,
      "inputs": [
        {
          "indexed": false,
          "internalType": "address",
          "name": "newAddress",
          "type": "address"
        }
      ],
      "name": "TokenUpdated",
      "type": "event"
    },
    {
      "anonymous": false,
      "inputs": [
        {
          "indexed": true,
          "internalType": "bytes32",
          "name": "transferId",
          "type": "bytes32"
        },
        {
          "indexed": true,
          "internalType": "address",
          "name": "recipient",
          "type": "address"
        },
        {
          "indexed": false,
          "internalType": "uint256",
          "name": "amount",
          "type": "uint256"
        }
      ],
      "name": "TransferDelayed",
      "type": "event"
    },
    {
      "anonymous": false,
      "inputs": [
        {
          "indexed": true,
          "internalType": "address",
          "name": "implementation",
          "type": "address"
        }
      ],
      "name": "Upgraded",
      "type": "event"
    },
    {
      "inputs": [],
      "name": "DELAY_PERIOD",
      "outputs": [
        {
          "internalType": "uint256",
          "name": "",
          "type": "uint256"
        }
      ],
      "stateMutability": "view",
      "type": "function"
    },
    {
      "inputs": [],
      "name": "LARGE_TRANSFER_THRESHOLD",
      "outputs": [
        {
          "internalType": "uint256",
          "name": "",
          "type": "uint256"
        }
      ],
      "stateMutability": "view",
      "type": "function"
    },
    {
      "inputs": [],
      "name": "SOURCE_CHAIN_ID",
      "outputs": [
        {
          "internalType": "uint16",
          "name": "",
          "type": "uint16"
        }
      ],
      "stateMutability": "view",
      "type": "function"
    },
    {
      "inputs": [],
      "name": "UPGRADE_INTERFACE_VERSION",
      "outputs": [
        {
          "internalType": "string",
          "name": "",
          "type": "string"
        }
      ],
      "stateMutability": "view",
      "type": "function"
    },
    {
      "inputs": [
        {
          "internalType": "address",
          "name": "",
          "type": "address"
        }
      ],
      "name": "blockedAddresses",
      "outputs": [
        {
          "internalType": "bool",
          "name": "",
          "type": "bool"
        }
      ],
      "stateMutability": "view",
      "type": "function"
    },
    {
      "inputs": [
        {
          "internalType": "uint256",
          "name": "amount",
          "type": "uint256"
        },
        {
          "internalType": "string",
          "name": "targetChain",
          "type": "string"
        },
        {
          "internalType": "address",
          "name": "targetAddress",
          "type": "address"
        }
      ],
      "name": "burnTokens",
      "outputs": [],
      "stateMutability": "nonpayable",
      "type": "function"
    },
    {
      "inputs": [],
      "name": "endpoint",
      "outputs": [
        {
          "internalType": "contract ILayerZeroEndpoint",
          "name": "",
          "type": "address"
        }
      ],
      "stateMutability": "view",
      "type": "function"
    },
    {
      "inputs": [
        {
          "internalType": "bytes32",
          "name": "transferId",
          "type": "bytes32"
        }
      ],
      "name": "executeDelayedTransfer",
      "outputs": [],
      "stateMutability": "nonpayable",
      "type": "function"
    },
    {
      "inputs": [
        {
          "internalType": "address",
          "name": "_token",
          "type": "address"
        },
        {
          "internalType": "address",
          "name": "_endpoint",
          "type": "address"
        },
        {
          "internalType": "uint256",
          "name": "_minGasForTransfer",
          "type": "uint256"
        }
      ],
      "name": "initialize",
      "outputs": [],
      "stateMutability": "nonpayable",
      "type": "function"
    },
    {
      "inputs": [
        {
          "internalType": "address",
          "name": "to",
          "type": "address"
        },
        {
          "internalType": "uint256",
          "name": "amount",
          "type": "uint256"
        }
      ],
      "name": "initiateTransfer",
      "outputs": [],
      "stateMutability": "nonpayable",
      "type": "function"
    },
    {
      "inputs": [
        {
          "internalType": "uint256",
          "name": "amount",
          "type": "uint256"
        },
        {
          "internalType": "string",
          "name": "targetChain",
          "type": "string"
        },
        {
          "internalType": "address",
          "name": "targetAddress",
          "type": "address"
        }
      ],
      "name": "lockTokens",
      "outputs": [],
      "stateMutability": "nonpayable",
      "type": "function"
    },
    {
      "inputs": [
        {
          "internalType": "uint16",
          "name": "_srcChainId",
          "type": "uint16"
        },
        {
          "internalType": "bytes",
          "name": "_srcAddress",
          "type": "bytes"
        },
        {
          "internalType": "uint64",
          "name": "_nonce",
          "type": "uint64"
        },
        {
          "internalType": "bytes",
          "name": "_payload",
          "type": "bytes"
        }
      ],
      "name": "lzReceive",
      "outputs": [],
      "stateMutability": "nonpayable",
      "type": "function"
    },
    {
      "inputs": [],
      "name": "minGasForTransfer",
      "outputs": [
        {
          "internalType": "uint256",
          "name": "",
          "type": "uint256"
        }
      ],
      "stateMutability": "view",
      "type": "function"
    },
    {
      "inputs": [
        {
          "internalType": "address",
          "name": "to",
          "type": "address"
        },
        {
          "internalType": "uint256",
          "name": "amount",
          "type": "uint256"
        },
        {
          "internalType": "string",
          "name": "sourceChain",
          "type": "string"
        },
        {
          "internalType": "bytes32",
          "name": "transactionHash",
          "type": "bytes32"
        }
      ],
      "name": "mintTokens",
      "outputs": [
        {
          "internalType": "bool",
          "name": "",
          "type": "bool"
        }
      ],
      "stateMutability": "nonpayable",
      "type": "function"
    },
    {
      "inputs": [],
      "name": "owner",
      "outputs": [
        {
          "internalType": "address",
          "name": "",
          "type": "address"
        }
      ],
      "stateMutability": "view",
      "type": "function"
    },
    {
      "inputs": [
        {
          "internalType": "bytes32",
          "name": "",
          "type": "bytes32"
        }
      ],
      "name": "pendingTransfers",
      "outputs": [
        {
          "internalType": "address",
          "name": "recipient",
          "type": "address"
        },
        {
          "internalType": "uint256",
          "name": "amount",
          "type": "uint256"
        },
        {
          "internalType": "uint256",
          "name": "timestamp",
          "type": "uint256"
        },
        {
          "internalType": "bool",
          "name": "processed",
          "type": "bool"
        }
      ],
      "stateMutability": "view",
      "type": "function"
    },
    {
      "inputs": [
        {
          "internalType": "bytes32",
          "name": "transferId",
          "type": "bytes32"
        }
      ],
      "name": "processDelayedTransfer",
      "outputs": [],
      "stateMutability": "nonpayable",
      "type": "function"
    },
    {
      "inputs": [
        {
          "internalType": "bytes32",
          "name": "",
          "type": "bytes32"
        }
      ],
      "name": "processedHashes",
      "outputs": [
        {
          "internalType": "bool",
          "name": "",
          "type": "bool"
        }
      ],
      "stateMutability": "view",
      "type": "function"
    },
    {
      "inputs": [],
      "name": "proxiableUUID",
      "outputs": [
        {
          "internalType": "bytes32",
          "name": "",
          "type": "bytes32"
        }
      ],
      "stateMutability": "view",
      "type": "function"
    },
    {
      "inputs": [
        {
          "internalType": "uint16",
          "name": "chainId",
          "type": "uint16"
        },
        {
          "internalType": "address",
          "name": "remoteBridge",
          "type": "address"
        },
        {
          "internalType": "bool",
          "name": "enabled",
          "type": "bool"
        }
      ],
      "name": "registerChain",
      "outputs": [],
      "stateMutability": "nonpayable",
      "type": "function"
    },
    {
      "inputs": [
        {
          "internalType": "address",
          "name": "to",
          "type": "address"
        },
        {
          "internalType": "uint256",
          "name": "amount",
          "type": "uint256"
        },
        {
          "internalType": "string",
          "name": "sourceChain",
          "type": "string"
        },
        {
          "internalType": "bytes32",
          "name": "transactionHash",
          "type": "bytes32"
        }
      ],
      "name": "releaseTokens",
      "outputs": [],
      "stateMutability": "nonpayable",
      "type": "function"
    },
    {
      "inputs": [
        {
          "internalType": "uint16",
          "name": "",
          "type": "uint16"
        }
      ],
      "name": "remoteBridges",
      "outputs": [
        {
          "internalType": "address",
          "name": "",
          "type": "address"
        }
      ],
      "stateMutability": "view",
      "type": "function"
    },
    {
      "inputs": [],
      "name": "renounceOwnership",
      "outputs": [],
      "stateMutability": "nonpayable",
      "type": "function"
    },
    {
      "inputs": [
        {
          "internalType": "address",
          "name": "tokenAddress",
          "type": "address"
        },
        {
          "internalType": "uint256",
          "name": "amount",
          "type": "uint256"
        }
      ],
      "name": "rescueTokens",
      "outputs": [],
      "stateMutability": "nonpayable",
      "type": "function"
    },
    {
      "inputs": [
        {
          "internalType": "uint16",
          "name": "_srcChainId",
          "type": "uint16"
        },
        {
          "internalType": "bytes",
          "name": "_srcAddress",
          "type": "bytes"
        },
        {
          "internalType": "bytes",
          "name": "",
          "type": "bytes"
        }
      ],
      "name": "retryPayload",
      "outputs": [],
      "stateMutability": "nonpayable",
      "type": "function"
    },
    {
      "inputs": [
        {
          "internalType": "uint16",
          "name": "targetChainId",
          "type": "uint16"
        },
        {
          "internalType": "address",
          "name": "targetAddress",
          "type": "address"
        },
        {
          "internalType": "uint256",
          "name": "amount",
          "type": "uint256"
        }
      ],
      "name": "sendTokens",
      "outputs": [],
      "stateMutability": "payable",
      "type": "function"
    },
    {
      "inputs": [
        {
          "internalType": "address",
          "name": "account",
          "type": "address"
        },
        {
          "internalType": "bool",
          "name": "blocked",
          "type": "bool"
        }
      ],
      "name": "setBlockedAddress",
      "outputs": [],
      "stateMutability": "nonpayable",
      "type": "function"
    },
    {
      "inputs": [
        {
          "internalType": "uint256",
          "name": "_minGasForTransfer",
          "type": "uint256"
        }
      ],
      "name": "setMinGasForTransfer",
      "outputs": [],
      "stateMutability": "nonpayable",
      "type": "function"
    },
    {
      "inputs": [
        {
          "internalType": "uint16",
          "name": "",
          "type": "uint16"
        }
      ],
      "name": "supportedChains",
      "outputs": [
        {
          "internalType": "address",
          "name": "remoteBridge",
          "type": "address"
        },
        {
          "internalType": "bool",
          "name": "enabled",
          "type": "bool"
        }
      ],
      "stateMutability": "view",
      "type": "function"
    },
    {
      "inputs": [
        {
          "internalType": "uint16",
          "name": "chainId",
          "type": "uint16"
        },
        {
          "internalType": "bool",
          "name": "enabled",
          "type": "bool"
        }
      ],
      "name": "toggleChain",
      "outputs": [],
      "stateMutability": "nonpayable",
      "type": "function"
    },
    {
      "inputs": [],
      "name": "token",
      "outputs": [
        {
          "internalType": "contract INooriToken",
          "name": "",
          "type": "address"
        }
      ],
      "stateMutability": "view",
      "type": "function"
    },
    {
      "inputs": [
        {
          "internalType": "address",
          "name": "newOwner",
          "type": "address"
        }
      ],
      "name": "transferOwnership",
      "outputs": [],
      "stateMutability": "nonpayable",
      "type": "function"
    },
    {
      "inputs": [
        {
          "internalType": "address",
          "name": "newAddress",
          "type": "address"
        }
      ],
      "name": "updateToken",
      "outputs": [],
      "stateMutability": "nonpayable",
      "type": "function"
    },
    {
      "inputs": [
        {
          "internalType": "address",
          "name": "newImplementation",
          "type": "address"
        },
        {
          "internalType": "bytes",
          "name": "data",
          "type": "bytes"
        }
      ],
      "name": "upgradeToAndCall",
      "outputs": [],
      "stateMutability": "payable",
      "type": "function"
    }
  ],
  "bytecode": "0x60a06040523461003257610011610037565b6040516132b96101e98239608051818181612c6b0152612de101526132b990f35b600080fd5b61003f610049565b61004761010a565b565b610047610086565b61006590610068906001600160a01b031682565b90565b6001600160a01b031690565b61006590610051565b61006590610074565b61008f3061007d565b608052565b6100659060401c60ff1690565b6100659054610094565b610065905b6001600160401b031690565b61006590546100ab565b610065906100b0906001600160401b031682565b906100ea610065610106926100c6565b82546001600160401b0319166001600160401b03919091161790565b9055565b60006101146101a2565b0161011e816100a1565b6101905761012b816100bc565b6001600160401b0391908290811603610142575050565b816101717fc7f505b2f371ae2175ee4913f4499e1f2633a7b5936321eed1cdaeb6115181d29361018b936100da565b604051918291826001600160401b03909116815260200190565b0390a1565b63f92ee8a960e01b6000908152600490fd5b6100656101e0565b6100656100656100659290565b6100657ff0c57e16840df040f15088dc2f81fe391c3923bec73e23a9662efc9c229c6a006101aa565b6100656101b756fe6080604052600436101561001257600080fd5b60003560e01c80621d35671461023157806307d9c5341461022c57806310d58783146102275780631794bb3c146102225780633c43d99d1461021d5780634514ad12146102185780634f1ef286146102135780634f93208a1461020e57806352d1902d1461020957806357376198146102045780635745a3a2146101ff5780635e280f11146101fa578063715018a6146101f557806374be2150146101f05780637ad3def2146101eb5780638d4ab2c0146101e65780638da5cb5b146101e157806392d5011f146101dc5780639e25fc5c146101d7578063aaff5f16146101d2578063ad3cb1cc146101cd578063b2f18522146101c8578063b504cd1e146101c3578063b932aa37146101be578063be6cd04f146101b9578063cfa713a3146101b4578063d01292dd146101af578063d5e42e2c146101aa578063e331de2b146101a5578063e71a02e1146101a0578063f2fde38b1461019b578063f6a0817b14610196578063fb7a9479146101915763fc0c546a0361024357610d7b565b610d55565b610d27565b610ce6565b610ccb565b610c9b565b610c80565b610c3c565b610c24565b610c08565b610bab565b610b76565b610b57565b610adc565b610a13565b6109a7565b61098e565b61092e565b6108ed565b610846565b610816565b6107df565b6107b8565b610763565b61074a565b610713565b6106f8565b610690565b610569565b610528565b6104f6565b610482565b6103a0565b61030a565b61ffff81165b0361024357565b600080fd5b9050359061025582610236565b565b909182601f83011215610243578135916001600160401b03831161024357602001926001830284011161024357565b6001600160401b03811661023c565b9050359061025582610286565b9091608082840312610243576102b88383610248565b9260208301356001600160401b03811161024357816102d8918501610257565b9290936102e88360408301610295565b9260608201356001600160401b038111610243576103069201610257565b9091565b346102435761032961031d3660046102a2565b94939093929192611176565b60405180805b0390f35b8061023c565b9050359061025582610333565b906020828203126102435761035a91610339565b90565b905b600052602052604060002090565b61035a916008021c5b60ff1690565b9061035a915461036d565b600061039761035a92600161035d565b61037c565b9052565b346102435761032f6103bb6103b6366004610346565b610387565b6040515b91829182901515815260200190565b906020828203126102435761035a91610248565b6103f361035a61035a9261ffff1690565b61ffff1690565b9061035f906103e2565b61035a905b6001600160a01b031690565b61035a9054610404565b61035a9060a01c610376565b61035a905461041f565b6104409060056103fa565b9061035a600061044f84610415565b930161042b565b61039c90610409565b91602061025592949361047a60408201966000830190610456565b019015159052565b346102435761049a6104953660046103ce565b610435565b9061032f6104a760405190565b9283928361045f565b61023c81610409565b90503590610255826104b0565b90916060828403126102435761035a6104df84846104b9565b9360406104ef82602087016104b9565b9401610339565b34610243576103296105093660046104c6565b916117c6565b90916060828403126102435761035a6104df8484610248565b61032961053636600461050f565b91611c06565b600091031261024357565b61035a916008021c81565b9061035a9154610547565b61035a60006006610552565b346102435761057936600461053c565b61032f61058461055d565b6040515b9182918290815260200190565b634e487b7160e01b600052604160045260246000fd5b90601f01601f191681019081106001600160401b038211176105cc57604052565b610595565b906102556105de60405190565b92836105ab565b6001600160401b0381116105cc57602090601f01601f19160190565b0190565b90826000939282370152565b90929192610626610621826105e5565b6105d1565b938185528183011161024357610255916020850190610605565b9080601f830112156102435781602061035a93359101610611565b9190916040818403126102435761067283826104b9565b9260208201356001600160401b0381116102435761035a9201610640565b61032961069e36600461065b565b90611c31565b906020828203126102435761035a916104b9565b61035a90610409906001600160a01b031682565b61035a906106b8565b61035a906106cc565b9061035f906106d5565b600061039761035a9260076106de565b346102435761032f6103bb61070e3660046106a4565b6106e8565b346102435761072336600461053c565b61032f610584611c7e565b91906040838203126102435761035a9060206104ef82866104b9565b346102435761032961075d36600461072e565b90611d74565b3461024357610329610776366004610346565b611ff9565b61035a916008021c610409565b9061035a915461077b565b61035a60006003610788565b61039c906106d5565b602081019291610255919061079f565b34610243576107c836600461053c565b61032f6107d3610793565b604051918291826107a8565b34610243576107ef36600461053c565b61032961201f565b6103f361035a61035a9290565b61035a60016107f7565b61035a610804565b346102435761082636600461053c565b61032f61083161080e565b6040519182918261ffff909116815260200190565b34610243576103296108593660046106a4565b612089565b61035a9081565b61035a905461085e565b61035a90610376565b61035a905461086f565b61088d90600461035d565b9061089782610415565b916108a460018201610865565b9161035a60036108b660028501610865565b9301610878565b61047a610255946108e66060949897956108df608086019a6000870190610456565b6020850152565b6040830152565b346102435761032f610908610903366004610346565b610882565b9061091594929460405190565b948594856108bd565b6020810192916102559190610456565b346102435761093e36600461053c565b61032f610949612092565b6040515b9182918261091e565b80151561023c565b9050359061025582610956565b91906040838203126102435761035a90602061098782866104b9565b940161095e565b34610243576103296109a136600461096b565b906120d9565b34610243576103296109ba366004610346565b612145565b606081830312610243576109d38282610248565b9260208201356001600160401b03811161024357836109f3918401610257565b92909360408201356001600160401b038111610243576103069201610257565b3461024357610329610a263660046109bf565b93929092612203565b90610a3c610621836105e5565b918252565b610a4b6005610a2f565b640352e302e360dc1b602082015290565b61035a610a41565b61035a610a5c565b61035a610a64565b60005b838110610a875750506000910152565b8181015183820152602001610a77565b610ab8610ac160209361060193610aac815190565b80835293849260200190565b95869101610a74565b601f01601f191690565b602080825261035a92910190610a97565b3461024357610aec36600461053c565b61032f610af7610a6c565b60405191829182610acb565b91909160808184031261024357610b1a83826104b9565b92610b288160208401610339565b9260408301356001600160401b0381116102435782610b4e60609461035a938701610257565b94909501610339565b346102435761032f6103bb610b6d366004610b03565b93929092612467565b3461024357610329610b8936600461072e565b9061253c565b91906040838203126102435761035a9060206109878286610248565b3461024357610329610bbe366004610b8f565b90612639565b9060608282031261024357610bd98183610339565b9260208301356001600160401b0381116102435782610bff60409461035a938701610257565b949095016104b9565b3461024357610329610c1b366004610bc4565b929190916127b3565b3461024357610329610c37366004610346565b6127d6565b3461024357610329610c4f366004610b03565b9392909261288d565b61035a61035a61035a9290565b61035a69152d02c7e14af6800000610c58565b61035a610c65565b3461024357610c9036600461053c565b61032f610584610c78565b3461024357610329610cae366004610bc4565b92919091612954565b61035a62015180610c58565b61035a610cb7565b3461024357610cdb36600461053c565b61032f610584610cc3565b3461024357610329610cf93660046106a4565b6129b2565b90916060828403126102435761035a610d178484610248565b93604061098782602087016104b9565b3461024357610329610d3a366004610cfe565b91612b74565b6000610d5061035a9260026103fa565b610788565b346102435761032f610949610d6b3660046103ce565b610d40565b61035a600080610788565b3461024357610d8b36600461053c565b61032f6107d3610d70565b15610d9d57565b60405162461bcd60e51b815260206004820152601760248201527f496e76616c696420656e64706f696e742063616c6c6572000000000000000000604482015280606481015b0390fd5b15610dee57565b60405162461bcd60e51b815260206004820152601360248201527210da185a5b881b9bdd081cdd5c1c1bdc9d1959606a1b6044820152606490fd5b356bffffffffffffffffffffffff19169060148110610e46575090565b610e63906bffffffffffffffffffffffff19906014036008021b90565b1690565b61035a9060601c6106b8565b61035a90610e67565b15610e8357565b60405162461bcd60e51b8152602060048201526015602482015274496e76616c696420736f757263652062726964676560581b6044820152606490fd5b61040961035a61035a9290565b61035a90610ec0565b15610edd57565b60405162461bcd60e51b8152602060048201526011602482015270125b9d985b1a59081c9958da5c1a595b9d607a1b6044820152606490fd5b9050519061025582610956565b906020828203126102435761035a91610f16565b916020610255929493610f5260408201966000830190610456565b0152565b6040513d6000823e3d90fd5b15610f6957565b60405162461bcd60e51b815260206004820152600e60248201526d135a5b9d1a5b99c819985a5b195960921b6044820152606490fd5b61039c9061ffff1660f01b90565b90610601610fc960029365636861696e2d60d01b815260060190565b8092610f9f565b61035a61035a61035a926001600160401b031690565b9081529291610255916040906110089060608701908782036020890152610a97565b940152565b90916106019083908093610605565b61039c906001600160401b031660c01b90565b61103b61039c91610409565b60601b90565b6106019461107361106c602099989560149760028661106560089861107b9a610f9f565b019161100d565b809261101c565b01809261102f565b01918252565b61035a60806105d1565b9061039c90610409565b61035a9051610409565b906001600160a01b03905b9181191691161790565b906110c461035a6110cb926106d5565b825461109f565b9055565b90600019906110aa565b906110e961035a6110cb92610c58565b82546110cf565b9060ff906110aa565b9061110961035a6110cb92151590565b82546110f0565b600361116560606102559461113061112a60008301611095565b866110b4565b61114761113e602083015190565b600187016110d9565b61115e611155604083015190565b600287016110d9565b0151151590565b91016110f9565b9061025591611110565b9361120e90611215966111ab61119c6111976111926003610415565b6106d5565b610409565b6111a533610409565b14610d96565b6111c96111c460006111be8a60056103fa565b0161042b565b610de7565b6112066111de6111d98787610e29565b610e73565b6112006111fa61119760006111f48d60056103fa565b01610415565b91610409565b14610e7c565b81019061072e565b95906106d5565b9360009361123861122861119787610ecd565b61123188610409565b1415610ed6565b61124361035a610c65565b871115611317579361035a611312946112a7611308956113029561129b8c8c7ff5949f687937bd6768db11a421feb8c55deed44c9bc8e6e25efe684d2968300c9c61128d60405190565b978896602088019687611041565b908103825203826105ab565b6112b96112b2825190565b9160200190565b20916112f26112c6611081565b916112d38a82850161108b565b6112de8b6020850152565b6112e9426040850152565b15156060830152565b6112fd83600461035d565b61116c565b936106d5565b9361058860405190565b0390a3565b93915093949150602061132c61119283610415565b9161133660405190565b92839182906308934a5f60e31b825281611354888c60048401610f37565b03925af18015611404576113b76113b26113ac600080516020613264833981519152976113906113bd956113d0976000916113d5575b50610f62565b61035a61139c60405190565b809261129b602083019182610fad565b95610fd0565b610c58565b956106d5565b946113c760405190565b93849384610fe6565b0390a2565b6113f7915060203d6020116113fd575b6113ef81836105ab565b810190610f23565b3861138a565b503d6113e5565b610f56565b61035a9060401c610376565b61035a9054611409565b61035a905b6001600160401b031690565b61035a905461141f565b61142461035a61035a9290565b906001600160401b03906110aa565b61142461035a61035a926001600160401b031690565b9061147c61035a6110cb92611456565b8254611447565b9068ff00000000000000009060401b6110aa565b906114a761035a6110cb92151590565b8254611483565b61039c9061143a565b60208101929161025591906114ae565b906114d0612b7f565b9283906114ec6114e66114e284611415565b1590565b92611430565b926000946114f98661143a565b6001600160401b03861614806115f9575b6001956115266115198861143a565b916001600160401b031690565b1490816115d1575b155b90816115c8575b506115b95790611562929184611559886115508961143a565b9a01998a61146c565b6115aa576116f9565b61156b57505050565b6115996115a5927fc7f505b2f371ae2175ee4913f4499e1f2633a7b5936321eed1cdaeb6115181d294611497565b604051918291826114b7565b0390a1565b6115b48689611497565b6116f9565b63f92ee8a960e01b8652600486fd5b15905038611537565b90506115306115df306106d5565b3b6115f06115ec8a610c58565b9190565b1491905061152e565b508361150a565b1561160757565b60405162461bcd60e51b8152602060048201526015602482015274496e76616c696420746f6b656e206164647265737360581b6044820152606490fd5b1561164b57565b60405162461bcd60e51b815260206004820152601860248201527f496e76616c696420656e64706f696e74206164647265737300000000000000006044820152606490fd5b1561169757565b60405162461bcd60e51b8152602060048201526015602482015274496e76616c6964206d696e206761732076616c756560581b6044820152606490fd5b9160206102559294936116ef60408201966000830190610456565b019061ffff169052565b907f9791fb750d6c4d3651a42030e2ddcf3cdabfe8b1a4544b5b4d615111ca343c16926117a161179a6117a89361172f33612b9c565b611737612bb8565b6117736117636117476000610ecd565b61119761175382610409565b61175c8b610409565b1415611600565b61176c83610409565b1415611644565b6117876117806000610c58565b8511611690565b611192611793876106d5565b60006110b4565b60036110b4565b60066110d9565b6117b0610804565b906115a56117bd60405190565b928392836116d4565b9061025592916114c7565b906117e492916117df612bca565b61182d565b610255612c2b565b156117f357565b60405162461bcd60e51b81526020600482015260126024820152711059191c995cdcc81a5cc8189b1bd8dad95960721b6044820152606490fd5b90610255929161185161184c6114e26118473360076106de565b610878565b6117ec565b90610255929161186b61184c6114e26118478560076106de565b611a00565b1561187757565b60405162461bcd60e51b815260206004820152601d60248201527f416d6f756e74206d7573742062652067726561746572207468616e20300000006044820152606490fd5b156118c357565b60405162461bcd60e51b815260206004820152601860248201527f436861696e206272696467652069732064697361626c656400000000000000006044820152606490fd5b1561190f57565b60405162461bcd60e51b815260206004820152601960248201527f496e73756666696369656e74206761732070726f7669646564000000000000006044820152606490fd5b61ffff9091168152606081019392610255929091604091610f52905b6020830190610456565b6106018160149361102f565b61035a6000610a2f565b61035a611986565b926119de6119e9916119d061035a999798946119f3966119c360c08a019260008b019061ffff169052565b88820360208a0152610a97565b908682036040880152610a97565b956060850190610456565b6080830190610456565b60a0818403910152610a97565b9190600092611a19611a1185610c58565b845b11611870565b600592611a2a856111f484876103fa565b92611a4b611a3787610ecd565b94611a446111fa87610409565b1415610de7565b611a61611a5c876111be86896103fa565b6118bc565b611a79611a7161035a6006610865565b341015611908565b611a8561119287610415565b91823b156102435786611a9760405190565b93849063079cc67960e41b8252818381611ab5873360048401610f37565b03925af19182156114045761129b93611b2293611bea575b50611ad7336106d5565b7fc16a36dcb251f4c00971094fbeffdb9eee9c1f58125de0f87a424bbacd3f87ca611b0160405190565b80611b0e86868b84611954565b0390a2604051938492602084019283610f37565b611b2f6111926003610415565b90611b43866111f48563c5803100986103fa565b94611b6c611b5060405190565b8097611b6060208301918261197a565b908103825203876105ab565b611b75336106d5565b91611b7e611990565b843b15610243578896611ba594611bb093611b9860405190565b9a8b998a98899860e01b90565b885260048801611998565b039134905af1801561140457611bc4575050565b8161025592903d10611be3575b611bdb81836105ab565b81019061053c565b503d611bd1565b611c0090893d8b11611be357611bdb81836105ab565b38611acd565b9061025592916117d1565b9061025591611c1e612c60565b9061025591611c2c81612ce0565b612d0a565b9061025591611c11565b61035a90611c47612dd0565b611c75565b61035a7f360894a13ba1a3210667c828492db98dca3e2076cc3735a920a3ca505d382bbc610c58565b5061035a611c4c565b61035a6000611c3b565b9061025591611c95612e0c565b611ce6565b15611ca157565b60405162461bcd60e51b815260206004820152601a60248201527f43616e6e6f74207265736375652062726964676520746f6b656e0000000000006044820152606490fd5b611d4891611d16611192602093611192611d066111976111926000610415565b611d0f83610409565b1415611c9a565b611d1e612092565b6000611d2960405190565b809681958294611d3d63a9059cbb60e01b90565b845260048401610f37565b03925af1801561140457611d595750565b611d719060203d6020116113fd576113ef81836105ab565b50565b9061025591611c88565b61025590611d8a612e0c565b6117e490611d96612bca565b611ed8565b15611da257565b60405162461bcd60e51b8152602060048201526012602482015271151c985b9cd9995c881b9bdd08199bdd5b9960721b6044820152606490fd5b15611de357565b60405162461bcd60e51b815260206004820152601a60248201527f5472616e7366657220616c72656164792070726f6365737365640000000000006044820152606490fd5b634e487b7160e01b600052601160045260246000fd5b91908201809211611e4b57565b611e28565b15611e5757565b60405162461bcd60e51b815260206004820152601860248201527f44656c617920706572696f64206e6f7420656c617073656400000000000000006044820152606490fd5b9081526060602082018190526010908201526f3232b630bcb2b216ba3930b739b332b960811b6080820152919061025590604060a08501940152565b611fa2611ee961035a83600461035d565b91611f0d611ef684610415565b611f066111fa6111976000610ecd565b1415611d9b565b611f5a600160038501611f2a611f256114e283610878565b611ddc565b611f55611f4d61035a611f3f60028a01610865565b611f47610cb7565b90611e3e565b421015611e50565b6110f9565b611f676111926000610415565b926020816001611f7682610415565b910195611f8287610865565b916000611f8e60405190565b809881958294611d3d63449a52f860e01b90565b03925af192831561140457611fdd611fe392611fd860008051602061326483398151915296611302946000916113d55750610f62565b610415565b94610865565b926113d0611ff060405190565b92839283611e9c565b61025590611d7e565b61200a612e0c565b61025561025561201a6000610ecd565b612e43565b610255612002565b61025590612033612e0c565b6117e49061203f612bca565b6115a57f5ba6b30cd4b2f9e9e67f4feb9b9df10d5da3b057598e6901b217b7d590345e309161207d6120746111976000610ecd565b61175c83610409565b610949611793826106d5565b61025590612027565b61035a60007f9016d09d72d40fdae2fd8ceac6b6234c7706214fd39c1cd1e609a0528c1993006111f4565b90610255916120ca612e0c565b90611f556102559260076106de565b90610255916120bd565b610255906120ef612e0c565b61210061035a61025592600461035d565b612112611f4d611f3f60028401610865565b61212a600160038301611f55611f256114e283610878565b61213f600161213883610415565b9201610865565b90612f32565b610255906120e3565b906102559493929161215e612e0c565b61219f565b9190610ac18161217a816106019560209181520190565b8095610605565b61ffff91909116815260406020820181905261035a93910191612163565b925092506121b06111926003610415565b803b15610243576121e293600080946121c860405190565b968795869485936342d65a8d60e01b855260048501612181565b03925af18015611404576121f35750565b610255906000611bdb81836105ab565b906102559493929161214e565b9061035a9594939291612221612e0c565b906122379594939291612232612bca565b612347565b90610255612c2b565b1561224757565b60405162461bcd60e51b815260206004820152601d60248201527f5472616e73616374696f6e20616c72656164792070726f6365737365640000006044820152606490fd5b1561229357565b60405162461bcd60e51b8152602060048201526016602482015275496e76616c696420746172676574206164647265737360501b6044820152606490fd5b156122d857565b60405162461bcd60e51b815260206004820152601860248201527f416d6f756e742065786365656473207468726573686f6c6400000000000000006044820152606490fd5b949391604091610255946110089261233a60608a019360008b0152565b88830360208a0152612163565b50939291906123a960016123696123646114e2611847898561035d565b612240565b6123896123796111976000610ecd565b61238289610409565b141561228c565b61239f61239761035a610c65565b8411156122d1565b611f55868261035d565b6123b66111926000610415565b9360206123c260405190565b9586906308934a5f60e31b8252816000816123e1888d60048401610f37565b03925af19485156114045760009561242c575b50612426906124136000805160206132648339815191529596976106d5565b9561241d60405190565b9485948561231d565b0390a290565b6000805160206132648339815191529495509061241361245d6124269360203d6020116113fd576113ef81836105ab565b96955050906123f4565b61035a94939291906000612210565b906117e491612483612bca565b6124af565b604090610f5261025594969593966124a860608401986000850190610456565b6020830152565b60006124c96124c061119783610ecd565b61123184610409565b6124d5611a1182610c58565b6124e061035a610c65565b8310612531576113126113086113027ff5949f687937bd6768db11a421feb8c55deed44c9bc8e6e25efe684d2968300c9361035a61251d60405190565b6112a7816020810161129b428d8d84612488565b509061025591612f32565b9061025591612476565b9061025591612553612e0c565b6125c1565b1561255f57565b60405162461bcd60e51b815260206004820152601460248201527310da185a5b881b9bdd081c9959da5cdd195c995960621b6044820152606490fd5b9060ff60a01b9060a01b6110aa565b906125ba61035a6110cb92151590565b825461259b565b6113d061262f7f3670c8077fe2b25f52efd0a9d8d4a2745875be1f4bd3296b938d456e55b63cee926126136125fc60006111f48460056103fa565b61260c6111fa6111976000610ecd565b1415612558565b61262a8560006126248460056103fa565b016125aa565b6103e2565b926103bf60405190565b9061025591612546565b906117e4939291612652612bca565b6126da565b604090610f52610255949695939661197060608401986000850190610456565b1561267e57565b60405162461bcd60e51b815260206004820152600f60248201526e151c985b9cd9995c8819985a5b1959608a1b6044820152606490fd5b949391604091610255946126d29261233a60608a019360008b0152565b940190610456565b61273692936126f26126ec6000610c58565b83611a13565b6020826127026111926000610415565b61270b306106d5565b600061271660405190565b80998195829461272a6323b872dd60e01b90565b84523360048501612657565b03925af1908115611404576127786113d0927f8786e6ec8d013cb6dfb1b71a429e4f9d6f71acfb1f381106e217046664ad90c696600091612794575b50612677565b612781336106d5565b9561278b60405190565b948594856126b5565b6127ad915060203d6020116113fd576113ef81836105ab565b38612772565b90610255939291612643565b610255906127cb612e0c565b6102559060066110d9565b610255906127bf565b90610255949392916127ef612e0c565b906117e4949392916127ff612bca565b929361282360016128196123646114e2611847868561035d565b611f55838261035d565b6128306111926000610415565b90602061283c60405190565b92839063a9059cbb60e01b82528160008161285b898c60048401610f37565b03925af180156114045760008051602061326483398151915295611192612413926113d0956000916127945750612677565b90610255949392916127df565b906117e49392916128a9612bca565b92919260006128ba6126ec82610c58565b6128c661119282610415565b93843b1561024357816128d860405190565b95869063079cc67960e41b82528183816128f6893360048401610f37565b03925af1918215611404577f8786e6ec8d013cb6dfb1b71a429e4f9d6f71acfb1f381106e217046664ad90c6956113d093612937575b5050612781336106d5565b8161294d92903d10611be357611bdb81836105ab565b388061292c565b9061025593929161289a565b6102559061296c612e0c565b600061297781610ecd565b61298081610409565b61298984610409565b1461299957505061025590612e43565b631e4fbdf760e01b82528190610de3906004830161091e565b61025590612960565b9061025592916129c9612e0c565b612a95565b156129d557565b60405162461bcd60e51b8152602060048201526015602482015274496e76616c69642072656d6f74652062726964676560581b6044820152606490fd5b15612a1957565b60405162461bcd60e51b815260206004820152601c60248201527f43616e6e6f7420726567697374657220736f7572636520636861696e000000006044820152606490fd5b61035a60406105d1565b61025591612a859060209061115e612a7f82611095565b856110b4565b906125aa565b9061025591612a68565b907fb2f92ae146563fe193b48846974f797b06908d26dab8e3598ea23a1edb83141d612b26612b329493612adf612acf6111976000610ecd565b612ad886610409565b14156129ce565b612af9612aed6103f3610804565b61ffff83161415612a12565b61262a612b04612a5e565b612b0e868261108b565b8615156020820152612b218360056103fa565b612a8b565b93849261094d60405190565b0390a2612b3c5750565b7f3670c8077fe2b25f52efd0a9d8d4a2745875be1f4bd3296b938d456e55b63cee612b6660405190565b6001815280602081016113d0565b9061025592916129bb565b61035a613056565b61025590612b9361305e565b6102559061308d565b61025590612b87565b612bad61305e565b61025561025561309e565b610255612ba5565b61035a6002610c58565b7f9b779b17422d0df92223018b32b4d1fa46e071723d6817e2486d003becc55f00612bf481610865565b612bfc612bc0565b908114612c0c57610255916110d9565b633ee5aeb560e01b600090815260045b036000fd5b61035a6001610c58565b6102557f9b779b17422d0df92223018b32b4d1fa46e071723d6817e2486d003becc55f006000612c59612c21565b91016110d9565b612c69306106d5565b7f000000000000000000000000000000000000000000000000000000000000000090612c976111fa83610409565b14908115612cb9575b50612ca757565b63703e46dd60e11b6000908152600490fd5b9050612ccf6111fa612cc96130a6565b92610409565b141538612ca0565b50610255612e0c565b61025590612cd7565b9050519061025582610333565b906020828203126102435761035a91612ce9565b90612d17611192836106d5565b906020612d2360405190565b6352d1902d60e01b815292839060049082905afa60009281612d9f575b50612d695750506001612d505750565b634c9c8ce360e01b600090815290612c1c90600461091e565b909291612d7761035a611c4c565b8403612d88576102559293506130b6565b632a87526960e21b60009081526004859052602490fd5b612dc291935060203d602011612dc9575b612dba81836105ab565b810190612cf6565b9138612d40565b503d612db0565b612dd9306106d5565b612e056111fa7f0000000000000000000000000000000000000000000000000000000000000000610409565b03612ca757565b612e14612092565b3390612e226111fa83610409565b03612e2a5750565b63118cdaa760e01b600090815290612c1c90600461091e565b612e83612e7d7f9016d09d72d40fdae2fd8ceac6b6234c7706214fd39c1cd1e609a0528c19930061119284612e7783610415565b926110b4565b916106d5565b907f8be0079c531659141344cd1fd0a4f28419497f9722a3daafe3b4186f6b6457e0612eae60405190565b8080611312565b15612ebc57565b60405162461bcd60e51b8152602060048201526014602482015273149958da5c1a595b9d081a5cc8189b1bd8dad95960621b6044820152606490fd5b908152606060208201819052600e908201526d3637b1b0b616ba3930b739b332b960911b6080820152919061025590604060a08501940152565b612f4b612f426111976000610ecd565b61123183610409565b612f586126ec6000610c58565b612f71612f6c6114e26118478460076106de565b612eb5565b612f7e6111926000610415565b906020612f8a60405190565b9283906308934a5f60e31b825281600081612fa9898860048401610f37565b03925af19182156114045760008051602061326483398151915292612fd5916000916127945750612677565b613017612fe160405190565b42602080830191825261300591839161129b908961060160148a61107b8588611073565b6130106112b2825190565b20916106d5565b926113d061302460405190565b92839283612ef8565b61035a7ff0c57e16840df040f15088dc2f81fe391c3923bec73e23a9662efc9c229c6a00610c58565b61035a61302d565b6130696114e261311f565b61306f57565b631afcd79f60e31b6000908152600490fd5b6102559061296c61305e565b61025590613081565b6117e461305e565b610255613096565b61035a60006111f461035a611c4c565b906130c082613132565b6130c9826106d5565b7fbc7cd75a20ee27fd9adebab32041f755214dbc6bffa90cc0225b39da2e5c2d3b6130f360405190565b600090a280516131066115ec6000610c58565b111561311557611d71916131b7565b5050610255613175565b61035a600061312c612b7f565b01611415565b6000813b6131426115ec83610c58565b1461315d57906102559161315761035a611c4c565b016110b4565b610de38192634c9c8ce360e01b83526004830161091e565b600061318081610c58565b34116131895750565b63b398979f60e01b8152600490fd5b3d156131b2576131a73d610a2f565b903d6000602084013e565b606090565b60008061035a936131c6606090565b50602081519101845af46131d8613198565b91906131e45750613234565b8151906000916131f66115ec84610c58565b148061321f575b61320657505090565b639996b31560e01b82528190610de3906004830161091e565b50803b61322e6115ec84610c58565b146131fd565b80516000906132456115ec83610c58565b11156132545750805190602001fd5b63d6bda27560e01b8152600490fdfe7b93d20aa9666fff2b9034d25db8eefa4ada8752b0b713f599e9da3bd437e192a264697066735822122064afb7a6fbeec40d58ae55e9d3a868a783835b83eea99771f1734c3c8a633e6a64736f6c634300081b0033",
  "linkReferences": {},
  "deployedLinkReferences": {}
}